{
  "contractName": "Person",
  "abi": [
    {
      "constant": true,
      "inputs": [],
      "name": "exists",
      "outputs": [
        {
          "name": "",
          "type": "bool"
        }
      ],
      "payable": false,
      "stateMutability": "view",
      "type": "function"
    },
    {
      "constant": true,
      "inputs": [],
      "name": "ID",
      "outputs": [
        {
          "name": "",
          "type": "address"
        }
      ],
      "payable": false,
      "stateMutability": "view",
      "type": "function"
    },
    {
      "constant": true,
      "inputs": [],
      "name": "balance",
      "outputs": [
        {
          "name": "",
          "type": "uint256"
        }
      ],
      "payable": false,
      "stateMutability": "view",
      "type": "function"
    },
    {
      "inputs": [
        {
          "name": "_ID",
          "type": "address"
        },
        {
          "name": "_balance",
          "type": "uint256"
        }
      ],
      "payable": false,
      "stateMutability": "nonpayable",
      "type": "constructor"
    },
    {
      "constant": false,
      "inputs": [
        {
          "name": "amount",
          "type": "uint256"
        }
      ],
      "name": "increaseBalance",
      "outputs": [],
      "payable": false,
      "stateMutability": "nonpayable",
      "type": "function"
    },
    {
      "constant": false,
      "inputs": [
        {
          "name": "amount",
          "type": "uint256"
        }
      ],
      "name": "decreaseBalance",
      "outputs": [],
      "payable": false,
      "stateMutability": "nonpayable",
      "type": "function"
    }
  ],
  "bytecode": "0x608060405234801561001057600080fd5b506040516040806102908339810180604052604081101561003057600080fd5b810190808051906020019092919080519060200190929190505050816000806101000a81548173ffffffffffffffffffffffffffffffffffffffff021916908373ffffffffffffffffffffffffffffffffffffffff160217905550806001819055506001600260006101000a81548160ff02191690831515021790555050506101d2806100be6000396000f3fe608060405234801561001057600080fd5b50600436106100575760003560e01c8063267c4ae41461005c578063392aee431461007e5780633e4ccb40146100ac578063b3cea217146100da578063b69ef8a814610124575b600080fd5b610064610142565b604051808215151515815260200191505060405180910390f35b6100aa6004803603602081101561009457600080fd5b8101908080359060200190929190505050610155565b005b6100d8600480360360208110156100c257600080fd5b8101908080359060200190929190505050610168565b005b6100e261017b565b604051808273ffffffffffffffffffffffffffffffffffffffff1673ffffffffffffffffffffffffffffffffffffffff16815260200191505060405180910390f35b61012c6101a0565b6040518082815260200191505060405180910390f35b600260009054906101000a900460ff1681565b8060016000828254039250508190555050565b8060016000828254019250508190555050565b6000809054906101000a900473ffffffffffffffffffffffffffffffffffffffff1681565b6001548156fea165627a7a7230582030f76cd239a8d806be8b75d2a6025e88f9e662b320c8792d35a1ed380c40d5a60029",
  "source": "/* Person.sol */\r\n\r\npragma solidity >=0.4.0 <0.7.0;\r\n\r\n/* <Summary> \r\n\tThis contract repersents a user on the network\r\n*/\r\n\r\ncontract Person {\r\n\taddress public ID;\t\t\t// The address of the user\r\n\tuint public balance;\t\t// The balance of that user\r\n\tbool public exists;\t\t\t// Used for mapping\r\n\r\n\tconstructor(address _ID, uint _balance) public {\r\n\t\tID = _ID;\r\n\t\tbalance = _balance;\r\n\t\texists = true;\r\n\t}\r\n\r\n\t// Increase the balance of the user\r\n\tfunction increaseBalance(uint amount) external {\r\n\t\tbalance += amount;\r\n\t}\r\n\r\n\t// Decrease the balance of the user\r\n\tfunction decreaseBalance(uint amount) external {\r\n\t\tbalance -= amount;\r\n\t}\r\n}",
  "sourcePath": "C:\\Users\\m5w5b\\Desktop\\GitHub\\game-dapp\\AccountRecovery\\contracts\\Person.sol",
  "compiler": {
    "name": "solc",
    "version": "0.5.8+commit.23d335f2.Emscripten.clang"
  },
  "schemaVersion": "3.0.16",
  "updatedAt": "2019-10-18T01:35:02.975Z",
  "devdoc": {
    "methods": {}
  },
  "userdoc": {
    "methods": {}
  }
}