{
  "contractName": "Person",
  "abi": [
    {
      "constant": true,
      "inputs": [],
      "name": "exists",
      "outputs": [
        {
          "name": "",
          "type": "bool"
        }
      ],
      "payable": false,
      "stateMutability": "view",
      "type": "function"
    },
    {
      "constant": true,
      "inputs": [],
      "name": "ID",
      "outputs": [
        {
          "name": "",
          "type": "address"
        }
      ],
      "payable": false,
      "stateMutability": "view",
      "type": "function"
    },
    {
      "constant": true,
      "inputs": [],
      "name": "balance",
      "outputs": [
        {
          "name": "",
          "type": "uint256"
        }
      ],
      "payable": false,
      "stateMutability": "view",
      "type": "function"
    },
    {
      "constant": true,
      "inputs": [],
      "name": "vetoTime",
      "outputs": [
        {
          "name": "",
          "type": "uint256"
        }
      ],
      "payable": false,
      "stateMutability": "view",
      "type": "function"
    },
    {
      "inputs": [
        {
          "name": "_ID",
          "type": "address"
        },
        {
          "name": "_balance",
          "type": "uint256"
        },
        {
          "name": "_vetoTime",
          "type": "uint256"
        }
      ],
      "payable": false,
      "stateMutability": "nonpayable",
      "type": "constructor"
    },
    {
      "constant": false,
      "inputs": [
        {
          "name": "amount",
          "type": "uint256"
        }
      ],
      "name": "increaseBalance",
      "outputs": [],
      "payable": false,
      "stateMutability": "nonpayable",
      "type": "function"
    },
    {
      "constant": false,
      "inputs": [
        {
          "name": "amount",
          "type": "uint256"
        }
      ],
      "name": "decreaseBalance",
      "outputs": [],
      "payable": false,
      "stateMutability": "nonpayable",
      "type": "function"
    }
  ],
  "bytecode": "0x608060405234801561001057600080fd5b506040516060806102d18339810180604052606081101561003057600080fd5b81019080805190602001909291908051906020019092919080519060200190929190505050826000806101000a81548173ffffffffffffffffffffffffffffffffffffffff021916908373ffffffffffffffffffffffffffffffffffffffff160217905550816001819055506001600260006101000a81548160ff02191690831515021790555080600381905550505050610201806100d06000396000f3fe608060405234801561001057600080fd5b50600436106100625760003560e01c8063267c4ae414610067578063392aee43146100895780633e4ccb40146100b7578063b3cea217146100e5578063b69ef8a81461012f578063b7f688521461014d575b600080fd5b61006f61016b565b604051808215151515815260200191505060405180910390f35b6100b56004803603602081101561009f57600080fd5b810190808035906020019092919050505061017e565b005b6100e3600480360360208110156100cd57600080fd5b8101908080359060200190929190505050610191565b005b6100ed6101a4565b604051808273ffffffffffffffffffffffffffffffffffffffff1673ffffffffffffffffffffffffffffffffffffffff16815260200191505060405180910390f35b6101376101c9565b6040518082815260200191505060405180910390f35b6101556101cf565b6040518082815260200191505060405180910390f35b600260009054906101000a900460ff1681565b8060016000828254039250508190555050565b8060016000828254019250508190555050565b6000809054906101000a900473ffffffffffffffffffffffffffffffffffffffff1681565b60015481565b6003548156fea165627a7a72305820668cf50e4b04e899810fcf0dcf86d8ef1b5304cc9033bccd9fdf6154b4a591610029",
  "source": "/* Person.sol */\r\n\r\npragma solidity >=0.4.0 <0.7.0;\r\n\r\n/* <Summary> \r\n\tThis contract repersents a user on the network\r\n*/\r\n\r\ncontract Person {\r\n\taddress public ID;\t\t\t// The address of the user\r\n\tuint public balance;\t\t// The balance of that user\r\n\tbool public exists;\t\t\t// Used for mapping\r\n\tuint public vetoTime;\r\n\r\n\tconstructor(address _ID, uint _balance, uint _vetoTime) public {\r\n\t\tID = _ID;\r\n\t\tbalance = _balance;\r\n\t\texists = true;\r\n\t\tvetoTime = _vetoTime;\r\n\t}\r\n\r\n\t// Increase the balance of the user\r\n\tfunction increaseBalance(uint amount) external {\r\n\t\tbalance += amount;\r\n\t}\r\n\r\n\t// Decrease the balance of the user\r\n\tfunction decreaseBalance(uint amount) external {\r\n\t\tbalance -= amount;\r\n\t}\r\n}",
  "sourcePath": "C:\\Users\\m5w5b\\Desktop\\GitHub\\game-dapp\\AccountRecovery\\contracts\\Person.sol",
  "compiler": {
    "name": "solc",
    "version": "0.5.8+commit.23d335f2.Emscripten.clang"
  },
  "schemaVersion": "3.0.16",
  "updatedAt": "2019-10-31T15:18:42.073Z",
  "devdoc": {
    "methods": {}
  },
  "userdoc": {
    "methods": {}
  }
}