{
  "contractName": "Person",
  "abi": [
    {
      "constant": true,
      "inputs": [],
      "name": "ID",
      "outputs": [
        {
          "name": "",
          "type": "address"
        }
      ],
      "payable": false,
      "stateMutability": "view",
      "type": "function"
    },
    {
      "constant": true,
      "inputs": [],
      "name": "balance",
      "outputs": [
        {
          "name": "",
          "type": "uint256"
        }
      ],
      "payable": false,
      "stateMutability": "view",
      "type": "function"
    },
    {
      "inputs": [
        {
          "name": "_ID",
          "type": "address"
        },
        {
          "name": "_balance",
          "type": "uint256"
        }
      ],
      "payable": false,
      "stateMutability": "nonpayable",
      "type": "constructor"
    },
    {
      "constant": false,
      "inputs": [
        {
          "name": "amount",
          "type": "uint256"
        }
      ],
      "name": "increaseBalance",
      "outputs": [],
      "payable": false,
      "stateMutability": "nonpayable",
      "type": "function"
    },
    {
      "constant": false,
      "inputs": [
        {
          "name": "amount",
          "type": "uint256"
        }
      ],
      "name": "decreaseBalance",
      "outputs": [],
      "payable": false,
      "stateMutability": "nonpayable",
      "type": "function"
    }
  ],
  "bytecode": "0x608060405234801561001057600080fd5b506040516040806102358339810180604052604081101561003057600080fd5b810190808051906020019092919080519060200190929190505050816000806101000a81548173ffffffffffffffffffffffffffffffffffffffff021916908373ffffffffffffffffffffffffffffffffffffffff160217905550806001819055505050610192806100a36000396000f3fe608060405234801561001057600080fd5b506004361061004c5760003560e01c8063392aee43146100515780633e4ccb401461007f578063b3cea217146100ad578063b69ef8a8146100f7575b600080fd5b61007d6004803603602081101561006757600080fd5b8101908080359060200190929190505050610115565b005b6100ab6004803603602081101561009557600080fd5b8101908080359060200190929190505050610128565b005b6100b561013b565b604051808273ffffffffffffffffffffffffffffffffffffffff1673ffffffffffffffffffffffffffffffffffffffff16815260200191505060405180910390f35b6100ff610160565b6040518082815260200191505060405180910390f35b8060016000828254039250508190555050565b8060016000828254019250508190555050565b6000809054906101000a900473ffffffffffffffffffffffffffffffffffffffff1681565b6001548156fea165627a7a723058200f4f4661dae9187150b884ecc1fcf3e8e2d9ee97668338fa8086cb8d601f87230029",
  "source": "pragma solidity >=0.4.0 <0.7.0;\r\n\r\ncontract Person {\r\n\taddress public ID;\r\n\tuint public balance;\r\n\r\n\tconstructor(address _ID, uint _balance) public {\r\n\t\tID = _ID;\r\n\t\tbalance = _balance;\r\n\t}\r\n\r\n\tfunction increaseBalance(uint amount) public {\r\n\t\tbalance += amount;\r\n\t}\r\n\r\n\tfunction decreaseBalance(uint amount) public {\r\n\t\tbalance -= amount;\r\n\t}\r\n}",
  "sourcePath": "C:\\Users\\m5w5b\\Desktop\\GitHub\\game-dapp\\AccountRecovery\\contracts\\Person.sol",
  "compiler": {
    "name": "solc",
    "version": "0.5.8+commit.23d335f2.Emscripten.clang"
  },
  "schemaVersion": "3.0.16",
  "updatedAt": "2019-10-07T23:58:21.030Z",
  "devdoc": {
    "methods": {}
  },
  "userdoc": {
    "methods": {}
  }
}