{
  "contractName": "Person",
  "abi": [
    {
      "constant": true,
      "inputs": [],
      "name": "ID",
      "outputs": [
        {
          "name": "",
          "type": "address"
        }
      ],
      "payable": false,
      "stateMutability": "view",
      "type": "function"
    },
    {
      "constant": true,
      "inputs": [],
      "name": "balance",
      "outputs": [
        {
          "name": "",
          "type": "uint256"
        }
      ],
      "payable": false,
      "stateMutability": "view",
      "type": "function"
    },
    {
      "constant": true,
      "inputs": [],
      "name": "vetoTime",
      "outputs": [
        {
          "name": "",
          "type": "uint256"
        }
      ],
      "payable": false,
      "stateMutability": "view",
      "type": "function"
    },
    {
      "inputs": [
        {
          "name": "_ID",
          "type": "address"
        },
        {
          "name": "_balance",
          "type": "uint256"
        },
        {
          "name": "_vetoTime",
          "type": "uint256"
        }
      ],
      "payable": false,
      "stateMutability": "nonpayable",
      "type": "constructor"
    },
    {
      "constant": false,
      "inputs": [
        {
          "name": "amount",
          "type": "uint256"
        }
      ],
      "name": "increaseBalance",
      "outputs": [],
      "payable": false,
      "stateMutability": "nonpayable",
      "type": "function"
    },
    {
      "constant": false,
      "inputs": [
        {
          "name": "amount",
          "type": "uint256"
        }
      ],
      "name": "decreaseBalance",
      "outputs": [],
      "payable": false,
      "stateMutability": "nonpayable",
      "type": "function"
    },
    {
      "constant": false,
      "inputs": [
        {
          "name": "time",
          "type": "uint256"
        }
      ],
      "name": "setVetoTime",
      "outputs": [],
      "payable": false,
      "stateMutability": "nonpayable",
      "type": "function"
    }
  ],
  "bytecode": "0x608060405234801561001057600080fd5b506040516060806102b98339810180604052606081101561003057600080fd5b81019080805190602001909291908051906020019092919080519060200190929190505050826000806101000a81548173ffffffffffffffffffffffffffffffffffffffff021916908373ffffffffffffffffffffffffffffffffffffffff1602179055508160018190555080600281905550505050610204806100b56000396000f3fe608060405234801561001057600080fd5b50600436106100625760003560e01c8063392aee43146100675780633e4ccb40146100955780634ea13d84146100c3578063b3cea217146100f1578063b69ef8a81461013b578063b7f6885214610159575b600080fd5b6100936004803603602081101561007d57600080fd5b8101908080359060200190929190505050610177565b005b6100c1600480360360208110156100ab57600080fd5b810190808035906020019092919050505061018a565b005b6100ef600480360360208110156100d957600080fd5b810190808035906020019092919050505061019d565b005b6100f96101a7565b604051808273ffffffffffffffffffffffffffffffffffffffff1673ffffffffffffffffffffffffffffffffffffffff16815260200191505060405180910390f35b6101436101cc565b6040518082815260200191505060405180910390f35b6101616101d2565b6040518082815260200191505060405180910390f35b8060016000828254039250508190555050565b8060016000828254019250508190555050565b8060028190555050565b6000809054906101000a900473ffffffffffffffffffffffffffffffffffffffff1681565b60015481565b6002548156fea165627a7a723058207c428967853a30dc542254f5e486a36d982f505504e37f330e1757bbf6baaa190029",
  "source": "/* Person.sol */\r\n\r\npragma solidity >=0.4.0 <0.7.0;\r\n\r\n/* <Summary> \r\n\tThis contract repersents a user on the network\r\n*/\r\n\r\ncontract Person {\r\n\taddress public ID;\t\t\t// The address of the user\r\n\tuint public balance;\t\t// The balance of that user\r\n\tuint public vetoTime;\t\t// Time required before this account can be recovered\r\n\r\n\tconstructor(address _ID, uint _balance, uint _vetoTime) public {\r\n\t\tID = _ID;\r\n\t\tbalance = _balance;\r\n\t\tvetoTime = _vetoTime;\r\n\t}\r\n\r\n\t// Increase the balance of the user\r\n\tfunction increaseBalance(uint amount) external {\r\n\t\tbalance += amount;\r\n\t}\r\n\r\n\t// Decrease the balance of the user\r\n\tfunction decreaseBalance(uint amount) external {\r\n\t\tbalance -= amount;\r\n\t}\r\n\r\n\t// Change the time desinated to vetoing\r\n\tfunction setVetoTime(uint time) external {\r\n\t\tvetoTime = time;\r\n\t}\r\n}",
  "sourcePath": "C:\\Users\\m5w5b\\Desktop\\GitHub\\game-dapp\\AccountRecovery\\contracts\\Person.sol",
  "compiler": {
    "name": "solc",
    "version": "0.5.8+commit.23d335f2.Emscripten.clang"
  },
  "schemaVersion": "3.0.16",
  "updatedAt": "2019-11-07T20:24:41.088Z",
  "devdoc": {
    "methods": {}
  },
  "userdoc": {
    "methods": {}
  }
}