{
  "contractName": "Person",
  "abi": [
    {
      "constant": true,
      "inputs": [],
      "name": "exists",
      "outputs": [
        {
          "name": "",
          "type": "bool"
        }
      ],
      "payable": false,
      "stateMutability": "view",
      "type": "function"
    },
    {
      "constant": true,
      "inputs": [],
      "name": "ID",
      "outputs": [
        {
          "name": "",
          "type": "address"
        }
      ],
      "payable": false,
      "stateMutability": "view",
      "type": "function"
    },
    {
      "constant": true,
      "inputs": [],
      "name": "balance",
      "outputs": [
        {
          "name": "",
          "type": "uint256"
        }
      ],
      "payable": false,
      "stateMutability": "view",
      "type": "function"
    },
    {
      "constant": true,
      "inputs": [],
      "name": "vetoTime",
      "outputs": [
        {
          "name": "",
          "type": "uint256"
        }
      ],
      "payable": false,
      "stateMutability": "view",
      "type": "function"
    },
    {
      "inputs": [
        {
          "name": "_ID",
          "type": "address"
        },
        {
          "name": "_balance",
          "type": "uint256"
        },
        {
          "name": "_vetoTime",
          "type": "uint256"
        }
      ],
      "payable": false,
      "stateMutability": "nonpayable",
      "type": "constructor"
    },
    {
      "constant": false,
      "inputs": [
        {
          "name": "amount",
          "type": "uint256"
        }
      ],
      "name": "increaseBalance",
      "outputs": [],
      "payable": false,
      "stateMutability": "nonpayable",
      "type": "function"
    },
    {
      "constant": false,
      "inputs": [
        {
          "name": "amount",
          "type": "uint256"
        }
      ],
      "name": "decreaseBalance",
      "outputs": [],
      "payable": false,
      "stateMutability": "nonpayable",
      "type": "function"
    },
    {
      "constant": false,
      "inputs": [
        {
          "name": "time",
          "type": "uint256"
        }
      ],
      "name": "setVetoTime",
      "outputs": [],
      "payable": false,
      "stateMutability": "nonpayable",
      "type": "function"
    }
  ],
  "bytecode": "0x608060405234801561001057600080fd5b506040516060806103248339810180604052606081101561003057600080fd5b81019080805190602001909291908051906020019092919080519060200190929190505050826000806101000a81548173ffffffffffffffffffffffffffffffffffffffff021916908373ffffffffffffffffffffffffffffffffffffffff160217905550816001819055506001600260006101000a81548160ff02191690831515021790555080600381905550505050610254806100d06000396000f3fe608060405234801561001057600080fd5b506004361061007d5760003560e01c80634ea13d841161005b5780634ea13d8414610100578063b3cea2171461012e578063b69ef8a814610178578063b7f68852146101965761007d565b8063267c4ae414610082578063392aee43146100a45780633e4ccb40146100d2575b600080fd5b61008a6101b4565b604051808215151515815260200191505060405180910390f35b6100d0600480360360208110156100ba57600080fd5b81019080803590602001909291905050506101c7565b005b6100fe600480360360208110156100e857600080fd5b81019080803590602001909291905050506101da565b005b61012c6004803603602081101561011657600080fd5b81019080803590602001909291905050506101ed565b005b6101366101f7565b604051808273ffffffffffffffffffffffffffffffffffffffff1673ffffffffffffffffffffffffffffffffffffffff16815260200191505060405180910390f35b61018061021c565b6040518082815260200191505060405180910390f35b61019e610222565b6040518082815260200191505060405180910390f35b600260009054906101000a900460ff1681565b8060016000828254039250508190555050565b8060016000828254019250508190555050565b8060038190555050565b6000809054906101000a900473ffffffffffffffffffffffffffffffffffffffff1681565b60015481565b6003548156fea165627a7a72305820d84a4199c975c6bf08bca9cbc3573d756a6806d94c383b013be96ff7f12266470029",
  "source": "/* Person.sol */\r\n\r\npragma solidity >=0.4.0 <0.7.0;\r\n\r\n/* <Summary> \r\n\tThis contract repersents a user on the network\r\n*/\r\n\r\ncontract Person {\r\n\taddress public ID;\t\t\t// The address of the user\r\n\tuint public balance;\t\t// The balance of that user\r\n\tbool public exists;\t\t\t// If this user exists. Used for mapping\r\n\tuint public vetoTime;\t\t// Time required before this account can be recovered\r\n\r\n\tconstructor(address _ID, uint _balance, uint _vetoTime) public {\r\n\t\tID = _ID;\r\n\t\tbalance = _balance;\r\n\t\texists = true;\r\n\t\tvetoTime = _vetoTime;\r\n\t}\r\n\r\n\t// Increase the balance of the user\r\n\tfunction increaseBalance(uint amount) external {\r\n\t\tbalance += amount;\r\n\t}\r\n\r\n\t// Decrease the balance of the user\r\n\tfunction decreaseBalance(uint amount) external {\r\n\t\tbalance -= amount;\r\n\t}\r\n\r\n\t// Change the time desinated to vetoing\r\n\tfunction setVetoTime(uint time) external {\r\n\t\tvetoTime = time;\r\n\t}\r\n}",
  "sourcePath": "C:\\Users\\m5w5b\\Desktop\\GitHub\\game-dapp\\AccountRecovery\\contracts\\Person.sol",
  "compiler": {
    "name": "solc",
    "version": "0.5.8+commit.23d335f2.Emscripten.clang"
  },
  "schemaVersion": "3.0.16",
  "updatedAt": "2019-11-05T20:05:16.364Z",
  "devdoc": {
    "methods": {}
  },
  "userdoc": {
    "methods": {}
  }
}