{
  "contractName": "Person",
  "abi": [
    {
      "constant": true,
      "inputs": [],
      "name": "ID",
      "outputs": [
        {
          "name": "",
          "type": "address"
        }
      ],
      "payable": false,
      "stateMutability": "view",
      "type": "function"
    },
    {
      "constant": true,
      "inputs": [],
      "name": "balance",
      "outputs": [
        {
          "name": "",
          "type": "uint256"
        }
      ],
      "payable": false,
      "stateMutability": "view",
      "type": "function"
    },
    {
      "inputs": [
        {
          "name": "_ID",
          "type": "address"
        },
        {
          "name": "_balance",
          "type": "uint256"
        }
      ],
      "payable": false,
      "stateMutability": "nonpayable",
      "type": "constructor"
    },
    {
      "constant": true,
      "inputs": [],
      "name": "getBalance",
      "outputs": [
        {
          "name": "",
          "type": "uint256"
        }
      ],
      "payable": false,
      "stateMutability": "view",
      "type": "function"
    },
    {
      "constant": true,
      "inputs": [],
      "name": "getID",
      "outputs": [
        {
          "name": "",
          "type": "address"
        }
      ],
      "payable": false,
      "stateMutability": "view",
      "type": "function"
    }
  ],
  "bytecode": "0x608060405234801561001057600080fd5b5060405160408061024e8339810180604052604081101561003057600080fd5b810190808051906020019092919080519060200190929190505050816000806101000a81548173ffffffffffffffffffffffffffffffffffffffff021916908373ffffffffffffffffffffffffffffffffffffffff1602179055508060018190555050506101ab806100a36000396000f3fe608060405234801561001057600080fd5b506004361061004c5760003560e01c806312065fe014610051578063ab9dbd071461006f578063b3cea217146100b9578063b69ef8a814610103575b600080fd5b610059610121565b6040518082815260200191505060405180910390f35b61007761012b565b604051808273ffffffffffffffffffffffffffffffffffffffff1673ffffffffffffffffffffffffffffffffffffffff16815260200191505060405180910390f35b6100c1610154565b604051808273ffffffffffffffffffffffffffffffffffffffff1673ffffffffffffffffffffffffffffffffffffffff16815260200191505060405180910390f35b61010b610179565b6040518082815260200191505060405180910390f35b6000600154905090565b60008060009054906101000a900473ffffffffffffffffffffffffffffffffffffffff16905090565b6000809054906101000a900473ffffffffffffffffffffffffffffffffffffffff1681565b6001548156fea165627a7a7230582001669d6b9d5956436bd45b0d51e2d31022c2c0daa52c239a682b12f379e3124b0029",
  "source": "pragma solidity >=0.4.25 <0.6.0;\n\n\ncontract Manager {\n\n\tmapping (address => Person) Users;\n\taddress[] public addresses;\n\n\tconstructor(address[] memory _addresses) public {\n\t\taddresses = _addresses;\n\t\tfor (uint i = 0; i < addresses.length; i++) {\n\t\t\tUsers[addresses[i]] = Person(addresses[i]);\n\t\t}\n\t\t//Users[_addresses[i]].getBalance();\n\t}\n\n\n}\n\ncontract Person {\n\taddress public ID;\n\tuint public balance;\n\n\tconstructor(address _ID, uint _balance) public {\n\t\tID = _ID;\n\t\tbalance = _balance;\n\t}\n\n\tfunction getBalance() public view returns(uint) {\n\t\treturn balance;\n\t}\n\n\tfunction getID() public view returns(address) {\n\t\treturn ID;\n\t}\n}\n\n/*\ncontract Transaction {\n\n\tPerson public sender;\n\tPerson public receiver;\n\tuint public amount;\n\n\tevent Transfer(address indexed _from, address indexed _to, uint256 _value);\n\n\tconstructor(Person _sender, Person _reciever, uint _amount) public {\n\t\tsender = _sender;\n\t\treceiver = _reciever;\n\t\tamount = _amount;\n\t\tsendCoin();\n\t}\n\n\tfunction sendCoin() public pure returns(bool sufficient) {\n\t\tif (balances[msg.sender] < amount) return false;\n\t\tbalances[msg.sender] -= amount;\n\t\tbalances[receiver] += amount;\n\t\temit Transfer(msg.sender, receiver, amount);\n\t\treturn true;\n\t}\n}\n*/\n\ncontract VotingToken {\n\n\tstruct token {\n\t\tbool vote;\n\t\tbool eligible;\n\t\tbool voted;\n\t}\n\n\tmapping (address => token) votes;\n\taddress[] public voters;\n\taddress public oldAccount;\n\taddress public newAccount;\n\tuint256 public result;\n\tuint256 public margin;\n\n\tevent Vote(address indexed _from, bool _choice);\n\n\tconstructor(address[] memory _voters, address _oldAccount, address _newAccount) public {\n\n\t\toldAccount = _oldAccount;\n\t\tnewAccount = _newAccount;\n\t\tvoters = _voters;\n\n\t\tfor (uint i = 0; i < voters.length; i++) {\n\t\t\tvotes[voters[i]] = token(false, true, false);\n\t\t}\n\n\t\tresult = 0;\t\n\t\tmargin = 6;\n\t}\n\n\tfunction random(uint8 size) public view returns (uint8) {\n        return uint8(uint256(keccak256(abi.encodePacked(block.timestamp, block.difficulty)))%size);\n    }\n\n\tfunction CastVote(address from, bool choice) public {\n\t\tif (votes[from].eligible == false) return;\n\t\tif (votes[from].voted == true) return;\n\t\tvotes[from].vote = choice;\n\t\tvotes[from].eligible = false;\n\t\tvotes[from].voted = true;\n\t\temit Vote(from, choice);\n\t}\n\n\tfunction getVotes() public view returns(uint) {\n\t\tuint yeses = 0;\n\n\t\tfor (uint i = 0; i < voters.length; i++) {\n\t\t\ttoken memory temp = votes[voters[i]];\n\t\t\tif (temp.voted == true){\n\t\t\t\tif (temp.vote == true){\n\t\t\t\t\tyeses++;\n\t\t\t\t}\n\t\t\t}\t\t\t\n\t\t}\n\t\treturn yeses;\n\t}\n\n\tfunction getOutcome() public view returns(bool) {\n\t\treturn result >= margin;\n\t}\n\n\tfunction getResult() public view returns(uint256) {\n\t\treturn result;\n\t}\n\n\tfunction CountVotes(address from) public {\n\t\tif (from != newAccount) return;\n\n\t\tuint yeses = 0;\n\t\tuint total = 0;\n\n\t\tfor (uint i = 0; i < voters.length; i++) {\n\t\t\ttoken memory temp = votes[voters[i]];\n\t\t\tif (temp.voted == true){\n\t\t\t\tif (temp.vote == true){\n\t\t\t\t\tyeses++;\n\t\t\t\t}\n\t\t\t\ttotal++;\n\t\t\t}\t\t\t\n\t\t}\n\n\t\tresult = (yeses*10) / total;\n\t}\n}\n",
  "sourcePath": "C:/Users/m5w5b/Desktop/GitHub/game-dapp/AccountRecovery/contracts/Contracts.sol",
  "compiler": {
    "name": "solc",
    "version": "0.5.8+commit.23d335f2.Emscripten.clang"
  },
  "schemaVersion": "3.0.16",
  "updatedAt": "2019-10-04T18:18:08.214Z",
  "devdoc": {
    "methods": {}
  },
  "userdoc": {
    "methods": {}
  }
}