{
  "contractName": "Proposal",
  "abi": [
    {
      "inputs": [
        {
          "name": "_oldAccount",
          "type": "address"
        },
        {
          "name": "_newAccount",
          "type": "address"
        },
        {
          "name": "_description",
          "type": "string"
        },
        {
          "name": "_price",
          "type": "uint256"
        }
      ],
      "payable": false,
      "stateMutability": "nonpayable",
      "type": "constructor"
    },
    {
      "constant": false,
      "inputs": [
        {
          "name": "_newAccount",
          "type": "address"
        }
      ],
      "name": "Pay",
      "outputs": [],
      "payable": false,
      "stateMutability": "nonpayable",
      "type": "function"
    },
    {
      "constant": false,
      "inputs": [
        {
          "name": "_voters",
          "type": "address[]"
        },
        {
          "name": "_haveTradedWith",
          "type": "address[]"
        }
      ],
      "name": "AddTradePartners",
      "outputs": [],
      "payable": false,
      "stateMutability": "nonpayable",
      "type": "function"
    },
    {
      "constant": false,
      "inputs": [],
      "name": "FindRandomTradingPartner",
      "outputs": [
        {
          "name": "",
          "type": "address"
        }
      ],
      "payable": false,
      "stateMutability": "nonpayable",
      "type": "function"
    },
    {
      "constant": false,
      "inputs": [],
      "name": "AddRandomTradingPartner",
      "outputs": [],
      "payable": false,
      "stateMutability": "nonpayable",
      "type": "function"
    },
    {
      "constant": false,
      "inputs": [
        {
          "name": "_oldAccount",
          "type": "address"
        },
        {
          "name": "_voter",
          "type": "address"
        },
        {
          "name": "_description",
          "type": "string"
        }
      ],
      "name": "MakeVotingToken",
      "outputs": [],
      "payable": false,
      "stateMutability": "nonpayable",
      "type": "function"
    },
    {
      "constant": false,
      "inputs": [
        {
          "name": "from",
          "type": "address"
        },
        {
          "name": "choice",
          "type": "bool"
        }
      ],
      "name": "CastVote",
      "outputs": [],
      "payable": false,
      "stateMutability": "nonpayable",
      "type": "function"
    },
    {
      "constant": false,
      "inputs": [
        {
          "name": "UserManagerInstance",
          "type": "address"
        }
      ],
      "name": "ConcludeAccountRecovery",
      "outputs": [
        {
          "name": "",
          "type": "bool"
        }
      ],
      "payable": false,
      "stateMutability": "nonpayable",
      "type": "function"
    },
    {
      "constant": false,
      "inputs": [
        {
          "name": "_timeStamp",
          "type": "uint256"
        },
        {
          "name": "_voter",
          "type": "address"
        },
        {
          "name": "_amount",
          "type": "uint256"
        },
        {
          "name": "_description",
          "type": "string"
        },
        {
          "name": "_itemsInTrade",
          "type": "string"
        }
      ],
      "name": "AddTransactionDataSet",
      "outputs": [],
      "payable": false,
      "stateMutability": "nonpayable",
      "type": "function"
    },
    {
      "constant": true,
      "inputs": [
        {
          "name": "_voter",
          "type": "address"
        },
        {
          "name": "i",
          "type": "uint256"
        }
      ],
      "name": "ViewPublicInformation",
      "outputs": [
        {
          "name": "",
          "type": "uint256"
        },
        {
          "name": "",
          "type": "uint256"
        },
        {
          "name": "",
          "type": "address"
        },
        {
          "name": "",
          "type": "address"
        }
      ],
      "payable": false,
      "stateMutability": "view",
      "type": "function"
    },
    {
      "constant": true,
      "inputs": [
        {
          "name": "_voter",
          "type": "address"
        },
        {
          "name": "i",
          "type": "uint256"
        }
      ],
      "name": "ViewPrivateInformation",
      "outputs": [
        {
          "name": "",
          "type": "string"
        },
        {
          "name": "",
          "type": "string"
        }
      ],
      "payable": false,
      "stateMutability": "view",
      "type": "function"
    }
  ],
  "bytecode": "0x60806040526000600460006101000a81548173ffffffffffffffffffffffffffffffffffffffff021916908373ffffffffffffffffffffffffffffffffffffffff1602179055506000600960006101000a81548160ff021916908360ff1602179055506000600960016101000a81548160ff0219169083151502179055503480156200008a57600080fd5b5060405162003a4338038062003a4383398101806040526080811015620000b057600080fd5b8101908080519060200190929190805190602001909291908051640100000000811115620000dd57600080fd5b82810190506020810184811115620000f457600080fd5b81518560018202830111640100000000821117156200011257600080fd5b50509291906020018051906020019092919050505083600560006101000a81548173ffffffffffffffffffffffffffffffffffffffff021916908373ffffffffffffffffffffffffffffffffffffffff16021790555082600660006101000a81548173ffffffffffffffffffffffffffffffffffffffff021916908373ffffffffffffffffffffffffffffffffffffffff1602179055508160079080519060200190620001c1929190620001d3565b50806008819055505050505062000282565b828054600181600116156101000203166002900490600052602060002090601f016020900481019282601f106200021657805160ff191683800117855562000247565b8280016001018555821562000247579182015b828111156200024657825182559160200191906001019062000229565b5b5090506200025691906200025a565b5090565b6200027f91905b808211156200027b57600081600090555060010162000261565b5090565b90565b6137b180620002926000396000f3fe60806040523480156200001157600080fd5b5060043610620000ac5760003560e01c8063cde596b2116200006f578063cde596b2146200034a578063e628c2e01462000391578063e8d94c001462000463578063f91ac8991462000522578063fa041dd7146200065e57620000ac565b80630d2cea2c14620000b157806319e5fba01462000110578063512b8426146200021b5780636b64df141462000227578063ae70981f14620002fe575b600080fd5b620000f660048036036020811015620000c957600080fd5b81019080803573ffffffffffffffffffffffffffffffffffffffff169060200190929190505050620006b1565b604051808215151515815260200191505060405180910390f35b62000219600480360360a08110156200012857600080fd5b8101908080359060200190929190803573ffffffffffffffffffffffffffffffffffffffff16906020019092919080359060200190929190803590602001906401000000008111156200017a57600080fd5b8201836020820111156200018d57600080fd5b80359060200191846001830284011164010000000083111715620001b057600080fd5b909192939192939080359060200190640100000000811115620001d257600080fd5b820183602082011115620001e557600080fd5b803590602001918460018302840111640100000000831117156200020857600080fd5b909192939192939050505062000bae565b005b6200022562000e65565b005b620002fc600480360360408110156200023f57600080fd5b81019080803590602001906401000000008111156200025d57600080fd5b8201836020820111156200027057600080fd5b803590602001918460208302840111640100000000831117156200029357600080fd5b909192939192939080359060200190640100000000811115620002b557600080fd5b820183602082011115620002c857600080fd5b80359060200191846020830284011164010000000083111715620002eb57600080fd5b909192939192939050505062001067565b005b6200030862001103565b604051808273ffffffffffffffffffffffffffffffffffffffff1673ffffffffffffffffffffffffffffffffffffffff16815260200191505060405180910390f35b6200038f600480360360208110156200036257600080fd5b81019080803573ffffffffffffffffffffffffffffffffffffffff169060200190929190505050620012af565b005b620003e060048036036040811015620003a957600080fd5b81019080803573ffffffffffffffffffffffffffffffffffffffff169060200190929190803590602001909291905050506200141c565b604051808581526020018481526020018373ffffffffffffffffffffffffffffffffffffffff1673ffffffffffffffffffffffffffffffffffffffff1681526020018273ffffffffffffffffffffffffffffffffffffffff1673ffffffffffffffffffffffffffffffffffffffff16815260200194505050505060405180910390f35b62000520600480360360608110156200047b57600080fd5b81019080803573ffffffffffffffffffffffffffffffffffffffff169060200190929190803573ffffffffffffffffffffffffffffffffffffffff16906020019092919080359060200190640100000000811115620004d957600080fd5b820183602082011115620004ec57600080fd5b803590602001918460018302840111640100000000831117156200050f57600080fd5b90919293919293905050506200167d565b005b62000571600480360360408110156200053a57600080fd5b81019080803573ffffffffffffffffffffffffffffffffffffffff1690602001909291908035906020019092919050505062001a24565b604051808060200180602001838103835285818151815260200191508051906020019080838360005b83811015620005b75780820151818401526020810190506200059a565b50505050905090810190601f168015620005e55780820380516001836020036101000a031916815260200191505b50838103825284818151815260200191508051906020019080838360005b838110156200062057808201518184015260208101905062000603565b50505050905090810190601f1680156200064e5780820380516001836020036101000a031916815260200191505b5094505050505060405180910390f35b620006af600480360360408110156200067657600080fd5b81019080803573ffffffffffffffffffffffffffffffffffffffff16906020019092919080351515906020019092919050505062001d09565b005b600060011515600960019054906101000a900460ff1615151462000721576040517f08c379a0000000000000000000000000000000000000000000000000000000008152600401808060200182810382526027815260200180620037366027913960400191505060405180910390fd5b60006001805490501162000781576040517f08c379a0000000000000000000000000000000000000000000000000000000008152600401808060200182810382526037815260200180620036d46037913960400191505060405180910390fd5b600180549050600960009054906101000a900460ff1660ff1614620007f2576040517f08c379a00000000000000000000000000000000000000000000000000000000081526004018080602001828103825260258152602001806200368d6025913960400191505060405180910390fd5b600060426200080062001f4f565b60646200080c620021ee565b02816200081557fe5b041015905060008090505b60018054905081101562000ba4576000806000600184815481106200084157fe5b9060005260206000200160009054906101000a900473ffffffffffffffffffffffffffffffffffffffff1673ffffffffffffffffffffffffffffffffffffffff1673ffffffffffffffffffffffffffffffffffffffff16815260200190815260200160002060009054906101000a900473ffffffffffffffffffffffffffffffffffffffff1690508073ffffffffffffffffffffffffffffffffffffffff16632f2a18ff6040518163ffffffff1660e01b815260040160206040518083038186803b1580156200091057600080fd5b505afa15801562000925573d6000803e3d6000fd5b505050506040513d60208110156200093c57600080fd5b81019080805190602001909291905050501562000b955760006200095f62001f4f565b6002600854816200096c57fe5b04816200097557fe5b0490508315158273ffffffffffffffffffffffffffffffffffffffff166319900a806040518163ffffffff1660e01b815260040160206040518083038186803b158015620009c257600080fd5b505afa158015620009d7573d6000803e3d6000fd5b505050506040513d6020811015620009ee57600080fd5b81019080805190602001909291905050501515141562000a2e5762000a12620021ee565b60026008548162000a1f57fe5b048162000a2857fe5b04810190505b60008673ffffffffffffffffffffffffffffffffffffffff16636f77926b6001868154811062000a5a57fe5b9060005260206000200160009054906101000a900473ffffffffffffffffffffffffffffffffffffffff166040518263ffffffff1660e01b8152600401808273ffffffffffffffffffffffffffffffffffffffff1673ffffffffffffffffffffffffffffffffffffffff16815260200191505060206040518083038186803b15801562000ae657600080fd5b505afa15801562000afb573d6000803e3d6000fd5b505050506040513d602081101562000b1257600080fd5b810190808051906020019092919050505090508073ffffffffffffffffffffffffffffffffffffffff16633e4ccb40836040518263ffffffff1660e01b815260040180828152602001915050600060405180830381600087803b15801562000b7957600080fd5b505af115801562000b8e573d6000803e3d6000fd5b5050505050505b50808060010191505062000820565b5080915050919050565b60011515600960019054906101000a900460ff1615151462000c1c576040517f08c379a0000000000000000000000000000000000000000000000000000000008152600401808060200182810382526027815260200180620037366027913960400191505060405180910390fd5b60006001805490501162000c7c576040517f08c379a0000000000000000000000000000000000000000000000000000000008152600401808060200182810382526037815260200180620036d46037913960400191505060405180910390fd5b600180549050600960009054906101000a900460ff1660ff161462000ced576040517f08c379a00000000000000000000000000000000000000000000000000000000081526004018080602001828103825260258152602001806200368d6025913960400191505060405180910390fd5b6000808773ffffffffffffffffffffffffffffffffffffffff1673ffffffffffffffffffffffffffffffffffffffff16815260200190815260200160002060009054906101000a900473ffffffffffffffffffffffffffffffffffffffff1673ffffffffffffffffffffffffffffffffffffffff166319e5fba0888888888888886040518863ffffffff1660e01b8152600401808881526020018773ffffffffffffffffffffffffffffffffffffffff1673ffffffffffffffffffffffffffffffffffffffff16815260200186815260200180602001806020018381038352878782818152602001925080828437600081840152601f19601f8201169050808301925050508381038252858582818152602001925080828437600081840152601f19601f8201169050808301925050509950505050505050505050600060405180830381600087803b15801562000e4357600080fd5b505af115801562000e58573d6000803e3d6000fd5b5050505050505050505050565b60011515600960019054906101000a900460ff1615151462000ed3576040517f08c379a0000000000000000000000000000000000000000000000000000000008152600401808060200182810382526027815260200180620037366027913960400191505060405180910390fd5b60006001805490501162000f33576040517f08c379a0000000000000000000000000000000000000000000000000000000008152600401808060200182810382526037815260200180620036d46037913960400191505060405180910390fd5b600073ffffffffffffffffffffffffffffffffffffffff16600460009054906101000a900473ffffffffffffffffffffffffffffffffffffffff1673ffffffffffffffffffffffffffffffffffffffff16141562000fdd576040517f08c379a000000000000000000000000000000000000000000000000000000000815260040180806020018281038252602b8152602001806200370b602b913960400191505060405180910390fd5b6003600460009054906101000a900473ffffffffffffffffffffffffffffffffffffffff1690806001815401808255809150509060018203906000526020600020016000909192909190916101000a81548173ffffffffffffffffffffffffffffffffffffffff021916908373ffffffffffffffffffffffffffffffffffffffff16021790555050565b60011515600960019054906101000a900460ff16151514620010d5576040517f08c379a0000000000000000000000000000000000000000000000000000000008152600401808060200182810382526027815260200180620037366027913960400191505060405180910390fd5b838360019190620010e89291906200250a565b50818160029190620010fc9291906200250a565b5050505050565b600060011515600960019054906101000a900460ff1615151462001173576040517f08c379a0000000000000000000000000000000000000000000000000000000008152600401808060200182810382526027815260200180620037366027913960400191505060405180910390fd5b600060018054905011620011d3576040517f08c379a0000000000000000000000000000000000000000000000000000000008152600401808060200182810382526037815260200180620036d46037913960400191505060405180910390fd5b600062001208600460009054906101000a900473ffffffffffffffffffffffffffffffffffffffff166002805490506200248d565b60ff169050600281815481106200121b57fe5b9060005260206000200160009054906101000a900473ffffffffffffffffffffffffffffffffffffffff16600460006101000a81548173ffffffffffffffffffffffffffffffffffffffff021916908373ffffffffffffffffffffffffffffffffffffffff160217905550600460009054906101000a900473ffffffffffffffffffffffffffffffffffffffff1691505090565b6008548173ffffffffffffffffffffffffffffffffffffffff1663b69ef8a86040518163ffffffff1660e01b815260040160206040518083038186803b158015620012f957600080fd5b505afa1580156200130e573d6000803e3d6000fd5b505050506040513d60208110156200132557600080fd5b810190808051906020019092919050505010156200138f576040517f08c379a0000000000000000000000000000000000000000000000000000000008152600401808060200182810382526022815260200180620036b26022913960400191505060405180910390fd5b8073ffffffffffffffffffffffffffffffffffffffff1663392aee436008546040518263ffffffff1660e01b815260040180828152602001915050600060405180830381600087803b158015620013e557600080fd5b505af1158015620013fa573d6000803e3d6000fd5b505050506001600960016101000a81548160ff02191690831515021790555050565b60008060008060011515600960019054906101000a900460ff1615151462001490576040517f08c379a0000000000000000000000000000000000000000000000000000000008152600401808060200182810382526027815260200180620037366027913960400191505060405180910390fd5b600060018054905011620014f0576040517f08c379a0000000000000000000000000000000000000000000000000000000008152600401808060200182810382526037815260200180620036d46037913960400191505060405180910390fd5b600180549050600960009054906101000a900460ff1660ff161462001561576040517f08c379a00000000000000000000000000000000000000000000000000000000081526004018080602001828103825260258152602001806200368d6025913960400191505060405180910390fd5b6000808773ffffffffffffffffffffffffffffffffffffffff1673ffffffffffffffffffffffffffffffffffffffff16815260200190815260200160002060009054906101000a900473ffffffffffffffffffffffffffffffffffffffff1673ffffffffffffffffffffffffffffffffffffffff16634ba569a4866040518263ffffffff1660e01b81526004018082815260200191505060806040518083038186803b1580156200161157600080fd5b505afa15801562001626573d6000803e3d6000fd5b505050506040513d60808110156200163d57600080fd5b8101908080519060200190929190805190602001909291908051906020019092919080519060200190929190505050935093509350935092959194509250565b60011515600960019054906101000a900460ff16151514620016eb576040517f08c379a0000000000000000000000000000000000000000000000000000000008152600401808060200182810382526027815260200180620037366027913960400191505060405180910390fd5b6000600180549050116200174b576040517f08c379a0000000000000000000000000000000000000000000000000000000008152600401808060200182810382526037815260200180620036d46037913960400191505060405180910390fd5b60026003805490501015620017ac576040517f08c379a00000000000000000000000000000000000000000000000000000000081526004018080602001828103825260328152602001806200365b6032913960400191505060405180910390fd5b60008090505b600180549050811015620019bb578373ffffffffffffffffffffffffffffffffffffffff1660018281548110620017e557fe5b9060005260206000200160009054906101000a900473ffffffffffffffffffffffffffffffffffffffff1673ffffffffffffffffffffffffffffffffffffffff161415620019ad57848484846040516200183f90620025af565b808573ffffffffffffffffffffffffffffffffffffffff1673ffffffffffffffffffffffffffffffffffffffff1681526020018473ffffffffffffffffffffffffffffffffffffffff1673ffffffffffffffffffffffffffffffffffffffff168152602001806020018281038252848482818152602001925080828437600081840152601f19601f82011690508083019250505095505050505050604051809103906000f080158015620018f7573d6000803e3d6000fd5b506000808673ffffffffffffffffffffffffffffffffffffffff1673ffffffffffffffffffffffffffffffffffffffff16815260200190815260200160002060006101000a81548173ffffffffffffffffffffffffffffffffffffffff021916908373ffffffffffffffffffffffffffffffffffffffff1602179055506009600081819054906101000a900460ff168092919060010191906101000a81548160ff021916908360ff160217905550505062001a1e565b8080600101915050620017b2565b506001151560011515141562001a1d576040517f08c379a00000000000000000000000000000000000000000000000000000000081526004018080602001828103825260298152602001806200375d6029913960400191505060405180910390fd5b5b50505050565b60608060011515600960019054906101000a900460ff1615151462001a95576040517f08c379a0000000000000000000000000000000000000000000000000000000008152600401808060200182810382526027815260200180620037366027913960400191505060405180910390fd5b60006001805490501162001af5576040517f08c379a0000000000000000000000000000000000000000000000000000000008152600401808060200182810382526037815260200180620036d46037913960400191505060405180910390fd5b600180549050600960009054906101000a900460ff1660ff161462001b66576040517f08c379a00000000000000000000000000000000000000000000000000000000081526004018080602001828103825260258152602001806200368d6025913960400191505060405180910390fd5b6000808573ffffffffffffffffffffffffffffffffffffffff1673ffffffffffffffffffffffffffffffffffffffff16815260200190815260200160002060009054906101000a900473ffffffffffffffffffffffffffffffffffffffff1673ffffffffffffffffffffffffffffffffffffffff16637bd1eb3c846040518263ffffffff1660e01b81526004018082815260200191505060006040518083038186803b15801562001c1657600080fd5b505afa15801562001c2b573d6000803e3d6000fd5b505050506040513d6000823e3d601f19601f82011682018060405250604081101562001c5657600080fd5b81019080805164010000000081111562001c6f57600080fd5b8281019050602081018481111562001c8657600080fd5b815185600182028301116401000000008211171562001ca457600080fd5b5050929190602001805164010000000081111562001cc157600080fd5b8281019050602081018481111562001cd857600080fd5b815185600182028301116401000000008211171562001cf657600080fd5b5050929190505050915091509250929050565b60011515600960019054906101000a900460ff1615151462001d77576040517f08c379a0000000000000000000000000000000000000000000000000000000008152600401808060200182810382526027815260200180620037366027913960400191505060405180910390fd5b60006001805490501162001dd7576040517f08c379a0000000000000000000000000000000000000000000000000000000008152600401808060200182810382526037815260200180620036d46037913960400191505060405180910390fd5b600180549050600960009054906101000a900460ff1660ff161462001e48576040517f08c379a00000000000000000000000000000000000000000000000000000000081526004018080602001828103825260258152602001806200368d6025913960400191505060405180910390fd5b6000808373ffffffffffffffffffffffffffffffffffffffff1673ffffffffffffffffffffffffffffffffffffffff16815260200190815260200160002060009054906101000a900473ffffffffffffffffffffffffffffffffffffffff1673ffffffffffffffffffffffffffffffffffffffff1663fa041dd783836040518363ffffffff1660e01b8152600401808373ffffffffffffffffffffffffffffffffffffffff1673ffffffffffffffffffffffffffffffffffffffff1681526020018215151515815260200192505050600060405180830381600087803b15801562001f3257600080fd5b505af115801562001f47573d6000803e3d6000fd5b505050505050565b600060011515600960019054906101000a900460ff1615151462001fbf576040517f08c379a0000000000000000000000000000000000000000000000000000000008152600401808060200182810382526027815260200180620037366027913960400191505060405180910390fd5b6000600180549050116200201f576040517f08c379a0000000000000000000000000000000000000000000000000000000008152600401808060200182810382526037815260200180620036d46037913960400191505060405180910390fd5b600180549050600960009054906101000a900460ff1660ff161462002090576040517f08c379a00000000000000000000000000000000000000000000000000000000081526004018080602001828103825260258152602001806200368d6025913960400191505060405180910390fd5b600080905060008090505b600180549050811015620021e657600080600060018481548110620020bc57fe5b9060005260206000200160009054906101000a900473ffffffffffffffffffffffffffffffffffffffff1673ffffffffffffffffffffffffffffffffffffffff1673ffffffffffffffffffffffffffffffffffffffff16815260200190815260200160002060009054906101000a900473ffffffffffffffffffffffffffffffffffffffff1690508073ffffffffffffffffffffffffffffffffffffffff16632f2a18ff6040518163ffffffff1660e01b815260040160206040518083038186803b1580156200218b57600080fd5b505afa158015620021a0573d6000803e3d6000fd5b505050506040513d6020811015620021b757600080fd5b810190808051906020019092919050505015620021d75782806001019350505b5080806001019150506200209b565b508091505090565b600060011515600960019054906101000a900460ff161515146200225e576040517f08c379a0000000000000000000000000000000000000000000000000000000008152600401808060200182810382526027815260200180620037366027913960400191505060405180910390fd5b600060018054905011620022be576040517f08c379a0000000000000000000000000000000000000000000000000000000008152600401808060200182810382526037815260200180620036d46037913960400191505060405180910390fd5b600180549050600960009054906101000a900460ff1660ff16146200232f576040517f08c379a00000000000000000000000000000000000000000000000000000000081526004018080602001828103825260258152602001806200368d6025913960400191505060405180910390fd5b600080905060008090505b60018054905081101562002485576000806000600184815481106200235b57fe5b9060005260206000200160009054906101000a900473ffffffffffffffffffffffffffffffffffffffff1673ffffffffffffffffffffffffffffffffffffffff1673ffffffffffffffffffffffffffffffffffffffff16815260200190815260200160002060009054906101000a900473ffffffffffffffffffffffffffffffffffffffff1690508073ffffffffffffffffffffffffffffffffffffffff166319900a806040518163ffffffff1660e01b815260040160206040518083038186803b1580156200242a57600080fd5b505afa1580156200243f573d6000803e3d6000fd5b505050506040513d60208110156200245657600080fd5b810190808051906020019092919050505015620024765782806001019350505b5080806001019150506200233a565b508091505090565b600081424485604051602001808481526020018381526020018273ffffffffffffffffffffffffffffffffffffffff1673ffffffffffffffffffffffffffffffffffffffff1660601b815260140193505050506040516020818303038152906040528051906020012060001c816200250157fe5b06905092915050565b8280548282559060005260206000209081019282156200259c579160200282015b828111156200259b57823573ffffffffffffffffffffffffffffffffffffffff168260006101000a81548173ffffffffffffffffffffffffffffffffffffffff021916908373ffffffffffffffffffffffffffffffffffffffff160217905550916020019190600101906200252b565b5b509050620025ab9190620025bd565b5090565b611057806200260483390190565b6200260091905b80821115620025fc57600081816101000a81549073ffffffffffffffffffffffffffffffffffffffff021916905550600101620025c4565b5090565b9056fe60806040523480156200001157600080fd5b506040516200105738038062001057833981018060405260608110156200003757600080fd5b81019080805190602001909291908051906020019092919080516401000000008111156200006457600080fd5b828101905060208101848111156200007b57600080fd5b81518560018202830111640100000000821117156200009957600080fd5b505092919050505081600360006101000a81548173ffffffffffffffffffffffffffffffffffffffff021916908373ffffffffffffffffffffffffffffffffffffffff16021790555082600260006101000a81548173ffffffffffffffffffffffffffffffffffffffff021916908373ffffffffffffffffffffffffffffffffffffffff1602179055506000600360146101000a81548160ff02191690831515021790555060016000806101000a81548160ff0219169083151502179055506000600360156101000a81548160ff02191690831515021790555080600190805190602001906200018b92919062000195565b5050505062000244565b828054600181600116156101000203166002900490600052602060002090601f016020900481019282601f10620001d857805160ff191683800117855562000209565b8280016001018555821562000209579182015b8281111562000208578251825591602001919060010190620001eb565b5b5090506200021891906200021c565b5090565b6200024191905b808211156200023d57600081600090555060010162000223565b5090565b90565b610e0380620002546000396000f3fe608060405234801561001057600080fd5b506004361061007d5760003560e01c80632f2a18ff1161005b5780632f2a18ff146101c85780634ba569a4146101ea5780637bd1eb3c14610299578063fa041dd7146103ac5761007d565b806319900a801461008257806319e5fba0146100a4578063267c4ae4146101a6575b600080fd5b61008a6103fc565b604051808215151515815260200191505060405180910390f35b6101a4600480360360a08110156100ba57600080fd5b8101908080359060200190929190803573ffffffffffffffffffffffffffffffffffffffff169060200190929190803590602001909291908035906020019064010000000081111561010b57600080fd5b82018360208201111561011d57600080fd5b8035906020019184600183028401116401000000008311171561013f57600080fd5b90919293919293908035906020019064010000000081111561016057600080fd5b82018360208201111561017257600080fd5b8035906020019184600183028401116401000000008311171561019457600080fd5b9091929391929390505050610442565b005b6101ae6106e2565b604051808215151515815260200191505060405180910390f35b6101d06106f4565b604051808215151515815260200191505060405180910390f35b6102166004803603602081101561020057600080fd5b8101908080359060200190929190505050610722565b604051808581526020018481526020018373ffffffffffffffffffffffffffffffffffffffff1673ffffffffffffffffffffffffffffffffffffffff1681526020018273ffffffffffffffffffffffffffffffffffffffff1673ffffffffffffffffffffffffffffffffffffffff16815260200194505050505060405180910390f35b6102c5600480360360208110156102af57600080fd5b8101908080359060200190929190505050610851565b604051808060200180602001838103835285818151815260200191508051906020019080838360005b838110156103095780820151818401526020810190506102ee565b50505050905090810190601f1680156103365780820380516001836020036101000a031916815260200191505b50838103825284818151815260200191508051906020019080838360005b8381101561036f578082015181840152602081019050610354565b50505050905090810190601f16801561039c5780820380516001836020036101000a031916815260200191505b5094505050505060405180910390f35b6103fa600480360360408110156103c257600080fd5b81019080803573ffffffffffffffffffffffffffffffffffffffff169060200190929190803515159060200190929190505050610a2f565b005b60008060009054906101000a900460ff1680156104255750600360159054906101000a900460ff165b801561043d5750600360149054906101000a900460ff165b905090565b600115156000809054906101000a900460ff161515146104ca576040517f08c379a00000000000000000000000000000000000000000000000000000000081526004018080602001828103825260198152602001807f5468697320766f74657220646f6573206e6f742065786973740000000000000081525060200191505060405180910390fd5b60046040518060c00160405280898152602001600260009054906101000a900473ffffffffffffffffffffffffffffffffffffffff1673ffffffffffffffffffffffffffffffffffffffff1681526020018873ffffffffffffffffffffffffffffffffffffffff16815260200187815260200186868080601f016020809104026020016040519081016040528093929190818152602001838380828437600081840152601f19601f82011690508083019250505050505050815260200184848080601f016020809104026020016040519081016040528093929190818152602001838380828437600081840152601f19601f82011690508083019250505050505050815250908060018154018082558091505090600182039060005260206000209060060201600090919290919091506000820151816000015560208201518160010160006101000a81548173ffffffffffffffffffffffffffffffffffffffff021916908373ffffffffffffffffffffffffffffffffffffffff16021790555060408201518160020160006101000a81548173ffffffffffffffffffffffffffffffffffffffff021916908373ffffffffffffffffffffffffffffffffffffffff1602179055506060820151816003015560808201518160040190805190602001906106b8929190610d0e565b5060a08201518160050190805190602001906106d5929190610d0e565b5050505050505050505050565b6000809054906101000a900460ff1681565b60008060009054906101000a900460ff16801561071d5750600360159054906101000a900460ff165b905090565b600080600080600060048054905011610786576040517f08c379a0000000000000000000000000000000000000000000000000000000008152600401808060200182810382526024815260200180610db46024913960400191505060405180910390fd5b6004858154811061079357fe5b906000526020600020906006020160000154600486815481106107b257fe5b906000526020600020906006020160030154600487815481106107d157fe5b906000526020600020906006020160010160009054906101000a900473ffffffffffffffffffffffffffffffffffffffff166004888154811061081057fe5b906000526020600020906006020160020160009054906101000a900473ffffffffffffffffffffffffffffffffffffffff1693509350935093509193509193565b6060806000600480549050116108b2576040517f08c379a0000000000000000000000000000000000000000000000000000000008152600401808060200182810382526024815260200180610db46024913960400191505060405180910390fd5b600483815481106108bf57fe5b9060005260206000209060060201600401600484815481106108dd57fe5b9060005260206000209060060201600501818054600181600116156101000203166002900480601f0160208091040260200160405190810160405280929190818152602001828054600181600116156101000203166002900480156109835780601f1061095857610100808354040283529160200191610983565b820191906000526020600020905b81548152906001019060200180831161096657829003601f168201915b50505050509150808054600181600116156101000203166002900480601f016020809104026020016040519081016040528092919081815260200182805460018160011615610100020316600290048015610a1f5780601f106109f457610100808354040283529160200191610a1f565b820191906000526020600020905b815481529060010190602001808311610a0257829003601f168201915b5050505050905091509150915091565b600115156000809054906101000a900460ff16151514610ab7576040517f08c379a00000000000000000000000000000000000000000000000000000000081526004018080602001828103825260198152602001807f5468697320766f74657220646f6573206e6f742065786973740000000000000081525060200191505060405180910390fd5b8173ffffffffffffffffffffffffffffffffffffffff16600360009054906101000a900473ffffffffffffffffffffffffffffffffffffffff1673ffffffffffffffffffffffffffffffffffffffff1614610b7a576040517f08c379a00000000000000000000000000000000000000000000000000000000081526004018080602001828103825260198152602001807f53656e742066726f6d207468652077726f6e6720766f7465720000000000000081525060200191505060405180910390fd5b600060048054905011610bd8576040517f08c379a0000000000000000000000000000000000000000000000000000000008152600401808060200182810382526024815260200180610db46024913960400191505060405180910390fd5b60001515600360159054906101000a900460ff16151514610c61576040517f08c379a000000000000000000000000000000000000000000000000000000000815260040180806020018281038252600d8152602001807f416c726561647920566f7465640000000000000000000000000000000000000081525060200191505060405180910390fd5b80600360146101000a81548160ff0219169083151502179055506001600360156101000a81548160ff021916908315150217905550600360009054906101000a900473ffffffffffffffffffffffffffffffffffffffff1673ffffffffffffffffffffffffffffffffffffffff167fa635d31e67484fd1d93ba01ab0ef882e4440a78aa40d0e2771e8a2aace45986982604051808215151515815260200191505060405180910390a25050565b828054600181600116156101000203166002900490600052602060002090601f016020900481019282601f10610d4f57805160ff1916838001178555610d7d565b82800160010185558215610d7d579182015b82811115610d7c578251825591602001919060010190610d61565b5b509050610d8a9190610d8e565b5090565b610db091905b80821115610dac576000816000905550600101610d94565b5090565b9056fe5468657265206973206e6f207472616e73616374696f6e206461746120746f2076696577a165627a7a7230582004ac15597e270cd62b97c4e08fc19f72ba4287c1bca593a8fafe109e4525e03300294e656564206d6f72652072616e646f6d6c792073656c6563746564206f746865722074726164696e6720706172746e65727348617665206e6f74206372656174656420616c6c2074686520566f74696e67546f6b656e734e6f7420456e6f7567682066756e647320666f7220746869732050726f706f73616c547261646520706172746e6572732068617665206e6f74206265656e20616464656420746f2074686973207965742070726f706f73616c4861766520746f2066696e6420612072616e646f6d2074726164696e6720706172746e6572206669727374546869732070726f706f73616c20686173206e6f74206265656e207061696420666f7220796574496e76616c696420566f7465722e2043616e206e6f74206d616b65206120566f74696e67546f6b656ea165627a7a72305820db9838f76c39984e83073c15656e833fe783ca756312df9d44999e4043887f200029",
  "source": "/* Proposal.sol */\r\n\r\npragma solidity >=0.4.0 <0.7.0;\r\n\r\nimport \"../contracts/VotingToken.sol\";\r\n\r\nimport \"../contracts/Person.sol\";\r\nimport \"../contracts/UserManager.sol\";\r\n\r\n/* <Summary> \r\n\tThis contract manages one active proposal: Casts Votes, Tallies votes, give rewards\r\n*/\r\n\r\ncontract Proposal {\r\n\tmapping (address => VotingToken) votingtokens;\t\t// Active Voting Tokens\r\n\taddress[] voters;\t\t\t\t\t\t\t\t\t// Addresses who are eligible to vote\r\n\r\n\taddress[] haveTradedWith;\r\n\r\n\taddress[] otherPartners;\r\n\taddress lastOtherPartner = 0x0000000000000000000000000000000000000000;\r\n\r\n\taddress oldAccount;\t\t\t\t\t\t\t\t\t// Address of the old account\r\n\taddress newAccount;\t\t\t\t\t\t\t\t\t// Address of the new account\r\n\tstring description;\t\t\t\t\t\t\t\t\t// Description of Proposal\r\n\r\n\tuint price;\t\t\t\t\t\t\t\t\t\t\t// Price of the account recovery\r\n\r\n\tuint8 VotingTokenCreated = 0;\t\t\t\t\t\t// Number of Voting tokens created\r\n\r\n\tbool paided = false;\r\n\r\n\tconstructor(address _oldAccount, address _newAccount, string memory _description, uint _price) public {\r\n\t\t// Set variable\r\n\t\toldAccount = _oldAccount;\r\n\t\tnewAccount = _newAccount;\r\n\t\t\r\n\t\tdescription = _description;\r\n\t\tprice = _price;\r\n\t}\r\n\r\n\tfunction Pay(Person _newAccount) external {\r\n\t\trequire(_newAccount.balance() >= price, \"Not Enough funds for this Proposal\");\r\n\t\t_newAccount.decreaseBalance(price);\t\t\t// Removes money from the new account\r\n\t\tpaided = true;\t\t\t\t\t\t\t\t// The proposal has been paid for\r\n\t}\r\n\r\n\tfunction AddTradePartners(address[] calldata _voters, address[] calldata _haveTradedWith) external {\r\n\t\trequire(paided == true, \"This proposal has not been paid for yet\");\r\n\t\tvoters = _voters;\r\n\t\thaveTradedWith = _haveTradedWith;\r\n\t}\r\n\r\n\tfunction FindRandomTradingPartner() external returns (address) {\r\n\t\trequire(paided == true, \"This proposal has not been paid for yet\");\r\n\t\trequire(voters.length > 0, \"Trade partners have not been added to this yet proposal\");\r\n\r\n\t\tuint j = random(lastOtherPartner, haveTradedWith.length);\t\t\t// Find random value\r\n\t\tlastOtherPartner = haveTradedWith[j];\r\n\t\treturn lastOtherPartner;\t\t\t\t// Random value in havetraded with\r\n\t}\r\n\r\n\tfunction AddRandomTradingPartner() external {\r\n\t\trequire(paided == true, \"This proposal has not been paid for yet\");\r\n\t\trequire(voters.length > 0, \"Trade partners have not been added to this yet proposal\");\r\n\r\n\t\trequire( lastOtherPartner != 0x0000000000000000000000000000000000000000, \"Have to find a random trading partner first\");\r\n\t\t// require( otherPartners[otherPartners.length - 1] != lastOtherPartner, \"Already added that address\");\r\n\r\n\t\totherPartners.push(lastOtherPartner);\r\n\t}\r\n\r\n\t// Make Voting Tokens\r\n\tfunction MakeVotingToken(address _oldAccount, address _voter, string calldata _description) external {\r\n\t\trequire(paided == true, \"This proposal has not been paid for yet\");\r\n\t\trequire(voters.length > 0, \"Trade partners have not been added to this yet proposal\");\r\n\t\trequire(otherPartners.length >= 2, \"Need more randomly selected other trading partners\");\r\n\r\n\t\t// Checks if the given voter address is eligible to vote\r\n\t\tfor (uint i = 0; i < voters.length; i++) {\r\n\t\t\tif (voters[i] == _voter){\t\t\t// The address is eligible to vote\r\n\t\t\t\tvotingtokens[_voter] = new VotingToken(_oldAccount, _voter, _description);\r\n\t\t\t\tVotingTokenCreated++;\t\t\t// Incroment the number of voting tokens created\r\n\t\t\t\treturn;\r\n\t\t\t}\r\n\t\t}\r\n\t\trequire(true != true, \"Invalid Voter. Can not make a VotingToken\");\r\n\t}\r\n\r\n\t// Casts a vote\r\n\tfunction CastVote(address from, bool choice) external {\r\n\t\trequire(paided == true, \"This proposal has not been paid for yet\");\r\n\t\trequire(voters.length > 0, \"Trade partners have not been added to this yet proposal\");\r\n\t\trequire(VotingTokenCreated == voters.length, \"Have not created all the VotingTokens\");\r\n\r\n\t\tvotingtokens[from].CastVote(from, choice);\r\n\t}\r\n\r\n\t// Counts total number of votes\r\n\tfunction NumberOfVotes() internal view returns (uint) {\r\n\t\trequire(paided == true, \"This proposal has not been paid for yet\");\r\n\t\trequire(voters.length > 0, \"Trade partners have not been added to this yet proposal\");\r\n\t\trequire(VotingTokenCreated == voters.length, \"Have not created all the VotingTokens\");\r\n\r\n\t\tuint total = 0;\t\t\t\t\t\t\t// Total number of votes\r\n\t\tfor (uint i = 0; i < voters.length; i++) { // Goes through all voters\r\n\t\t\tVotingToken temp = votingtokens[voters[i]];\r\n\t\t\tif (temp.ExistsAndVoted()){\t\t\t// They are a voter and they voted\r\n\t\t\t\ttotal++;\t\t\t\t\t\t// Incroment the total number of votes\r\n\t\t\t}\r\n\t\t}\r\n\t\treturn total;\r\n\t}\r\n\r\n\t// Counts the number of yess votes\r\n\tfunction CountYesses() internal view returns(uint) {\r\n\t\trequire(paided == true, \"This proposal has not been paid for yet\");\r\n\t\trequire(voters.length > 0, \"Trade partners have not been added to this yet proposal\");\r\n\t\trequire(VotingTokenCreated == voters.length, \"Have not created all the VotingTokens\");\r\n\r\n\t\tuint yeses = 0;\t\t\t\t\t\t\t// Total number of yesses\r\n\t\tfor (uint i = 0; i < voters.length; i++) { // Goes through all voters\r\n\t\t\tVotingToken temp = votingtokens[voters[i]];\r\n\t\t\tif (temp.VotedYes()){ \t\t\t\t// They are a voter and they voted yes\r\n\t\t\t\tyeses++;\t\t\t\t\t\t// Incroment the number of yesses\r\n\t\t\t}\t\t\t\r\n\t\t}\r\n\t\treturn yeses;\r\n\t}\r\n\r\n\t// Give rewards to voters and return outcome of vote\r\n\tfunction ConcludeAccountRecovery(UserManager UserManagerInstance) external returns (bool){\r\n\t\trequire(paided == true, \"This proposal has not been paid for yet\");\r\n\t\trequire(voters.length > 0, \"Trade partners have not been added to this yet proposal\");\r\n\t\trequire(VotingTokenCreated == voters.length, \"Have not created all the VotingTokens\");\r\n\r\n\t\t// Decides the outcome of the vote\r\n\t\tbool outcome = (CountYesses()*100) / NumberOfVotes() >= 66;\r\n\r\n\t\tfor (uint i = 0; i < voters.length; i++) {\t\t\t\t// Goes through all voters\r\n\t\t\tVotingToken temp = votingtokens[voters[i]];\r\n\t\t\tif (temp.ExistsAndVoted()){\t\t\t\t\t// They are a voter and they voted\r\n\t\t\t\tuint amount = (price / 2) / NumberOfVotes();\t// Reward for participating \r\n\t\t\t\tif (temp.VotedYes() == outcome){\t\t\t\t\t// They voted correctly \r\n\t\t\t\t\tamount += (price / 2) / CountYesses();\t\t// Reward for voting correctly \r\n\t\t\t\t}\r\n\r\n\t\t\t\tPerson voter = UserManagerInstance.getUser(voters[i]); // Gets voter in the network\r\n\t\t\t\tvoter.increaseBalance(amount);\t\t\t\t\t// Increases balance\r\n\t\t\t}\r\n\t\t}\r\n\t\treturn outcome;\t\t\t\t\t\t\t\t\t\t\t// Return outcome of vote\r\n\t}\r\n\r\n\t// Add set of data for a give transaction for a give voter\r\n\tfunction AddTransactionDataSet(uint _timeStamp, address _voter, uint _amount, \r\n\t\tstring calldata _description, string calldata _itemsInTrade) external {\r\n\t\trequire(paided == true, \"This proposal has not been paid for yet\");\r\n\t\trequire(voters.length > 0, \"Trade partners have not been added to this yet proposal\");\r\n\t\trequire(VotingTokenCreated == voters.length, \"Have not created all the VotingTokens\");\r\n\r\n\t\tvotingtokens[_voter].AddTransactionDataSet(_timeStamp, _voter, _amount, _description, _itemsInTrade);\r\n\t}\r\n\r\n\t// View public information on a set of data for a transaction\r\n\tfunction ViewPublicInformation( address _voter, uint i) external view returns (uint, uint, address, address) {\r\n\t\trequire(paided == true, \"This proposal has not been paid for yet\");\r\n\t\trequire(voters.length > 0, \"Trade partners have not been added to this yet proposal\");\r\n\t\trequire(VotingTokenCreated == voters.length, \"Have not created all the VotingTokens\");\r\n\r\n\t\treturn votingtokens[_voter].ViewPublicInformation(i);\r\n\t}\r\n\r\n\t// View private information on a set of data for a transaction\r\n\tfunction ViewPrivateInformation( address _voter, uint i) external view returns (string memory, string memory) {\r\n\t\trequire(paided == true, \"This proposal has not been paid for yet\");\r\n\t\trequire(voters.length > 0, \"Trade partners have not been added to this yet proposal\");\r\n\t\trequire(VotingTokenCreated == voters.length, \"Have not created all the VotingTokens\");\r\n\r\n\t\treturn votingtokens[_voter].ViewPrivateInformation(i);\r\n\t}\r\n\r\n\t// Generate random number using an address\r\n\tfunction random(address address1, uint size) internal view returns (uint8) {\r\n\t\treturn uint8(uint256(keccak256(abi.encodePacked(block.timestamp, block.difficulty, address1))) % size);\r\n\t}\r\n}\r\n",
  "sourcePath": "C:\\Users\\m5w5b\\Desktop\\GitHub\\game-dapp\\AccountRecovery\\contracts\\Proposal.sol",
  "compiler": {
    "name": "solc",
    "version": "0.5.8+commit.23d335f2.Emscripten.clang"
  },
  "schemaVersion": "3.0.16",
  "updatedAt": "2019-10-18T12:58:45.986Z",
  "devdoc": {
    "methods": {}
  },
  "userdoc": {
    "methods": {}
  }
}