{
  "contractName": "ProposalCreator",
  "abi": [
    {
      "inputs": [
        {
          "name": "_UM",
          "type": "address"
        },
        {
          "name": "_TM",
          "type": "address"
        },
        {
          "name": "_PM",
          "type": "address"
        }
      ],
      "payable": false,
      "stateMutability": "nonpayable",
      "type": "constructor"
    },
    {
      "constant": false,
      "inputs": [
        {
          "name": "_oldAccount",
          "type": "address"
        }
      ],
      "name": "StartProposal",
      "outputs": [],
      "payable": false,
      "stateMutability": "nonpayable",
      "type": "function"
    },
    {
      "constant": true,
      "inputs": [
        {
          "name": "_oldAccount",
          "type": "address"
        }
      ],
      "name": "ViewPrice",
      "outputs": [
        {
          "name": "",
          "type": "uint256"
        }
      ],
      "payable": false,
      "stateMutability": "view",
      "type": "function"
    },
    {
      "constant": false,
      "inputs": [
        {
          "name": "_oldAccount",
          "type": "address"
        },
        {
          "name": "_pay",
          "type": "bool"
        }
      ],
      "name": "Pay",
      "outputs": [],
      "payable": false,
      "stateMutability": "nonpayable",
      "type": "function"
    },
    {
      "constant": false,
      "inputs": [
        {
          "name": "_oldAccount",
          "type": "address"
        },
        {
          "name": "_tradePartners",
          "type": "address[]"
        }
      ],
      "name": "AddTradePartners",
      "outputs": [],
      "payable": false,
      "stateMutability": "nonpayable",
      "type": "function"
    },
    {
      "constant": true,
      "inputs": [
        {
          "name": "_oldAccount",
          "type": "address"
        }
      ],
      "name": "ViewVoters",
      "outputs": [
        {
          "name": "",
          "type": "address[]"
        }
      ],
      "payable": false,
      "stateMutability": "view",
      "type": "function"
    },
    {
      "constant": false,
      "inputs": [
        {
          "name": "_oldAccount",
          "type": "address"
        },
        {
          "name": "_veto",
          "type": "bool"
        }
      ],
      "name": "RandomTradingPartner",
      "outputs": [],
      "payable": false,
      "stateMutability": "nonpayable",
      "type": "function"
    },
    {
      "constant": true,
      "inputs": [
        {
          "name": "_oldAccount",
          "type": "address"
        }
      ],
      "name": "ViewRandomTradingPartner",
      "outputs": [
        {
          "name": "",
          "type": "address"
        }
      ],
      "payable": false,
      "stateMutability": "view",
      "type": "function"
    },
    {
      "constant": false,
      "inputs": [
        {
          "name": "_oldAccount",
          "type": "address"
        },
        {
          "name": "_timeStamp",
          "type": "uint256"
        },
        {
          "name": "_voter",
          "type": "address"
        },
        {
          "name": "_amount",
          "type": "uint256"
        },
        {
          "name": "_description",
          "type": "string"
        },
        {
          "name": "_importantNotes",
          "type": "string"
        },
        {
          "name": "_location",
          "type": "string"
        },
        {
          "name": "_itemsInTrade",
          "type": "string"
        }
      ],
      "name": "MakeTransactionDataSet",
      "outputs": [],
      "payable": false,
      "stateMutability": "nonpayable",
      "type": "function"
    }
  ],
  "bytecode": "0x608060405234801561001057600080fd5b506040516060806154cb8339810180604052606081101561003057600080fd5b81019080805190602001909291908051906020019092919080519060200190929190505050826000806101000a81548173ffffffffffffffffffffffffffffffffffffffff021916908373ffffffffffffffffffffffffffffffffffffffff16021790555081600160006101000a81548173ffffffffffffffffffffffffffffffffffffffff021916908373ffffffffffffffffffffffffffffffffffffffff16021790555080600260006101000a81548173ffffffffffffffffffffffffffffffffffffffff021916908373ffffffffffffffffffffffffffffffffffffffff1602179055505050506153a2806101296000396000f3fe608060405234801561001057600080fd5b50600436106100885760003560e01c806366fe4d2f1161005b57806366fe4d2f1461024a578063ca4e2062146102a2578063d5e3b562146102e6578063eb1b93ec1461037f57610088565b80632ec59b6e1461008d578063342e6f63146100dd5780634bdc7b501461012d578063516e4c2a146101b1575b600080fd5b6100db600480360360408110156100a357600080fd5b81019080803573ffffffffffffffffffffffffffffffffffffffff16906020019092919080351515906020019092919050505061054c565b005b61012b600480360360408110156100f357600080fd5b81019080803573ffffffffffffffffffffffffffffffffffffffff1690602001909291908035151590602001909291905050506108cb565b005b61016f6004803603602081101561014357600080fd5b81019080803573ffffffffffffffffffffffffffffffffffffffff169060200190929190505050610a4b565b604051808273ffffffffffffffffffffffffffffffffffffffff1673ffffffffffffffffffffffffffffffffffffffff16815260200191505060405180910390f35b610248600480360360408110156101c757600080fd5b81019080803573ffffffffffffffffffffffffffffffffffffffff1690602001909291908035906020019064010000000081111561020457600080fd5b82018360208201111561021657600080fd5b8035906020019184602083028401116401000000008311171561023857600080fd5b9091929391929390505050610be2565b005b61028c6004803603602081101561026057600080fd5b81019080803573ffffffffffffffffffffffffffffffffffffffff169060200190929190505050611020565b6040518082815260200191505060405180910390f35b6102e4600480360360208110156102b857600080fd5b81019080803573ffffffffffffffffffffffffffffffffffffffff1690602001909291905050506111b7565b005b610328600480360360208110156102fc57600080fd5b81019080803573ffffffffffffffffffffffffffffffffffffffff169060200190929190505050611561565b6040518080602001828103825283818151815260200191508051906020019060200280838360005b8381101561036b578082015181840152602081019050610350565b505050509050019250505060405180910390f35b61054a600480360361010081101561039657600080fd5b81019080803573ffffffffffffffffffffffffffffffffffffffff16906020019092919080359060200190929190803573ffffffffffffffffffffffffffffffffffffffff169060200190929190803590602001909291908035906020019064010000000081111561040757600080fd5b82018360208201111561041957600080fd5b8035906020019184600183028401116401000000008311171561043b57600080fd5b90919293919293908035906020019064010000000081111561045c57600080fd5b82018360208201111561046e57600080fd5b8035906020019184600183028401116401000000008311171561049057600080fd5b9091929391929390803590602001906401000000008111156104b157600080fd5b8201836020820111156104c357600080fd5b803590602001918460018302840111640100000000831117156104e557600080fd5b90919293919293908035906020019064010000000081111561050657600080fd5b82018360208201111561051857600080fd5b8035906020019184600183028401116401000000008311171561053a57600080fd5b909192939192939050505061174e565b005b80156107d95760008060009054906101000a900473ffffffffffffffffffffffffffffffffffffffff1673ffffffffffffffffffffffffffffffffffffffff16636f77926b336040518263ffffffff1660e01b8152600401808273ffffffffffffffffffffffffffffffffffffffff1673ffffffffffffffffffffffffffffffffffffffff16815260200191505060206040518083038186803b1580156105f257600080fd5b505afa158015610606573d6000803e3d6000fd5b505050506040513d602081101561061c57600080fd5b81019080805190602001909291905050509050600260009054906101000a900473ffffffffffffffffffffffffffffffffffffffff1673ffffffffffffffffffffffffffffffffffffffff1663d4b3853684336040518363ffffffff1660e01b8152600401808373ffffffffffffffffffffffffffffffffffffffff1673ffffffffffffffffffffffffffffffffffffffff1681526020018273ffffffffffffffffffffffffffffffffffffffff1673ffffffffffffffffffffffffffffffffffffffff1681526020019250505060206040518083038186803b15801561070257600080fd5b505afa158015610716573d6000803e3d6000fd5b505050506040513d602081101561072c57600080fd5b810190808051906020019092919050505073ffffffffffffffffffffffffffffffffffffffff1663cde596b2826040518263ffffffff1660e01b8152600401808273ffffffffffffffffffffffffffffffffffffffff1673ffffffffffffffffffffffffffffffffffffffff168152602001915050600060405180830381600087803b1580156107bb57600080fd5b505af11580156107cf573d6000803e3d6000fd5b50505050506108c7565b600260009054906101000a900473ffffffffffffffffffffffffffffffffffffffff1673ffffffffffffffffffffffffffffffffffffffff16636f4b8b7283336040518363ffffffff1660e01b8152600401808373ffffffffffffffffffffffffffffffffffffffff1673ffffffffffffffffffffffffffffffffffffffff1681526020018273ffffffffffffffffffffffffffffffffffffffff1673ffffffffffffffffffffffffffffffffffffffff16815260200192505050600060405180830381600087803b1580156108ae57600080fd5b505af11580156108c2573d6000803e3d6000fd5b505050505b5050565b600260009054906101000a900473ffffffffffffffffffffffffffffffffffffffff1673ffffffffffffffffffffffffffffffffffffffff1663d4b3853683336040518363ffffffff1660e01b8152600401808373ffffffffffffffffffffffffffffffffffffffff1673ffffffffffffffffffffffffffffffffffffffff1681526020018273ffffffffffffffffffffffffffffffffffffffff1673ffffffffffffffffffffffffffffffffffffffff1681526020019250505060206040518083038186803b15801561099e57600080fd5b505afa1580156109b2573d6000803e3d6000fd5b505050506040513d60208110156109c857600080fd5b810190808051906020019092919050505073ffffffffffffffffffffffffffffffffffffffff166376a3fab6826040518263ffffffff1660e01b81526004018082151515158152602001915050600060405180830381600087803b158015610a2f57600080fd5b505af1158015610a43573d6000803e3d6000fd5b505050505050565b6000600260009054906101000a900473ffffffffffffffffffffffffffffffffffffffff1673ffffffffffffffffffffffffffffffffffffffff1663d4b3853683336040518363ffffffff1660e01b8152600401808373ffffffffffffffffffffffffffffffffffffffff1673ffffffffffffffffffffffffffffffffffffffff1681526020018273ffffffffffffffffffffffffffffffffffffffff1673ffffffffffffffffffffffffffffffffffffffff1681526020019250505060206040518083038186803b158015610b2057600080fd5b505afa158015610b34573d6000803e3d6000fd5b505050506040513d6020811015610b4a57600080fd5b810190808051906020019092919050505073ffffffffffffffffffffffffffffffffffffffff1663137858a16040518163ffffffff1660e01b815260040160206040518083038186803b158015610ba057600080fd5b505afa158015610bb4573d6000803e3d6000fd5b505050506040513d6020811015610bca57600080fd5b81019080805190602001909291905050509050919050565b6060600260009054906101000a900473ffffffffffffffffffffffffffffffffffffffff1673ffffffffffffffffffffffffffffffffffffffff1663352ef89c856040518263ffffffff1660e01b8152600401808273ffffffffffffffffffffffffffffffffffffffff1673ffffffffffffffffffffffffffffffffffffffff16815260200191505060006040518083038186803b158015610c8357600080fd5b505afa158015610c97573d6000803e3d6000fd5b505050506040513d6000823e3d601f19601f820116820180604052506020811015610cc157600080fd5b810190808051640100000000811115610cd957600080fd5b82810190506020810184811115610cef57600080fd5b8151856020820283011164010000000082111715610d0c57600080fd5b50509291905050509050600260009054906101000a900473ffffffffffffffffffffffffffffffffffffffff1673ffffffffffffffffffffffffffffffffffffffff1663d4b3853685336040518363ffffffff1660e01b8152600401808373ffffffffffffffffffffffffffffffffffffffff1673ffffffffffffffffffffffffffffffffffffffff1681526020018273ffffffffffffffffffffffffffffffffffffffff1673ffffffffffffffffffffffffffffffffffffffff1681526020019250505060206040518083038186803b158015610de957600080fd5b505afa158015610dfd573d6000803e3d6000fd5b505050506040513d6020811015610e1357600080fd5b810190808051906020019092919050505073ffffffffffffffffffffffffffffffffffffffff166317a86a9f3386868686600160009054906101000a900473ffffffffffffffffffffffffffffffffffffffff16600260009054906101000a900473ffffffffffffffffffffffffffffffffffffffff166040518863ffffffff1660e01b8152600401808873ffffffffffffffffffffffffffffffffffffffff1673ffffffffffffffffffffffffffffffffffffffff1681526020018773ffffffffffffffffffffffffffffffffffffffff1673ffffffffffffffffffffffffffffffffffffffff16815260200180602001806020018573ffffffffffffffffffffffffffffffffffffffff1673ffffffffffffffffffffffffffffffffffffffff1681526020018473ffffffffffffffffffffffffffffffffffffffff1673ffffffffffffffffffffffffffffffffffffffff1681526020018381038352888882818152602001925060200280828437600081840152601f19601f820116905080830192505050838103825286818151815260200191508051906020019060200280838360005b83811015610fd6578082015181840152602081019050610fbb565b505050509050019950505050505050505050600060405180830381600087803b15801561100257600080fd5b505af1158015611016573d6000803e3d6000fd5b5050505050505050565b6000600260009054906101000a900473ffffffffffffffffffffffffffffffffffffffff1673ffffffffffffffffffffffffffffffffffffffff1663d4b3853683336040518363ffffffff1660e01b8152600401808373ffffffffffffffffffffffffffffffffffffffff1673ffffffffffffffffffffffffffffffffffffffff1681526020018273ffffffffffffffffffffffffffffffffffffffff1673ffffffffffffffffffffffffffffffffffffffff1681526020019250505060206040518083038186803b1580156110f557600080fd5b505afa158015611109573d6000803e3d6000fd5b505050506040513d602081101561111f57600080fd5b810190808051906020019092919050505073ffffffffffffffffffffffffffffffffffffffff1663a035b1fe6040518163ffffffff1660e01b815260040160206040518083038186803b15801561117557600080fd5b505afa158015611189573d6000803e3d6000fd5b505050506040513d602081101561119f57600080fd5b81019080805190602001909291905050509050919050565b600260009054906101000a900473ffffffffffffffffffffffffffffffffffffffff1673ffffffffffffffffffffffffffffffffffffffff1663870ad86082336040518363ffffffff1660e01b8152600401808373ffffffffffffffffffffffffffffffffffffffff1673ffffffffffffffffffffffffffffffffffffffff1681526020018273ffffffffffffffffffffffffffffffffffffffff1673ffffffffffffffffffffffffffffffffffffffff1681526020019250505060006040518083038186803b15801561128a57600080fd5b505afa15801561129e573d6000803e3d6000fd5b50505050600060146000809054906101000a900473ffffffffffffffffffffffffffffffffffffffff1673ffffffffffffffffffffffffffffffffffffffff16636f77926b846040518263ffffffff1660e01b8152600401808273ffffffffffffffffffffffffffffffffffffffff1673ffffffffffffffffffffffffffffffffffffffff16815260200191505060206040518083038186803b15801561134457600080fd5b505afa158015611358573d6000803e3d6000fd5b505050506040513d602081101561136e57600080fd5b810190808051906020019092919050505073ffffffffffffffffffffffffffffffffffffffff1663b69ef8a86040518163ffffffff1660e01b815260040160206040518083038186803b1580156113c457600080fd5b505afa1580156113d8573d6000803e3d6000fd5b505050506040513d60208110156113ee57600080fd5b81019080805190602001909291905050508161140657fe5b049050600260009054906101000a900473ffffffffffffffffffffffffffffffffffffffff1673ffffffffffffffffffffffffffffffffffffffff16638af10ea783338460405161145690611c0b565b80828152602001915050604051809103906000f08015801561147c573d6000803e3d6000fd5b506040518463ffffffff1660e01b8152600401808473ffffffffffffffffffffffffffffffffffffffff1673ffffffffffffffffffffffffffffffffffffffff1681526020018373ffffffffffffffffffffffffffffffffffffffff1673ffffffffffffffffffffffffffffffffffffffff1681526020018273ffffffffffffffffffffffffffffffffffffffff1673ffffffffffffffffffffffffffffffffffffffff1681526020019350505050600060405180830381600087803b15801561154557600080fd5b505af1158015611559573d6000803e3d6000fd5b505050505050565b6060600260009054906101000a900473ffffffffffffffffffffffffffffffffffffffff1673ffffffffffffffffffffffffffffffffffffffff1663d4b3853683336040518363ffffffff1660e01b8152600401808373ffffffffffffffffffffffffffffffffffffffff1673ffffffffffffffffffffffffffffffffffffffff1681526020018273ffffffffffffffffffffffffffffffffffffffff1673ffffffffffffffffffffffffffffffffffffffff1681526020019250505060206040518083038186803b15801561163657600080fd5b505afa15801561164a573d6000803e3d6000fd5b505050506040513d602081101561166057600080fd5b810190808051906020019092919050505073ffffffffffffffffffffffffffffffffffffffff1663cdd722536040518163ffffffff1660e01b815260040160006040518083038186803b1580156116b657600080fd5b505afa1580156116ca573d6000803e3d6000fd5b505050506040513d6000823e3d601f19601f8201168201806040525060208110156116f457600080fd5b81019080805164010000000081111561170c57600080fd5b8281019050602081018481111561172257600080fd5b815185602082028301116401000000008211171561173f57600080fd5b50509291905050509050919050565b600160009054906101000a900473ffffffffffffffffffffffffffffffffffffffff1673ffffffffffffffffffffffffffffffffffffffff1663f90bee568d8c8e8d6040518563ffffffff1660e01b8152600401808573ffffffffffffffffffffffffffffffffffffffff1673ffffffffffffffffffffffffffffffffffffffff1681526020018473ffffffffffffffffffffffffffffffffffffffff1673ffffffffffffffffffffffffffffffffffffffff16815260200183815260200182815260200194505050505060006040518083038186803b15801561183157600080fd5b505afa158015611845573d6000803e3d6000fd5b505050506000600260009054906101000a900473ffffffffffffffffffffffffffffffffffffffff1673ffffffffffffffffffffffffffffffffffffffff1663d4b385368e336040518363ffffffff1660e01b8152600401808373ffffffffffffffffffffffffffffffffffffffff1673ffffffffffffffffffffffffffffffffffffffff1681526020018273ffffffffffffffffffffffffffffffffffffffff1673ffffffffffffffffffffffffffffffffffffffff1681526020019250505060206040518083038186803b15801561191e57600080fd5b505afa158015611932573d6000803e3d6000fd5b505050506040513d602081101561194857600080fd5b810190808051906020019092919050505090508073ffffffffffffffffffffffffffffffffffffffff16634f7ae4ae8c6040518263ffffffff1660e01b8152600401808273ffffffffffffffffffffffffffffffffffffffff1673ffffffffffffffffffffffffffffffffffffffff16815260200191505060206040518083038186803b1580156119d857600080fd5b505afa1580156119ec573d6000803e3d6000fd5b505050506040513d6020811015611a0257600080fd5b8101908080519060200190929190505050611a85576040517f08c379a000000000000000000000000000000000000000000000000000000000815260040180806020018281038252600d8152602001807f496e76616c696420566f7465720000000000000000000000000000000000000081525060200191505060405180910390fd5b8073ffffffffffffffffffffffffffffffffffffffff166305dc67718c8e8d8d8d8d8d8d8d8d8d6040518c63ffffffff1660e01b8152600401808c73ffffffffffffffffffffffffffffffffffffffff1673ffffffffffffffffffffffffffffffffffffffff1681526020018b81526020018a81526020018060200180602001806020018060200185810385528d8d82818152602001925080828437600081840152601f19601f82011690508083019250505085810384528b8b82818152602001925080828437600081840152601f19601f8201169050808301925050508581038352898982818152602001925080828437600081840152601f19601f8201169050808301925050508581038252878782818152602001925080828437600081840152601f19601f8201169050808301925050509f50505050505050505050505050505050600060405180830381600087803b158015611be457600080fd5b505af1158015611bf8573d6000803e3d6000fd5b5050505050505050505050505050505050565b61375e80611c198339019056fe60806040526003600b60016101000a81548160ff021916908360ff16021790555034801561002c57600080fd5b5060405160208061375e8339810180604052602081101561004c57600080fd5b810190808051906020019092919050505080600981905550506136ea806100746000396000f3fe608060405234801561001057600080fd5b50600436106100b45760003560e01c8063a035b1fe11610071578063a035b1fe146104eb578063cdd7225314610509578063cde596b214610568578063e628c2e0146105ac578063f91ac89914610615578063fa041dd714610820576100b4565b806305dc6771146100b9578063137858a11461026557806317a86a9f146102af578063363b39a2146103fd5780634f7ae4ae1461045f57806376a3fab6146104bb575b600080fd5b610263600480360360e08110156100cf57600080fd5b81019080803573ffffffffffffffffffffffffffffffffffffffff16906020019092919080359060200190929190803590602001909291908035906020019064010000000081111561012057600080fd5b82018360208201111561013257600080fd5b8035906020019184600183028401116401000000008311171561015457600080fd5b90919293919293908035906020019064010000000081111561017557600080fd5b82018360208201111561018757600080fd5b803590602001918460018302840111640100000000831117156101a957600080fd5b9091929391929390803590602001906401000000008111156101ca57600080fd5b8201836020820111156101dc57600080fd5b803590602001918460018302840111640100000000831117156101fe57600080fd5b90919293919293908035906020019064010000000081111561021f57600080fd5b82018360208201111561023157600080fd5b8035906020019184600183028401116401000000008311171561025357600080fd5b9091929391929390505050610870565b005b61026d610c87565b604051808273ffffffffffffffffffffffffffffffffffffffff1673ffffffffffffffffffffffffffffffffffffffff16815260200191505060405180910390f35b6103fb600480360360c08110156102c557600080fd5b81019080803573ffffffffffffffffffffffffffffffffffffffff169060200190929190803573ffffffffffffffffffffffffffffffffffffffff1690602001909291908035906020019064010000000081111561032257600080fd5b82018360208201111561033457600080fd5b8035906020019184602083028401116401000000008311171561035657600080fd5b90919293919293908035906020019064010000000081111561037757600080fd5b82018360208201111561038957600080fd5b803590602001918460208302840111640100000000831117156103ab57600080fd5b9091929391929390803573ffffffffffffffffffffffffffffffffffffffff169060200190929190803573ffffffffffffffffffffffffffffffffffffffff169060200190929190505050610cad565b005b6104496004803603604081101561041357600080fd5b8101908080359060200190929190803573ffffffffffffffffffffffffffffffffffffffff169060200190929190505050611961565b6040518082815260200191505060405180910390f35b6104a16004803603602081101561047557600080fd5b81019080803573ffffffffffffffffffffffffffffffffffffffff1690602001909291905050506123e1565b604051808215151515815260200191505060405180910390f35b6104e9600480360360208110156104d157600080fd5b810190808035151590602001909291905050506124ab565b005b6104f3612a7a565b6040518082815260200191505060405180910390f35b610511612a80565b6040518080602001828103825283818151815260200191508051906020019060200280838360005b83811015610554578082015181840152602081019050610539565b505050509050019250505060405180910390f35b6105aa6004803603602081101561057e57600080fd5b81019080803573ffffffffffffffffffffffffffffffffffffffff169060200190929190505050612b6a565b005b6105f8600480360360408110156105c257600080fd5b81019080803573ffffffffffffffffffffffffffffffffffffffff16906020019092919080359060200190929190505050612cd0565b604051808381526020018281526020019250505060405180910390f35b6106616004803603604081101561062b57600080fd5b81019080803573ffffffffffffffffffffffffffffffffffffffff16906020019092919080359060200190929190505050612ebf565b6040518080602001806020018060200180602001858103855289818151815260200191508051906020019080838360005b838110156106ad578082015181840152602081019050610692565b50505050905090810190601f1680156106da5780820380516001836020036101000a031916815260200191505b50858103845288818151815260200191508051906020019080838360005b838110156107135780820151818401526020810190506106f8565b50505050905090810190601f1680156107405780820380516001836020036101000a031916815260200191505b50858103835287818151815260200191508051906020019080838360005b8381101561077957808201518184015260208101905061075e565b50505050905090810190601f1680156107a65780820380516001836020036101000a031916815260200191505b50858103825286818151815260200191508051906020019080838360005b838110156107df5780820151818401526020810190506107c4565b50505050905090810190601f16801561080c5780820380516001836020036101000a031916815260200191505b509850505050505050505060405180910390f35b61086e6004803603604081101561083657600080fd5b81019080803573ffffffffffffffffffffffffffffffffffffffff1690602001909291908035151590602001909291905050506131f1565b005b60008060008d73ffffffffffffffffffffffffffffffffffffffff1673ffffffffffffffffffffffffffffffffffffffff168152602001908152602001600020805490501415610a495760405180606001604052806000815260200160001515815260200160001515815250600160008d73ffffffffffffffffffffffffffffffffffffffff1673ffffffffffffffffffffffffffffffffffffffff1681526020019081526020016000206000820151816000015560208201518160010160006101000a81548160ff02191690831515021790555060408201518160010160016101000a81548160ff021916908315150217905550905050600b600081819054906101000a900460ff168092919060010191906101000a81548160ff021916908360ff16021790555050600273__Set___________________________________63ea70683890916040518263ffffffff1660e01b81526004018082815260200191505060206040518083038186803b1580156109ec57600080fd5b505af4158015610a00573d6000803e3d6000fd5b505050506040513d6020811015610a1657600080fd5b8101908080519060200190929190505050600b60009054906101000a900460ff1660ff161415610a485742600a819055505b5b6000808c73ffffffffffffffffffffffffffffffffffffffff1673ffffffffffffffffffffffffffffffffffffffff1681526020019081526020016000206040518060c001604052808a8a8080601f016020809104026020016040519081016040528093929190818152602001838380828437600081840152601f19601f82011690508083019250505050505050815260200188888080601f016020809104026020016040519081016040528093929190818152602001838380828437600081840152601f19601f82011690508083019250505050505050815260200186868080601f016020809104026020016040519081016040528093929190818152602001838380828437600081840152601f19601f82011690508083019250505050505050815260200184848080601f016020809104026020016040519081016040528093929190818152602001838380828437600081840152601f19601f8201169050808301925050505050505081526020018c81526020018b815250908060018154018082558091505090600182039060005260206000209060060201600090919290919091506000820151816000019080519060200190610c0b929190613456565b506020820151816001019080519060200190610c28929190613456565b506040820151816002019080519060200190610c45929190613456565b506060820151816003019080519060200190610c62929190613456565b506080820151816004015560a082015181600501555050505050505050505050505050565b600760009054906101000a900473ffffffffffffffffffffffffffffffffffffffff1681565b600b60029054906101000a900460ff16610d12576040517f08c379a00000000000000000000000000000000000000000000000000000000081526004018080602001828103825260278152602001806135f96027913960400191505060405180910390fd5b60008090505b84849050811015610df657600473__Set___________________________________633c2580489091878785818110610d4d57fe5b9050602002013573ffffffffffffffffffffffffffffffffffffffff166040518363ffffffff1660e01b8152600401808381526020018273ffffffffffffffffffffffffffffffffffffffff1673ffffffffffffffffffffffffffffffffffffffff1681526020019250505060006040518083038186803b158015610dd157600080fd5b505af4158015610de5573d6000803e3d6000fd5b505050508080600101915050610d18565b5060008090505b8686905081101561122757868682818110610e1457fe5b9050602002013573ffffffffffffffffffffffffffffffffffffffff1673ffffffffffffffffffffffffffffffffffffffff168973ffffffffffffffffffffffffffffffffffffffff161461121a578173ffffffffffffffffffffffffffffffffffffffff16634418adbc888884818110610e8b57fe5b9050602002013573ffffffffffffffffffffffffffffffffffffffff166040518263ffffffff1660e01b8152600401808273ffffffffffffffffffffffffffffffffffffffff1673ffffffffffffffffffffffffffffffffffffffff16815260200191505060206040518083038186803b158015610f0857600080fd5b505afa158015610f1c573d6000803e3d6000fd5b505050506040513d6020811015610f3257600080fd5b81019080805190602001909291905050506112195760008373ffffffffffffffffffffffffffffffffffffffff166314ee741f8a8a8a86818110610f7257fe5b9050602002013573ffffffffffffffffffffffffffffffffffffffff166040518363ffffffff1660e01b8152600401808373ffffffffffffffffffffffffffffffffffffffff1673ffffffffffffffffffffffffffffffffffffffff1681526020018273ffffffffffffffffffffffffffffffffffffffff1673ffffffffffffffffffffffffffffffffffffffff1681526020019250505060206040518083038186803b15801561102257600080fd5b505afa158015611036573d6000803e3d6000fd5b505050506040513d602081101561104c57600080fd5b8101908080519060200190929190505050111561121857600473__Set___________________________________636aa90e97909189898581811061108d57fe5b9050602002013573ffffffffffffffffffffffffffffffffffffffff166040518363ffffffff1660e01b8152600401808381526020018273ffffffffffffffffffffffffffffffffffffffff1673ffffffffffffffffffffffffffffffffffffffff1681526020019250505060206040518083038186803b15801561111157600080fd5b505af4158015611125573d6000803e3d6000fd5b505050506040513d602081101561113b57600080fd5b810190808051906020019092919050505061121757600273__Set___________________________________633c258048909189898581811061117a57fe5b9050602002013573ffffffffffffffffffffffffffffffffffffffff166040518363ffffffff1660e01b8152600401808381526020018273ffffffffffffffffffffffffffffffffffffffff1673ffffffffffffffffffffffffffffffffffffffff1681526020019250505060006040518083038186803b1580156111fe57600080fd5b505af4158015611212573d6000803e3d6000fd5b505050505b5b5b5b8080600101915050610dfd565b506003600273__Set___________________________________63ea70683890916040518263ffffffff1660e01b81526004018082815260200191505060206040518083038186803b15801561127c57600080fd5b505af4158015611290573d6000803e3d6000fd5b505050506040513d60208110156112a657600080fd5b8101908080519060200190929190505050101561130e576040517f08c379a000000000000000000000000000000000000000000000000000000000815260040180806020018281038252602a815260200180613695602a913960400191505060405180910390fd5b6003600273__Set___________________________________63ea70683890916040518263ffffffff1660e01b81526004018082815260200191505060206040518083038186803b15801561136257600080fd5b505af4158015611376573d6000803e3d6000fd5b505050506040513d602081101561138c57600080fd5b81019080805190602001909291905050508787905003106113f8576040517f08c379a000000000000000000000000000000000000000000000000000000000815260040180806020018281038252602d815260200180613528602d913960400191505060405180910390fd5b60028073__Set___________________________________63ea70683890916040518263ffffffff1660e01b81526004018082815260200191505060206040518083038186803b15801561144b57600080fd5b505af415801561145f573d6000803e3d6000fd5b505050506040513d602081101561147557600080fd5b81019080805190602001909291905050500260088190555060608273ffffffffffffffffffffffffffffffffffffffff16637f3d25de896040518263ffffffff1660e01b8152600401808273ffffffffffffffffffffffffffffffffffffffff1673ffffffffffffffffffffffffffffffffffffffff168152602001915050600060405180830381600087803b15801561150e57600080fd5b505af1158015611522573d6000803e3d6000fd5b505050506040513d6000823e3d601f19601f82011682018060405250602081101561154c57600080fd5b81019080805164010000000081111561156457600080fd5b8281019050602081018481111561157a57600080fd5b815185602082028301116401000000008211171561159757600080fd5b5050929190505050905060008090505b815181101561182f578181815181106115bc57fe5b602002602001015173ffffffffffffffffffffffffffffffffffffffff168a73ffffffffffffffffffffffffffffffffffffffff161461182257600273__Set___________________________________636aa90e97909184848151811061162057fe5b60200260200101516040518363ffffffff1660e01b8152600401808381526020018273ffffffffffffffffffffffffffffffffffffffff1673ffffffffffffffffffffffffffffffffffffffff1681526020019250505060206040518083038186803b15801561168f57600080fd5b505af41580156116a3573d6000803e3d6000fd5b505050506040513d60208110156116b957600080fd5b810190808051906020019092919050505061182157600473__Set___________________________________636aa90e9790918484815181106116f857fe5b60200260200101516040518363ffffffff1660e01b8152600401808381526020018273ffffffffffffffffffffffffffffffffffffffff1673ffffffffffffffffffffffffffffffffffffffff1681526020019250505060206040518083038186803b15801561176757600080fd5b505af415801561177b573d6000803e3d6000fd5b505050506040513d602081101561179157600080fd5b81019080805190602001909291905050506118205760068282815181106117b457fe5b602002602001015190806001815401808255809150509060018203906000526020600020016000909192909190916101000a81548173ffffffffffffffffffffffffffffffffffffffff021916908373ffffffffffffffffffffffffffffffffffffffff160217905550505b5b5b80806001019150506115a7565b50600273__Set___________________________________63ea70683890916040518263ffffffff1660e01b81526004018082815260200191505060206040518083038186803b15801561188257600080fd5b505af4158015611896573d6000803e3d6000fd5b505050506040513d60208110156118ac57600080fd5b8101908080519060200190929190505050600680549050101561191a576040517f08c379a00000000000000000000000000000000000000000000000000000000081526004018080602001828103825260268152602001806135556026913960400191505060405180910390fd5b61192460016124ab565b600b600181819054906101000a900460ff168092919060010191906101000a81548160ff021916908360ff16021790555050505050505050505050565b6000600273__Set___________________________________63ea70683890916040518263ffffffff1660e01b81526004018082815260200191505060206040518083038186803b1580156119b557600080fd5b505af41580156119c9573d6000803e3d6000fd5b505050506040513d60208110156119df57600080fd5b8101908080519060200190929190505050600b60009054906101000a900460ff1660ff1614611a59576040517f08c379a000000000000000000000000000000000000000000000000000000000815260040180806020018281038252602581526020018061357b6025913960400191505060405180910390fd5b600a544203831115611a8d577fffffffffffffffffffffffffffffffffffffffffffffffffffffffffffffffff90506123db565b60008090506000809050600080905060008090505b600273__Set___________________________________63ea70683890916040518263ffffffff1660e01b81526004018082815260200191505060206040518083038186803b158015611af457600080fd5b505af4158015611b08573d6000803e3d6000fd5b505050506040513d6020811015611b1e57600080fd5b8101908080519060200190929190505050811015611ddf57600060016000600273__Set___________________________________6344f7330d9091866040518363ffffffff1660e01b8152600401808381526020018281526020019250505060206040518083038186803b158015611b9657600080fd5b505af4158015611baa573d6000803e3d6000fd5b505050506040513d6020811015611bc057600080fd5b810190808051906020019092919050505073ffffffffffffffffffffffffffffffffffffffff1673ffffffffffffffffffffffffffffffffffffffff16815260200190815260200160002090508073__VotingToken___________________________63ffef631c90916040518263ffffffff1660e01b81526004018082815260200191505060206040518083038186803b158015611c5e57600080fd5b505af4158015611c72573d6000803e3d6000fd5b505050506040513d6020811015611c8857600080fd5b8101908080519060200190929190505050830192508073__VotingToken___________________________63117d52aa90916040518263ffffffff1660e01b81526004018082815260200191505060206040518083038186803b158015611cee57600080fd5b505af4158015611d02573d6000803e3d6000fd5b505050506040513d6020811015611d1857600080fd5b810190808051906020019092919050505015611dd15784806001019550508073__VotingToken___________________________63fb84fe7b90916040518263ffffffff1660e01b81526004018082815260200191505060206040518083038186803b158015611d8757600080fd5b505af4158015611d9b573d6000803e3d6000fd5b505050506040513d6020811015611db157600080fd5b810190808051906020019092919050505015611dd05783806001019450505b5b508080600101915050611aa2565b506005831015611e2f576202a300600a5442031115611e0457603c93505050506123db565b7ffffffffffffffffffffffffffffffffffffffffffffffffffffffffffffffffe93505050506123db565b60006042848460640281611e3f57fe5b04101590506000600290506000600290506000600190506000878681611e6157fe5b04905060008090505b600273__Set___________________________________63ea70683890916040518263ffffffff1660e01b81526004018082815260200191505060206040518083038186803b158015611ebc57600080fd5b505af4158015611ed0573d6000803e3d6000fd5b505050506040513d6020811015611ee657600080fd5b81019080805190602001909291905050508110156123c257600060016000600273__Set___________________________________6344f7330d9091866040518363ffffffff1660e01b8152600401808381526020018281526020019250505060206040518083038186803b158015611f5e57600080fd5b505af4158015611f72573d6000803e3d6000fd5b505050506040513d6020811015611f8857600080fd5b810190808051906020019092919050505073ffffffffffffffffffffffffffffffffffffffff1673ffffffffffffffffffffffffffffffffffffffff16815260200190815260200160002090508073__VotingToken___________________________63117d52aa90916040518263ffffffff1660e01b81526004018082815260200191505060206040518083038186803b15801561202657600080fd5b505af415801561203a573d6000803e3d6000fd5b505050506040513d602081101561205057600080fd5b8101908080519060200190929190505050156123b45760008a876009548161207457fe5b048161207c57fe5b0490508173__VotingToken___________________________63fb84fe7b90916040518263ffffffff1660e01b81526004018082815260200191505060206040518083038186803b1580156120d057600080fd5b505af41580156120e4573d6000803e3d6000fd5b505050506040513d60208110156120fa57600080fd5b81019080805190602001909291905050501515881515141561215757871561213a5789866009548161212857fe5b048161213057fe5b0481019050612156565b898b03866009548161214857fe5b048161215057fe5b04810190505b5b848273__VotingToken___________________________63ffef631c90916040518263ffffffff1660e01b81526004018082815260200191505060206040518083038186803b1580156121a957600080fd5b505af41580156121bd573d6000803e3d6000fd5b505050506040513d60208110156121d357600080fd5b81019080805190602001909291905050508503816121ed57fe5b048101905060008111156123b2578c73ffffffffffffffffffffffffffffffffffffffff16636f77926b600273__Set___________________________________6344f7330d9091876040518363ffffffff1660e01b8152600401808381526020018281526020019250505060206040518083038186803b15801561227157600080fd5b505af4158015612285573d6000803e3d6000fd5b505050506040513d602081101561229b57600080fd5b81019080805190602001909291905050506040518263ffffffff1660e01b8152600401808273ffffffffffffffffffffffffffffffffffffffff1673ffffffffffffffffffffffffffffffffffffffff16815260200191505060206040518083038186803b15801561230c57600080fd5b505afa158015612320573d6000803e3d6000fd5b505050506040513d602081101561233657600080fd5b810190808051906020019092919050505073ffffffffffffffffffffffffffffffffffffffff16633e4ccb40826040518263ffffffff1660e01b815260040180828152602001915050600060405180830381600087803b15801561239957600080fd5b505af11580156123ad573d6000803e3d6000fd5b505050505b505b508080600101915050611e6a565b508787606402816123cf57fe5b04985050505050505050505b92915050565b6000600273__Set___________________________________636aa90e979091846040518363ffffffff1660e01b8152600401808381526020018273ffffffffffffffffffffffffffffffffffffffff1673ffffffffffffffffffffffffffffffffffffffff1681526020019250505060206040518083038186803b15801561246957600080fd5b505af415801561247d573d6000803e3d6000fd5b505050506040513d602081101561249357600080fd5b81019080805190602001909291905050509050919050565b60006008541415612507576040517f08c379a00000000000000000000000000000000000000000000000000000000081526004018080602001828103825260378152602001806135c26037913960400191505060405180910390fd5b8061272757600273__Set___________________________________636aa90e979091600760009054906101000a900473ffffffffffffffffffffffffffffffffffffffff166040518363ffffffff1660e01b8152600401808381526020018273ffffffffffffffffffffffffffffffffffffffff1673ffffffffffffffffffffffffffffffffffffffff1681526020019250505060206040518083038186803b1580156125b457600080fd5b505af41580156125c8573d6000803e3d6000fd5b505050506040513d60208110156125de57600080fd5b810190808051906020019092919050505015612662576040517f08c379a000000000000000000000000000000000000000000000000000000000815260040180806020018281038252601a8152602001807f416c72656164792061646465642074686174206164647265737300000000000081525060200191505060405180910390fd5b600273__Set___________________________________633c2580489091600760009054906101000a900473ffffffffffffffffffffffffffffffffffffffff166040518363ffffffff1660e01b8152600401808381526020018273ffffffffffffffffffffffffffffffffffffffff1673ffffffffffffffffffffffffffffffffffffffff1681526020019250505060006040518083038186803b15801561270a57600080fd5b505af415801561271e573d6000803e3d6000fd5b5050505061275b565b600b600181819054906101000a900460ff16809291906001900391906101000a81548160ff021916908360ff160217905550505b600854600273__Set___________________________________63ea70683890916040518263ffffffff1660e01b81526004018082815260200191505060206040518083038186803b1580156127b057600080fd5b505af41580156127c4573d6000803e3d6000fd5b505050506040513d60208110156127da57600080fd5b810190808051906020019092919050505014612a77576000600b60019054906101000a900460ff1660ff161161285b576040517f08c379a000000000000000000000000000000000000000000000000000000000815260040180806020018281038252602e815260200180613620602e913960400191505060405180910390fd5b6000600680549050116128b9576040517f08c379a000000000000000000000000000000000000000000000000000000000815260040180806020018281038252604781526020018061364e6047913960600191505060405180910390fd5b60006128ec600760009054906101000a900473ffffffffffffffffffffffffffffffffffffffff166006805490506133d2565b60ff169050600681815481106128fe57fe5b9060005260206000200160009054906101000a900473ffffffffffffffffffffffffffffffffffffffff16600760006101000a81548173ffffffffffffffffffffffffffffffffffffffff021916908373ffffffffffffffffffffffffffffffffffffffff16021790555060008190505b600160068054905003811015612a1c576006600182018154811061298f57fe5b9060005260206000200160009054906101000a900473ffffffffffffffffffffffffffffffffffffffff16600682815481106129c757fe5b9060005260206000200160006101000a81548173ffffffffffffffffffffffffffffffffffffffff021916908373ffffffffffffffffffffffffffffffffffffffff160217905550808060010191505061296f565b50600660016006805490500381548110612a3257fe5b9060005260206000200160006101000a81549073ffffffffffffffffffffffffffffffffffffffff02191690556006805480919060019003612a7491906134d6565b50505b50565b60095481565b6060600273__Set___________________________________639fa87cd190916040518263ffffffff1660e01b81526004018082815260200191505060006040518083038186803b158015612ad457600080fd5b505af4158015612ae8573d6000803e3d6000fd5b505050506040513d6000823e3d601f19601f820116820180604052506020811015612b1257600080fd5b810190808051640100000000811115612b2a57600080fd5b82810190506020810184811115612b4057600080fd5b8151856020820283011164010000000082111715612b5d57600080fd5b5050929190505050905090565b6009548173ffffffffffffffffffffffffffffffffffffffff1663b69ef8a86040518163ffffffff1660e01b815260040160206040518083038186803b158015612bb357600080fd5b505afa158015612bc7573d6000803e3d6000fd5b505050506040513d6020811015612bdd57600080fd5b81019080805190602001909291905050501015612c45576040517f08c379a00000000000000000000000000000000000000000000000000000000081526004018080602001828103825260228152602001806135a06022913960400191505060405180910390fd5b8073ffffffffffffffffffffffffffffffffffffffff1663392aee436009546040518263ffffffff1660e01b815260040180828152602001915050600060405180830381600087803b158015612c9a57600080fd5b505af1158015612cae573d6000803e3d6000fd5b505050506001600b60026101000a81548160ff02191690831515021790555050565b600080600273__Set___________________________________63ea70683890916040518263ffffffff1660e01b81526004018082815260200191505060206040518083038186803b158015612d2557600080fd5b505af4158015612d39573d6000803e3d6000fd5b505050506040513d6020811015612d4f57600080fd5b8101908080519060200190929190505050600b60009054906101000a900460ff1660ff1614612dc9576040517f08c379a000000000000000000000000000000000000000000000000000000000815260040180806020018281038252602581526020018061357b6025913960400191505060405180910390fd5b6000808573ffffffffffffffffffffffffffffffffffffffff1673ffffffffffffffffffffffffffffffffffffffff1681526020019081526020016000208381548110612e1257fe5b906000526020600020906006020173__TransactionDataSet____________________63b18e919690916040518263ffffffff1660e01b815260040180828152602001915050604080518083038186803b158015612e6f57600080fd5b505af4158015612e83573d6000803e3d6000fd5b505050506040513d6040811015612e9957600080fd5b810190808051906020019092919080519060200190929190505050915091509250929050565b606080606080600273__Set___________________________________63ea70683890916040518263ffffffff1660e01b81526004018082815260200191505060206040518083038186803b158015612f1757600080fd5b505af4158015612f2b573d6000803e3d6000fd5b505050506040513d6020811015612f4157600080fd5b8101908080519060200190929190505050600b60009054906101000a900460ff1660ff1614612fbb576040517f08c379a000000000000000000000000000000000000000000000000000000000815260040180806020018281038252602581526020018061357b6025913960400191505060405180910390fd5b6000808773ffffffffffffffffffffffffffffffffffffffff1673ffffffffffffffffffffffffffffffffffffffff168152602001908152602001600020858154811061300457fe5b906000526020600020906006020173__TransactionDataSet____________________63c233d7e890916040518263ffffffff1660e01b81526004018082815260200191505060006040518083038186803b15801561306257600080fd5b505af4158015613076573d6000803e3d6000fd5b505050506040513d6000823e3d601f19601f8201168201806040525060808110156130a057600080fd5b8101908080516401000000008111156130b857600080fd5b828101905060208101848111156130ce57600080fd5b81518560018202830111640100000000821117156130eb57600080fd5b5050929190602001805164010000000081111561310757600080fd5b8281019050602081018481111561311d57600080fd5b815185600182028301116401000000008211171561313a57600080fd5b5050929190602001805164010000000081111561315657600080fd5b8281019050602081018481111561316c57600080fd5b815185600182028301116401000000008211171561318957600080fd5b505092919060200180516401000000008111156131a557600080fd5b828101905060208101848111156131bb57600080fd5b81518560018202830111640100000000821117156131d857600080fd5b5050929190505050935093509350935092959194509250565b600273__Set___________________________________63ea70683890916040518263ffffffff1660e01b81526004018082815260200191505060206040518083038186803b15801561324357600080fd5b505af4158015613257573d6000803e3d6000fd5b505050506040513d602081101561326d57600080fd5b8101908080519060200190929190505050600b60009054906101000a900460ff1660ff16146132e7576040517f08c379a000000000000000000000000000000000000000000000000000000000815260040180806020018281038252602581526020018061357b6025913960400191505060405180910390fd5b600160008373ffffffffffffffffffffffffffffffffffffffff1673ffffffffffffffffffffffffffffffffffffffff16815260200190815260200160002073__VotingToken___________________________639a5a2a11909184846040518463ffffffff1660e01b8152600401808481526020018373ffffffffffffffffffffffffffffffffffffffff1673ffffffffffffffffffffffffffffffffffffffff16815260200182151515158152602001935050505060006040518083038186803b1580156133b657600080fd5b505af41580156133ca573d6000803e3d6000fd5b505050505050565b6000814244855a604051602001808581526020018481526020018373ffffffffffffffffffffffffffffffffffffffff1673ffffffffffffffffffffffffffffffffffffffff1660601b81526014018281526020019450505050506040516020818303038152906040528051906020012060001c8161344d57fe5b06905092915050565b828054600181600116156101000203166002900490600052602060002090601f016020900481019282601f1061349757805160ff19168380011785556134c5565b828001600101855582156134c5579182015b828111156134c45782518255916020019190600101906134a9565b5b5090506134d29190613502565b5090565b8154818355818111156134fd578183600052602060002091820191016134fc9190613502565b5b505050565b61352491905b80821115613520576000816000905550600101613508565b5090565b9056fe596f7520696e6469636174656420746f6f206d616e7920696e76616c696420747261646520706172746e657273496e76616c6964206e756d626572206f66206f7468657220747261646520706172746e65727348617665206e6f74206372656174656420616c6c2074686520566f74696e67546f6b656e734e6f7420456e6f7567682066756e647320666f7220746869732050726f706f73616c547261646520706172746e6572732068617665206e6f74206265656e20616464656420746f2074686973207965742070726f706f73616c546869732070726f706f73616c20686173206e6f74206265656e207061696420666f722079657443616e206e6f74207665746f20616e79206d6f72652072616e646f6d6c792073656c656374656420766f7465727343616e206e6f74207665746f207468697320766f7465722062656361757365207468657265206973206e6f7420656e6f75676820747261646520706172746e657273206c656674496e76616c6964204e756d626572206f6620696e6469636174656420747261646520706172746e657273a165627a7a72305820d4dbdde5dcf3293d46189e610d489e7f7c545cadc7b2beea09ae4c0e8726b05f0029a165627a7a723058201b27f43b6a0f3a18e90c5198ee978b2ba4fdb5274cfb6fa8948399f14f2fee0a0029",
  "source": "/* ProposalCreator.sol */\r\n\r\npragma solidity >=0.4.0 <0.7.0;\r\n\r\nimport \"../contracts/UserManager.sol\";\r\nimport \"../contracts/ProposalManager.sol\";\r\n\r\n/* <Summary> \r\n\tThis contract is used by an account to create an account recovery \r\n\t proposal. All functions in this contract are used by the new new account.\r\n*/\r\n\r\ncontract ProposalCreator {\r\n\tUserManager UMI;\t\t\t// Connects to the list of users on the network\r\n\tTransactionManager TMI;\t\t// Connects to the list of transaction data\r\n\tProposalManager PMI;\t\t// Connects to the list of proposals\r\n\r\n\t// Used to originally deploy the contract\r\n\tconstructor(address _UM, address _TM, address _PM) public {\r\n\t\tUMI = UserManager(_UM);\r\n\t\tTMI = TransactionManager(_TM);\r\n\t\tPMI = ProposalManager(_PM);\r\n\t}\r\n\t\r\n\t// Used to create a new account recovery proposal\r\n\tfunction StartProposal(address _oldAccount) external {\r\n\r\n\t\t// Checks if there is already an active proposal for this account\r\n\t\tPMI.validProposal(_oldAccount, msg.sender);\r\n\r\n\t\t// Price of the account recover proposal: Used to pay voters\r\n\t\tuint price = UMI.getUser(_oldAccount).balance() / 20;\r\n\r\n\t\t// Creates Proposal and adds it to the active proposal map\r\n\t\tPMI.AddActiveProposal(_oldAccount, msg.sender, \r\n\t\t\tnew Proposal(price));\r\n\t}\r\n\r\n\t// Used to view the price of the account recover proposal\r\n\tfunction ViewPrice(address _oldAccount) external view returns (uint) {\r\n\t\treturn PMI.getProposal(_oldAccount, msg.sender).price();\r\n\t}\r\n\r\n\t// Used to pay for the account recover proposal\r\n\tfunction Pay(address _oldAccount, bool _pay) external {\r\n\t\tif (_pay){\t\t\t\t// The new account is paying for the proposal\r\n\t\t\t// Finds the person in the network\r\n\t\t\tPerson newAccount = UMI.getUser(msg.sender); \r\n\t\t\t// Pays for the proposal\r\n\t\t\tPMI.getProposal(_oldAccount, msg.sender).Pay(newAccount);\r\n\t\t}\r\n\t\telse{\t\t\t\t\t// The new account will not pay\r\n\t\t\tPMI.archiveProposal(_oldAccount, msg.sender);\t// Deletes proposal\r\n\t\t}\r\n\t}\r\n\r\n\t// Used to add indicated voters to the proposal\r\n\tfunction AddTradePartners(address _oldAccount, address[] calldata _tradePartners) external {\r\n\r\n\t\t// Gets voters from past account recovery attempts\r\n\t\taddress[] memory archivedVoters = PMI.getArchivedVoter(_oldAccount);\r\n\r\n\t\t// Finds proposal and adds indicated voters\r\n\t\tPMI.getProposal(_oldAccount, msg.sender).AddTradePartners( msg.sender, _oldAccount,  \r\n\t\t\t_tradePartners, archivedVoters, TMI, PMI);\r\n\t}\r\n\r\n\t// Returns a list of voters for an account recovery proposal\r\n\tfunction ViewVoters(address _oldAccount) external view returns (address[] memory) {\r\n\t\treturn PMI.getProposal(_oldAccount, msg.sender).getVoters();\r\n\t}\r\n\r\n\t// Randomly selects a trade partner. Also adds the last randomly selected\r\n\t//  trade partner to the list of voters\r\n\tfunction RandomTradingPartner(address _oldAccount, bool _veto) external {\r\n\t\tPMI.getProposal(_oldAccount, msg.sender).RandomTradingPartner(_veto);\r\n\t}\r\n\r\n\t// Returns the current randomly selected voter \r\n\tfunction ViewRandomTradingPartner(address _oldAccount) external view returns (address) {\r\n\t\treturn PMI.getProposal(_oldAccount, msg.sender).lastOtherPartner();\r\n\t}\r\n\r\n\t// Checks transaction data and adds it to the proposal to be viewed later\r\n\tfunction MakeTransactionDataSet( address _oldAccount, uint _timeStamp, \r\n\t\t\taddress _voter, uint _amount, string calldata _description, \r\n\t\t\tstring calldata _importantNotes, string calldata _location,\r\n\t\t\tstring calldata _itemsInTrade) external {\r\n\r\n\r\n\t\t// Checks if there exists a transaction with this infromation\r\n\t\tTMI.Equal(_oldAccount, _voter, _timeStamp, _amount);\r\n\r\n\t\tProposal temp = PMI.getProposal(_oldAccount, msg.sender);\r\n\r\n\t\t// Checks if this address is actually a voter\r\n\t\trequire(temp.ContainsVoter(_voter), \"Invalid Voter\");\r\n\t\t\r\n\t\t// Adds the tranaction data to the proposal to be viewed by the voter\r\n\t\ttemp.AddTransactionDataSet(_voter, _timeStamp, _amount, \r\n\t\t\t_description, _importantNotes, _location, _itemsInTrade);\r\n\t}\r\n}\r\n\r\n/*\r\nrequire(bytes(_description).length > 0 && \r\n\t\tbytes(_location).length > 0 && \r\n\t\tbytes(_itemsInTrade).length > 0, \r\n\t\t\"Must provide private infromation\");\r\n*/\r\n\r\n// 6471200\r\n// 6568080\r\n// 6530283\r\n// 6096988\r\n// 5939582\r\n// 5762541\r\n// 5677263\r\n// 5643513\r\n",
  "sourcePath": "C:/Users/m5w5b/Desktop/GitHub/game-dapp/AccountRecovery/contracts/ProposalCreator.sol",
  "compiler": {
    "name": "solc",
    "version": "0.5.8+commit.23d335f2.Emscripten.clang"
  },
  "schemaVersion": "3.0.16",
  "updatedAt": "2019-11-15T18:08:30.086Z",
  "devdoc": {
    "methods": {}
  },
  "userdoc": {
    "methods": {}
  }
}