{
  "contractName": "ProposalCreator",
  "abi": [
    {
      "inputs": [
        {
          "name": "_UM",
          "type": "address"
        },
        {
          "name": "_TM",
          "type": "address"
        },
        {
          "name": "_PM",
          "type": "address"
        }
      ],
      "payable": false,
      "stateMutability": "nonpayable",
      "type": "constructor"
    },
    {
      "constant": false,
      "inputs": [
        {
          "name": "_oldAccount",
          "type": "address"
        }
      ],
      "name": "StartProposal",
      "outputs": [],
      "payable": false,
      "stateMutability": "nonpayable",
      "type": "function"
    },
    {
      "constant": true,
      "inputs": [
        {
          "name": "_oldAccount",
          "type": "address"
        }
      ],
      "name": "ViewPrice",
      "outputs": [
        {
          "name": "",
          "type": "uint256"
        }
      ],
      "payable": false,
      "stateMutability": "view",
      "type": "function"
    },
    {
      "constant": false,
      "inputs": [
        {
          "name": "_oldAccount",
          "type": "address"
        },
        {
          "name": "_pay",
          "type": "bool"
        }
      ],
      "name": "Pay",
      "outputs": [],
      "payable": false,
      "stateMutability": "nonpayable",
      "type": "function"
    },
    {
      "constant": false,
      "inputs": [
        {
          "name": "_oldAccount",
          "type": "address"
        },
        {
          "name": "_tradePartners",
          "type": "address[]"
        }
      ],
      "name": "AddTradePartners",
      "outputs": [],
      "payable": false,
      "stateMutability": "nonpayable",
      "type": "function"
    },
    {
      "constant": true,
      "inputs": [
        {
          "name": "_oldAccount",
          "type": "address"
        }
      ],
      "name": "ViewVoters",
      "outputs": [
        {
          "name": "",
          "type": "address[]"
        }
      ],
      "payable": false,
      "stateMutability": "view",
      "type": "function"
    },
    {
      "constant": false,
      "inputs": [
        {
          "name": "_oldAccount",
          "type": "address"
        },
        {
          "name": "_veto",
          "type": "bool"
        }
      ],
      "name": "RandomTradingPartner",
      "outputs": [],
      "payable": false,
      "stateMutability": "nonpayable",
      "type": "function"
    },
    {
      "constant": true,
      "inputs": [
        {
          "name": "_oldAccount",
          "type": "address"
        }
      ],
      "name": "ViewRandomTradingPartner",
      "outputs": [
        {
          "name": "",
          "type": "address"
        }
      ],
      "payable": false,
      "stateMutability": "view",
      "type": "function"
    },
    {
      "constant": false,
      "inputs": [
        {
          "name": "_oldAccount",
          "type": "address"
        },
        {
          "name": "_voter",
          "type": "address"
        },
        {
          "name": "_timeStamp",
          "type": "uint256"
        },
        {
          "name": "_amount",
          "type": "uint256"
        },
        {
          "name": "_description",
          "type": "string"
        },
        {
          "name": "_importantNotes",
          "type": "string"
        },
        {
          "name": "_location",
          "type": "string"
        },
        {
          "name": "_itemsInTrade",
          "type": "string"
        }
      ],
      "name": "MakeTransactionDataSet",
      "outputs": [],
      "payable": false,
      "stateMutability": "nonpayable",
      "type": "function"
    }
  ],
  "bytecode": "0x608060405234801561001057600080fd5b5060405160608061555f8339810180604052606081101561003057600080fd5b81019080805190602001909291908051906020019092919080519060200190929190505050826000806101000a81548173ffffffffffffffffffffffffffffffffffffffff021916908373ffffffffffffffffffffffffffffffffffffffff16021790555081600160006101000a81548173ffffffffffffffffffffffffffffffffffffffff021916908373ffffffffffffffffffffffffffffffffffffffff16021790555080600260006101000a81548173ffffffffffffffffffffffffffffffffffffffff021916908373ffffffffffffffffffffffffffffffffffffffff160217905550505050615436806101296000396000f3fe608060405234801561001057600080fd5b50600436106100885760003560e01c8063516e4c2a1161005b578063516e4c2a1461037e57806366fe4d2f14610417578063ca4e20621461046f578063d5e3b562146104b357610088565b806308a418761461008d5780632ec59b6e1461025a578063342e6f63146102aa5780634bdc7b50146102fa575b600080fd5b61025860048036036101008110156100a457600080fd5b81019080803573ffffffffffffffffffffffffffffffffffffffff169060200190929190803573ffffffffffffffffffffffffffffffffffffffff16906020019092919080359060200190929190803590602001909291908035906020019064010000000081111561011557600080fd5b82018360208201111561012757600080fd5b8035906020019184600183028401116401000000008311171561014957600080fd5b90919293919293908035906020019064010000000081111561016a57600080fd5b82018360208201111561017c57600080fd5b8035906020019184600183028401116401000000008311171561019e57600080fd5b9091929391929390803590602001906401000000008111156101bf57600080fd5b8201836020820111156101d157600080fd5b803590602001918460018302840111640100000000831117156101f357600080fd5b90919293919293908035906020019064010000000081111561021457600080fd5b82018360208201111561022657600080fd5b8035906020019184600183028401116401000000008311171561024857600080fd5b909192939192939050505061054c565b005b6102a86004803603604081101561027057600080fd5b81019080803573ffffffffffffffffffffffffffffffffffffffff169060200190929190803515159060200190929190505050610a09565b005b6102f8600480360360408110156102c057600080fd5b81019080803573ffffffffffffffffffffffffffffffffffffffff169060200190929190803515159060200190929190505050610d88565b005b61033c6004803603602081101561031057600080fd5b81019080803573ffffffffffffffffffffffffffffffffffffffff169060200190929190505050610f08565b604051808273ffffffffffffffffffffffffffffffffffffffff1673ffffffffffffffffffffffffffffffffffffffff16815260200191505060405180910390f35b6104156004803603604081101561039457600080fd5b81019080803573ffffffffffffffffffffffffffffffffffffffff169060200190929190803590602001906401000000008111156103d157600080fd5b8201836020820111156103e357600080fd5b8035906020019184602083028401116401000000008311171561040557600080fd5b909192939192939050505061109f565b005b6104596004803603602081101561042d57600080fd5b81019080803573ffffffffffffffffffffffffffffffffffffffff1690602001909291905050506114dd565b6040518082815260200191505060405180910390f35b6104b16004803603602081101561048557600080fd5b81019080803573ffffffffffffffffffffffffffffffffffffffff169060200190929190505050611674565b005b6104f5600480360360208110156104c957600080fd5b81019080803573ffffffffffffffffffffffffffffffffffffffff169060200190929190505050611a1e565b6040518080602001828103825283818151815260200191508051906020019060200280838360005b8381101561053857808201518184015260208101905061051d565b505050509050019250505060405180910390f35b600160009054906101000a900473ffffffffffffffffffffffffffffffffffffffff1673ffffffffffffffffffffffffffffffffffffffff1663f90bee568d8d8d8d6040518563ffffffff1660e01b8152600401808573ffffffffffffffffffffffffffffffffffffffff1673ffffffffffffffffffffffffffffffffffffffff1681526020018473ffffffffffffffffffffffffffffffffffffffff1673ffffffffffffffffffffffffffffffffffffffff16815260200183815260200182815260200194505050505060006040518083038186803b15801561062f57600080fd5b505afa158015610643573d6000803e3d6000fd5b505050506000600260009054906101000a900473ffffffffffffffffffffffffffffffffffffffff1673ffffffffffffffffffffffffffffffffffffffff1663d4b385368e336040518363ffffffff1660e01b8152600401808373ffffffffffffffffffffffffffffffffffffffff1673ffffffffffffffffffffffffffffffffffffffff1681526020018273ffffffffffffffffffffffffffffffffffffffff1673ffffffffffffffffffffffffffffffffffffffff1681526020019250505060206040518083038186803b15801561071c57600080fd5b505afa158015610730573d6000803e3d6000fd5b505050506040513d602081101561074657600080fd5b810190808051906020019092919050505090508073ffffffffffffffffffffffffffffffffffffffff16634f7ae4ae8d6040518263ffffffff1660e01b8152600401808273ffffffffffffffffffffffffffffffffffffffff1673ffffffffffffffffffffffffffffffffffffffff16815260200191505060206040518083038186803b1580156107d657600080fd5b505afa1580156107ea573d6000803e3d6000fd5b505050506040513d602081101561080057600080fd5b8101908080519060200190929190505050610883576040517f08c379a000000000000000000000000000000000000000000000000000000000815260040180806020018281038252600d8152602001807f496e76616c696420566f7465720000000000000000000000000000000000000081525060200191505060405180910390fd5b8073ffffffffffffffffffffffffffffffffffffffff166305dc67718d8d8d8d8d8d8d8d8d8d8d6040518c63ffffffff1660e01b8152600401808c73ffffffffffffffffffffffffffffffffffffffff1673ffffffffffffffffffffffffffffffffffffffff1681526020018b81526020018a81526020018060200180602001806020018060200185810385528d8d82818152602001925080828437600081840152601f19601f82011690508083019250505085810384528b8b82818152602001925080828437600081840152601f19601f8201169050808301925050508581038352898982818152602001925080828437600081840152601f19601f8201169050808301925050508581038252878782818152602001925080828437600081840152601f19601f8201169050808301925050509f50505050505050505050505050505050600060405180830381600087803b1580156109e257600080fd5b505af11580156109f6573d6000803e3d6000fd5b5050505050505050505050505050505050565b8015610c965760008060009054906101000a900473ffffffffffffffffffffffffffffffffffffffff1673ffffffffffffffffffffffffffffffffffffffff16636f77926b336040518263ffffffff1660e01b8152600401808273ffffffffffffffffffffffffffffffffffffffff1673ffffffffffffffffffffffffffffffffffffffff16815260200191505060206040518083038186803b158015610aaf57600080fd5b505afa158015610ac3573d6000803e3d6000fd5b505050506040513d6020811015610ad957600080fd5b81019080805190602001909291905050509050600260009054906101000a900473ffffffffffffffffffffffffffffffffffffffff1673ffffffffffffffffffffffffffffffffffffffff1663d4b3853684336040518363ffffffff1660e01b8152600401808373ffffffffffffffffffffffffffffffffffffffff1673ffffffffffffffffffffffffffffffffffffffff1681526020018273ffffffffffffffffffffffffffffffffffffffff1673ffffffffffffffffffffffffffffffffffffffff1681526020019250505060206040518083038186803b158015610bbf57600080fd5b505afa158015610bd3573d6000803e3d6000fd5b505050506040513d6020811015610be957600080fd5b810190808051906020019092919050505073ffffffffffffffffffffffffffffffffffffffff1663cde596b2826040518263ffffffff1660e01b8152600401808273ffffffffffffffffffffffffffffffffffffffff1673ffffffffffffffffffffffffffffffffffffffff168152602001915050600060405180830381600087803b158015610c7857600080fd5b505af1158015610c8c573d6000803e3d6000fd5b5050505050610d84565b600260009054906101000a900473ffffffffffffffffffffffffffffffffffffffff1673ffffffffffffffffffffffffffffffffffffffff16636f4b8b7283336040518363ffffffff1660e01b8152600401808373ffffffffffffffffffffffffffffffffffffffff1673ffffffffffffffffffffffffffffffffffffffff1681526020018273ffffffffffffffffffffffffffffffffffffffff1673ffffffffffffffffffffffffffffffffffffffff16815260200192505050600060405180830381600087803b158015610d6b57600080fd5b505af1158015610d7f573d6000803e3d6000fd5b505050505b5050565b600260009054906101000a900473ffffffffffffffffffffffffffffffffffffffff1673ffffffffffffffffffffffffffffffffffffffff1663d4b3853683336040518363ffffffff1660e01b8152600401808373ffffffffffffffffffffffffffffffffffffffff1673ffffffffffffffffffffffffffffffffffffffff1681526020018273ffffffffffffffffffffffffffffffffffffffff1673ffffffffffffffffffffffffffffffffffffffff1681526020019250505060206040518083038186803b158015610e5b57600080fd5b505afa158015610e6f573d6000803e3d6000fd5b505050506040513d6020811015610e8557600080fd5b810190808051906020019092919050505073ffffffffffffffffffffffffffffffffffffffff166376a3fab6826040518263ffffffff1660e01b81526004018082151515158152602001915050600060405180830381600087803b158015610eec57600080fd5b505af1158015610f00573d6000803e3d6000fd5b505050505050565b6000600260009054906101000a900473ffffffffffffffffffffffffffffffffffffffff1673ffffffffffffffffffffffffffffffffffffffff1663d4b3853683336040518363ffffffff1660e01b8152600401808373ffffffffffffffffffffffffffffffffffffffff1673ffffffffffffffffffffffffffffffffffffffff1681526020018273ffffffffffffffffffffffffffffffffffffffff1673ffffffffffffffffffffffffffffffffffffffff1681526020019250505060206040518083038186803b158015610fdd57600080fd5b505afa158015610ff1573d6000803e3d6000fd5b505050506040513d602081101561100757600080fd5b810190808051906020019092919050505073ffffffffffffffffffffffffffffffffffffffff1663137858a16040518163ffffffff1660e01b815260040160206040518083038186803b15801561105d57600080fd5b505afa158015611071573d6000803e3d6000fd5b505050506040513d602081101561108757600080fd5b81019080805190602001909291905050509050919050565b6060600260009054906101000a900473ffffffffffffffffffffffffffffffffffffffff1673ffffffffffffffffffffffffffffffffffffffff1663352ef89c856040518263ffffffff1660e01b8152600401808273ffffffffffffffffffffffffffffffffffffffff1673ffffffffffffffffffffffffffffffffffffffff16815260200191505060006040518083038186803b15801561114057600080fd5b505afa158015611154573d6000803e3d6000fd5b505050506040513d6000823e3d601f19601f82011682018060405250602081101561117e57600080fd5b81019080805164010000000081111561119657600080fd5b828101905060208101848111156111ac57600080fd5b81518560208202830111640100000000821117156111c957600080fd5b50509291905050509050600260009054906101000a900473ffffffffffffffffffffffffffffffffffffffff1673ffffffffffffffffffffffffffffffffffffffff1663d4b3853685336040518363ffffffff1660e01b8152600401808373ffffffffffffffffffffffffffffffffffffffff1673ffffffffffffffffffffffffffffffffffffffff1681526020018273ffffffffffffffffffffffffffffffffffffffff1673ffffffffffffffffffffffffffffffffffffffff1681526020019250505060206040518083038186803b1580156112a657600080fd5b505afa1580156112ba573d6000803e3d6000fd5b505050506040513d60208110156112d057600080fd5b810190808051906020019092919050505073ffffffffffffffffffffffffffffffffffffffff166317a86a9f3386868686600160009054906101000a900473ffffffffffffffffffffffffffffffffffffffff16600260009054906101000a900473ffffffffffffffffffffffffffffffffffffffff166040518863ffffffff1660e01b8152600401808873ffffffffffffffffffffffffffffffffffffffff1673ffffffffffffffffffffffffffffffffffffffff1681526020018773ffffffffffffffffffffffffffffffffffffffff1673ffffffffffffffffffffffffffffffffffffffff16815260200180602001806020018573ffffffffffffffffffffffffffffffffffffffff1673ffffffffffffffffffffffffffffffffffffffff1681526020018473ffffffffffffffffffffffffffffffffffffffff1673ffffffffffffffffffffffffffffffffffffffff1681526020018381038352888882818152602001925060200280828437600081840152601f19601f820116905080830192505050838103825286818151815260200191508051906020019060200280838360005b83811015611493578082015181840152602081019050611478565b505050509050019950505050505050505050600060405180830381600087803b1580156114bf57600080fd5b505af11580156114d3573d6000803e3d6000fd5b5050505050505050565b6000600260009054906101000a900473ffffffffffffffffffffffffffffffffffffffff1673ffffffffffffffffffffffffffffffffffffffff1663d4b3853683336040518363ffffffff1660e01b8152600401808373ffffffffffffffffffffffffffffffffffffffff1673ffffffffffffffffffffffffffffffffffffffff1681526020018273ffffffffffffffffffffffffffffffffffffffff1673ffffffffffffffffffffffffffffffffffffffff1681526020019250505060206040518083038186803b1580156115b257600080fd5b505afa1580156115c6573d6000803e3d6000fd5b505050506040513d60208110156115dc57600080fd5b810190808051906020019092919050505073ffffffffffffffffffffffffffffffffffffffff1663a035b1fe6040518163ffffffff1660e01b815260040160206040518083038186803b15801561163257600080fd5b505afa158015611646573d6000803e3d6000fd5b505050506040513d602081101561165c57600080fd5b81019080805190602001909291905050509050919050565b600260009054906101000a900473ffffffffffffffffffffffffffffffffffffffff1673ffffffffffffffffffffffffffffffffffffffff1663870ad86082336040518363ffffffff1660e01b8152600401808373ffffffffffffffffffffffffffffffffffffffff1673ffffffffffffffffffffffffffffffffffffffff1681526020018273ffffffffffffffffffffffffffffffffffffffff1673ffffffffffffffffffffffffffffffffffffffff1681526020019250505060006040518083038186803b15801561174757600080fd5b505afa15801561175b573d6000803e3d6000fd5b50505050600060146000809054906101000a900473ffffffffffffffffffffffffffffffffffffffff1673ffffffffffffffffffffffffffffffffffffffff16636f77926b846040518263ffffffff1660e01b8152600401808273ffffffffffffffffffffffffffffffffffffffff1673ffffffffffffffffffffffffffffffffffffffff16815260200191505060206040518083038186803b15801561180157600080fd5b505afa158015611815573d6000803e3d6000fd5b505050506040513d602081101561182b57600080fd5b810190808051906020019092919050505073ffffffffffffffffffffffffffffffffffffffff1663b69ef8a86040518163ffffffff1660e01b815260040160206040518083038186803b15801561188157600080fd5b505afa158015611895573d6000803e3d6000fd5b505050506040513d60208110156118ab57600080fd5b8101908080519060200190929190505050816118c357fe5b049050600260009054906101000a900473ffffffffffffffffffffffffffffffffffffffff1673ffffffffffffffffffffffffffffffffffffffff16638af10ea783338460405161191390611c0b565b80828152602001915050604051809103906000f080158015611939573d6000803e3d6000fd5b506040518463ffffffff1660e01b8152600401808473ffffffffffffffffffffffffffffffffffffffff1673ffffffffffffffffffffffffffffffffffffffff1681526020018373ffffffffffffffffffffffffffffffffffffffff1673ffffffffffffffffffffffffffffffffffffffff1681526020018273ffffffffffffffffffffffffffffffffffffffff1673ffffffffffffffffffffffffffffffffffffffff1681526020019350505050600060405180830381600087803b158015611a0257600080fd5b505af1158015611a16573d6000803e3d6000fd5b505050505050565b6060600260009054906101000a900473ffffffffffffffffffffffffffffffffffffffff1673ffffffffffffffffffffffffffffffffffffffff1663d4b3853683336040518363ffffffff1660e01b8152600401808373ffffffffffffffffffffffffffffffffffffffff1673ffffffffffffffffffffffffffffffffffffffff1681526020018273ffffffffffffffffffffffffffffffffffffffff1673ffffffffffffffffffffffffffffffffffffffff1681526020019250505060206040518083038186803b158015611af357600080fd5b505afa158015611b07573d6000803e3d6000fd5b505050506040513d6020811015611b1d57600080fd5b810190808051906020019092919050505073ffffffffffffffffffffffffffffffffffffffff1663cdd722536040518163ffffffff1660e01b815260040160006040518083038186803b158015611b7357600080fd5b505afa158015611b87573d6000803e3d6000fd5b505050506040513d6000823e3d601f19601f820116820180604052506020811015611bb157600080fd5b810190808051640100000000811115611bc957600080fd5b82810190506020810184811115611bdf57600080fd5b8151856020820283011164010000000082111715611bfc57600080fd5b50509291905050509050919050565b6137f280611c198339019056fe60806040526003600b60016101000a81548160ff021916908360ff16021790555034801561002c57600080fd5b506040516020806137f28339810180604052602081101561004c57600080fd5b8101908080519060200190929190505050806009819055505061377e806100746000396000f3fe608060405234801561001057600080fd5b50600436106100b45760003560e01c8063a035b1fe11610071578063a035b1fe146104eb578063cdd7225314610509578063cde596b214610568578063e628c2e0146105ac578063f91ac89914610615578063fa041dd714610820576100b4565b806305dc6771146100b9578063137858a11461026557806317a86a9f146102af578063363b39a2146103fd5780634f7ae4ae1461045f57806376a3fab6146104bb575b600080fd5b610263600480360360e08110156100cf57600080fd5b81019080803573ffffffffffffffffffffffffffffffffffffffff16906020019092919080359060200190929190803590602001909291908035906020019064010000000081111561012057600080fd5b82018360208201111561013257600080fd5b8035906020019184600183028401116401000000008311171561015457600080fd5b90919293919293908035906020019064010000000081111561017557600080fd5b82018360208201111561018757600080fd5b803590602001918460018302840111640100000000831117156101a957600080fd5b9091929391929390803590602001906401000000008111156101ca57600080fd5b8201836020820111156101dc57600080fd5b803590602001918460018302840111640100000000831117156101fe57600080fd5b90919293919293908035906020019064010000000081111561021f57600080fd5b82018360208201111561023157600080fd5b8035906020019184600183028401116401000000008311171561025357600080fd5b9091929391929390505050610870565b005b61026d610c87565b604051808273ffffffffffffffffffffffffffffffffffffffff1673ffffffffffffffffffffffffffffffffffffffff16815260200191505060405180910390f35b6103fb600480360360c08110156102c557600080fd5b81019080803573ffffffffffffffffffffffffffffffffffffffff169060200190929190803573ffffffffffffffffffffffffffffffffffffffff1690602001909291908035906020019064010000000081111561032257600080fd5b82018360208201111561033457600080fd5b8035906020019184602083028401116401000000008311171561035657600080fd5b90919293919293908035906020019064010000000081111561037757600080fd5b82018360208201111561038957600080fd5b803590602001918460208302840111640100000000831117156103ab57600080fd5b9091929391929390803573ffffffffffffffffffffffffffffffffffffffff169060200190929190803573ffffffffffffffffffffffffffffffffffffffff169060200190929190505050610cad565b005b6104496004803603604081101561041357600080fd5b8101908080359060200190929190803573ffffffffffffffffffffffffffffffffffffffff169060200190929190505050611981565b6040518082815260200191505060405180910390f35b6104a16004803603602081101561047557600080fd5b81019080803573ffffffffffffffffffffffffffffffffffffffff16906020019092919050505061240f565b604051808215151515815260200191505060405180910390f35b6104e9600480360360208110156104d157600080fd5b810190808035151590602001909291905050506124d9565b005b6104f3612b38565b6040518082815260200191505060405180910390f35b610511612b3e565b6040518080602001828103825283818151815260200191508051906020019060200280838360005b83811015610554578082015181840152602081019050610539565b505050509050019250505060405180910390f35b6105aa6004803603602081101561057e57600080fd5b81019080803573ffffffffffffffffffffffffffffffffffffffff169060200190929190505050612c28565b005b6105f8600480360360408110156105c257600080fd5b81019080803573ffffffffffffffffffffffffffffffffffffffff16906020019092919080359060200190929190505050612d8e565b604051808381526020018281526020019250505060405180910390f35b6106616004803603604081101561062b57600080fd5b81019080803573ffffffffffffffffffffffffffffffffffffffff16906020019092919080359060200190929190505050612f7d565b6040518080602001806020018060200180602001858103855289818151815260200191508051906020019080838360005b838110156106ad578082015181840152602081019050610692565b50505050905090810190601f1680156106da5780820380516001836020036101000a031916815260200191505b50858103845288818151815260200191508051906020019080838360005b838110156107135780820151818401526020810190506106f8565b50505050905090810190601f1680156107405780820380516001836020036101000a031916815260200191505b50858103835287818151815260200191508051906020019080838360005b8381101561077957808201518184015260208101905061075e565b50505050905090810190601f1680156107a65780820380516001836020036101000a031916815260200191505b50858103825286818151815260200191508051906020019080838360005b838110156107df5780820151818401526020810190506107c4565b50505050905090810190601f16801561080c5780820380516001836020036101000a031916815260200191505b509850505050505050505060405180910390f35b61086e6004803603604081101561083657600080fd5b81019080803573ffffffffffffffffffffffffffffffffffffffff1690602001909291908035151590602001909291905050506132af565b005b60008060008d73ffffffffffffffffffffffffffffffffffffffff1673ffffffffffffffffffffffffffffffffffffffff168152602001908152602001600020805490501415610a495760405180606001604052806000815260200160001515815260200160001515815250600160008d73ffffffffffffffffffffffffffffffffffffffff1673ffffffffffffffffffffffffffffffffffffffff1681526020019081526020016000206000820151816000015560208201518160010160006101000a81548160ff02191690831515021790555060408201518160010160016101000a81548160ff021916908315150217905550905050600b600081819054906101000a900460ff168092919060010191906101000a81548160ff021916908360ff16021790555050600273__Set___________________________________63ea70683890916040518263ffffffff1660e01b81526004018082815260200191505060206040518083038186803b1580156109ec57600080fd5b505af4158015610a00573d6000803e3d6000fd5b505050506040513d6020811015610a1657600080fd5b8101908080519060200190929190505050600b60009054906101000a900460ff1660ff161415610a485742600a819055505b5b6000808c73ffffffffffffffffffffffffffffffffffffffff1673ffffffffffffffffffffffffffffffffffffffff1681526020019081526020016000206040518060c001604052808a8a8080601f016020809104026020016040519081016040528093929190818152602001838380828437600081840152601f19601f82011690508083019250505050505050815260200188888080601f016020809104026020016040519081016040528093929190818152602001838380828437600081840152601f19601f82011690508083019250505050505050815260200186868080601f016020809104026020016040519081016040528093929190818152602001838380828437600081840152601f19601f82011690508083019250505050505050815260200184848080601f016020809104026020016040519081016040528093929190818152602001838380828437600081840152601f19601f8201169050808301925050505050505081526020018c81526020018b815250908060018154018082558091505090600182039060005260206000209060060201600090919290919091506000820151816000019080519060200190610c0b929190613514565b506020820151816001019080519060200190610c28929190613514565b506040820151816002019080519060200190610c45929190613514565b506060820151816003019080519060200190610c62929190613514565b506080820151816004015560a082015181600501555050505050505050505050505050565b600760009054906101000a900473ffffffffffffffffffffffffffffffffffffffff1681565b600b60029054906101000a900460ff16610d12576040517f08c379a00000000000000000000000000000000000000000000000000000000081526004018080602001828103825260278152602001806136b76027913960400191505060405180910390fd5b60008090505b84849050811015610df657600473__Set___________________________________633c2580489091878785818110610d4d57fe5b9050602002013573ffffffffffffffffffffffffffffffffffffffff166040518363ffffffff1660e01b8152600401808381526020018273ffffffffffffffffffffffffffffffffffffffff1673ffffffffffffffffffffffffffffffffffffffff1681526020019250505060006040518083038186803b158015610dd157600080fd5b505af4158015610de5573d6000803e3d6000fd5b505050508080600101915050610d18565b5060008090505b8686905081101561131557868682818110610e1457fe5b9050602002013573ffffffffffffffffffffffffffffffffffffffff1673ffffffffffffffffffffffffffffffffffffffff168973ffffffffffffffffffffffffffffffffffffffff1614611308578173ffffffffffffffffffffffffffffffffffffffff16634418adbc888884818110610e8b57fe5b9050602002013573ffffffffffffffffffffffffffffffffffffffff166040518263ffffffff1660e01b8152600401808273ffffffffffffffffffffffffffffffffffffffff1673ffffffffffffffffffffffffffffffffffffffff16815260200191505060206040518083038186803b158015610f0857600080fd5b505afa158015610f1c573d6000803e3d6000fd5b505050506040513d6020811015610f3257600080fd5b81019080805190602001909291905050506113075760008373ffffffffffffffffffffffffffffffffffffffff166314ee741f8a8a8a86818110610f7257fe5b9050602002013573ffffffffffffffffffffffffffffffffffffffff166040518363ffffffff1660e01b8152600401808373ffffffffffffffffffffffffffffffffffffffff1673ffffffffffffffffffffffffffffffffffffffff1681526020018273ffffffffffffffffffffffffffffffffffffffff1673ffffffffffffffffffffffffffffffffffffffff1681526020019250505060206040518083038186803b15801561102257600080fd5b505afa158015611036573d6000803e3d6000fd5b505050506040513d602081101561104c57600080fd5b8101908080519060200190929190505050111561130657600473__Set___________________________________636aa90e97909189898581811061108d57fe5b9050602002013573ffffffffffffffffffffffffffffffffffffffff166040518363ffffffff1660e01b8152600401808381526020018273ffffffffffffffffffffffffffffffffffffffff1673ffffffffffffffffffffffffffffffffffffffff1681526020019250505060206040518083038186803b15801561111157600080fd5b505af4158015611125573d6000803e3d6000fd5b505050506040513d602081101561113b57600080fd5b810190808051906020019092919050505061130557600273__Set___________________________________636aa90e97909189898581811061117a57fe5b9050602002013573ffffffffffffffffffffffffffffffffffffffff166040518363ffffffff1660e01b8152600401808381526020018273ffffffffffffffffffffffffffffffffffffffff1673ffffffffffffffffffffffffffffffffffffffff1681526020019250505060206040518083038186803b1580156111fe57600080fd5b505af4158015611212573d6000803e3d6000fd5b505050506040513d602081101561122857600080fd5b810190808051906020019092919050505061130457600273__Set___________________________________633c258048909189898581811061126757fe5b9050602002013573ffffffffffffffffffffffffffffffffffffffff166040518363ffffffff1660e01b8152600401808381526020018273ffffffffffffffffffffffffffffffffffffffff1673ffffffffffffffffffffffffffffffffffffffff1681526020019250505060006040518083038186803b1580156112eb57600080fd5b505af41580156112ff573d6000803e3d6000fd5b505050505b5b5b5b5b8080600101915050610dfd565b506003600273__Set___________________________________63ea70683890916040518263ffffffff1660e01b81526004018082815260200191505060206040518083038186803b15801561136a57600080fd5b505af415801561137e573d6000803e3d6000fd5b505050506040513d602081101561139457600080fd5b8101908080519060200190929190505050878790500310611400576040517f08c379a000000000000000000000000000000000000000000000000000000000815260040180806020018281038252602d8152602001806135e6602d913960400191505060405180910390fd5b60028073__Set___________________________________63ea70683890916040518263ffffffff1660e01b81526004018082815260200191505060206040518083038186803b15801561145357600080fd5b505af4158015611467573d6000803e3d6000fd5b505050506040513d602081101561147d57600080fd5b810190808051906020019092919050505002600881905550600560085410156114a95760056008819055505b60608273ffffffffffffffffffffffffffffffffffffffff16637f3d25de896040518263ffffffff1660e01b8152600401808273ffffffffffffffffffffffffffffffffffffffff1673ffffffffffffffffffffffffffffffffffffffff168152602001915050600060405180830381600087803b15801561152a57600080fd5b505af115801561153e573d6000803e3d6000fd5b505050506040513d6000823e3d601f19601f82011682018060405250602081101561156857600080fd5b81019080805164010000000081111561158057600080fd5b8281019050602081018481111561159657600080fd5b81518560208202830111640100000000821117156115b357600080fd5b5050929190505050905060008090505b815181101561184b578181815181106115d857fe5b602002602001015173ffffffffffffffffffffffffffffffffffffffff168a73ffffffffffffffffffffffffffffffffffffffff161461183e57600273__Set___________________________________636aa90e97909184848151811061163c57fe5b60200260200101516040518363ffffffff1660e01b8152600401808381526020018273ffffffffffffffffffffffffffffffffffffffff1673ffffffffffffffffffffffffffffffffffffffff1681526020019250505060206040518083038186803b1580156116ab57600080fd5b505af41580156116bf573d6000803e3d6000fd5b505050506040513d60208110156116d557600080fd5b810190808051906020019092919050505061183d57600473__Set___________________________________636aa90e97909184848151811061171457fe5b60200260200101516040518363ffffffff1660e01b8152600401808381526020018273ffffffffffffffffffffffffffffffffffffffff1673ffffffffffffffffffffffffffffffffffffffff1681526020019250505060206040518083038186803b15801561178357600080fd5b505af4158015611797573d6000803e3d6000fd5b505050506040513d60208110156117ad57600080fd5b810190808051906020019092919050505061183c5760068282815181106117d057fe5b602002602001015190806001815401808255809150509060018203906000526020600020016000909192909190916101000a81548173ffffffffffffffffffffffffffffffffffffffff021916908373ffffffffffffffffffffffffffffffffffffffff160217905550505b5b5b80806001019150506115c3565b50600273__Set___________________________________63ea70683890916040518263ffffffff1660e01b81526004018082815260200191505060206040518083038186803b15801561189e57600080fd5b505af41580156118b2573d6000803e3d6000fd5b505050506040513d60208110156118c857600080fd5b810190808051906020019092919050505060085403600680549050101561193a576040517f08c379a00000000000000000000000000000000000000000000000000000000081526004018080602001828103825260268152602001806136136026913960400191505060405180910390fd5b61194460016124d9565b600b600181819054906101000a900460ff168092919060010191906101000a81548160ff021916908360ff16021790555050505050505050505050565b6000600273__Set___________________________________63ea70683890916040518263ffffffff1660e01b81526004018082815260200191505060206040518083038186803b1580156119d557600080fd5b505af41580156119e9573d6000803e3d6000fd5b505050506040513d60208110156119ff57600080fd5b8101908080519060200190929190505050600b60009054906101000a900460ff1660ff1614611a79576040517f08c379a00000000000000000000000000000000000000000000000000000000081526004018080602001828103825260258152602001806136396025913960400191505060405180910390fd5b600a544203831115611aad577fffffffffffffffffffffffffffffffffffffffffffffffffffffffffffffffff9050612409565b60008090506000809050600080905060008090505b600273__Set___________________________________63ea70683890916040518263ffffffff1660e01b81526004018082815260200191505060206040518083038186803b158015611b1457600080fd5b505af4158015611b28573d6000803e3d6000fd5b505050506040513d6020811015611b3e57600080fd5b8101908080519060200190929190505050811015611dff57600060016000600273__Set___________________________________6344f7330d9091866040518363ffffffff1660e01b8152600401808381526020018281526020019250505060206040518083038186803b158015611bb657600080fd5b505af4158015611bca573d6000803e3d6000fd5b505050506040513d6020811015611be057600080fd5b810190808051906020019092919050505073ffffffffffffffffffffffffffffffffffffffff1673ffffffffffffffffffffffffffffffffffffffff16815260200190815260200160002090508073__VotingToken___________________________63ffef631c90916040518263ffffffff1660e01b81526004018082815260200191505060206040518083038186803b158015611c7e57600080fd5b505af4158015611c92573d6000803e3d6000fd5b505050506040513d6020811015611ca857600080fd5b8101908080519060200190929190505050830192508073__VotingToken___________________________63117d52aa90916040518263ffffffff1660e01b81526004018082815260200191505060206040518083038186803b158015611d0e57600080fd5b505af4158015611d22573d6000803e3d6000fd5b505050506040513d6020811015611d3857600080fd5b810190808051906020019092919050505015611df15784806001019550508073__VotingToken___________________________63fb84fe7b90916040518263ffffffff1660e01b81526004018082815260200191505060206040518083038186803b158015611da757600080fd5b505af4158015611dbb573d6000803e3d6000fd5b505050506040513d6020811015611dd157600080fd5b810190808051906020019092919050505015611df05783806001019450505b5b508080600101915050611ac2565b50600460036008540281611e0f57fe5b04831015611e5d576202a300600a5442031115611e3257603c9350505050612409565b7ffffffffffffffffffffffffffffffffffffffffffffffffffffffffffffffffe9350505050612409565b60006042848460640281611e6d57fe5b04101590506000600290506000600290506000600190506000878681611e8f57fe5b04905060008090505b600273__Set___________________________________63ea70683890916040518263ffffffff1660e01b81526004018082815260200191505060206040518083038186803b158015611eea57600080fd5b505af4158015611efe573d6000803e3d6000fd5b505050506040513d6020811015611f1457600080fd5b81019080805190602001909291905050508110156123f057600060016000600273__Set___________________________________6344f7330d9091866040518363ffffffff1660e01b8152600401808381526020018281526020019250505060206040518083038186803b158015611f8c57600080fd5b505af4158015611fa0573d6000803e3d6000fd5b505050506040513d6020811015611fb657600080fd5b810190808051906020019092919050505073ffffffffffffffffffffffffffffffffffffffff1673ffffffffffffffffffffffffffffffffffffffff16815260200190815260200160002090508073__VotingToken___________________________63117d52aa90916040518263ffffffff1660e01b81526004018082815260200191505060206040518083038186803b15801561205457600080fd5b505af4158015612068573d6000803e3d6000fd5b505050506040513d602081101561207e57600080fd5b8101908080519060200190929190505050156123e25760008a87600954816120a257fe5b04816120aa57fe5b0490508173__VotingToken___________________________63fb84fe7b90916040518263ffffffff1660e01b81526004018082815260200191505060206040518083038186803b1580156120fe57600080fd5b505af4158015612112573d6000803e3d6000fd5b505050506040513d602081101561212857600080fd5b8101908080519060200190929190505050151588151514156121855787156121685789866009548161215657fe5b048161215e57fe5b0481019050612184565b898b03866009548161217657fe5b048161217e57fe5b04810190505b5b848273__VotingToken___________________________63ffef631c90916040518263ffffffff1660e01b81526004018082815260200191505060206040518083038186803b1580156121d757600080fd5b505af41580156121eb573d6000803e3d6000fd5b505050506040513d602081101561220157600080fd5b810190808051906020019092919050505085038161221b57fe5b048101905060008111156123e0578c73ffffffffffffffffffffffffffffffffffffffff16636f77926b600273__Set___________________________________6344f7330d9091876040518363ffffffff1660e01b8152600401808381526020018281526020019250505060206040518083038186803b15801561229f57600080fd5b505af41580156122b3573d6000803e3d6000fd5b505050506040513d60208110156122c957600080fd5b81019080805190602001909291905050506040518263ffffffff1660e01b8152600401808273ffffffffffffffffffffffffffffffffffffffff1673ffffffffffffffffffffffffffffffffffffffff16815260200191505060206040518083038186803b15801561233a57600080fd5b505afa15801561234e573d6000803e3d6000fd5b505050506040513d602081101561236457600080fd5b810190808051906020019092919050505073ffffffffffffffffffffffffffffffffffffffff16633e4ccb40826040518263ffffffff1660e01b815260040180828152602001915050600060405180830381600087803b1580156123c757600080fd5b505af11580156123db573d6000803e3d6000fd5b505050505b505b508080600101915050611e98565b508787606402816123fd57fe5b04985050505050505050505b92915050565b6000600273__Set___________________________________636aa90e979091846040518363ffffffff1660e01b8152600401808381526020018273ffffffffffffffffffffffffffffffffffffffff1673ffffffffffffffffffffffffffffffffffffffff1681526020019250505060206040518083038186803b15801561249757600080fd5b505af41580156124ab573d6000803e3d6000fd5b505050506040513d60208110156124c157600080fd5b81019080805190602001909291905050509050919050565b60006008541415612535576040517f08c379a00000000000000000000000000000000000000000000000000000000081526004018080602001828103825260378152602001806136806037913960400191505060405180910390fd5b8061275557600273__Set___________________________________636aa90e979091600760009054906101000a900473ffffffffffffffffffffffffffffffffffffffff166040518363ffffffff1660e01b8152600401808381526020018273ffffffffffffffffffffffffffffffffffffffff1673ffffffffffffffffffffffffffffffffffffffff1681526020019250505060206040518083038186803b1580156125e257600080fd5b505af41580156125f6573d6000803e3d6000fd5b505050506040513d602081101561260c57600080fd5b810190808051906020019092919050505015612690576040517f08c379a000000000000000000000000000000000000000000000000000000000815260040180806020018281038252601a8152602001807f416c72656164792061646465642074686174206164647265737300000000000081525060200191505060405180910390fd5b600273__Set___________________________________633c2580489091600760009054906101000a900473ffffffffffffffffffffffffffffffffffffffff166040518363ffffffff1660e01b8152600401808381526020018273ffffffffffffffffffffffffffffffffffffffff1673ffffffffffffffffffffffffffffffffffffffff1681526020019250505060006040518083038186803b15801561273857600080fd5b505af415801561274c573d6000803e3d6000fd5b50505050612789565b600b600181819054906101000a900460ff16809291906001900391906101000a81548160ff021916908360ff160217905550505b600854600273__Set___________________________________63ea70683890916040518263ffffffff1660e01b81526004018082815260200191505060206040518083038186803b1580156127de57600080fd5b505af41580156127f2573d6000803e3d6000fd5b505050506040513d602081101561280857600080fd5b810190808051906020019092919050505014612b35576000600b60019054906101000a900460ff1660ff1611612889576040517f08c379a000000000000000000000000000000000000000000000000000000000815260040180806020018281038252602e8152602001806136de602e913960400191505060405180910390fd5b600273__Set___________________________________63ea70683890916040518263ffffffff1660e01b81526004018082815260200191505060206040518083038186803b1580156128db57600080fd5b505af41580156128ef573d6000803e3d6000fd5b505050506040513d602081101561290557600080fd5b8101908080519060200190929190505050600854036006805490501015612977576040517f08c379a000000000000000000000000000000000000000000000000000000000815260040180806020018281038252604781526020018061370c6047913960600191505060405180910390fd5b60006129aa600760009054906101000a900473ffffffffffffffffffffffffffffffffffffffff16600680549050613490565b60ff169050600681815481106129bc57fe5b9060005260206000200160009054906101000a900473ffffffffffffffffffffffffffffffffffffffff16600760006101000a81548173ffffffffffffffffffffffffffffffffffffffff021916908373ffffffffffffffffffffffffffffffffffffffff16021790555060008190505b600160068054905003811015612ada5760066001820181548110612a4d57fe5b9060005260206000200160009054906101000a900473ffffffffffffffffffffffffffffffffffffffff1660068281548110612a8557fe5b9060005260206000200160006101000a81548173ffffffffffffffffffffffffffffffffffffffff021916908373ffffffffffffffffffffffffffffffffffffffff1602179055508080600101915050612a2d565b50600660016006805490500381548110612af057fe5b9060005260206000200160006101000a81549073ffffffffffffffffffffffffffffffffffffffff02191690556006805480919060019003612b329190613594565b50505b50565b60095481565b6060600273__Set___________________________________639fa87cd190916040518263ffffffff1660e01b81526004018082815260200191505060006040518083038186803b158015612b9257600080fd5b505af4158015612ba6573d6000803e3d6000fd5b505050506040513d6000823e3d601f19601f820116820180604052506020811015612bd057600080fd5b810190808051640100000000811115612be857600080fd5b82810190506020810184811115612bfe57600080fd5b8151856020820283011164010000000082111715612c1b57600080fd5b5050929190505050905090565b6009548173ffffffffffffffffffffffffffffffffffffffff1663b69ef8a86040518163ffffffff1660e01b815260040160206040518083038186803b158015612c7157600080fd5b505afa158015612c85573d6000803e3d6000fd5b505050506040513d6020811015612c9b57600080fd5b81019080805190602001909291905050501015612d03576040517f08c379a000000000000000000000000000000000000000000000000000000000815260040180806020018281038252602281526020018061365e6022913960400191505060405180910390fd5b8073ffffffffffffffffffffffffffffffffffffffff1663392aee436009546040518263ffffffff1660e01b815260040180828152602001915050600060405180830381600087803b158015612d5857600080fd5b505af1158015612d6c573d6000803e3d6000fd5b505050506001600b60026101000a81548160ff02191690831515021790555050565b600080600273__Set___________________________________63ea70683890916040518263ffffffff1660e01b81526004018082815260200191505060206040518083038186803b158015612de357600080fd5b505af4158015612df7573d6000803e3d6000fd5b505050506040513d6020811015612e0d57600080fd5b8101908080519060200190929190505050600b60009054906101000a900460ff1660ff1614612e87576040517f08c379a00000000000000000000000000000000000000000000000000000000081526004018080602001828103825260258152602001806136396025913960400191505060405180910390fd5b6000808573ffffffffffffffffffffffffffffffffffffffff1673ffffffffffffffffffffffffffffffffffffffff1681526020019081526020016000208381548110612ed057fe5b906000526020600020906006020173__TransactionDataSet____________________63b18e919690916040518263ffffffff1660e01b815260040180828152602001915050604080518083038186803b158015612f2d57600080fd5b505af4158015612f41573d6000803e3d6000fd5b505050506040513d6040811015612f5757600080fd5b810190808051906020019092919080519060200190929190505050915091509250929050565b606080606080600273__Set___________________________________63ea70683890916040518263ffffffff1660e01b81526004018082815260200191505060206040518083038186803b158015612fd557600080fd5b505af4158015612fe9573d6000803e3d6000fd5b505050506040513d6020811015612fff57600080fd5b8101908080519060200190929190505050600b60009054906101000a900460ff1660ff1614613079576040517f08c379a00000000000000000000000000000000000000000000000000000000081526004018080602001828103825260258152602001806136396025913960400191505060405180910390fd5b6000808773ffffffffffffffffffffffffffffffffffffffff1673ffffffffffffffffffffffffffffffffffffffff16815260200190815260200160002085815481106130c257fe5b906000526020600020906006020173__TransactionDataSet____________________63c233d7e890916040518263ffffffff1660e01b81526004018082815260200191505060006040518083038186803b15801561312057600080fd5b505af4158015613134573d6000803e3d6000fd5b505050506040513d6000823e3d601f19601f82011682018060405250608081101561315e57600080fd5b81019080805164010000000081111561317657600080fd5b8281019050602081018481111561318c57600080fd5b81518560018202830111640100000000821117156131a957600080fd5b505092919060200180516401000000008111156131c557600080fd5b828101905060208101848111156131db57600080fd5b81518560018202830111640100000000821117156131f857600080fd5b5050929190602001805164010000000081111561321457600080fd5b8281019050602081018481111561322a57600080fd5b815185600182028301116401000000008211171561324757600080fd5b5050929190602001805164010000000081111561326357600080fd5b8281019050602081018481111561327957600080fd5b815185600182028301116401000000008211171561329657600080fd5b5050929190505050935093509350935092959194509250565b600273__Set___________________________________63ea70683890916040518263ffffffff1660e01b81526004018082815260200191505060206040518083038186803b15801561330157600080fd5b505af4158015613315573d6000803e3d6000fd5b505050506040513d602081101561332b57600080fd5b8101908080519060200190929190505050600b60009054906101000a900460ff1660ff16146133a5576040517f08c379a00000000000000000000000000000000000000000000000000000000081526004018080602001828103825260258152602001806136396025913960400191505060405180910390fd5b600160008373ffffffffffffffffffffffffffffffffffffffff1673ffffffffffffffffffffffffffffffffffffffff16815260200190815260200160002073__VotingToken___________________________639a5a2a11909184846040518463ffffffff1660e01b8152600401808481526020018373ffffffffffffffffffffffffffffffffffffffff1673ffffffffffffffffffffffffffffffffffffffff16815260200182151515158152602001935050505060006040518083038186803b15801561347457600080fd5b505af4158015613488573d6000803e3d6000fd5b505050505050565b6000814244855a604051602001808581526020018481526020018373ffffffffffffffffffffffffffffffffffffffff1673ffffffffffffffffffffffffffffffffffffffff1660601b81526014018281526020019450505050506040516020818303038152906040528051906020012060001c8161350b57fe5b06905092915050565b828054600181600116156101000203166002900490600052602060002090601f016020900481019282601f1061355557805160ff1916838001178555613583565b82800160010185558215613583579182015b82811115613582578251825591602001919060010190613567565b5b50905061359091906135c0565b5090565b8154818355818111156135bb578183600052602060002091820191016135ba91906135c0565b5b505050565b6135e291905b808211156135de5760008160009055506001016135c6565b5090565b9056fe596f7520696e6469636174656420746f6f206d616e7920696e76616c696420747261646520706172746e657273496e76616c6964206e756d626572206f66206f7468657220747261646520706172746e65727348617665206e6f74206372656174656420616c6c2074686520566f74696e67546f6b656e734e6f7420456e6f7567682066756e647320666f7220746869732050726f706f73616c547261646520706172746e6572732068617665206e6f74206265656e20616464656420746f2074686973207965742070726f706f73616c546869732070726f706f73616c20686173206e6f74206265656e207061696420666f722079657443616e206e6f74207665746f20616e79206d6f72652072616e646f6d6c792073656c656374656420766f7465727343616e206e6f74207665746f207468697320766f7465722062656361757365207468657265206973206e6f7420656e6f75676820747261646520706172746e657273206c656674a165627a7a72305820b8dfe9a9bc480ebb24f1ef34c3414859dca3cc364deab11c3c62e4e8d74449a40029a165627a7a7230582081a96cdd5bba031efe36a93c634c1b9dbdf8c792508b8011ff9741660c1507a50029",
  "source": "/* ProposalCreator.sol */\r\n\r\npragma solidity >=0.4.0 <0.7.0;\r\n\r\nimport \"../contracts/UserManager.sol\";\r\nimport \"../contracts/ProposalManager.sol\";\r\n\r\n/* <Summary> \r\n\tThis contract is used by an account to create an account recovery \r\n\t proposal. All functions in this contract are used by the new new account.\r\n*/\r\n\r\ncontract ProposalCreator {\r\n\tUserManager UMI;\t\t\t// Connects to the list of users on the network\r\n\tTransactionManager TMI;\t\t// Connects to the list of transaction data\r\n\tProposalManager PMI;\t\t// Connects to the list of proposals\r\n\r\n\t// Used to originally deploy the contract\r\n\tconstructor(address _UM, address _TM, address _PM) public {\r\n\t\tUMI = UserManager(_UM);\r\n\t\tTMI = TransactionManager(_TM);\r\n\t\tPMI = ProposalManager(_PM);\r\n\t}\r\n\t\r\n\t// Used to create a new account recovery proposal\r\n\tfunction StartProposal(address _oldAccount) external {\r\n\r\n\t\t// Checks if there is already an active proposal for this account\r\n\t\tPMI.validProposal(_oldAccount, msg.sender);\r\n\r\n\t\t// Price of the account recover proposal: Used to pay voters\r\n\t\tuint price = UMI.getUser(_oldAccount).balance() / 20;\r\n\r\n\t\t// Creates Proposal and adds it to the active proposal map\r\n\t\tPMI.AddActiveProposal(_oldAccount, msg.sender, \r\n\t\t\tnew Proposal(price));\r\n\t}\r\n\r\n\t// Used to view the price of the account recover proposal\r\n\tfunction ViewPrice(address _oldAccount) external view returns (uint) {\r\n\t\treturn PMI.getProposal(_oldAccount, msg.sender).price();\r\n\t}\r\n\r\n\t// Used to pay for the account recover proposal\r\n\tfunction Pay(address _oldAccount, bool _pay) external {\r\n\t\tif (_pay){\t\t\t\t// The new account is paying for the proposal\r\n\t\t\t// Finds the person in the network\r\n\t\t\tPerson newAccount = UMI.getUser(msg.sender); \r\n\t\t\t// Pays for the proposal\r\n\t\t\tPMI.getProposal(_oldAccount, msg.sender).Pay(newAccount);\r\n\t\t}\r\n\t\telse{\t\t\t\t\t// The new account will not pay\r\n\t\t\tPMI.archiveProposal(_oldAccount, msg.sender);\t// Deletes proposal\r\n\t\t}\r\n\t}\r\n\r\n\t// Used to add indicated voters to the proposal\r\n\tfunction AddTradePartners(address _oldAccount, address[] calldata _tradePartners) external {\r\n\r\n\t\t// Gets voters from past account recovery attempts\r\n\t\taddress[] memory archivedVoters = PMI.getArchivedVoter(_oldAccount);\r\n\r\n\t\t// Finds proposal and adds indicated voters\r\n\t\tPMI.getProposal(_oldAccount, msg.sender).AddTradePartners( msg.sender, _oldAccount,  \r\n\t\t\t_tradePartners, archivedVoters, TMI, PMI);\r\n\t}\r\n\r\n\t// Returns a list of voters for an account recovery proposal\r\n\tfunction ViewVoters(address _oldAccount) external view returns (address[] memory) {\r\n\t\treturn PMI.getProposal(_oldAccount, msg.sender).getVoters();\r\n\t}\r\n\r\n\t// Randomly selects a trade partner. Also adds the last randomly selected\r\n\t//  trade partner to the list of voters\r\n\tfunction RandomTradingPartner(address _oldAccount, bool _veto) external {\r\n\t\tPMI.getProposal(_oldAccount, msg.sender).RandomTradingPartner(_veto);\r\n\t}\r\n\r\n\t// Returns the current randomly selected voter \r\n\tfunction ViewRandomTradingPartner(address _oldAccount) external view returns (address) {\r\n\t\treturn PMI.getProposal(_oldAccount, msg.sender).lastOtherPartner();\r\n\t}\r\n\r\n\t// Checks transaction data and adds it to the proposal to be viewed later\r\n\tfunction MakeTransactionDataSet( address _oldAccount, address _voter, \r\n\t\tuint _timeStamp, uint _amount, string calldata _description, \r\n\t\tstring calldata _importantNotes, string calldata _location,\r\n\t\tstring calldata _itemsInTrade) external {\r\n\r\n\r\n\t\t// Checks if there exists a transaction with this infromation\r\n\t\tTMI.Equal(_oldAccount, _voter, _timeStamp, _amount);\r\n\r\n\t\tProposal temp = PMI.getProposal(_oldAccount, msg.sender);\r\n\r\n\t\t// Checks if this address is actually a voter\r\n\t\trequire(temp.ContainsVoter(_voter), \"Invalid Voter\");\r\n\t\t\r\n\t\t// Adds the tranaction data to the proposal to be viewed by the voter\r\n\t\ttemp.AddTransactionDataSet(_voter, _timeStamp, _amount, \r\n\t\t\t_description, _importantNotes, _location, _itemsInTrade);\r\n\t}\r\n}\r\n\r\n/*\r\nrequire(bytes(_description).length > 0 && \r\n\t\tbytes(_location).length > 0 && \r\n\t\tbytes(_itemsInTrade).length > 0, \r\n\t\t\"Must provide private infromation\");\r\n*/\r\n\r\n// 6471200\r\n// 6568080\r\n// 6530283\r\n// 6096988\r\n// 5939582\r\n// 5762541\r\n// 5677263\r\n// 5643513\r\n// 5807176\r\n",
  "sourcePath": "C:/Users/m5w5b/Desktop/GitHub/game-dapp/AccountRecovery/contracts/ProposalCreator.sol",
  "compiler": {
    "name": "solc",
    "version": "0.5.8+commit.23d335f2.Emscripten.clang"
  },
  "schemaVersion": "3.0.16",
  "updatedAt": "2019-12-07T21:29:13.281Z",
  "devdoc": {
    "methods": {}
  },
  "userdoc": {
    "methods": {}
  }
}