{
  "contractName": "ProposalManager",
  "abi": [
    {
      "inputs": [
        {
          "name": "UserManagerAddress",
          "type": "address"
        }
      ],
      "payable": false,
      "stateMutability": "nonpayable",
      "type": "constructor"
    },
    {
      "constant": false,
      "inputs": [
        {
          "name": "_newAccount",
          "type": "address"
        }
      ],
      "name": "VetoAccountRecovery",
      "outputs": [],
      "payable": false,
      "stateMutability": "nonpayable",
      "type": "function"
    },
    {
      "constant": true,
      "inputs": [
        {
          "name": "oldAccount",
          "type": "address"
        },
        {
          "name": "newAccount",
          "type": "address"
        },
        {
          "name": "i",
          "type": "uint256"
        }
      ],
      "name": "ViewPublicInformation",
      "outputs": [
        {
          "name": "",
          "type": "uint256"
        },
        {
          "name": "",
          "type": "uint256"
        },
        {
          "name": "",
          "type": "address"
        },
        {
          "name": "",
          "type": "address"
        }
      ],
      "payable": false,
      "stateMutability": "view",
      "type": "function"
    },
    {
      "constant": true,
      "inputs": [
        {
          "name": "oldAccount",
          "type": "address"
        },
        {
          "name": "newAccount",
          "type": "address"
        },
        {
          "name": "i",
          "type": "uint256"
        }
      ],
      "name": "ViewPrivateInformation",
      "outputs": [
        {
          "name": "",
          "type": "string"
        },
        {
          "name": "",
          "type": "string"
        }
      ],
      "payable": false,
      "stateMutability": "view",
      "type": "function"
    },
    {
      "constant": false,
      "inputs": [
        {
          "name": "oldAccount",
          "type": "address"
        },
        {
          "name": "newAccount",
          "type": "address"
        },
        {
          "name": "choice",
          "type": "bool"
        }
      ],
      "name": "CastVote",
      "outputs": [],
      "payable": false,
      "stateMutability": "nonpayable",
      "type": "function"
    },
    {
      "constant": false,
      "inputs": [
        {
          "name": "_oldAccount",
          "type": "address"
        }
      ],
      "name": "ConcludeAccountRecovery",
      "outputs": [],
      "payable": false,
      "stateMutability": "nonpayable",
      "type": "function"
    },
    {
      "constant": true,
      "inputs": [
        {
          "name": "_oldAccount",
          "type": "address"
        },
        {
          "name": "_newAccount",
          "type": "address"
        }
      ],
      "name": "getActiveProposalExists",
      "outputs": [
        {
          "name": "",
          "type": "bool"
        }
      ],
      "payable": false,
      "stateMutability": "view",
      "type": "function"
    },
    {
      "constant": true,
      "inputs": [
        {
          "name": "_oldAccount",
          "type": "address"
        },
        {
          "name": "_newAccount",
          "type": "address"
        }
      ],
      "name": "getActiveProposal",
      "outputs": [
        {
          "name": "",
          "type": "address"
        }
      ],
      "payable": false,
      "stateMutability": "view",
      "type": "function"
    },
    {
      "constant": false,
      "inputs": [
        {
          "name": "_oldAccount",
          "type": "address"
        },
        {
          "name": "_newAccount",
          "type": "address"
        },
        {
          "name": "temp",
          "type": "address"
        }
      ],
      "name": "AddActiveProposal",
      "outputs": [],
      "payable": false,
      "stateMutability": "nonpayable",
      "type": "function"
    },
    {
      "constant": true,
      "inputs": [
        {
          "name": "_oldAccount",
          "type": "address"
        }
      ],
      "name": "getArchivedVoter",
      "outputs": [
        {
          "name": "",
          "type": "address[]"
        }
      ],
      "payable": false,
      "stateMutability": "view",
      "type": "function"
    },
    {
      "constant": false,
      "inputs": [
        {
          "name": "_oldAccount",
          "type": "address"
        },
        {
          "name": "_newAccount",
          "type": "address"
        }
      ],
      "name": "archiveProposal",
      "outputs": [],
      "payable": false,
      "stateMutability": "nonpayable",
      "type": "function"
    },
    {
      "constant": true,
      "inputs": [
        {
          "name": "_oldAccount",
          "type": "address"
        }
      ],
      "name": "validProposal",
      "outputs": [
        {
          "name": "",
          "type": "bool"
        }
      ],
      "payable": false,
      "stateMutability": "view",
      "type": "function"
    },
    {
      "constant": true,
      "inputs": [
        {
          "name": "_address",
          "type": "address"
        }
      ],
      "name": "getBlacklistedAccount",
      "outputs": [
        {
          "name": "",
          "type": "bool"
        }
      ],
      "payable": false,
      "stateMutability": "view",
      "type": "function"
    },
    {
      "constant": false,
      "inputs": [
        {
          "name": "_address",
          "type": "address"
        }
      ],
      "name": "setBlacklistedAccount",
      "outputs": [],
      "payable": false,
      "stateMutability": "nonpayable",
      "type": "function"
    }
  ],
  "bytecode": "0x608060405234801561001057600080fd5b5060405160208061192d8339810180604052602081101561003057600080fd5b8101908080519060200190929190505050806000806101000a81548173ffffffffffffffffffffffffffffffffffffffff021916908373ffffffffffffffffffffffffffffffffffffffff1602179055505061189c806100916000396000f3fe608060405234801561001057600080fd5b50600436106100cf5760003560e01c80634a1ba5931161008c57806380b915281161006657806380b91528146105975780638af10ea714610613578063a652629514610697578063b7e3f59f1461073b576100cf565b80634a1ba593146104005780636f4b8b72146104ef57806380345d9d14610553576100cf565b80630b9f2b63146100d45780630d2cea2c14610227578063352ef89c1461026b5780633c4d4fe1146103045780633ef8f383146103485780634418adbc146103a4575b600080fd5b610140600480360360608110156100ea57600080fd5b81019080803573ffffffffffffffffffffffffffffffffffffffff169060200190929190803573ffffffffffffffffffffffffffffffffffffffff169060200190929190803590602001909291905050506107ab565b604051808060200180602001838103835285818151815260200191508051906020019080838360005b83811015610184578082015181840152602081019050610169565b50505050905090810190601f1680156101b15780820380516001836020036101000a031916815260200191505b50838103825284818151815260200191508051906020019080838360005b838110156101ea5780820151818401526020810190506101cf565b50505050905090810190601f1680156102175780820380516001836020036101000a031916815260200191505b5094505050505060405180910390f35b6102696004803603602081101561023d57600080fd5b81019080803573ffffffffffffffffffffffffffffffffffffffff169060200190929190505050610928565b005b6102ad6004803603602081101561028157600080fd5b81019080803573ffffffffffffffffffffffffffffffffffffffff169060200190929190505050610ea7565b6040518080602001828103825283818151815260200191508051906020019060200280838360005b838110156102f05780820151818401526020810190506102d5565b505050509050019250505060405180910390f35b6103466004803603602081101561031a57600080fd5b81019080803573ffffffffffffffffffffffffffffffffffffffff169060200190929190505050610f74565b005b61038a6004803603602081101561035e57600080fd5b81019080803573ffffffffffffffffffffffffffffffffffffffff169060200190929190505050610f81565b604051808215151515815260200191505060405180910390f35b6103e6600480360360208110156103ba57600080fd5b81019080803573ffffffffffffffffffffffffffffffffffffffff169060200190929190505050610fd8565b604051808215151515815260200191505060405180910390f35b61046c6004803603606081101561041657600080fd5b81019080803573ffffffffffffffffffffffffffffffffffffffff169060200190929190803573ffffffffffffffffffffffffffffffffffffffff1690602001909291908035906020019092919050505061102e565b604051808581526020018481526020018373ffffffffffffffffffffffffffffffffffffffff1673ffffffffffffffffffffffffffffffffffffffff1681526020018273ffffffffffffffffffffffffffffffffffffffff1673ffffffffffffffffffffffffffffffffffffffff16815260200194505050505060405180910390f35b6105516004803603604081101561050557600080fd5b81019080803573ffffffffffffffffffffffffffffffffffffffff169060200190929190803573ffffffffffffffffffffffffffffffffffffffff16906020019092919050505061112c565b005b6105956004803603602081101561056957600080fd5b81019080803573ffffffffffffffffffffffffffffffffffffffff1690602001909291905050506113a8565b005b6105f9600480360360408110156105ad57600080fd5b81019080803573ffffffffffffffffffffffffffffffffffffffff169060200190929190803573ffffffffffffffffffffffffffffffffffffffff169060200190929190505050611403565b604051808215151515815260200191505060405180910390f35b6106956004803603606081101561062957600080fd5b81019080803573ffffffffffffffffffffffffffffffffffffffff169060200190929190803573ffffffffffffffffffffffffffffffffffffffff169060200190929190803573ffffffffffffffffffffffffffffffffffffffff16906020019092919050505061149a565b005b6106f9600480360360408110156106ad57600080fd5b81019080803573ffffffffffffffffffffffffffffffffffffffff169060200190929190803573ffffffffffffffffffffffffffffffffffffffff169060200190929190505050611630565b604051808273ffffffffffffffffffffffffffffffffffffffff1673ffffffffffffffffffffffffffffffffffffffff16815260200191505060405180910390f35b6107a96004803603606081101561075157600080fd5b81019080803573ffffffffffffffffffffffffffffffffffffffff169060200190929190803573ffffffffffffffffffffffffffffffffffffffff169060200190929190803515159060200190929190505050611756565b005b6060806107b88585611630565b73ffffffffffffffffffffffffffffffffffffffff1663f91ac89933856040518363ffffffff1660e01b8152600401808373ffffffffffffffffffffffffffffffffffffffff1673ffffffffffffffffffffffffffffffffffffffff1681526020018281526020019250505060006040518083038186803b15801561083c57600080fd5b505afa158015610850573d6000803e3d6000fd5b505050506040513d6000823e3d601f19601f82011682018060405250604081101561087a57600080fd5b81019080805164010000000081111561089257600080fd5b828101905060208101848111156108a857600080fd5b81518560018202830111640100000000821117156108c557600080fd5b505092919060200180516401000000008111156108e157600080fd5b828101905060208101848111156108f757600080fd5b815185600182028301116401000000008211171561091457600080fd5b505092919050505091509150935093915050565b60006109348233611630565b905060008173ffffffffffffffffffffffffffffffffffffffff16630d2cea2c6000809054906101000a900473ffffffffffffffffffffffffffffffffffffffff166040518263ffffffff1660e01b8152600401808273ffffffffffffffffffffffffffffffffffffffff1673ffffffffffffffffffffffffffffffffffffffff168152602001915050602060405180830381600087803b1580156109d857600080fd5b505af11580156109ec573d6000803e3d6000fd5b505050506040513d6020811015610a0257600080fd5b810190808051906020019092919050505090507fffffffffffffffffffffffffffffffffffffffffffffffffffffffffffffffff811415610a8e576040517f08c379a000000000000000000000000000000000000000000000000000000000815260040180806020018281038252603781526020018061183a6037913960400191505060405180910390fd5b60428112610e295760008060009054906101000a900473ffffffffffffffffffffffffffffffffffffffff1673ffffffffffffffffffffffffffffffffffffffff16636f77926b856040518263ffffffff1660e01b8152600401808273ffffffffffffffffffffffffffffffffffffffff1673ffffffffffffffffffffffffffffffffffffffff16815260200191505060206040518083038186803b158015610b3657600080fd5b505afa158015610b4a573d6000803e3d6000fd5b505050506040513d6020811015610b6057600080fd5b8101908080519060200190929190505050905060008060009054906101000a900473ffffffffffffffffffffffffffffffffffffffff1673ffffffffffffffffffffffffffffffffffffffff16636f77926b336040518263ffffffff1660e01b8152600401808273ffffffffffffffffffffffffffffffffffffffff1673ffffffffffffffffffffffffffffffffffffffff16815260200191505060206040518083038186803b158015610c1357600080fd5b505afa158015610c27573d6000803e3d6000fd5b505050506040513d6020811015610c3d57600080fd5b810190808051906020019092919050505090508073ffffffffffffffffffffffffffffffffffffffff16633e4ccb408373ffffffffffffffffffffffffffffffffffffffff1663b69ef8a86040518163ffffffff1660e01b815260040160206040518083038186803b158015610cb257600080fd5b505afa158015610cc6573d6000803e3d6000fd5b505050506040513d6020811015610cdc57600080fd5b81019080805190602001909291905050506040518263ffffffff1660e01b815260040180828152602001915050600060405180830381600087803b158015610d2357600080fd5b505af1158015610d37573d6000803e3d6000fd5b505050508173ffffffffffffffffffffffffffffffffffffffff1663392aee438373ffffffffffffffffffffffffffffffffffffffff1663b69ef8a86040518163ffffffff1660e01b815260040160206040518083038186803b158015610d9d57600080fd5b505afa158015610db1573d6000803e3d6000fd5b505050506040513d6020811015610dc757600080fd5b81019080805190602001909291905050506040518263ffffffff1660e01b815260040180828152602001915050600060405180830381600087803b158015610e0e57600080fd5b505af1158015610e22573d6000803e3d6000fd5b5050505050505b610e33833361112c565b603c8112158015610e445750604281125b15610ea2576000600360008573ffffffffffffffffffffffffffffffffffffffff1673ffffffffffffffffffffffffffffffffffffffff16815260200190815260200160002060006101000a81548160ff0219169083151502179055505b505050565b6060600260008373ffffffffffffffffffffffffffffffffffffffff1673ffffffffffffffffffffffffffffffffffffffff168152602001908152602001600020805480602002602001604051908101604052809291908181526020018280548015610f6857602002820191906000526020600020905b8160009054906101000a900473ffffffffffffffffffffffffffffffffffffffff1673ffffffffffffffffffffffffffffffffffffffff1681526020019060010190808311610f1e575b50505050509050919050565b610f7e338261112c565b50565b6000600360008373ffffffffffffffffffffffffffffffffffffffff1673ffffffffffffffffffffffffffffffffffffffff16815260200190815260200160002060009054906101000a900460ff16159050919050565b6000600460008373ffffffffffffffffffffffffffffffffffffffff1673ffffffffffffffffffffffffffffffffffffffff16815260200190815260200160002060009054906101000a900460ff169050919050565b60008060008061103e8787611630565b73ffffffffffffffffffffffffffffffffffffffff1663e628c2e033876040518363ffffffff1660e01b8152600401808373ffffffffffffffffffffffffffffffffffffffff1673ffffffffffffffffffffffffffffffffffffffff1681526020018281526020019250505060806040518083038186803b1580156110c257600080fd5b505afa1580156110d6573d6000803e3d6000fd5b505050506040513d60808110156110ec57600080fd5b8101908080519060200190929190805190602001909291908051906020019092919080519060200190929190505050935093509350935093509350935093565b60006111388383611630565b905060608173ffffffffffffffffffffffffffffffffffffffff1663cdd722536040518163ffffffff1660e01b815260040160006040518083038186803b15801561118257600080fd5b505afa158015611196573d6000803e3d6000fd5b505050506040513d6000823e3d601f19601f8201168201806040525060208110156111c057600080fd5b8101908080516401000000008111156111d857600080fd5b828101905060208101848111156111ee57600080fd5b815185602082028301116401000000008211171561120b57600080fd5b5050929190505050905060008090505b81518110156112e757600260008673ffffffffffffffffffffffffffffffffffffffff1673ffffffffffffffffffffffffffffffffffffffff16815260200190815260200160002082828151811061126f57fe5b602002602001015190806001815401808255809150509060018203906000526020600020016000909192909190916101000a81548173ffffffffffffffffffffffffffffffffffffffff021916908373ffffffffffffffffffffffffffffffffffffffff16021790555050808060010191505061121b565b50600160008573ffffffffffffffffffffffffffffffffffffffff1673ffffffffffffffffffffffffffffffffffffffff16815260200190815260200160002060008473ffffffffffffffffffffffffffffffffffffffff1673ffffffffffffffffffffffffffffffffffffffff168152602001908152602001600020600080820160006101000a81549073ffffffffffffffffffffffffffffffffffffffff02191690556000820160146101000a81549060ff0219169055505050505050565b6001600460008373ffffffffffffffffffffffffffffffffffffffff1673ffffffffffffffffffffffffffffffffffffffff16815260200190815260200160002060006101000a81548160ff02191690831515021790555050565b6000600160008473ffffffffffffffffffffffffffffffffffffffff1673ffffffffffffffffffffffffffffffffffffffff16815260200190815260200160002060008373ffffffffffffffffffffffffffffffffffffffff1673ffffffffffffffffffffffffffffffffffffffff16815260200190815260200160002060000160149054906101000a900460ff16905092915050565b6001600360008573ffffffffffffffffffffffffffffffffffffffff1673ffffffffffffffffffffffffffffffffffffffff16815260200190815260200160002060006101000a81548160ff0219169083151502179055506114fa611807565b81816000019073ffffffffffffffffffffffffffffffffffffffff16908173ffffffffffffffffffffffffffffffffffffffff1681525050600181602001901515908115158152505080600160008673ffffffffffffffffffffffffffffffffffffffff1673ffffffffffffffffffffffffffffffffffffffff16815260200190815260200160002060008573ffffffffffffffffffffffffffffffffffffffff1673ffffffffffffffffffffffffffffffffffffffff16815260200190815260200160002060008201518160000160006101000a81548173ffffffffffffffffffffffffffffffffffffffff021916908373ffffffffffffffffffffffffffffffffffffffff16021790555060208201518160000160146101000a81548160ff02191690831515021790555090505050505050565b600061163c8383611403565b6116ae576040517f08c379a000000000000000000000000000000000000000000000000000000000815260040180806020018281038252601b8152602001807f5468657265206973206e6f206163746976652050726f706f73616c000000000081525060200191505060405180910390fd5b600160008473ffffffffffffffffffffffffffffffffffffffff1673ffffffffffffffffffffffffffffffffffffffff16815260200190815260200160002060008373ffffffffffffffffffffffffffffffffffffffff1673ffffffffffffffffffffffffffffffffffffffff16815260200190815260200160002060000160009054906101000a900473ffffffffffffffffffffffffffffffffffffffff16905092915050565b6117608383611630565b73ffffffffffffffffffffffffffffffffffffffff1663fa041dd733836040518363ffffffff1660e01b8152600401808373ffffffffffffffffffffffffffffffffffffffff1673ffffffffffffffffffffffffffffffffffffffff1681526020018215151515815260200192505050600060405180830381600087803b1580156117ea57600080fd5b505af11580156117fe573d6000803e3d6000fd5b50505050505050565b6040518060400160405280600073ffffffffffffffffffffffffffffffffffffffff168152602001600015158152509056fe596f75206d7573742077616974206d6f72652074696d6520756e74696c20796f752063616e20636f6e636c7564652074686520766f7465a165627a7a7230582073fa2d0318b817c4b1508925d3dc482f55a905461fe564cd3a15d810f4f93e880029",
  "source": "/* ProposalManager.sol */\r\n\r\npragma solidity >=0.4.0 <0.7.0;\r\n\r\nimport \"../contracts/UserManager.sol\";\r\nimport \"../contracts/Proposal.sol\";\r\n\r\nimport \"../contracts/Person.sol\";\r\n\r\n/* <Summary> \r\n\tThis contract manages all active proposal as well as makes and concludes proposals.\r\n*/\r\n\r\ncontract ProposalManager {\r\n\r\n\tstruct ProposalPair {\r\n\t\tProposal proposal;\r\n\t\tbool exists;\r\n\t}\r\n\r\n\tUserManager UserManagerInstance;\t\t\t\t// Connects to the list of users on the network\r\n\r\n\tmapping (address => mapping (address => ProposalPair) ) activeProposals; // Map of active proposals\r\n\r\n\tmapping (address => address[]) archivedVoters; \t// Map of active proposals\r\n\tmapping (address => bool) invalidProposal; \t\t// If true then there has already been a proposal\r\n\tmapping (address => bool) blackListedAccounts; \t// If true then an account is blacklisted\r\n\r\n\t// Used to originally deploy the contract\r\n\tconstructor(address UserManagerAddress ) public {\r\n\t\tUserManagerInstance = UserManager(UserManagerAddress);\r\n\t}\r\n\r\n\tfunction VetoAccountRecovery(address _newAccount) external{\r\n\t\tarchiveProposal(msg.sender, _newAccount);\r\n\t}\r\n\r\n\t// View public information on a set of data for a transaction\r\n\tfunction ViewPublicInformation(address oldAccount, address newAccount, uint i) external view returns (uint, uint, address, address)\t{\r\n\t\treturn getActiveProposal(oldAccount, newAccount).ViewPublicInformation( msg.sender, i );\r\n\t}\r\n\r\n\t// View private information on a set of data for a transaction\r\n\tfunction ViewPrivateInformation(address oldAccount, address newAccount, uint i) external view returns (string memory, string memory)\t{\r\n\t\treturn getActiveProposal(oldAccount, newAccount).ViewPrivateInformation( msg.sender, i );\r\n\t}\r\n\r\n\t// Allows a voter to cast a vote on a proposal\r\n\tfunction CastVote(address oldAccount, address newAccount, bool choice) external {\r\n\t\tgetActiveProposal(oldAccount, newAccount).CastVote(msg.sender, choice);\r\n\t}\r\n\t\r\n\t// Counts up votes and distriputes the reward\r\n\tfunction ConcludeAccountRecovery(address _oldAccount) external {\r\n\t\tProposal temp = getActiveProposal(_oldAccount, msg.sender);\r\n\t\t\r\n\t\tint outcome = temp.ConcludeAccountRecovery(UserManagerInstance);\r\n\r\n\t\trequire (outcome != -1, \"You must wait more time until you can conclude the vote\");\r\n\r\n\t\tif (outcome >= 66){\t\t\t\t\t\t\t\t\t\t\t// Successful vote\r\n\t\t\t// Finds old account and new account on the network\r\n\t\t\tPerson oldAccount = UserManagerInstance.getUser(_oldAccount);\r\n\t\t\tPerson newAccount = UserManagerInstance.getUser(msg.sender);\r\n\r\n\t\t\t// Transfers balance\r\n\t\t\tnewAccount.increaseBalance(oldAccount.balance());\t// Increase new accounts balance\r\n\t\t\toldAccount.decreaseBalance(oldAccount.balance());\t// Decrease old accounts balance\r\n\r\n\t\t}\r\n\t\tarchiveProposal(_oldAccount, msg.sender);\r\n\r\n\t\tif (outcome >= 60 && outcome < 66){\t\t\t\t\t\t\t\t// Vote failed. No revote\r\n\t\t\tinvalidProposal[_oldAccount] = false;\r\n\t\t}\r\n\t}\r\n\r\n\t// Find the active proposal between _oldAccount and _newAccount\r\n\tfunction getActiveProposalExists(address _oldAccount, address _newAccount) public view returns (bool) {\r\n\t\treturn activeProposals[_oldAccount][_newAccount].exists;\r\n\t}\r\n\t\r\n\t// Find the active proposal between _oldAccount and _newAccount\r\n\tfunction getActiveProposal(address _oldAccount, address _newAccount) public view returns (Proposal) {\r\n\t\trequire(getActiveProposalExists(_oldAccount, _newAccount), \"There is no active Proposal\");\r\n\t\treturn activeProposals[_oldAccount][_newAccount].proposal;\r\n\t}\r\n\t\r\n\t// Adds an active proposal between _oldAccount and _newAccount\r\n\tfunction AddActiveProposal(address _oldAccount, address _newAccount, Proposal temp) external {\r\n\t\tinvalidProposal[_oldAccount] = true;\r\n\r\n\t\tProposalPair memory tempPair;\r\n\t\ttempPair.proposal = temp;\r\n\t\ttempPair.exists = true;\r\n\r\n\t\tactiveProposals[_oldAccount][_newAccount] = tempPair;\r\n\t}\r\n\t\r\n\t// Find the archived proposal between _oldAccount and _newAccount\r\n\tfunction getArchivedVoter(address _oldAccount) external view returns (address[] memory) {\r\n\t\treturn archivedVoters[_oldAccount];\r\n\t}\r\n\r\n\tfunction archiveProposal(address _oldAccount, address _newAccount) public {\r\n\t\tProposal temp = getActiveProposal(_oldAccount, _newAccount);\r\n\r\n\t\taddress[] memory voters = temp.getVoters();\r\n\r\n\t\tfor (uint i = 0; i < voters.length; i++){\r\n\t\t\tarchivedVoters[_oldAccount].push(voters[i]);\r\n\t\t}\r\n\r\n\t\tdelete activeProposals[_oldAccount][_newAccount];\r\n\t}\r\n\r\n\tfunction validProposal(address _oldAccount) external view returns (bool) {\r\n\t\treturn !invalidProposal[_oldAccount];\r\n\t}\r\n\r\n\tfunction getBlacklistedAccount(address _address) public view returns (bool) {\r\n\t\treturn blackListedAccounts[_address];\r\n\t}\r\n\r\n\tfunction setBlacklistedAccount(address _address) public {\r\n\t\tblackListedAccounts[_address] = true;\r\n\t}\r\n}\r\n",
  "sourcePath": "C:\\Users\\m5w5b\\Desktop\\GitHub\\game-dapp\\AccountRecovery\\contracts\\ProposalManager.sol",
  "compiler": {
    "name": "solc",
    "version": "0.5.8+commit.23d335f2.Emscripten.clang"
  },
  "schemaVersion": "3.0.16",
  "updatedAt": "2019-11-05T20:05:18.571Z",
  "devdoc": {
    "methods": {}
  },
  "userdoc": {
    "methods": {}
  }
}