{
  "contractName": "ProposalCreator",
  "abi": [
    {
      "inputs": [
        {
          "name": "UserManagerAddress",
          "type": "address"
        },
        {
          "name": "TransactionManagerAddress",
          "type": "address"
        },
        {
          "name": "ProposalManagerAddress",
          "type": "address"
        }
      ],
      "payable": false,
      "stateMutability": "nonpayable",
      "type": "constructor"
    },
    {
      "constant": false,
      "inputs": [
        {
          "name": "_oldAccount",
          "type": "address"
        },
        {
          "name": "_description",
          "type": "string"
        }
      ],
      "name": "StartProposal",
      "outputs": [
        {
          "name": "",
          "type": "uint256"
        }
      ],
      "payable": false,
      "stateMutability": "nonpayable",
      "type": "function"
    },
    {
      "constant": false,
      "inputs": [
        {
          "name": "_oldAccount",
          "type": "address"
        },
        {
          "name": "_pay",
          "type": "bool"
        }
      ],
      "name": "Pay",
      "outputs": [],
      "payable": false,
      "stateMutability": "nonpayable",
      "type": "function"
    },
    {
      "constant": false,
      "inputs": [
        {
          "name": "_oldAccount",
          "type": "address"
        },
        {
          "name": "_tradePartners",
          "type": "address[]"
        }
      ],
      "name": "AddTradePartners",
      "outputs": [
        {
          "name": "",
          "type": "address[]"
        }
      ],
      "payable": false,
      "stateMutability": "nonpayable",
      "type": "function"
    },
    {
      "constant": false,
      "inputs": [
        {
          "name": "_oldAccount",
          "type": "address"
        }
      ],
      "name": "FindRandomTradingPartner",
      "outputs": [],
      "payable": false,
      "stateMutability": "nonpayable",
      "type": "function"
    },
    {
      "constant": false,
      "inputs": [
        {
          "name": "_oldAccount",
          "type": "address"
        },
        {
          "name": "choice",
          "type": "bool"
        }
      ],
      "name": "AddRandomTradingPartner",
      "outputs": [],
      "payable": false,
      "stateMutability": "nonpayable",
      "type": "function"
    },
    {
      "constant": false,
      "inputs": [
        {
          "name": "oldAccount",
          "type": "address"
        },
        {
          "name": "_voter",
          "type": "address"
        },
        {
          "name": "_description",
          "type": "string"
        }
      ],
      "name": "MakeVotingToken",
      "outputs": [],
      "payable": false,
      "stateMutability": "nonpayable",
      "type": "function"
    },
    {
      "constant": false,
      "inputs": [
        {
          "name": "oldAccount",
          "type": "address"
        },
        {
          "name": "timeStamp",
          "type": "uint256"
        },
        {
          "name": "_amount",
          "type": "uint256"
        },
        {
          "name": "_voter",
          "type": "address"
        },
        {
          "name": "_description",
          "type": "string"
        },
        {
          "name": "_itemsInTrade",
          "type": "string"
        }
      ],
      "name": "MakeTransactionDataSet",
      "outputs": [],
      "payable": false,
      "stateMutability": "nonpayable",
      "type": "function"
    }
  ],
  "bytecode": "0x608060405234801561001057600080fd5b5060405160608061609d8339810180604052606081101561003057600080fd5b81019080805190602001909291908051906020019092919080519060200190929190505050826000806101000a81548173ffffffffffffffffffffffffffffffffffffffff021916908373ffffffffffffffffffffffffffffffffffffffff16021790555081600160006101000a81548173ffffffffffffffffffffffffffffffffffffffff021916908373ffffffffffffffffffffffffffffffffffffffff16021790555080600260006101000a81548173ffffffffffffffffffffffffffffffffffffffff021916908373ffffffffffffffffffffffffffffffffffffffff160217905550505050615f74806101296000396000f3fe60806040523480156200001157600080fd5b5060043610620000885760003560e01c806379049739116200006357806379049739146200021d578063af531a5e1462000348578063e8d94c00146200039b578063fa848b7e146200045a5762000088565b80632ec59b6e146200008d578063516e4c2a14620000e05780635d0eebea14620001d6575b600080fd5b620000de60048036036040811015620000a557600080fd5b81019080803573ffffffffffffffffffffffffffffffffffffffff1690602001909291908035151590602001909291905050506200050d565b005b6200017d60048036036040811015620000f857600080fd5b81019080803573ffffffffffffffffffffffffffffffffffffffff169060200190929190803590602001906401000000008111156200013657600080fd5b8201836020820111156200014957600080fd5b803590602001918460208302840111640100000000831117156200016c57600080fd5b909192939192939050505062000898565b6040518080602001828103825283818151815260200191508051906020019060200280838360005b83811015620001c2578082015181840152602081019050620001a5565b505050509050019250505060405180910390f35b6200021b60048036036020811015620001ee57600080fd5b81019080803573ffffffffffffffffffffffffffffffffffffffff16906020019092919050505062000d50565b005b62000346600480360360c08110156200023557600080fd5b81019080803573ffffffffffffffffffffffffffffffffffffffff1690602001909291908035906020019092919080359060200190929190803573ffffffffffffffffffffffffffffffffffffffff16906020019092919080359060200190640100000000811115620002a757600080fd5b820183602082011115620002ba57600080fd5b80359060200191846001830284011164010000000083111715620002dd57600080fd5b909192939192939080359060200190640100000000811115620002ff57600080fd5b8201836020820111156200031257600080fd5b803590602001918460018302840111640100000000831117156200033557600080fd5b909192939192939050505062000ec5565b005b62000399600480360360408110156200036057600080fd5b81019080803573ffffffffffffffffffffffffffffffffffffffff1690602001909291908035151590602001909291905050506200141d565b005b6200045860048036036060811015620003b357600080fd5b81019080803573ffffffffffffffffffffffffffffffffffffffff169060200190929190803573ffffffffffffffffffffffffffffffffffffffff169060200190929190803590602001906401000000008111156200041157600080fd5b8201836020820111156200042457600080fd5b803590602001918460018302840111640100000000831117156200044757600080fd5b90919293919293905050506200159b565b005b620004f7600480360360408110156200047257600080fd5b81019080803573ffffffffffffffffffffffffffffffffffffffff16906020019092919080359060200190640100000000811115620004b057600080fd5b820183602082011115620004c357600080fd5b80359060200191846001830284011164010000000083111715620004e657600080fd5b9091929391929390505050620017b2565b6040518082815260200191505060405180910390f35b8015620007a45760008060009054906101000a900473ffffffffffffffffffffffffffffffffffffffff1673ffffffffffffffffffffffffffffffffffffffff16636f77926b336040518263ffffffff1660e01b8152600401808273ffffffffffffffffffffffffffffffffffffffff1673ffffffffffffffffffffffffffffffffffffffff16815260200191505060206040518083038186803b158015620005b557600080fd5b505afa158015620005ca573d6000803e3d6000fd5b505050506040513d6020811015620005e157600080fd5b81019080805190602001909291905050509050600260009054906101000a900473ffffffffffffffffffffffffffffffffffffffff1673ffffffffffffffffffffffffffffffffffffffff1663a652629584336040518363ffffffff1660e01b8152600401808373ffffffffffffffffffffffffffffffffffffffff1673ffffffffffffffffffffffffffffffffffffffff1681526020018273ffffffffffffffffffffffffffffffffffffffff1673ffffffffffffffffffffffffffffffffffffffff1681526020019250505060206040518083038186803b158015620006c857600080fd5b505afa158015620006dd573d6000803e3d6000fd5b505050506040513d6020811015620006f457600080fd5b810190808051906020019092919050505073ffffffffffffffffffffffffffffffffffffffff1663cde596b2826040518263ffffffff1660e01b8152600401808273ffffffffffffffffffffffffffffffffffffffff1673ffffffffffffffffffffffffffffffffffffffff168152602001915050600060405180830381600087803b1580156200078457600080fd5b505af115801562000799573d6000803e3d6000fd5b505050505062000894565b600260009054906101000a900473ffffffffffffffffffffffffffffffffffffffff1673ffffffffffffffffffffffffffffffffffffffff1663365d4ce383336040518363ffffffff1660e01b8152600401808373ffffffffffffffffffffffffffffffffffffffff1673ffffffffffffffffffffffffffffffffffffffff1681526020018273ffffffffffffffffffffffffffffffffffffffff1673ffffffffffffffffffffffffffffffffffffffff16815260200192505050600060405180830381600087803b1580156200087a57600080fd5b505af11580156200088f573d6000803e3d6000fd5b505050505b5050565b6060620008e88433858580806020026020016040519081016040528093929190818152602001838360200280828437600081840152601f19601f8201169050808301925050505050505062001af4565b60038073__Set___________________________________63674a64ec90916040518263ffffffff1660e01b81526004018082815260200191505060206040518083038186803b1580156200093c57600080fd5b505af415801562000951573d6000803e3d6000fd5b505050506040513d60208110156200096857600080fd5b81019080805190602001909291905050501015620009ee576040517f08c379a000000000000000000000000000000000000000000000000000000000815260040180806020018281038252601f8152602001807f496e76616c6964204e756d626572206f66207472616465506172746e6572730081525060200191505060405180910390fd5b620009fa843362001dc3565b600260009054906101000a900473ffffffffffffffffffffffffffffffffffffffff1673ffffffffffffffffffffffffffffffffffffffff1663a652629585336040518363ffffffff1660e01b8152600401808373ffffffffffffffffffffffffffffffffffffffff1673ffffffffffffffffffffffffffffffffffffffff1681526020018273ffffffffffffffffffffffffffffffffffffffff1673ffffffffffffffffffffffffffffffffffffffff1681526020019250505060206040518083038186803b15801562000ace57600080fd5b505afa15801562000ae3573d6000803e3d6000fd5b505050506040513d602081101562000afa57600080fd5b810190808051906020019092919050505073ffffffffffffffffffffffffffffffffffffffff16636b64df14600373__Set___________________________________633d597e6c90916040518263ffffffff1660e01b81526004018082815260200191505060006040518083038186803b15801562000b7957600080fd5b505af415801562000b8e573d6000803e3d6000fd5b505050506040513d6000823e3d601f19601f82011682018060405250602081101562000bb957600080fd5b81019080805164010000000081111562000bd257600080fd5b8281019050602081018481111562000be957600080fd5b815185602082028301116401000000008211171562000c0757600080fd5b505092919050505060056040518363ffffffff1660e01b8152600401808060200180602001838103835285818151815260200191508051906020019060200280838360005b8381101562000c6957808201518184015260208101905062000c4c565b50505050905001838103825284818154815260200191508054801562000ce557602002820191906000526020600020905b8160009054906101000a900473ffffffffffffffffffffffffffffffffffffffff1673ffffffffffffffffffffffffffffffffffffffff168152602001906001019080831162000c9a575b5050945050505050600060405180830381600087803b15801562000d0857600080fd5b505af115801562000d1d573d6000803e3d6000fd5b505050506003600060018201600062000d37919062002408565b50506005600062000d49919062002408565b9392505050565b600260009054906101000a900473ffffffffffffffffffffffffffffffffffffffff1673ffffffffffffffffffffffffffffffffffffffff1663a652629582336040518363ffffffff1660e01b8152600401808373ffffffffffffffffffffffffffffffffffffffff1673ffffffffffffffffffffffffffffffffffffffff1681526020018273ffffffffffffffffffffffffffffffffffffffff1673ffffffffffffffffffffffffffffffffffffffff1681526020019250505060206040518083038186803b15801562000e2457600080fd5b505afa15801562000e39573d6000803e3d6000fd5b505050506040513d602081101562000e5057600080fd5b810190808051906020019092919050505073ffffffffffffffffffffffffffffffffffffffff1663ae70981f6040518163ffffffff1660e01b8152600401600060405180830381600087803b15801562000ea957600080fd5b505af115801562000ebe573d6000803e3d6000fd5b5050505050565b6060600160009054906101000a900473ffffffffffffffffffffffffffffffffffffffff1673ffffffffffffffffffffffffffffffffffffffff1663876cb1088a886040518363ffffffff1660e01b8152600401808373ffffffffffffffffffffffffffffffffffffffff1673ffffffffffffffffffffffffffffffffffffffff1681526020018273ffffffffffffffffffffffffffffffffffffffff1673ffffffffffffffffffffffffffffffffffffffff1681526020019250505060006040518083038186803b15801562000f9b57600080fd5b505afa15801562000fb0573d6000803e3d6000fd5b505050506040513d6000823e3d601f19601f82011682018060405250602081101562000fdb57600080fd5b81019080805164010000000081111562000ff457600080fd5b828101905060208101848111156200100b57600080fd5b81518560208202830111640100000000821117156200102957600080fd5b50509291905050509050600080905060008090505b825181101562001174578281815181106200105557fe5b602002602001015173ffffffffffffffffffffffffffffffffffffffff166315ca58548b8d8b8d6040518563ffffffff1660e01b8152600401808581526020018473ffffffffffffffffffffffffffffffffffffffff1673ffffffffffffffffffffffffffffffffffffffff1681526020018373ffffffffffffffffffffffffffffffffffffffff1673ffffffffffffffffffffffffffffffffffffffff16815260200182815260200194505050505060206040518083038186803b1580156200111e57600080fd5b505afa15801562001133573d6000803e3d6000fd5b505050506040513d60208110156200114a57600080fd5b8101908080519060200190929190505050156200116657600191505b80806001019150506200103e565b506001151581151514620011f0576040517f08c379a000000000000000000000000000000000000000000000000000000000815260040180806020018281038252601f8152602001807f54686973207472616e73616374696f6e20646f6573206e6f742065786973740081525060200191505060405180910390fd5b600260009054906101000a900473ffffffffffffffffffffffffffffffffffffffff1673ffffffffffffffffffffffffffffffffffffffff1663a65262958b336040518363ffffffff1660e01b8152600401808373ffffffffffffffffffffffffffffffffffffffff1673ffffffffffffffffffffffffffffffffffffffff1681526020018273ffffffffffffffffffffffffffffffffffffffff1673ffffffffffffffffffffffffffffffffffffffff1681526020019250505060206040518083038186803b158015620012c457600080fd5b505afa158015620012d9573d6000803e3d6000fd5b505050506040513d6020811015620012f057600080fd5b810190808051906020019092919050505073ffffffffffffffffffffffffffffffffffffffff166319e5fba08a898b8a8a8a8a6040518863ffffffff1660e01b8152600401808881526020018773ffffffffffffffffffffffffffffffffffffffff1673ffffffffffffffffffffffffffffffffffffffff16815260200186815260200180602001806020018381038352878782818152602001925080828437600081840152601f19601f8201169050808301925050508381038252858582818152602001925080828437600081840152601f19601f8201169050808301925050509950505050505050505050600060405180830381600087803b158015620013f857600080fd5b505af11580156200140d573d6000803e3d6000fd5b5050505050505050505050505050565b80156200159757600260009054906101000a900473ffffffffffffffffffffffffffffffffffffffff1673ffffffffffffffffffffffffffffffffffffffff1663a652629583336040518363ffffffff1660e01b8152600401808373ffffffffffffffffffffffffffffffffffffffff1673ffffffffffffffffffffffffffffffffffffffff1681526020018273ffffffffffffffffffffffffffffffffffffffff1673ffffffffffffffffffffffffffffffffffffffff1681526020019250505060206040518083038186803b158015620014f857600080fd5b505afa1580156200150d573d6000803e3d6000fd5b505050506040513d60208110156200152457600080fd5b810190808051906020019092919050505073ffffffffffffffffffffffffffffffffffffffff1663512b84266040518163ffffffff1660e01b8152600401600060405180830381600087803b1580156200157d57600080fd5b505af115801562001592573d6000803e3d6000fd5b505050505b5050565b600260009054906101000a900473ffffffffffffffffffffffffffffffffffffffff1673ffffffffffffffffffffffffffffffffffffffff1663a652629585336040518363ffffffff1660e01b8152600401808373ffffffffffffffffffffffffffffffffffffffff1673ffffffffffffffffffffffffffffffffffffffff1681526020018273ffffffffffffffffffffffffffffffffffffffff1673ffffffffffffffffffffffffffffffffffffffff1681526020019250505060206040518083038186803b1580156200166f57600080fd5b505afa15801562001684573d6000803e3d6000fd5b505050506040513d60208110156200169b57600080fd5b810190808051906020019092919050505073ffffffffffffffffffffffffffffffffffffffff1663e8d94c00858585856040518563ffffffff1660e01b8152600401808573ffffffffffffffffffffffffffffffffffffffff1673ffffffffffffffffffffffffffffffffffffffff1681526020018473ffffffffffffffffffffffffffffffffffffffff1673ffffffffffffffffffffffffffffffffffffffff168152602001806020018281038252848482818152602001925080828437600081840152601f19601f82011690508083019250505095505050505050600060405180830381600087803b1580156200179357600080fd5b505af1158015620017a8573d6000803e3d6000fd5b5050505050505050565b60003373ffffffffffffffffffffffffffffffffffffffff168473ffffffffffffffffffffffffffffffffffffffff1614156200183b576040517f08c379a000000000000000000000000000000000000000000000000000000000815260040180806020018281038252602181526020018062005f286021913960400191505060405180910390fd5b600073ffffffffffffffffffffffffffffffffffffffff168473ffffffffffffffffffffffffffffffffffffffff161415620018df576040517f08c379a00000000000000000000000000000000000000000000000000000000081526004018080602001828103825260168152602001807f5468657265206973206e6f206f6c644163636f756e740000000000000000000081525060200191505060405180910390fd5b6000620018ec8562002290565b90506000853386868560405162001903906200242b565b808673ffffffffffffffffffffffffffffffffffffffff1673ffffffffffffffffffffffffffffffffffffffff1681526020018573ffffffffffffffffffffffffffffffffffffffff1673ffffffffffffffffffffffffffffffffffffffff168152602001806020018381526020018281038252858582818152602001925080828437600081840152601f19601f8201169050808301925050509650505050505050604051809103906000f080158015620019c2573d6000803e3d6000fd5b509050600260009054906101000a900473ffffffffffffffffffffffffffffffffffffffff1673ffffffffffffffffffffffffffffffffffffffff16638af10ea78733846040518463ffffffff1660e01b8152600401808473ffffffffffffffffffffffffffffffffffffffff1673ffffffffffffffffffffffffffffffffffffffff1681526020018373ffffffffffffffffffffffffffffffffffffffff1673ffffffffffffffffffffffffffffffffffffffff1681526020018273ffffffffffffffffffffffffffffffffffffffff1673ffffffffffffffffffffffffffffffffffffffff1681526020019350505050600060405180830381600087803b15801562001acf57600080fd5b505af115801562001ae4573d6000803e3d6000fd5b5050505081925050509392505050565b60008090505b815181101562001dbd5781818151811062001b1157fe5b602002602001015173ffffffffffffffffffffffffffffffffffffffff168373ffffffffffffffffffffffffffffffffffffffff161462001daf576000600160009054906101000a900473ffffffffffffffffffffffffffffffffffffffff1673ffffffffffffffffffffffffffffffffffffffff1663876cb1088685858151811062001b9a57fe5b60200260200101516040518363ffffffff1660e01b8152600401808373ffffffffffffffffffffffffffffffffffffffff1673ffffffffffffffffffffffffffffffffffffffff1681526020018273ffffffffffffffffffffffffffffffffffffffff1673ffffffffffffffffffffffffffffffffffffffff1681526020019250505060006040518083038186803b15801562001c3657600080fd5b505afa15801562001c4b573d6000803e3d6000fd5b505050506040513d6000823e3d601f19601f82011682018060405250602081101562001c7657600080fd5b81019080805164010000000081111562001c8f57600080fd5b8281019050602081018481111562001ca657600080fd5b815185602082028301116401000000008211171562001cc457600080fd5b505092919050505051111562001dae57600373__Set___________________________________635df0a15c909184848151811062001cff57fe5b60200260200101516040518363ffffffff1660e01b8152600401808381526020018273ffffffffffffffffffffffffffffffffffffffff1673ffffffffffffffffffffffffffffffffffffffff1681526020019250505060206040518083038186803b15801562001d6f57600080fd5b505af415801562001d84573d6000803e3d6000fd5b505050506040513d602081101562001d9b57600080fd5b8101908080519060200190929190505050505b5b808060010191505062001afa565b50505050565b60606000809054906101000a900473ffffffffffffffffffffffffffffffffffffffff1673ffffffffffffffffffffffffffffffffffffffff1663a39fac126040518163ffffffff1660e01b815260040160006040518083038186803b15801562001e2d57600080fd5b505afa15801562001e42573d6000803e3d6000fd5b505050506040513d6000823e3d601f19601f82011682018060405250602081101562001e6d57600080fd5b81019080805164010000000081111562001e8657600080fd5b8281019050602081018481111562001e9d57600080fd5b815185602082028301116401000000008211171562001ebb57600080fd5b5050929190505050905060008090505b81518110156200220d5781818151811062001ee257fe5b602002602001015173ffffffffffffffffffffffffffffffffffffffff168373ffffffffffffffffffffffffffffffffffffffff1614620021ff576000600160009054906101000a900473ffffffffffffffffffffffffffffffffffffffff1673ffffffffffffffffffffffffffffffffffffffff1663876cb1088685858151811062001f6b57fe5b60200260200101516040518363ffffffff1660e01b8152600401808373ffffffffffffffffffffffffffffffffffffffff1673ffffffffffffffffffffffffffffffffffffffff1681526020018273ffffffffffffffffffffffffffffffffffffffff1673ffffffffffffffffffffffffffffffffffffffff1681526020019250505060006040518083038186803b1580156200200757600080fd5b505afa1580156200201c573d6000803e3d6000fd5b505050506040513d6000823e3d601f19601f8201168201806040525060208110156200204757600080fd5b8101908080516401000000008111156200206057600080fd5b828101905060208101848111156200207757600080fd5b81518560208202830111640100000000821117156200209557600080fd5b5050929190505050511115620021fe57600373__Set___________________________________63fe6949e39091848481518110620020d057fe5b60200260200101516040518363ffffffff1660e01b8152600401808381526020018273ffffffffffffffffffffffffffffffffffffffff1673ffffffffffffffffffffffffffffffffffffffff1681526020019250505060206040518083038186803b1580156200214057600080fd5b505af415801562002155573d6000803e3d6000fd5b505050506040513d60208110156200216c57600080fd5b8101908080519060200190929190505050620021fd5760058282815181106200219157fe5b602002602001015190806001815401808255809150509060018203906000526020600020016000909192909190916101000a81548173ffffffffffffffffffffffffffffffffffffffff021916908373ffffffffffffffffffffffffffffffffffffffff160217905550505b5b5b808060010191505062001ecb565b50600360058054905010156200228b576040517f08c379a00000000000000000000000000000000000000000000000000000000081526004018080602001828103825260208152602001807f496e76616c6964204e756d626572206f6620686176655472616465645769746881525060200191505060405180910390fd5b505050565b6000806000809054906101000a900473ffffffffffffffffffffffffffffffffffffffff1673ffffffffffffffffffffffffffffffffffffffff16636f77926b846040518263ffffffff1660e01b8152600401808273ffffffffffffffffffffffffffffffffffffffff1673ffffffffffffffffffffffffffffffffffffffff16815260200191505060206040518083038186803b1580156200233257600080fd5b505afa15801562002347573d6000803e3d6000fd5b505050506040513d60208110156200235e57600080fd5b810190808051906020019092919050505073ffffffffffffffffffffffffffffffffffffffff1663b69ef8a86040518163ffffffff1660e01b815260040160206040518083038186803b158015620023b557600080fd5b505afa158015620023ca573d6000803e3d6000fd5b505050506040513d6020811015620023e157600080fd5b8101908080519060200190929190505050905060148181620023ff57fe5b04915050919050565b508054600082559060005260206000209081019062002428919062002439565b50565b613ac6806200246283390190565b6200245e91905b808211156200245a57600081600090555060010162002440565b5090565b9056fe60806040526000600460006101000a81548173ffffffffffffffffffffffffffffffffffffffff021916908373ffffffffffffffffffffffffffffffffffffffff1602179055506000600960006101000a81548160ff021916908360ff1602179055506000600960016101000a81548160ff0219169083151502179055503480156200008a57600080fd5b5060405162003ac638038062003ac683398101806040526080811015620000b057600080fd5b8101908080519060200190929190805190602001909291908051640100000000811115620000dd57600080fd5b82810190506020810184811115620000f457600080fd5b81518560018202830111640100000000821117156200011257600080fd5b50509291906020018051906020019092919050505083600560006101000a81548173ffffffffffffffffffffffffffffffffffffffff021916908373ffffffffffffffffffffffffffffffffffffffff16021790555082600660006101000a81548173ffffffffffffffffffffffffffffffffffffffff021916908373ffffffffffffffffffffffffffffffffffffffff1602179055508160079080519060200190620001c1929190620001d3565b50806008819055505050505062000282565b828054600181600116156101000203166002900490600052602060002090601f016020900481019282601f106200021657805160ff191683800117855562000247565b8280016001018555821562000247579182015b828111156200024657825182559160200191906001019062000229565b5b5090506200025691906200025a565b5090565b6200027f91905b808211156200027b57600081600090555060010162000261565b5090565b90565b61383480620002926000396000f3fe60806040523480156200001157600080fd5b5060043610620000b85760003560e01c8063ae70981f116200007b578063ae70981f1462000356578063cde596b21462000362578063e628c2e014620003a9578063e8d94c00146200047b578063f91ac899146200053a578063fa041dd7146200067657620000b8565b80630d2cea2c14620000bd57806319e5fba0146200011c578063512b842614620002275780636b64df1414620002335780638db5d0d2146200030a575b600080fd5b6200010260048036036020811015620000d557600080fd5b81019080803573ffffffffffffffffffffffffffffffffffffffff169060200190929190505050620006c9565b604051808215151515815260200191505060405180910390f35b62000225600480360360a08110156200013457600080fd5b8101908080359060200190929190803573ffffffffffffffffffffffffffffffffffffffff16906020019092919080359060200190929190803590602001906401000000008111156200018657600080fd5b8201836020820111156200019957600080fd5b80359060200191846001830284011164010000000083111715620001bc57600080fd5b909192939192939080359060200190640100000000811115620001de57600080fd5b820183602082011115620001f157600080fd5b803590602001918460018302840111640100000000831117156200021457600080fd5b909192939192939050505062000bd9565b005b6200023162000d5b565b005b62000308600480360360408110156200024b57600080fd5b81019080803590602001906401000000008111156200026957600080fd5b8201836020820111156200027c57600080fd5b803590602001918460208302840111640100000000831117156200029f57600080fd5b909192939192939080359060200190640100000000811115620002c157600080fd5b820183602082011115620002d457600080fd5b80359060200191846020830284011164010000000083111715620002f757600080fd5b909192939192939050505062001046565b005b62000314620011dd565b604051808273ffffffffffffffffffffffffffffffffffffffff1673ffffffffffffffffffffffffffffffffffffffff16815260200191505060405180910390f35b62000360620012b0565b005b620003a7600480360360208110156200037a57600080fd5b81019080803573ffffffffffffffffffffffffffffffffffffffff169060200190929190505050620014be565b005b620003f860048036036040811015620003c157600080fd5b81019080803573ffffffffffffffffffffffffffffffffffffffff169060200190929190803590602001909291905050506200162b565b604051808581526020018481526020018373ffffffffffffffffffffffffffffffffffffffff1673ffffffffffffffffffffffffffffffffffffffff1681526020018273ffffffffffffffffffffffffffffffffffffffff1673ffffffffffffffffffffffffffffffffffffffff16815260200194505050505060405180910390f35b62000538600480360360608110156200049357600080fd5b81019080803573ffffffffffffffffffffffffffffffffffffffff169060200190929190803573ffffffffffffffffffffffffffffffffffffffff16906020019092919080359060200190640100000000811115620004f157600080fd5b8201836020820111156200050457600080fd5b803590602001918460018302840111640100000000831117156200052757600080fd5b909192939192939050505062001757565b005b62000589600480360360408110156200055257600080fd5b81019080803573ffffffffffffffffffffffffffffffffffffffff1690602001909291908035906020019092919050505062001b5a565b604051808060200180602001838103835285818151815260200191508051906020019080838360005b83811015620005cf578082015181840152602081019050620005b2565b50505050905090810190601f168015620005fd5780820380516001836020036101000a031916815260200191505b50838103825284818151815260200191508051906020019080838360005b83811015620006385780820151818401526020810190506200061b565b50505050905090810190601f168015620006665780820380516001836020036101000a031916815260200191505b5094505050505060405180910390f35b620006c7600480360360408110156200068e57600080fd5b81019080803573ffffffffffffffffffffffffffffffffffffffff16906020019092919080351515906020019092919050505062001d0a565b005b6000620006d562001e1b565b60006042620006e362002070565b6064620006ef620022c3565b0281620006f857fe5b041015905060008090505b600173__Set___________________________________63674a64ec90916040518263ffffffff1660e01b81526004018082815260200191505060206040518083038186803b1580156200075657600080fd5b505af41580156200076b573d6000803e3d6000fd5b505050506040513d60208110156200078257600080fd5b810190808051906020019092919050505081101562000bcf576000806000600173__Set___________________________________63df763a9d9091866040518363ffffffff1660e01b8152600401808381526020018281526020019250505060206040518083038186803b158015620007fb57600080fd5b505af415801562000810573d6000803e3d6000fd5b505050506040513d60208110156200082757600080fd5b810190808051906020019092919050505073ffffffffffffffffffffffffffffffffffffffff1673ffffffffffffffffffffffffffffffffffffffff16815260200190815260200160002060009054906101000a900473ffffffffffffffffffffffffffffffffffffffff1690508073ffffffffffffffffffffffffffffffffffffffff16632f2a18ff6040518163ffffffff1660e01b815260040160206040518083038186803b158015620008dc57600080fd5b505afa158015620008f1573d6000803e3d6000fd5b505050506040513d60208110156200090857600080fd5b81019080805190602001909291905050501562000bc05760006200092b62002070565b6002600854816200093857fe5b04816200094157fe5b0490508315158273ffffffffffffffffffffffffffffffffffffffff166319900a806040518163ffffffff1660e01b815260040160206040518083038186803b1580156200098e57600080fd5b505afa158015620009a3573d6000803e3d6000fd5b505050506040513d6020811015620009ba57600080fd5b810190808051906020019092919050505015151415620009fa57620009de620022c3565b600260085481620009eb57fe5b0481620009f457fe5b04810190505b60008673ffffffffffffffffffffffffffffffffffffffff16636f77926b600173__Set___________________________________63df763a9d9091886040518363ffffffff1660e01b8152600401808381526020018281526020019250505060206040518083038186803b15801562000a7357600080fd5b505af415801562000a88573d6000803e3d6000fd5b505050506040513d602081101562000a9f57600080fd5b81019080805190602001909291905050506040518263ffffffff1660e01b8152600401808273ffffffffffffffffffffffffffffffffffffffff1673ffffffffffffffffffffffffffffffffffffffff16815260200191505060206040518083038186803b15801562000b1157600080fd5b505afa15801562000b26573d6000803e3d6000fd5b505050506040513d602081101562000b3d57600080fd5b810190808051906020019092919050505090508073ffffffffffffffffffffffffffffffffffffffff16633e4ccb40836040518263ffffffff1660e01b815260040180828152602001915050600060405180830381600087803b15801562000ba457600080fd5b505af115801562000bb9573d6000803e3d6000fd5b5050505050505b50808060010191505062000703565b5080915050919050565b62000be362001e1b565b6000808773ffffffffffffffffffffffffffffffffffffffff1673ffffffffffffffffffffffffffffffffffffffff16815260200190815260200160002060009054906101000a900473ffffffffffffffffffffffffffffffffffffffff1673ffffffffffffffffffffffffffffffffffffffff166319e5fba0888888888888886040518863ffffffff1660e01b8152600401808881526020018773ffffffffffffffffffffffffffffffffffffffff1673ffffffffffffffffffffffffffffffffffffffff16815260200186815260200180602001806020018381038352878782818152602001925080828437600081840152601f19601f8201169050808301925050508381038252858582818152602001925080828437600081840152601f19601f8201169050808301925050509950505050505050505050600060405180830381600087803b15801562000d3957600080fd5b505af115801562000d4e573d6000803e3d6000fd5b5050505050505050505050565b60011515600960019054906101000a900460ff1615151462000dc9576040517f08c379a00000000000000000000000000000000000000000000000000000000081526004018080602001828103825260278152602001806200378d6027913960400191505060405180910390fd5b6000600173__Set___________________________________63674a64ec90916040518263ffffffff1660e01b81526004018082815260200191505060206040518083038186803b15801562000e1e57600080fd5b505af415801562000e33573d6000803e3d6000fd5b505050506040513d602081101562000e4a57600080fd5b81019080805190602001909291905050501162000eb3576040517f08c379a00000000000000000000000000000000000000000000000000000000081526004018080602001828103825260378152602001806200372b6037913960400191505060405180910390fd5b600073ffffffffffffffffffffffffffffffffffffffff16600460009054906101000a900473ffffffffffffffffffffffffffffffffffffffff1673ffffffffffffffffffffffffffffffffffffffff16141562000f5d576040517f08c379a000000000000000000000000000000000000000000000000000000000815260040180806020018281038252602b81526020018062003762602b913960400191505060405180910390fd5b600173__Set___________________________________635df0a15c9091600460009054906101000a900473ffffffffffffffffffffffffffffffffffffffff166040518363ffffffff1660e01b8152600401808381526020018273ffffffffffffffffffffffffffffffffffffffff1673ffffffffffffffffffffffffffffffffffffffff1681526020019250505060206040518083038186803b1580156200100657600080fd5b505af41580156200101b573d6000803e3d6000fd5b505050506040513d60208110156200103257600080fd5b810190808051906020019092919050505050565b60011515600960019054906101000a900460ff16151514620010b4576040517f08c379a00000000000000000000000000000000000000000000000000000000081526004018080602001828103825260278152602001806200378d6027913960400191505060405180910390fd5b60008090505b84849050811015620011c257600173__Set___________________________________635df0a15c9091878785818110620010f157fe5b9050602002013573ffffffffffffffffffffffffffffffffffffffff166040518363ffffffff1660e01b8152600401808381526020018273ffffffffffffffffffffffffffffffffffffffff1673ffffffffffffffffffffffffffffffffffffffff1681526020019250505060206040518083038186803b1580156200117657600080fd5b505af41580156200118b573d6000803e3d6000fd5b505050506040513d6020811015620011a257600080fd5b8101908080519060200190929190505050508080600101915050620010ba565b50818160039190620011d692919062002593565b5050505050565b60008073ffffffffffffffffffffffffffffffffffffffff16600460009054906101000a900473ffffffffffffffffffffffffffffffffffffffff1673ffffffffffffffffffffffffffffffffffffffff16141562001288576040517f08c379a000000000000000000000000000000000000000000000000000000000815260040180806020018281038252602c815260200180620037dd602c913960400191505060405180910390fd5b600460009054906101000a900473ffffffffffffffffffffffffffffffffffffffff16905090565b60011515600960019054906101000a900460ff161515146200131e576040517f08c379a00000000000000000000000000000000000000000000000000000000081526004018080602001828103825260278152602001806200378d6027913960400191505060405180910390fd5b6000600173__Set___________________________________63674a64ec90916040518263ffffffff1660e01b81526004018082815260200191505060206040518083038186803b1580156200137357600080fd5b505af415801562001388573d6000803e3d6000fd5b505050506040513d60208110156200139f57600080fd5b81019080805190602001909291905050501162001408576040517f08c379a00000000000000000000000000000000000000000000000000000000081526004018080602001828103825260378152602001806200372b6037913960400191505060405180910390fd5b60006200143d600460009054906101000a900473ffffffffffffffffffffffffffffffffffffffff1660038054905062002516565b60ff169050600381815481106200145057fe5b9060005260206000200160009054906101000a900473ffffffffffffffffffffffffffffffffffffffff16600460006101000a81548173ffffffffffffffffffffffffffffffffffffffff021916908373ffffffffffffffffffffffffffffffffffffffff16021790555050565b6008548173ffffffffffffffffffffffffffffffffffffffff1663b69ef8a86040518163ffffffff1660e01b815260040160206040518083038186803b1580156200150857600080fd5b505afa1580156200151d573d6000803e3d6000fd5b505050506040513d60208110156200153457600080fd5b810190808051906020019092919050505010156200159e576040517f08c379a0000000000000000000000000000000000000000000000000000000008152600401808060200182810382526022815260200180620037096022913960400191505060405180910390fd5b8073ffffffffffffffffffffffffffffffffffffffff1663392aee436008546040518263ffffffff1660e01b815260040180828152602001915050600060405180830381600087803b158015620015f457600080fd5b505af115801562001609573d6000803e3d6000fd5b505050506001600960016101000a81548160ff02191690831515021790555050565b6000806000806200163b62001e1b565b6000808773ffffffffffffffffffffffffffffffffffffffff1673ffffffffffffffffffffffffffffffffffffffff16815260200190815260200160002060009054906101000a900473ffffffffffffffffffffffffffffffffffffffff1673ffffffffffffffffffffffffffffffffffffffff16634ba569a4866040518263ffffffff1660e01b81526004018082815260200191505060806040518083038186803b158015620016eb57600080fd5b505afa15801562001700573d6000803e3d6000fd5b505050506040513d60808110156200171757600080fd5b8101908080519060200190929190805190602001909291908051906020019092919080519060200190929190505050935093509350935092959194509250565b60011515600960019054906101000a900460ff16151514620017c5576040517f08c379a00000000000000000000000000000000000000000000000000000000081526004018080602001828103825260278152602001806200378d6027913960400191505060405180910390fd5b6000600173__Set___________________________________63674a64ec90916040518263ffffffff1660e01b81526004018082815260200191505060206040518083038186803b1580156200181a57600080fd5b505af41580156200182f573d6000803e3d6000fd5b505050506040513d60208110156200184657600080fd5b810190808051906020019092919050505011620018af576040517f08c379a00000000000000000000000000000000000000000000000000000000081526004018080602001828103825260378152602001806200372b6037913960400191505060405180910390fd5b600173__Set___________________________________63fe6949e39091856040518363ffffffff1660e01b8152600401808381526020018273ffffffffffffffffffffffffffffffffffffffff1673ffffffffffffffffffffffffffffffffffffffff1681526020019250505060206040518083038186803b1580156200193657600080fd5b505af41580156200194b573d6000803e3d6000fd5b505050506040513d60208110156200196257600080fd5b81019080805190602001909291905050501562001af357838383836040516200198b9062002638565b808573ffffffffffffffffffffffffffffffffffffffff1673ffffffffffffffffffffffffffffffffffffffff1681526020018473ffffffffffffffffffffffffffffffffffffffff1673ffffffffffffffffffffffffffffffffffffffff168152602001806020018281038252848482818152602001925080828437600081840152601f19601f82011690508083019250505095505050505050604051809103906000f08015801562001a43573d6000803e3d6000fd5b506000808573ffffffffffffffffffffffffffffffffffffffff1673ffffffffffffffffffffffffffffffffffffffff16815260200190815260200160002060006101000a81548173ffffffffffffffffffffffffffffffffffffffff021916908373ffffffffffffffffffffffffffffffffffffffff1602179055506009600081819054906101000a900460ff168092919060010191906101000a81548160ff021916908360ff160217905550505b6001151560011515141562001b54576040517f08c379a0000000000000000000000000000000000000000000000000000000008152600401808060200182810382526029815260200180620037b46029913960400191505060405180910390fd5b50505050565b60608062001b6762001e1b565b6000808573ffffffffffffffffffffffffffffffffffffffff1673ffffffffffffffffffffffffffffffffffffffff16815260200190815260200160002060009054906101000a900473ffffffffffffffffffffffffffffffffffffffff1673ffffffffffffffffffffffffffffffffffffffff16637bd1eb3c846040518263ffffffff1660e01b81526004018082815260200191505060006040518083038186803b15801562001c1757600080fd5b505afa15801562001c2c573d6000803e3d6000fd5b505050506040513d6000823e3d601f19601f82011682018060405250604081101562001c5757600080fd5b81019080805164010000000081111562001c7057600080fd5b8281019050602081018481111562001c8757600080fd5b815185600182028301116401000000008211171562001ca557600080fd5b5050929190602001805164010000000081111562001cc257600080fd5b8281019050602081018481111562001cd957600080fd5b815185600182028301116401000000008211171562001cf757600080fd5b5050929190505050915091509250929050565b62001d1462001e1b565b6000808373ffffffffffffffffffffffffffffffffffffffff1673ffffffffffffffffffffffffffffffffffffffff16815260200190815260200160002060009054906101000a900473ffffffffffffffffffffffffffffffffffffffff1673ffffffffffffffffffffffffffffffffffffffff1663fa041dd783836040518363ffffffff1660e01b8152600401808373ffffffffffffffffffffffffffffffffffffffff1673ffffffffffffffffffffffffffffffffffffffff1681526020018215151515815260200192505050600060405180830381600087803b15801562001dfe57600080fd5b505af115801562001e13573d6000803e3d6000fd5b505050505050565b60011515600960019054906101000a900460ff1615151462001e89576040517f08c379a00000000000000000000000000000000000000000000000000000000081526004018080602001828103825260278152602001806200378d6027913960400191505060405180910390fd5b6000600173__Set___________________________________63674a64ec90916040518263ffffffff1660e01b81526004018082815260200191505060206040518083038186803b15801562001ede57600080fd5b505af415801562001ef3573d6000803e3d6000fd5b505050506040513d602081101562001f0a57600080fd5b81019080805190602001909291905050501162001f73576040517f08c379a00000000000000000000000000000000000000000000000000000000081526004018080602001828103825260378152602001806200372b6037913960400191505060405180910390fd5b600173__Set___________________________________63674a64ec90916040518263ffffffff1660e01b81526004018082815260200191505060206040518083038186803b15801562001fc657600080fd5b505af415801562001fdb573d6000803e3d6000fd5b505050506040513d602081101562001ff257600080fd5b8101908080519060200190929190505050600960009054906101000a900460ff1660ff16146200206e576040517f08c379a0000000000000000000000000000000000000000000000000000000008152600401808060200182810382526025815260200180620036e46025913960400191505060405180910390fd5b565b60006200207c62001e1b565b600080905060008090505b600173__Set___________________________________63674a64ec90916040518263ffffffff1660e01b81526004018082815260200191505060206040518083038186803b158015620020da57600080fd5b505af4158015620020ef573d6000803e3d6000fd5b505050506040513d60208110156200210657600080fd5b8101908080519060200190929190505050811015620022bb576000806000600173__Set___________________________________63df763a9d9091866040518363ffffffff1660e01b8152600401808381526020018281526020019250505060206040518083038186803b1580156200217f57600080fd5b505af415801562002194573d6000803e3d6000fd5b505050506040513d6020811015620021ab57600080fd5b810190808051906020019092919050505073ffffffffffffffffffffffffffffffffffffffff1673ffffffffffffffffffffffffffffffffffffffff16815260200190815260200160002060009054906101000a900473ffffffffffffffffffffffffffffffffffffffff1690508073ffffffffffffffffffffffffffffffffffffffff16632f2a18ff6040518163ffffffff1660e01b815260040160206040518083038186803b1580156200226057600080fd5b505afa15801562002275573d6000803e3d6000fd5b505050506040513d60208110156200228c57600080fd5b810190808051906020019092919050505015620022ac5782806001019350505b50808060010191505062002087565b508091505090565b6000620022cf62001e1b565b600080905060008090505b600173__Set___________________________________63674a64ec90916040518263ffffffff1660e01b81526004018082815260200191505060206040518083038186803b1580156200232d57600080fd5b505af415801562002342573d6000803e3d6000fd5b505050506040513d60208110156200235957600080fd5b81019080805190602001909291905050508110156200250e576000806000600173__Set___________________________________63df763a9d9091866040518363ffffffff1660e01b8152600401808381526020018281526020019250505060206040518083038186803b158015620023d257600080fd5b505af4158015620023e7573d6000803e3d6000fd5b505050506040513d6020811015620023fe57600080fd5b810190808051906020019092919050505073ffffffffffffffffffffffffffffffffffffffff1673ffffffffffffffffffffffffffffffffffffffff16815260200190815260200160002060009054906101000a900473ffffffffffffffffffffffffffffffffffffffff1690508073ffffffffffffffffffffffffffffffffffffffff166319900a806040518163ffffffff1660e01b815260040160206040518083038186803b158015620024b357600080fd5b505afa158015620024c8573d6000803e3d6000fd5b505050506040513d6020811015620024df57600080fd5b810190808051906020019092919050505015620024ff5782806001019350505b508080600101915050620022da565b508091505090565b600081424485604051602001808481526020018381526020018273ffffffffffffffffffffffffffffffffffffffff1673ffffffffffffffffffffffffffffffffffffffff1660601b815260140193505050506040516020818303038152906040528051906020012060001c816200258a57fe5b06905092915050565b82805482825590600052602060002090810192821562002625579160200282015b828111156200262457823573ffffffffffffffffffffffffffffffffffffffff168260006101000a81548173ffffffffffffffffffffffffffffffffffffffff021916908373ffffffffffffffffffffffffffffffffffffffff16021790555091602001919060010190620025b4565b5b50905062002634919062002646565b5090565b611057806200268d83390190565b6200268991905b808211156200268557600081816101000a81549073ffffffffffffffffffffffffffffffffffffffff0219169055506001016200264d565b5090565b9056fe60806040523480156200001157600080fd5b506040516200105738038062001057833981018060405260608110156200003757600080fd5b81019080805190602001909291908051906020019092919080516401000000008111156200006457600080fd5b828101905060208101848111156200007b57600080fd5b81518560018202830111640100000000821117156200009957600080fd5b505092919050505081600360006101000a81548173ffffffffffffffffffffffffffffffffffffffff021916908373ffffffffffffffffffffffffffffffffffffffff16021790555082600260006101000a81548173ffffffffffffffffffffffffffffffffffffffff021916908373ffffffffffffffffffffffffffffffffffffffff1602179055506000600360146101000a81548160ff02191690831515021790555060016000806101000a81548160ff0219169083151502179055506000600360156101000a81548160ff02191690831515021790555080600190805190602001906200018b92919062000195565b5050505062000244565b828054600181600116156101000203166002900490600052602060002090601f016020900481019282601f10620001d857805160ff191683800117855562000209565b8280016001018555821562000209579182015b8281111562000208578251825591602001919060010190620001eb565b5b5090506200021891906200021c565b5090565b6200024191905b808211156200023d57600081600090555060010162000223565b5090565b90565b610e0380620002546000396000f3fe608060405234801561001057600080fd5b506004361061007d5760003560e01c80632f2a18ff1161005b5780632f2a18ff146101c85780634ba569a4146101ea5780637bd1eb3c14610299578063fa041dd7146103ac5761007d565b806319900a801461008257806319e5fba0146100a4578063267c4ae4146101a6575b600080fd5b61008a6103fc565b604051808215151515815260200191505060405180910390f35b6101a4600480360360a08110156100ba57600080fd5b8101908080359060200190929190803573ffffffffffffffffffffffffffffffffffffffff169060200190929190803590602001909291908035906020019064010000000081111561010b57600080fd5b82018360208201111561011d57600080fd5b8035906020019184600183028401116401000000008311171561013f57600080fd5b90919293919293908035906020019064010000000081111561016057600080fd5b82018360208201111561017257600080fd5b8035906020019184600183028401116401000000008311171561019457600080fd5b9091929391929390505050610442565b005b6101ae6106e2565b604051808215151515815260200191505060405180910390f35b6101d06106f4565b604051808215151515815260200191505060405180910390f35b6102166004803603602081101561020057600080fd5b8101908080359060200190929190505050610722565b604051808581526020018481526020018373ffffffffffffffffffffffffffffffffffffffff1673ffffffffffffffffffffffffffffffffffffffff1681526020018273ffffffffffffffffffffffffffffffffffffffff1673ffffffffffffffffffffffffffffffffffffffff16815260200194505050505060405180910390f35b6102c5600480360360208110156102af57600080fd5b8101908080359060200190929190505050610851565b604051808060200180602001838103835285818151815260200191508051906020019080838360005b838110156103095780820151818401526020810190506102ee565b50505050905090810190601f1680156103365780820380516001836020036101000a031916815260200191505b50838103825284818151815260200191508051906020019080838360005b8381101561036f578082015181840152602081019050610354565b50505050905090810190601f16801561039c5780820380516001836020036101000a031916815260200191505b5094505050505060405180910390f35b6103fa600480360360408110156103c257600080fd5b81019080803573ffffffffffffffffffffffffffffffffffffffff169060200190929190803515159060200190929190505050610a2f565b005b60008060009054906101000a900460ff1680156104255750600360159054906101000a900460ff165b801561043d5750600360149054906101000a900460ff165b905090565b600115156000809054906101000a900460ff161515146104ca576040517f08c379a00000000000000000000000000000000000000000000000000000000081526004018080602001828103825260198152602001807f5468697320766f74657220646f6573206e6f742065786973740000000000000081525060200191505060405180910390fd5b60046040518060c00160405280898152602001600260009054906101000a900473ffffffffffffffffffffffffffffffffffffffff1673ffffffffffffffffffffffffffffffffffffffff1681526020018873ffffffffffffffffffffffffffffffffffffffff16815260200187815260200186868080601f016020809104026020016040519081016040528093929190818152602001838380828437600081840152601f19601f82011690508083019250505050505050815260200184848080601f016020809104026020016040519081016040528093929190818152602001838380828437600081840152601f19601f82011690508083019250505050505050815250908060018154018082558091505090600182039060005260206000209060060201600090919290919091506000820151816000015560208201518160010160006101000a81548173ffffffffffffffffffffffffffffffffffffffff021916908373ffffffffffffffffffffffffffffffffffffffff16021790555060408201518160020160006101000a81548173ffffffffffffffffffffffffffffffffffffffff021916908373ffffffffffffffffffffffffffffffffffffffff1602179055506060820151816003015560808201518160040190805190602001906106b8929190610d0e565b5060a08201518160050190805190602001906106d5929190610d0e565b5050505050505050505050565b6000809054906101000a900460ff1681565b60008060009054906101000a900460ff16801561071d5750600360159054906101000a900460ff165b905090565b600080600080600060048054905011610786576040517f08c379a0000000000000000000000000000000000000000000000000000000008152600401808060200182810382526024815260200180610db46024913960400191505060405180910390fd5b6004858154811061079357fe5b906000526020600020906006020160000154600486815481106107b257fe5b906000526020600020906006020160030154600487815481106107d157fe5b906000526020600020906006020160010160009054906101000a900473ffffffffffffffffffffffffffffffffffffffff166004888154811061081057fe5b906000526020600020906006020160020160009054906101000a900473ffffffffffffffffffffffffffffffffffffffff1693509350935093509193509193565b6060806000600480549050116108b2576040517f08c379a0000000000000000000000000000000000000000000000000000000008152600401808060200182810382526024815260200180610db46024913960400191505060405180910390fd5b600483815481106108bf57fe5b9060005260206000209060060201600401600484815481106108dd57fe5b9060005260206000209060060201600501818054600181600116156101000203166002900480601f0160208091040260200160405190810160405280929190818152602001828054600181600116156101000203166002900480156109835780601f1061095857610100808354040283529160200191610983565b820191906000526020600020905b81548152906001019060200180831161096657829003601f168201915b50505050509150808054600181600116156101000203166002900480601f016020809104026020016040519081016040528092919081815260200182805460018160011615610100020316600290048015610a1f5780601f106109f457610100808354040283529160200191610a1f565b820191906000526020600020905b815481529060010190602001808311610a0257829003601f168201915b5050505050905091509150915091565b600115156000809054906101000a900460ff16151514610ab7576040517f08c379a00000000000000000000000000000000000000000000000000000000081526004018080602001828103825260198152602001807f5468697320766f74657220646f6573206e6f742065786973740000000000000081525060200191505060405180910390fd5b8173ffffffffffffffffffffffffffffffffffffffff16600360009054906101000a900473ffffffffffffffffffffffffffffffffffffffff1673ffffffffffffffffffffffffffffffffffffffff1614610b7a576040517f08c379a00000000000000000000000000000000000000000000000000000000081526004018080602001828103825260198152602001807f53656e742066726f6d207468652077726f6e6720766f7465720000000000000081525060200191505060405180910390fd5b600060048054905011610bd8576040517f08c379a0000000000000000000000000000000000000000000000000000000008152600401808060200182810382526024815260200180610db46024913960400191505060405180910390fd5b60001515600360159054906101000a900460ff16151514610c61576040517f08c379a000000000000000000000000000000000000000000000000000000000815260040180806020018281038252600d8152602001807f416c726561647920566f7465640000000000000000000000000000000000000081525060200191505060405180910390fd5b80600360146101000a81548160ff0219169083151502179055506001600360156101000a81548160ff021916908315150217905550600360009054906101000a900473ffffffffffffffffffffffffffffffffffffffff1673ffffffffffffffffffffffffffffffffffffffff167fa635d31e67484fd1d93ba01ab0ef882e4440a78aa40d0e2771e8a2aace45986982604051808215151515815260200191505060405180910390a25050565b828054600181600116156101000203166002900490600052602060002090601f016020900481019282601f10610d4f57805160ff1916838001178555610d7d565b82800160010185558215610d7d579182015b82811115610d7c578251825591602001919060010190610d61565b5b509050610d8a9190610d8e565b5090565b610db091905b80821115610dac576000816000905550600101610d94565b5090565b9056fe5468657265206973206e6f207472616e73616374696f6e206461746120746f2076696577a165627a7a7230582004ac15597e270cd62b97c4e08fc19f72ba4287c1bca593a8fafe109e4525e033002948617665206e6f74206372656174656420616c6c2074686520566f74696e67546f6b656e734e6f7420456e6f7567682066756e647320666f7220746869732050726f706f73616c547261646520706172746e6572732068617665206e6f74206265656e20616464656420746f2074686973207965742070726f706f73616c4861766520746f2066696e6420612072616e646f6d2074726164696e6720706172746e6572206669727374546869732070726f706f73616c20686173206e6f74206265656e207061696420666f7220796574496e76616c696420566f7465722e2043616e206e6f74206d616b65206120566f74696e67546f6b656e596f752068617665206e6f7420666f756e6420612072616e646f6d207472616520706172746e657220796574a165627a7a723058203d2433be78a4839d4957998de5b376d97caafd7fc8a1a31bdabc2beffdf4c4590029416e206163636f756e742063616e206e6f74207265636f76657220697473656c66a165627a7a7230582069bd9e443713dcd8d17224d6c08516cb8a93d1f9799455cb457d2e96234a189c0029",
  "source": "/* ProposalCreator.sol */\r\n\r\npragma solidity >=0.4.0 <0.7.0;\r\n\r\nimport \"../contracts/UserManager.sol\";\r\nimport \"../contracts/TransactionManager.sol\";\r\nimport \"../contracts/ProposalManager.sol\";\r\n\r\nimport \"../contracts/Proposal.sol\";\r\n\r\nimport \"../contracts/Set.sol\";\r\n\r\n/* <Summary> \r\n\tThis contract manages all active proposal as well as makes and concludes proposals.\r\n*/\r\n\r\ncontract ProposalCreator {\r\n\tusing Set for Set.Data;\r\n\r\n\tUserManager UserManagerInstance;\t\t\t\t// Connects to the list of users on the network\r\n\tTransactionManager TransactionManagerInstance;\t// Connects to the transaction data on the network\r\n\r\n\tProposalManager PMI;\t// Connects to the transaction data on the network\r\n\r\n\t// These arrays are used when creating Proposals. Needed to be on storage to use .push()\r\n\tSet.Data tradePartners;\t\t\t\t\t\t\t// List of trade partners indicated by the new account\r\n\taddress[] haveTradedWith;\r\n\r\n\t// Used to originally deploy the contract\r\n\tconstructor(address UserManagerAddress, address TransactionManagerAddress, address ProposalManagerAddress) public {\r\n\t\tUserManagerInstance = UserManager(UserManagerAddress);\r\n\t\tTransactionManagerInstance = TransactionManager(TransactionManagerAddress);\r\n\t\tPMI = ProposalManager(ProposalManagerAddress);\r\n\t}\r\n\t\r\n\tfunction StartProposal(address _oldAccount, string calldata _description) external returns (uint) {\r\n\t\trequire(_oldAccount != msg.sender, \"An account can not recover itself\");\r\n\t\trequire(_oldAccount != 0x0000000000000000000000000000000000000000, \"There is no oldAccount\");\r\n\t\t//require(activeProposals[_oldAccount][msg.sender].length == 0, \"There already exists a Proposal for this account\");\r\n\r\n\t\tuint price = CalculatePrice(_oldAccount);\t\t\t// Calculates the price of the account recovery\r\n\r\n\t\t// Creates Proposal and adds it to the active proposal map\r\n\t\tProposal temp = new Proposal(_oldAccount, msg.sender, _description, price);\r\n\r\n\t\tPMI.AddActiveProposal(_oldAccount, msg.sender, temp);\t\t// Deletes proposal\r\n\t\treturn price;\r\n\t}\r\n\r\n\tfunction Pay(address _oldAccount, bool _pay) external {\r\n\t\tif (_pay){\r\n\t\t\tPerson newAccount = UserManagerInstance.getUser(msg.sender); // Finds the person in the network\r\n\t\t\tPMI.getActiveProposal(_oldAccount, msg.sender).Pay(newAccount);\r\n\t\t}else{\r\n\t\t\tPMI.RemoveActiveProposal(_oldAccount, msg.sender);\t\t// Deletes proposal\r\n\t\t}\r\n\t}\r\n\r\n\tfunction AddTradePartners(address _oldAccount, address[] calldata _tradePartners) external returns(address[] memory){\r\n\t\tFindtradePartners(_oldAccount, msg.sender, _tradePartners); // Checks if indicated partners have transactions \t\t\r\n\t\trequire(tradePartners.getValuesLength() >= 3, \"Invalid Number of tradePartners\");\r\n\r\n\t\tFindOtherAddresses(_oldAccount, msg.sender);\t\t\t// Finds other trade partners to quiz\r\n\r\n\t\t// Creates Proposal and adds it to the active proposal map\r\n\t\tPMI.getActiveProposal(_oldAccount, msg.sender).AddTradePartners(tradePartners.getValues(), haveTradedWith);\r\n\r\n\t\tdelete tradePartners;\r\n\t\tdelete haveTradedWith;\r\n\t}\r\n\r\n\tfunction FindRandomTradingPartner(address _oldAccount) external {\r\n\t\tPMI.getActiveProposal(_oldAccount, msg.sender).FindRandomTradingPartner();\r\n\t}\r\n\t\r\n\tfunction AddRandomTradingPartner(address _oldAccount, bool choice) external {\r\n\t\tif (choice){\r\n\t\t\tPMI.getActiveProposal(_oldAccount, msg.sender).AddRandomTradingPartner();\r\n\t\t}\r\n\t}\r\n\r\n\t// Checks if indicated trade partners actually have transactions with the old account\r\n\tfunction FindtradePartners(address oldAccount, address newAccount, address[] memory _tradePartners) internal {\r\n\t\tfor (uint i = 0; i < _tradePartners.length; i++){\t// For each partner\r\n\t\t\tif (newAccount != _tradePartners[i]){\t\t\t// The new account can not be a voter\r\n\t\t\t\t// They have made a transaction with the old account\r\n\t\t\t\tif (TransactionManagerInstance.getTransactions(oldAccount, _tradePartners[i]).length > 0){\r\n\t\t\t\t\t// tradePartners.push(_tradePartners[i]);\t// Add them to the array\r\n\t\t\t\t\ttradePartners.insert(_tradePartners[i]);\r\n\t\t\t\t}\r\n\t\t\t}\r\n\t\t}\r\n\t}\r\n\r\n\t\t// Finds other trade partners that are used to quiz the new account. These are random\r\n\tfunction FindOtherAddresses(address oldAccount, address newAccount) internal {\r\n\t\taddress[] memory addresses = UserManagerInstance.getAddresses(); // List of addresses on the network\r\n\r\n\t\tfor (uint i = 0; i < addresses.length; i++){\t\t\t\t\t// For each address\r\n\t\t\tif (newAccount != addresses[i]){\t\t\t\t\t\t\t// The new account can not be a voter\r\n\t\t\t\t// They have made a transaction with the old account\r\n\t\t\t\tif (TransactionManagerInstance.getTransactions(oldAccount, addresses[i]).length > 0){\r\n\t\t\t\t\tif (!tradePartners.contains(addresses[i])){\r\n\t\t\t\t\t\thaveTradedWith.push(addresses[i]);\r\n\t\t\t\t\t}\r\n\t\t\t\t}\r\n\t\t\t}\r\n\t\t}\r\n\r\n\t\trequire(haveTradedWith.length >= 3, \"Invalid Number of haveTradedWith\");\r\n\t}\r\n\r\n\t// Calculates the price of recovering an account\r\n\tfunction CalculatePrice(address _oldAccount) internal view returns (uint) {\r\n\t\tuint balance = UserManagerInstance.getUser(_oldAccount).balance();\r\n\t\treturn balance / 20;\t\t\t\t\t\t// 5% of the old account's balance\r\n\t}\r\n\r\n\t// Finds proposal and makes voting token for a specified voter\r\n\tfunction MakeVotingToken(address oldAccount, address _voter, string calldata _description) external {\r\n\t\tPMI.getActiveProposal(oldAccount, msg.sender).MakeVotingToken(oldAccount, _voter, _description);\r\n\t}\r\n\r\n\t// Makes a set of data for a transaction of one of the trade partners. Checks this data \r\n\tfunction MakeTransactionDataSet(address oldAccount, uint timeStamp, uint _amount, address _voter, \r\n\t\tstring calldata _description, string calldata _itemsInTrade) external {\r\n\r\n\t\t// Transactions in the network between the old account and the voter\r\n\t\tTransaction[] memory transaction = TransactionManagerInstance.getTransactions(oldAccount, _voter);\r\n\r\n\t\tbool found = false;\t\t\t\t\t\t\t// Does the transaction exist\r\n\t\tfor (uint i = 0; i < transaction.length; i++){\r\n\t\t\tif (transaction[i].Equal(timeStamp, oldAccount, _voter, _amount)){\r\n\t\t\t\tfound = true;\t\t\t\t\t\t// The transaction does exist\r\n\t\t\t}\r\n\t\t}\r\n\t\trequire( found == true, \"This transaction does not exist\");\r\n\r\n\t\t// Finds proposal and creates set of data \r\n\t\tPMI.getActiveProposal(oldAccount, msg.sender).AddTransactionDataSet(timeStamp, _voter, _amount, _description, _itemsInTrade);\r\n\t}\r\n}\r\n",
  "sourcePath": "C:/Users/m5w5b/Desktop/GitHub/game-dapp/AccountRecovery/contracts/ProposalCreator.sol",
  "compiler": {
    "name": "solc",
    "version": "0.5.8+commit.23d335f2.Emscripten.clang"
  },
  "schemaVersion": "3.0.16",
  "updatedAt": "2019-10-18T16:09:48.376Z",
  "devdoc": {
    "methods": {}
  },
  "userdoc": {
    "methods": {}
  }
}