{
  "contractName": "ProposalManager",
  "abi": [
    {
      "inputs": [
        {
          "name": "UserManagerAddress",
          "type": "address"
        },
        {
          "name": "TransactionManagerAddress",
          "type": "address"
        }
      ],
      "payable": false,
      "stateMutability": "nonpayable",
      "type": "constructor"
    },
    {
      "constant": false,
      "inputs": [
        {
          "name": "_oldAccount",
          "type": "address"
        },
        {
          "name": "_description",
          "type": "string"
        }
      ],
      "name": "StartProposal",
      "outputs": [
        {
          "name": "",
          "type": "uint256"
        }
      ],
      "payable": false,
      "stateMutability": "nonpayable",
      "type": "function"
    },
    {
      "constant": false,
      "inputs": [
        {
          "name": "_oldAccount",
          "type": "address"
        },
        {
          "name": "_pay",
          "type": "bool"
        }
      ],
      "name": "Pay",
      "outputs": [],
      "payable": false,
      "stateMutability": "nonpayable",
      "type": "function"
    },
    {
      "constant": false,
      "inputs": [
        {
          "name": "_oldAccount",
          "type": "address"
        },
        {
          "name": "_tradePartners",
          "type": "address[]"
        }
      ],
      "name": "AddTradePartners",
      "outputs": [],
      "payable": false,
      "stateMutability": "nonpayable",
      "type": "function"
    },
    {
      "constant": false,
      "inputs": [
        {
          "name": "_oldAccount",
          "type": "address"
        }
      ],
      "name": "FindRandomTradingPartner",
      "outputs": [
        {
          "name": "",
          "type": "address"
        }
      ],
      "payable": false,
      "stateMutability": "nonpayable",
      "type": "function"
    },
    {
      "constant": false,
      "inputs": [
        {
          "name": "_oldAccount",
          "type": "address"
        },
        {
          "name": "choice",
          "type": "bool"
        }
      ],
      "name": "AddRandomTradingPartner",
      "outputs": [],
      "payable": false,
      "stateMutability": "nonpayable",
      "type": "function"
    },
    {
      "constant": false,
      "inputs": [
        {
          "name": "oldAccount",
          "type": "address"
        },
        {
          "name": "_voter",
          "type": "address"
        },
        {
          "name": "_description",
          "type": "string"
        }
      ],
      "name": "MakeVotingToken",
      "outputs": [],
      "payable": false,
      "stateMutability": "nonpayable",
      "type": "function"
    },
    {
      "constant": false,
      "inputs": [
        {
          "name": "oldAccount",
          "type": "address"
        },
        {
          "name": "timeStamp",
          "type": "uint256"
        },
        {
          "name": "_amount",
          "type": "uint256"
        },
        {
          "name": "_voter",
          "type": "address"
        },
        {
          "name": "_description",
          "type": "string"
        },
        {
          "name": "_itemsInTrade",
          "type": "string"
        }
      ],
      "name": "MakeTransactionDataSet",
      "outputs": [],
      "payable": false,
      "stateMutability": "nonpayable",
      "type": "function"
    }
  ],
  "bytecode": "0x608060405234801561001057600080fd5b50604051604080615e6e8339810180604052604081101561003057600080fd5b810190808051906020019092919080519060200190929190505050816000806101000a81548173ffffffffffffffffffffffffffffffffffffffff021916908373ffffffffffffffffffffffffffffffffffffffff16021790555080600160006101000a81548173ffffffffffffffffffffffffffffffffffffffff021916908373ffffffffffffffffffffffffffffffffffffffff1602179055505050615d91806100dd6000396000f3fe60806040523480156200001157600080fd5b5060043610620000885760003560e01c8063790497391162000063578063790497391462000206578063af531a5e14620003b5578063e8d94c001462000408578063fa848b7e14620005095762000088565b80632ec59b6e146200008d578063516e4c2a14620000e05780635d0eebea146200017f575b600080fd5b620000de60048036036040811015620000a557600080fd5b81019080803573ffffffffffffffffffffffffffffffffffffffff169060200190929190803515159060200190929190505050620005bc565b005b6200017d60048036036040811015620000f857600080fd5b81019080803573ffffffffffffffffffffffffffffffffffffffff169060200190929190803590602001906401000000008111156200013657600080fd5b8201836020820111156200014957600080fd5b803590602001918460208302840111640100000000831117156200016c57600080fd5b9091929391929390505050620007dd565b005b620001c4600480360360208110156200019757600080fd5b81019080803573ffffffffffffffffffffffffffffffffffffffff16906020019092919050505062000b8d565b604051808273ffffffffffffffffffffffffffffffffffffffff1673ffffffffffffffffffffffffffffffffffffffff16815260200191505060405180910390f35b620003b3600480360360c08110156200021e57600080fd5b81019080803573ffffffffffffffffffffffffffffffffffffffff1690602001909291908035906020019092919080359060200190929190803573ffffffffffffffffffffffffffffffffffffffff169060200190929190803590602001906401000000008111156200029057600080fd5b820183602082011115620002a357600080fd5b80359060200191846001830284011164010000000083111715620002c657600080fd5b91908080601f016020809104026020016040519081016040528093929190818152602001838380828437600081840152601f19601f820116905080830192505050505050509192919290803590602001906401000000008111156200032a57600080fd5b8201836020820111156200033d57600080fd5b803590602001918460018302840111640100000000831117156200036057600080fd5b91908080601f016020809104026020016040519081016040528093929190818152602001838380828437600081840152601f19601f82011690508083019250505050505050919291929050505062000c27565b005b6200040660048036036040811015620003cd57600080fd5b81019080803573ffffffffffffffffffffffffffffffffffffffff169060200190929190803515159060200190929190505050620010f0565b005b62000507600480360360608110156200042057600080fd5b81019080803573ffffffffffffffffffffffffffffffffffffffff169060200190929190803573ffffffffffffffffffffffffffffffffffffffff169060200190929190803590602001906401000000008111156200047e57600080fd5b8201836020820111156200049157600080fd5b80359060200191846001830284011164010000000083111715620004b457600080fd5b91908080601f016020809104026020016040519081016040528093929190818152602001838380828437600081840152601f19601f82011690508083019250505050505050919291929050505062001169565b005b620005a6600480360360408110156200052157600080fd5b81019080803573ffffffffffffffffffffffffffffffffffffffff169060200190929190803590602001906401000000008111156200055f57600080fd5b8201836020820111156200057257600080fd5b803590602001918460018302840111640100000000831117156200059557600080fd5b9091929391929390505050620012b6565b6040518082815260200191505060405180910390f35b80156200074e5760008060009054906101000a900473ffffffffffffffffffffffffffffffffffffffff1673ffffffffffffffffffffffffffffffffffffffff16636f77926b336040518263ffffffff1660e01b8152600401808273ffffffffffffffffffffffffffffffffffffffff1673ffffffffffffffffffffffffffffffffffffffff16815260200191505060206040518083038186803b1580156200066457600080fd5b505afa15801562000679573d6000803e3d6000fd5b505050506040513d60208110156200069057600080fd5b81019080805190602001909291905050509050620006af833362001689565b73ffffffffffffffffffffffffffffffffffffffff1663cde596b2826040518263ffffffff1660e01b8152600401808273ffffffffffffffffffffffffffffffffffffffff1673ffffffffffffffffffffffffffffffffffffffff168152602001915050600060405180830381600087803b1580156200072e57600080fd5b505af115801562000743573d6000803e3d6000fd5b5050505050620007d9565b600560008373ffffffffffffffffffffffffffffffffffffffff1673ffffffffffffffffffffffffffffffffffffffff16815260200190815260200160002060003373ffffffffffffffffffffffffffffffffffffffff1673ffffffffffffffffffffffffffffffffffffffff1681526020019081526020016000206000620007d8919062002151565b5b5050565b6200082b8333848480806020026020016040519081016040528093929190818152602001838360200280828437600081840152601f19601f820116905080830192505050505050506200183d565b6001600273__Set___________________________________63674a64ec90916040518263ffffffff1660e01b81526004018082815260200191505060206040518083038186803b1580156200088057600080fd5b505af415801562000895573d6000803e3d6000fd5b505050506040513d6020811015620008ac57600080fd5b8101908080519060200190929190505050101562000932576040517f08c379a000000000000000000000000000000000000000000000000000000000815260040180806020018281038252601f8152602001807f496e76616c6964204e756d626572206f66207472616465506172746e6572730081525060200191505060405180910390fd5b6200093e833362001b0c565b6200094a833362001689565b73ffffffffffffffffffffffffffffffffffffffff16636b64df14600273__Set___________________________________633d597e6c90916040518263ffffffff1660e01b81526004018082815260200191505060006040518083038186803b158015620009b857600080fd5b505af4158015620009cd573d6000803e3d6000fd5b505050506040513d6000823e3d601f19601f820116820180604052506020811015620009f857600080fd5b81019080805164010000000081111562000a1157600080fd5b8281019050602081018481111562000a2857600080fd5b815185602082028301116401000000008211171562000a4657600080fd5b505092919050505060046040518363ffffffff1660e01b8152600401808060200180602001838103835285818151815260200191508051906020019060200280838360005b8381101562000aa857808201518184015260208101905062000a8b565b50505050905001838103825284818154815260200191508054801562000b2457602002820191906000526020600020905b8160009054906101000a900473ffffffffffffffffffffffffffffffffffffffff1673ffffffffffffffffffffffffffffffffffffffff168152602001906001019080831162000ad9575b5050945050505050600060405180830381600087803b15801562000b4757600080fd5b505af115801562000b5c573d6000803e3d6000fd5b505050506002600060018201600062000b76919062002174565b50506004600062000b88919062002174565b505050565b600062000b9b823362001689565b73ffffffffffffffffffffffffffffffffffffffff1663ae70981f6040518163ffffffff1660e01b8152600401602060405180830381600087803b15801562000be357600080fd5b505af115801562000bf8573d6000803e3d6000fd5b505050506040513d602081101562000c0f57600080fd5b81019080805190602001909291905050509050919050565b6060600160009054906101000a900473ffffffffffffffffffffffffffffffffffffffff1673ffffffffffffffffffffffffffffffffffffffff1663876cb10888866040518363ffffffff1660e01b8152600401808373ffffffffffffffffffffffffffffffffffffffff1673ffffffffffffffffffffffffffffffffffffffff1681526020018273ffffffffffffffffffffffffffffffffffffffff1673ffffffffffffffffffffffffffffffffffffffff1681526020019250505060006040518083038186803b15801562000cfd57600080fd5b505afa15801562000d12573d6000803e3d6000fd5b505050506040513d6000823e3d601f19601f82011682018060405250602081101562000d3d57600080fd5b81019080805164010000000081111562000d5657600080fd5b8281019050602081018481111562000d6d57600080fd5b815185602082028301116401000000008211171562000d8b57600080fd5b50509291905050509050600080905060008090505b825181101562000ed65782818151811062000db757fe5b602002602001015173ffffffffffffffffffffffffffffffffffffffff166315ca5854898b898b6040518563ffffffff1660e01b8152600401808581526020018473ffffffffffffffffffffffffffffffffffffffff1673ffffffffffffffffffffffffffffffffffffffff1681526020018373ffffffffffffffffffffffffffffffffffffffff1673ffffffffffffffffffffffffffffffffffffffff16815260200182815260200194505050505060206040518083038186803b15801562000e8057600080fd5b505afa15801562000e95573d6000803e3d6000fd5b505050506040513d602081101562000eac57600080fd5b81019080805190602001909291905050501562000ec857600191505b808060010191505062000da0565b50600115158115151462000f52576040517f08c379a000000000000000000000000000000000000000000000000000000000815260040180806020018281038252601f8152602001807f54686973207472616e73616374696f6e20646f6573206e6f742065786973740081525060200191505060405180910390fd5b62000f5e883362001689565b73ffffffffffffffffffffffffffffffffffffffff166319e5fba088878988886040518663ffffffff1660e01b8152600401808681526020018573ffffffffffffffffffffffffffffffffffffffff1673ffffffffffffffffffffffffffffffffffffffff1681526020018481526020018060200180602001838103835285818151815260200191508051906020019080838360005b838110156200101157808201518184015260208101905062000ff4565b50505050905090810190601f1680156200103f5780820380516001836020036101000a031916815260200191505b50838103825284818151815260200191508051906020019080838360005b838110156200107a5780820151818401526020810190506200105d565b50505050905090810190601f168015620010a85780820380516001836020036101000a031916815260200191505b50975050505050505050600060405180830381600087803b158015620010cd57600080fd5b505af1158015620010e2573d6000803e3d6000fd5b505050505050505050505050565b8015620011655762001103823362001689565b73ffffffffffffffffffffffffffffffffffffffff1663512b84266040518163ffffffff1660e01b8152600401600060405180830381600087803b1580156200114b57600080fd5b505af115801562001160573d6000803e3d6000fd5b505050505b5050565b62001175833362001689565b73ffffffffffffffffffffffffffffffffffffffff1663e8d94c008484846040518463ffffffff1660e01b8152600401808473ffffffffffffffffffffffffffffffffffffffff1673ffffffffffffffffffffffffffffffffffffffff1681526020018373ffffffffffffffffffffffffffffffffffffffff1673ffffffffffffffffffffffffffffffffffffffff16815260200180602001828103825283818151815260200191508051906020019080838360005b83811015620012485780820151818401526020810190506200122b565b50505050905090810190601f168015620012765780820380516001836020036101000a031916815260200191505b50945050505050600060405180830381600087803b1580156200129857600080fd5b505af1158015620012ad573d6000803e3d6000fd5b50505050505050565b60003373ffffffffffffffffffffffffffffffffffffffff168473ffffffffffffffffffffffffffffffffffffffff1614156200133f576040517f08c379a000000000000000000000000000000000000000000000000000000000815260040180806020018281038252602181526020018062005d456021913960400191505060405180910390fd5b600073ffffffffffffffffffffffffffffffffffffffff168473ffffffffffffffffffffffffffffffffffffffff161415620013e3576040517f08c379a00000000000000000000000000000000000000000000000000000000081526004018080602001828103825260168152602001807f5468657265206973206e6f206f6c644163636f756e740000000000000000000081525060200191505060405180910390fd5b6000600560008673ffffffffffffffffffffffffffffffffffffffff1673ffffffffffffffffffffffffffffffffffffffff16815260200190815260200160002060003373ffffffffffffffffffffffffffffffffffffffff1673ffffffffffffffffffffffffffffffffffffffff1681526020019081526020016000208054905014620014bd576040517f08c379a000000000000000000000000000000000000000000000000000000000815260040180806020018281038252603081526020018062005d156030913960400191505060405180910390fd5b6000620014ca8562001fd9565b9050600560008673ffffffffffffffffffffffffffffffffffffffff1673ffffffffffffffffffffffffffffffffffffffff16815260200190815260200160002060003373ffffffffffffffffffffffffffffffffffffffff1673ffffffffffffffffffffffffffffffffffffffff16815260200190815260200160002085338686856040516200155b9062002197565b808673ffffffffffffffffffffffffffffffffffffffff1673ffffffffffffffffffffffffffffffffffffffff1681526020018573ffffffffffffffffffffffffffffffffffffffff1673ffffffffffffffffffffffffffffffffffffffff168152602001806020018381526020018281038252858582818152602001925080828437600081840152601f19601f8201169050808301925050509650505050505050604051809103906000f0801580156200161a573d6000803e3d6000fd5b5090806001815401808255809150509060018203906000526020600020016000909192909190916101000a81548173ffffffffffffffffffffffffffffffffffffffff021916908373ffffffffffffffffffffffffffffffffffffffff16021790555050809150509392505050565b60006001600560008573ffffffffffffffffffffffffffffffffffffffff1673ffffffffffffffffffffffffffffffffffffffff16815260200190815260200160002060008473ffffffffffffffffffffffffffffffffffffffff1673ffffffffffffffffffffffffffffffffffffffff168152602001908152602001600020805490501462001781576040517f08c379a000000000000000000000000000000000000000000000000000000000815260040180806020018281038252601b8152602001807f5468657265206973206e6f206163746976652050726f706f73616c000000000081525060200191505060405180910390fd5b600560008473ffffffffffffffffffffffffffffffffffffffff1673ffffffffffffffffffffffffffffffffffffffff16815260200190815260200160002060008373ffffffffffffffffffffffffffffffffffffffff1673ffffffffffffffffffffffffffffffffffffffff1681526020019081526020016000206000815481106200180a57fe5b9060005260206000200160009054906101000a900473ffffffffffffffffffffffffffffffffffffffff16905092915050565b60008090505b815181101562001b06578181815181106200185a57fe5b602002602001015173ffffffffffffffffffffffffffffffffffffffff168373ffffffffffffffffffffffffffffffffffffffff161462001af8576000600160009054906101000a900473ffffffffffffffffffffffffffffffffffffffff1673ffffffffffffffffffffffffffffffffffffffff1663876cb10886858581518110620018e357fe5b60200260200101516040518363ffffffff1660e01b8152600401808373ffffffffffffffffffffffffffffffffffffffff1673ffffffffffffffffffffffffffffffffffffffff1681526020018273ffffffffffffffffffffffffffffffffffffffff1673ffffffffffffffffffffffffffffffffffffffff1681526020019250505060006040518083038186803b1580156200197f57600080fd5b505afa15801562001994573d6000803e3d6000fd5b505050506040513d6000823e3d601f19601f820116820180604052506020811015620019bf57600080fd5b810190808051640100000000811115620019d857600080fd5b82810190506020810184811115620019ef57600080fd5b815185602082028301116401000000008211171562001a0d57600080fd5b505092919050505051111562001af757600273__Set___________________________________635df0a15c909184848151811062001a4857fe5b60200260200101516040518363ffffffff1660e01b8152600401808381526020018273ffffffffffffffffffffffffffffffffffffffff1673ffffffffffffffffffffffffffffffffffffffff1681526020019250505060206040518083038186803b15801562001ab857600080fd5b505af415801562001acd573d6000803e3d6000fd5b505050506040513d602081101562001ae457600080fd5b8101908080519060200190929190505050505b5b808060010191505062001843565b50505050565b60606000809054906101000a900473ffffffffffffffffffffffffffffffffffffffff1673ffffffffffffffffffffffffffffffffffffffff1663a39fac126040518163ffffffff1660e01b815260040160006040518083038186803b15801562001b7657600080fd5b505afa15801562001b8b573d6000803e3d6000fd5b505050506040513d6000823e3d601f19601f82011682018060405250602081101562001bb657600080fd5b81019080805164010000000081111562001bcf57600080fd5b8281019050602081018481111562001be657600080fd5b815185602082028301116401000000008211171562001c0457600080fd5b5050929190505050905060008090505b815181101562001f565781818151811062001c2b57fe5b602002602001015173ffffffffffffffffffffffffffffffffffffffff168373ffffffffffffffffffffffffffffffffffffffff161462001f48576000600160009054906101000a900473ffffffffffffffffffffffffffffffffffffffff1673ffffffffffffffffffffffffffffffffffffffff1663876cb1088685858151811062001cb457fe5b60200260200101516040518363ffffffff1660e01b8152600401808373ffffffffffffffffffffffffffffffffffffffff1673ffffffffffffffffffffffffffffffffffffffff1681526020018273ffffffffffffffffffffffffffffffffffffffff1673ffffffffffffffffffffffffffffffffffffffff1681526020019250505060006040518083038186803b15801562001d5057600080fd5b505afa15801562001d65573d6000803e3d6000fd5b505050506040513d6000823e3d601f19601f82011682018060405250602081101562001d9057600080fd5b81019080805164010000000081111562001da957600080fd5b8281019050602081018481111562001dc057600080fd5b815185602082028301116401000000008211171562001dde57600080fd5b505092919050505051111562001f4757600273__Set___________________________________63fe6949e3909184848151811062001e1957fe5b60200260200101516040518363ffffffff1660e01b8152600401808381526020018273ffffffffffffffffffffffffffffffffffffffff1673ffffffffffffffffffffffffffffffffffffffff1681526020019250505060206040518083038186803b15801562001e8957600080fd5b505af415801562001e9e573d6000803e3d6000fd5b505050506040513d602081101562001eb557600080fd5b810190808051906020019092919050505062001f4657600482828151811062001eda57fe5b602002602001015190806001815401808255809150509060018203906000526020600020016000909192909190916101000a81548173ffffffffffffffffffffffffffffffffffffffff021916908373ffffffffffffffffffffffffffffffffffffffff160217905550505b5b5b808060010191505062001c14565b506003600480549050101562001fd4576040517f08c379a00000000000000000000000000000000000000000000000000000000081526004018080602001828103825260208152602001807f496e76616c6964204e756d626572206f6620686176655472616465645769746881525060200191505060405180910390fd5b505050565b6000806000809054906101000a900473ffffffffffffffffffffffffffffffffffffffff1673ffffffffffffffffffffffffffffffffffffffff16636f77926b846040518263ffffffff1660e01b8152600401808273ffffffffffffffffffffffffffffffffffffffff1673ffffffffffffffffffffffffffffffffffffffff16815260200191505060206040518083038186803b1580156200207b57600080fd5b505afa15801562002090573d6000803e3d6000fd5b505050506040513d6020811015620020a757600080fd5b810190808051906020019092919050505073ffffffffffffffffffffffffffffffffffffffff1663b69ef8a86040518163ffffffff1660e01b815260040160206040518083038186803b158015620020fe57600080fd5b505afa15801562002113573d6000803e3d6000fd5b505050506040513d60208110156200212a57600080fd5b81019080805190602001909291905050509050601481816200214857fe5b04915050919050565b5080546000825590600052602060002090810190620021719190620021a5565b50565b5080546000825590600052602060002090810190620021949190620021a5565b50565b613b4780620021ce83390190565b620021ca91905b80821115620021c6576000816000905550600101620021ac565b5090565b9056fe60806040526000600460006101000a81548173ffffffffffffffffffffffffffffffffffffffff021916908373ffffffffffffffffffffffffffffffffffffffff1602179055506000600960006101000a81548160ff021916908360ff1602179055506000600960016101000a81548160ff0219169083151502179055503480156200008a57600080fd5b5060405162003b4738038062003b4783398101806040526080811015620000b057600080fd5b8101908080519060200190929190805190602001909291908051640100000000811115620000dd57600080fd5b82810190506020810184811115620000f457600080fd5b81518560018202830111640100000000821117156200011257600080fd5b50509291906020018051906020019092919050505083600560006101000a81548173ffffffffffffffffffffffffffffffffffffffff021916908373ffffffffffffffffffffffffffffffffffffffff16021790555082600660006101000a81548173ffffffffffffffffffffffffffffffffffffffff021916908373ffffffffffffffffffffffffffffffffffffffff1602179055508160079080519060200190620001c1929190620001d3565b50806008819055505050505062000282565b828054600181600116156101000203166002900490600052602060002090601f016020900481019282601f106200021657805160ff191683800117855562000247565b8280016001018555821562000247579182015b828111156200024657825182559160200191906001019062000229565b5b5090506200025691906200025a565b5090565b6200027f91905b808211156200027b57600081600090555060010162000261565b5090565b90565b6138b580620002926000396000f3fe60806040523480156200001157600080fd5b5060043610620000ac5760003560e01c8063cde596b2116200006f578063cde596b2146200034a578063e628c2e01462000391578063e8d94c001462000463578063f91ac8991462000522578063fa041dd7146200065e57620000ac565b80630d2cea2c14620000b157806319e5fba01462000110578063512b8426146200021b5780636b64df141462000227578063ae70981f14620002fe575b600080fd5b620000f660048036036020811015620000c957600080fd5b81019080803573ffffffffffffffffffffffffffffffffffffffff169060200190929190505050620006b1565b604051808215151515815260200191505060405180910390f35b62000219600480360360a08110156200012857600080fd5b8101908080359060200190929190803573ffffffffffffffffffffffffffffffffffffffff16906020019092919080359060200190929190803590602001906401000000008111156200017a57600080fd5b8201836020820111156200018d57600080fd5b80359060200191846001830284011164010000000083111715620001b057600080fd5b909192939192939080359060200190640100000000811115620001d257600080fd5b820183602082011115620001e557600080fd5b803590602001918460018302840111640100000000831117156200020857600080fd5b909192939192939050505062000bae565b005b6200022562000e65565b005b620002fc600480360360408110156200023f57600080fd5b81019080803590602001906401000000008111156200025d57600080fd5b8201836020820111156200027057600080fd5b803590602001918460208302840111640100000000831117156200029357600080fd5b909192939192939080359060200190640100000000811115620002b557600080fd5b820183602082011115620002c857600080fd5b80359060200191846020830284011164010000000083111715620002eb57600080fd5b90919293919293905050506200116c565b005b6200030862001208565b604051808273ffffffffffffffffffffffffffffffffffffffff1673ffffffffffffffffffffffffffffffffffffffff16815260200191505060405180910390f35b6200038f600480360360208110156200036257600080fd5b81019080803573ffffffffffffffffffffffffffffffffffffffff169060200190929190505050620013b4565b005b620003e060048036036040811015620003a957600080fd5b81019080803573ffffffffffffffffffffffffffffffffffffffff1690602001909291908035906020019092919050505062001521565b604051808581526020018481526020018373ffffffffffffffffffffffffffffffffffffffff1673ffffffffffffffffffffffffffffffffffffffff1681526020018273ffffffffffffffffffffffffffffffffffffffff1673ffffffffffffffffffffffffffffffffffffffff16815260200194505050505060405180910390f35b62000520600480360360608110156200047b57600080fd5b81019080803573ffffffffffffffffffffffffffffffffffffffff169060200190929190803573ffffffffffffffffffffffffffffffffffffffff16906020019092919080359060200190640100000000811115620004d957600080fd5b820183602082011115620004ec57600080fd5b803590602001918460018302840111640100000000831117156200050f57600080fd5b909192939192939050505062001782565b005b62000571600480360360408110156200053a57600080fd5b81019080803573ffffffffffffffffffffffffffffffffffffffff1690602001909291908035906020019092919050505062001b28565b604051808060200180602001838103835285818151815260200191508051906020019080838360005b83811015620005b75780820151818401526020810190506200059a565b50505050905090810190601f168015620005e55780820380516001836020036101000a031916815260200191505b50838103825284818151815260200191508051906020019080838360005b838110156200062057808201518184015260208101905062000603565b50505050905090810190601f1680156200064e5780820380516001836020036101000a031916815260200191505b5094505050505060405180910390f35b620006af600480360360408110156200067657600080fd5b81019080803573ffffffffffffffffffffffffffffffffffffffff16906020019092919080351515906020019092919050505062001e0d565b005b600060011515600960019054906101000a900460ff1615151462000721576040517f08c379a00000000000000000000000000000000000000000000000000000000081526004018080602001828103825260278152602001806200383a6027913960400191505060405180910390fd5b60006001805490501162000781576040517f08c379a0000000000000000000000000000000000000000000000000000000008152600401808060200182810382526037815260200180620037d86037913960400191505060405180910390fd5b600180549050600960009054906101000a900460ff1660ff1614620007f2576040517f08c379a0000000000000000000000000000000000000000000000000000000008152600401808060200182810382526025815260200180620037916025913960400191505060405180910390fd5b600060426200080062002053565b60646200080c620022f2565b02816200081557fe5b041015905060008090505b60018054905081101562000ba4576000806000600184815481106200084157fe5b9060005260206000200160009054906101000a900473ffffffffffffffffffffffffffffffffffffffff1673ffffffffffffffffffffffffffffffffffffffff1673ffffffffffffffffffffffffffffffffffffffff16815260200190815260200160002060009054906101000a900473ffffffffffffffffffffffffffffffffffffffff1690508073ffffffffffffffffffffffffffffffffffffffff16632f2a18ff6040518163ffffffff1660e01b815260040160206040518083038186803b1580156200091057600080fd5b505afa15801562000925573d6000803e3d6000fd5b505050506040513d60208110156200093c57600080fd5b81019080805190602001909291905050501562000b955760006200095f62002053565b6002600854816200096c57fe5b04816200097557fe5b0490508315158273ffffffffffffffffffffffffffffffffffffffff166319900a806040518163ffffffff1660e01b815260040160206040518083038186803b158015620009c257600080fd5b505afa158015620009d7573d6000803e3d6000fd5b505050506040513d6020811015620009ee57600080fd5b81019080805190602001909291905050501515141562000a2e5762000a12620022f2565b60026008548162000a1f57fe5b048162000a2857fe5b04810190505b60008673ffffffffffffffffffffffffffffffffffffffff16636f77926b6001868154811062000a5a57fe5b9060005260206000200160009054906101000a900473ffffffffffffffffffffffffffffffffffffffff166040518263ffffffff1660e01b8152600401808273ffffffffffffffffffffffffffffffffffffffff1673ffffffffffffffffffffffffffffffffffffffff16815260200191505060206040518083038186803b15801562000ae657600080fd5b505afa15801562000afb573d6000803e3d6000fd5b505050506040513d602081101562000b1257600080fd5b810190808051906020019092919050505090508073ffffffffffffffffffffffffffffffffffffffff16633e4ccb40836040518263ffffffff1660e01b815260040180828152602001915050600060405180830381600087803b15801562000b7957600080fd5b505af115801562000b8e573d6000803e3d6000fd5b5050505050505b50808060010191505062000820565b5080915050919050565b60011515600960019054906101000a900460ff1615151462000c1c576040517f08c379a00000000000000000000000000000000000000000000000000000000081526004018080602001828103825260278152602001806200383a6027913960400191505060405180910390fd5b60006001805490501162000c7c576040517f08c379a0000000000000000000000000000000000000000000000000000000008152600401808060200182810382526037815260200180620037d86037913960400191505060405180910390fd5b600180549050600960009054906101000a900460ff1660ff161462000ced576040517f08c379a0000000000000000000000000000000000000000000000000000000008152600401808060200182810382526025815260200180620037916025913960400191505060405180910390fd5b6000808773ffffffffffffffffffffffffffffffffffffffff1673ffffffffffffffffffffffffffffffffffffffff16815260200190815260200160002060009054906101000a900473ffffffffffffffffffffffffffffffffffffffff1673ffffffffffffffffffffffffffffffffffffffff166319e5fba0888888888888886040518863ffffffff1660e01b8152600401808881526020018773ffffffffffffffffffffffffffffffffffffffff1673ffffffffffffffffffffffffffffffffffffffff16815260200186815260200180602001806020018381038352878782818152602001925080828437600081840152601f19601f8201169050808301925050508381038252858582818152602001925080828437600081840152601f19601f8201169050808301925050509950505050505050505050600060405180830381600087803b15801562000e4357600080fd5b505af115801562000e58573d6000803e3d6000fd5b5050505050505050505050565b60011515600960019054906101000a900460ff1615151462000ed3576040517f08c379a00000000000000000000000000000000000000000000000000000000081526004018080602001828103825260278152602001806200383a6027913960400191505060405180910390fd5b60006001805490501162000f33576040517f08c379a0000000000000000000000000000000000000000000000000000000008152600401808060200182810382526037815260200180620037d86037913960400191505060405180910390fd5b600073ffffffffffffffffffffffffffffffffffffffff16600460009054906101000a900473ffffffffffffffffffffffffffffffffffffffff1673ffffffffffffffffffffffffffffffffffffffff16141562000fdd576040517f08c379a000000000000000000000000000000000000000000000000000000000815260040180806020018281038252602b8152602001806200380f602b913960400191505060405180910390fd5b600460009054906101000a900473ffffffffffffffffffffffffffffffffffffffff1673ffffffffffffffffffffffffffffffffffffffff166003600160038054905003815481106200102c57fe5b9060005260206000200160009054906101000a900473ffffffffffffffffffffffffffffffffffffffff1673ffffffffffffffffffffffffffffffffffffffff161415620010e2576040517f08c379a000000000000000000000000000000000000000000000000000000000815260040180806020018281038252601a8152602001807f416c72656164792061646465642074686174206164647265737300000000000081525060200191505060405180910390fd5b6003600460009054906101000a900473ffffffffffffffffffffffffffffffffffffffff1690806001815401808255809150509060018203906000526020600020016000909192909190916101000a81548173ffffffffffffffffffffffffffffffffffffffff021916908373ffffffffffffffffffffffffffffffffffffffff16021790555050565b60011515600960019054906101000a900460ff16151514620011da576040517f08c379a00000000000000000000000000000000000000000000000000000000081526004018080602001828103825260278152602001806200383a6027913960400191505060405180910390fd5b838360019190620011ed9291906200260e565b50818160029190620012019291906200260e565b5050505050565b600060011515600960019054906101000a900460ff1615151462001278576040517f08c379a00000000000000000000000000000000000000000000000000000000081526004018080602001828103825260278152602001806200383a6027913960400191505060405180910390fd5b600060018054905011620012d8576040517f08c379a0000000000000000000000000000000000000000000000000000000008152600401808060200182810382526037815260200180620037d86037913960400191505060405180910390fd5b60006200130d600460009054906101000a900473ffffffffffffffffffffffffffffffffffffffff1660028054905062002591565b60ff169050600281815481106200132057fe5b9060005260206000200160009054906101000a900473ffffffffffffffffffffffffffffffffffffffff16600460006101000a81548173ffffffffffffffffffffffffffffffffffffffff021916908373ffffffffffffffffffffffffffffffffffffffff160217905550600460009054906101000a900473ffffffffffffffffffffffffffffffffffffffff1691505090565b6008548173ffffffffffffffffffffffffffffffffffffffff1663b69ef8a86040518163ffffffff1660e01b815260040160206040518083038186803b158015620013fe57600080fd5b505afa15801562001413573d6000803e3d6000fd5b505050506040513d60208110156200142a57600080fd5b8101908080519060200190929190505050101562001494576040517f08c379a0000000000000000000000000000000000000000000000000000000008152600401808060200182810382526022815260200180620037b66022913960400191505060405180910390fd5b8073ffffffffffffffffffffffffffffffffffffffff1663392aee436008546040518263ffffffff1660e01b815260040180828152602001915050600060405180830381600087803b158015620014ea57600080fd5b505af1158015620014ff573d6000803e3d6000fd5b505050506001600960016101000a81548160ff02191690831515021790555050565b60008060008060011515600960019054906101000a900460ff1615151462001595576040517f08c379a00000000000000000000000000000000000000000000000000000000081526004018080602001828103825260278152602001806200383a6027913960400191505060405180910390fd5b600060018054905011620015f5576040517f08c379a0000000000000000000000000000000000000000000000000000000008152600401808060200182810382526037815260200180620037d86037913960400191505060405180910390fd5b600180549050600960009054906101000a900460ff1660ff161462001666576040517f08c379a0000000000000000000000000000000000000000000000000000000008152600401808060200182810382526025815260200180620037916025913960400191505060405180910390fd5b6000808773ffffffffffffffffffffffffffffffffffffffff1673ffffffffffffffffffffffffffffffffffffffff16815260200190815260200160002060009054906101000a900473ffffffffffffffffffffffffffffffffffffffff1673ffffffffffffffffffffffffffffffffffffffff16634ba569a4866040518263ffffffff1660e01b81526004018082815260200191505060806040518083038186803b1580156200171657600080fd5b505afa1580156200172b573d6000803e3d6000fd5b505050506040513d60808110156200174257600080fd5b8101908080519060200190929190805190602001909291908051906020019092919080519060200190929190505050935093509350935092959194509250565b60011515600960019054906101000a900460ff16151514620017f0576040517f08c379a00000000000000000000000000000000000000000000000000000000081526004018080602001828103825260278152602001806200383a6027913960400191505060405180910390fd5b60006001805490501162001850576040517f08c379a0000000000000000000000000000000000000000000000000000000008152600401808060200182810382526037815260200180620037d86037913960400191505060405180910390fd5b600260038054905011620018b0576040517f08c379a00000000000000000000000000000000000000000000000000000000081526004018080602001828103825260328152602001806200375f6032913960400191505060405180910390fd5b60008090505b60018054905081101562001abf578373ffffffffffffffffffffffffffffffffffffffff1660018281548110620018e957fe5b9060005260206000200160009054906101000a900473ffffffffffffffffffffffffffffffffffffffff1673ffffffffffffffffffffffffffffffffffffffff16141562001ab157848484846040516200194390620026b3565b808573ffffffffffffffffffffffffffffffffffffffff1673ffffffffffffffffffffffffffffffffffffffff1681526020018473ffffffffffffffffffffffffffffffffffffffff1673ffffffffffffffffffffffffffffffffffffffff168152602001806020018281038252848482818152602001925080828437600081840152601f19601f82011690508083019250505095505050505050604051809103906000f080158015620019fb573d6000803e3d6000fd5b506000808673ffffffffffffffffffffffffffffffffffffffff1673ffffffffffffffffffffffffffffffffffffffff16815260200190815260200160002060006101000a81548173ffffffffffffffffffffffffffffffffffffffff021916908373ffffffffffffffffffffffffffffffffffffffff1602179055506009600081819054906101000a900460ff168092919060010191906101000a81548160ff021916908360ff160217905550505062001b22565b8080600101915050620018b6565b506001151560011515141562001b21576040517f08c379a0000000000000000000000000000000000000000000000000000000008152600401808060200182810382526029815260200180620038616029913960400191505060405180910390fd5b5b50505050565b60608060011515600960019054906101000a900460ff1615151462001b99576040517f08c379a00000000000000000000000000000000000000000000000000000000081526004018080602001828103825260278152602001806200383a6027913960400191505060405180910390fd5b60006001805490501162001bf9576040517f08c379a0000000000000000000000000000000000000000000000000000000008152600401808060200182810382526037815260200180620037d86037913960400191505060405180910390fd5b600180549050600960009054906101000a900460ff1660ff161462001c6a576040517f08c379a0000000000000000000000000000000000000000000000000000000008152600401808060200182810382526025815260200180620037916025913960400191505060405180910390fd5b6000808573ffffffffffffffffffffffffffffffffffffffff1673ffffffffffffffffffffffffffffffffffffffff16815260200190815260200160002060009054906101000a900473ffffffffffffffffffffffffffffffffffffffff1673ffffffffffffffffffffffffffffffffffffffff16637bd1eb3c846040518263ffffffff1660e01b81526004018082815260200191505060006040518083038186803b15801562001d1a57600080fd5b505afa15801562001d2f573d6000803e3d6000fd5b505050506040513d6000823e3d601f19601f82011682018060405250604081101562001d5a57600080fd5b81019080805164010000000081111562001d7357600080fd5b8281019050602081018481111562001d8a57600080fd5b815185600182028301116401000000008211171562001da857600080fd5b5050929190602001805164010000000081111562001dc557600080fd5b8281019050602081018481111562001ddc57600080fd5b815185600182028301116401000000008211171562001dfa57600080fd5b5050929190505050915091509250929050565b60011515600960019054906101000a900460ff1615151462001e7b576040517f08c379a00000000000000000000000000000000000000000000000000000000081526004018080602001828103825260278152602001806200383a6027913960400191505060405180910390fd5b60006001805490501162001edb576040517f08c379a0000000000000000000000000000000000000000000000000000000008152600401808060200182810382526037815260200180620037d86037913960400191505060405180910390fd5b600180549050600960009054906101000a900460ff1660ff161462001f4c576040517f08c379a0000000000000000000000000000000000000000000000000000000008152600401808060200182810382526025815260200180620037916025913960400191505060405180910390fd5b6000808373ffffffffffffffffffffffffffffffffffffffff1673ffffffffffffffffffffffffffffffffffffffff16815260200190815260200160002060009054906101000a900473ffffffffffffffffffffffffffffffffffffffff1673ffffffffffffffffffffffffffffffffffffffff1663fa041dd783836040518363ffffffff1660e01b8152600401808373ffffffffffffffffffffffffffffffffffffffff1673ffffffffffffffffffffffffffffffffffffffff1681526020018215151515815260200192505050600060405180830381600087803b1580156200203657600080fd5b505af11580156200204b573d6000803e3d6000fd5b505050505050565b600060011515600960019054906101000a900460ff16151514620020c3576040517f08c379a00000000000000000000000000000000000000000000000000000000081526004018080602001828103825260278152602001806200383a6027913960400191505060405180910390fd5b60006001805490501162002123576040517f08c379a0000000000000000000000000000000000000000000000000000000008152600401808060200182810382526037815260200180620037d86037913960400191505060405180910390fd5b600180549050600960009054906101000a900460ff1660ff161462002194576040517f08c379a0000000000000000000000000000000000000000000000000000000008152600401808060200182810382526025815260200180620037916025913960400191505060405180910390fd5b600080905060008090505b600180549050811015620022ea57600080600060018481548110620021c057fe5b9060005260206000200160009054906101000a900473ffffffffffffffffffffffffffffffffffffffff1673ffffffffffffffffffffffffffffffffffffffff1673ffffffffffffffffffffffffffffffffffffffff16815260200190815260200160002060009054906101000a900473ffffffffffffffffffffffffffffffffffffffff1690508073ffffffffffffffffffffffffffffffffffffffff16632f2a18ff6040518163ffffffff1660e01b815260040160206040518083038186803b1580156200228f57600080fd5b505afa158015620022a4573d6000803e3d6000fd5b505050506040513d6020811015620022bb57600080fd5b810190808051906020019092919050505015620022db5782806001019350505b5080806001019150506200219f565b508091505090565b600060011515600960019054906101000a900460ff1615151462002362576040517f08c379a00000000000000000000000000000000000000000000000000000000081526004018080602001828103825260278152602001806200383a6027913960400191505060405180910390fd5b600060018054905011620023c2576040517f08c379a0000000000000000000000000000000000000000000000000000000008152600401808060200182810382526037815260200180620037d86037913960400191505060405180910390fd5b600180549050600960009054906101000a900460ff1660ff161462002433576040517f08c379a0000000000000000000000000000000000000000000000000000000008152600401808060200182810382526025815260200180620037916025913960400191505060405180910390fd5b600080905060008090505b60018054905081101562002589576000806000600184815481106200245f57fe5b9060005260206000200160009054906101000a900473ffffffffffffffffffffffffffffffffffffffff1673ffffffffffffffffffffffffffffffffffffffff1673ffffffffffffffffffffffffffffffffffffffff16815260200190815260200160002060009054906101000a900473ffffffffffffffffffffffffffffffffffffffff1690508073ffffffffffffffffffffffffffffffffffffffff166319900a806040518163ffffffff1660e01b815260040160206040518083038186803b1580156200252e57600080fd5b505afa15801562002543573d6000803e3d6000fd5b505050506040513d60208110156200255a57600080fd5b8101908080519060200190929190505050156200257a5782806001019350505b5080806001019150506200243e565b508091505090565b600081424485604051602001808481526020018381526020018273ffffffffffffffffffffffffffffffffffffffff1673ffffffffffffffffffffffffffffffffffffffff1660601b815260140193505050506040516020818303038152906040528051906020012060001c816200260557fe5b06905092915050565b828054828255906000526020600020908101928215620026a0579160200282015b828111156200269f57823573ffffffffffffffffffffffffffffffffffffffff168260006101000a81548173ffffffffffffffffffffffffffffffffffffffff021916908373ffffffffffffffffffffffffffffffffffffffff160217905550916020019190600101906200262f565b5b509050620026af9190620026c1565b5090565b611057806200270883390190565b6200270491905b808211156200270057600081816101000a81549073ffffffffffffffffffffffffffffffffffffffff021916905550600101620026c8565b5090565b9056fe60806040523480156200001157600080fd5b506040516200105738038062001057833981018060405260608110156200003757600080fd5b81019080805190602001909291908051906020019092919080516401000000008111156200006457600080fd5b828101905060208101848111156200007b57600080fd5b81518560018202830111640100000000821117156200009957600080fd5b505092919050505081600360006101000a81548173ffffffffffffffffffffffffffffffffffffffff021916908373ffffffffffffffffffffffffffffffffffffffff16021790555082600260006101000a81548173ffffffffffffffffffffffffffffffffffffffff021916908373ffffffffffffffffffffffffffffffffffffffff1602179055506000600360146101000a81548160ff02191690831515021790555060016000806101000a81548160ff0219169083151502179055506000600360156101000a81548160ff02191690831515021790555080600190805190602001906200018b92919062000195565b5050505062000244565b828054600181600116156101000203166002900490600052602060002090601f016020900481019282601f10620001d857805160ff191683800117855562000209565b8280016001018555821562000209579182015b8281111562000208578251825591602001919060010190620001eb565b5b5090506200021891906200021c565b5090565b6200024191905b808211156200023d57600081600090555060010162000223565b5090565b90565b610e0380620002546000396000f3fe608060405234801561001057600080fd5b506004361061007d5760003560e01c80632f2a18ff1161005b5780632f2a18ff146101c85780634ba569a4146101ea5780637bd1eb3c14610299578063fa041dd7146103ac5761007d565b806319900a801461008257806319e5fba0146100a4578063267c4ae4146101a6575b600080fd5b61008a6103fc565b604051808215151515815260200191505060405180910390f35b6101a4600480360360a08110156100ba57600080fd5b8101908080359060200190929190803573ffffffffffffffffffffffffffffffffffffffff169060200190929190803590602001909291908035906020019064010000000081111561010b57600080fd5b82018360208201111561011d57600080fd5b8035906020019184600183028401116401000000008311171561013f57600080fd5b90919293919293908035906020019064010000000081111561016057600080fd5b82018360208201111561017257600080fd5b8035906020019184600183028401116401000000008311171561019457600080fd5b9091929391929390505050610442565b005b6101ae6106e2565b604051808215151515815260200191505060405180910390f35b6101d06106f4565b604051808215151515815260200191505060405180910390f35b6102166004803603602081101561020057600080fd5b8101908080359060200190929190505050610722565b604051808581526020018481526020018373ffffffffffffffffffffffffffffffffffffffff1673ffffffffffffffffffffffffffffffffffffffff1681526020018273ffffffffffffffffffffffffffffffffffffffff1673ffffffffffffffffffffffffffffffffffffffff16815260200194505050505060405180910390f35b6102c5600480360360208110156102af57600080fd5b8101908080359060200190929190505050610851565b604051808060200180602001838103835285818151815260200191508051906020019080838360005b838110156103095780820151818401526020810190506102ee565b50505050905090810190601f1680156103365780820380516001836020036101000a031916815260200191505b50838103825284818151815260200191508051906020019080838360005b8381101561036f578082015181840152602081019050610354565b50505050905090810190601f16801561039c5780820380516001836020036101000a031916815260200191505b5094505050505060405180910390f35b6103fa600480360360408110156103c257600080fd5b81019080803573ffffffffffffffffffffffffffffffffffffffff169060200190929190803515159060200190929190505050610a2f565b005b60008060009054906101000a900460ff1680156104255750600360159054906101000a900460ff165b801561043d5750600360149054906101000a900460ff165b905090565b600115156000809054906101000a900460ff161515146104ca576040517f08c379a00000000000000000000000000000000000000000000000000000000081526004018080602001828103825260198152602001807f5468697320766f74657220646f6573206e6f742065786973740000000000000081525060200191505060405180910390fd5b60046040518060c00160405280898152602001600260009054906101000a900473ffffffffffffffffffffffffffffffffffffffff1673ffffffffffffffffffffffffffffffffffffffff1681526020018873ffffffffffffffffffffffffffffffffffffffff16815260200187815260200186868080601f016020809104026020016040519081016040528093929190818152602001838380828437600081840152601f19601f82011690508083019250505050505050815260200184848080601f016020809104026020016040519081016040528093929190818152602001838380828437600081840152601f19601f82011690508083019250505050505050815250908060018154018082558091505090600182039060005260206000209060060201600090919290919091506000820151816000015560208201518160010160006101000a81548173ffffffffffffffffffffffffffffffffffffffff021916908373ffffffffffffffffffffffffffffffffffffffff16021790555060408201518160020160006101000a81548173ffffffffffffffffffffffffffffffffffffffff021916908373ffffffffffffffffffffffffffffffffffffffff1602179055506060820151816003015560808201518160040190805190602001906106b8929190610d0e565b5060a08201518160050190805190602001906106d5929190610d0e565b5050505050505050505050565b6000809054906101000a900460ff1681565b60008060009054906101000a900460ff16801561071d5750600360159054906101000a900460ff165b905090565b600080600080600060048054905011610786576040517f08c379a0000000000000000000000000000000000000000000000000000000008152600401808060200182810382526024815260200180610db46024913960400191505060405180910390fd5b6004858154811061079357fe5b906000526020600020906006020160000154600486815481106107b257fe5b906000526020600020906006020160030154600487815481106107d157fe5b906000526020600020906006020160010160009054906101000a900473ffffffffffffffffffffffffffffffffffffffff166004888154811061081057fe5b906000526020600020906006020160020160009054906101000a900473ffffffffffffffffffffffffffffffffffffffff1693509350935093509193509193565b6060806000600480549050116108b2576040517f08c379a0000000000000000000000000000000000000000000000000000000008152600401808060200182810382526024815260200180610db46024913960400191505060405180910390fd5b600483815481106108bf57fe5b9060005260206000209060060201600401600484815481106108dd57fe5b9060005260206000209060060201600501818054600181600116156101000203166002900480601f0160208091040260200160405190810160405280929190818152602001828054600181600116156101000203166002900480156109835780601f1061095857610100808354040283529160200191610983565b820191906000526020600020905b81548152906001019060200180831161096657829003601f168201915b50505050509150808054600181600116156101000203166002900480601f016020809104026020016040519081016040528092919081815260200182805460018160011615610100020316600290048015610a1f5780601f106109f457610100808354040283529160200191610a1f565b820191906000526020600020905b815481529060010190602001808311610a0257829003601f168201915b5050505050905091509150915091565b600115156000809054906101000a900460ff16151514610ab7576040517f08c379a00000000000000000000000000000000000000000000000000000000081526004018080602001828103825260198152602001807f5468697320766f74657220646f6573206e6f742065786973740000000000000081525060200191505060405180910390fd5b8173ffffffffffffffffffffffffffffffffffffffff16600360009054906101000a900473ffffffffffffffffffffffffffffffffffffffff1673ffffffffffffffffffffffffffffffffffffffff1614610b7a576040517f08c379a00000000000000000000000000000000000000000000000000000000081526004018080602001828103825260198152602001807f53656e742066726f6d207468652077726f6e6720766f7465720000000000000081525060200191505060405180910390fd5b600060048054905011610bd8576040517f08c379a0000000000000000000000000000000000000000000000000000000008152600401808060200182810382526024815260200180610db46024913960400191505060405180910390fd5b60001515600360159054906101000a900460ff16151514610c61576040517f08c379a000000000000000000000000000000000000000000000000000000000815260040180806020018281038252600d8152602001807f416c726561647920566f7465640000000000000000000000000000000000000081525060200191505060405180910390fd5b80600360146101000a81548160ff0219169083151502179055506001600360156101000a81548160ff021916908315150217905550600360009054906101000a900473ffffffffffffffffffffffffffffffffffffffff1673ffffffffffffffffffffffffffffffffffffffff167fa635d31e67484fd1d93ba01ab0ef882e4440a78aa40d0e2771e8a2aace45986982604051808215151515815260200191505060405180910390a25050565b828054600181600116156101000203166002900490600052602060002090601f016020900481019282601f10610d4f57805160ff1916838001178555610d7d565b82800160010185558215610d7d579182015b82811115610d7c578251825591602001919060010190610d61565b5b509050610d8a9190610d8e565b5090565b610db091905b80821115610dac576000816000905550600101610d94565b5090565b9056fe5468657265206973206e6f207472616e73616374696f6e206461746120746f2076696577a165627a7a7230582004ac15597e270cd62b97c4e08fc19f72ba4287c1bca593a8fafe109e4525e03300294e656564206d6f72652072616e646f6d6c792073656c6563746564206f746865722074726164696e6720706172746e65727348617665206e6f74206372656174656420616c6c2074686520566f74696e67546f6b656e734e6f7420456e6f7567682066756e647320666f7220746869732050726f706f73616c547261646520706172746e6572732068617665206e6f74206265656e20616464656420746f2074686973207965742070726f706f73616c4861766520746f2066696e6420612072616e646f6d2074726164696e6720706172746e6572206669727374546869732070726f706f73616c20686173206e6f74206265656e207061696420666f7220796574496e76616c696420566f7465722e2043616e206e6f74206d616b65206120566f74696e67546f6b656ea165627a7a72305820f9e4dd9fdc0755386521dc8566d4a530dfb70c5d695d375522da976ad1127d270029546865726520616c72656164792065786973747320612050726f706f73616c20666f722074686973206163636f756e74416e206163636f756e742063616e206e6f74207265636f76657220697473656c66a165627a7a72305820aa585355e50dcd9a50161bbfde826f75921ec21e6e529009915772ce7149f1f00029",
  "source": "/* ProposalManager.sol */\r\n\r\npragma solidity >=0.4.0 <0.7.0;\r\n\r\nimport \"../contracts/UserManager.sol\";\r\nimport \"../contracts/TransactionManager.sol\";\r\nimport \"../contracts/Proposal.sol\";\r\n\r\nimport \"../contracts/Set.sol\";\r\n\r\n/* <Summary> \r\n\tThis contract manages all active proposal as well as makes and concludes proposals.\r\n*/\r\n\r\ncontract ProposalManager {\r\n\tusing Set for Set.Data;\r\n\r\n\tUserManager UserManagerInstance;\t\t\t\t// Connects to the list of users on the network\r\n\tTransactionManager TransactionManagerInstance;\t// Connects to the transaction data on the network\r\n\r\n\t// These arrays are used when creating Proposals. Needed to be on storage to use .push()\r\n\r\n\tSet.Data tradePartners;\t\t\t\t\t\t\t// List of trade partners indicated by the new account\r\n\taddress[] haveTradedWith;\r\n\r\n\tmapping (address => mapping (address => Proposal[]) ) activeProposals; // Map of active proposals\r\n\t\t\t\t\t\t\t\t\t\t\t\t\t// Old Account -> New Account -> Proposal\r\n\r\n\t// Used to originally deploy the contract\r\n\tconstructor(address UserManagerAddress, address TransactionManagerAddress ) public {\r\n\t\tUserManagerInstance = UserManager(UserManagerAddress);\r\n\t\tTransactionManagerInstance = TransactionManager(TransactionManagerAddress);\r\n\t}\r\n\t\r\n\tfunction StartProposal(address _oldAccount, string calldata _description) external returns (uint) {\r\n\t\trequire(_oldAccount != msg.sender, \"An account can not recover itself\");\r\n\t\trequire(_oldAccount != 0x0000000000000000000000000000000000000000, \"There is no oldAccount\");\r\n\t\trequire(activeProposals[_oldAccount][msg.sender].length == 0, \"There already exists a Proposal for this account\");\r\n\r\n\t\tuint price = CalculatePrice(_oldAccount);\t\t\t// Calculates the price of the account recovery\r\n\r\n\t\t// Creates Proposal and adds it to the active proposal map\r\n\t\tactiveProposals[_oldAccount][msg.sender].push(new Proposal(_oldAccount, msg.sender, _description, price));\r\n\t\treturn price;\r\n\t}\r\n\r\n\tfunction Pay(address _oldAccount, bool _pay) external {\r\n\t\tif (_pay){\r\n\t\t\tPerson newAccount = UserManagerInstance.getUser(msg.sender); // Finds the person in the network\r\n\t\t\tgetActiveProposal(_oldAccount, msg.sender).Pay(newAccount);\r\n\t\t}else{\r\n\t\t\tdelete activeProposals[_oldAccount][msg.sender]; // Deletes proposal\r\n\t\t}\r\n\t}\r\n\r\n\tfunction AddTradePartners(address _oldAccount, address[] calldata _tradePartners) external{\r\n\t\t\r\n\t\tFindtradePartners(_oldAccount, msg.sender, _tradePartners); // Checks if indicated partners have transactions \t\t\r\n\t\trequire(tradePartners.getValuesLength() >= 1, \"Invalid Number of tradePartners\");\r\n\r\n\t\tFindOtherAddresses(_oldAccount, msg.sender);\t\t\t// Finds other trade partners to quiz\r\n\t\t// require(otherPartners.getValuesLength() >= 2, \"Invalid Number of otherPartners\");\r\n\r\n\t\t// Creates Proposal and adds it to the active proposal map\r\n\t\tgetActiveProposal(_oldAccount, msg.sender).AddTradePartners(tradePartners.getValues(), haveTradedWith);\r\n\r\n\t\tdelete tradePartners;\r\n\t\tdelete haveTradedWith;\r\n\t}\r\n\r\n\tfunction FindRandomTradingPartner(address _oldAccount) external returns (address) {\r\n\t\treturn getActiveProposal(_oldAccount, msg.sender).FindRandomTradingPartner();\r\n\t}\r\n\r\n\tfunction AddRandomTradingPartner(address _oldAccount, bool choice) external {\r\n\t\tif (choice){\r\n\t\t\tgetActiveProposal(_oldAccount, msg.sender).AddRandomTradingPartner();\r\n\r\n\t\t}\r\n\t}\r\n\r\n\t// Checks if indicated trade partners actually have transactions with the old account\r\n\tfunction FindtradePartners(address oldAccount, address newAccount, address[] memory _tradePartners) internal {\r\n\t\tfor (uint i = 0; i < _tradePartners.length; i++){\t// For each partner\r\n\t\t\tif (newAccount != _tradePartners[i]){\t\t\t// The new account can not be a voter\r\n\t\t\t\t// They have made a transaction with the old account\r\n\t\t\t\tif (TransactionManagerInstance.getTransactions(oldAccount, _tradePartners[i]).length > 0){\r\n\t\t\t\t\ttradePartners.insert(_tradePartners[i]);\r\n\t\t\t\t}\r\n\t\t\t}\r\n\t\t}\r\n\t}\r\n\r\n\t// Finds other trade partners that are used to quiz the new account. These are random\r\n\tfunction FindOtherAddresses(address oldAccount, address newAccount) internal {\r\n\t\taddress[] memory addresses = UserManagerInstance.getAddresses(); // List of addresses on the network\r\n\r\n\t\tfor (uint i = 0; i < addresses.length; i++){\t\t// For each address\r\n\t\t\tif (newAccount != addresses[i]){\t\t\t\t// The new account can not be a voter\r\n\t\t\t\t// They have made a transaction with the old account\r\n\t\t\t\tif (TransactionManagerInstance.getTransactions(oldAccount, addresses[i]).length > 0){\r\n\t\t\t\t\tif (!tradePartners.contains(addresses[i])){\r\n\t\t\t\t\t\thaveTradedWith.push(addresses[i]);\r\n\t\t\t\t\t}\r\n\t\t\t\t}\r\n\t\t\t}\r\n\t\t}\r\n\r\n\t\trequire(haveTradedWith.length >= 3, \"Invalid Number of haveTradedWith\");\r\n\t}\r\n\r\n\t// Calculates the price of recovering an account\r\n\tfunction CalculatePrice(address _oldAccount) internal view returns (uint) {\r\n\t\tuint balance = UserManagerInstance.getUser(_oldAccount).balance();\r\n\t\treturn balance / 20;\t\t\t\t\t\t// 5% of the old account's balance\r\n\t}\r\n\r\n\t// Finds proposal and makes voting token for a specified voter\r\n\tfunction MakeVotingToken(address oldAccount, address _voter, string memory _description) public {\r\n\t\tgetActiveProposal(oldAccount, msg.sender).MakeVotingToken(oldAccount, _voter, _description);\r\n\t}\r\n\r\n\t// Makes a set of data for a transaction of one of the trade partners. Checks this data \r\n\tfunction MakeTransactionDataSet(address oldAccount, uint timeStamp, uint _amount, address _voter, \r\n\t\tstring memory _description, string memory _itemsInTrade) public {\r\n\r\n\t\t// Transactions in the network between the old account and the voter\r\n\t\tTransaction[] memory transaction = TransactionManagerInstance.getTransactions(oldAccount, _voter);\r\n\r\n\t\tbool found = false;\t\t\t\t\t\t\t// Does the transaction exist\r\n\t\tfor (uint i = 0; i < transaction.length; i++){\r\n\t\t\tif (transaction[i].Equal(timeStamp, oldAccount, _voter, _amount)){\r\n\t\t\t\tfound = true;\t\t\t\t\t\t// The transaction does exist\r\n\t\t\t}\r\n\t\t}\r\n\t\trequire( found == true, \"This transaction does not exist\");\r\n\r\n\t\t// Finds proposal and creates set of data \r\n\t\tgetActiveProposal(oldAccount, msg.sender).AddTransactionDataSet(timeStamp, _voter, _amount, _description, _itemsInTrade);\r\n\t}\r\n\r\n/*\r\n\t// Counts up votes and distriputes the reward\r\n\tfunction ConcludeAccountRecovery(address _oldAccount) public returns (bool){\r\n\t\tif (msg.sender == _oldAccount){\t\t\t\t// Veto from the old account\r\n\t\t\tdelete activeProposals[_oldAccount][msg.sender]; // Deletes proposal\r\n\t\t\treturn false;\r\n\t\t}else{\t\t\t\t\t\t\t\t\t\t// The msg.sender == new account\r\n\r\n\t\t\t// Checks outcome of vote\r\n\t\t\tif (getActiveProposal(_oldAccount, msg.sender).ConcludeAccountRecovery(UserManagerInstance)){\r\n\r\n\t\t\t\t// Finds old account and new account on the network\r\n\t\t\t\tPerson oldAccount = UserManagerInstance.getUser(_oldAccount);\r\n\t\t\t\tPerson newAccount = UserManagerInstance.getUser(msg.sender);\r\n\r\n\t\t\t\t// Transfers balance\r\n\t\t\t\tnewAccount.increaseBalance(oldAccount.balance());\r\n\t\t\t\toldAccount.decreaseBalance(oldAccount.balance());\r\n\r\n\t\t\t\tdelete activeProposals[_oldAccount][msg.sender]; // Deletes proposal\r\n\t\t\t\treturn true;\r\n\t\t\t}else{\r\n\t\t\t\tdelete activeProposals[_oldAccount][msg.sender]; // Deletes proposal\r\n\t\t\t\treturn false;\r\n\t\t\t}\r\n\t\t}\r\n\t}\r\n\r\n\t// Allows a voter to cast a vote on a proposal\r\n\tfunction CastVote(address oldAccount, address newAccount, bool choice) public {\r\n\t\tgetActiveProposal(oldAccount, newAccount).CastVote(msg.sender, choice);\r\n\t}\r\n\r\n\t// View public information on a set of data for a transaction\r\n\tfunction ViewPublicInformation(address oldAccount, address newAccount, uint i) public view returns (uint, uint, address, address)\t{\r\n\t\treturn getActiveProposal(oldAccount, newAccount).ViewPublicInformation( msg.sender, i );\r\n\t}\r\n\r\n\t// View private information on a set of data for a transaction\r\n\tfunction ViewPrivateInformation(address oldAccount, address newAccount, uint i) public view returns (string memory, string memory)\t{\r\n\t\treturn getActiveProposal(oldAccount, newAccount).ViewPrivateInformation( msg.sender, i );\r\n\t}\r\n\t*/\r\n\r\n\t// Find the active proposal between _oldAccount and _newAccount\r\n\tfunction getActiveProposal(address _oldAccount, address _newAccount) internal view returns (Proposal) {\r\n\t\trequire(activeProposals[_oldAccount][_newAccount].length == 1, \"There is no active Proposal\");\r\n\t\treturn activeProposals[_oldAccount][_newAccount][0];\r\n\t}\r\n}\r\n",
  "sourcePath": "C:/Users/m5w5b/Desktop/GitHub/game-dapp/AccountRecovery/contracts/ProposalManager.sol",
  "compiler": {
    "name": "solc",
    "version": "0.5.8+commit.23d335f2.Emscripten.clang"
  },
  "schemaVersion": "3.0.16",
  "updatedAt": "2019-10-18T01:34:36.537Z",
  "devdoc": {
    "methods": {}
  },
  "userdoc": {
    "methods": {}
  }
}