{
  "contractName": "Proposal",
  "abi": [
    {
      "constant": true,
      "inputs": [],
      "name": "price",
      "outputs": [
        {
          "name": "",
          "type": "uint256"
        }
      ],
      "payable": false,
      "stateMutability": "view",
      "type": "function"
    },
    {
      "inputs": [
        {
          "name": "_oldAccount",
          "type": "address"
        },
        {
          "name": "_newAccount",
          "type": "address"
        },
        {
          "name": "_description",
          "type": "string"
        },
        {
          "name": "_price",
          "type": "uint256"
        }
      ],
      "payable": false,
      "stateMutability": "nonpayable",
      "type": "constructor"
    },
    {
      "constant": false,
      "inputs": [
        {
          "name": "_newAccount",
          "type": "address"
        }
      ],
      "name": "Pay",
      "outputs": [],
      "payable": false,
      "stateMutability": "nonpayable",
      "type": "function"
    },
    {
      "constant": false,
      "inputs": [
        {
          "name": "_tradePartners",
          "type": "address[]"
        },
        {
          "name": "_archivedVoters",
          "type": "address[]"
        },
        {
          "name": "UserManagerInstance",
          "type": "address"
        },
        {
          "name": "TransactionManagerInstance",
          "type": "address"
        }
      ],
      "name": "AddTradePartners",
      "outputs": [],
      "payable": false,
      "stateMutability": "nonpayable",
      "type": "function"
    },
    {
      "constant": false,
      "inputs": [],
      "name": "FindRandomTradingPartner",
      "outputs": [],
      "payable": false,
      "stateMutability": "nonpayable",
      "type": "function"
    },
    {
      "constant": true,
      "inputs": [],
      "name": "ViewRandomTradingPartner",
      "outputs": [
        {
          "name": "",
          "type": "address"
        }
      ],
      "payable": false,
      "stateMutability": "view",
      "type": "function"
    },
    {
      "constant": false,
      "inputs": [],
      "name": "AddRandomTradingPartner",
      "outputs": [],
      "payable": false,
      "stateMutability": "nonpayable",
      "type": "function"
    },
    {
      "constant": false,
      "inputs": [
        {
          "name": "_oldAccount",
          "type": "address"
        },
        {
          "name": "_voter",
          "type": "address"
        },
        {
          "name": "_description",
          "type": "string"
        }
      ],
      "name": "MakeVotingToken",
      "outputs": [],
      "payable": false,
      "stateMutability": "nonpayable",
      "type": "function"
    },
    {
      "constant": false,
      "inputs": [
        {
          "name": "_voter",
          "type": "address"
        },
        {
          "name": "choice",
          "type": "bool"
        }
      ],
      "name": "CastVote",
      "outputs": [],
      "payable": false,
      "stateMutability": "nonpayable",
      "type": "function"
    },
    {
      "constant": false,
      "inputs": [
        {
          "name": "UserManagerInstance",
          "type": "address"
        }
      ],
      "name": "ConcludeAccountRecovery",
      "outputs": [
        {
          "name": "",
          "type": "int256"
        }
      ],
      "payable": false,
      "stateMutability": "nonpayable",
      "type": "function"
    },
    {
      "constant": false,
      "inputs": [
        {
          "name": "_timeStamp",
          "type": "uint256"
        },
        {
          "name": "_voter",
          "type": "address"
        },
        {
          "name": "_amount",
          "type": "uint256"
        },
        {
          "name": "_description",
          "type": "string"
        },
        {
          "name": "_itemsInTrade",
          "type": "string"
        }
      ],
      "name": "AddTransactionDataSet",
      "outputs": [],
      "payable": false,
      "stateMutability": "nonpayable",
      "type": "function"
    },
    {
      "constant": true,
      "inputs": [
        {
          "name": "_voter",
          "type": "address"
        },
        {
          "name": "i",
          "type": "uint256"
        }
      ],
      "name": "ViewPublicInformation",
      "outputs": [
        {
          "name": "",
          "type": "uint256"
        },
        {
          "name": "",
          "type": "uint256"
        },
        {
          "name": "",
          "type": "address"
        },
        {
          "name": "",
          "type": "address"
        }
      ],
      "payable": false,
      "stateMutability": "view",
      "type": "function"
    },
    {
      "constant": true,
      "inputs": [
        {
          "name": "_voter",
          "type": "address"
        },
        {
          "name": "i",
          "type": "uint256"
        }
      ],
      "name": "ViewPrivateInformation",
      "outputs": [
        {
          "name": "",
          "type": "string"
        },
        {
          "name": "",
          "type": "string"
        }
      ],
      "payable": false,
      "stateMutability": "view",
      "type": "function"
    },
    {
      "constant": true,
      "inputs": [],
      "name": "getVoters",
      "outputs": [
        {
          "name": "",
          "type": "address[]"
        }
      ],
      "payable": false,
      "stateMutability": "view",
      "type": "function"
    }
  ],
  "bytecode": "0x60806040526000600760006101000a81548173ffffffffffffffffffffffffffffffffffffffff021916908373ffffffffffffffffffffffffffffffffffffffff1602179055506000600b556000600e60006101000a81548160ff021916908360ff1602179055506003600e60016101000a81548160ff021916908360ff1602179055506000600e60026101000a81548160ff021916908315150217905550348015620000ab57600080fd5b5060405162003ea038038062003ea083398101806040526080811015620000d157600080fd5b8101908080519060200190929190805190602001909291908051640100000000811115620000fe57600080fd5b828101905060208101848111156200011557600080fd5b81518560018202830111640100000000821117156200013357600080fd5b50509291906020018051906020019092919050505083600860006101000a81548173ffffffffffffffffffffffffffffffffffffffff021916908373ffffffffffffffffffffffffffffffffffffffff16021790555082600960006101000a81548173ffffffffffffffffffffffffffffffffffffffff021916908373ffffffffffffffffffffffffffffffffffffffff16021790555081600a9080519060200190620001e2929190620001fb565b5080600c8190555042600d8190555050505050620002aa565b828054600181600116156101000203166002900490600052602060002090601f016020900481019282601f106200023e57805160ff19168380011785556200026f565b828001600101855582156200026f579182015b828111156200026e57825182559160200191906001019062000251565b5b5090506200027e919062000282565b5090565b620002a791905b80821115620002a357600081600090555060010162000289565b5090565b90565b613be680620002ba6000396000f3fe608060405234801561001057600080fd5b50600436106100cf5760003560e01c8063cdd722531161008c578063e8d94c0011610066578063e8d94c001461041c578063f91ac899146104d5578063fa041dd714610608578063fac0328d14610658576100cf565b8063cdd72253146102aa578063cde596b214610309578063e628c2e01461034d576100cf565b80630d2cea2c146100d457806319e5fba01461012c578063512b84261461022e5780638db5d0d214610238578063a035b1fe14610282578063ae70981f146102a0575b600080fd5b610116600480360360208110156100ea57600080fd5b81019080803573ffffffffffffffffffffffffffffffffffffffff169060200190929190505050610766565b6040518082815260200191505060405180910390f35b61022c600480360360a081101561014257600080fd5b8101908080359060200190929190803573ffffffffffffffffffffffffffffffffffffffff169060200190929190803590602001909291908035906020019064010000000081111561019357600080fd5b8201836020820111156101a557600080fd5b803590602001918460018302840111640100000000831117156101c757600080fd5b9091929391929390803590602001906401000000008111156101e857600080fd5b8201836020820111156101fa57600080fd5b8035906020019184600183028401116401000000008311171561021c57600080fd5b90919293919293905050506112bb565b005b610236611625565b005b61024061193b565b604051808273ffffffffffffffffffffffffffffffffffffffff1673ffffffffffffffffffffffffffffffffffffffff16815260200191505060405180910390f35b61028a611965565b6040518082815260200191505060405180910390f35b6102a861196b565b005b6102b2611c23565b6040518080602001828103825283818151815260200191508051906020019060200280838360005b838110156102f55780820151818401526020810190506102da565b505050509050019250505060405180910390f35b61034b6004803603602081101561031f57600080fd5b81019080803573ffffffffffffffffffffffffffffffffffffffff169060200190929190505050611d0d565b005b6103996004803603604081101561036357600080fd5b81019080803573ffffffffffffffffffffffffffffffffffffffff16906020019092919080359060200190929190505050611e73565b604051808581526020018481526020018373ffffffffffffffffffffffffffffffffffffffff1673ffffffffffffffffffffffffffffffffffffffff1681526020018273ffffffffffffffffffffffffffffffffffffffff1673ffffffffffffffffffffffffffffffffffffffff16815260200194505050505060405180910390f35b6104d36004803603606081101561043257600080fd5b81019080803573ffffffffffffffffffffffffffffffffffffffff169060200190929190803573ffffffffffffffffffffffffffffffffffffffff1690602001909291908035906020019064010000000081111561048f57600080fd5b8201836020820111156104a157600080fd5b803590602001918460018302840111640100000000831117156104c357600080fd5b9091929391929390505050611f93565b005b610521600480360360408110156104eb57600080fd5b81019080803573ffffffffffffffffffffffffffffffffffffffff1690602001909291908035906020019092919050505061249c565b604051808060200180602001838103835285818151815260200191508051906020019080838360005b8381101561056557808201518184015260208101905061054a565b50505050905090810190601f1680156105925780820380516001836020036101000a031916815260200191505b50838103825284818151815260200191508051906020019080838360005b838110156105cb5780820151818401526020810190506105b0565b50505050905090810190601f1680156105f85780820380516001836020036101000a031916815260200191505b5094505050505060405180910390f35b6106566004803603604081101561061e57600080fd5b81019080803573ffffffffffffffffffffffffffffffffffffffff16906020019092919080351515906020019092919050505061263a565b005b6107646004803603608081101561066e57600080fd5b810190808035906020019064010000000081111561068b57600080fd5b82018360208201111561069d57600080fd5b803590602001918460208302840111640100000000831117156106bf57600080fd5b9091929391929390803590602001906401000000008111156106e057600080fd5b8201836020820111156106f257600080fd5b8035906020019184602083028401116401000000008311171561071457600080fd5b9091929391929390803573ffffffffffffffffffffffffffffffffffffffff169060200190929190803573ffffffffffffffffffffffffffffffffffffffff1690602001909291905050506126fd565b005b6000600273__Set___________________________________63674a64ec90916040518263ffffffff1660e01b81526004018082815260200191505060206040518083038186803b1580156107ba57600080fd5b505af41580156107ce573d6000803e3d6000fd5b505050506040513d60208110156107e457600080fd5b8101908080519060200190929190505050600e60009054906101000a900460ff1660ff161461085e576040517f08c379a0000000000000000000000000000000000000000000000000000000008152600401808060200182810382526025815260200180613a566025913960400191505060405180910390fd5b60008273ffffffffffffffffffffffffffffffffffffffff16636f77926b600860009054906101000a900473ffffffffffffffffffffffffffffffffffffffff166040518263ffffffff1660e01b8152600401808273ffffffffffffffffffffffffffffffffffffffff1673ffffffffffffffffffffffffffffffffffffffff16815260200191505060206040518083038186803b1580156108ff57600080fd5b505afa158015610913573d6000803e3d6000fd5b505050506040513d602081101561092957600080fd5b81019080805190602001909291905050509050600d5442038173ffffffffffffffffffffffffffffffffffffffff1663b7f688526040518163ffffffff1660e01b815260040160206040518083038186803b15801561098757600080fd5b505afa15801561099b573d6000803e3d6000fd5b505050506040513d60208110156109b157600080fd5b810190808051906020019092919050505011156109f1577fffffffffffffffffffffffffffffffffffffffffffffffffffffffffffffffff9150506112b6565b6000806109fc6132ff565b915091506005811015610a4f576202a300600d5442031015610a2457603c93505050506112b6565b7fffffffffffffffffffffffffffffffffffffffffffffffffffffffffffffffff93505050506112b6565b60006042828460640281610a5f57fe5b0410159050600060029050600060029050600060019050600080905060008090505b600273__Set___________________________________63674a64ec90916040518263ffffffff1660e01b81526004018082815260200191505060206040518083038186803b158015610ad357600080fd5b505af4158015610ae7573d6000803e3d6000fd5b505050506040513d6020811015610afd57600080fd5b8101908080519060200190929190505050811015610c8d57600060016000600273__Set___________________________________63df763a9d9091866040518363ffffffff1660e01b8152600401808381526020018281526020019250505060206040518083038186803b158015610b7557600080fd5b505af4158015610b89573d6000803e3d6000fd5b505050506040513d6020811015610b9f57600080fd5b810190808051906020019092919050505073ffffffffffffffffffffffffffffffffffffffff1673ffffffffffffffffffffffffffffffffffffffff16815260200190815260200160002060000190508073__VotingToken___________________________63ffef631c90916040518263ffffffff1660e01b81526004018082815260200191505060206040518083038186803b158015610c4057600080fd5b505af4158015610c54573d6000803e3d6000fd5b505050506040513d6020811015610c6a57600080fd5b810190808051906020019092919050505083019250508080600101915050610a81565b506000868281610c9957fe5b04905060008090505b600273__Set___________________________________63674a64ec90916040518263ffffffff1660e01b81526004018082815260200191505060206040518083038186803b158015610cf457600080fd5b505af4158015610d08573d6000803e3d6000fd5b505050506040513d6020811015610d1e57600080fd5b810190808051906020019092919050505081101561129c57600060016000600273__Set___________________________________63df763a9d9091866040518363ffffffff1660e01b8152600401808381526020018281526020019250505060206040518083038186803b158015610d9657600080fd5b505af4158015610daa573d6000803e3d6000fd5b505050506040513d6020811015610dc057600080fd5b810190808051906020019092919050505073ffffffffffffffffffffffffffffffffffffffff1673ffffffffffffffffffffffffffffffffffffffff16815260200190815260200160002060000190508073__VotingToken___________________________63117d52aa90916040518263ffffffff1660e01b81526004018082815260200191505060206040518083038186803b158015610e6157600080fd5b505af4158015610e75573d6000803e3d6000fd5b505050506040513d6020811015610e8b57600080fd5b81019080805190602001909291905050501561128e5760008988600c5481610eaf57fe5b0481610eb757fe5b049050888015610f4f57508173__VotingToken___________________________63fb84fe7b90916040518263ffffffff1660e01b81526004018082815260200191505060206040518083038186803b158015610f1357600080fd5b505af4158015610f27573d6000803e3d6000fd5b505050506040513d6020811015610f3d57600080fd5b81019080805190602001909291905050505b15610f72578a87600c5481610f6057fe5b0481610f6857fe5b048101905061102b565b8815801561100957508173__VotingToken___________________________63fb84fe7b90916040518263ffffffff1660e01b81526004018082815260200191505060206040518083038186803b158015610fcc57600080fd5b505af4158015610fe0573d6000803e3d6000fd5b505050506040513d6020811015610ff657600080fd5b8101908080519060200190929190505050155b1561102a578a8a0387600c548161101c57fe5b048161102457fe5b04810190505b5b858273__VotingToken___________________________63ffef631c90916040518263ffffffff1660e01b81526004018082815260200191505060206040518083038186803b15801561107d57600080fd5b505af4158015611091573d6000803e3d6000fd5b505050506040513d60208110156110a757600080fd5b81019080805190602001909291905050508503816110c157fe5b0481019050600081111561128c5760008e73ffffffffffffffffffffffffffffffffffffffff16636f77926b600273__Set___________________________________63df763a9d9091886040518363ffffffff1660e01b8152600401808381526020018281526020019250505060206040518083038186803b15801561114757600080fd5b505af415801561115b573d6000803e3d6000fd5b505050506040513d602081101561117157600080fd5b81019080805190602001909291905050506040518263ffffffff1660e01b8152600401808273ffffffffffffffffffffffffffffffffffffffff1673ffffffffffffffffffffffffffffffffffffffff16815260200191505060206040518083038186803b1580156111e257600080fd5b505afa1580156111f6573d6000803e3d6000fd5b505050506040513d602081101561120c57600080fd5b810190808051906020019092919050505090508073ffffffffffffffffffffffffffffffffffffffff16633e4ccb40836040518263ffffffff1660e01b815260040180828152602001915050600060405180830381600087803b15801561127257600080fd5b505af1158015611286573d6000803e3d6000fd5b50505050505b505b508080600101915050610ca2565b508688606402816112a957fe5b0499505050505050505050505b919050565b600273__Set___________________________________63fe6949e39091886040518363ffffffff1660e01b8152600401808381526020018273ffffffffffffffffffffffffffffffffffffffff1673ffffffffffffffffffffffffffffffffffffffff1681526020019250505060206040518083038186803b15801561134157600080fd5b505af4158015611355573d6000803e3d6000fd5b505050506040513d602081101561136b57600080fd5b81019080805190602001909291905050506113d1576040517f08c379a0000000000000000000000000000000000000000000000000000000008152600401808060200182810382526029815260200180613b926029913960400191505060405180910390fd5b6000808773ffffffffffffffffffffffffffffffffffffffff1673ffffffffffffffffffffffffffffffffffffffff1681526020019081526020016000206040518060c0016040528086868080601f016020809104026020016040519081016040528093929190818152602001838380828437600081840152601f19601f82011690508083019250505050505050815260200184848080601f016020809104026020016040519081016040528093929190818152602001838380828437600081840152601f19601f820116905080830192505050505050508152602001600860009054906101000a900473ffffffffffffffffffffffffffffffffffffffff1673ffffffffffffffffffffffffffffffffffffffff1681526020018873ffffffffffffffffffffffffffffffffffffffff168152602001898152602001878152509080600181540180825580915050906001820390600052602060002090600602016000909192909190915060008201518160000190805190602001906115599291906138fc565b5060208201518160010190805190602001906115769291906138fc565b5060408201518160020160006101000a81548173ffffffffffffffffffffffffffffffffffffffff021916908373ffffffffffffffffffffffffffffffffffffffff16021790555060608201518160030160006101000a81548173ffffffffffffffffffffffffffffffffffffffff021916908373ffffffffffffffffffffffffffffffffffffffff1602179055506080820151816004015560a0820151816005015550505050505050505050565b600073ffffffffffffffffffffffffffffffffffffffff16600760009054906101000a900473ffffffffffffffffffffffffffffffffffffffff1673ffffffffffffffffffffffffffffffffffffffff1614156116cd576040517f08c379a000000000000000000000000000000000000000000000000000000000815260040180806020018281038252602b815260200180613af8602b913960400191505060405180910390fd5b600273__Set___________________________________63fe6949e39091600760009054906101000a900473ffffffffffffffffffffffffffffffffffffffff166040518363ffffffff1660e01b8152600401808381526020018273ffffffffffffffffffffffffffffffffffffffff1673ffffffffffffffffffffffffffffffffffffffff1681526020019250505060206040518083038186803b15801561177557600080fd5b505af4158015611789573d6000803e3d6000fd5b505050506040513d602081101561179f57600080fd5b810190808051906020019092919050505015611823576040517f08c379a000000000000000000000000000000000000000000000000000000000815260040180806020018281038252601a8152602001807f416c72656164792061646465642074686174206164647265737300000000000081525060200191505060405180910390fd5b600e600181819054906101000a900460ff168092919060010191906101000a81548160ff021916908360ff16021790555050600273__Set___________________________________635df0a15c9091600760009054906101000a900473ffffffffffffffffffffffffffffffffffffffff166040518363ffffffff1660e01b8152600401808381526020018273ffffffffffffffffffffffffffffffffffffffff1673ffffffffffffffffffffffffffffffffffffffff1681526020019250505060206040518083038186803b1580156118fd57600080fd5b505af4158015611911573d6000803e3d6000fd5b505050506040513d602081101561192757600080fd5b810190808051906020019092919050505050565b6000600760009054906101000a900473ffffffffffffffffffffffffffffffffffffffff16905090565b600c5481565b6000600b54116119c6576040517f08c379a0000000000000000000000000000000000000000000000000000000008152600401808060200182810382526037815260200180613ac16037913960400191505060405180910390fd5b6000600e60019054906101000a900460ff1660ff1611611a31576040517f08c379a0000000000000000000000000000000000000000000000000000000008152600401808060200182810382526023815260200180613b6f6023913960400191505060405180910390fd5b600e600181819054906101000a900460ff16809291906001900391906101000a81548160ff021916908360ff160217905550506000611a97600760009054906101000a900473ffffffffffffffffffffffffffffffffffffffff166006805490506135cf565b60ff16905060068181548110611aa957fe5b9060005260206000200160009054906101000a900473ffffffffffffffffffffffffffffffffffffffff16600760006101000a81548173ffffffffffffffffffffffffffffffffffffffff021916908373ffffffffffffffffffffffffffffffffffffffff16021790555060008190505b600160068054905003811015611bc75760066001820181548110611b3a57fe5b9060005260206000200160009054906101000a900473ffffffffffffffffffffffffffffffffffffffff1660068281548110611b7257fe5b9060005260206000200160006101000a81548173ffffffffffffffffffffffffffffffffffffffff021916908373ffffffffffffffffffffffffffffffffffffffff1602179055508080600101915050611b1a565b50600660016006805490500381548110611bdd57fe5b9060005260206000200160006101000a81549073ffffffffffffffffffffffffffffffffffffffff02191690556006805480919060019003611c1f919061397c565b5050565b6060600273__Set___________________________________633d597e6c90916040518263ffffffff1660e01b81526004018082815260200191505060006040518083038186803b158015611c7757600080fd5b505af4158015611c8b573d6000803e3d6000fd5b505050506040513d6000823e3d601f19601f820116820180604052506020811015611cb557600080fd5b810190808051640100000000811115611ccd57600080fd5b82810190506020810184811115611ce357600080fd5b8151856020820283011164010000000082111715611d0057600080fd5b5050929190505050905090565b600c548173ffffffffffffffffffffffffffffffffffffffff1663b69ef8a86040518163ffffffff1660e01b815260040160206040518083038186803b158015611d5657600080fd5b505afa158015611d6a573d6000803e3d6000fd5b505050506040513d6020811015611d8057600080fd5b81019080805190602001909291905050501015611de8576040517f08c379a0000000000000000000000000000000000000000000000000000000008152600401808060200182810382526022815260200180613a7b6022913960400191505060405180910390fd5b8073ffffffffffffffffffffffffffffffffffffffff1663392aee43600c546040518263ffffffff1660e01b815260040180828152602001915050600060405180830381600087803b158015611e3d57600080fd5b505af1158015611e51573d6000803e3d6000fd5b505050506001600e60026101000a81548160ff02191690831515021790555050565b600080600080611e8286613653565b6000808773ffffffffffffffffffffffffffffffffffffffff1673ffffffffffffffffffffffffffffffffffffffff1681526020019081526020016000208581548110611ecb57fe5b906000526020600020906006020173__TransactionDataSet____________________63b18e919690916040518263ffffffff1660e01b81526004018082815260200191505060806040518083038186803b158015611f2957600080fd5b505af4158015611f3d573d6000803e3d6000fd5b505050506040513d6080811015611f5357600080fd5b8101908080519060200190929190805190602001909291908051906020019092919080519060200190929190505050935093509350935092959194509250565b600b54600273__Set___________________________________63674a64ec90916040518263ffffffff1660e01b81526004018082815260200191505060206040518083038186803b158015611fe857600080fd5b505af4158015611ffc573d6000803e3d6000fd5b505050506040513d602081101561201257600080fd5b810190808051906020019092919050505014612079576040517f08c379a0000000000000000000000000000000000000000000000000000000008152600401808060200182810382526037815260200180613ac16037913960400191505060405180910390fd5b600273__Set___________________________________63fe6949e39091856040518363ffffffff1660e01b8152600401808381526020018273ffffffffffffffffffffffffffffffffffffffff1673ffffffffffffffffffffffffffffffffffffffff1681526020019250505060206040518083038186803b1580156120ff57600080fd5b505af4158015612113573d6000803e3d6000fd5b505050506040513d602081101561212957600080fd5b810190808051906020019092919050505061218f576040517f08c379a0000000000000000000000000000000000000000000000000000000008152600401808060200182810382526029815260200180613b926029913960400191505060405180910390fd5b60001515600160008573ffffffffffffffffffffffffffffffffffffffff1673ffffffffffffffffffffffffffffffffffffffff16815260200190815260200160002060050160009054906101000a900460ff1615151461223b576040517f08c379a0000000000000000000000000000000000000000000000000000000008152600401808060200182810382526025815260200180613b4a6025913960400191505060405180910390fd5b6122436139a8565b6040518060c0016040528084848080601f016020809104026020016040519081016040528093929190818152602001838380828437600081840152601f19601f8201169050808301925050505050505081526020018673ffffffffffffffffffffffffffffffffffffffff1681526020018573ffffffffffffffffffffffffffffffffffffffff16815260200160008152602001600015158152602001600015158152508160000181905250600181602001901515908115158152505080600160008673ffffffffffffffffffffffffffffffffffffffff1673ffffffffffffffffffffffffffffffffffffffff16815260200190815260200160002060008201518160000160008201518160000190805190602001906123659291906138fc565b5060208201518160010160006101000a81548173ffffffffffffffffffffffffffffffffffffffff021916908373ffffffffffffffffffffffffffffffffffffffff16021790555060408201518160020160006101000a81548173ffffffffffffffffffffffffffffffffffffffff021916908373ffffffffffffffffffffffffffffffffffffffff1602179055506060820151816003015560808201518160040160006101000a81548160ff02191690831515021790555060a08201518160040160016101000a81548160ff021916908315150217905550505060208201518160050160006101000a81548160ff021916908315150217905550905050600e600081819054906101000a900460ff168092919060010191906101000a81548160ff021916908360ff160217905550505050505050565b6060806124a884613653565b6000808573ffffffffffffffffffffffffffffffffffffffff1673ffffffffffffffffffffffffffffffffffffffff16815260200190815260200160002083815481106124f157fe5b906000526020600020906006020173__TransactionDataSet____________________63c233d7e890916040518263ffffffff1660e01b81526004018082815260200191505060006040518083038186803b15801561254f57600080fd5b505af4158015612563573d6000803e3d6000fd5b505050506040513d6000823e3d601f19601f82011682018060405250604081101561258d57600080fd5b8101908080516401000000008111156125a557600080fd5b828101905060208101848111156125bb57600080fd5b81518560018202830111640100000000821117156125d857600080fd5b505092919060200180516401000000008111156125f457600080fd5b8281019050602081018481111561260a57600080fd5b815185600182028301116401000000008211171561262757600080fd5b5050929190505050915091509250929050565b61264382613653565b600160008373ffffffffffffffffffffffffffffffffffffffff1673ffffffffffffffffffffffffffffffffffffffff16815260200190815260200160002060000173__VotingToken___________________________632bf6c95f9091836040518363ffffffff1660e01b815260040180838152602001821515151581526020019250505060006040518083038186803b1580156126e157600080fd5b505af41580156126f5573d6000803e3d6000fd5b505050505050565b60011515600e60029054906101000a900460ff16151514612769576040517f08c379a0000000000000000000000000000000000000000000000000000000008152600401808060200182810382526027815260200180613b236027913960400191505060405180910390fd5b60008090505b8484905081101561287157600473__Set___________________________________635df0a15c90918787858181106127a457fe5b9050602002013573ffffffffffffffffffffffffffffffffffffffff166040518363ffffffff1660e01b8152600401808381526020018273ffffffffffffffffffffffffffffffffffffffff1673ffffffffffffffffffffffffffffffffffffffff1681526020019250505060206040518083038186803b15801561282857600080fd5b505af415801561283c573d6000803e3d6000fd5b505050506040513d602081101561285257600080fd5b810190808051906020019092919050505050808060010191505061276f565b5060008090505b86869050811015612c255786868281811061288f57fe5b9050602002013573ffffffffffffffffffffffffffffffffffffffff1673ffffffffffffffffffffffffffffffffffffffff16600960009054906101000a900473ffffffffffffffffffffffffffffffffffffffff1673ffffffffffffffffffffffffffffffffffffffff1614612c185760008273ffffffffffffffffffffffffffffffffffffffff166314ee741f600860009054906101000a900473ffffffffffffffffffffffffffffffffffffffff168a8a8681811061294d57fe5b9050602002013573ffffffffffffffffffffffffffffffffffffffff166040518363ffffffff1660e01b8152600401808373ffffffffffffffffffffffffffffffffffffffff1673ffffffffffffffffffffffffffffffffffffffff1681526020018273ffffffffffffffffffffffffffffffffffffffff1673ffffffffffffffffffffffffffffffffffffffff1681526020019250505060206040518083038186803b1580156129fd57600080fd5b505afa158015612a11573d6000803e3d6000fd5b505050506040513d6020811015612a2757600080fd5b81019080805190602001909291905050501115612c1757600473__Set___________________________________63fe6949e39091898985818110612a6857fe5b9050602002013573ffffffffffffffffffffffffffffffffffffffff166040518363ffffffff1660e01b8152600401808381526020018273ffffffffffffffffffffffffffffffffffffffff1673ffffffffffffffffffffffffffffffffffffffff1681526020019250505060206040518083038186803b158015612aec57600080fd5b505af4158015612b00573d6000803e3d6000fd5b505050506040513d6020811015612b1657600080fd5b8101908080519060200190929190505050612c1657600273__Set___________________________________635df0a15c9091898985818110612b5557fe5b9050602002013573ffffffffffffffffffffffffffffffffffffffff166040518363ffffffff1660e01b8152600401808381526020018273ffffffffffffffffffffffffffffffffffffffff1673ffffffffffffffffffffffffffffffffffffffff1681526020019250505060206040518083038186803b158015612bd957600080fd5b505af4158015612bed573d6000803e3d6000fd5b505050506040513d6020811015612c0357600080fd5b8101908080519060200190929190505050505b5b5b8080600101915050612878565b506003600273__Set___________________________________63674a64ec90916040518263ffffffff1660e01b81526004018082815260200191505060206040518083038186803b158015612c7a57600080fd5b505af4158015612c8e573d6000803e3d6000fd5b505050506040513d6020811015612ca457600080fd5b81019080805190602001909291905050501015612d29576040517f08c379a000000000000000000000000000000000000000000000000000000000815260040180806020018281038252601f8152602001807f496e76616c6964204e756d626572206f66207472616465506172746e6572730081525060200191505060405180910390fd5b60028073__Set___________________________________63674a64ec90916040518263ffffffff1660e01b81526004018082815260200191505060206040518083038186803b158015612d7c57600080fd5b505af4158015612d90573d6000803e3d6000fd5b505050506040513d6020811015612da657600080fd5b810190808051906020019092919050505002600b8190555060608273ffffffffffffffffffffffffffffffffffffffff1663a39fac126040518163ffffffff1660e01b815260040160006040518083038186803b158015612e0657600080fd5b505afa158015612e1a573d6000803e3d6000fd5b505050506040513d6000823e3d601f19601f820116820180604052506020811015612e4457600080fd5b810190808051640100000000811115612e5c57600080fd5b82810190506020810184811115612e7257600080fd5b8151856020820283011164010000000082111715612e8f57600080fd5b5050929190505050905060008090505b815181101561327957818181518110612eb457fe5b602002602001015173ffffffffffffffffffffffffffffffffffffffff16600960009054906101000a900473ffffffffffffffffffffffffffffffffffffffff1673ffffffffffffffffffffffffffffffffffffffff161461326c5760008373ffffffffffffffffffffffffffffffffffffffff166314ee741f600860009054906101000a900473ffffffffffffffffffffffffffffffffffffffff16858581518110612f5d57fe5b60200260200101516040518363ffffffff1660e01b8152600401808373ffffffffffffffffffffffffffffffffffffffff1673ffffffffffffffffffffffffffffffffffffffff1681526020018273ffffffffffffffffffffffffffffffffffffffff1673ffffffffffffffffffffffffffffffffffffffff1681526020019250505060206040518083038186803b158015612ff857600080fd5b505afa15801561300c573d6000803e3d6000fd5b505050506040513d602081101561302257600080fd5b8101908080519060200190929190505050111561326b57600273__Set___________________________________63fe6949e3909184848151811061306357fe5b60200260200101516040518363ffffffff1660e01b8152600401808381526020018273ffffffffffffffffffffffffffffffffffffffff1673ffffffffffffffffffffffffffffffffffffffff1681526020019250505060206040518083038186803b1580156130d257600080fd5b505af41580156130e6573d6000803e3d6000fd5b505050506040513d60208110156130fc57600080fd5b81019080805190602001909291905050501580156131eb5750600473__Set___________________________________63fe6949e3909184848151811061313f57fe5b60200260200101516040518363ffffffff1660e01b8152600401808381526020018273ffffffffffffffffffffffffffffffffffffffff1673ffffffffffffffffffffffffffffffffffffffff1681526020019250505060206040518083038186803b1580156131ae57600080fd5b505af41580156131c2573d6000803e3d6000fd5b505050506040513d60208110156131d857600080fd5b8101908080519060200190929190505050155b1561326a5760068282815181106131fe57fe5b602002602001015190806001815401808255809150509060018203906000526020600020016000909192909190916101000a81548173ffffffffffffffffffffffffffffffffffffffff021916908373ffffffffffffffffffffffffffffffffffffffff160217905550505b5b5b8080600101915050612e9f565b50600360068054905010156132f6576040517f08c379a00000000000000000000000000000000000000000000000000000000081526004018080602001828103825260208152602001807f496e76616c6964204e756d626572206f6620686176655472616465645769746881525060200191505060405180910390fd5b50505050505050565b6000806000809050600080905060008090505b600273__Set___________________________________63674a64ec90916040518263ffffffff1660e01b81526004018082815260200191505060206040518083038186803b15801561336457600080fd5b505af4158015613378573d6000803e3d6000fd5b505050506040513d602081101561338e57600080fd5b81019080805190602001909291905050508110156135c257600060016000600273__Set___________________________________63df763a9d9091866040518363ffffffff1660e01b8152600401808381526020018281526020019250505060206040518083038186803b15801561340657600080fd5b505af415801561341a573d6000803e3d6000fd5b505050506040513d602081101561343057600080fd5b810190808051906020019092919050505073ffffffffffffffffffffffffffffffffffffffff1673ffffffffffffffffffffffffffffffffffffffff16815260200190815260200160002060000190508073__VotingToken___________________________63117d52aa90916040518263ffffffff1660e01b81526004018082815260200191505060206040518083038186803b1580156134d157600080fd5b505af41580156134e5573d6000803e3d6000fd5b505050506040513d60208110156134fb57600080fd5b8101908080519060200190929190505050156135b45783806001019450508073__VotingToken___________________________63fb84fe7b90916040518263ffffffff1660e01b81526004018082815260200191505060206040518083038186803b15801561356a57600080fd5b505af415801561357e573d6000803e3d6000fd5b505050506040513d602081101561359457600080fd5b8101908080519060200190929190505050156135b35782806001019350505b5b508080600101915050613312565b5080829350935050509091565b6000814244855a604051602001808581526020018481526020018373ffffffffffffffffffffffffffffffffffffffff1673ffffffffffffffffffffffffffffffffffffffff1660601b81526014018281526020019450505050506040516020818303038152906040528051906020012060001c8161364a57fe5b06905092915050565b600273__Set___________________________________63fe6949e39091836040518363ffffffff1660e01b8152600401808381526020018273ffffffffffffffffffffffffffffffffffffffff1673ffffffffffffffffffffffffffffffffffffffff1681526020019250505060206040518083038186803b1580156136d957600080fd5b505af41580156136ed573d6000803e3d6000fd5b505050506040513d602081101561370357600080fd5b8101908080519060200190929190505050613769576040517f08c379a0000000000000000000000000000000000000000000000000000000008152600401808060200182810382526029815260200180613b926029913960400191505060405180910390fd5b600273__Set___________________________________63674a64ec90916040518263ffffffff1660e01b81526004018082815260200191505060206040518083038186803b1580156137bb57600080fd5b505af41580156137cf573d6000803e3d6000fd5b505050506040513d60208110156137e557600080fd5b8101908080519060200190929190505050600e60009054906101000a900460ff1660ff161461385f576040517f08c379a0000000000000000000000000000000000000000000000000000000008152600401808060200182810382526025815260200180613a566025913960400191505060405180910390fd5b60008060008373ffffffffffffffffffffffffffffffffffffffff1673ffffffffffffffffffffffffffffffffffffffff16815260200190815260200160002080549050116138f9576040517f08c379a0000000000000000000000000000000000000000000000000000000008152600401808060200182810382526024815260200180613a9d6024913960400191505060405180910390fd5b50565b828054600181600116156101000203166002900490600052602060002090601f016020900481019282601f1061393d57805160ff191683800117855561396b565b8280016001018555821561396b579182015b8281111561396a57825182559160200191906001019061394f565b5b50905061397891906139ca565b5090565b8154818355818111156139a3578183600052602060002091820191016139a291906139ca565b5b505050565b6040518060e001604052806139bb6139ef565b81526020016000151581525090565b6139ec91905b808211156139e85760008160009055506001016139d0565b5090565b90565b6040518060c0016040528060608152602001600073ffffffffffffffffffffffffffffffffffffffff168152602001600073ffffffffffffffffffffffffffffffffffffffff16815260200160008152602001600015158152602001600015158152509056fe48617665206e6f74206372656174656420616c6c2074686520566f74696e67546f6b656e734e6f7420456e6f7567682066756e647320666f7220746869732050726f706f73616c5468657265206973206e6f207472616e73616374696f6e206461746120746f2076696577547261646520706172746e6572732068617665206e6f74206265656e20616464656420746f2074686973207965742070726f706f73616c4861766520746f2066696e6420612072616e646f6d2074726164696e6720706172746e6572206669727374546869732070726f706f73616c20686173206e6f74206265656e207061696420666f72207965745468697320766f74657220616c726561647920686173206120766f74696e6720746f6b656e43616e206e6f74207665746f20616e79206d6f72652072616e646f6d20766f74657273496e76616c696420566f7465722e2043616e206e6f74206d616b65206120566f74696e67546f6b656ea165627a7a7230582075a11c52b511e8f3dd6a328a7f1ed94797283272fbd98485fe5e58bb99474e0e0029",
  "source": "/* Proposal.sol */\r\n\r\npragma solidity >=0.4.0 <0.7.0;\r\n\r\nimport \"../contracts/Person.sol\";\r\nimport \"../contracts/UserManager.sol\";\r\n\r\nimport \"../contracts/Set.sol\";\r\nimport \"../contracts/VotingToken.sol\";\r\nimport \"../contracts/TransactionDataSet.sol\";\r\n\r\n/* <Summary> \r\n\tThis contract manages one active proposal: Casts Votes, Tallies votes, give rewards\r\n*/\r\n\r\ncontract Proposal {\r\n\tusing Set for Set.Data;\r\n\tusing VotingToken for VotingToken.Token;\r\n\tusing TransactionDataSet for TransactionDataSet.DataSet;\r\n\r\n\tstruct VotingTokenPair {\r\n\t\tVotingToken.Token token;\r\n\t\tbool exists;\r\n\t}\r\n\r\n\tmapping (address => TransactionDataSet.DataSet[]) transactionDataSets; // Map of active proposals\r\n\r\n\tmapping (address => VotingTokenPair) votingtokens;// Active Voting Tokens\r\n\tSet.Data voters;\t\t\t\t\t\t\t\t\t// Addresses who are eligible to vote\r\n\tSet.Data archivedVoters;\r\n\r\n\taddress[] haveTradedWith;\r\n\r\n\taddress lastOtherPartner = 0x0000000000000000000000000000000000000000;\r\n\taddress oldAccount;\t\t\t\t\t\t\t\t\t// Address of the old account\r\n\taddress newAccount;\t\t\t\t\t\t\t\t\t// Address of the new account\r\n\tstring description;\t\t\t\t\t\t\t\t\t// Description of Proposal\r\n\t\r\n\tuint numberOfVoters = 0;\r\n\tuint public price;\t\t\t\t\t\t\t\t\t// Price of the account recovery\r\n\tuint startTime;\r\n\tuint8 VotingTokenCreated = 0;\t\t\t\t\t\t// Number of Voting tokens created\r\n\tuint8 randomVoterVetos = 3;\r\n\tbool paided = false;\r\n\r\n\r\n\tconstructor(address _oldAccount, address _newAccount, string memory _description, uint _price) public {\r\n\t\t// Set variable\r\n\t\toldAccount = _oldAccount;\r\n\t\tnewAccount = _newAccount;\r\n\t\t\r\n\t\tdescription = _description;\r\n\t\tprice = _price;\r\n\t\tstartTime = block.timestamp;\r\n\t}\r\n\r\n\tfunction Pay(Person _newAccount) external {\r\n\t\trequire(_newAccount.balance() >= price, \"Not Enough funds for this Proposal\");\r\n\t\t_newAccount.decreaseBalance(price);\t\t\t// Removes money from the new account\r\n\t\tpaided = true;\t\t\t\t\t\t\t\t// The proposal has been paid for\r\n\t}\r\n\r\n\tfunction AddTradePartners(address[] calldata _tradePartners, address[] calldata _archivedVoters, UserManager UserManagerInstance, TransactionManager TransactionManagerInstance) external {\r\n\t\trequire(paided == true, \"This proposal has not been paid for yet\");\r\n\r\n\t\tfor (uint i = 0; i < _archivedVoters.length; i++){\r\n\t\t\tarchivedVoters.insert(_archivedVoters[i]);\r\n\t\t}\r\n\r\n\r\n\t\tfor (uint i = 0; i < _tradePartners.length; i++){\t// For each partner\r\n\t\t\tif (newAccount != _tradePartners[i]){\t\t\t// The new account can not be a voter\r\n\t\t\t\t// They have made a transaction with the old account\r\n\t\t\t\tif (TransactionManagerInstance.NumberOfTransactions(oldAccount, _tradePartners[i]) > 0){\r\n\t\t\t\t\tif (!archivedVoters.contains(_tradePartners[i])){\t\t\t// This address is not already a voter\r\n\t\t\t\t\t\tvoters.insert(_tradePartners[i]);\r\n\t\t\t\t\t}\r\n\t\t\t\t}\r\n\t\t\t}\r\n\t\t}\r\n\t\trequire(voters.getValuesLength() >= 3, \"Invalid Number of tradePartners\");\r\n\t\tnumberOfVoters = voters.getValuesLength() * 2;\r\n\r\n\t\taddress[] memory addresses = UserManagerInstance.getAddresses(); // List of addresses on the network\r\n\r\n\t\tfor (uint i = 0; i < addresses.length; i++){\t\t\t\t\t// For each address\r\n\t\t\tif (newAccount != addresses[i]){\t\t\t\t\t\t\t// The new account can not be a voter\r\n\t\t\t\t// They have made a transaction with the old account\r\n\t\t\t\tif (TransactionManagerInstance.NumberOfTransactions(oldAccount, addresses[i]) > 0){\r\n\t\t\t\t\tif (!voters.contains(addresses[i]) && !archivedVoters.contains(addresses[i]) ){\t\t\t// This address is not already a voter\r\n\t\t\t\t\t\thaveTradedWith.push(addresses[i]);\t\t\t\t// This address is an eligible voter\r\n\t\t\t\t\t}\r\n\t\t\t\t}\r\n\t\t\t}\r\n\t\t}\r\n\t\trequire(haveTradedWith.length >= 3, \"Invalid Number of haveTradedWith\");\r\n\t}\r\n\r\n\tfunction FindRandomTradingPartner() external {\r\n\t\t// require(paided == true, \"This proposal has not been paid for yet\");\r\n\t\trequire(numberOfVoters > 0, \"Trade partners have not been added to this yet proposal\");\r\n\t\trequire(randomVoterVetos > 0, \"Can not veto any more random voters\");\r\n\r\n\t\trandomVoterVetos--;\r\n\t\tuint index = random(lastOtherPartner, haveTradedWith.length);\t\t\t// Find random value\r\n\t\t\t\t\r\n\t\tlastOtherPartner = haveTradedWith[index];\r\n\r\n\t\tfor (uint i = index; i < haveTradedWith.length - 1; i++){\r\n\t\t\thaveTradedWith[i] = haveTradedWith[i+1];\r\n\t\t}\r\n\t\tdelete haveTradedWith[haveTradedWith.length-1];\r\n\t\thaveTradedWith.length--;\r\n\t}\r\n\r\n\tfunction ViewRandomTradingPartner() external view returns (address) {\r\n\t\t// require(lastOtherPartner != 0x0000000000000000000000000000000000000000, \"You have not found a random trade partner yet\");\r\n\t\treturn lastOtherPartner;\r\n\t}\r\n\r\n\tfunction AddRandomTradingPartner() external {\r\n\t\t// require(paided == true, \"This proposal has not been paid for yet\");\r\n\t\t// require(voters.getValuesLength() > 0, \"Trade partners have not been added to this yet proposal\");\r\n\r\n\t\trequire( lastOtherPartner != 0x0000000000000000000000000000000000000000, \"Have to find a random trading partner first\");\r\n\t\trequire( !voters.contains(lastOtherPartner), \"Already added that address\");\r\n\r\n\t\trandomVoterVetos++;\r\n\r\n\t\tvoters.insert(lastOtherPartner);\r\n\t}\r\n\r\n\t// Make Voting Tokens\r\n\tfunction MakeVotingToken(address _oldAccount, address _voter, string calldata _description) external {\r\n\t\t// require(paided == true, \"This proposal has not been paid for yet\");\r\n\t\trequire(voters.getValuesLength() == numberOfVoters, \"Trade partners have not been added to this yet proposal\");\r\n\t\trequire(voters.contains(_voter), \"Invalid Voter. Can not make a VotingToken\");\r\n\r\n\t\trequire(votingtokens[_voter].exists == false, \"This voter already has a voting token\");\r\n\r\n\t\tVotingTokenPair memory temp;\r\n\t\ttemp.token = VotingToken.Token(_description, _oldAccount, _voter, 0, false, false);\r\n\t\ttemp.exists = true;\r\n\t\tvotingtokens[_voter] = temp;\r\n\r\n\t\tVotingTokenCreated++;\t\t\t// Incroment the number of voting tokens created\r\n\t}\r\n\r\n\t// Casts a vote\r\n\tfunction CastVote(address _voter, bool choice) external {\r\n\t\tcheck(_voter);\r\n\r\n\t\tvotingtokens[_voter].token.CastVote(choice);\r\n\t}\r\n\r\n\tfunction CountVotes() private view returns(uint, uint) {\r\n\t\tuint total = 0;\t\t\t\t\t\t\t// Total number of votes\r\n\t\tuint yeses = 0;\t\t\t\t\t\t\t// Total number of yesses\r\n\r\n\t\tfor (uint i = 0; i < voters.getValuesLength(); i++) { // Goes through all voters\r\n\t\t\tVotingToken.Token storage temp = votingtokens[voters.getValue(i)].token;\r\n\t\t\tif (temp.getVoted()){\t\t\t// They are a voter and they voted\r\n\t\t\t\ttotal++;\t\t\t\t\t\t// Incroment the total number of votes\r\n\t\t\t\tif (temp.getVote()){ \t\t\t\t// They are a voter and they voted yes\r\n\t\t\t\t\tyeses++;\t\t\t\t\t\t// Incroment the number of yesses\r\n\t\t\t\t}\r\n\t\t\t}\r\n\t\t}\r\n\t\treturn (yeses, total);\r\n\t}\r\n\r\n\t// Give rewards to voters and return outcome of vote\r\n\tfunction ConcludeAccountRecovery(UserManager UserManagerInstance) external returns (int){\r\n\t\trequire(VotingTokenCreated == voters.getValuesLength(), \"Have not created all the VotingTokens\");\r\n\r\n\t\tPerson oldUser = UserManagerInstance.getUser(oldAccount);\r\n\t\tif (oldUser.vetoTime() > block.timestamp - startTime){\r\n\t\t\treturn -1;\r\n\t\t}\r\n\r\n\t\t(uint yeses, uint total) = CountVotes();\r\n\r\n\t\tif (total < 5){\r\n\t\t\tif (block.timestamp - startTime < 172800){\r\n\t\t\t\treturn 60;\r\n\t\t\t}\r\n\t\t\treturn -1;\r\n\t\t}\r\n\r\n\t\tbool outcome = (100*yeses) / total >= 66;\t\t\t// The outcome of the vote\r\n\r\n\t\tuint participationFactor = 2;\r\n\t\tuint correctionFactor = 2;\r\n\t\tuint timeFactor = 1;\r\n\r\n\t\tuint totalTimeToVote = 0;\r\n\r\n\t\tfor (uint i = 0; i < voters.getValuesLength(); i++) { \t// Goes through all voters\r\n\t\t\tVotingToken.Token storage temp = votingtokens[voters.getValue(i)].token;\r\n\t\t\ttotalTimeToVote += temp.getVotedTime();\r\n\t\t}\r\n\r\n\t\tuint averageTimeToVote = totalTimeToVote / total;\r\n\r\n\t\tfor (uint i = 0; i < voters.getValuesLength(); i++) { \t// Goes through all voters\r\n\t\t\tVotingToken.Token storage temp = votingtokens[voters.getValue(i)].token;\r\n\t\t\tif (temp.getVoted()){\t\t\t\t\t\t\t// They are a voter and they voted\r\n\t\t\t\tuint amount = (price / participationFactor) / total;\t\t\t// Reward for participating \r\n\r\n\t\t\t\tif (outcome && temp.getVote()){\t\t\t\t\t\t\t\t\t// Successful vote and voted yes\r\n\t\t\t\t\tamount += (price / correctionFactor) / yeses;\t\t\t\t// Reward for voting correctly \r\n\t\t\t\t}else if (!outcome && !temp.getVote()){\t\t\t\t\t\t\t// Unsuccessful vote and voted no\r\n\t\t\t\t\tamount += (price / correctionFactor) / (total-yeses);\t\t// Reward for voting correctly \r\n\t\t\t\t}\r\n\r\n\t\t\t\t// amount -= (temp.getVotedTime() - startTime) / timeFactor;\r\n\t\t\t\tamount += (averageTimeToVote - temp.getVotedTime()) / timeFactor;\r\n\r\n\t\t\t\tif (amount > 0){\r\n\t\t\t\t\tPerson voter = UserManagerInstance.getUser(voters.getValue(i)); // Gets voter in the network\r\n\t\t\t\t\tvoter.increaseBalance(amount);\t\t\t\t\t// Increases balance\r\n\t\t\t\t}\r\n\t\t\t}\r\n\t\t}\r\n\t\treturn int((100*yeses) / total);\t\t\t\t\t\t\t\t// Return outcome of vote\r\n\t}\r\n\r\n\t// Add set of data for a give transaction for a give voter\r\n\tfunction AddTransactionDataSet(uint _timeStamp, address _voter, uint _amount, \r\n\t\tstring calldata _description, string calldata _itemsInTrade) external {\r\n\t\t\r\n\t\trequire(voters.contains(_voter), \"Invalid Voter. Can not make a VotingToken\");\r\n\r\n\t\ttransactionDataSets[_voter].push(TransactionDataSet.DataSet(_description, _itemsInTrade, oldAccount, _voter, _timeStamp, _amount));\r\n\t}\r\n\r\n\t// View public information on a set of data for a transaction\r\n\tfunction ViewPublicInformation( address _voter, uint i) external view returns (uint, uint, address, address) {\r\n\t\tcheck(_voter);\r\n\t\treturn transactionDataSets[_voter][i].ViewPublicInformation();\r\n\t}\r\n\r\n\t// View private information on a set of data for a transaction\r\n\tfunction ViewPrivateInformation( address _voter, uint i) external view returns (string memory, string memory) {\r\n\t\tcheck(_voter);\r\n\t\treturn transactionDataSets[_voter][i].ViewPrivateInformation();\r\n\t}\r\n\r\n\t// Generate random number using an address\r\n\tfunction random(address address1, uint size) private view returns (uint8) {\r\n\t\treturn uint8(uint256(keccak256(abi.encodePacked(block.timestamp, block.difficulty, address1, gasleft()))) % size);\r\n\t\t// return uint8(uint256(keccak256(abi.encodePacked(block.difficulty, block.coinbase, address1, gasleft()))) % size);\r\n\t}\r\n\r\n\tfunction check(address _voter) private view {\r\n\t\trequire(voters.contains(_voter), \"Invalid Voter. Can not make a VotingToken\");\r\n\t\trequire(VotingTokenCreated == voters.getValuesLength(), \"Have not created all the VotingTokens\");\r\n\t\trequire(transactionDataSets[_voter].length > 0, \"There is no transaction data to view\");\r\n\t} \r\n\r\n\tfunction getVoters() public view returns (address[] memory){\r\n\t\treturn voters.getValues();\r\n\t}\r\n}\r\n",
  "sourcePath": "C:\\Users\\m5w5b\\Desktop\\GitHub\\game-dapp\\AccountRecovery\\contracts\\Proposal.sol",
  "compiler": {
    "name": "solc",
    "version": "0.5.8+commit.23d335f2.Emscripten.clang"
  },
  "schemaVersion": "3.0.16",
  "updatedAt": "2019-10-31T15:18:42.081Z",
  "devdoc": {
    "methods": {}
  },
  "userdoc": {
    "methods": {}
  }
}