{
  "contractName": "Proposal",
  "abi": [
    {
      "constant": true,
      "inputs": [],
      "name": "price",
      "outputs": [
        {
          "name": "",
          "type": "uint256"
        }
      ],
      "payable": false,
      "stateMutability": "view",
      "type": "function"
    },
    {
      "inputs": [
        {
          "name": "_oldAccount",
          "type": "address"
        },
        {
          "name": "_newAccount",
          "type": "address"
        },
        {
          "name": "_description",
          "type": "string"
        },
        {
          "name": "_price",
          "type": "uint256"
        }
      ],
      "payable": false,
      "stateMutability": "nonpayable",
      "type": "constructor"
    },
    {
      "constant": false,
      "inputs": [
        {
          "name": "_newAccount",
          "type": "address"
        }
      ],
      "name": "Pay",
      "outputs": [],
      "payable": false,
      "stateMutability": "nonpayable",
      "type": "function"
    },
    {
      "constant": false,
      "inputs": [
        {
          "name": "_tradePartners",
          "type": "address[]"
        },
        {
          "name": "UserManagerInstance",
          "type": "address"
        },
        {
          "name": "TransactionManagerInstance",
          "type": "address"
        }
      ],
      "name": "AddTradePartners",
      "outputs": [],
      "payable": false,
      "stateMutability": "nonpayable",
      "type": "function"
    },
    {
      "constant": false,
      "inputs": [],
      "name": "FindRandomTradingPartner",
      "outputs": [],
      "payable": false,
      "stateMutability": "nonpayable",
      "type": "function"
    },
    {
      "constant": true,
      "inputs": [],
      "name": "ViewRandomTradingPartner",
      "outputs": [
        {
          "name": "",
          "type": "address"
        }
      ],
      "payable": false,
      "stateMutability": "view",
      "type": "function"
    },
    {
      "constant": false,
      "inputs": [],
      "name": "AddRandomTradingPartner",
      "outputs": [],
      "payable": false,
      "stateMutability": "nonpayable",
      "type": "function"
    },
    {
      "constant": false,
      "inputs": [
        {
          "name": "_oldAccount",
          "type": "address"
        },
        {
          "name": "_voter",
          "type": "address"
        },
        {
          "name": "_description",
          "type": "string"
        }
      ],
      "name": "MakeVotingToken",
      "outputs": [],
      "payable": false,
      "stateMutability": "nonpayable",
      "type": "function"
    },
    {
      "constant": false,
      "inputs": [
        {
          "name": "_voter",
          "type": "address"
        },
        {
          "name": "choice",
          "type": "bool"
        }
      ],
      "name": "CastVote",
      "outputs": [],
      "payable": false,
      "stateMutability": "nonpayable",
      "type": "function"
    },
    {
      "constant": false,
      "inputs": [
        {
          "name": "UserManagerInstance",
          "type": "address"
        }
      ],
      "name": "ConcludeAccountRecovery",
      "outputs": [
        {
          "name": "",
          "type": "bool"
        },
        {
          "name": "",
          "type": "bool"
        }
      ],
      "payable": false,
      "stateMutability": "nonpayable",
      "type": "function"
    },
    {
      "constant": false,
      "inputs": [
        {
          "name": "_timeStamp",
          "type": "uint256"
        },
        {
          "name": "_voter",
          "type": "address"
        },
        {
          "name": "_amount",
          "type": "uint256"
        },
        {
          "name": "_description",
          "type": "string"
        },
        {
          "name": "_itemsInTrade",
          "type": "string"
        }
      ],
      "name": "AddTransactionDataSet",
      "outputs": [],
      "payable": false,
      "stateMutability": "nonpayable",
      "type": "function"
    },
    {
      "constant": true,
      "inputs": [
        {
          "name": "_voter",
          "type": "address"
        },
        {
          "name": "i",
          "type": "uint256"
        }
      ],
      "name": "ViewPublicInformation",
      "outputs": [
        {
          "name": "",
          "type": "uint256"
        },
        {
          "name": "",
          "type": "uint256"
        },
        {
          "name": "",
          "type": "address"
        },
        {
          "name": "",
          "type": "address"
        }
      ],
      "payable": false,
      "stateMutability": "view",
      "type": "function"
    },
    {
      "constant": true,
      "inputs": [
        {
          "name": "_voter",
          "type": "address"
        },
        {
          "name": "i",
          "type": "uint256"
        }
      ],
      "name": "ViewPrivateInformation",
      "outputs": [
        {
          "name": "",
          "type": "string"
        },
        {
          "name": "",
          "type": "string"
        }
      ],
      "payable": false,
      "stateMutability": "view",
      "type": "function"
    },
    {
      "constant": true,
      "inputs": [],
      "name": "getVoters",
      "outputs": [
        {
          "name": "",
          "type": "address[]"
        }
      ],
      "payable": false,
      "stateMutability": "view",
      "type": "function"
    }
  ],
  "bytecode": "0x60806040526000600460006101000a81548173ffffffffffffffffffffffffffffffffffffffff021916908373ffffffffffffffffffffffffffffffffffffffff16021790555060006008556000600a60006101000a81548160ff021916908360ff1602179055506003600a60016101000a81548160ff021916908360ff1602179055506000600a60026101000a81548160ff021916908315150217905550348015620000ab57600080fd5b5060405162003f5038038062003f5083398101806040526080811015620000d157600080fd5b8101908080519060200190929190805190602001909291908051640100000000811115620000fe57600080fd5b828101905060208101848111156200011557600080fd5b81518560018202830111640100000000821117156200013357600080fd5b50509291906020018051906020019092919050505083600560006101000a81548173ffffffffffffffffffffffffffffffffffffffff021916908373ffffffffffffffffffffffffffffffffffffffff16021790555082600660006101000a81548173ffffffffffffffffffffffffffffffffffffffff021916908373ffffffffffffffffffffffffffffffffffffffff1602179055508160079080519060200190620001e2929190620001f4565b508060098190555050505050620002a3565b828054600181600116156101000203166002900490600052602060002090601f016020900481019282601f106200023757805160ff191683800117855562000268565b8280016001018555821562000268579182015b82811115620002675782518255916020019190600101906200024a565b5b5090506200027791906200027b565b5090565b620002a091905b808211156200029c57600081600090555060010162000282565b5090565b90565b613c9d80620002b36000396000f3fe60806040523480156200001157600080fd5b5060043610620000e25760003560e01c8063ae70981f1162000099578063e628c2e0116200006f578063e628c2e01462000449578063e8d94c00146200051b578063f91ac89914620005da578063fa041dd7146200071657620000e2565b8063ae70981f1462000393578063cdd72253146200039f578063cde596b2146200040257620000e2565b80630d2cea2c14620000e757806319e5fba01462000151578063512b8426146200025c57806360f25bd314620002685780638db5d0d21462000327578063a035b1fe1462000373575b600080fd5b6200012c60048036036020811015620000ff57600080fd5b81019080803573ffffffffffffffffffffffffffffffffffffffff16906020019092919050505062000769565b6040518083151515158152602001821515151581526020019250505060405180910390f35b6200025a600480360360a08110156200016957600080fd5b8101908080359060200190929190803573ffffffffffffffffffffffffffffffffffffffff1690602001909291908035906020019092919080359060200190640100000000811115620001bb57600080fd5b820183602082011115620001ce57600080fd5b80359060200191846001830284011164010000000083111715620001f157600080fd5b9091929391929390803590602001906401000000008111156200021357600080fd5b8201836020820111156200022657600080fd5b803590602001918460018302840111640100000000831117156200024957600080fd5b909192939192939050505062000d74565b005b6200026662000ef7565b005b62000325600480360360608110156200028057600080fd5b81019080803590602001906401000000008111156200029e57600080fd5b820183602082011115620002b157600080fd5b80359060200191846020830284011164010000000083111715620002d457600080fd5b9091929391929390803573ffffffffffffffffffffffffffffffffffffffff169060200190929190803573ffffffffffffffffffffffffffffffffffffffff16906020019092919050505062001216565b005b6200033162001b6c565b604051808273ffffffffffffffffffffffffffffffffffffffff1673ffffffffffffffffffffffffffffffffffffffff16815260200191505060405180910390f35b6200037d62001b96565b6040518082815260200191505060405180910390f35b6200039d62001b9c565b005b620003a962001e90565b6040518080602001828103825283818151815260200191508051906020019060200280838360005b83811015620003ee578082015181840152602081019050620003d1565b505050509050019250505060405180910390f35b62000447600480360360208110156200041a57600080fd5b81019080803573ffffffffffffffffffffffffffffffffffffffff16906020019092919050505062001f80565b005b62000498600480360360408110156200046157600080fd5b81019080803573ffffffffffffffffffffffffffffffffffffffff16906020019092919080359060200190929190505050620020ed565b604051808581526020018481526020018373ffffffffffffffffffffffffffffffffffffffff1673ffffffffffffffffffffffffffffffffffffffff1681526020018273ffffffffffffffffffffffffffffffffffffffff1673ffffffffffffffffffffffffffffffffffffffff16815260200194505050505060405180910390f35b620005d8600480360360608110156200053357600080fd5b81019080803573ffffffffffffffffffffffffffffffffffffffff169060200190929190803573ffffffffffffffffffffffffffffffffffffffff169060200190929190803590602001906401000000008111156200059157600080fd5b820183602082011115620005a457600080fd5b80359060200191846001830284011164010000000083111715620005c757600080fd5b90919293919293905050506200221a565b005b6200062960048036036040811015620005f257600080fd5b81019080803573ffffffffffffffffffffffffffffffffffffffff169060200190929190803590602001909291905050506200259f565b604051808060200180602001838103835285818151815260200191508051906020019080838360005b838110156200066f57808201518184015260208101905062000652565b50505050905090810190601f1680156200069d5780820380516001836020036101000a031916815260200191505b50838103825284818151815260200191508051906020019080838360005b83811015620006d8578082015181840152602081019050620006bb565b50505050905090810190601f168015620007065780820380516001836020036101000a031916815260200191505b5094505050505060405180910390f35b62000767600480360360408110156200072e57600080fd5b81019080803573ffffffffffffffffffffffffffffffffffffffff16906020019092919080351515906020019092919050505062002750565b005b600080600173__Set___________________________________63674a64ec90916040518263ffffffff1660e01b81526004018082815260200191505060206040518083038186803b158015620007bf57600080fd5b505af4158015620007d4573d6000803e3d6000fd5b505050506040513d6020811015620007eb57600080fd5b8101908080519060200190929190505050600a60009054906101000a900460ff1660ff161462000867576040517f08c379a000000000000000000000000000000000000000000000000000000000815260040180806020018281038252602581526020018062003b566025913960400191505060405180910390fd5b600080620008746200282e565b91509150600060428284606402816200088957fe5b04101590506000603c8385606402816200089f57fe5b041015905060008090505b600173__Set___________________________________63674a64ec90916040518263ffffffff1660e01b81526004018082815260200191505060206040518083038186803b158015620008fd57600080fd5b505af415801562000912573d6000803e3d6000fd5b505050506040513d60208110156200092957600080fd5b810190808051906020019092919050505081101562000d64576000806000600173__Set___________________________________63df763a9d9091866040518363ffffffff1660e01b8152600401808381526020018281526020019250505060206040518083038186803b158015620009a257600080fd5b505af4158015620009b7573d6000803e3d6000fd5b505050506040513d6020811015620009ce57600080fd5b810190808051906020019092919050505073ffffffffffffffffffffffffffffffffffffffff1673ffffffffffffffffffffffffffffffffffffffff16815260200190815260200160002060009054906101000a900473ffffffffffffffffffffffffffffffffffffffff1690508073ffffffffffffffffffffffffffffffffffffffff16633500f91e6040518163ffffffff1660e01b815260040160206040518083038186803b15801562000a8357600080fd5b505afa15801562000a98573d6000803e3d6000fd5b505050506040513d602081101562000aaf57600080fd5b81019080805190602001909291905050501562000d555760008560026009548162000ad657fe5b048162000adf57fe5b0490508415158273ffffffffffffffffffffffffffffffffffffffff1663632a9a526040518163ffffffff1660e01b815260040160206040518083038186803b15801562000b2c57600080fd5b505afa15801562000b41573d6000803e3d6000fd5b505050506040513d602081101562000b5857600080fd5b81019080805190602001909291905050501515141562000b8f578660026009548162000b8057fe5b048162000b8957fe5b04810190505b60008a73ffffffffffffffffffffffffffffffffffffffff16636f77926b600173__Set___________________________________63df763a9d9091886040518363ffffffff1660e01b8152600401808381526020018281526020019250505060206040518083038186803b15801562000c0857600080fd5b505af415801562000c1d573d6000803e3d6000fd5b505050506040513d602081101562000c3457600080fd5b81019080805190602001909291905050506040518263ffffffff1660e01b8152600401808273ffffffffffffffffffffffffffffffffffffffff1673ffffffffffffffffffffffffffffffffffffffff16815260200191505060206040518083038186803b15801562000ca657600080fd5b505afa15801562000cbb573d6000803e3d6000fd5b505050506040513d602081101562000cd257600080fd5b810190808051906020019092919050505090508073ffffffffffffffffffffffffffffffffffffffff16633e4ccb40836040518263ffffffff1660e01b815260040180828152602001915050600060405180830381600087803b15801562000d3957600080fd5b505af115801562000d4e573d6000803e3d6000fd5b5050505050505b508080600101915050620008aa565b5081819550955050505050915091565b62000d7f8662002b15565b6000808773ffffffffffffffffffffffffffffffffffffffff1673ffffffffffffffffffffffffffffffffffffffff16815260200190815260200160002060009054906101000a900473ffffffffffffffffffffffffffffffffffffffff1673ffffffffffffffffffffffffffffffffffffffff166319e5fba0888888888888886040518863ffffffff1660e01b8152600401808881526020018773ffffffffffffffffffffffffffffffffffffffff1673ffffffffffffffffffffffffffffffffffffffff16815260200186815260200180602001806020018381038352878782818152602001925080828437600081840152601f19601f8201169050808301925050508381038252858582818152602001925080828437600081840152601f19601f8201169050808301925050509950505050505050505050600060405180830381600087803b15801562000ed557600080fd5b505af115801562000eea573d6000803e3d6000fd5b5050505050505050505050565b600073ffffffffffffffffffffffffffffffffffffffff16600460009054906101000a900473ffffffffffffffffffffffffffffffffffffffff1673ffffffffffffffffffffffffffffffffffffffff16141562000fa1576040517f08c379a000000000000000000000000000000000000000000000000000000000815260040180806020018281038252602b81526020018062003bd4602b913960400191505060405180910390fd5b600173__Set___________________________________63fe6949e39091600460009054906101000a900473ffffffffffffffffffffffffffffffffffffffff166040518363ffffffff1660e01b8152600401808381526020018273ffffffffffffffffffffffffffffffffffffffff1673ffffffffffffffffffffffffffffffffffffffff1681526020019250505060206040518083038186803b1580156200104a57600080fd5b505af41580156200105f573d6000803e3d6000fd5b505050506040513d60208110156200107657600080fd5b810190808051906020019092919050505015620010fb576040517f08c379a000000000000000000000000000000000000000000000000000000000815260040180806020018281038252601a8152602001807f416c72656164792061646465642074686174206164647265737300000000000081525060200191505060405180910390fd5b600a600181819054906101000a900460ff168092919060010191906101000a81548160ff021916908360ff16021790555050600173__Set___________________________________635df0a15c9091600460009054906101000a900473ffffffffffffffffffffffffffffffffffffffff166040518363ffffffff1660e01b8152600401808381526020018273ffffffffffffffffffffffffffffffffffffffff1673ffffffffffffffffffffffffffffffffffffffff1681526020019250505060206040518083038186803b158015620011d657600080fd5b505af4158015620011eb573d6000803e3d6000fd5b505050506040513d60208110156200120257600080fd5b810190808051906020019092919050505050565b60011515600a60029054906101000a900460ff1615151462001284576040517f08c379a000000000000000000000000000000000000000000000000000000000815260040180806020018281038252602781526020018062003bff6027913960400191505060405180910390fd5b60008090505b848490508110156200155657848482818110620012a357fe5b9050602002013573ffffffffffffffffffffffffffffffffffffffff1673ffffffffffffffffffffffffffffffffffffffff16600660009054906101000a900473ffffffffffffffffffffffffffffffffffffffff1673ffffffffffffffffffffffffffffffffffffffff1614620015485760008273ffffffffffffffffffffffffffffffffffffffff166314ee741f600560009054906101000a900473ffffffffffffffffffffffffffffffffffffffff168888868181106200136357fe5b9050602002013573ffffffffffffffffffffffffffffffffffffffff166040518363ffffffff1660e01b8152600401808373ffffffffffffffffffffffffffffffffffffffff1673ffffffffffffffffffffffffffffffffffffffff1681526020018273ffffffffffffffffffffffffffffffffffffffff1673ffffffffffffffffffffffffffffffffffffffff1681526020019250505060206040518083038186803b1580156200141457600080fd5b505afa15801562001429573d6000803e3d6000fd5b505050506040513d60208110156200144057600080fd5b810190808051906020019092919050505011156200154757600173__Set___________________________________635df0a15c90918787858181106200148357fe5b9050602002013573ffffffffffffffffffffffffffffffffffffffff166040518363ffffffff1660e01b8152600401808381526020018273ffffffffffffffffffffffffffffffffffffffff1673ffffffffffffffffffffffffffffffffffffffff1681526020019250505060206040518083038186803b1580156200150857600080fd5b505af41580156200151d573d6000803e3d6000fd5b505050506040513d60208110156200153457600080fd5b8101908080519060200190929190505050505b5b80806001019150506200128a565b506003600173__Set___________________________________63674a64ec90916040518263ffffffff1660e01b81526004018082815260200191505060206040518083038186803b158015620015ac57600080fd5b505af4158015620015c1573d6000803e3d6000fd5b505050506040513d6020811015620015d857600080fd5b810190808051906020019092919050505010156200165e576040517f08c379a000000000000000000000000000000000000000000000000000000000815260040180806020018281038252601f8152602001807f496e76616c6964204e756d626572206f66207472616465506172746e6572730081525060200191505060405180910390fd5b6002600173__Set___________________________________63674a64ec90916040518263ffffffff1660e01b81526004018082815260200191505060206040518083038186803b158015620016b357600080fd5b505af4158015620016c8573d6000803e3d6000fd5b505050506040513d6020811015620016df57600080fd5b81019080805190602001909291905050500260088190555060608273ffffffffffffffffffffffffffffffffffffffff1663a39fac126040518163ffffffff1660e01b815260040160006040518083038186803b1580156200174057600080fd5b505afa15801562001755573d6000803e3d6000fd5b505050506040513d6000823e3d601f19601f8201168201806040525060208110156200178057600080fd5b8101908080516401000000008111156200179957600080fd5b82810190506020810184811115620017b057600080fd5b8151856020820283011164010000000082111715620017ce57600080fd5b5050929190505050905060008090505b815181101562001ae857818181518110620017f557fe5b602002602001015173ffffffffffffffffffffffffffffffffffffffff16600660009054906101000a900473ffffffffffffffffffffffffffffffffffffffff1673ffffffffffffffffffffffffffffffffffffffff161462001ada5760008373ffffffffffffffffffffffffffffffffffffffff166314ee741f600560009054906101000a900473ffffffffffffffffffffffffffffffffffffffff16858581518110620018a057fe5b60200260200101516040518363ffffffff1660e01b8152600401808373ffffffffffffffffffffffffffffffffffffffff1673ffffffffffffffffffffffffffffffffffffffff1681526020018273ffffffffffffffffffffffffffffffffffffffff1673ffffffffffffffffffffffffffffffffffffffff1681526020019250505060206040518083038186803b1580156200193c57600080fd5b505afa15801562001951573d6000803e3d6000fd5b505050506040513d60208110156200196857600080fd5b8101908080519060200190929190505050111562001ad957600173__Set___________________________________63fe6949e39091848481518110620019ab57fe5b60200260200101516040518363ffffffff1660e01b8152600401808381526020018273ffffffffffffffffffffffffffffffffffffffff1673ffffffffffffffffffffffffffffffffffffffff1681526020019250505060206040518083038186803b15801562001a1b57600080fd5b505af415801562001a30573d6000803e3d6000fd5b505050506040513d602081101562001a4757600080fd5b810190808051906020019092919050505062001ad857600382828151811062001a6c57fe5b602002602001015190806001815401808255809150509060018203906000526020600020016000909192909190916101000a81548173ffffffffffffffffffffffffffffffffffffffff021916908373ffffffffffffffffffffffffffffffffffffffff160217905550505b5b5b8080600101915050620017de565b5060038080549050101562001b65576040517f08c379a00000000000000000000000000000000000000000000000000000000081526004018080602001828103825260208152602001807f496e76616c6964204e756d626572206f6620686176655472616465645769746881525060200191505060405180910390fd5b5050505050565b6000600460009054906101000a900473ffffffffffffffffffffffffffffffffffffffff16905090565b60095481565b60006008541162001bf9576040517f08c379a000000000000000000000000000000000000000000000000000000000815260040180806020018281038252603781526020018062003b9d6037913960400191505060405180910390fd5b6000600a60019054906101000a900460ff1660ff161162001c66576040517f08c379a000000000000000000000000000000000000000000000000000000000815260040180806020018281038252602381526020018062003c266023913960400191505060405180910390fd5b600a600181819054906101000a900460ff16809291906001900391906101000a81548160ff021916908360ff16021790555050600062001cce600460009054906101000a900473ffffffffffffffffffffffffffffffffffffffff1660038054905062002d2e565b60ff1690505b600173__Set___________________________________63fe6949e390916003848154811062001d0057fe5b9060005260206000200160009054906101000a900473ffffffffffffffffffffffffffffffffffffffff166040518363ffffffff1660e01b8152600401808381526020018273ffffffffffffffffffffffffffffffffffffffff1673ffffffffffffffffffffffffffffffffffffffff1681526020019250505060206040518083038186803b15801562001d9357600080fd5b505af415801562001da8573d6000803e3d6000fd5b505050506040513d602081101562001dbf57600080fd5b81019080805190602001909291905050501562001e145762001e09600460009054906101000a900473ffffffffffffffffffffffffffffffffffffffff1660038054905062002d2e565b60ff16905062001cd4565b6003818154811062001e2257fe5b9060005260206000200160009054906101000a900473ffffffffffffffffffffffffffffffffffffffff16600460006101000a81548173ffffffffffffffffffffffffffffffffffffffff021916908373ffffffffffffffffffffffffffffffffffffffff16021790555050565b6060600173__Set___________________________________633d597e6c90916040518263ffffffff1660e01b81526004018082815260200191505060006040518083038186803b15801562001ee557600080fd5b505af415801562001efa573d6000803e3d6000fd5b505050506040513d6000823e3d601f19601f82011682018060405250602081101562001f2557600080fd5b81019080805164010000000081111562001f3e57600080fd5b8281019050602081018481111562001f5557600080fd5b815185602082028301116401000000008211171562001f7357600080fd5b5050929190505050905090565b6009548173ffffffffffffffffffffffffffffffffffffffff1663b69ef8a86040518163ffffffff1660e01b815260040160206040518083038186803b15801562001fca57600080fd5b505afa15801562001fdf573d6000803e3d6000fd5b505050506040513d602081101562001ff657600080fd5b8101908080519060200190929190505050101562002060576040517f08c379a000000000000000000000000000000000000000000000000000000000815260040180806020018281038252602281526020018062003b7b6022913960400191505060405180910390fd5b8073ffffffffffffffffffffffffffffffffffffffff1663392aee436009546040518263ffffffff1660e01b815260040180828152602001915050600060405180830381600087803b158015620020b657600080fd5b505af1158015620020cb573d6000803e3d6000fd5b505050506001600a60026101000a81548160ff02191690831515021790555050565b600080600080620020fe8662002b15565b6000808773ffffffffffffffffffffffffffffffffffffffff1673ffffffffffffffffffffffffffffffffffffffff16815260200190815260200160002060009054906101000a900473ffffffffffffffffffffffffffffffffffffffff1673ffffffffffffffffffffffffffffffffffffffff16634ba569a4866040518263ffffffff1660e01b81526004018082815260200191505060806040518083038186803b158015620021ae57600080fd5b505afa158015620021c3573d6000803e3d6000fd5b505050506040513d6080811015620021da57600080fd5b8101908080519060200190929190805190602001909291908051906020019092919080519060200190929190505050935093509350935092959194509250565b600854600173__Set___________________________________63674a64ec90916040518263ffffffff1660e01b81526004018082815260200191505060206040518083038186803b1580156200227057600080fd5b505af415801562002285573d6000803e3d6000fd5b505050506040513d60208110156200229c57600080fd5b81019080805190602001909291905050501462002305576040517f08c379a000000000000000000000000000000000000000000000000000000000815260040180806020018281038252603781526020018062003b9d6037913960400191505060405180910390fd5b600173__Set___________________________________63fe6949e39091856040518363ffffffff1660e01b8152600401808381526020018273ffffffffffffffffffffffffffffffffffffffff1673ffffffffffffffffffffffffffffffffffffffff1681526020019250505060206040518083038186803b1580156200238c57600080fd5b505af4158015620023a1573d6000803e3d6000fd5b505050506040513d6020811015620023b857600080fd5b810190808051906020019092919050505062002420576040517f08c379a000000000000000000000000000000000000000000000000000000000815260040180806020018281038252602981526020018062003c496029913960400191505060405180910390fd5b83838383604051620024329062002db3565b808573ffffffffffffffffffffffffffffffffffffffff1673ffffffffffffffffffffffffffffffffffffffff1681526020018473ffffffffffffffffffffffffffffffffffffffff1673ffffffffffffffffffffffffffffffffffffffff168152602001806020018281038252848482818152602001925080828437600081840152601f19601f82011690508083019250505095505050505050604051809103906000f080158015620024ea573d6000803e3d6000fd5b506000808573ffffffffffffffffffffffffffffffffffffffff1673ffffffffffffffffffffffffffffffffffffffff16815260200190815260200160002060006101000a81548173ffffffffffffffffffffffffffffffffffffffff021916908373ffffffffffffffffffffffffffffffffffffffff160217905550600a600081819054906101000a900460ff168092919060010191906101000a81548160ff021916908360ff1602179055505050505050565b606080620025ad8462002b15565b6000808573ffffffffffffffffffffffffffffffffffffffff1673ffffffffffffffffffffffffffffffffffffffff16815260200190815260200160002060009054906101000a900473ffffffffffffffffffffffffffffffffffffffff1673ffffffffffffffffffffffffffffffffffffffff16637bd1eb3c846040518263ffffffff1660e01b81526004018082815260200191505060006040518083038186803b1580156200265d57600080fd5b505afa15801562002672573d6000803e3d6000fd5b505050506040513d6000823e3d601f19601f8201168201806040525060408110156200269d57600080fd5b810190808051640100000000811115620026b657600080fd5b82810190506020810184811115620026cd57600080fd5b8151856001820283011164010000000082111715620026eb57600080fd5b505092919060200180516401000000008111156200270857600080fd5b828101905060208101848111156200271f57600080fd5b81518560018202830111640100000000821117156200273d57600080fd5b5050929190505050915091509250929050565b6200275b8262002b15565b6000808373ffffffffffffffffffffffffffffffffffffffff1673ffffffffffffffffffffffffffffffffffffffff16815260200190815260200160002060009054906101000a900473ffffffffffffffffffffffffffffffffffffffff1673ffffffffffffffffffffffffffffffffffffffff1663bfcdca48826040518263ffffffff1660e01b81526004018082151515158152602001915050600060405180830381600087803b1580156200281157600080fd5b505af115801562002826573d6000803e3d6000fd5b505050505050565b6000806000809050600080905060008090505b600173__Set___________________________________63674a64ec90916040518263ffffffff1660e01b81526004018082815260200191505060206040518083038186803b1580156200289457600080fd5b505af4158015620028a9573d6000803e3d6000fd5b505050506040513d6020811015620028c057600080fd5b810190808051906020019092919050505081101562002b08576000806000600173__Set___________________________________63df763a9d9091866040518363ffffffff1660e01b8152600401808381526020018281526020019250505060206040518083038186803b1580156200293957600080fd5b505af41580156200294e573d6000803e3d6000fd5b505050506040513d60208110156200296557600080fd5b810190808051906020019092919050505073ffffffffffffffffffffffffffffffffffffffff1673ffffffffffffffffffffffffffffffffffffffff16815260200190815260200160002060009054906101000a900473ffffffffffffffffffffffffffffffffffffffff1690508073ffffffffffffffffffffffffffffffffffffffff16633500f91e6040518163ffffffff1660e01b815260040160206040518083038186803b15801562002a1a57600080fd5b505afa15801562002a2f573d6000803e3d6000fd5b505050506040513d602081101562002a4657600080fd5b81019080805190602001909291905050501562002af95783806001019450508073ffffffffffffffffffffffffffffffffffffffff1663632a9a526040518163ffffffff1660e01b815260040160206040518083038186803b15801562002aac57600080fd5b505afa15801562002ac1573d6000803e3d6000fd5b505050506040513d602081101562002ad857600080fd5b81019080805190602001909291905050501562002af85782806001019350505b5b50808060010191505062002841565b5080829350935050509091565b600173__Set___________________________________63fe6949e39091836040518363ffffffff1660e01b8152600401808381526020018273ffffffffffffffffffffffffffffffffffffffff1673ffffffffffffffffffffffffffffffffffffffff1681526020019250505060206040518083038186803b15801562002b9c57600080fd5b505af415801562002bb1573d6000803e3d6000fd5b505050506040513d602081101562002bc857600080fd5b810190808051906020019092919050505062002c30576040517f08c379a000000000000000000000000000000000000000000000000000000000815260040180806020018281038252602981526020018062003c496029913960400191505060405180910390fd5b600173__Set___________________________________63674a64ec90916040518263ffffffff1660e01b81526004018082815260200191505060206040518083038186803b15801562002c8357600080fd5b505af415801562002c98573d6000803e3d6000fd5b505050506040513d602081101562002caf57600080fd5b8101908080519060200190929190505050600a60009054906101000a900460ff1660ff161462002d2b576040517f08c379a000000000000000000000000000000000000000000000000000000000815260040180806020018281038252602581526020018062003b566025913960400191505060405180910390fd5b50565b6000814244855a604051602001808581526020018481526020018373ffffffffffffffffffffffffffffffffffffffff1673ffffffffffffffffffffffffffffffffffffffff1660601b81526014018281526020019450505050506040516020818303038152906040528051906020012060001c8162002daa57fe5b06905092915050565b610d948062002dc28339019056fe60806040526000600360146101000a81548160ff0219169083151502179055506000600360156101000a81548160ff02191690831515021790555034801561004657600080fd5b50604051610d94380380610d948339810180604052606081101561006957600080fd5b810190808051906020019092919080519060200190929190805164010000000081111561009557600080fd5b828101905060208101848111156100ab57600080fd5b81518560018202830111640100000000821117156100c857600080fd5b505092919050505081600360006101000a81548173ffffffffffffffffffffffffffffffffffffffff021916908373ffffffffffffffffffffffffffffffffffffffff16021790555082600260006101000a81548173ffffffffffffffffffffffffffffffffffffffff021916908373ffffffffffffffffffffffffffffffffffffffff1602179055508060019080519060200190610168929190610171565b50505050610216565b828054600181600116156101000203166002900490600052602060002090601f016020900481019282601f106101b257805160ff19168380011785556101e0565b828001600101855582156101e0579182015b828111156101df5782518255916020019190600101906101c4565b5b5090506101ed91906101f1565b5090565b61021391905b8082111561020f5760008160009055506001016101f7565b5090565b90565b610b6f806102256000396000f3fe608060405234801561001057600080fd5b50600436106100625760003560e01c806319e5fba0146100675780633500f91e146101695780634ba569a41461018b578063632a9a521461023a5780637bd1eb3c1461025c578063bfcdca481461036f575b600080fd5b610167600480360360a081101561007d57600080fd5b8101908080359060200190929190803573ffffffffffffffffffffffffffffffffffffffff16906020019092919080359060200190929190803590602001906401000000008111156100ce57600080fd5b8201836020820111156100e057600080fd5b8035906020019184600183028401116401000000008311171561010257600080fd5b90919293919293908035906020019064010000000081111561012357600080fd5b82018360208201111561013557600080fd5b8035906020019184600183028401116401000000008311171561015757600080fd5b909192939192939050505061039f565b005b6101716105b7565b604051808215151515815260200191505060405180910390f35b6101b7600480360360208110156101a157600080fd5b81019080803590602001909291905050506105ca565b604051808581526020018481526020018373ffffffffffffffffffffffffffffffffffffffff1673ffffffffffffffffffffffffffffffffffffffff1681526020018273ffffffffffffffffffffffffffffffffffffffff1673ffffffffffffffffffffffffffffffffffffffff16815260200194505050505060405180910390f35b6102426106f8565b604051808215151515815260200191505060405180910390f35b6102886004803603602081101561027257600080fd5b810190808035906020019092919050505061070b565b604051808060200180602001838103835285818151815260200191508051906020019080838360005b838110156102cc5780820151818401526020810190506102b1565b50505050905090810190601f1680156102f95780820380516001836020036101000a031916815260200191505b50838103825284818151815260200191508051906020019080838360005b83811015610332578082015181840152602081019050610317565b50505050905090810190601f16801561035f5780820380516001836020036101000a031916815260200191505b5094505050505060405180910390f35b61039d6004803603602081101561038557600080fd5b810190808035151590602001909291905050506108e8565b005b60006040518060c0016040528086868080601f016020809104026020016040519081016040528093929190818152602001838380828437600081840152601f19601f82011690508083019250505050505050815260200184848080601f016020809104026020016040519081016040528093929190818152602001838380828437600081840152601f19601f820116905080830192505050505050508152602001600260009054906101000a900473ffffffffffffffffffffffffffffffffffffffff1673ffffffffffffffffffffffffffffffffffffffff1681526020018873ffffffffffffffffffffffffffffffffffffffff168152602001898152602001878152509080600181540180825580915050906001820390600052602060002090600602016000909192909190915060008201518160000190805190602001906104eb929190610a7a565b506020820151816001019080519060200190610508929190610a7a565b5060408201518160020160006101000a81548173ffffffffffffffffffffffffffffffffffffffff021916908373ffffffffffffffffffffffffffffffffffffffff16021790555060608201518160030160006101000a81548173ffffffffffffffffffffffffffffffffffffffff021916908373ffffffffffffffffffffffffffffffffffffffff1602179055506080820151816004015560a0820151816005015550505050505050505050565b600360159054906101000a900460ff1681565b600080600080600080805490501161062d576040517f08c379a0000000000000000000000000000000000000000000000000000000008152600401808060200182810382526024815260200180610b206024913960400191505060405180910390fd5b6000858154811061063a57fe5b9060005260206000209060060201600401546000868154811061065957fe5b9060005260206000209060060201600501546000878154811061067857fe5b906000526020600020906006020160020160009054906101000a900473ffffffffffffffffffffffffffffffffffffffff16600088815481106106b757fe5b906000526020600020906006020160030160009054906101000a900473ffffffffffffffffffffffffffffffffffffffff1693509350935093509193509193565b600360149054906101000a900460ff1681565b606080600080805490501161076b576040517f08c379a0000000000000000000000000000000000000000000000000000000008152600401808060200182810382526024815260200180610b206024913960400191505060405180910390fd5b6000838154811061077857fe5b90600052602060002090600602016000016000848154811061079657fe5b9060005260206000209060060201600101818054600181600116156101000203166002900480601f01602080910402602001604051908101604052809291908181526020018280546001816001161561010002031660029004801561083c5780601f106108115761010080835404028352916020019161083c565b820191906000526020600020905b81548152906001019060200180831161081f57829003601f168201915b50505050509150808054600181600116156101000203166002900480601f0160208091040260200160405190810160405280929190818152602001828054600181600116156101000203166002900480156108d85780601f106108ad576101008083540402835291602001916108d8565b820191906000526020600020905b8154815290600101906020018083116108bb57829003601f168201915b5050505050905091509150915091565b6000808054905011610945576040517f08c379a0000000000000000000000000000000000000000000000000000000008152600401808060200182810382526024815260200180610b206024913960400191505060405180910390fd5b60001515600360159054906101000a900460ff161515146109ce576040517f08c379a000000000000000000000000000000000000000000000000000000000815260040180806020018281038252600d8152602001807f416c726561647920566f7465640000000000000000000000000000000000000081525060200191505060405180910390fd5b80600360146101000a81548160ff0219169083151502179055506001600360156101000a81548160ff021916908315150217905550600360009054906101000a900473ffffffffffffffffffffffffffffffffffffffff1673ffffffffffffffffffffffffffffffffffffffff167fa635d31e67484fd1d93ba01ab0ef882e4440a78aa40d0e2771e8a2aace45986982604051808215151515815260200191505060405180910390a250565b828054600181600116156101000203166002900490600052602060002090601f016020900481019282601f10610abb57805160ff1916838001178555610ae9565b82800160010185558215610ae9579182015b82811115610ae8578251825591602001919060010190610acd565b5b509050610af69190610afa565b5090565b610b1c91905b80821115610b18576000816000905550600101610b00565b5090565b9056fe5468657265206973206e6f207472616e73616374696f6e206461746120746f2076696577a165627a7a723058207114b14db366228a4d1ebcdf042786826151493721edfb2c2b63445b9049fb4e002948617665206e6f74206372656174656420616c6c2074686520566f74696e67546f6b656e734e6f7420456e6f7567682066756e647320666f7220746869732050726f706f73616c547261646520706172746e6572732068617665206e6f74206265656e20616464656420746f2074686973207965742070726f706f73616c4861766520746f2066696e6420612072616e646f6d2074726164696e6720706172746e6572206669727374546869732070726f706f73616c20686173206e6f74206265656e207061696420666f722079657443616e206e6f74207665746f20616e79206d6f72652072616e646f6d20766f74657273496e76616c696420566f7465722e2043616e206e6f74206d616b65206120566f74696e67546f6b656ea165627a7a72305820dc4e75db843676d0ead1818e9b06aa3eb98c41066667019ba2898f497cd1fc590029",
  "source": "/* Proposal.sol */\r\n\r\npragma solidity >=0.4.0 <0.7.0;\r\n\r\nimport \"../contracts/VotingToken.sol\";\r\n\r\nimport \"../contracts/Person.sol\";\r\nimport \"../contracts/UserManager.sol\";\r\n\r\nimport \"../contracts/Set.sol\";\r\n\r\n/* <Summary> \r\n\tThis contract manages one active proposal: Casts Votes, Tallies votes, give rewards\r\n*/\r\n\r\ncontract Proposal {\r\n\tusing Set for Set.Data;\r\n\r\n\tmapping (address => VotingToken) votingtokens;\t\t// Active Voting Tokens\r\n\tSet.Data voters;\t\t\t\t\t\t\t\t\t// Addresses who are eligible to vote\r\n\taddress[] haveTradedWith;\r\n\r\n\taddress lastOtherPartner = 0x0000000000000000000000000000000000000000;\r\n\taddress oldAccount;\t\t\t\t\t\t\t\t\t// Address of the old account\r\n\taddress newAccount;\t\t\t\t\t\t\t\t\t// Address of the new account\r\n\tstring description;\t\t\t\t\t\t\t\t\t// Description of Proposal\r\n\t\r\n\tuint numberOfVoters = 0;\r\n\tuint public price;\t\t\t\t\t\t\t\t\t// Price of the account recovery\r\n\tuint8 VotingTokenCreated = 0;\t\t\t\t\t\t// Number of Voting tokens created\r\n\tuint8 randomVoterVetos = 3;\r\n\tbool paided = false;\r\n\r\n\tconstructor(address _oldAccount, address _newAccount, string memory _description, uint _price) public {\r\n\t\t// Set variable\r\n\t\toldAccount = _oldAccount;\r\n\t\tnewAccount = _newAccount;\r\n\t\t\r\n\t\tdescription = _description;\r\n\t\tprice = _price;\r\n\t}\r\n\r\n\tfunction Pay(Person _newAccount) external {\r\n\t\trequire(_newAccount.balance() >= price, \"Not Enough funds for this Proposal\");\r\n\t\t_newAccount.decreaseBalance(price);\t\t\t// Removes money from the new account\r\n\t\tpaided = true;\t\t\t\t\t\t\t\t// The proposal has been paid for\r\n\t}\r\n\r\n\tfunction AddTradePartners(address[] calldata _tradePartners, UserManager UserManagerInstance, TransactionManager TransactionManagerInstance) external {\r\n\t\trequire(paided == true, \"This proposal has not been paid for yet\");\r\n\r\n\t\tfor (uint i = 0; i < _tradePartners.length; i++){\t// For each partner\r\n\t\t\tif (newAccount != _tradePartners[i]){\t\t\t// The new account can not be a voter\r\n\t\t\t\t// They have made a transaction with the old account\r\n\t\t\t\tif (TransactionManagerInstance.NumberOfTransactions(oldAccount, _tradePartners[i]) > 0){\r\n\t\t\t\t\tvoters.insert(_tradePartners[i]);\r\n\t\t\t\t}\r\n\t\t\t}\r\n\t\t}\r\n\t\trequire(voters.getValuesLength() >= 3, \"Invalid Number of tradePartners\");\r\n\t\tnumberOfVoters = voters.getValuesLength() * 2;\r\n\r\n\t\taddress[] memory addresses = UserManagerInstance.getAddresses(); // List of addresses on the network\r\n\r\n\t\tfor (uint i = 0; i < addresses.length; i++){\t\t\t\t\t// For each address\r\n\t\t\tif (newAccount != addresses[i]){\t\t\t\t\t\t\t// The new account can not be a voter\r\n\t\t\t\t// They have made a transaction with the old account\r\n\t\t\t\tif (TransactionManagerInstance.NumberOfTransactions(oldAccount, addresses[i]) > 0){\r\n\t\t\t\t\tif (!voters.contains(addresses[i])){\t\t\t// This address is not already a voter\r\n\t\t\t\t\t\thaveTradedWith.push(addresses[i]);\t\t\t\t// This address is an eligible voter\r\n\t\t\t\t\t}\r\n\t\t\t\t}\r\n\t\t\t}\r\n\t\t}\r\n\t\trequire(haveTradedWith.length >= 3, \"Invalid Number of haveTradedWith\");\r\n\t}\r\n\r\n\tfunction FindRandomTradingPartner() external {\r\n\t\t// require(paided == true, \"This proposal has not been paid for yet\");\r\n\t\trequire(numberOfVoters > 0, \"Trade partners have not been added to this yet proposal\");\r\n\t\trequire(randomVoterVetos > 0, \"Can not veto any more random voters\");\r\n\r\n\t\trandomVoterVetos--;\r\n\t\tuint index = random(lastOtherPartner, haveTradedWith.length);\t\t\t// Find random value\r\n\t\t\r\n\t\twhile(voters.contains(haveTradedWith[index])){\r\n\t\t\tindex = random(lastOtherPartner, haveTradedWith.length);\t\t\t// Find random value\r\n\t\t}\t\t\r\n\t\t\r\n\t\tlastOtherPartner = haveTradedWith[index];\r\n\t}\r\n\r\n\tfunction ViewRandomTradingPartner() external view returns (address) {\r\n\t\t// require(lastOtherPartner != 0x0000000000000000000000000000000000000000, \"You have not found a random trae partner yet\");\r\n\t\treturn lastOtherPartner;\r\n\t}\r\n\r\n\tfunction AddRandomTradingPartner() external {\r\n\t\t// require(paided == true, \"This proposal has not been paid for yet\");\r\n\t\t// require(voters.getValuesLength() > 0, \"Trade partners have not been added to this yet proposal\");\r\n\r\n\t\trequire( lastOtherPartner != 0x0000000000000000000000000000000000000000, \"Have to find a random trading partner first\");\r\n\t\trequire( !voters.contains(lastOtherPartner), \"Already added that address\");\r\n\r\n\t\trandomVoterVetos++;\r\n\r\n\t\tvoters.insert(lastOtherPartner);\r\n\t}\r\n\r\n\t// Make Voting Tokens\r\n\tfunction MakeVotingToken(address _oldAccount, address _voter, string calldata _description) external {\r\n\t\t// require(paided == true, \"This proposal has not been paid for yet\");\r\n\t\trequire(voters.getValuesLength() == numberOfVoters, \"Trade partners have not been added to this yet proposal\");\r\n\t\trequire(voters.contains(_voter), \"Invalid Voter. Can not make a VotingToken\");\r\n\r\n\t\tvotingtokens[_voter] = new VotingToken(_oldAccount, _voter, _description);\r\n\t\tVotingTokenCreated++;\t\t\t// Incroment the number of voting tokens created\r\n\t}\r\n\r\n\t// Casts a vote\r\n\tfunction CastVote(address _voter, bool choice) external {\r\n\t\tcheck(_voter);\r\n\r\n\t\tvotingtokens[_voter].CastVote(choice);\r\n\t}\r\n\r\n\tfunction CountVotes() private view returns(uint, uint) {\r\n\t\tuint total = 0;\t\t\t\t\t\t\t// Total number of votes\r\n\t\tuint yeses = 0;\t\t\t\t\t\t\t// Total number of yesses\r\n\r\n\t\tfor (uint i = 0; i < voters.getValuesLength(); i++) { // Goes through all voters\r\n\t\t\tVotingToken temp = votingtokens[voters.getValue(i)];\r\n\t\t\tif (temp.voted()){\t\t\t// They are a voter and they voted\r\n\t\t\t\ttotal++;\t\t\t\t\t\t// Incroment the total number of votes\r\n\t\t\t\tif (temp.vote()){ \t\t\t\t// They are a voter and they voted yes\r\n\t\t\t\t\tyeses++;\t\t\t\t\t\t// Incroment the number of yesses\r\n\t\t\t\t}\r\n\t\t\t}\r\n\t\t}\r\n\t\treturn (yeses, total);\r\n\t}\r\n\r\n\t// Give rewards to voters and return outcome of vote\r\n\tfunction ConcludeAccountRecovery(UserManager UserManagerInstance) external returns (bool, bool){\r\n\t\trequire(VotingTokenCreated == voters.getValuesLength(), \"Have not created all the VotingTokens\");\r\n\r\n\t\t(uint yeses, uint total) = CountVotes();\r\n\r\n\t\tbool outcome = (100*yeses) / total >= 66;\t\t\t// The outcome of the vote\r\n\t\tbool revote = (100*yeses) / total  >= 60;\t\t\t// There must be a re-vote\r\n\r\n\t\tfor (uint i = 0; i < voters.getValuesLength(); i++) { \t// Goes through all voters\r\n\t\t\tVotingToken temp = votingtokens[voters.getValue(i)];\r\n\t\t\tif (temp.voted()){\t\t\t\t\t\t\t// They are a voter and they voted\r\n\t\t\t\tuint amount = (price / 2) / total;\t\t\t\t// Reward for participating \r\n\t\t\t\tif (temp.vote() == outcome){\t\t\t\t// They voted correctly \r\n\t\t\t\t\tamount += (price / 2) / yeses;\t\t\t\t// Reward for voting correctly \r\n\t\t\t\t}\r\n\r\n\t\t\t\tPerson voter = UserManagerInstance.getUser(voters.getValue(i)); // Gets voter in the network\r\n\t\t\t\tvoter.increaseBalance(amount);\t\t\t\t\t// Increases balance\r\n\t\t\t}\r\n\t\t}\r\n\t\treturn (outcome, revote);\t\t\t\t\t\t\t\t// Return outcome of vote\r\n\t}\r\n\r\n\t// Add set of data for a give transaction for a give voter\r\n\tfunction AddTransactionDataSet(uint _timeStamp, address _voter, uint _amount, \r\n\t\tstring calldata _description, string calldata _itemsInTrade) external {\r\n\t\tcheck(_voter);\r\n\t\tvotingtokens[_voter].AddTransactionDataSet(_timeStamp, _voter, _amount, _description, _itemsInTrade);\r\n\t}\r\n\r\n\t// View public information on a set of data for a transaction\r\n\tfunction ViewPublicInformation( address _voter, uint i) external view returns (uint, uint, address, address) {\r\n\t\tcheck(_voter);\r\n\t\treturn votingtokens[_voter].ViewPublicInformation(i);\r\n\t}\r\n\r\n\t// View private information on a set of data for a transaction\r\n\tfunction ViewPrivateInformation( address _voter, uint i) external view returns (string memory, string memory) {\r\n\t\tcheck(_voter);\r\n\t\treturn votingtokens[_voter].ViewPrivateInformation(i);\r\n\t}\r\n\r\n\t// Generate random number using an address\r\n\tfunction random(address address1, uint size) private view returns (uint8) {\r\n\t\treturn uint8(uint256(keccak256(abi.encodePacked(block.timestamp, block.difficulty, address1, gasleft()))) % size);\r\n\t\t// return uint8(uint256(keccak256(abi.encodePacked(block.difficulty, block.coinbase, address1, gasleft()))) % size);\r\n\r\n\t}\r\n\r\n\tfunction check(address _voter) private view {\r\n\t\trequire(voters.contains(_voter), \"Invalid Voter. Can not make a VotingToken\");\r\n\t\trequire(VotingTokenCreated == voters.getValuesLength(), \"Have not created all the VotingTokens\");\r\n\t} \r\n\r\n\tfunction getVoters() public view returns (address[] memory){\r\n\t\treturn voters.getValues();\r\n\t}\r\n}\r\n",
  "sourcePath": "C:\\Users\\m5w5b\\Desktop\\GitHub\\game-dapp\\AccountRecovery\\contracts\\Proposal.sol",
  "compiler": {
    "name": "solc",
    "version": "0.5.8+commit.23d335f2.Emscripten.clang"
  },
  "schemaVersion": "3.0.16",
  "updatedAt": "2019-10-29T18:49:16.977Z",
  "devdoc": {
    "methods": {}
  },
  "userdoc": {
    "methods": {}
  }
}