{
  "contractName": "ProposalManager",
  "abi": [
    {
      "constant": true,
      "inputs": [
        {
          "name": "",
          "type": "uint256"
        }
      ],
      "name": "voters",
      "outputs": [
        {
          "name": "",
          "type": "address"
        }
      ],
      "payable": false,
      "stateMutability": "view",
      "type": "function"
    },
    {
      "inputs": [
        {
          "name": "UserManagerAddress",
          "type": "address"
        },
        {
          "name": "TransactionManagerAddress",
          "type": "address"
        }
      ],
      "payable": false,
      "stateMutability": "nonpayable",
      "type": "constructor"
    },
    {
      "constant": false,
      "inputs": [
        {
          "name": "oldAccount",
          "type": "address"
        },
        {
          "name": "tradePartners",
          "type": "address[]"
        }
      ],
      "name": "MakeProposal",
      "outputs": [],
      "payable": false,
      "stateMutability": "nonpayable",
      "type": "function"
    },
    {
      "constant": false,
      "inputs": [
        {
          "name": "oldAccount",
          "type": "address"
        },
        {
          "name": "newAccount",
          "type": "address"
        },
        {
          "name": "choice",
          "type": "bool"
        }
      ],
      "name": "CastVote",
      "outputs": [],
      "payable": false,
      "stateMutability": "nonpayable",
      "type": "function"
    },
    {
      "constant": false,
      "inputs": [
        {
          "name": "oldAccount",
          "type": "address"
        },
        {
          "name": "newAccount",
          "type": "address"
        }
      ],
      "name": "CountVotes",
      "outputs": [],
      "payable": false,
      "stateMutability": "nonpayable",
      "type": "function"
    },
    {
      "constant": true,
      "inputs": [
        {
          "name": "oldAccount",
          "type": "address"
        },
        {
          "name": "newAccount",
          "type": "address"
        }
      ],
      "name": "getOutcome",
      "outputs": [
        {
          "name": "",
          "type": "bool"
        }
      ],
      "payable": false,
      "stateMutability": "view",
      "type": "function"
    },
    {
      "constant": true,
      "inputs": [
        {
          "name": "oldAccount",
          "type": "address"
        },
        {
          "name": "newAccount",
          "type": "address"
        }
      ],
      "name": "getActiveProposal",
      "outputs": [
        {
          "name": "",
          "type": "address"
        }
      ],
      "payable": false,
      "stateMutability": "view",
      "type": "function"
    },
    {
      "constant": false,
      "inputs": [
        {
          "name": "oldAccount",
          "type": "address"
        },
        {
          "name": "timeStamp",
          "type": "uint256"
        },
        {
          "name": "amount",
          "type": "uint256"
        },
        {
          "name": "_voter",
          "type": "address"
        }
      ],
      "name": "AddPublicInformation",
      "outputs": [],
      "payable": false,
      "stateMutability": "nonpayable",
      "type": "function"
    },
    {
      "constant": false,
      "inputs": [
        {
          "name": "oldAccount",
          "type": "address"
        },
        {
          "name": "description",
          "type": "string"
        },
        {
          "name": "itemsInTrade",
          "type": "string"
        },
        {
          "name": "_voter",
          "type": "address"
        }
      ],
      "name": "AddPrivateInformation",
      "outputs": [],
      "payable": false,
      "stateMutability": "nonpayable",
      "type": "function"
    },
    {
      "constant": true,
      "inputs": [
        {
          "name": "oldAccount",
          "type": "address"
        },
        {
          "name": "newAccount",
          "type": "address"
        }
      ],
      "name": "ViewPublicInformation",
      "outputs": [
        {
          "name": "",
          "type": "uint256"
        },
        {
          "name": "",
          "type": "uint256"
        },
        {
          "name": "",
          "type": "address"
        },
        {
          "name": "",
          "type": "address"
        }
      ],
      "payable": false,
      "stateMutability": "view",
      "type": "function"
    },
    {
      "constant": true,
      "inputs": [
        {
          "name": "oldAccount",
          "type": "address"
        },
        {
          "name": "newAccount",
          "type": "address"
        }
      ],
      "name": "ViewPrivateInformation",
      "outputs": [
        {
          "name": "",
          "type": "string"
        },
        {
          "name": "",
          "type": "string"
        }
      ],
      "payable": false,
      "stateMutability": "view",
      "type": "function"
    },
    {
      "constant": true,
      "inputs": [
        {
          "name": "oldAccount",
          "type": "address"
        },
        {
          "name": "newAccount",
          "type": "address"
        }
      ],
      "name": "GetVotes",
      "outputs": [
        {
          "name": "",
          "type": "uint256"
        }
      ],
      "payable": false,
      "stateMutability": "view",
      "type": "function"
    },
    {
      "constant": true,
      "inputs": [
        {
          "name": "oldAccount",
          "type": "address"
        },
        {
          "name": "newAccount",
          "type": "address"
        }
      ],
      "name": "getResult",
      "outputs": [
        {
          "name": "",
          "type": "uint256"
        }
      ],
      "payable": false,
      "stateMutability": "view",
      "type": "function"
    }
  ],
  "bytecode": "0x608060405234801561001057600080fd5b506040516040806153ac8339810180604052604081101561003057600080fd5b810190808051906020019092919080519060200190929190505050816000806101000a81548173ffffffffffffffffffffffffffffffffffffffff021916908373ffffffffffffffffffffffffffffffffffffffff16021790555080600160006101000a81548173ffffffffffffffffffffffffffffffffffffffff021916908373ffffffffffffffffffffffffffffffffffffffff16021790555050506152cf806100dd6000396000f3fe60806040523480156200001157600080fd5b5060043610620000c45760003560e01c8063b6490c40116200007b578063b6490c40146200055e578063b7e3f59f1462000646578063c01f640714620006b9578063da58c7d91462000720578063df5dfad61462000791578063ea8e362314620008e357620000c4565b80635759617114620000c957806371edaf5214620001a75780637847d58114620003425780639d47bbd014620003c1578063a4a5f821146200043c578063a652629514620004b7575b600080fd5b620001a560048036036040811015620000e157600080fd5b81019080803573ffffffffffffffffffffffffffffffffffffffff169060200190929190803590602001906401000000008111156200011f57600080fd5b8201836020820111156200013257600080fd5b803590602001918460208302840111640100000000831117156200015557600080fd5b919080806020026020016040519081016040528093929190818152602001838360200280828437600081840152601f19601f8201169050808301925050505050505091929192905050506200095e565b005b6200034060048036036080811015620001bf57600080fd5b81019080803573ffffffffffffffffffffffffffffffffffffffff16906020019092919080359060200190640100000000811115620001fd57600080fd5b8201836020820111156200021057600080fd5b803590602001918460018302840111640100000000831117156200023357600080fd5b91908080601f016020809104026020016040519081016040528093929190818152602001838380828437600081840152601f19601f820116905080830192505050505050509192919290803590602001906401000000008111156200029757600080fd5b820183602082011115620002aa57600080fd5b80359060200191846001830284011164010000000083111715620002cd57600080fd5b91908080601f016020809104026020016040519081016040528093929190818152602001838380828437600081840152601f19601f820116905080830192505050505050509192919290803573ffffffffffffffffffffffffffffffffffffffff16906020019092919050505062000ee0565b005b620003a7600480360360408110156200035a57600080fd5b81019080803573ffffffffffffffffffffffffffffffffffffffff169060200190929190803573ffffffffffffffffffffffffffffffffffffffff1690602001909291905050506200106a565b604051808215151515815260200191505060405180910390f35b6200042660048036036040811015620003d957600080fd5b81019080803573ffffffffffffffffffffffffffffffffffffffff169060200190929190803573ffffffffffffffffffffffffffffffffffffffff16906020019092919050505062001103565b6040518082815260200191505060405180910390f35b620004a1600480360360408110156200045457600080fd5b81019080803573ffffffffffffffffffffffffffffffffffffffff169060200190929190803573ffffffffffffffffffffffffffffffffffffffff1690602001909291905050506200119c565b6040518082815260200191505060405180910390f35b6200051c60048036036040811015620004cf57600080fd5b81019080803573ffffffffffffffffffffffffffffffffffffffff169060200190929190803573ffffffffffffffffffffffffffffffffffffffff16906020019092919050505062001235565b604051808273ffffffffffffffffffffffffffffffffffffffff1673ffffffffffffffffffffffffffffffffffffffff16815260200191505060405180910390f35b620005c3600480360360408110156200057657600080fd5b81019080803573ffffffffffffffffffffffffffffffffffffffff169060200190929190803573ffffffffffffffffffffffffffffffffffffffff169060200190929190505050620013e9565b604051808581526020018481526020018373ffffffffffffffffffffffffffffffffffffffff1673ffffffffffffffffffffffffffffffffffffffff1681526020018273ffffffffffffffffffffffffffffffffffffffff1673ffffffffffffffffffffffffffffffffffffffff16815260200194505050505060405180910390f35b620006b7600480360360608110156200065e57600080fd5b81019080803573ffffffffffffffffffffffffffffffffffffffff169060200190929190803573ffffffffffffffffffffffffffffffffffffffff169060200190929190803515159060200190929190505050620014e4565b005b6200071e60048036036040811015620006d157600080fd5b81019080803573ffffffffffffffffffffffffffffffffffffffff169060200190929190803573ffffffffffffffffffffffffffffffffffffffff16906020019092919050505062001599565b005b6200074f600480360360208110156200073857600080fd5b810190808035906020019092919050505062001641565b604051808273ffffffffffffffffffffffffffffffffffffffff1673ffffffffffffffffffffffffffffffffffffffff16815260200191505060405180910390f35b620007f660048036036040811015620007a957600080fd5b81019080803573ffffffffffffffffffffffffffffffffffffffff169060200190929190803573ffffffffffffffffffffffffffffffffffffffff1690602001909291905050506200167e565b604051808060200180602001838103835285818151815260200191508051906020019080838360005b838110156200083c5780820151818401526020810190506200081f565b50505050905090810190601f1680156200086a5780820380516001836020036101000a031916815260200191505b50838103825284818151815260200191508051906020019080838360005b83811015620008a557808201518184015260208101905062000888565b50505050905090810190601f168015620008d35780820380516001836020036101000a031916815260200191505b5094505050505060405180910390f35b6200095c60048036036080811015620008fb57600080fd5b81019080803573ffffffffffffffffffffffffffffffffffffffff1690602001909291908035906020019092919080359060200190929190803573ffffffffffffffffffffffffffffffffffffffff169060200190929190505050620017fd565b005b6000600360008473ffffffffffffffffffffffffffffffffffffffff1673ffffffffffffffffffffffffffffffffffffffff16815260200190815260200160002060003373ffffffffffffffffffffffffffffffffffffffff1673ffffffffffffffffffffffffffffffffffffffff168152602001908152602001600020805490501462000a38576040517f08c379a0000000000000000000000000000000000000000000000000000000008152600401808060200182810382526030815260200180620052746030913960400191505060405180910390fd5b60008090505b815181101562000c59576000600160009054906101000a900473ffffffffffffffffffffffffffffffffffffffff1673ffffffffffffffffffffffffffffffffffffffff1663876cb1088585858151811062000a9657fe5b60200260200101516040518363ffffffff1660e01b8152600401808373ffffffffffffffffffffffffffffffffffffffff1673ffffffffffffffffffffffffffffffffffffffff1681526020018273ffffffffffffffffffffffffffffffffffffffff1673ffffffffffffffffffffffffffffffffffffffff1681526020019250505060006040518083038186803b15801562000b3257600080fd5b505afa15801562000b47573d6000803e3d6000fd5b505050506040513d6000823e3d601f19601f82011682018060405250602081101562000b7257600080fd5b81019080805164010000000081111562000b8b57600080fd5b8281019050602081018481111562000ba257600080fd5b815185602082028301116401000000008211171562000bc057600080fd5b505092919050505051111562000c4b57600282828151811062000bdf57fe5b602002602001015190806001815401808255809150509060018203906000526020600020016000909192909190916101000a81548173ffffffffffffffffffffffffffffffffffffffff021916908373ffffffffffffffffffffffffffffffffffffffff160217905550505b808060010191505062000a3e565b506003600280549050101562000cd7576040517f08c379a000000000000000000000000000000000000000000000000000000000815260040180806020018281038252601e8152602001807f496e76616c6964204e756d626572206f66207472616e73616374696f6e73000081525060200191505060405180910390fd5b600360008373ffffffffffffffffffffffffffffffffffffffff1673ffffffffffffffffffffffffffffffffffffffff16815260200190815260200160002060003373ffffffffffffffffffffffffffffffffffffffff1673ffffffffffffffffffffffffffffffffffffffff1681526020019081526020016000206002833360405162000d65906200191f565b80806020018473ffffffffffffffffffffffffffffffffffffffff1673ffffffffffffffffffffffffffffffffffffffff1681526020018373ffffffffffffffffffffffffffffffffffffffff1673ffffffffffffffffffffffffffffffffffffffff168152602001828103825285818154815260200191508054801562000e4357602002820191906000526020600020905b8160009054906101000a900473ffffffffffffffffffffffffffffffffffffffff1673ffffffffffffffffffffffffffffffffffffffff168152602001906001019080831162000df8575b5050945050505050604051809103906000f08015801562000e68573d6000803e3d6000fd5b5090806001815401808255809150509060018203906000526020600020016000909192909190916101000a81548173ffffffffffffffffffffffffffffffffffffffff021916908373ffffffffffffffffffffffffffffffffffffffff160217905550506002600062000edc91906200192d565b5050565b62000eec843362001235565b73ffffffffffffffffffffffffffffffffffffffff16632cbfd9ba8484846040518463ffffffff1660e01b81526004018080602001806020018473ffffffffffffffffffffffffffffffffffffffff1673ffffffffffffffffffffffffffffffffffffffff168152602001838103835286818151815260200191508051906020019080838360005b8381101562000f9157808201518184015260208101905062000f74565b50505050905090810190601f16801562000fbf5780820380516001836020036101000a031916815260200191505b50838103825285818151815260200191508051906020019080838360005b8381101562000ffa57808201518184015260208101905062000fdd565b50505050905090810190601f168015620010285780820380516001836020036101000a031916815260200191505b5095505050505050600060405180830381600087803b1580156200104b57600080fd5b505af115801562001060573d6000803e3d6000fd5b5050505050505050565b600062001078838362001235565b73ffffffffffffffffffffffffffffffffffffffff16637e7e4b476040518163ffffffff1660e01b815260040160206040518083038186803b158015620010be57600080fd5b505afa158015620010d3573d6000803e3d6000fd5b505050506040513d6020811015620010ea57600080fd5b8101908080519060200190929190505050905092915050565b600062001111838362001235565b73ffffffffffffffffffffffffffffffffffffffff1663653721476040518163ffffffff1660e01b815260040160206040518083038186803b1580156200115757600080fd5b505afa1580156200116c573d6000803e3d6000fd5b505050506040513d60208110156200118357600080fd5b8101908080519060200190929190505050905092915050565b6000620011aa838362001235565b73ffffffffffffffffffffffffffffffffffffffff16630dc960156040518163ffffffff1660e01b815260040160206040518083038186803b158015620011f057600080fd5b505afa15801562001205573d6000803e3d6000fd5b505050506040513d60208110156200121c57600080fd5b8101908080519060200190929190505050905092915050565b60006001600360008573ffffffffffffffffffffffffffffffffffffffff1673ffffffffffffffffffffffffffffffffffffffff16815260200190815260200160002060008473ffffffffffffffffffffffffffffffffffffffff1673ffffffffffffffffffffffffffffffffffffffff16815260200190815260200160002080549050146200132d576040517f08c379a000000000000000000000000000000000000000000000000000000000815260040180806020018281038252601b8152602001807f5468657265206973206e6f206163746976652050726f706f73616c000000000081525060200191505060405180910390fd5b600360008473ffffffffffffffffffffffffffffffffffffffff1673ffffffffffffffffffffffffffffffffffffffff16815260200190815260200160002060008373ffffffffffffffffffffffffffffffffffffffff1673ffffffffffffffffffffffffffffffffffffffff168152602001908152602001600020600081548110620013b657fe5b9060005260206000200160009054906101000a900473ffffffffffffffffffffffffffffffffffffffff16905092915050565b600080600080620013fb868662001235565b73ffffffffffffffffffffffffffffffffffffffff1663c2088963336040518263ffffffff1660e01b8152600401808273ffffffffffffffffffffffffffffffffffffffff1673ffffffffffffffffffffffffffffffffffffffff16815260200191505060806040518083038186803b1580156200147857600080fd5b505afa1580156200148d573d6000803e3d6000fd5b505050506040513d6080811015620014a457600080fd5b8101908080519060200190929190805190602001909291908051906020019092919080519060200190929190505050935093509350935092959194509250565b620014f0838362001235565b73ffffffffffffffffffffffffffffffffffffffff1663fa041dd733836040518363ffffffff1660e01b8152600401808373ffffffffffffffffffffffffffffffffffffffff1673ffffffffffffffffffffffffffffffffffffffff1681526020018215151515815260200192505050600060405180830381600087803b1580156200157b57600080fd5b505af115801562001590573d6000803e3d6000fd5b50505050505050565b620015a5828262001235565b73ffffffffffffffffffffffffffffffffffffffff1663d2e7b8be336040518263ffffffff1660e01b8152600401808273ffffffffffffffffffffffffffffffffffffffff1673ffffffffffffffffffffffffffffffffffffffff168152602001915050600060405180830381600087803b1580156200162457600080fd5b505af115801562001639573d6000803e3d6000fd5b505050505050565b600281815481106200164f57fe5b906000526020600020016000915054906101000a900473ffffffffffffffffffffffffffffffffffffffff1681565b6060806200168d848462001235565b73ffffffffffffffffffffffffffffffffffffffff1663f40eac84336040518263ffffffff1660e01b8152600401808273ffffffffffffffffffffffffffffffffffffffff1673ffffffffffffffffffffffffffffffffffffffff16815260200191505060006040518083038186803b1580156200170a57600080fd5b505afa1580156200171f573d6000803e3d6000fd5b505050506040513d6000823e3d601f19601f8201168201806040525060408110156200174a57600080fd5b8101908080516401000000008111156200176357600080fd5b828101905060208101848111156200177a57600080fd5b81518560018202830111640100000000821117156200179857600080fd5b50509291906020018051640100000000811115620017b557600080fd5b82810190506020810184811115620017cc57600080fd5b8151856001820283011164010000000082111715620017ea57600080fd5b5050929190505050915091509250929050565b62001809843362001235565b73ffffffffffffffffffffffffffffffffffffffff16631d72429a85338686866040518663ffffffff1660e01b8152600401808673ffffffffffffffffffffffffffffffffffffffff1673ffffffffffffffffffffffffffffffffffffffff1681526020018573ffffffffffffffffffffffffffffffffffffffff1673ffffffffffffffffffffffffffffffffffffffff1681526020018481526020018381526020018273ffffffffffffffffffffffffffffffffffffffff1673ffffffffffffffffffffffffffffffffffffffff16815260200195505050505050600060405180830381600087803b1580156200190057600080fd5b505af115801562001915573d6000803e3d6000fd5b5050505050505050565b6138fb806200197983390190565b50805460008255906000526020600020908101906200194d919062001950565b50565b6200197591905b808211156200197157600081600090555060010162001957565b5090565b9056fe60806040526040518060400160405280600481526020017f4747474700000000000000000000000000000000000000000000000000000000815250600590805190602001906200005192919062000534565b503480156200005f57600080fd5b50604051620038fb380380620038fb833981018060405260608110156200008557600080fd5b8101908080516401000000008111156200009e57600080fd5b82810190506020810184811115620000b557600080fd5b8151856020820283011164010000000082111715620000d357600080fd5b50509291906020018051906020019092919080519060200190929190505050600073ffffffffffffffffffffffffffffffffffffffff168273ffffffffffffffffffffffffffffffffffffffff16141562000196576040517f08c379a00000000000000000000000000000000000000000000000000000000081526004018080602001828103825260168152602001807f5468657265206973206e6f206f6c644163636f756e740000000000000000000081525060200191505060405180910390fd5b600073ffffffffffffffffffffffffffffffffffffffff168173ffffffffffffffffffffffffffffffffffffffff1614156200023a576040517f08c379a00000000000000000000000000000000000000000000000000000000081526004018080602001828103825260168152602001807f5468657265206973206e6f206e65774163636f756e740000000000000000000081525060200191505060405180910390fd5b81600260006101000a81548173ffffffffffffffffffffffffffffffffffffffff021916908373ffffffffffffffffffffffffffffffffffffffff16021790555080600360006101000a81548173ffffffffffffffffffffffffffffffffffffffff021916908373ffffffffffffffffffffffffffffffffffffffff1602179055508260019080519060200190620002d4929190620005bb565b5060008090505b6001805490508110156200052257600073ffffffffffffffffffffffffffffffffffffffff16600182815481106200030f57fe5b9060005260206000200160009054906101000a900473ffffffffffffffffffffffffffffffffffffffff1673ffffffffffffffffffffffffffffffffffffffff161415620003c5576040517f08c379a00000000000000000000000000000000000000000000000000000000081526004018080602001828103825260118152602001807f5468657265206973206e6f20766f74657200000000000000000000000000000081525060200191505060405180910390fd5b60018181548110620003d357fe5b9060005260206000200160009054906101000a900473ffffffffffffffffffffffffffffffffffffffff166040516200040c906200064a565b808273ffffffffffffffffffffffffffffffffffffffff1673ffffffffffffffffffffffffffffffffffffffff168152602001915050604051809103906000f0801580156200045f573d6000803e3d6000fd5b50600080600184815481106200047157fe5b9060005260206000200160009054906101000a900473ffffffffffffffffffffffffffffffffffffffff1673ffffffffffffffffffffffffffffffffffffffff1673ffffffffffffffffffffffffffffffffffffffff16815260200190815260200160002060006101000a81548173ffffffffffffffffffffffffffffffffffffffff021916908373ffffffffffffffffffffffffffffffffffffffff1602179055508080600101915050620002db565b506001600481905550505050620006c6565b828054600181600116156101000203166002900490600052602060002090601f016020900481019282601f106200057757805160ff1916838001178555620005a8565b82800160010185558215620005a8579182015b82811115620005a75782518255916020019190600101906200058a565b5b509050620005b7919062000658565b5090565b82805482825590600052602060002090810192821562000637579160200282015b82811115620006365782518260006101000a81548173ffffffffffffffffffffffffffffffffffffffff021916908373ffffffffffffffffffffffffffffffffffffffff16021790555091602001919060010190620005dc565b5b50905062000646919062000680565b5090565b611eb08062001a4b83390190565b6200067d91905b80821115620006795760008160009055506001016200065f565b5090565b90565b620006c391905b80821115620006bf57600081816101000a81549073ffffffffffffffffffffffffffffffffffffffff02191690555060010162000687565b5090565b90565b61137580620006d66000396000f3fe608060405234801561001057600080fd5b50600436106100b45760003560e01c8063c208896311610071578063c20889631461036b578063d2e7b8be14610430578063da58c7d914610474578063f40eac84146104e2578063f94825bf1461060b578063fa041dd714610655576100b4565b80630dc96015146100b95780631d72429a146100d75780632cbfd9ba1461016f57806365372147146102e15780637e7e4b47146102ff578063bf335e6214610321575b600080fd5b6100c16106a5565b6040518082815260200191505060405180910390f35b61016d600480360360a08110156100ed57600080fd5b81019080803573ffffffffffffffffffffffffffffffffffffffff169060200190929190803573ffffffffffffffffffffffffffffffffffffffff1690602001909291908035906020019092919080359060200190929190803573ffffffffffffffffffffffffffffffffffffffff169060200190929190505050610887565b005b6102df6004803603606081101561018557600080fd5b81019080803590602001906401000000008111156101a257600080fd5b8201836020820111156101b457600080fd5b803590602001918460018302840111640100000000831117156101d657600080fd5b91908080601f016020809104026020016040519081016040528093929190818152602001838380828437600081840152601f19601f8201169050808301925050505050505091929192908035906020019064010000000081111561023957600080fd5b82018360208201111561024b57600080fd5b8035906020019184600183028401116401000000008311171561026d57600080fd5b91908080601f016020809104026020016040519081016040528093929190818152602001838380828437600081840152601f19601f820116905080830192505050505050509192919290803573ffffffffffffffffffffffffffffffffffffffff169060200190929190505050610a6d565b005b6102e9610c0d565b6040518082815260200191505060405180910390f35b610307610c13565b604051808215151515815260200191505060405180910390f35b610329610c21565b604051808273ffffffffffffffffffffffffffffffffffffffff1673ffffffffffffffffffffffffffffffffffffffff16815260200191505060405180910390f35b6103ad6004803603602081101561038157600080fd5b81019080803573ffffffffffffffffffffffffffffffffffffffff169060200190929190505050610c47565b604051808581526020018481526020018373ffffffffffffffffffffffffffffffffffffffff1673ffffffffffffffffffffffffffffffffffffffff1681526020018273ffffffffffffffffffffffffffffffffffffffff1673ffffffffffffffffffffffffffffffffffffffff16815260200194505050505060405180910390f35b6104726004803603602081101561044657600080fd5b81019080803573ffffffffffffffffffffffffffffffffffffffff169060200190929190505050610d59565b005b6104a06004803603602081101561048a57600080fd5b8101908080359060200190929190505050611018565b604051808273ffffffffffffffffffffffffffffffffffffffff1673ffffffffffffffffffffffffffffffffffffffff16815260200191505060405180910390f35b610524600480360360208110156104f857600080fd5b81019080803573ffffffffffffffffffffffffffffffffffffffff169060200190929190505050611054565b604051808060200180602001838103835285818151815260200191508051906020019080838360005b8381101561056857808201518184015260208101905061054d565b50505050905090810190601f1680156105955780820380516001836020036101000a031916815260200191505b50838103825284818151815260200191508051906020019080838360005b838110156105ce5780820151818401526020810190506105b3565b50505050905090810190601f1680156105fb5780820380516001836020036101000a031916815260200191505b5094505050505060405180910390f35b6106136111e4565b604051808273ffffffffffffffffffffffffffffffffffffffff1673ffffffffffffffffffffffffffffffffffffffff16815260200191505060405180910390f35b6106a36004803603604081101561066b57600080fd5b81019080803573ffffffffffffffffffffffffffffffffffffffff16906020019092919080351515906020019092919050505061120a565b005b6000806000905060008090505b60018054905081101561087f576000806000600184815481106106d157fe5b9060005260206000200160009054906101000a900473ffffffffffffffffffffffffffffffffffffffff1673ffffffffffffffffffffffffffffffffffffffff1673ffffffffffffffffffffffffffffffffffffffff16815260200190815260200160002060009054906101000a900473ffffffffffffffffffffffffffffffffffffffff1690508073ffffffffffffffffffffffffffffffffffffffff16633500f91e6040518163ffffffff1660e01b815260040160206040518083038186803b15801561079f57600080fd5b505afa1580156107b3573d6000803e3d6000fd5b505050506040513d60208110156107c957600080fd5b8101908080519060200190929190505050801561086357508073ffffffffffffffffffffffffffffffffffffffff1663632a9a526040518163ffffffff1660e01b815260040160206040518083038186803b15801561082757600080fd5b505afa15801561083b573d6000803e3d6000fd5b505050506040513d602081101561085157600080fd5b81019080805190602001909291905050505b156108715782806001019350505b5080806001019150506106b2565b508091505090565b8373ffffffffffffffffffffffffffffffffffffffff16600360009054906101000a900473ffffffffffffffffffffffffffffffffffffffff1673ffffffffffffffffffffffffffffffffffffffff161461092d576040517f08c379a000000000000000000000000000000000000000000000000000000000815260040180806020018281038252603a815260200180611310603a913960400191505060405180910390fd5b6000808273ffffffffffffffffffffffffffffffffffffffff1673ffffffffffffffffffffffffffffffffffffffff16815260200190815260200160002060009054906101000a900473ffffffffffffffffffffffffffffffffffffffff1673ffffffffffffffffffffffffffffffffffffffff1663ea8e3623868585856040518563ffffffff1660e01b8152600401808573ffffffffffffffffffffffffffffffffffffffff1673ffffffffffffffffffffffffffffffffffffffff1681526020018481526020018381526020018273ffffffffffffffffffffffffffffffffffffffff1673ffffffffffffffffffffffffffffffffffffffff168152602001945050505050600060405180830381600087803b158015610a4e57600080fd5b505af1158015610a62573d6000803e3d6000fd5b505050505050505050565b6000808273ffffffffffffffffffffffffffffffffffffffff1673ffffffffffffffffffffffffffffffffffffffff16815260200190815260200160002060009054906101000a900473ffffffffffffffffffffffffffffffffffffffff1673ffffffffffffffffffffffffffffffffffffffff16630d4246e684846040518363ffffffff1660e01b8152600401808060200180602001838103835285818151815260200191508051906020019080838360005b83811015610b3c578082015181840152602081019050610b21565b50505050905090810190601f168015610b695780820380516001836020036101000a031916815260200191505b50838103825284818151815260200191508051906020019080838360005b83811015610ba2578082015181840152602081019050610b87565b50505050905090810190601f168015610bcf5780820380516001836020036101000a031916815260200191505b50945050505050600060405180830381600087803b158015610bf057600080fd5b505af1158015610c04573d6000803e3d6000fd5b50505050505050565b60045481565b600060426004541015905090565b600360009054906101000a900473ffffffffffffffffffffffffffffffffffffffff1681565b6000806000806000808673ffffffffffffffffffffffffffffffffffffffff1673ffffffffffffffffffffffffffffffffffffffff16815260200190815260200160002060009054906101000a900473ffffffffffffffffffffffffffffffffffffffff1673ffffffffffffffffffffffffffffffffffffffff1663224093736040518163ffffffff1660e01b815260040160806040518083038186803b158015610cf157600080fd5b505afa158015610d05573d6000803e3d6000fd5b505050506040513d6080811015610d1b57600080fd5b810190808051906020019092919080519060200190929190805190602001909291908051906020019092919050505093509350935093509193509193565b600360009054906101000a900473ffffffffffffffffffffffffffffffffffffffff1673ffffffffffffffffffffffffffffffffffffffff168173ffffffffffffffffffffffffffffffffffffffff1614610e1c576040517f08c379a000000000000000000000000000000000000000000000000000000000815260040180806020018281038252600d8152602001807f57726f6e67204163636f756e740000000000000000000000000000000000000081525060200191505060405180910390fd5b6000809050600080905060008090505b600180549050811015610fff57600080600060018481548110610e4b57fe5b9060005260206000200160009054906101000a900473ffffffffffffffffffffffffffffffffffffffff1673ffffffffffffffffffffffffffffffffffffffff1673ffffffffffffffffffffffffffffffffffffffff16815260200190815260200160002060009054906101000a900473ffffffffffffffffffffffffffffffffffffffff1690508073ffffffffffffffffffffffffffffffffffffffff16633500f91e6040518163ffffffff1660e01b815260040160206040518083038186803b158015610f1957600080fd5b505afa158015610f2d573d6000803e3d6000fd5b505050506040513d6020811015610f4357600080fd5b810190808051906020019092919050505015610ff1578073ffffffffffffffffffffffffffffffffffffffff1663632a9a526040518163ffffffff1660e01b815260040160206040518083038186803b158015610f9f57600080fd5b505afa158015610fb3573d6000803e3d6000fd5b505050506040513d6020811015610fc957600080fd5b810190808051906020019092919050505015610fe85783806001019450505b82806001019350505b508080600101915050610e2c565b5080606483028161100c57fe5b04600481905550505050565b6001818154811061102557fe5b906000526020600020016000915054906101000a900473ffffffffffffffffffffffffffffffffffffffff1681565b6060806000808473ffffffffffffffffffffffffffffffffffffffff1673ffffffffffffffffffffffffffffffffffffffff16815260200190815260200160002060009054906101000a900473ffffffffffffffffffffffffffffffffffffffff1673ffffffffffffffffffffffffffffffffffffffff1663822e59d26040518163ffffffff1660e01b815260040160006040518083038186803b1580156110fb57600080fd5b505afa15801561110f573d6000803e3d6000fd5b505050506040513d6000823e3d601f19601f82011682018060405250604081101561113957600080fd5b81019080805164010000000081111561115157600080fd5b8281019050602081018481111561116757600080fd5b815185600182028301116401000000008211171561118457600080fd5b505092919060200180516401000000008111156111a057600080fd5b828101905060208101848111156111b657600080fd5b81518560018202830111640100000000821117156111d357600080fd5b505092919050505091509150915091565b600260009054906101000a900473ffffffffffffffffffffffffffffffffffffffff1681565b6000808373ffffffffffffffffffffffffffffffffffffffff1673ffffffffffffffffffffffffffffffffffffffff16815260200190815260200160002060009054906101000a900473ffffffffffffffffffffffffffffffffffffffff1673ffffffffffffffffffffffffffffffffffffffff1663fa041dd783836040518363ffffffff1660e01b8152600401808373ffffffffffffffffffffffffffffffffffffffff1673ffffffffffffffffffffffffffffffffffffffff1681526020018215151515815260200192505050600060405180830381600087803b1580156112f357600080fd5b505af1158015611307573d6000803e3d6000fd5b50505050505056fe4f6e6c7920746865206f776e6572206f6620746869732070726f706f73616c2063616e20616464207075626c696320696e666f726d6174696f6ea165627a7a7230582024c3b0fdb1475ddd0da915817c99a301a6acbd016bd236004ec3327cba9bcb1f0029608060405234801561001057600080fd5b50604051602080611eb08339810180604052602081101561003057600080fd5b8101908080519060200190929190505050600073ffffffffffffffffffffffffffffffffffffffff168173ffffffffffffffffffffffffffffffffffffffff1614156100e4576040517f08c379a00000000000000000000000000000000000000000000000000000000081526004018080602001828103825260118152602001807f5468657265206973206e6f20766f74657200000000000000000000000000000081525060200191505060405180910390fd5b80600060016101000a81548173ffffffffffffffffffffffffffffffffffffffff021916908373ffffffffffffffffffffffffffffffffffffffff16021790555060008060156101000a81548160ff02191690831515021790555060016000806101000a81548160ff02191690831515021790555060008060166101000a81548160ff02191690831515021790555060008060176101000a81548160ff0219169083151502179055506001600060186101000a81548160ff0219169083151502179055506040516101b490610217565b604051809103906000f0801580156101d0573d6000803e3d6000fd5b50600160006101000a81548173ffffffffffffffffffffffffffffffffffffffff021916908373ffffffffffffffffffffffffffffffffffffffff16021790555050610224565b6108bc806115f483390190565b6113c1806102336000396000f3fe608060405234801561001057600080fd5b50600436106100b45760003560e01c80637c273ddb116100715780637c273ddb14610346578063822e59d21461036857806394bba46414610457578063c31e5f66146104a1578063ea8e3623146104c3578063fa041dd71461053b576100b4565b80630d4246e6146100b9578063224093731461020b578063267c4ae4146102965780633500f91e146102b857806346c96aac146102da578063632a9a5214610324575b600080fd5b610209600480360360408110156100cf57600080fd5b81019080803590602001906401000000008111156100ec57600080fd5b8201836020820111156100fe57600080fd5b8035906020019184600183028401116401000000008311171561012057600080fd5b91908080601f016020809104026020016040519081016040528093929190818152602001838380828437600081840152601f19601f8201169050808301925050505050505091929192908035906020019064010000000081111561018357600080fd5b82018360208201111561019557600080fd5b803590602001918460018302840111640100000000831117156101b757600080fd5b91908080601f016020809104026020016040519081016040528093929190818152602001838380828437600081840152601f19601f82011690508083019250505050505050919291929050505061058b565b005b610213610791565b604051808581526020018481526020018373ffffffffffffffffffffffffffffffffffffffff1673ffffffffffffffffffffffffffffffffffffffff1681526020018273ffffffffffffffffffffffffffffffffffffffff1673ffffffffffffffffffffffffffffffffffffffff16815260200194505050505060405180910390f35b61029e610a9d565b604051808215151515815260200191505060405180910390f35b6102c0610aaf565b604051808215151515815260200191505060405180910390f35b6102e2610ac2565b604051808273ffffffffffffffffffffffffffffffffffffffff1673ffffffffffffffffffffffffffffffffffffffff16815260200191505060405180910390f35b61032c610ae8565b604051808215151515815260200191505060405180910390f35b61034e610afb565b604051808215151515815260200191505060405180910390f35b610370610b0e565b604051808060200180602001838103835285818151815260200191508051906020019080838360005b838110156103b4578082015181840152602081019050610399565b50505050905090810190601f1680156103e15780820380516001836020036101000a031916815260200191505b50838103825284818151815260200191508051906020019080838360005b8381101561041a5780820151818401526020810190506103ff565b50505050905090810190601f1680156104475780820380516001836020036101000a031916815260200191505b5094505050505060405180910390f35b61045f610d7d565b604051808273ffffffffffffffffffffffffffffffffffffffff1673ffffffffffffffffffffffffffffffffffffffff16815260200191505060405180910390f35b6104a9610da3565b604051808215151515815260200191505060405180910390f35b610539600480360360808110156104d957600080fd5b81019080803573ffffffffffffffffffffffffffffffffffffffff1690602001909291908035906020019092919080359060200190929190803573ffffffffffffffffffffffffffffffffffffffff169060200190929190505050610db6565b005b6105896004803603604081101561055157600080fd5b81019080803573ffffffffffffffffffffffffffffffffffffffff16906020019092919080351515906020019092919050505061101f565b005b600115156000809054906101000a900460ff16151514610613576040517f08c379a00000000000000000000000000000000000000000000000000000000081526004018080602001828103825260198152602001807f5468697320766f74657220646f6573206e6f742065786973740000000000000081525060200191505060405180910390fd5b600160009054906101000a900473ffffffffffffffffffffffffffffffffffffffff1673ffffffffffffffffffffffffffffffffffffffff16630d4246e683836040518363ffffffff1660e01b8152600401808060200180602001838103835285818151815260200191508051906020019080838360005b838110156106a657808201518184015260208101905061068b565b50505050905090810190601f1680156106d35780820380516001836020036101000a031916815260200191505b50838103825284818151815260200191508051906020019080838360005b8381101561070c5780820151818401526020810190506106f1565b50505050905090810190601f1680156107395780820380516001836020036101000a031916815260200191505b50945050505050600060405180830381600087803b15801561075a57600080fd5b505af115801561076e573d6000803e3d6000fd5b505050506001600060186101000a81548160ff0219169083151502179055505050565b60008060008060011515600060179054906101000a900460ff16151514610803576040517f08c379a00000000000000000000000000000000000000000000000000000000081526004018080602001828103825260268152602001806113496026913960400191505060405180910390fd5b600160009054906101000a900473ffffffffffffffffffffffffffffffffffffffff1673ffffffffffffffffffffffffffffffffffffffff16630ab0df876040518163ffffffff1660e01b815260040160206040518083038186803b15801561086b57600080fd5b505afa15801561087f573d6000803e3d6000fd5b505050506040513d602081101561089557600080fd5b8101908080519060200190929190505050600160009054906101000a900473ffffffffffffffffffffffffffffffffffffffff1673ffffffffffffffffffffffffffffffffffffffff1663aa8c217c6040518163ffffffff1660e01b815260040160206040518083038186803b15801561090e57600080fd5b505afa158015610922573d6000803e3d6000fd5b505050506040513d602081101561093857600080fd5b8101908080519060200190929190505050600160009054906101000a900473ffffffffffffffffffffffffffffffffffffffff1673ffffffffffffffffffffffffffffffffffffffff166367e404ce6040518163ffffffff1660e01b815260040160206040518083038186803b1580156109b157600080fd5b505afa1580156109c5573d6000803e3d6000fd5b505050506040513d60208110156109db57600080fd5b8101908080519060200190929190505050600160009054906101000a900473ffffffffffffffffffffffffffffffffffffffff1673ffffffffffffffffffffffffffffffffffffffff1663f7260d3e6040518163ffffffff1660e01b815260040160206040518083038186803b158015610a5457600080fd5b505afa158015610a68573d6000803e3d6000fd5b505050506040513d6020811015610a7e57600080fd5b8101908080519060200190929190505050935093509350935090919293565b6000809054906101000a900460ff1681565b600060169054906101000a900460ff1681565b600060019054906101000a900473ffffffffffffffffffffffffffffffffffffffff1681565b600060159054906101000a900460ff1681565b600060189054906101000a900460ff1681565b60608060011515600060189054906101000a900460ff16151514610b7d576040517f08c379a000000000000000000000000000000000000000000000000000000000815260040180806020018281038252602781526020018061136f6027913960400191505060405180910390fd5b600160009054906101000a900473ffffffffffffffffffffffffffffffffffffffff1673ffffffffffffffffffffffffffffffffffffffff16637284e4166040518163ffffffff1660e01b815260040160006040518083038186803b158015610be557600080fd5b505afa158015610bf9573d6000803e3d6000fd5b505050506040513d6000823e3d601f19601f820116820180604052506020811015610c2357600080fd5b810190808051640100000000811115610c3b57600080fd5b82810190506020810184811115610c5157600080fd5b8151856001820283011164010000000082111715610c6e57600080fd5b5050929190505050600160009054906101000a900473ffffffffffffffffffffffffffffffffffffffff1673ffffffffffffffffffffffffffffffffffffffff16638dcdaeed6040518163ffffffff1660e01b815260040160006040518083038186803b158015610cde57600080fd5b505afa158015610cf2573d6000803e3d6000fd5b505050506040513d6000823e3d601f19601f820116820180604052506020811015610d1c57600080fd5b810190808051640100000000811115610d3457600080fd5b82810190506020810184811115610d4a57600080fd5b8151856001820283011164010000000082111715610d6757600080fd5b5050929190505050819150809050915091509091565b600160009054906101000a900473ffffffffffffffffffffffffffffffffffffffff1681565b600060179054906101000a900460ff1681565b600115156000809054906101000a900460ff16151514610e3e576040517f08c379a00000000000000000000000000000000000000000000000000000000081526004018080602001828103825260198152602001807f5468697320766f74657220646f6573206e6f742065786973740000000000000081525060200191505060405180910390fd5b8073ffffffffffffffffffffffffffffffffffffffff16600060019054906101000a900473ffffffffffffffffffffffffffffffffffffffff1673ffffffffffffffffffffffffffffffffffffffff1614610f01576040517f08c379a00000000000000000000000000000000000000000000000000000000081526004018080602001828103825260158152602001807f4e6f742074686520636f727265637420766f746572000000000000000000000081525060200191505060405180910390fd5b600160009054906101000a900473ffffffffffffffffffffffffffffffffffffffff1673ffffffffffffffffffffffffffffffffffffffff1663ea8e3623858585856040518563ffffffff1660e01b8152600401808573ffffffffffffffffffffffffffffffffffffffff1673ffffffffffffffffffffffffffffffffffffffff1681526020018481526020018381526020018273ffffffffffffffffffffffffffffffffffffffff1673ffffffffffffffffffffffffffffffffffffffff168152602001945050505050600060405180830381600087803b158015610fe657600080fd5b505af1158015610ffa573d6000803e3d6000fd5b505050506001600060176101000a81548160ff02191690831515021790555050505050565b600115156000809054906101000a900460ff161515146110a7576040517f08c379a00000000000000000000000000000000000000000000000000000000081526004018080602001828103825260198152602001807f5468697320766f74657220646f6573206e6f742065786973740000000000000081525060200191505060405180910390fd5b8173ffffffffffffffffffffffffffffffffffffffff16600060019054906101000a900473ffffffffffffffffffffffffffffffffffffffff1673ffffffffffffffffffffffffffffffffffffffff161461116a576040517f08c379a00000000000000000000000000000000000000000000000000000000081526004018080602001828103825260198152602001807f53656e742066726f6d207468652077726f6e6720766f7465720000000000000081525060200191505060405180910390fd5b60011515600060179054906101000a900460ff1615151480156111a0575060011515600060189054906101000a900460ff161515145b611212576040517f08c379a00000000000000000000000000000000000000000000000000000000081526004018080602001828103825260158152602001807f4e6f7420616e20656c696769626c6520766f746572000000000000000000000081525060200191505060405180910390fd5b60001515600060169054906101000a900460ff1615151461129b576040517f08c379a000000000000000000000000000000000000000000000000000000000815260040180806020018281038252600d8152602001807f416c726561647920566f7465640000000000000000000000000000000000000081525060200191505060405180910390fd5b80600060156101000a81548160ff0219169083151502179055506001600060166101000a81548160ff021916908315150217905550600060019054906101000a900473ffffffffffffffffffffffffffffffffffffffff1673ffffffffffffffffffffffffffffffffffffffff167fa635d31e67484fd1d93ba01ab0ef882e4440a78aa40d0e2771e8a2aace45986982604051808215151515815260200191505060405180910390a2505056fe5468657265206973206e6f207075626c696320696e666f726d6174696f6e20746f20766965775468657265206973206e6f207072697661746520696e666f726d6174696f6e20746f2076696577a165627a7a72305820098809fe0d10e993d2ff8a6d77ee83df4f8a62dda97d528735a3aa2940266c01002960806040526040518060400160405280600b81526020017f6465736372697074696f6e0000000000000000000000000000000000000000008152506004908051906020019061004f9291906100ae565b506040518060400160405280600c81526020017f6974656d73496e547261646500000000000000000000000000000000000000008152506005908051906020019061009b9291906100ae565b503480156100a857600080fd5b50610153565b828054600181600116156101000203166002900490600052602060002090601f016020900481019282601f106100ef57805160ff191683800117855561011d565b8280016001018555821561011d579182015b8281111561011c578251825591602001919060010190610101565b5b50905061012a919061012e565b5090565b61015091905b8082111561014c576000816000905550600101610134565b5090565b90565b61075a806101626000396000f3fe608060405234801561001057600080fd5b50600436106100885760003560e01c80638dcdaeed1161005b5780638dcdaeed146102ca578063aa8c217c1461034d578063ea8e36231461036b578063f7260d3e146103e357610088565b80630ab0df871461008d5780630d4246e6146100ab57806367e404ce146101fd5780637284e41614610247575b600080fd5b61009561042d565b6040518082815260200191505060405180910390f35b6101fb600480360360408110156100c157600080fd5b81019080803590602001906401000000008111156100de57600080fd5b8201836020820111156100f057600080fd5b8035906020019184600183028401116401000000008311171561011257600080fd5b91908080601f016020809104026020016040519081016040528093929190818152602001838380828437600081840152601f19601f8201169050808301925050505050505091929192908035906020019064010000000081111561017557600080fd5b82018360208201111561018757600080fd5b803590602001918460018302840111640100000000831117156101a957600080fd5b91908080601f016020809104026020016040519081016040528093929190818152602001838380828437600081840152601f19601f820116905080830192505050505050509192919290505050610433565b005b610205610465565b604051808273ffffffffffffffffffffffffffffffffffffffff1673ffffffffffffffffffffffffffffffffffffffff16815260200191505060405180910390f35b61024f61048b565b6040518080602001828103825283818151815260200191508051906020019080838360005b8381101561028f578082015181840152602081019050610274565b50505050905090810190601f1680156102bc5780820380516001836020036101000a031916815260200191505b509250505060405180910390f35b6102d2610529565b6040518080602001828103825283818151815260200191508051906020019080838360005b838110156103125780820151818401526020810190506102f7565b50505050905090810190601f16801561033f5780820380516001836020036101000a031916815260200191505b509250505060405180910390f35b6103556105c7565b6040518082815260200191505060405180910390f35b6103e16004803603608081101561038157600080fd5b81019080803573ffffffffffffffffffffffffffffffffffffffff1690602001909291908035906020019092919080359060200190929190803573ffffffffffffffffffffffffffffffffffffffff1690602001909291905050506105cd565b005b6103eb610663565b604051808273ffffffffffffffffffffffffffffffffffffffff1673ffffffffffffffffffffffffffffffffffffffff16815260200191505060405180910390f35b60005481565b8160049080519060200190610449929190610689565b508060059080519060200190610460929190610689565b505050565b600160009054906101000a900473ffffffffffffffffffffffffffffffffffffffff1681565b60048054600181600116156101000203166002900480601f0160208091040260200160405190810160405280929190818152602001828054600181600116156101000203166002900480156105215780601f106104f657610100808354040283529160200191610521565b820191906000526020600020905b81548152906001019060200180831161050457829003601f168201915b505050505081565b60058054600181600116156101000203166002900480601f0160208091040260200160405190810160405280929190818152602001828054600181600116156101000203166002900480156105bf5780601f10610594576101008083540402835291602001916105bf565b820191906000526020600020905b8154815290600101906020018083116105a257829003601f168201915b505050505081565b60035481565b826000819055508160038190555083600160006101000a81548173ffffffffffffffffffffffffffffffffffffffff021916908373ffffffffffffffffffffffffffffffffffffffff16021790555080600260006101000a81548173ffffffffffffffffffffffffffffffffffffffff021916908373ffffffffffffffffffffffffffffffffffffffff16021790555050505050565b600260009054906101000a900473ffffffffffffffffffffffffffffffffffffffff1681565b828054600181600116156101000203166002900490600052602060002090601f016020900481019282601f106106ca57805160ff19168380011785556106f8565b828001600101855582156106f8579182015b828111156106f75782518255916020019190600101906106dc565b5b5090506107059190610709565b5090565b61072b91905b8082111561072757600081600090555060010161070f565b5090565b9056fea165627a7a723058205e54680a30e9d11af76d16d9477944e1e1f1906eecd316b3690014be014b4ae20029546865726520616c72656164792065786973747320612050726f706f73616c20666f722074686973206163636f756e74a165627a7a72305820dadfc2ca5bf221fd60a1ca6908c8cf0d2c2abe40373209583923e847b5a1f8f70029",
  "source": "pragma solidity >=0.4.0 <0.7.0;\r\n\r\nimport \"../contracts/UserManager.sol\";\r\nimport \"../contracts/TransactionManager.sol\";\r\n\r\nimport \"../contracts/Person.sol\";\r\nimport \"../contracts/Proposal.sol\";\r\n\r\ncontract ProposalManager {\r\n\r\n\tUserManager UserManagerInstance;\r\n\tTransactionManager TransactionManagerInstance;\r\n\r\n\taddress[] public voters;\r\n\tmapping (address => mapping (address => Proposal[]) ) activeProposals;\r\n\r\n\tconstructor(address UserManagerAddress, address TransactionManagerAddress ) public {\r\n\t\tUserManagerInstance = UserManager(UserManagerAddress);\r\n\t\tTransactionManagerInstance = TransactionManager(TransactionManagerAddress);\r\n\t}\r\n\t\r\n\tfunction MakeProposal(address oldAccount, address[] memory tradePartners) public {\r\n\t\trequire(activeProposals[oldAccount][msg.sender].length == 0, \"There already exists a Proposal for this account\");\r\n\r\n\t\tfor (uint i = 0; i < tradePartners.length; i++){\r\n\t\t\tif (TransactionManagerInstance.getTransactions(oldAccount, tradePartners[i]).length > 0){\r\n\t\t\t\tvoters.push(tradePartners[i]);\r\n\t\t\t}\r\n\t\t}\r\n\r\n\t\t/*\r\n\t\taddress[] memory addresses = UserManagerInstance.getAddresses();\r\n\r\n\t\tfor (uint i = 0; i < addresses.length; i++){\r\n\t\t\tif (TransactionManagerInstance.getTransactions(oldAccount, addresses[i]).length > 0){\r\n\t\t\t\tbool exists = false;\r\n\t\t\t\tfor (uint j = 0; j < tradePartners.length; j++){\r\n\t\t\t\t\tif (addresses[i] == tradePartners[j]){\r\n\t\t\t\t\t\texists = true;\r\n\t\t\t\t\t}\r\n\t\t\t\t}\r\n\t\t\t\tif (exists == false){\r\n\t\t\t\t\tvoters.push(addresses[i]);\r\n\t\t\t\t}\r\n\t\t\t}\r\n\t\t}\r\n\t\t*/\r\n\t\trequire(voters.length >= 3, \"Invalid Number of transactions\");\r\n\r\n\t\t// Proposal temp = new Proposal(tradePartners, oldAccount, msg.sender);\r\n\t\tactiveProposals[oldAccount][msg.sender].push(new Proposal(voters, oldAccount, msg.sender));\r\n\r\n\t\tdelete voters;\r\n\t}\r\n\r\n\tfunction CastVote(address oldAccount, address newAccount, bool choice) public {\r\n\t\tgetActiveProposal(oldAccount, newAccount).CastVote(msg.sender, choice);\r\n\t}\r\n\r\n\tfunction CountVotes(address oldAccount, address newAccount) public {\r\n\t\tgetActiveProposal(oldAccount, newAccount).CountVotes(msg.sender);\r\n\t}\r\n\r\n\tfunction getOutcome(address oldAccount, address newAccount) public view returns(bool) {\r\n\t\treturn getActiveProposal(oldAccount, newAccount).getOutcome();\r\n\t}\r\n\r\n\tfunction getActiveProposal(address oldAccount, address newAccount) public view returns (Proposal) {\r\n\t\trequire(activeProposals[oldAccount][newAccount].length == 1, \"There is no active Proposal\");\r\n\t\treturn activeProposals[oldAccount][newAccount][0];\r\n\t}\r\n\r\n\tfunction AddPublicInformation(address oldAccount,uint timeStamp, uint amount, address _voter) public {\r\n\t\tgetActiveProposal(oldAccount, msg.sender).AddPublicInformation(oldAccount, msg.sender, timeStamp, amount, _voter);\r\n\t}\r\n\tfunction AddPrivateInformation(address oldAccount, string memory description, string memory itemsInTrade, address _voter) public {\r\n\t\tgetActiveProposal(oldAccount, msg.sender).AddPrivateInformation( description, itemsInTrade, _voter);\r\n\t}\r\n\r\n\tfunction ViewPublicInformation(address oldAccount, address newAccount) public view returns (uint, uint, address, address)  {\r\n\t\treturn getActiveProposal(oldAccount, newAccount).ViewPublicInformation( msg.sender );\r\n\t}\r\n\r\n\tfunction ViewPrivateInformation(address oldAccount, address newAccount) public view returns (string memory, string memory)  {\r\n\t\treturn getActiveProposal(oldAccount, newAccount).ViewPrivateInformation( msg.sender );\r\n\t}\r\n\r\n\r\n\r\n\r\n\r\n\r\n\r\n\r\n\r\n\r\n\t/*\r\n\tfunction random(uint8 size) public view returns (uint8) {\r\n        return uint8(uint256(keccak256(abi.encodePacked(block.timestamp, block.difficulty)))%size);\r\n    }\r\n    */\r\n\r\n\tfunction GetVotes(address oldAccount, address newAccount) public view returns(uint) {\r\n\t\treturn getActiveProposal(oldAccount, newAccount).getVotes();\r\n\t}\r\n\tfunction getResult(address oldAccount, address newAccount) public view returns(uint) {\r\n\t\treturn getActiveProposal(oldAccount, newAccount).result();\r\n\t}\r\n}",
  "sourcePath": "C:/Users/m5w5b/Desktop/GitHub/game-dapp/AccountRecovery/contracts/ProposalManager.sol",
  "compiler": {
    "name": "solc",
    "version": "0.5.8+commit.23d335f2.Emscripten.clang"
  },
  "schemaVersion": "3.0.16",
  "updatedAt": "2019-10-12T20:09:30.236Z",
  "devdoc": {
    "methods": {}
  },
  "userdoc": {
    "methods": {}
  }
}