{
  "contractName": "ProposalCreator",
  "abi": [
    {
      "inputs": [
        {
          "name": "UserManagerAddress",
          "type": "address"
        },
        {
          "name": "TransactionManagerAddress",
          "type": "address"
        },
        {
          "name": "ProposalManagerAddress",
          "type": "address"
        }
      ],
      "payable": false,
      "stateMutability": "nonpayable",
      "type": "constructor"
    },
    {
      "constant": false,
      "inputs": [
        {
          "name": "_oldAccount",
          "type": "address"
        },
        {
          "name": "_description",
          "type": "string"
        }
      ],
      "name": "StartProposal",
      "outputs": [],
      "payable": false,
      "stateMutability": "nonpayable",
      "type": "function"
    },
    {
      "constant": true,
      "inputs": [
        {
          "name": "_oldAccount",
          "type": "address"
        }
      ],
      "name": "ViewPrice",
      "outputs": [
        {
          "name": "",
          "type": "uint256"
        }
      ],
      "payable": false,
      "stateMutability": "view",
      "type": "function"
    },
    {
      "constant": false,
      "inputs": [
        {
          "name": "_oldAccount",
          "type": "address"
        },
        {
          "name": "_pay",
          "type": "bool"
        }
      ],
      "name": "Pay",
      "outputs": [],
      "payable": false,
      "stateMutability": "nonpayable",
      "type": "function"
    },
    {
      "constant": false,
      "inputs": [
        {
          "name": "_oldAccount",
          "type": "address"
        },
        {
          "name": "_tradePartners",
          "type": "address[]"
        }
      ],
      "name": "AddTradePartners",
      "outputs": [],
      "payable": false,
      "stateMutability": "nonpayable",
      "type": "function"
    },
    {
      "constant": false,
      "inputs": [
        {
          "name": "_oldAccount",
          "type": "address"
        }
      ],
      "name": "FindRandomTradingPartner",
      "outputs": [],
      "payable": false,
      "stateMutability": "nonpayable",
      "type": "function"
    },
    {
      "constant": true,
      "inputs": [
        {
          "name": "_oldAccount",
          "type": "address"
        }
      ],
      "name": "ViewRandomTradingPartner",
      "outputs": [
        {
          "name": "",
          "type": "address"
        }
      ],
      "payable": false,
      "stateMutability": "view",
      "type": "function"
    },
    {
      "constant": false,
      "inputs": [
        {
          "name": "_oldAccount",
          "type": "address"
        }
      ],
      "name": "AddRandomTradingPartner",
      "outputs": [],
      "payable": false,
      "stateMutability": "nonpayable",
      "type": "function"
    },
    {
      "constant": false,
      "inputs": [
        {
          "name": "oldAccount",
          "type": "address"
        },
        {
          "name": "_voter",
          "type": "address"
        },
        {
          "name": "_description",
          "type": "string"
        }
      ],
      "name": "MakeVotingToken",
      "outputs": [],
      "payable": false,
      "stateMutability": "nonpayable",
      "type": "function"
    },
    {
      "constant": false,
      "inputs": [
        {
          "name": "oldAccount",
          "type": "address"
        },
        {
          "name": "timeStamp",
          "type": "uint256"
        },
        {
          "name": "_amount",
          "type": "uint256"
        },
        {
          "name": "_voter",
          "type": "address"
        },
        {
          "name": "_description",
          "type": "string"
        },
        {
          "name": "_itemsInTrade",
          "type": "string"
        }
      ],
      "name": "MakeTransactionDataSet",
      "outputs": [],
      "payable": false,
      "stateMutability": "nonpayable",
      "type": "function"
    }
  ],
  "bytecode": "0x608060405234801561001057600080fd5b5060405160608061602a8339810180604052606081101561003057600080fd5b81019080805190602001909291908051906020019092919080519060200190929190505050826000806101000a81548173ffffffffffffffffffffffffffffffffffffffff021916908373ffffffffffffffffffffffffffffffffffffffff16021790555081600160006101000a81548173ffffffffffffffffffffffffffffffffffffffff021916908373ffffffffffffffffffffffffffffffffffffffff16021790555080600260006101000a81548173ffffffffffffffffffffffffffffffffffffffff021916908373ffffffffffffffffffffffffffffffffffffffff160217905550505050615f01806101296000396000f3fe60806040523480156200001157600080fd5b5060043610620000a05760003560e01c806366fe4d2f116200006f57806366fe4d2f1462000265578063685c12e414620002c0578063790497391462000307578063e8d94c001462000432578063fa848b7e14620004f157620000a0565b80632ec59b6e14620000a55780634bdc7b5014620000f8578063516e4c2a146200017f5780635d0eebea146200021e575b600080fd5b620000f660048036036040811015620000bd57600080fd5b81019080803573ffffffffffffffffffffffffffffffffffffffff16906020019092919080351515906020019092919050505062000590565b005b6200013d600480360360208110156200011057600080fd5b81019080803573ffffffffffffffffffffffffffffffffffffffff1690602001909291905050506200091b565b604051808273ffffffffffffffffffffffffffffffffffffffff1673ffffffffffffffffffffffffffffffffffffffff16815260200191505060405180910390f35b6200021c600480360360408110156200019757600080fd5b81019080803573ffffffffffffffffffffffffffffffffffffffff16906020019092919080359060200190640100000000811115620001d557600080fd5b820183602082011115620001e857600080fd5b803590602001918460208302840111640100000000831117156200020b57600080fd5b909192939192939050505062000ab8565b005b62000263600480360360208110156200023657600080fd5b81019080803573ffffffffffffffffffffffffffffffffffffffff16906020019092919050505062000ece565b005b620002aa600480360360208110156200027d57600080fd5b81019080803573ffffffffffffffffffffffffffffffffffffffff16906020019092919050505062001043565b6040518082815260200191505060405180910390f35b6200030560048036036020811015620002d857600080fd5b81019080803573ffffffffffffffffffffffffffffffffffffffff169060200190929190505050620011e0565b005b62000430600480360360c08110156200031f57600080fd5b81019080803573ffffffffffffffffffffffffffffffffffffffff1690602001909291908035906020019092919080359060200190929190803573ffffffffffffffffffffffffffffffffffffffff169060200190929190803590602001906401000000008111156200039157600080fd5b820183602082011115620003a457600080fd5b80359060200191846001830284011164010000000083111715620003c757600080fd5b909192939192939080359060200190640100000000811115620003e957600080fd5b820183602082011115620003fc57600080fd5b803590602001918460018302840111640100000000831117156200041f57600080fd5b909192939192939050505062001355565b005b620004ef600480360360608110156200044a57600080fd5b81019080803573ffffffffffffffffffffffffffffffffffffffff169060200190929190803573ffffffffffffffffffffffffffffffffffffffff16906020019092919080359060200190640100000000811115620004a857600080fd5b820183602082011115620004bb57600080fd5b80359060200191846001830284011164010000000083111715620004de57600080fd5b909192939192939050505062001714565b005b6200058e600480360360408110156200050957600080fd5b81019080803573ffffffffffffffffffffffffffffffffffffffff169060200190929190803590602001906401000000008111156200054757600080fd5b8201836020820111156200055a57600080fd5b803590602001918460018302840111640100000000831117156200057d57600080fd5b90919293919293905050506200192b565b005b8015620008275760008060009054906101000a900473ffffffffffffffffffffffffffffffffffffffff1673ffffffffffffffffffffffffffffffffffffffff16636f77926b336040518263ffffffff1660e01b8152600401808273ffffffffffffffffffffffffffffffffffffffff1673ffffffffffffffffffffffffffffffffffffffff16815260200191505060206040518083038186803b1580156200063857600080fd5b505afa1580156200064d573d6000803e3d6000fd5b505050506040513d60208110156200066457600080fd5b81019080805190602001909291905050509050600260009054906101000a900473ffffffffffffffffffffffffffffffffffffffff1673ffffffffffffffffffffffffffffffffffffffff1663a652629584336040518363ffffffff1660e01b8152600401808373ffffffffffffffffffffffffffffffffffffffff1673ffffffffffffffffffffffffffffffffffffffff1681526020018273ffffffffffffffffffffffffffffffffffffffff1673ffffffffffffffffffffffffffffffffffffffff1681526020019250505060206040518083038186803b1580156200074b57600080fd5b505afa15801562000760573d6000803e3d6000fd5b505050506040513d60208110156200077757600080fd5b810190808051906020019092919050505073ffffffffffffffffffffffffffffffffffffffff1663cde596b2826040518263ffffffff1660e01b8152600401808273ffffffffffffffffffffffffffffffffffffffff1673ffffffffffffffffffffffffffffffffffffffff168152602001915050600060405180830381600087803b1580156200080757600080fd5b505af11580156200081c573d6000803e3d6000fd5b505050505062000917565b600260009054906101000a900473ffffffffffffffffffffffffffffffffffffffff1673ffffffffffffffffffffffffffffffffffffffff16636f4b8b7283336040518363ffffffff1660e01b8152600401808373ffffffffffffffffffffffffffffffffffffffff1673ffffffffffffffffffffffffffffffffffffffff1681526020018273ffffffffffffffffffffffffffffffffffffffff1673ffffffffffffffffffffffffffffffffffffffff16815260200192505050600060405180830381600087803b158015620008fd57600080fd5b505af115801562000912573d6000803e3d6000fd5b505050505b5050565b6000600260009054906101000a900473ffffffffffffffffffffffffffffffffffffffff1673ffffffffffffffffffffffffffffffffffffffff1663a652629583336040518363ffffffff1660e01b8152600401808373ffffffffffffffffffffffffffffffffffffffff1673ffffffffffffffffffffffffffffffffffffffff1681526020018273ffffffffffffffffffffffffffffffffffffffff1673ffffffffffffffffffffffffffffffffffffffff1681526020019250505060206040518083038186803b158015620009f157600080fd5b505afa15801562000a06573d6000803e3d6000fd5b505050506040513d602081101562000a1d57600080fd5b810190808051906020019092919050505073ffffffffffffffffffffffffffffffffffffffff16638db5d0d26040518163ffffffff1660e01b815260040160206040518083038186803b15801562000a7457600080fd5b505afa15801562000a89573d6000803e3d6000fd5b505050506040513d602081101562000aa057600080fd5b81019080805190602001909291905050509050919050565b6060600260009054906101000a900473ffffffffffffffffffffffffffffffffffffffff1673ffffffffffffffffffffffffffffffffffffffff1663f1338ba185336040518363ffffffff1660e01b8152600401808373ffffffffffffffffffffffffffffffffffffffff1673ffffffffffffffffffffffffffffffffffffffff1681526020018273ffffffffffffffffffffffffffffffffffffffff1673ffffffffffffffffffffffffffffffffffffffff1681526020019250505060006040518083038186803b15801562000b8e57600080fd5b505afa15801562000ba3573d6000803e3d6000fd5b505050506040513d6000823e3d601f19601f82011682018060405250602081101562000bce57600080fd5b81019080805164010000000081111562000be757600080fd5b8281019050602081018481111562000bfe57600080fd5b815185602082028301116401000000008211171562000c1c57600080fd5b50509291905050509050600260009054906101000a900473ffffffffffffffffffffffffffffffffffffffff1673ffffffffffffffffffffffffffffffffffffffff1663a652629585336040518363ffffffff1660e01b8152600401808373ffffffffffffffffffffffffffffffffffffffff1673ffffffffffffffffffffffffffffffffffffffff1681526020018273ffffffffffffffffffffffffffffffffffffffff1673ffffffffffffffffffffffffffffffffffffffff1681526020019250505060206040518083038186803b15801562000cfa57600080fd5b505afa15801562000d0f573d6000803e3d6000fd5b505050506040513d602081101562000d2657600080fd5b810190808051906020019092919050505073ffffffffffffffffffffffffffffffffffffffff1663fac0328d8484846000809054906101000a900473ffffffffffffffffffffffffffffffffffffffff16600160009054906101000a900473ffffffffffffffffffffffffffffffffffffffff166040518663ffffffff1660e01b81526004018080602001806020018573ffffffffffffffffffffffffffffffffffffffff1673ffffffffffffffffffffffffffffffffffffffff1681526020018473ffffffffffffffffffffffffffffffffffffffff1673ffffffffffffffffffffffffffffffffffffffff1681526020018381038352888882818152602001925060200280828437600081840152601f19601f820116905080830192505050838103825286818151815260200191508051906020019060200280838360005b8381101562000e8457808201518184015260208101905062000e67565b50505050905001975050505050505050600060405180830381600087803b15801562000eaf57600080fd5b505af115801562000ec4573d6000803e3d6000fd5b5050505050505050565b600260009054906101000a900473ffffffffffffffffffffffffffffffffffffffff1673ffffffffffffffffffffffffffffffffffffffff1663a652629582336040518363ffffffff1660e01b8152600401808373ffffffffffffffffffffffffffffffffffffffff1673ffffffffffffffffffffffffffffffffffffffff1681526020018273ffffffffffffffffffffffffffffffffffffffff1673ffffffffffffffffffffffffffffffffffffffff1681526020019250505060206040518083038186803b15801562000fa257600080fd5b505afa15801562000fb7573d6000803e3d6000fd5b505050506040513d602081101562000fce57600080fd5b810190808051906020019092919050505073ffffffffffffffffffffffffffffffffffffffff1663ae70981f6040518163ffffffff1660e01b8152600401600060405180830381600087803b1580156200102757600080fd5b505af11580156200103c573d6000803e3d6000fd5b5050505050565b6000600260009054906101000a900473ffffffffffffffffffffffffffffffffffffffff1673ffffffffffffffffffffffffffffffffffffffff1663a652629583336040518363ffffffff1660e01b8152600401808373ffffffffffffffffffffffffffffffffffffffff1673ffffffffffffffffffffffffffffffffffffffff1681526020018273ffffffffffffffffffffffffffffffffffffffff1673ffffffffffffffffffffffffffffffffffffffff1681526020019250505060206040518083038186803b1580156200111957600080fd5b505afa1580156200112e573d6000803e3d6000fd5b505050506040513d60208110156200114557600080fd5b810190808051906020019092919050505073ffffffffffffffffffffffffffffffffffffffff1663a035b1fe6040518163ffffffff1660e01b815260040160206040518083038186803b1580156200119c57600080fd5b505afa158015620011b1573d6000803e3d6000fd5b505050506040513d6020811015620011c857600080fd5b81019080805190602001909291905050509050919050565b600260009054906101000a900473ffffffffffffffffffffffffffffffffffffffff1673ffffffffffffffffffffffffffffffffffffffff1663a652629582336040518363ffffffff1660e01b8152600401808373ffffffffffffffffffffffffffffffffffffffff1673ffffffffffffffffffffffffffffffffffffffff1681526020018273ffffffffffffffffffffffffffffffffffffffff1673ffffffffffffffffffffffffffffffffffffffff1681526020019250505060206040518083038186803b158015620012b457600080fd5b505afa158015620012c9573d6000803e3d6000fd5b505050506040513d6020811015620012e057600080fd5b810190808051906020019092919050505073ffffffffffffffffffffffffffffffffffffffff1663512b84266040518163ffffffff1660e01b8152600401600060405180830381600087803b1580156200133957600080fd5b505af11580156200134e573d6000803e3d6000fd5b5050505050565b600160009054906101000a900473ffffffffffffffffffffffffffffffffffffffff1673ffffffffffffffffffffffffffffffffffffffff1663f90bee5689878a8a6040518563ffffffff1660e01b8152600401808573ffffffffffffffffffffffffffffffffffffffff1673ffffffffffffffffffffffffffffffffffffffff1681526020018473ffffffffffffffffffffffffffffffffffffffff1673ffffffffffffffffffffffffffffffffffffffff16815260200183815260200182815260200194505050505060206040518083038186803b1580156200143957600080fd5b505afa1580156200144e573d6000803e3d6000fd5b505050506040513d60208110156200146557600080fd5b8101908080519060200190929190505050620014e9576040517f08c379a000000000000000000000000000000000000000000000000000000000815260040180806020018281038252601f8152602001807f54686973207472616e73616374696f6e20646f6573206e6f742065786973740081525060200191505060405180910390fd5b600260009054906101000a900473ffffffffffffffffffffffffffffffffffffffff1673ffffffffffffffffffffffffffffffffffffffff1663a652629589336040518363ffffffff1660e01b8152600401808373ffffffffffffffffffffffffffffffffffffffff1673ffffffffffffffffffffffffffffffffffffffff1681526020018273ffffffffffffffffffffffffffffffffffffffff1673ffffffffffffffffffffffffffffffffffffffff1681526020019250505060206040518083038186803b158015620015bd57600080fd5b505afa158015620015d2573d6000803e3d6000fd5b505050506040513d6020811015620015e957600080fd5b810190808051906020019092919050505073ffffffffffffffffffffffffffffffffffffffff166319e5fba0888789888888886040518863ffffffff1660e01b8152600401808881526020018773ffffffffffffffffffffffffffffffffffffffff1673ffffffffffffffffffffffffffffffffffffffff16815260200186815260200180602001806020018381038352878782818152602001925080828437600081840152601f19601f8201169050808301925050508381038252858582818152602001925080828437600081840152601f19601f8201169050808301925050509950505050505050505050600060405180830381600087803b158015620016f157600080fd5b505af115801562001706573d6000803e3d6000fd5b505050505050505050505050565b600260009054906101000a900473ffffffffffffffffffffffffffffffffffffffff1673ffffffffffffffffffffffffffffffffffffffff1663a652629585336040518363ffffffff1660e01b8152600401808373ffffffffffffffffffffffffffffffffffffffff1673ffffffffffffffffffffffffffffffffffffffff1681526020018273ffffffffffffffffffffffffffffffffffffffff1673ffffffffffffffffffffffffffffffffffffffff1681526020019250505060206040518083038186803b158015620017e857600080fd5b505afa158015620017fd573d6000803e3d6000fd5b505050506040513d60208110156200181457600080fd5b810190808051906020019092919050505073ffffffffffffffffffffffffffffffffffffffff1663e8d94c00858585856040518563ffffffff1660e01b8152600401808573ffffffffffffffffffffffffffffffffffffffff1673ffffffffffffffffffffffffffffffffffffffff1681526020018473ffffffffffffffffffffffffffffffffffffffff1673ffffffffffffffffffffffffffffffffffffffff168152602001806020018281038252848482818152602001925080828437600081840152601f19601f82011690508083019250505095505050505050600060405180830381600087803b1580156200190c57600080fd5b505af115801562001921573d6000803e3d6000fd5b5050505050505050565b6000809054906101000a900473ffffffffffffffffffffffffffffffffffffffff1673ffffffffffffffffffffffffffffffffffffffff16636e9960c36040518163ffffffff1660e01b815260040160206040518083038186803b1580156200199357600080fd5b505afa158015620019a8573d6000803e3d6000fd5b505050506040513d6020811015620019bf57600080fd5b810190808051906020019092919050505073ffffffffffffffffffffffffffffffffffffffff168373ffffffffffffffffffffffffffffffffffffffff16141562001a72576040517f08c379a00000000000000000000000000000000000000000000000000000000081526004018080602001828103825260208152602001807f43616e206e6f742074727920746f207265636f766572207468652061646d696e81525060200191505060405180910390fd5b3373ffffffffffffffffffffffffffffffffffffffff168373ffffffffffffffffffffffffffffffffffffffff16141562001af9576040517f08c379a000000000000000000000000000000000000000000000000000000000815260040180806020018281038252602181526020018062005eb56021913960400191505060405180910390fd5b600260009054906101000a900473ffffffffffffffffffffffffffffffffffffffff1673ffffffffffffffffffffffffffffffffffffffff1663870ad86084336040518363ffffffff1660e01b8152600401808373ffffffffffffffffffffffffffffffffffffffff1673ffffffffffffffffffffffffffffffffffffffff1681526020018273ffffffffffffffffffffffffffffffffffffffff1673ffffffffffffffffffffffffffffffffffffffff1681526020019250505060206040518083038186803b15801562001bcd57600080fd5b505afa15801562001be2573d6000803e3d6000fd5b505050506040513d602081101562001bf957600080fd5b810190808051906020019092919050505062001c61576040517f08c379a000000000000000000000000000000000000000000000000000000000815260040180806020018281038252603081526020018062005e856030913960400191505060405180910390fd5b60008060009054906101000a900473ffffffffffffffffffffffffffffffffffffffff1673ffffffffffffffffffffffffffffffffffffffff16636f77926b856040518263ffffffff1660e01b8152600401808273ffffffffffffffffffffffffffffffffffffffff1673ffffffffffffffffffffffffffffffffffffffff16815260200191505060206040518083038186803b15801562001d0257600080fd5b505afa15801562001d17573d6000803e3d6000fd5b505050506040513d602081101562001d2e57600080fd5b810190808051906020019092919050505073ffffffffffffffffffffffffffffffffffffffff1663b69ef8a86040518163ffffffff1660e01b815260040160206040518083038186803b15801562001d8557600080fd5b505afa15801562001d9a573d6000803e3d6000fd5b505050506040513d602081101562001db157600080fd5b8101908080519060200190929190505050905060006014828162001dd157fe5b0490506000853386868560405162001de99062001fd6565b808673ffffffffffffffffffffffffffffffffffffffff1673ffffffffffffffffffffffffffffffffffffffff1681526020018573ffffffffffffffffffffffffffffffffffffffff1673ffffffffffffffffffffffffffffffffffffffff168152602001806020018381526020018281038252858582818152602001925080828437600081840152601f19601f8201169050808301925050509650505050505050604051809103906000f08015801562001ea8573d6000803e3d6000fd5b509050600260009054906101000a900473ffffffffffffffffffffffffffffffffffffffff1673ffffffffffffffffffffffffffffffffffffffff16638af10ea78733846040518463ffffffff1660e01b8152600401808473ffffffffffffffffffffffffffffffffffffffff1673ffffffffffffffffffffffffffffffffffffffff1681526020018373ffffffffffffffffffffffffffffffffffffffff1673ffffffffffffffffffffffffffffffffffffffff1681526020018273ffffffffffffffffffffffffffffffffffffffff1673ffffffffffffffffffffffffffffffffffffffff1681526020019350505050600060405180830381600087803b15801562001fb557600080fd5b505af115801562001fca573d6000803e3d6000fd5b50505050505050505050565b613ea08062001fe58339019056fe60806040526000600760006101000a81548173ffffffffffffffffffffffffffffffffffffffff021916908373ffffffffffffffffffffffffffffffffffffffff1602179055506000600b556000600e60006101000a81548160ff021916908360ff1602179055506003600e60016101000a81548160ff021916908360ff1602179055506000600e60026101000a81548160ff021916908315150217905550348015620000ab57600080fd5b5060405162003ea038038062003ea083398101806040526080811015620000d157600080fd5b8101908080519060200190929190805190602001909291908051640100000000811115620000fe57600080fd5b828101905060208101848111156200011557600080fd5b81518560018202830111640100000000821117156200013357600080fd5b50509291906020018051906020019092919050505083600860006101000a81548173ffffffffffffffffffffffffffffffffffffffff021916908373ffffffffffffffffffffffffffffffffffffffff16021790555082600960006101000a81548173ffffffffffffffffffffffffffffffffffffffff021916908373ffffffffffffffffffffffffffffffffffffffff16021790555081600a9080519060200190620001e2929190620001fb565b5080600c8190555042600d8190555050505050620002aa565b828054600181600116156101000203166002900490600052602060002090601f016020900481019282601f106200023e57805160ff19168380011785556200026f565b828001600101855582156200026f579182015b828111156200026e57825182559160200191906001019062000251565b5b5090506200027e919062000282565b5090565b620002a791905b80821115620002a357600081600090555060010162000289565b5090565b90565b613be680620002ba6000396000f3fe608060405234801561001057600080fd5b50600436106100cf5760003560e01c8063cdd722531161008c578063e8d94c0011610066578063e8d94c001461041c578063f91ac899146104d5578063fa041dd714610608578063fac0328d14610658576100cf565b8063cdd72253146102aa578063cde596b214610309578063e628c2e01461034d576100cf565b80630d2cea2c146100d457806319e5fba01461012c578063512b84261461022e5780638db5d0d214610238578063a035b1fe14610282578063ae70981f146102a0575b600080fd5b610116600480360360208110156100ea57600080fd5b81019080803573ffffffffffffffffffffffffffffffffffffffff169060200190929190505050610766565b6040518082815260200191505060405180910390f35b61022c600480360360a081101561014257600080fd5b8101908080359060200190929190803573ffffffffffffffffffffffffffffffffffffffff169060200190929190803590602001909291908035906020019064010000000081111561019357600080fd5b8201836020820111156101a557600080fd5b803590602001918460018302840111640100000000831117156101c757600080fd5b9091929391929390803590602001906401000000008111156101e857600080fd5b8201836020820111156101fa57600080fd5b8035906020019184600183028401116401000000008311171561021c57600080fd5b90919293919293905050506112bb565b005b610236611625565b005b61024061193b565b604051808273ffffffffffffffffffffffffffffffffffffffff1673ffffffffffffffffffffffffffffffffffffffff16815260200191505060405180910390f35b61028a611965565b6040518082815260200191505060405180910390f35b6102a861196b565b005b6102b2611c23565b6040518080602001828103825283818151815260200191508051906020019060200280838360005b838110156102f55780820151818401526020810190506102da565b505050509050019250505060405180910390f35b61034b6004803603602081101561031f57600080fd5b81019080803573ffffffffffffffffffffffffffffffffffffffff169060200190929190505050611d0d565b005b6103996004803603604081101561036357600080fd5b81019080803573ffffffffffffffffffffffffffffffffffffffff16906020019092919080359060200190929190505050611e73565b604051808581526020018481526020018373ffffffffffffffffffffffffffffffffffffffff1673ffffffffffffffffffffffffffffffffffffffff1681526020018273ffffffffffffffffffffffffffffffffffffffff1673ffffffffffffffffffffffffffffffffffffffff16815260200194505050505060405180910390f35b6104d36004803603606081101561043257600080fd5b81019080803573ffffffffffffffffffffffffffffffffffffffff169060200190929190803573ffffffffffffffffffffffffffffffffffffffff1690602001909291908035906020019064010000000081111561048f57600080fd5b8201836020820111156104a157600080fd5b803590602001918460018302840111640100000000831117156104c357600080fd5b9091929391929390505050611f93565b005b610521600480360360408110156104eb57600080fd5b81019080803573ffffffffffffffffffffffffffffffffffffffff1690602001909291908035906020019092919050505061249c565b604051808060200180602001838103835285818151815260200191508051906020019080838360005b8381101561056557808201518184015260208101905061054a565b50505050905090810190601f1680156105925780820380516001836020036101000a031916815260200191505b50838103825284818151815260200191508051906020019080838360005b838110156105cb5780820151818401526020810190506105b0565b50505050905090810190601f1680156105f85780820380516001836020036101000a031916815260200191505b5094505050505060405180910390f35b6106566004803603604081101561061e57600080fd5b81019080803573ffffffffffffffffffffffffffffffffffffffff16906020019092919080351515906020019092919050505061263a565b005b6107646004803603608081101561066e57600080fd5b810190808035906020019064010000000081111561068b57600080fd5b82018360208201111561069d57600080fd5b803590602001918460208302840111640100000000831117156106bf57600080fd5b9091929391929390803590602001906401000000008111156106e057600080fd5b8201836020820111156106f257600080fd5b8035906020019184602083028401116401000000008311171561071457600080fd5b9091929391929390803573ffffffffffffffffffffffffffffffffffffffff169060200190929190803573ffffffffffffffffffffffffffffffffffffffff1690602001909291905050506126fd565b005b6000600273__Set___________________________________63674a64ec90916040518263ffffffff1660e01b81526004018082815260200191505060206040518083038186803b1580156107ba57600080fd5b505af41580156107ce573d6000803e3d6000fd5b505050506040513d60208110156107e457600080fd5b8101908080519060200190929190505050600e60009054906101000a900460ff1660ff161461085e576040517f08c379a0000000000000000000000000000000000000000000000000000000008152600401808060200182810382526025815260200180613a566025913960400191505060405180910390fd5b60008273ffffffffffffffffffffffffffffffffffffffff16636f77926b600860009054906101000a900473ffffffffffffffffffffffffffffffffffffffff166040518263ffffffff1660e01b8152600401808273ffffffffffffffffffffffffffffffffffffffff1673ffffffffffffffffffffffffffffffffffffffff16815260200191505060206040518083038186803b1580156108ff57600080fd5b505afa158015610913573d6000803e3d6000fd5b505050506040513d602081101561092957600080fd5b81019080805190602001909291905050509050600d5442038173ffffffffffffffffffffffffffffffffffffffff1663b7f688526040518163ffffffff1660e01b815260040160206040518083038186803b15801561098757600080fd5b505afa15801561099b573d6000803e3d6000fd5b505050506040513d60208110156109b157600080fd5b810190808051906020019092919050505011156109f1577fffffffffffffffffffffffffffffffffffffffffffffffffffffffffffffffff9150506112b6565b6000806109fc6132ff565b915091506005811015610a4f576202a300600d5442031015610a2457603c93505050506112b6565b7fffffffffffffffffffffffffffffffffffffffffffffffffffffffffffffffff93505050506112b6565b60006042828460640281610a5f57fe5b0410159050600060029050600060029050600060019050600080905060008090505b600273__Set___________________________________63674a64ec90916040518263ffffffff1660e01b81526004018082815260200191505060206040518083038186803b158015610ad357600080fd5b505af4158015610ae7573d6000803e3d6000fd5b505050506040513d6020811015610afd57600080fd5b8101908080519060200190929190505050811015610c8d57600060016000600273__Set___________________________________63df763a9d9091866040518363ffffffff1660e01b8152600401808381526020018281526020019250505060206040518083038186803b158015610b7557600080fd5b505af4158015610b89573d6000803e3d6000fd5b505050506040513d6020811015610b9f57600080fd5b810190808051906020019092919050505073ffffffffffffffffffffffffffffffffffffffff1673ffffffffffffffffffffffffffffffffffffffff16815260200190815260200160002060000190508073__VotingToken___________________________63ffef631c90916040518263ffffffff1660e01b81526004018082815260200191505060206040518083038186803b158015610c4057600080fd5b505af4158015610c54573d6000803e3d6000fd5b505050506040513d6020811015610c6a57600080fd5b810190808051906020019092919050505083019250508080600101915050610a81565b506000868281610c9957fe5b04905060008090505b600273__Set___________________________________63674a64ec90916040518263ffffffff1660e01b81526004018082815260200191505060206040518083038186803b158015610cf457600080fd5b505af4158015610d08573d6000803e3d6000fd5b505050506040513d6020811015610d1e57600080fd5b810190808051906020019092919050505081101561129c57600060016000600273__Set___________________________________63df763a9d9091866040518363ffffffff1660e01b8152600401808381526020018281526020019250505060206040518083038186803b158015610d9657600080fd5b505af4158015610daa573d6000803e3d6000fd5b505050506040513d6020811015610dc057600080fd5b810190808051906020019092919050505073ffffffffffffffffffffffffffffffffffffffff1673ffffffffffffffffffffffffffffffffffffffff16815260200190815260200160002060000190508073__VotingToken___________________________63117d52aa90916040518263ffffffff1660e01b81526004018082815260200191505060206040518083038186803b158015610e6157600080fd5b505af4158015610e75573d6000803e3d6000fd5b505050506040513d6020811015610e8b57600080fd5b81019080805190602001909291905050501561128e5760008988600c5481610eaf57fe5b0481610eb757fe5b049050888015610f4f57508173__VotingToken___________________________63fb84fe7b90916040518263ffffffff1660e01b81526004018082815260200191505060206040518083038186803b158015610f1357600080fd5b505af4158015610f27573d6000803e3d6000fd5b505050506040513d6020811015610f3d57600080fd5b81019080805190602001909291905050505b15610f72578a87600c5481610f6057fe5b0481610f6857fe5b048101905061102b565b8815801561100957508173__VotingToken___________________________63fb84fe7b90916040518263ffffffff1660e01b81526004018082815260200191505060206040518083038186803b158015610fcc57600080fd5b505af4158015610fe0573d6000803e3d6000fd5b505050506040513d6020811015610ff657600080fd5b8101908080519060200190929190505050155b1561102a578a8a0387600c548161101c57fe5b048161102457fe5b04810190505b5b858273__VotingToken___________________________63ffef631c90916040518263ffffffff1660e01b81526004018082815260200191505060206040518083038186803b15801561107d57600080fd5b505af4158015611091573d6000803e3d6000fd5b505050506040513d60208110156110a757600080fd5b81019080805190602001909291905050508503816110c157fe5b0481019050600081111561128c5760008e73ffffffffffffffffffffffffffffffffffffffff16636f77926b600273__Set___________________________________63df763a9d9091886040518363ffffffff1660e01b8152600401808381526020018281526020019250505060206040518083038186803b15801561114757600080fd5b505af415801561115b573d6000803e3d6000fd5b505050506040513d602081101561117157600080fd5b81019080805190602001909291905050506040518263ffffffff1660e01b8152600401808273ffffffffffffffffffffffffffffffffffffffff1673ffffffffffffffffffffffffffffffffffffffff16815260200191505060206040518083038186803b1580156111e257600080fd5b505afa1580156111f6573d6000803e3d6000fd5b505050506040513d602081101561120c57600080fd5b810190808051906020019092919050505090508073ffffffffffffffffffffffffffffffffffffffff16633e4ccb40836040518263ffffffff1660e01b815260040180828152602001915050600060405180830381600087803b15801561127257600080fd5b505af1158015611286573d6000803e3d6000fd5b50505050505b505b508080600101915050610ca2565b508688606402816112a957fe5b0499505050505050505050505b919050565b600273__Set___________________________________63fe6949e39091886040518363ffffffff1660e01b8152600401808381526020018273ffffffffffffffffffffffffffffffffffffffff1673ffffffffffffffffffffffffffffffffffffffff1681526020019250505060206040518083038186803b15801561134157600080fd5b505af4158015611355573d6000803e3d6000fd5b505050506040513d602081101561136b57600080fd5b81019080805190602001909291905050506113d1576040517f08c379a0000000000000000000000000000000000000000000000000000000008152600401808060200182810382526029815260200180613b926029913960400191505060405180910390fd5b6000808773ffffffffffffffffffffffffffffffffffffffff1673ffffffffffffffffffffffffffffffffffffffff1681526020019081526020016000206040518060c0016040528086868080601f016020809104026020016040519081016040528093929190818152602001838380828437600081840152601f19601f82011690508083019250505050505050815260200184848080601f016020809104026020016040519081016040528093929190818152602001838380828437600081840152601f19601f820116905080830192505050505050508152602001600860009054906101000a900473ffffffffffffffffffffffffffffffffffffffff1673ffffffffffffffffffffffffffffffffffffffff1681526020018873ffffffffffffffffffffffffffffffffffffffff168152602001898152602001878152509080600181540180825580915050906001820390600052602060002090600602016000909192909190915060008201518160000190805190602001906115599291906138fc565b5060208201518160010190805190602001906115769291906138fc565b5060408201518160020160006101000a81548173ffffffffffffffffffffffffffffffffffffffff021916908373ffffffffffffffffffffffffffffffffffffffff16021790555060608201518160030160006101000a81548173ffffffffffffffffffffffffffffffffffffffff021916908373ffffffffffffffffffffffffffffffffffffffff1602179055506080820151816004015560a0820151816005015550505050505050505050565b600073ffffffffffffffffffffffffffffffffffffffff16600760009054906101000a900473ffffffffffffffffffffffffffffffffffffffff1673ffffffffffffffffffffffffffffffffffffffff1614156116cd576040517f08c379a000000000000000000000000000000000000000000000000000000000815260040180806020018281038252602b815260200180613af8602b913960400191505060405180910390fd5b600273__Set___________________________________63fe6949e39091600760009054906101000a900473ffffffffffffffffffffffffffffffffffffffff166040518363ffffffff1660e01b8152600401808381526020018273ffffffffffffffffffffffffffffffffffffffff1673ffffffffffffffffffffffffffffffffffffffff1681526020019250505060206040518083038186803b15801561177557600080fd5b505af4158015611789573d6000803e3d6000fd5b505050506040513d602081101561179f57600080fd5b810190808051906020019092919050505015611823576040517f08c379a000000000000000000000000000000000000000000000000000000000815260040180806020018281038252601a8152602001807f416c72656164792061646465642074686174206164647265737300000000000081525060200191505060405180910390fd5b600e600181819054906101000a900460ff168092919060010191906101000a81548160ff021916908360ff16021790555050600273__Set___________________________________635df0a15c9091600760009054906101000a900473ffffffffffffffffffffffffffffffffffffffff166040518363ffffffff1660e01b8152600401808381526020018273ffffffffffffffffffffffffffffffffffffffff1673ffffffffffffffffffffffffffffffffffffffff1681526020019250505060206040518083038186803b1580156118fd57600080fd5b505af4158015611911573d6000803e3d6000fd5b505050506040513d602081101561192757600080fd5b810190808051906020019092919050505050565b6000600760009054906101000a900473ffffffffffffffffffffffffffffffffffffffff16905090565b600c5481565b6000600b54116119c6576040517f08c379a0000000000000000000000000000000000000000000000000000000008152600401808060200182810382526037815260200180613ac16037913960400191505060405180910390fd5b6000600e60019054906101000a900460ff1660ff1611611a31576040517f08c379a0000000000000000000000000000000000000000000000000000000008152600401808060200182810382526023815260200180613b6f6023913960400191505060405180910390fd5b600e600181819054906101000a900460ff16809291906001900391906101000a81548160ff021916908360ff160217905550506000611a97600760009054906101000a900473ffffffffffffffffffffffffffffffffffffffff166006805490506135cf565b60ff16905060068181548110611aa957fe5b9060005260206000200160009054906101000a900473ffffffffffffffffffffffffffffffffffffffff16600760006101000a81548173ffffffffffffffffffffffffffffffffffffffff021916908373ffffffffffffffffffffffffffffffffffffffff16021790555060008190505b600160068054905003811015611bc75760066001820181548110611b3a57fe5b9060005260206000200160009054906101000a900473ffffffffffffffffffffffffffffffffffffffff1660068281548110611b7257fe5b9060005260206000200160006101000a81548173ffffffffffffffffffffffffffffffffffffffff021916908373ffffffffffffffffffffffffffffffffffffffff1602179055508080600101915050611b1a565b50600660016006805490500381548110611bdd57fe5b9060005260206000200160006101000a81549073ffffffffffffffffffffffffffffffffffffffff02191690556006805480919060019003611c1f919061397c565b5050565b6060600273__Set___________________________________633d597e6c90916040518263ffffffff1660e01b81526004018082815260200191505060006040518083038186803b158015611c7757600080fd5b505af4158015611c8b573d6000803e3d6000fd5b505050506040513d6000823e3d601f19601f820116820180604052506020811015611cb557600080fd5b810190808051640100000000811115611ccd57600080fd5b82810190506020810184811115611ce357600080fd5b8151856020820283011164010000000082111715611d0057600080fd5b5050929190505050905090565b600c548173ffffffffffffffffffffffffffffffffffffffff1663b69ef8a86040518163ffffffff1660e01b815260040160206040518083038186803b158015611d5657600080fd5b505afa158015611d6a573d6000803e3d6000fd5b505050506040513d6020811015611d8057600080fd5b81019080805190602001909291905050501015611de8576040517f08c379a0000000000000000000000000000000000000000000000000000000008152600401808060200182810382526022815260200180613a7b6022913960400191505060405180910390fd5b8073ffffffffffffffffffffffffffffffffffffffff1663392aee43600c546040518263ffffffff1660e01b815260040180828152602001915050600060405180830381600087803b158015611e3d57600080fd5b505af1158015611e51573d6000803e3d6000fd5b505050506001600e60026101000a81548160ff02191690831515021790555050565b600080600080611e8286613653565b6000808773ffffffffffffffffffffffffffffffffffffffff1673ffffffffffffffffffffffffffffffffffffffff1681526020019081526020016000208581548110611ecb57fe5b906000526020600020906006020173__TransactionDataSet____________________63b18e919690916040518263ffffffff1660e01b81526004018082815260200191505060806040518083038186803b158015611f2957600080fd5b505af4158015611f3d573d6000803e3d6000fd5b505050506040513d6080811015611f5357600080fd5b8101908080519060200190929190805190602001909291908051906020019092919080519060200190929190505050935093509350935092959194509250565b600b54600273__Set___________________________________63674a64ec90916040518263ffffffff1660e01b81526004018082815260200191505060206040518083038186803b158015611fe857600080fd5b505af4158015611ffc573d6000803e3d6000fd5b505050506040513d602081101561201257600080fd5b810190808051906020019092919050505014612079576040517f08c379a0000000000000000000000000000000000000000000000000000000008152600401808060200182810382526037815260200180613ac16037913960400191505060405180910390fd5b600273__Set___________________________________63fe6949e39091856040518363ffffffff1660e01b8152600401808381526020018273ffffffffffffffffffffffffffffffffffffffff1673ffffffffffffffffffffffffffffffffffffffff1681526020019250505060206040518083038186803b1580156120ff57600080fd5b505af4158015612113573d6000803e3d6000fd5b505050506040513d602081101561212957600080fd5b810190808051906020019092919050505061218f576040517f08c379a0000000000000000000000000000000000000000000000000000000008152600401808060200182810382526029815260200180613b926029913960400191505060405180910390fd5b60001515600160008573ffffffffffffffffffffffffffffffffffffffff1673ffffffffffffffffffffffffffffffffffffffff16815260200190815260200160002060050160009054906101000a900460ff1615151461223b576040517f08c379a0000000000000000000000000000000000000000000000000000000008152600401808060200182810382526025815260200180613b4a6025913960400191505060405180910390fd5b6122436139a8565b6040518060c0016040528084848080601f016020809104026020016040519081016040528093929190818152602001838380828437600081840152601f19601f8201169050808301925050505050505081526020018673ffffffffffffffffffffffffffffffffffffffff1681526020018573ffffffffffffffffffffffffffffffffffffffff16815260200160008152602001600015158152602001600015158152508160000181905250600181602001901515908115158152505080600160008673ffffffffffffffffffffffffffffffffffffffff1673ffffffffffffffffffffffffffffffffffffffff16815260200190815260200160002060008201518160000160008201518160000190805190602001906123659291906138fc565b5060208201518160010160006101000a81548173ffffffffffffffffffffffffffffffffffffffff021916908373ffffffffffffffffffffffffffffffffffffffff16021790555060408201518160020160006101000a81548173ffffffffffffffffffffffffffffffffffffffff021916908373ffffffffffffffffffffffffffffffffffffffff1602179055506060820151816003015560808201518160040160006101000a81548160ff02191690831515021790555060a08201518160040160016101000a81548160ff021916908315150217905550505060208201518160050160006101000a81548160ff021916908315150217905550905050600e600081819054906101000a900460ff168092919060010191906101000a81548160ff021916908360ff160217905550505050505050565b6060806124a884613653565b6000808573ffffffffffffffffffffffffffffffffffffffff1673ffffffffffffffffffffffffffffffffffffffff16815260200190815260200160002083815481106124f157fe5b906000526020600020906006020173__TransactionDataSet____________________63c233d7e890916040518263ffffffff1660e01b81526004018082815260200191505060006040518083038186803b15801561254f57600080fd5b505af4158015612563573d6000803e3d6000fd5b505050506040513d6000823e3d601f19601f82011682018060405250604081101561258d57600080fd5b8101908080516401000000008111156125a557600080fd5b828101905060208101848111156125bb57600080fd5b81518560018202830111640100000000821117156125d857600080fd5b505092919060200180516401000000008111156125f457600080fd5b8281019050602081018481111561260a57600080fd5b815185600182028301116401000000008211171561262757600080fd5b5050929190505050915091509250929050565b61264382613653565b600160008373ffffffffffffffffffffffffffffffffffffffff1673ffffffffffffffffffffffffffffffffffffffff16815260200190815260200160002060000173__VotingToken___________________________632bf6c95f9091836040518363ffffffff1660e01b815260040180838152602001821515151581526020019250505060006040518083038186803b1580156126e157600080fd5b505af41580156126f5573d6000803e3d6000fd5b505050505050565b60011515600e60029054906101000a900460ff16151514612769576040517f08c379a0000000000000000000000000000000000000000000000000000000008152600401808060200182810382526027815260200180613b236027913960400191505060405180910390fd5b60008090505b8484905081101561287157600473__Set___________________________________635df0a15c90918787858181106127a457fe5b9050602002013573ffffffffffffffffffffffffffffffffffffffff166040518363ffffffff1660e01b8152600401808381526020018273ffffffffffffffffffffffffffffffffffffffff1673ffffffffffffffffffffffffffffffffffffffff1681526020019250505060206040518083038186803b15801561282857600080fd5b505af415801561283c573d6000803e3d6000fd5b505050506040513d602081101561285257600080fd5b810190808051906020019092919050505050808060010191505061276f565b5060008090505b86869050811015612c255786868281811061288f57fe5b9050602002013573ffffffffffffffffffffffffffffffffffffffff1673ffffffffffffffffffffffffffffffffffffffff16600960009054906101000a900473ffffffffffffffffffffffffffffffffffffffff1673ffffffffffffffffffffffffffffffffffffffff1614612c185760008273ffffffffffffffffffffffffffffffffffffffff166314ee741f600860009054906101000a900473ffffffffffffffffffffffffffffffffffffffff168a8a8681811061294d57fe5b9050602002013573ffffffffffffffffffffffffffffffffffffffff166040518363ffffffff1660e01b8152600401808373ffffffffffffffffffffffffffffffffffffffff1673ffffffffffffffffffffffffffffffffffffffff1681526020018273ffffffffffffffffffffffffffffffffffffffff1673ffffffffffffffffffffffffffffffffffffffff1681526020019250505060206040518083038186803b1580156129fd57600080fd5b505afa158015612a11573d6000803e3d6000fd5b505050506040513d6020811015612a2757600080fd5b81019080805190602001909291905050501115612c1757600473__Set___________________________________63fe6949e39091898985818110612a6857fe5b9050602002013573ffffffffffffffffffffffffffffffffffffffff166040518363ffffffff1660e01b8152600401808381526020018273ffffffffffffffffffffffffffffffffffffffff1673ffffffffffffffffffffffffffffffffffffffff1681526020019250505060206040518083038186803b158015612aec57600080fd5b505af4158015612b00573d6000803e3d6000fd5b505050506040513d6020811015612b1657600080fd5b8101908080519060200190929190505050612c1657600273__Set___________________________________635df0a15c9091898985818110612b5557fe5b9050602002013573ffffffffffffffffffffffffffffffffffffffff166040518363ffffffff1660e01b8152600401808381526020018273ffffffffffffffffffffffffffffffffffffffff1673ffffffffffffffffffffffffffffffffffffffff1681526020019250505060206040518083038186803b158015612bd957600080fd5b505af4158015612bed573d6000803e3d6000fd5b505050506040513d6020811015612c0357600080fd5b8101908080519060200190929190505050505b5b5b8080600101915050612878565b506003600273__Set___________________________________63674a64ec90916040518263ffffffff1660e01b81526004018082815260200191505060206040518083038186803b158015612c7a57600080fd5b505af4158015612c8e573d6000803e3d6000fd5b505050506040513d6020811015612ca457600080fd5b81019080805190602001909291905050501015612d29576040517f08c379a000000000000000000000000000000000000000000000000000000000815260040180806020018281038252601f8152602001807f496e76616c6964204e756d626572206f66207472616465506172746e6572730081525060200191505060405180910390fd5b60028073__Set___________________________________63674a64ec90916040518263ffffffff1660e01b81526004018082815260200191505060206040518083038186803b158015612d7c57600080fd5b505af4158015612d90573d6000803e3d6000fd5b505050506040513d6020811015612da657600080fd5b810190808051906020019092919050505002600b8190555060608273ffffffffffffffffffffffffffffffffffffffff1663a39fac126040518163ffffffff1660e01b815260040160006040518083038186803b158015612e0657600080fd5b505afa158015612e1a573d6000803e3d6000fd5b505050506040513d6000823e3d601f19601f820116820180604052506020811015612e4457600080fd5b810190808051640100000000811115612e5c57600080fd5b82810190506020810184811115612e7257600080fd5b8151856020820283011164010000000082111715612e8f57600080fd5b5050929190505050905060008090505b815181101561327957818181518110612eb457fe5b602002602001015173ffffffffffffffffffffffffffffffffffffffff16600960009054906101000a900473ffffffffffffffffffffffffffffffffffffffff1673ffffffffffffffffffffffffffffffffffffffff161461326c5760008373ffffffffffffffffffffffffffffffffffffffff166314ee741f600860009054906101000a900473ffffffffffffffffffffffffffffffffffffffff16858581518110612f5d57fe5b60200260200101516040518363ffffffff1660e01b8152600401808373ffffffffffffffffffffffffffffffffffffffff1673ffffffffffffffffffffffffffffffffffffffff1681526020018273ffffffffffffffffffffffffffffffffffffffff1673ffffffffffffffffffffffffffffffffffffffff1681526020019250505060206040518083038186803b158015612ff857600080fd5b505afa15801561300c573d6000803e3d6000fd5b505050506040513d602081101561302257600080fd5b8101908080519060200190929190505050111561326b57600273__Set___________________________________63fe6949e3909184848151811061306357fe5b60200260200101516040518363ffffffff1660e01b8152600401808381526020018273ffffffffffffffffffffffffffffffffffffffff1673ffffffffffffffffffffffffffffffffffffffff1681526020019250505060206040518083038186803b1580156130d257600080fd5b505af41580156130e6573d6000803e3d6000fd5b505050506040513d60208110156130fc57600080fd5b81019080805190602001909291905050501580156131eb5750600473__Set___________________________________63fe6949e3909184848151811061313f57fe5b60200260200101516040518363ffffffff1660e01b8152600401808381526020018273ffffffffffffffffffffffffffffffffffffffff1673ffffffffffffffffffffffffffffffffffffffff1681526020019250505060206040518083038186803b1580156131ae57600080fd5b505af41580156131c2573d6000803e3d6000fd5b505050506040513d60208110156131d857600080fd5b8101908080519060200190929190505050155b1561326a5760068282815181106131fe57fe5b602002602001015190806001815401808255809150509060018203906000526020600020016000909192909190916101000a81548173ffffffffffffffffffffffffffffffffffffffff021916908373ffffffffffffffffffffffffffffffffffffffff160217905550505b5b5b8080600101915050612e9f565b50600360068054905010156132f6576040517f08c379a00000000000000000000000000000000000000000000000000000000081526004018080602001828103825260208152602001807f496e76616c6964204e756d626572206f6620686176655472616465645769746881525060200191505060405180910390fd5b50505050505050565b6000806000809050600080905060008090505b600273__Set___________________________________63674a64ec90916040518263ffffffff1660e01b81526004018082815260200191505060206040518083038186803b15801561336457600080fd5b505af4158015613378573d6000803e3d6000fd5b505050506040513d602081101561338e57600080fd5b81019080805190602001909291905050508110156135c257600060016000600273__Set___________________________________63df763a9d9091866040518363ffffffff1660e01b8152600401808381526020018281526020019250505060206040518083038186803b15801561340657600080fd5b505af415801561341a573d6000803e3d6000fd5b505050506040513d602081101561343057600080fd5b810190808051906020019092919050505073ffffffffffffffffffffffffffffffffffffffff1673ffffffffffffffffffffffffffffffffffffffff16815260200190815260200160002060000190508073__VotingToken___________________________63117d52aa90916040518263ffffffff1660e01b81526004018082815260200191505060206040518083038186803b1580156134d157600080fd5b505af41580156134e5573d6000803e3d6000fd5b505050506040513d60208110156134fb57600080fd5b8101908080519060200190929190505050156135b45783806001019450508073__VotingToken___________________________63fb84fe7b90916040518263ffffffff1660e01b81526004018082815260200191505060206040518083038186803b15801561356a57600080fd5b505af415801561357e573d6000803e3d6000fd5b505050506040513d602081101561359457600080fd5b8101908080519060200190929190505050156135b35782806001019350505b5b508080600101915050613312565b5080829350935050509091565b6000814244855a604051602001808581526020018481526020018373ffffffffffffffffffffffffffffffffffffffff1673ffffffffffffffffffffffffffffffffffffffff1660601b81526014018281526020019450505050506040516020818303038152906040528051906020012060001c8161364a57fe5b06905092915050565b600273__Set___________________________________63fe6949e39091836040518363ffffffff1660e01b8152600401808381526020018273ffffffffffffffffffffffffffffffffffffffff1673ffffffffffffffffffffffffffffffffffffffff1681526020019250505060206040518083038186803b1580156136d957600080fd5b505af41580156136ed573d6000803e3d6000fd5b505050506040513d602081101561370357600080fd5b8101908080519060200190929190505050613769576040517f08c379a0000000000000000000000000000000000000000000000000000000008152600401808060200182810382526029815260200180613b926029913960400191505060405180910390fd5b600273__Set___________________________________63674a64ec90916040518263ffffffff1660e01b81526004018082815260200191505060206040518083038186803b1580156137bb57600080fd5b505af41580156137cf573d6000803e3d6000fd5b505050506040513d60208110156137e557600080fd5b8101908080519060200190929190505050600e60009054906101000a900460ff1660ff161461385f576040517f08c379a0000000000000000000000000000000000000000000000000000000008152600401808060200182810382526025815260200180613a566025913960400191505060405180910390fd5b60008060008373ffffffffffffffffffffffffffffffffffffffff1673ffffffffffffffffffffffffffffffffffffffff16815260200190815260200160002080549050116138f9576040517f08c379a0000000000000000000000000000000000000000000000000000000008152600401808060200182810382526024815260200180613a9d6024913960400191505060405180910390fd5b50565b828054600181600116156101000203166002900490600052602060002090601f016020900481019282601f1061393d57805160ff191683800117855561396b565b8280016001018555821561396b579182015b8281111561396a57825182559160200191906001019061394f565b5b50905061397891906139ca565b5090565b8154818355818111156139a3578183600052602060002091820191016139a291906139ca565b5b505050565b6040518060e001604052806139bb6139ef565b81526020016000151581525090565b6139ec91905b808211156139e85760008160009055506001016139d0565b5090565b90565b6040518060c0016040528060608152602001600073ffffffffffffffffffffffffffffffffffffffff168152602001600073ffffffffffffffffffffffffffffffffffffffff16815260200160008152602001600015158152602001600015158152509056fe48617665206e6f74206372656174656420616c6c2074686520566f74696e67546f6b656e734e6f7420456e6f7567682066756e647320666f7220746869732050726f706f73616c5468657265206973206e6f207472616e73616374696f6e206461746120746f2076696577547261646520706172746e6572732068617665206e6f74206265656e20616464656420746f2074686973207965742070726f706f73616c4861766520746f2066696e6420612072616e646f6d2074726164696e6720706172746e6572206669727374546869732070726f706f73616c20686173206e6f74206265656e207061696420666f72207965745468697320766f74657220616c726561647920686173206120766f74696e6720746f6b656e43616e206e6f74207665746f20616e79206d6f72652072616e646f6d20766f74657273496e76616c696420566f7465722e2043616e206e6f74206d616b65206120566f74696e67546f6b656ea165627a7a723058200297d973fd76b6bc40438e6d2bb57c714fcb39af4dd870ef0e16b4ff697bf4460029546865726520616c72656164792065786973747320612050726f706f73616c20666f722074686973206163636f756e74416e206163636f756e742063616e206e6f74207265636f76657220697473656c66a165627a7a72305820e2e2a89f71f66a2f502d6466e18d830b7599f26fa5468e1bb97652f188e39f960029",
  "source": "/* ProposalCreator.sol */\r\n\r\npragma solidity >=0.4.0 <0.7.0;\r\n\r\nimport \"../contracts/UserManager.sol\";\r\nimport \"../contracts/ProposalManager.sol\";\r\n\r\n/* <Summary> \r\n\tThis contract manages all active proposal as well as makes and concludes proposals.\r\n*/\r\n\r\ncontract ProposalCreator {\r\n\tUserManager UserManagerInstance;\t\t\t\t// Connects to the list of users on the network\r\n\tTransactionManager TransactionManagerInstance;\t// Connects to the transaction data on the network\r\n\tProposalManager PMI;\t\t\t\t\t\t\t// Connects to the transaction data on the network\r\n\r\n\t// These arrays are used when creating Proposals. Needed to be on storage to use .push()\r\n\r\n\t// Used to originally deploy the contract\r\n\tconstructor(address UserManagerAddress, address TransactionManagerAddress, address ProposalManagerAddress) public {\r\n\t\tUserManagerInstance = UserManager(UserManagerAddress);\r\n\t\tTransactionManagerInstance = TransactionManager(TransactionManagerAddress);\r\n\t\tPMI = ProposalManager(ProposalManagerAddress);\r\n\t}\r\n\t\r\n\tfunction StartProposal(address _oldAccount, string calldata _description) external {\r\n\t\trequire(_oldAccount != UserManagerInstance.getAdmin(), \"Can not try to recover the admin\");\r\n\t\trequire(_oldAccount != msg.sender, \"An account can not recover itself\");\r\n\t\trequire(PMI.validProposal(_oldAccount, msg.sender), \"There already exists a Proposal for this account\");\r\n\t\t// require(!PMI.ArchivedProposalLength(_oldAccount, msg.sender), \"You have already failed a vote for this recovery\");\r\n\r\n\t\t// uint price = CalculatePrice(_oldAccount);\t\t\t// Calculates the price of the account recovery\r\n\r\n\t\tuint balance = UserManagerInstance.getUser(_oldAccount).balance();\r\n\t\tuint price = balance / 20;\r\n\r\n\t\t// Creates Proposal and adds it to the active proposal map\r\n\t\tProposal temp = new Proposal(_oldAccount, msg.sender, _description, price);\r\n\r\n\t\tPMI.AddActiveProposal(_oldAccount, msg.sender, temp);\t\t// Deletes proposal\r\n\t}\r\n\r\n\tfunction ViewPrice(address _oldAccount) external view returns (uint) {\r\n\t\treturn PMI.getActiveProposal(_oldAccount, msg.sender).price();\r\n\t}\r\n\r\n\tfunction Pay(address _oldAccount, bool _pay) external {\r\n\t\tif (_pay){\r\n\t\t\tPerson newAccount = UserManagerInstance.getUser(msg.sender); // Finds the person in the network\r\n\t\t\tPMI.getActiveProposal(_oldAccount, msg.sender).Pay(newAccount);\r\n\t\t}else{\r\n\t\t\tPMI.archiveProposal(_oldAccount, msg.sender);\t\t// Deletes proposal\r\n\t\t}\r\n\t}\r\n\r\n\tfunction AddTradePartners(address _oldAccount, address[] calldata _tradePartners) external {\r\n\t\taddress[] memory archivedVoters = PMI.getArchivedVoter(_oldAccount, msg.sender);\r\n\t\tPMI.getActiveProposal(_oldAccount, msg.sender).AddTradePartners(_tradePartners, archivedVoters, UserManagerInstance, TransactionManagerInstance);\r\n\t}\r\n\r\n\tfunction FindRandomTradingPartner(address _oldAccount) external {\r\n\t\tPMI.getActiveProposal(_oldAccount, msg.sender).FindRandomTradingPartner();\r\n\t}\r\n\r\n\tfunction ViewRandomTradingPartner(address _oldAccount) external view returns (address) {\r\n\t\treturn PMI.getActiveProposal(_oldAccount, msg.sender).ViewRandomTradingPartner();\r\n\t}\r\n\t\r\n\tfunction AddRandomTradingPartner(address _oldAccount) external {\r\n\t\tPMI.getActiveProposal(_oldAccount, msg.sender).AddRandomTradingPartner();\r\n\t}\r\n\r\n\t// Finds proposal and makes voting token for a specified voter\r\n\tfunction MakeVotingToken(address oldAccount, address _voter, string calldata _description) external {\r\n\t\tPMI.getActiveProposal(oldAccount, msg.sender).MakeVotingToken(oldAccount, _voter, _description);\r\n\t}\r\n\r\n\t// Makes a set of data for a transaction of one of the trade partners. Checks this data \r\n\tfunction MakeTransactionDataSet(address oldAccount, uint timeStamp, uint _amount, address _voter, \r\n\t\tstring calldata _description, string calldata _itemsInTrade) external {\r\n\r\n\t\trequire( TransactionManagerInstance.Equal(oldAccount, _voter, timeStamp, _amount), \"This transaction does not exist\");\r\n\r\n\t\t// Finds proposal and creates set of data \r\n\t\tPMI.getActiveProposal(oldAccount, msg.sender).AddTransactionDataSet(timeStamp, _voter, _amount, _description, _itemsInTrade);\r\n\t}\r\n}\r\n\r\n// 6581377\r\n// 5733423\r\n// 5782027\r\n// 6339420\r\n// 6422229\r\n\r\n// 6338896\r\n// 6231665\r\n// 6441734\r\n// 6564637\r\n",
  "sourcePath": "C:/Users/m5w5b/Desktop/GitHub/game-dapp/AccountRecovery/contracts/ProposalCreator.sol",
  "compiler": {
    "name": "solc",
    "version": "0.5.8+commit.23d335f2.Emscripten.clang"
  },
  "schemaVersion": "3.0.16",
  "updatedAt": "2019-10-31T15:32:30.944Z",
  "devdoc": {
    "methods": {}
  },
  "userdoc": {
    "methods": {}
  }
}