{
  "contractName": "ProposalManager",
  "abi": [
    {
      "inputs": [
        {
          "name": "UserManagerAddress",
          "type": "address"
        }
      ],
      "payable": false,
      "stateMutability": "nonpayable",
      "type": "constructor"
    },
    {
      "constant": false,
      "inputs": [
        {
          "name": "_oldAccount",
          "type": "address"
        }
      ],
      "name": "ConcludeAccountRecovery",
      "outputs": [
        {
          "name": "",
          "type": "address"
        },
        {
          "name": "",
          "type": "uint256"
        }
      ],
      "payable": false,
      "stateMutability": "nonpayable",
      "type": "function"
    },
    {
      "constant": false,
      "inputs": [
        {
          "name": "oldAccount",
          "type": "address"
        },
        {
          "name": "newAccount",
          "type": "address"
        },
        {
          "name": "choice",
          "type": "bool"
        }
      ],
      "name": "CastVote",
      "outputs": [],
      "payable": false,
      "stateMutability": "nonpayable",
      "type": "function"
    },
    {
      "constant": true,
      "inputs": [
        {
          "name": "oldAccount",
          "type": "address"
        },
        {
          "name": "newAccount",
          "type": "address"
        },
        {
          "name": "i",
          "type": "uint256"
        }
      ],
      "name": "ViewPublicInformation",
      "outputs": [
        {
          "name": "",
          "type": "uint256"
        },
        {
          "name": "",
          "type": "uint256"
        },
        {
          "name": "",
          "type": "address"
        },
        {
          "name": "",
          "type": "address"
        }
      ],
      "payable": false,
      "stateMutability": "view",
      "type": "function"
    },
    {
      "constant": true,
      "inputs": [
        {
          "name": "oldAccount",
          "type": "address"
        },
        {
          "name": "newAccount",
          "type": "address"
        },
        {
          "name": "i",
          "type": "uint256"
        }
      ],
      "name": "ViewPrivateInformation",
      "outputs": [
        {
          "name": "",
          "type": "string"
        },
        {
          "name": "",
          "type": "string"
        }
      ],
      "payable": false,
      "stateMutability": "view",
      "type": "function"
    },
    {
      "constant": true,
      "inputs": [
        {
          "name": "_oldAccount",
          "type": "address"
        },
        {
          "name": "_newAccount",
          "type": "address"
        }
      ],
      "name": "getActiveProposal",
      "outputs": [
        {
          "name": "",
          "type": "address"
        }
      ],
      "payable": false,
      "stateMutability": "view",
      "type": "function"
    },
    {
      "constant": false,
      "inputs": [
        {
          "name": "_oldAccount",
          "type": "address"
        },
        {
          "name": "_newAccount",
          "type": "address"
        },
        {
          "name": "temp",
          "type": "address"
        }
      ],
      "name": "AddActiveProposal",
      "outputs": [],
      "payable": false,
      "stateMutability": "nonpayable",
      "type": "function"
    },
    {
      "constant": false,
      "inputs": [
        {
          "name": "_oldAccount",
          "type": "address"
        },
        {
          "name": "_newAccount",
          "type": "address"
        }
      ],
      "name": "RemoveActiveProposal",
      "outputs": [],
      "payable": false,
      "stateMutability": "nonpayable",
      "type": "function"
    }
  ],
  "bytecode": "0x608060405234801561001057600080fd5b5060405160208061138d8339810180604052602081101561003057600080fd5b8101908080519060200190929190505050806000806101000a81548173ffffffffffffffffffffffffffffffffffffffff021916908373ffffffffffffffffffffffffffffffffffffffff160217905550506112fc806100916000396000f3fe608060405234801561001057600080fd5b506004361061007d5760003560e01c80634a1ba5931161005b5780634a1ba593146102c45780638af10ea7146103b3578063a652629514610437578063b7e3f59f146104db5761007d565b80630b9f2b63146100825780630d2cea2c146101d5578063365d4ce314610260575b600080fd5b6100ee6004803603606081101561009857600080fd5b81019080803573ffffffffffffffffffffffffffffffffffffffff169060200190929190803573ffffffffffffffffffffffffffffffffffffffff1690602001909291908035906020019092919050505061054b565b604051808060200180602001838103835285818151815260200191508051906020019080838360005b83811015610132578082015181840152602081019050610117565b50505050905090810190601f16801561015f5780820380516001836020036101000a031916815260200191505b50838103825284818151815260200191508051906020019080838360005b8381101561019857808201518184015260208101905061017d565b50505050905090810190601f1680156101c55780820380516001836020036101000a031916815260200191505b5094505050505060405180910390f35b610217600480360360208110156101eb57600080fd5b81019080803573ffffffffffffffffffffffffffffffffffffffff1690602001909291905050506106c8565b604051808373ffffffffffffffffffffffffffffffffffffffff1673ffffffffffffffffffffffffffffffffffffffff1681526020018281526020019250505060405180910390f35b6102c26004803603604081101561027657600080fd5b81019080803573ffffffffffffffffffffffffffffffffffffffff169060200190929190803573ffffffffffffffffffffffffffffffffffffffff169060200190929190505050610bca565b005b610330600480360360608110156102da57600080fd5b81019080803573ffffffffffffffffffffffffffffffffffffffff169060200190929190803573ffffffffffffffffffffffffffffffffffffffff16906020019092919080359060200190929190505050610d4a565b604051808581526020018481526020018373ffffffffffffffffffffffffffffffffffffffff1673ffffffffffffffffffffffffffffffffffffffff1681526020018273ffffffffffffffffffffffffffffffffffffffff1673ffffffffffffffffffffffffffffffffffffffff16815260200194505050505060405180910390f35b610435600480360360608110156103c957600080fd5b81019080803573ffffffffffffffffffffffffffffffffffffffff169060200190929190803573ffffffffffffffffffffffffffffffffffffffff169060200190929190803573ffffffffffffffffffffffffffffffffffffffff169060200190929190505050610e48565b005b6104996004803603604081101561044d57600080fd5b81019080803573ffffffffffffffffffffffffffffffffffffffff169060200190929190803573ffffffffffffffffffffffffffffffffffffffff169060200190929190505050611005565b604051808273ffffffffffffffffffffffffffffffffffffffff1673ffffffffffffffffffffffffffffffffffffffff16815260200191505060405180910390f35b610549600480360360608110156104f157600080fd5b81019080803573ffffffffffffffffffffffffffffffffffffffff169060200190929190803573ffffffffffffffffffffffffffffffffffffffff1690602001909291908035151590602001909291905050506111b6565b005b6060806105588585611005565b73ffffffffffffffffffffffffffffffffffffffff1663f91ac89933856040518363ffffffff1660e01b8152600401808373ffffffffffffffffffffffffffffffffffffffff1673ffffffffffffffffffffffffffffffffffffffff1681526020018281526020019250505060006040518083038186803b1580156105dc57600080fd5b505afa1580156105f0573d6000803e3d6000fd5b505050506040513d6000823e3d601f19601f82011682018060405250604081101561061a57600080fd5b81019080805164010000000081111561063257600080fd5b8281019050602081018481111561064857600080fd5b815185600182028301116401000000008211171561066557600080fd5b5050929190602001805164010000000081111561068157600080fd5b8281019050602081018481111561069757600080fd5b81518560018202830111640100000000821117156106b457600080fd5b505092919050505091509150935093915050565b6000808273ffffffffffffffffffffffffffffffffffffffff163373ffffffffffffffffffffffffffffffffffffffff16141561070e576107098333610bca565b610ba4565b6107188333611005565b73ffffffffffffffffffffffffffffffffffffffff16630d2cea2c6000809054906101000a900473ffffffffffffffffffffffffffffffffffffffff166040518263ffffffff1660e01b8152600401808273ffffffffffffffffffffffffffffffffffffffff1673ffffffffffffffffffffffffffffffffffffffff168152602001915050602060405180830381600087803b1580156107b757600080fd5b505af11580156107cb573d6000803e3d6000fd5b505050506040513d60208110156107e157600080fd5b810190808051906020019092919050505015610b985760008060009054906101000a900473ffffffffffffffffffffffffffffffffffffffff1673ffffffffffffffffffffffffffffffffffffffff16636f77926b856040518263ffffffff1660e01b8152600401808273ffffffffffffffffffffffffffffffffffffffff1673ffffffffffffffffffffffffffffffffffffffff16815260200191505060206040518083038186803b15801561089757600080fd5b505afa1580156108ab573d6000803e3d6000fd5b505050506040513d60208110156108c157600080fd5b8101908080519060200190929190505050905060008060009054906101000a900473ffffffffffffffffffffffffffffffffffffffff1673ffffffffffffffffffffffffffffffffffffffff16636f77926b336040518263ffffffff1660e01b8152600401808273ffffffffffffffffffffffffffffffffffffffff1673ffffffffffffffffffffffffffffffffffffffff16815260200191505060206040518083038186803b15801561097457600080fd5b505afa158015610988573d6000803e3d6000fd5b505050506040513d602081101561099e57600080fd5b810190808051906020019092919050505090508073ffffffffffffffffffffffffffffffffffffffff16633e4ccb408373ffffffffffffffffffffffffffffffffffffffff1663b69ef8a86040518163ffffffff1660e01b815260040160206040518083038186803b158015610a1357600080fd5b505afa158015610a27573d6000803e3d6000fd5b505050506040513d6020811015610a3d57600080fd5b81019080805190602001909291905050506040518263ffffffff1660e01b815260040180828152602001915050600060405180830381600087803b158015610a8457600080fd5b505af1158015610a98573d6000803e3d6000fd5b505050508173ffffffffffffffffffffffffffffffffffffffff1663392aee438373ffffffffffffffffffffffffffffffffffffffff1663b69ef8a86040518163ffffffff1660e01b815260040160206040518083038186803b158015610afe57600080fd5b505afa158015610b12573d6000803e3d6000fd5b505050506040513d6020811015610b2857600080fd5b81019080805190602001909291905050506040518263ffffffff1660e01b815260040180828152602001915050600060405180830381600087803b158015610b6f57600080fd5b505af1158015610b83573d6000803e3d6000fd5b50505050610b918533610bca565b5050610ba3565b610ba28333610bca565b5b5b73d28a9ec995b509565df29665dfcebdf6df4419bf600181915080905091509150915091565b60018060008473ffffffffffffffffffffffffffffffffffffffff1673ffffffffffffffffffffffffffffffffffffffff16815260200190815260200160002060008373ffffffffffffffffffffffffffffffffffffffff1673ffffffffffffffffffffffffffffffffffffffff1681526020019081526020016000208054905014610cbe576040517f08c379a000000000000000000000000000000000000000000000000000000000815260040180806020018281038252601b8152602001807f5468657265206973206e6f206163746976652050726f706f73616c000000000081525060200191505060405180910390fd5b600160008373ffffffffffffffffffffffffffffffffffffffff1673ffffffffffffffffffffffffffffffffffffffff16815260200190815260200160002060008273ffffffffffffffffffffffffffffffffffffffff1673ffffffffffffffffffffffffffffffffffffffff1681526020019081526020016000206000610d469190611267565b5050565b600080600080610d5a8787611005565b73ffffffffffffffffffffffffffffffffffffffff1663e628c2e033876040518363ffffffff1660e01b8152600401808373ffffffffffffffffffffffffffffffffffffffff1673ffffffffffffffffffffffffffffffffffffffff1681526020018281526020019250505060806040518083038186803b158015610dde57600080fd5b505afa158015610df2573d6000803e3d6000fd5b505050506040513d6080811015610e0857600080fd5b8101908080519060200190929190805190602001909291908051906020019092919080519060200190929190505050935093509350935093509350935093565b6000600160008573ffffffffffffffffffffffffffffffffffffffff1673ffffffffffffffffffffffffffffffffffffffff16815260200190815260200160002060008473ffffffffffffffffffffffffffffffffffffffff1673ffffffffffffffffffffffffffffffffffffffff1681526020019081526020016000208054905014610f20576040517f08c379a00000000000000000000000000000000000000000000000000000000081526004018080602001828103825260238152602001806112ae6023913960400191505060405180910390fd5b600160008473ffffffffffffffffffffffffffffffffffffffff1673ffffffffffffffffffffffffffffffffffffffff16815260200190815260200160002060008373ffffffffffffffffffffffffffffffffffffffff1673ffffffffffffffffffffffffffffffffffffffff1681526020019081526020016000208190806001815401808255809150509060018203906000526020600020016000909192909190916101000a81548173ffffffffffffffffffffffffffffffffffffffff021916908373ffffffffffffffffffffffffffffffffffffffff16021790555050505050565b600060018060008573ffffffffffffffffffffffffffffffffffffffff1673ffffffffffffffffffffffffffffffffffffffff16815260200190815260200160002060008473ffffffffffffffffffffffffffffffffffffffff1673ffffffffffffffffffffffffffffffffffffffff16815260200190815260200160002080549050146110fb576040517f08c379a000000000000000000000000000000000000000000000000000000000815260040180806020018281038252601b8152602001807f5468657265206973206e6f206163746976652050726f706f73616c000000000081525060200191505060405180910390fd5b600160008473ffffffffffffffffffffffffffffffffffffffff1673ffffffffffffffffffffffffffffffffffffffff16815260200190815260200160002060008373ffffffffffffffffffffffffffffffffffffffff1673ffffffffffffffffffffffffffffffffffffffff16815260200190815260200160002060008154811061118357fe5b9060005260206000200160009054906101000a900473ffffffffffffffffffffffffffffffffffffffff16905092915050565b6111c08383611005565b73ffffffffffffffffffffffffffffffffffffffff1663fa041dd733836040518363ffffffff1660e01b8152600401808373ffffffffffffffffffffffffffffffffffffffff1673ffffffffffffffffffffffffffffffffffffffff1681526020018215151515815260200192505050600060405180830381600087803b15801561124a57600080fd5b505af115801561125e573d6000803e3d6000fd5b50505050505050565b50805460008255906000526020600020908101906112859190611288565b50565b6112aa91905b808211156112a657600081600090555060010161128e565b5090565b9056fe546865726520697320616c726561647920616e206163746976652050726f706f73616ca165627a7a72305820e7012ee81e22a8c25ef6a0aaa7a8ec02788e6ba3b02f4a66bfe12aa82f9371ca0029",
  "source": "/* ProposalManager.sol */\r\n\r\npragma solidity >=0.4.0 <0.7.0;\r\n\r\nimport \"../contracts/UserManager.sol\";\r\nimport \"../contracts/Proposal.sol\";\r\n\r\n\r\n/* <Summary> \r\n\tThis contract manages all active proposal as well as makes and concludes proposals.\r\n*/\r\n\r\ncontract ProposalManager {\r\n\tUserManager UserManagerInstance;\t\t\t\t// Connects to the list of users on the network\r\n\r\n\t// These arrays are used when creating Proposals. Needed to be on storage to use .push()\r\n\r\n\tmapping (address => mapping (address => Proposal[]) ) activeProposals; // Map of active proposals\r\n\t\t\t\t\t\t\t\t\t\t\t\t\t// Old Account -> New Account -> Proposal\r\n\r\n\t// Used to originally deploy the contract\r\n\tconstructor(address UserManagerAddress ) public {\r\n\t\tUserManagerInstance = UserManager(UserManagerAddress);\r\n\t}\r\n\t\r\n\t// Counts up votes and distriputes the reward\r\n\tfunction ConcludeAccountRecovery(address _oldAccount) public returns (address, uint){\r\n\t\tif (msg.sender == _oldAccount){\t\t\t\t// Veto from the old account\r\n\t\t\tRemoveActiveProposal(_oldAccount, msg.sender);\t// Deletes proposal\r\n\t\t\t// return false;\r\n\t\t}else{\t\t\t\t\t\t\t\t\t\t// The msg.sender == new account\r\n\r\n\t\t\t// Checks outcome of vote\r\n\t\t\tif (getActiveProposal(_oldAccount, msg.sender).ConcludeAccountRecovery(UserManagerInstance)){\r\n\r\n\t\t\t\t// Finds old account and new account on the network\r\n\t\t\t\tPerson oldAccount = UserManagerInstance.getUser(_oldAccount);\r\n\t\t\t\tPerson newAccount = UserManagerInstance.getUser(msg.sender);\r\n\r\n\t\t\t\t// Transfers balance\r\n\t\t\t\tnewAccount.increaseBalance(oldAccount.balance());\r\n\t\t\t\toldAccount.decreaseBalance(oldAccount.balance());\r\n\r\n\t\t\t\tRemoveActiveProposal(_oldAccount, msg.sender);\t// Deletes proposal\r\n\t\t\t\t// return true;\r\n\t\t\t}else{\r\n\t\t\t\tRemoveActiveProposal(_oldAccount, msg.sender);\t// Deletes proposal\r\n\t\t\t\t// return false;\r\n\t\t\t}\r\n\t\t}\r\n\t\treturn (0xd28A9Ec995B509565df29665DfCeBdf6df4419Bf, 1);\r\n\t}\r\n\r\n\t// Allows a voter to cast a vote on a proposal\r\n\tfunction CastVote(address oldAccount, address newAccount, bool choice) public {\r\n\t\tgetActiveProposal(oldAccount, newAccount).CastVote(msg.sender, choice);\r\n\t}\r\n\r\n\t// View public information on a set of data for a transaction\r\n\tfunction ViewPublicInformation(address oldAccount, address newAccount, uint i) public view returns (uint, uint, address, address)\t{\r\n\t\treturn getActiveProposal(oldAccount, newAccount).ViewPublicInformation( msg.sender, i );\r\n\t}\r\n\r\n\t// View private information on a set of data for a transaction\r\n\tfunction ViewPrivateInformation(address oldAccount, address newAccount, uint i) public view returns (string memory, string memory)\t{\r\n\t\treturn getActiveProposal(oldAccount, newAccount).ViewPrivateInformation( msg.sender, i );\r\n\t}\r\n\t\t// Find the active proposal between _oldAccount and _newAccount\r\n\tfunction getActiveProposal(address _oldAccount, address _newAccount) public view returns (Proposal) {\r\n\t\trequire(activeProposals[_oldAccount][_newAccount].length == 1, \"There is no active Proposal\");\r\n\t\treturn activeProposals[_oldAccount][_newAccount][0];\r\n\t}\r\n\t\t// Find the active proposal between _oldAccount and _newAccount\r\n\tfunction AddActiveProposal(address _oldAccount, address _newAccount, Proposal temp) public {\r\n\t\trequire(activeProposals[_oldAccount][_newAccount].length == 0, \"There is already an active Proposal\");\r\n\t\tactiveProposals[_oldAccount][_newAccount].push(temp);\r\n\t}\r\n\t\t// Find the active proposal between _oldAccount and _newAccount\r\n\tfunction RemoveActiveProposal(address _oldAccount, address _newAccount) public {\r\n\t\trequire(activeProposals[_oldAccount][_newAccount].length == 1, \"There is no active Proposal\");\r\n\t\tdelete activeProposals[_oldAccount][_newAccount];\r\n\t}\r\n}\r\n",
  "sourcePath": "C:\\Users\\m5w5b\\Desktop\\GitHub\\game-dapp\\AccountRecovery\\contracts\\ProposalManager.sol",
  "compiler": {
    "name": "solc",
    "version": "0.5.8+commit.23d335f2.Emscripten.clang"
  },
  "schemaVersion": "3.0.16",
  "updatedAt": "2019-10-18T12:58:46.049Z",
  "devdoc": {
    "methods": {}
  },
  "userdoc": {
    "methods": {}
  }
}