{
  "contractName": "ProposalManager",
  "abi": [
    {
      "inputs": [
        {
          "name": "UserManagerAddress",
          "type": "address"
        }
      ],
      "payable": false,
      "stateMutability": "nonpayable",
      "type": "constructor"
    },
    {
      "constant": false,
      "inputs": [
        {
          "name": "_newAccount",
          "type": "address"
        },
        {
          "name": "attack",
          "type": "bool"
        }
      ],
      "name": "VetoAccountRecovery",
      "outputs": [],
      "payable": false,
      "stateMutability": "nonpayable",
      "type": "function"
    },
    {
      "constant": true,
      "inputs": [
        {
          "name": "_oldAccount",
          "type": "address"
        },
        {
          "name": "_newAccount",
          "type": "address"
        },
        {
          "name": "i",
          "type": "uint256"
        }
      ],
      "name": "ViewPublicInformation",
      "outputs": [
        {
          "name": "",
          "type": "uint256"
        },
        {
          "name": "",
          "type": "uint256"
        }
      ],
      "payable": false,
      "stateMutability": "view",
      "type": "function"
    },
    {
      "constant": true,
      "inputs": [
        {
          "name": "_oldAccount",
          "type": "address"
        },
        {
          "name": "_newAccount",
          "type": "address"
        },
        {
          "name": "i",
          "type": "uint256"
        }
      ],
      "name": "ViewPrivateInformation",
      "outputs": [
        {
          "name": "",
          "type": "string"
        },
        {
          "name": "",
          "type": "string"
        },
        {
          "name": "",
          "type": "string"
        },
        {
          "name": "",
          "type": "string"
        }
      ],
      "payable": false,
      "stateMutability": "view",
      "type": "function"
    },
    {
      "constant": false,
      "inputs": [
        {
          "name": "_oldAccount",
          "type": "address"
        },
        {
          "name": "_newAccount",
          "type": "address"
        },
        {
          "name": "choice",
          "type": "bool"
        }
      ],
      "name": "CastVote",
      "outputs": [],
      "payable": false,
      "stateMutability": "nonpayable",
      "type": "function"
    },
    {
      "constant": false,
      "inputs": [
        {
          "name": "_oldAccount",
          "type": "address"
        }
      ],
      "name": "ConcludeProposal",
      "outputs": [],
      "payable": false,
      "stateMutability": "nonpayable",
      "type": "function"
    },
    {
      "constant": true,
      "inputs": [
        {
          "name": "_oldAccount",
          "type": "address"
        },
        {
          "name": "_newAccount",
          "type": "address"
        }
      ],
      "name": "getActiveProposalExists",
      "outputs": [
        {
          "name": "",
          "type": "bool"
        }
      ],
      "payable": false,
      "stateMutability": "view",
      "type": "function"
    },
    {
      "constant": true,
      "inputs": [
        {
          "name": "_oldAccount",
          "type": "address"
        },
        {
          "name": "_newAccount",
          "type": "address"
        }
      ],
      "name": "getProposal",
      "outputs": [
        {
          "name": "",
          "type": "address"
        }
      ],
      "payable": false,
      "stateMutability": "view",
      "type": "function"
    },
    {
      "constant": false,
      "inputs": [
        {
          "name": "_oldAccount",
          "type": "address"
        },
        {
          "name": "_newAccount",
          "type": "address"
        },
        {
          "name": "temp",
          "type": "address"
        }
      ],
      "name": "AddActiveProposal",
      "outputs": [],
      "payable": false,
      "stateMutability": "nonpayable",
      "type": "function"
    },
    {
      "constant": true,
      "inputs": [
        {
          "name": "_oldAccount",
          "type": "address"
        }
      ],
      "name": "getArchivedVoter",
      "outputs": [
        {
          "name": "",
          "type": "address[]"
        }
      ],
      "payable": false,
      "stateMutability": "view",
      "type": "function"
    },
    {
      "constant": false,
      "inputs": [
        {
          "name": "_oldAccount",
          "type": "address"
        },
        {
          "name": "_newAccount",
          "type": "address"
        }
      ],
      "name": "archiveProposal",
      "outputs": [],
      "payable": false,
      "stateMutability": "nonpayable",
      "type": "function"
    },
    {
      "constant": true,
      "inputs": [
        {
          "name": "_oldAccount",
          "type": "address"
        },
        {
          "name": "_newAccount",
          "type": "address"
        }
      ],
      "name": "validProposal",
      "outputs": [],
      "payable": false,
      "stateMutability": "view",
      "type": "function"
    },
    {
      "constant": true,
      "inputs": [
        {
          "name": "_address",
          "type": "address"
        }
      ],
      "name": "getBlacklistedAccount",
      "outputs": [
        {
          "name": "",
          "type": "bool"
        }
      ],
      "payable": false,
      "stateMutability": "view",
      "type": "function"
    },
    {
      "constant": false,
      "inputs": [
        {
          "name": "_address",
          "type": "address"
        }
      ],
      "name": "setBlacklistedAccount",
      "outputs": [],
      "payable": false,
      "stateMutability": "nonpayable",
      "type": "function"
    }
  ],
  "bytecode": "0x608060405234801561001057600080fd5b506040516020806124078339810180604052602081101561003057600080fd5b8101908080519060200190929190505050806000806101000a81548173ffffffffffffffffffffffffffffffffffffffff021916908373ffffffffffffffffffffffffffffffffffffffff16021790555050612376806100916000396000f3fe608060405234801561001057600080fd5b50600436106100cf5760003560e01c80636f4b8b721161008c578063870ad86011610066578063870ad860146106355780638af10ea714610699578063b7e3f59f1461071d578063d4b385361461078d576100cf565b80636f4b8b721461051157806380345d9d1461057557806380b91528146105b9576100cf565b80630b9f2b63146100d4578063342a32d1146102ff578063352ef89c1461034f5780634418adbc146103e85780634a1ba5931461044457806369a2060d146104cd575b600080fd5b610140600480360360608110156100ea57600080fd5b81019080803573ffffffffffffffffffffffffffffffffffffffff169060200190929190803573ffffffffffffffffffffffffffffffffffffffff16906020019092919080359060200190929190505050610831565b6040518080602001806020018060200180602001858103855289818151815260200191508051906020019080838360005b8381101561018c578082015181840152602081019050610171565b50505050905090810190601f1680156101b95780820380516001836020036101000a031916815260200191505b50858103845288818151815260200191508051906020019080838360005b838110156101f25780820151818401526020810190506101d7565b50505050905090810190601f16801561021f5780820380516001836020036101000a031916815260200191505b50858103835287818151815260200191508051906020019080838360005b8381101561025857808201518184015260208101905061023d565b50505050905090810190601f1680156102855780820380516001836020036101000a031916815260200191505b50858103825286818151815260200191508051906020019080838360005b838110156102be5780820151818401526020810190506102a3565b50505050905090810190601f1680156102eb5780820380516001836020036101000a031916815260200191505b509850505050505050505060405180910390f35b61034d6004803603604081101561031557600080fd5b81019080803573ffffffffffffffffffffffffffffffffffffffff169060200190929190803515159060200190929190505050610b84565b005b6103916004803603602081101561036557600080fd5b81019080803573ffffffffffffffffffffffffffffffffffffffff169060200190929190505050610cdf565b6040518080602001828103825283818151815260200191508051906020019060200280838360005b838110156103d45780820151818401526020810190506103b9565b505050509050019250505060405180910390f35b61042a600480360360208110156103fe57600080fd5b81019080803573ffffffffffffffffffffffffffffffffffffffff169060200190929190505050610dac565b604051808215151515815260200191505060405180910390f35b6104b06004803603606081101561045a57600080fd5b81019080803573ffffffffffffffffffffffffffffffffffffffff169060200190929190803573ffffffffffffffffffffffffffffffffffffffff16906020019092919080359060200190929190505050610e02565b604051808381526020018281526020019250505060405180910390f35b61050f600480360360208110156104e357600080fd5b81019080803573ffffffffffffffffffffffffffffffffffffffff169060200190929190505050611013565b005b6105736004803603604081101561052757600080fd5b81019080803573ffffffffffffffffffffffffffffffffffffffff169060200190929190803573ffffffffffffffffffffffffffffffffffffffff1690602001909291905050506116aa565b005b6105b76004803603602081101561058b57600080fd5b81019080803573ffffffffffffffffffffffffffffffffffffffff169060200190929190505050611926565b005b61061b600480360360408110156105cf57600080fd5b81019080803573ffffffffffffffffffffffffffffffffffffffff169060200190929190803573ffffffffffffffffffffffffffffffffffffffff169060200190929190505050611981565b604051808215151515815260200191505060405180910390f35b6106976004803603604081101561064b57600080fd5b81019080803573ffffffffffffffffffffffffffffffffffffffff169060200190929190803573ffffffffffffffffffffffffffffffffffffffff169060200190929190505050611a18565b005b61071b600480360360608110156106af57600080fd5b81019080803573ffffffffffffffffffffffffffffffffffffffff169060200190929190803573ffffffffffffffffffffffffffffffffffffffff169060200190929190803573ffffffffffffffffffffffffffffffffffffffff169060200190929190505050611dcd565b005b61078b6004803603606081101561073357600080fd5b81019080803573ffffffffffffffffffffffffffffffffffffffff169060200190929190803573ffffffffffffffffffffffffffffffffffffffff169060200190929190803515159060200190929190505050611f63565b005b6107ef600480360360408110156107a357600080fd5b81019080803573ffffffffffffffffffffffffffffffffffffffff169060200190929190803573ffffffffffffffffffffffffffffffffffffffff169060200190929190505050612144565b604051808273ffffffffffffffffffffffffffffffffffffffff1673ffffffffffffffffffffffffffffffffffffffff16815260200191505060405180910390f35b60608060608060006108438888612144565b90508073ffffffffffffffffffffffffffffffffffffffff16634f7ae4ae336040518263ffffffff1660e01b8152600401808273ffffffffffffffffffffffffffffffffffffffff1673ffffffffffffffffffffffffffffffffffffffff16815260200191505060206040518083038186803b1580156108c257600080fd5b505afa1580156108d6573d6000803e3d6000fd5b505050506040513d60208110156108ec57600080fd5b810190808051906020019092919050505061096f576040517f08c379a000000000000000000000000000000000000000000000000000000000815260040180806020018281038252600d8152602001807f496e76616c696420566f7465720000000000000000000000000000000000000081525060200191505060405180910390fd5b8073ffffffffffffffffffffffffffffffffffffffff1663f91ac89933886040518363ffffffff1660e01b8152600401808373ffffffffffffffffffffffffffffffffffffffff1673ffffffffffffffffffffffffffffffffffffffff1681526020018281526020019250505060006040518083038186803b1580156109f457600080fd5b505afa158015610a08573d6000803e3d6000fd5b505050506040513d6000823e3d601f19601f820116820180604052506080811015610a3257600080fd5b810190808051640100000000811115610a4a57600080fd5b82810190506020810184811115610a6057600080fd5b8151856001820283011164010000000082111715610a7d57600080fd5b50509291906020018051640100000000811115610a9957600080fd5b82810190506020810184811115610aaf57600080fd5b8151856001820283011164010000000082111715610acc57600080fd5b50509291906020018051640100000000811115610ae857600080fd5b82810190506020810184811115610afe57600080fd5b8151856001820283011164010000000082111715610b1b57600080fd5b50509291906020018051640100000000811115610b3757600080fd5b82810190506020810184811115610b4d57600080fd5b8151856001820283011164010000000082111715610b6a57600080fd5b505092919050505094509450945094505093509350935093565b610b8e3383612144565b73ffffffffffffffffffffffffffffffffffffffff1663363b39a260008060009054906101000a900473ffffffffffffffffffffffffffffffffffffffff166040518363ffffffff1660e01b8152600401808381526020018273ffffffffffffffffffffffffffffffffffffffff1673ffffffffffffffffffffffffffffffffffffffff16815260200192505050602060405180830381600087803b158015610c3657600080fd5b505af1158015610c4a573d6000803e3d6000fd5b505050506040513d6020811015610c6057600080fd5b8101908080519060200190929190505050508015610cd1576001600460008473ffffffffffffffffffffffffffffffffffffffff1673ffffffffffffffffffffffffffffffffffffffff16815260200190815260200160002060006101000a81548160ff0219169083151502179055505b610cdb33836116aa565b5050565b6060600260008373ffffffffffffffffffffffffffffffffffffffff1673ffffffffffffffffffffffffffffffffffffffff168152602001908152602001600020805480602002602001604051908101604052809291908181526020018280548015610da057602002820191906000526020600020905b8160009054906101000a900473ffffffffffffffffffffffffffffffffffffffff1673ffffffffffffffffffffffffffffffffffffffff1681526020019060010190808311610d56575b50505050509050919050565b6000600460008373ffffffffffffffffffffffffffffffffffffffff1673ffffffffffffffffffffffffffffffffffffffff16815260200190815260200160002060009054906101000a900460ff169050919050565b6000806000610e118686612144565b90508073ffffffffffffffffffffffffffffffffffffffff16634f7ae4ae336040518263ffffffff1660e01b8152600401808273ffffffffffffffffffffffffffffffffffffffff1673ffffffffffffffffffffffffffffffffffffffff16815260200191505060206040518083038186803b158015610e9057600080fd5b505afa158015610ea4573d6000803e3d6000fd5b505050506040513d6020811015610eba57600080fd5b8101908080519060200190929190505050610f3d576040517f08c379a000000000000000000000000000000000000000000000000000000000815260040180806020018281038252600d8152602001807f496e76616c696420566f7465720000000000000000000000000000000000000081525060200191505060405180910390fd5b8073ffffffffffffffffffffffffffffffffffffffff1663e628c2e033866040518363ffffffff1660e01b8152600401808373ffffffffffffffffffffffffffffffffffffffff1673ffffffffffffffffffffffffffffffffffffffff16815260200182815260200192505050604080518083038186803b158015610fc157600080fd5b505afa158015610fd5573d6000803e3d6000fd5b505050506040513d6040811015610feb57600080fd5b8101908080519060200190929190805190602001909291905050509250925050935093915050565b60008060009054906101000a900473ffffffffffffffffffffffffffffffffffffffff1673ffffffffffffffffffffffffffffffffffffffff16636f77926b836040518263ffffffff1660e01b8152600401808273ffffffffffffffffffffffffffffffffffffffff1673ffffffffffffffffffffffffffffffffffffffff16815260200191505060206040518083038186803b1580156110b357600080fd5b505afa1580156110c7573d6000803e3d6000fd5b505050506040513d60208110156110dd57600080fd5b8101908080519060200190929190505050905060006110fc8333612144565b73ffffffffffffffffffffffffffffffffffffffff1663363b39a28373ffffffffffffffffffffffffffffffffffffffff1663b7f688526040518163ffffffff1660e01b815260040160206040518083038186803b15801561115d57600080fd5b505afa158015611171573d6000803e3d6000fd5b505050506040513d602081101561118757600080fd5b81019080805190602001909291905050506000809054906101000a900473ffffffffffffffffffffffffffffffffffffffff166040518363ffffffff1660e01b8152600401808381526020018273ffffffffffffffffffffffffffffffffffffffff1673ffffffffffffffffffffffffffffffffffffffff16815260200192505050602060405180830381600087803b15801561122357600080fd5b505af1158015611237573d6000803e3d6000fd5b505050506040513d602081101561124d57600080fd5b810190808051906020019092919050505090507fffffffffffffffffffffffffffffffffffffffffffffffffffffffffffffffff8114156112d9576040517f08c379a00000000000000000000000000000000000000000000000000000000081526004018080602001828103825260378152602001806122e46037913960400191505060405180910390fd5b7ffffffffffffffffffffffffffffffffffffffffffffffffffffffffffffffffe81141561136f576040517f08c379a00000000000000000000000000000000000000000000000000000000081526004018080602001828103825260208152602001807f4e6f7420656e6f75676820766f74657273206861766520766f7465642079657481525060200191505060405180910390fd5b6042811261162c5760008060009054906101000a900473ffffffffffffffffffffffffffffffffffffffff1673ffffffffffffffffffffffffffffffffffffffff16636f77926b336040518263ffffffff1660e01b8152600401808273ffffffffffffffffffffffffffffffffffffffff1673ffffffffffffffffffffffffffffffffffffffff16815260200191505060206040518083038186803b15801561141757600080fd5b505afa15801561142b573d6000803e3d6000fd5b505050506040513d602081101561144157600080fd5b810190808051906020019092919050505090508073ffffffffffffffffffffffffffffffffffffffff16633e4ccb408473ffffffffffffffffffffffffffffffffffffffff1663b69ef8a86040518163ffffffff1660e01b815260040160206040518083038186803b1580156114b657600080fd5b505afa1580156114ca573d6000803e3d6000fd5b505050506040513d60208110156114e057600080fd5b81019080805190602001909291905050506040518263ffffffff1660e01b815260040180828152602001915050600060405180830381600087803b15801561152757600080fd5b505af115801561153b573d6000803e3d6000fd5b505050508273ffffffffffffffffffffffffffffffffffffffff1663392aee438473ffffffffffffffffffffffffffffffffffffffff1663b69ef8a86040518163ffffffff1660e01b815260040160206040518083038186803b1580156115a157600080fd5b505afa1580156115b5573d6000803e3d6000fd5b505050506040513d60208110156115cb57600080fd5b81019080805190602001909291905050506040518263ffffffff1660e01b815260040180828152602001915050600060405180830381600087803b15801561161257600080fd5b505af1158015611626573d6000803e3d6000fd5b50505050505b61163683336116aa565b603c81121580156116475750604281125b156116a5576000600360008573ffffffffffffffffffffffffffffffffffffffff1673ffffffffffffffffffffffffffffffffffffffff16815260200190815260200160002060006101000a81548160ff0219169083151502179055505b505050565b60006116b68383612144565b905060608173ffffffffffffffffffffffffffffffffffffffff1663cdd722536040518163ffffffff1660e01b815260040160006040518083038186803b15801561170057600080fd5b505afa158015611714573d6000803e3d6000fd5b505050506040513d6000823e3d601f19601f82011682018060405250602081101561173e57600080fd5b81019080805164010000000081111561175657600080fd5b8281019050602081018481111561176c57600080fd5b815185602082028301116401000000008211171561178957600080fd5b5050929190505050905060008090505b815181101561186557600260008673ffffffffffffffffffffffffffffffffffffffff1673ffffffffffffffffffffffffffffffffffffffff1681526020019081526020016000208282815181106117ed57fe5b602002602001015190806001815401808255809150509060018203906000526020600020016000909192909190916101000a81548173ffffffffffffffffffffffffffffffffffffffff021916908373ffffffffffffffffffffffffffffffffffffffff160217905550508080600101915050611799565b50600160008573ffffffffffffffffffffffffffffffffffffffff1673ffffffffffffffffffffffffffffffffffffffff16815260200190815260200160002060008473ffffffffffffffffffffffffffffffffffffffff1673ffffffffffffffffffffffffffffffffffffffff168152602001908152602001600020600080820160006101000a81549073ffffffffffffffffffffffffffffffffffffffff02191690556000820160146101000a81549060ff0219169055505050505050565b6001600460008373ffffffffffffffffffffffffffffffffffffffff1673ffffffffffffffffffffffffffffffffffffffff16815260200190815260200160002060006101000a81548160ff02191690831515021790555050565b6000600160008473ffffffffffffffffffffffffffffffffffffffff1673ffffffffffffffffffffffffffffffffffffffff16815260200190815260200160002060008373ffffffffffffffffffffffffffffffffffffffff1673ffffffffffffffffffffffffffffffffffffffff16815260200190815260200160002060000160149054906101000a900460ff16905092915050565b6000809054906101000a900473ffffffffffffffffffffffffffffffffffffffff1673ffffffffffffffffffffffffffffffffffffffff16636e9960c36040518163ffffffff1660e01b815260040160206040518083038186803b158015611a7f57600080fd5b505afa158015611a93573d6000803e3d6000fd5b505050506040513d6020811015611aa957600080fd5b810190808051906020019092919050505073ffffffffffffffffffffffffffffffffffffffff168273ffffffffffffffffffffffffffffffffffffffff161415611b5b576040517f08c379a00000000000000000000000000000000000000000000000000000000081526004018080602001828103825260208152602001807f43616e206e6f742074727920746f207265636f766572207468652061646d696e81525060200191505060405180910390fd5b8073ffffffffffffffffffffffffffffffffffffffff168273ffffffffffffffffffffffffffffffffffffffff161415611be0576040517f08c379a00000000000000000000000000000000000000000000000000000000081526004018080602001828103825260218152602001806122c36021913960400191505060405180910390fd5b600460008373ffffffffffffffffffffffffffffffffffffffff1673ffffffffffffffffffffffffffffffffffffffff16815260200190815260200160002060009054906101000a900460ff1615611c83576040517f08c379a000000000000000000000000000000000000000000000000000000000815260040180806020018281038252602681526020018061229d6026913960400191505060405180910390fd5b600460008273ffffffffffffffffffffffffffffffffffffffff1673ffffffffffffffffffffffffffffffffffffffff16815260200190815260200160002060009054906101000a900460ff1615611d26576040517f08c379a000000000000000000000000000000000000000000000000000000000815260040180806020018281038252602681526020018061229d6026913960400191505060405180910390fd5b600360008373ffffffffffffffffffffffffffffffffffffffff1673ffffffffffffffffffffffffffffffffffffffff16815260200190815260200160002060009054906101000a900460ff1615611dc9576040517f08c379a000000000000000000000000000000000000000000000000000000000815260040180806020018281038252603081526020018061231b6030913960400191505060405180910390fd5b5050565b6001600360008573ffffffffffffffffffffffffffffffffffffffff1673ffffffffffffffffffffffffffffffffffffffff16815260200190815260200160002060006101000a81548160ff021916908315150217905550611e2d61226a565b81816000019073ffffffffffffffffffffffffffffffffffffffff16908173ffffffffffffffffffffffffffffffffffffffff1681525050600181602001901515908115158152505080600160008673ffffffffffffffffffffffffffffffffffffffff1673ffffffffffffffffffffffffffffffffffffffff16815260200190815260200160002060008573ffffffffffffffffffffffffffffffffffffffff1673ffffffffffffffffffffffffffffffffffffffff16815260200190815260200160002060008201518160000160006101000a81548173ffffffffffffffffffffffffffffffffffffffff021916908373ffffffffffffffffffffffffffffffffffffffff16021790555060208201518160000160146101000a81548160ff02191690831515021790555090505050505050565b6000611f6f8484612144565b90508073ffffffffffffffffffffffffffffffffffffffff16634f7ae4ae336040518263ffffffff1660e01b8152600401808273ffffffffffffffffffffffffffffffffffffffff1673ffffffffffffffffffffffffffffffffffffffff16815260200191505060206040518083038186803b158015611fee57600080fd5b505afa158015612002573d6000803e3d6000fd5b505050506040513d602081101561201857600080fd5b810190808051906020019092919050505061209b576040517f08c379a000000000000000000000000000000000000000000000000000000000815260040180806020018281038252600d8152602001807f496e76616c696420566f7465720000000000000000000000000000000000000081525060200191505060405180910390fd5b8073ffffffffffffffffffffffffffffffffffffffff1663fa041dd733846040518363ffffffff1660e01b8152600401808373ffffffffffffffffffffffffffffffffffffffff1673ffffffffffffffffffffffffffffffffffffffff1681526020018215151515815260200192505050600060405180830381600087803b15801561212657600080fd5b505af115801561213a573d6000803e3d6000fd5b5050505050505050565b60006121508383611981565b6121c2576040517f08c379a000000000000000000000000000000000000000000000000000000000815260040180806020018281038252601b8152602001807f5468657265206973206e6f206163746976652070726f706f73616c000000000081525060200191505060405180910390fd5b600160008473ffffffffffffffffffffffffffffffffffffffff1673ffffffffffffffffffffffffffffffffffffffff16815260200190815260200160002060008373ffffffffffffffffffffffffffffffffffffffff1673ffffffffffffffffffffffffffffffffffffffff16815260200190815260200160002060000160009054906101000a900473ffffffffffffffffffffffffffffffffffffffff16905092915050565b6040518060400160405280600073ffffffffffffffffffffffffffffffffffffffff168152602001600015158152509056fe4f6e6365206f66207468657365206163636f756e74732061726520626c61636b6c6973746564416e206163636f756e742063616e206e6f74207265636f76657220697473656c66596f75206d7573742077616974206d6f72652074696d6520756e74696c20796f752063616e20636f6e636c7564652074686520766f7465546865726520616c72656164792065786973747320612070726f706f73616c20666f722074686973206163636f756e74a165627a7a72305820f39f6b2f8a85030d4150b4438eee0b3610d2900330703061d3ca42803132a4d20029",
  "source": "/* ProposalManager.sol */\r\n\r\npragma solidity >=0.4.0 <0.7.0;\r\n\r\nimport \"../contracts/UserManager.sol\";\r\nimport \"../contracts/Proposal.sol\";\r\n\r\nimport \"../contracts/Person.sol\";\r\n\r\n/* <Summary> \r\n\tThis contract manages all active proposal. All functions will be called\r\n\t by the voters except for ConcludeProposal which will be called\r\n\t by the new account.\r\n*/\r\n\r\ncontract ProposalManager {\r\n\r\n\t// A struct containing the active proposal as well as if it exists\r\n\tstruct ProposalPair {\r\n\t\tProposal proposal;\t\t\t// Active proposal\r\n\t\tbool exists;\t\t\t\t// Whether there is an active proposal\r\n\t}\r\n\r\n\tUserManager UMI;\t\t\t\t// Connects to the list of users on the network\r\n\r\n\t// Map of active proposals. activeProposals[oldAccount][newAccount] -> proposal\r\n\tmapping (address => mapping (address => ProposalPair) ) activeProposals;\r\n\r\n\t// Map of voters used in past recovery attempts for that account\r\n\t//  Used in case there is a revote\r\n\tmapping (address => address[]) archivedVoters; \t\r\n\r\n\t// A map of if an account can be recovered using an proposal.\r\n\tmapping (address => bool) invalidProposal; \r\n\r\n\t// A map of blacklisted accounts. These accounts are not allowed to use \r\n\t//  any function on the network \r\n\tmapping (address => bool) blackListedAccounts; \t\r\n\r\n\t// Used to originally deploy the contract\r\n\tconstructor(address UserManagerAddress ) public {\r\n\t\tUMI = UserManager(UserManagerAddress);\r\n\t}\r\n\r\n\t// Used by the old account to veto a malicious attempt to steal their account\r\n\tfunction VetoAccountRecovery(address _newAccount, bool attack) external{\r\n\t\t// Pay voters whow have voted\r\n\t\tgetProposal(msg.sender, _newAccount).ConcludeProposal(0, UMI);\r\n\r\n\t\t// This is needed in case the genuine owner of the old account finds\r\n\t\t//  their private key during the proposal. If they do not then this\r\n\t\t//  must be a malicious attempt and we can blacklist the attacker\r\n\t\tif (attack){\t\t\t\t\t\t\t\t// If it is a malicious attempt\r\n\t\t\tblackListedAccounts[_newAccount] = true; // Blacklist attacker\r\n\t\t}\r\n\t\tarchiveProposal(msg.sender, _newAccount);\t// Atchive the proposal\r\n\t}\r\n\r\n\t// View public information of a set of data for a transaction\r\n\tfunction ViewPublicInformation(address _oldAccount, address _newAccount, uint i) \r\n\t\texternal view returns (uint, uint) {\r\n\r\n\t\tProposal temp = getProposal(_oldAccount, _newAccount); // Finds proposal \r\n\t\t// Checks if the sender is a voter \r\n\t\trequire(temp.ContainsVoter(msg.sender), \"Invalid Voter\");\r\n\t\treturn temp.ViewPublicInformation( msg.sender, i ); // Returns information\r\n\t}\r\n\r\n\t// View private information of a set of data for a transaction\r\n\tfunction ViewPrivateInformation(address _oldAccount, address _newAccount, uint i) \r\n\t\texternal view returns (string memory, string memory, \r\n\t\tstring memory, string memory) {\r\n\r\n\t\tProposal temp = getProposal(_oldAccount, _newAccount); // Finds proposal \r\n\t\t// Checks if the sender is a voter \r\n\t\trequire(temp.ContainsVoter(msg.sender), \"Invalid Voter\");\r\n\t\treturn temp.ViewPrivateInformation( msg.sender, i ); // Returns information\r\n\t}\r\n\r\n\t// Allows a voter to cast a vote on a proposal\r\n\tfunction CastVote(address _oldAccount, address _newAccount, bool choice) external {\r\n\t\tProposal temp = getProposal(_oldAccount, _newAccount); // Finds proposal \r\n\t\t// Checks if the sender is a voter \r\n\t\trequire(temp.ContainsVoter(msg.sender), \"Invalid Voter\");\r\n\t\ttemp.CastVote(msg.sender, choice);\t\t\t\t\t// Casts vote\r\n\t}\r\n\r\n\t// Counts up votes and distriputes the reward\r\n\tfunction ConcludeProposal(address _oldAccount) external {\r\n\t\tPerson oldAccount = UMI.getUser(_oldAccount);\r\n\t\tint outcome = getProposal(_oldAccount, msg.sender).\r\n\t\t\tConcludeProposal(oldAccount.vetoTime(), UMI);\r\n\r\n\t\trequire (outcome != -1, \"You must wait more time until you can conclude the vote\");\r\n\t\trequire (outcome != -2, \"Not enough voters have voted yet\");\r\n\r\n\t\tif (outcome >= 66){\t\t\t\t\t\t\t\t\t\t// Successful vote\r\n\t\t\t// Finds old account and new account on the network\r\n\t\t\t\r\n\t\t\tPerson newAccount = UMI.getUser(msg.sender);\r\n\r\n\t\t\t// Transfers balance\r\n\t\t\tnewAccount.increaseBalance(oldAccount.balance());\t// Increase new account's balance\r\n\t\t\toldAccount.decreaseBalance(oldAccount.balance());\t// Decrease old account's balance\r\n\r\n\t\t}\r\n\t\tarchiveProposal(_oldAccount, msg.sender);\t\t\t\t// Archive proposal\r\n\r\n\t\tif (outcome >= 60 && outcome < 66){\t\t\t\t\t\t// Revote\r\n\t\t\tinvalidProposal[_oldAccount] = false;\t\t\t\t// Allows another vote\r\n\t\t}\r\n\t}\r\n\r\n\t// Finds if there is an active proposal between _oldAccount and _newAccount\r\n\tfunction getActiveProposalExists(address _oldAccount, address _newAccount) \r\n\t\tpublic view returns (bool) {\r\n\t\t\r\n\t\treturn activeProposals[_oldAccount][_newAccount].exists;\r\n\t}\r\n\t\r\n\t// Find the active proposal between _oldAccount and _newAccount\r\n\tfunction getProposal(address _oldAccount, address _newAccount) \r\n\t\tpublic view returns (Proposal) {\r\n\r\n\t\trequire(getActiveProposalExists(_oldAccount, _newAccount), \r\n\t\t\t\"There is no active proposal\");\r\n\t\treturn activeProposals[_oldAccount][_newAccount].proposal;\t// Return proposal\r\n\t}\r\n\t\r\n\t// Adds an active proposal between _oldAccount and _newAccount\r\n\tfunction AddActiveProposal(address _oldAccount, address _newAccount, \r\n\t\tProposal temp) external {\r\n\r\n\t\tinvalidProposal[_oldAccount] = true;\t// Can not make another proposal\r\n\r\n\t\t// A struct containing the active proposal as well as if it exists\r\n\t\tProposalPair memory tempPair;\r\n\t\ttempPair.proposal = temp;\t\t\t\t// Set proposal\r\n\t\ttempPair.exists = true;\t\t\t\t\t// There is an active proposal\r\n\t\tactiveProposals[_oldAccount][_newAccount] = tempPair;\r\n\t}\r\n\r\n\t// Find an archived voters between _oldAccount and _newAccount\r\n\tfunction getArchivedVoter(address _oldAccount) \r\n\t\texternal view returns (address[] memory) {\r\n\t\t\r\n\t\treturn archivedVoters[_oldAccount];\t\t// Return archived voters\r\n\t}\r\n\r\n\t// Remove a proposal from being active. Add voters to archivedVoters\r\n\tfunction archiveProposal(address _oldAccount, address _newAccount) public {\r\n\t\tProposal temp = getProposal(_oldAccount, _newAccount); // Get proposal\r\n\r\n\t\taddress[] memory voters = temp.getVoters();\t\t\t// Get voters\r\n\r\n\t\tfor (uint i = 0; i < voters.length; i++){\t\t\t// For each voter\r\n\t\t\tarchivedVoters[_oldAccount].push(voters[i]);\t// Add them to archivedVoters\r\n\t\t}\r\n\r\n\t\tdelete activeProposals[_oldAccount][_newAccount];\t// Delete active proposal\r\n\t}\r\n\r\n\t// Determine if a proposal if valid \r\n\tfunction validProposal(address _oldAccount, address _newAccount) external view {\r\n\t\trequire(_oldAccount != UMI.getAdmin(), \"Can not try to recover the admin\");\r\n\t\trequire(_oldAccount != _newAccount, \"An account can not recover itself\");\r\n\r\n\t\t// Checks if the old account account is blacklisted\r\n\t\trequire (!blackListedAccounts[_oldAccount], \r\n\t\t\t\"Once of these accounts are blacklisted\");\r\n\r\n\t\t// Checks if the new account account is blacklisted\r\n\t\trequire (!blackListedAccounts[_newAccount], \r\n\t\t\t\"Once of these accounts are blacklisted\");\r\n\r\n\t\t// Checks if there is already an active proposal for this account\r\n\t\trequire (!invalidProposal[_oldAccount], \r\n\t\t\t\"There already exists a proposal for this account\");\r\n\t}\r\n\r\n\t// Returns true if the account is blacklisted\r\n\tfunction getBlacklistedAccount(address _address) external view returns (bool) {\r\n\t\treturn blackListedAccounts[_address];\r\n\t}\r\n\r\n\t// Blacklists a given account\r\n\tfunction setBlacklistedAccount(address _address) external {\r\n\t\tblackListedAccounts[_address] = true;\r\n\t}\r\n}\r\n",
  "sourcePath": "C:\\Users\\m5w5b\\Desktop\\GitHub\\game-dapp\\AccountRecovery\\contracts\\ProposalManager.sol",
  "compiler": {
    "name": "solc",
    "version": "0.5.8+commit.23d335f2.Emscripten.clang"
  },
  "schemaVersion": "3.0.16",
  "updatedAt": "2019-12-07T21:29:13.273Z",
  "devdoc": {
    "methods": {}
  },
  "userdoc": {
    "methods": {}
  }
}