{
  "contractName": "ProposalManager",
  "abi": [
    {
      "inputs": [
        {
          "name": "UserManagerAddress",
          "type": "address"
        }
      ],
      "payable": false,
      "stateMutability": "nonpayable",
      "type": "constructor"
    },
    {
      "constant": false,
      "inputs": [
        {
          "name": "_newAccount",
          "type": "address"
        }
      ],
      "name": "VetoAccountRecovery",
      "outputs": [],
      "payable": false,
      "stateMutability": "nonpayable",
      "type": "function"
    },
    {
      "constant": false,
      "inputs": [
        {
          "name": "_oldAccount",
          "type": "address"
        }
      ],
      "name": "ConcludeAccountRecovery",
      "outputs": [],
      "payable": false,
      "stateMutability": "nonpayable",
      "type": "function"
    },
    {
      "constant": false,
      "inputs": [
        {
          "name": "oldAccount",
          "type": "address"
        },
        {
          "name": "newAccount",
          "type": "address"
        },
        {
          "name": "choice",
          "type": "bool"
        }
      ],
      "name": "CastVote",
      "outputs": [],
      "payable": false,
      "stateMutability": "nonpayable",
      "type": "function"
    },
    {
      "constant": true,
      "inputs": [
        {
          "name": "oldAccount",
          "type": "address"
        },
        {
          "name": "newAccount",
          "type": "address"
        },
        {
          "name": "i",
          "type": "uint256"
        }
      ],
      "name": "ViewPublicInformation",
      "outputs": [
        {
          "name": "",
          "type": "uint256"
        },
        {
          "name": "",
          "type": "uint256"
        },
        {
          "name": "",
          "type": "address"
        },
        {
          "name": "",
          "type": "address"
        }
      ],
      "payable": false,
      "stateMutability": "view",
      "type": "function"
    },
    {
      "constant": true,
      "inputs": [
        {
          "name": "oldAccount",
          "type": "address"
        },
        {
          "name": "newAccount",
          "type": "address"
        },
        {
          "name": "i",
          "type": "uint256"
        }
      ],
      "name": "ViewPrivateInformation",
      "outputs": [
        {
          "name": "",
          "type": "string"
        },
        {
          "name": "",
          "type": "string"
        }
      ],
      "payable": false,
      "stateMutability": "view",
      "type": "function"
    },
    {
      "constant": true,
      "inputs": [
        {
          "name": "_oldAccount",
          "type": "address"
        },
        {
          "name": "_newAccount",
          "type": "address"
        }
      ],
      "name": "getActiveProposalExists",
      "outputs": [
        {
          "name": "",
          "type": "bool"
        }
      ],
      "payable": false,
      "stateMutability": "view",
      "type": "function"
    },
    {
      "constant": true,
      "inputs": [
        {
          "name": "_oldAccount",
          "type": "address"
        },
        {
          "name": "_newAccount",
          "type": "address"
        }
      ],
      "name": "getActiveProposal",
      "outputs": [
        {
          "name": "",
          "type": "address"
        }
      ],
      "payable": false,
      "stateMutability": "view",
      "type": "function"
    },
    {
      "constant": false,
      "inputs": [
        {
          "name": "_oldAccount",
          "type": "address"
        },
        {
          "name": "_newAccount",
          "type": "address"
        },
        {
          "name": "temp",
          "type": "address"
        }
      ],
      "name": "AddActiveProposal",
      "outputs": [],
      "payable": false,
      "stateMutability": "nonpayable",
      "type": "function"
    },
    {
      "constant": true,
      "inputs": [
        {
          "name": "_oldAccount",
          "type": "address"
        },
        {
          "name": "_newAccount",
          "type": "address"
        }
      ],
      "name": "getArchivedVoter",
      "outputs": [
        {
          "name": "",
          "type": "address[]"
        }
      ],
      "payable": false,
      "stateMutability": "view",
      "type": "function"
    },
    {
      "constant": false,
      "inputs": [
        {
          "name": "_oldAccount",
          "type": "address"
        },
        {
          "name": "_newAccount",
          "type": "address"
        }
      ],
      "name": "archiveProposal",
      "outputs": [],
      "payable": false,
      "stateMutability": "nonpayable",
      "type": "function"
    },
    {
      "constant": true,
      "inputs": [
        {
          "name": "_oldAccount",
          "type": "address"
        },
        {
          "name": "_newAccount",
          "type": "address"
        }
      ],
      "name": "validProposal",
      "outputs": [
        {
          "name": "",
          "type": "bool"
        }
      ],
      "payable": false,
      "stateMutability": "view",
      "type": "function"
    }
  ],
  "bytecode": "0x608060405234801561001057600080fd5b506040516020806119298339810180604052602081101561003057600080fd5b8101908080519060200190929190505050806000806101000a81548173ffffffffffffffffffffffffffffffffffffffff021916908373ffffffffffffffffffffffffffffffffffffffff16021790555050611898806100916000396000f3fe608060405234801561001057600080fd5b50600436106100a95760003560e01c806380b915281161007157806380b91528146103dc578063870ad860146104585780638af10ea7146104d4578063a652629514610558578063b7e3f59f146105fc578063f1338ba11461066c576100a9565b80630b9f2b63146100ae5780630d2cea2c146102015780633c4d4fe1146102455780634a1ba593146102895780636f4b8b7214610378575b600080fd5b61011a600480360360608110156100c457600080fd5b81019080803573ffffffffffffffffffffffffffffffffffffffff169060200190929190803573ffffffffffffffffffffffffffffffffffffffff16906020019092919080359060200190929190505050610725565b604051808060200180602001838103835285818151815260200191508051906020019080838360005b8381101561015e578082015181840152602081019050610143565b50505050905090810190601f16801561018b5780820380516001836020036101000a031916815260200191505b50838103825284818151815260200191508051906020019080838360005b838110156101c45780820151818401526020810190506101a9565b50505050905090810190601f1680156101f15780820380516001836020036101000a031916815260200191505b5094505050505060405180910390f35b6102436004803603602081101561021757600080fd5b81019080803573ffffffffffffffffffffffffffffffffffffffff1690602001909291905050506108a2565b005b6102876004803603602081101561025b57600080fd5b81019080803573ffffffffffffffffffffffffffffffffffffffff169060200190929190505050610e5e565b005b6102f56004803603606081101561029f57600080fd5b81019080803573ffffffffffffffffffffffffffffffffffffffff169060200190929190803573ffffffffffffffffffffffffffffffffffffffff16906020019092919080359060200190929190505050610e6b565b604051808581526020018481526020018373ffffffffffffffffffffffffffffffffffffffff1673ffffffffffffffffffffffffffffffffffffffff1681526020018273ffffffffffffffffffffffffffffffffffffffff1673ffffffffffffffffffffffffffffffffffffffff16815260200194505050505060405180910390f35b6103da6004803603604081101561038e57600080fd5b81019080803573ffffffffffffffffffffffffffffffffffffffff169060200190929190803573ffffffffffffffffffffffffffffffffffffffff169060200190929190505050610f69565b005b61043e600480360360408110156103f257600080fd5b81019080803573ffffffffffffffffffffffffffffffffffffffff169060200190929190803573ffffffffffffffffffffffffffffffffffffffff169060200190929190505050611222565b604051808215151515815260200191505060405180910390f35b6104ba6004803603604081101561046e57600080fd5b81019080803573ffffffffffffffffffffffffffffffffffffffff169060200190929190803573ffffffffffffffffffffffffffffffffffffffff1690602001909291905050506112b9565b604051808215151515815260200191505060405180910390f35b610556600480360360608110156104ea57600080fd5b81019080803573ffffffffffffffffffffffffffffffffffffffff169060200190929190803573ffffffffffffffffffffffffffffffffffffffff169060200190929190803573ffffffffffffffffffffffffffffffffffffffff16906020019092919050505061134e565b005b6105ba6004803603604081101561056e57600080fd5b81019080803573ffffffffffffffffffffffffffffffffffffffff169060200190929190803573ffffffffffffffffffffffffffffffffffffffff169060200190929190505050611521565b604051808273ffffffffffffffffffffffffffffffffffffffff1673ffffffffffffffffffffffffffffffffffffffff16815260200191505060405180910390f35b61066a6004803603606081101561061257600080fd5b81019080803573ffffffffffffffffffffffffffffffffffffffff169060200190929190803573ffffffffffffffffffffffffffffffffffffffff169060200190929190803515159060200190929190505050611647565b005b6106ce6004803603604081101561068257600080fd5b81019080803573ffffffffffffffffffffffffffffffffffffffff169060200190929190803573ffffffffffffffffffffffffffffffffffffffff1690602001909291905050506116f8565b6040518080602001828103825283818151815260200191508051906020019060200280838360005b838110156107115780820151818401526020810190506106f6565b505050509050019250505060405180910390f35b6060806107328585611521565b73ffffffffffffffffffffffffffffffffffffffff1663f91ac89933856040518363ffffffff1660e01b8152600401808373ffffffffffffffffffffffffffffffffffffffff1673ffffffffffffffffffffffffffffffffffffffff1681526020018281526020019250505060006040518083038186803b1580156107b657600080fd5b505afa1580156107ca573d6000803e3d6000fd5b505050506040513d6000823e3d601f19601f8201168201806040525060408110156107f457600080fd5b81019080805164010000000081111561080c57600080fd5b8281019050602081018481111561082257600080fd5b815185600182028301116401000000008211171561083f57600080fd5b5050929190602001805164010000000081111561085b57600080fd5b8281019050602081018481111561087157600080fd5b815185600182028301116401000000008211171561088e57600080fd5b505092919050505091509150935093915050565b60006108ae8233611521565b905060008173ffffffffffffffffffffffffffffffffffffffff16630d2cea2c6000809054906101000a900473ffffffffffffffffffffffffffffffffffffffff166040518263ffffffff1660e01b8152600401808273ffffffffffffffffffffffffffffffffffffffff1673ffffffffffffffffffffffffffffffffffffffff168152602001915050602060405180830381600087803b15801561095257600080fd5b505af1158015610966573d6000803e3d6000fd5b505050506040513d602081101561097c57600080fd5b810190808051906020019092919050505090507fffffffffffffffffffffffffffffffffffffffffffffffffffffffffffffffff811415610a08576040517f08c379a00000000000000000000000000000000000000000000000000000000081526004018080602001828103825260378152602001806118366037913960400191505060405180910390fd5b60428112610da35760008060009054906101000a900473ffffffffffffffffffffffffffffffffffffffff1673ffffffffffffffffffffffffffffffffffffffff16636f77926b856040518263ffffffff1660e01b8152600401808273ffffffffffffffffffffffffffffffffffffffff1673ffffffffffffffffffffffffffffffffffffffff16815260200191505060206040518083038186803b158015610ab057600080fd5b505afa158015610ac4573d6000803e3d6000fd5b505050506040513d6020811015610ada57600080fd5b8101908080519060200190929190505050905060008060009054906101000a900473ffffffffffffffffffffffffffffffffffffffff1673ffffffffffffffffffffffffffffffffffffffff16636f77926b336040518263ffffffff1660e01b8152600401808273ffffffffffffffffffffffffffffffffffffffff1673ffffffffffffffffffffffffffffffffffffffff16815260200191505060206040518083038186803b158015610b8d57600080fd5b505afa158015610ba1573d6000803e3d6000fd5b505050506040513d6020811015610bb757600080fd5b810190808051906020019092919050505090508073ffffffffffffffffffffffffffffffffffffffff16633e4ccb408373ffffffffffffffffffffffffffffffffffffffff1663b69ef8a86040518163ffffffff1660e01b815260040160206040518083038186803b158015610c2c57600080fd5b505afa158015610c40573d6000803e3d6000fd5b505050506040513d6020811015610c5657600080fd5b81019080805190602001909291905050506040518263ffffffff1660e01b815260040180828152602001915050600060405180830381600087803b158015610c9d57600080fd5b505af1158015610cb1573d6000803e3d6000fd5b505050508173ffffffffffffffffffffffffffffffffffffffff1663392aee438373ffffffffffffffffffffffffffffffffffffffff1663b69ef8a86040518163ffffffff1660e01b815260040160206040518083038186803b158015610d1757600080fd5b505afa158015610d2b573d6000803e3d6000fd5b505050506040513d6020811015610d4157600080fd5b81019080805190602001909291905050506040518263ffffffff1660e01b815260040180828152602001915050600060405180830381600087803b158015610d8857600080fd5b505af1158015610d9c573d6000803e3d6000fd5b5050505050505b610dad8333610f69565b603c8112158015610dbe5750604281125b15610e59576000600360008573ffffffffffffffffffffffffffffffffffffffff1673ffffffffffffffffffffffffffffffffffffffff16815260200190815260200160002060003373ffffffffffffffffffffffffffffffffffffffff1673ffffffffffffffffffffffffffffffffffffffff16815260200190815260200160002060006101000a81548160ff0219169083151502179055505b505050565b610e683382610f69565b50565b600080600080610e7b8787611521565b73ffffffffffffffffffffffffffffffffffffffff1663e628c2e033876040518363ffffffff1660e01b8152600401808373ffffffffffffffffffffffffffffffffffffffff1673ffffffffffffffffffffffffffffffffffffffff1681526020018281526020019250505060806040518083038186803b158015610eff57600080fd5b505afa158015610f13573d6000803e3d6000fd5b505050506040513d6080811015610f2957600080fd5b8101908080519060200190929190805190602001909291908051906020019092919080519060200190929190505050935093509350935093509350935093565b6000610f758383611521565b905060608173ffffffffffffffffffffffffffffffffffffffff1663cdd722536040518163ffffffff1660e01b815260040160006040518083038186803b158015610fbf57600080fd5b505afa158015610fd3573d6000803e3d6000fd5b505050506040513d6000823e3d601f19601f820116820180604052506020811015610ffd57600080fd5b81019080805164010000000081111561101557600080fd5b8281019050602081018481111561102b57600080fd5b815185602082028301116401000000008211171561104857600080fd5b5050929190505050905060008090505b815181101561116157600260008673ffffffffffffffffffffffffffffffffffffffff1673ffffffffffffffffffffffffffffffffffffffff16815260200190815260200160002060008573ffffffffffffffffffffffffffffffffffffffff1673ffffffffffffffffffffffffffffffffffffffff1681526020019081526020016000208282815181106110e957fe5b602002602001015190806001815401808255809150509060018203906000526020600020016000909192909190916101000a81548173ffffffffffffffffffffffffffffffffffffffff021916908373ffffffffffffffffffffffffffffffffffffffff160217905550508080600101915050611058565b50600160008573ffffffffffffffffffffffffffffffffffffffff1673ffffffffffffffffffffffffffffffffffffffff16815260200190815260200160002060008473ffffffffffffffffffffffffffffffffffffffff1673ffffffffffffffffffffffffffffffffffffffff168152602001908152602001600020600080820160006101000a81549073ffffffffffffffffffffffffffffffffffffffff02191690556000820160146101000a81549060ff0219169055505050505050565b6000600160008473ffffffffffffffffffffffffffffffffffffffff1673ffffffffffffffffffffffffffffffffffffffff16815260200190815260200160002060008373ffffffffffffffffffffffffffffffffffffffff1673ffffffffffffffffffffffffffffffffffffffff16815260200190815260200160002060000160149054906101000a900460ff16905092915050565b6000600360008473ffffffffffffffffffffffffffffffffffffffff1673ffffffffffffffffffffffffffffffffffffffff16815260200190815260200160002060008373ffffffffffffffffffffffffffffffffffffffff1673ffffffffffffffffffffffffffffffffffffffff16815260200190815260200160002060009054906101000a900460ff1615905092915050565b6001600360008573ffffffffffffffffffffffffffffffffffffffff1673ffffffffffffffffffffffffffffffffffffffff16815260200190815260200160002060008473ffffffffffffffffffffffffffffffffffffffff1673ffffffffffffffffffffffffffffffffffffffff16815260200190815260200160002060006101000a81548160ff0219169083151502179055506113eb611803565b81816000019073ffffffffffffffffffffffffffffffffffffffff16908173ffffffffffffffffffffffffffffffffffffffff1681525050600181602001901515908115158152505080600160008673ffffffffffffffffffffffffffffffffffffffff1673ffffffffffffffffffffffffffffffffffffffff16815260200190815260200160002060008573ffffffffffffffffffffffffffffffffffffffff1673ffffffffffffffffffffffffffffffffffffffff16815260200190815260200160002060008201518160000160006101000a81548173ffffffffffffffffffffffffffffffffffffffff021916908373ffffffffffffffffffffffffffffffffffffffff16021790555060208201518160000160146101000a81548160ff02191690831515021790555090505050505050565b600061152d8383611222565b61159f576040517f08c379a000000000000000000000000000000000000000000000000000000000815260040180806020018281038252601b8152602001807f5468657265206973206e6f206163746976652050726f706f73616c000000000081525060200191505060405180910390fd5b600160008473ffffffffffffffffffffffffffffffffffffffff1673ffffffffffffffffffffffffffffffffffffffff16815260200190815260200160002060008373ffffffffffffffffffffffffffffffffffffffff1673ffffffffffffffffffffffffffffffffffffffff16815260200190815260200160002060000160009054906101000a900473ffffffffffffffffffffffffffffffffffffffff16905092915050565b6116518383611521565b73ffffffffffffffffffffffffffffffffffffffff1663fa041dd733836040518363ffffffff1660e01b8152600401808373ffffffffffffffffffffffffffffffffffffffff1673ffffffffffffffffffffffffffffffffffffffff1681526020018215151515815260200192505050600060405180830381600087803b1580156116db57600080fd5b505af11580156116ef573d6000803e3d6000fd5b50505050505050565b6060600260008473ffffffffffffffffffffffffffffffffffffffff1673ffffffffffffffffffffffffffffffffffffffff16815260200190815260200160002060008373ffffffffffffffffffffffffffffffffffffffff1673ffffffffffffffffffffffffffffffffffffffff1681526020019081526020016000208054806020026020016040519081016040528092919081815260200182805480156117f657602002820191906000526020600020905b8160009054906101000a900473ffffffffffffffffffffffffffffffffffffffff1673ffffffffffffffffffffffffffffffffffffffff16815260200190600101908083116117ac575b5050505050905092915050565b6040518060400160405280600073ffffffffffffffffffffffffffffffffffffffff168152602001600015158152509056fe596f75206d7573742077616974206d6f72652074696d6520756e74696c20796f752063616e20636f6e636c7564652074686520766f7465a165627a7a7230582050449910dd9522dc41ad0d985228442a18ab9e78d58000cb5ded29469d227e3b0029",
  "source": "/* ProposalManager.sol */\r\n\r\npragma solidity >=0.4.0 <0.7.0;\r\n\r\nimport \"../contracts/UserManager.sol\";\r\nimport \"../contracts/Proposal.sol\";\r\n\r\nimport \"../contracts/Person.sol\";\r\n\r\n/* <Summary> \r\n\tThis contract manages all active proposal as well as makes and concludes proposals.\r\n*/\r\n\r\ncontract ProposalManager {\r\n\r\n\tstruct ProposalPair {\r\n\t\tProposal proposal;\r\n\t\tbool exists;\r\n\t}\r\n\r\n\tUserManager UserManagerInstance;\t\t\t\t// Connects to the list of users on the network\r\n\r\n\tmapping (address => mapping (address => ProposalPair) ) activeProposals; // Map of active proposals\r\n\t\t\t\t\t\t\t\t\t\t\t\t\t// Old Account -> New Account -> Proposal\r\n\tmapping (address => mapping (address => address[]) ) archivedVoters; \t// Map of active proposals\r\n\t\t\t\t\t\t\t\t\t\t\t\t\t// Old Account -> New Account -> bool\r\n\tmapping (address => mapping (address => bool) ) invalidProposal; \t// If true then there has already been a proposal\r\n\t\t\t\t\t\t\t\t\t\t\t\t\t// Old Account -> New Account -> bool\r\n\r\n\t// Used to originally deploy the contract\r\n\tconstructor(address UserManagerAddress ) public {\r\n\t\tUserManagerInstance = UserManager(UserManagerAddress);\r\n\t}\r\n\r\n\tfunction VetoAccountRecovery(address _newAccount) external{\r\n\t\tarchiveProposal(msg.sender, _newAccount);\r\n\t}\r\n\t\r\n\t// Counts up votes and distriputes the reward\r\n\tfunction ConcludeAccountRecovery(address _oldAccount) external {\r\n\t\tProposal temp = getActiveProposal(_oldAccount, msg.sender);\r\n\t\t\r\n\t\tint outcome = temp.ConcludeAccountRecovery(UserManagerInstance);\r\n\r\n\t\trequire (outcome != -1, \"You must wait more time until you can conclude the vote\");\r\n\r\n\t\tif (outcome >= 66){\t\t\t\t\t\t\t\t\t\t\t// Successful vote\r\n\t\t\t// Finds old account and new account on the network\r\n\t\t\tPerson oldAccount = UserManagerInstance.getUser(_oldAccount);\r\n\t\t\tPerson newAccount = UserManagerInstance.getUser(msg.sender);\r\n\r\n\t\t\t// Transfers balance\r\n\t\t\tnewAccount.increaseBalance(oldAccount.balance());\t// Increase new accounts balance\r\n\t\t\toldAccount.decreaseBalance(oldAccount.balance());\t// Decrease old accounts balance\r\n\r\n\t\t}\r\n\t\tarchiveProposal(_oldAccount, msg.sender);\r\n\r\n\t\tif (outcome >= 60 && outcome < 66){\t\t\t\t\t\t\t\t// Vote failed. No revote\r\n\t\t\tinvalidProposal[_oldAccount][msg.sender] = false;\r\n\t\t}\r\n\t}\r\n\r\n\t// Allows a voter to cast a vote on a proposal\r\n\tfunction CastVote(address oldAccount, address newAccount, bool choice) external {\r\n\t\tgetActiveProposal(oldAccount, newAccount).CastVote(msg.sender, choice);\r\n\t}\r\n\r\n\t// View public information on a set of data for a transaction\r\n\tfunction ViewPublicInformation(address oldAccount, address newAccount, uint i) external view returns (uint, uint, address, address)\t{\r\n\t\treturn getActiveProposal(oldAccount, newAccount).ViewPublicInformation( msg.sender, i );\r\n\t}\r\n\r\n\t// View private information on a set of data for a transaction\r\n\tfunction ViewPrivateInformation(address oldAccount, address newAccount, uint i) external view returns (string memory, string memory)\t{\r\n\t\treturn getActiveProposal(oldAccount, newAccount).ViewPrivateInformation( msg.sender, i );\r\n\t}\r\n\r\n\t// Find the active proposal between _oldAccount and _newAccount\r\n\tfunction getActiveProposalExists(address _oldAccount, address _newAccount) public view returns (bool) {\r\n\t\treturn activeProposals[_oldAccount][_newAccount].exists;\r\n\t}\r\n\t\r\n\t// Find the active proposal between _oldAccount and _newAccount\r\n\tfunction getActiveProposal(address _oldAccount, address _newAccount) public view returns (Proposal) {\r\n\t\trequire(getActiveProposalExists(_oldAccount, _newAccount), \"There is no active Proposal\");\r\n\t\treturn activeProposals[_oldAccount][_newAccount].proposal;\r\n\t}\r\n\t\r\n\t// Adds an active proposal between _oldAccount and _newAccount\r\n\tfunction AddActiveProposal(address _oldAccount, address _newAccount, Proposal temp) external {\r\n\t\tinvalidProposal[_oldAccount][_newAccount] = true;\r\n\r\n\t\tProposalPair memory tempPair;\r\n\t\ttempPair.proposal = temp;\r\n\t\ttempPair.exists = true;\r\n\r\n\t\tactiveProposals[_oldAccount][_newAccount] = tempPair;\r\n\t}\r\n\t\r\n\t// Find the archived proposal between _oldAccount and _newAccount\r\n\tfunction getArchivedVoter(address _oldAccount, address _newAccount) external view returns (address[] memory) {\r\n\t\treturn archivedVoters[_oldAccount][_newAccount];\r\n\t}\r\n\r\n\tfunction archiveProposal(address _oldAccount, address _newAccount) public {\r\n\t\tProposal temp = getActiveProposal(_oldAccount, _newAccount);\r\n\r\n\t\taddress[] memory voters = temp.getVoters();\r\n\r\n\t\tfor (uint i = 0; i < voters.length; i++){\r\n\t\t\tarchivedVoters[_oldAccount][_newAccount].push(voters[i]);\r\n\t\t}\r\n\r\n\t\tdelete activeProposals[_oldAccount][_newAccount];\r\n\t}\r\n\r\n\tfunction validProposal(address _oldAccount, address _newAccount) external view returns (bool) {\r\n\t\treturn !invalidProposal[_oldAccount][_newAccount];\r\n\t}\r\n}\r\n",
  "sourcePath": "C:\\Users\\m5w5b\\Desktop\\GitHub\\game-dapp\\AccountRecovery\\contracts\\ProposalManager.sol",
  "compiler": {
    "name": "solc",
    "version": "0.5.8+commit.23d335f2.Emscripten.clang"
  },
  "schemaVersion": "3.0.16",
  "updatedAt": "2019-11-01T16:20:45.597Z",
  "devdoc": {
    "methods": {}
  },
  "userdoc": {
    "methods": {}
  }
}