{
  "contractName": "ProposalCreator",
  "abi": [
    {
      "inputs": [
        {
          "name": "UserManagerAddress",
          "type": "address"
        },
        {
          "name": "TransactionManagerAddress",
          "type": "address"
        },
        {
          "name": "ProposalManagerAddress",
          "type": "address"
        }
      ],
      "payable": false,
      "stateMutability": "nonpayable",
      "type": "constructor"
    },
    {
      "constant": false,
      "inputs": [
        {
          "name": "_oldAccount",
          "type": "address"
        },
        {
          "name": "_description",
          "type": "string"
        }
      ],
      "name": "StartProposal",
      "outputs": [
        {
          "name": "",
          "type": "uint256"
        }
      ],
      "payable": false,
      "stateMutability": "nonpayable",
      "type": "function"
    },
    {
      "constant": false,
      "inputs": [
        {
          "name": "_oldAccount",
          "type": "address"
        },
        {
          "name": "_pay",
          "type": "bool"
        }
      ],
      "name": "Pay",
      "outputs": [],
      "payable": false,
      "stateMutability": "nonpayable",
      "type": "function"
    },
    {
      "constant": false,
      "inputs": [
        {
          "name": "_oldAccount",
          "type": "address"
        },
        {
          "name": "_tradePartners",
          "type": "address[]"
        }
      ],
      "name": "AddTradePartners",
      "outputs": [],
      "payable": false,
      "stateMutability": "nonpayable",
      "type": "function"
    },
    {
      "constant": false,
      "inputs": [
        {
          "name": "_oldAccount",
          "type": "address"
        }
      ],
      "name": "FindRandomTradingPartner",
      "outputs": [],
      "payable": false,
      "stateMutability": "nonpayable",
      "type": "function"
    },
    {
      "constant": true,
      "inputs": [
        {
          "name": "_oldAccount",
          "type": "address"
        }
      ],
      "name": "ViewRandomTradingPartner",
      "outputs": [
        {
          "name": "",
          "type": "address"
        }
      ],
      "payable": false,
      "stateMutability": "view",
      "type": "function"
    },
    {
      "constant": false,
      "inputs": [
        {
          "name": "_oldAccount",
          "type": "address"
        }
      ],
      "name": "AddRandomTradingPartner",
      "outputs": [],
      "payable": false,
      "stateMutability": "nonpayable",
      "type": "function"
    },
    {
      "constant": false,
      "inputs": [
        {
          "name": "oldAccount",
          "type": "address"
        },
        {
          "name": "_voter",
          "type": "address"
        },
        {
          "name": "_description",
          "type": "string"
        }
      ],
      "name": "MakeVotingToken",
      "outputs": [],
      "payable": false,
      "stateMutability": "nonpayable",
      "type": "function"
    },
    {
      "constant": false,
      "inputs": [
        {
          "name": "oldAccount",
          "type": "address"
        },
        {
          "name": "timeStamp",
          "type": "uint256"
        },
        {
          "name": "_amount",
          "type": "uint256"
        },
        {
          "name": "_voter",
          "type": "address"
        },
        {
          "name": "_description",
          "type": "string"
        },
        {
          "name": "_itemsInTrade",
          "type": "string"
        }
      ],
      "name": "MakeTransactionDataSet",
      "outputs": [],
      "payable": false,
      "stateMutability": "nonpayable",
      "type": "function"
    }
  ],
  "bytecode": "0x608060405234801561001057600080fd5b50604051606080615fa08339810180604052606081101561003057600080fd5b81019080805190602001909291908051906020019092919080519060200190929190505050826000806101000a81548173ffffffffffffffffffffffffffffffffffffffff021916908373ffffffffffffffffffffffffffffffffffffffff16021790555081600160006101000a81548173ffffffffffffffffffffffffffffffffffffffff021916908373ffffffffffffffffffffffffffffffffffffffff16021790555080600260006101000a81548173ffffffffffffffffffffffffffffffffffffffff021916908373ffffffffffffffffffffffffffffffffffffffff160217905550505050615e77806101296000396000f3fe60806040523480156200001157600080fd5b5060043610620000945760003560e01c8063685c12e41162000063578063685c12e414620002595780637904973914620002a0578063e8d94c0014620003cb578063fa848b7e146200048a5762000094565b80632ec59b6e14620000995780634bdc7b5014620000ec578063516e4c2a14620001735780635d0eebea1462000212575b600080fd5b620000ea60048036036040811015620000b157600080fd5b81019080803573ffffffffffffffffffffffffffffffffffffffff1690602001909291908035151590602001909291905050506200053d565b005b62000131600480360360208110156200010457600080fd5b81019080803573ffffffffffffffffffffffffffffffffffffffff169060200190929190505050620008c8565b604051808273ffffffffffffffffffffffffffffffffffffffff1673ffffffffffffffffffffffffffffffffffffffff16815260200191505060405180910390f35b62000210600480360360408110156200018b57600080fd5b81019080803573ffffffffffffffffffffffffffffffffffffffff16906020019092919080359060200190640100000000811115620001c957600080fd5b820183602082011115620001dc57600080fd5b80359060200191846020830284011164010000000083111715620001ff57600080fd5b909192939192939050505062000a65565b005b62000257600480360360208110156200022a57600080fd5b81019080803573ffffffffffffffffffffffffffffffffffffffff16906020019092919050505062000cc1565b005b6200029e600480360360208110156200027157600080fd5b81019080803573ffffffffffffffffffffffffffffffffffffffff16906020019092919050505062000e36565b005b620003c9600480360360c0811015620002b857600080fd5b81019080803573ffffffffffffffffffffffffffffffffffffffff1690602001909291908035906020019092919080359060200190929190803573ffffffffffffffffffffffffffffffffffffffff169060200190929190803590602001906401000000008111156200032a57600080fd5b8201836020820111156200033d57600080fd5b803590602001918460018302840111640100000000831117156200036057600080fd5b9091929391929390803590602001906401000000008111156200038257600080fd5b8201836020820111156200039557600080fd5b80359060200191846001830284011164010000000083111715620003b857600080fd5b909192939192939050505062000fab565b005b6200048860048036036060811015620003e357600080fd5b81019080803573ffffffffffffffffffffffffffffffffffffffff169060200190929190803573ffffffffffffffffffffffffffffffffffffffff169060200190929190803590602001906401000000008111156200044157600080fd5b8201836020820111156200045457600080fd5b803590602001918460018302840111640100000000831117156200047757600080fd5b90919293919293905050506200136a565b005b6200052760048036036040811015620004a257600080fd5b81019080803573ffffffffffffffffffffffffffffffffffffffff16906020019092919080359060200190640100000000811115620004e057600080fd5b820183602082011115620004f357600080fd5b803590602001918460018302840111640100000000831117156200051657600080fd5b909192939192939050505062001581565b6040518082815260200191505060405180910390f35b8015620007d45760008060009054906101000a900473ffffffffffffffffffffffffffffffffffffffff1673ffffffffffffffffffffffffffffffffffffffff16636f77926b336040518263ffffffff1660e01b8152600401808273ffffffffffffffffffffffffffffffffffffffff1673ffffffffffffffffffffffffffffffffffffffff16815260200191505060206040518083038186803b158015620005e557600080fd5b505afa158015620005fa573d6000803e3d6000fd5b505050506040513d60208110156200061157600080fd5b81019080805190602001909291905050509050600260009054906101000a900473ffffffffffffffffffffffffffffffffffffffff1673ffffffffffffffffffffffffffffffffffffffff1663a652629584336040518363ffffffff1660e01b8152600401808373ffffffffffffffffffffffffffffffffffffffff1673ffffffffffffffffffffffffffffffffffffffff1681526020018273ffffffffffffffffffffffffffffffffffffffff1673ffffffffffffffffffffffffffffffffffffffff1681526020019250505060206040518083038186803b158015620006f857600080fd5b505afa1580156200070d573d6000803e3d6000fd5b505050506040513d60208110156200072457600080fd5b810190808051906020019092919050505073ffffffffffffffffffffffffffffffffffffffff1663cde596b2826040518263ffffffff1660e01b8152600401808273ffffffffffffffffffffffffffffffffffffffff1673ffffffffffffffffffffffffffffffffffffffff168152602001915050600060405180830381600087803b158015620007b457600080fd5b505af1158015620007c9573d6000803e3d6000fd5b5050505050620008c4565b600260009054906101000a900473ffffffffffffffffffffffffffffffffffffffff1673ffffffffffffffffffffffffffffffffffffffff1663365d4ce383336040518363ffffffff1660e01b8152600401808373ffffffffffffffffffffffffffffffffffffffff1673ffffffffffffffffffffffffffffffffffffffff1681526020018273ffffffffffffffffffffffffffffffffffffffff1673ffffffffffffffffffffffffffffffffffffffff16815260200192505050600060405180830381600087803b158015620008aa57600080fd5b505af1158015620008bf573d6000803e3d6000fd5b505050505b5050565b6000600260009054906101000a900473ffffffffffffffffffffffffffffffffffffffff1673ffffffffffffffffffffffffffffffffffffffff1663a652629583336040518363ffffffff1660e01b8152600401808373ffffffffffffffffffffffffffffffffffffffff1673ffffffffffffffffffffffffffffffffffffffff1681526020018273ffffffffffffffffffffffffffffffffffffffff1673ffffffffffffffffffffffffffffffffffffffff1681526020019250505060206040518083038186803b1580156200099e57600080fd5b505afa158015620009b3573d6000803e3d6000fd5b505050506040513d6020811015620009ca57600080fd5b810190808051906020019092919050505073ffffffffffffffffffffffffffffffffffffffff16638db5d0d26040518163ffffffff1660e01b815260040160206040518083038186803b15801562000a2157600080fd5b505afa15801562000a36573d6000803e3d6000fd5b505050506040513d602081101562000a4d57600080fd5b81019080805190602001909291905050509050919050565b600260009054906101000a900473ffffffffffffffffffffffffffffffffffffffff1673ffffffffffffffffffffffffffffffffffffffff1663a652629584336040518363ffffffff1660e01b8152600401808373ffffffffffffffffffffffffffffffffffffffff1673ffffffffffffffffffffffffffffffffffffffff1681526020018273ffffffffffffffffffffffffffffffffffffffff1673ffffffffffffffffffffffffffffffffffffffff1681526020019250505060206040518083038186803b15801562000b3957600080fd5b505afa15801562000b4e573d6000803e3d6000fd5b505050506040513d602081101562000b6557600080fd5b810190808051906020019092919050505073ffffffffffffffffffffffffffffffffffffffff166360f25bd383836000809054906101000a900473ffffffffffffffffffffffffffffffffffffffff16600160009054906101000a900473ffffffffffffffffffffffffffffffffffffffff166040518563ffffffff1660e01b815260040180806020018473ffffffffffffffffffffffffffffffffffffffff1673ffffffffffffffffffffffffffffffffffffffff1681526020018373ffffffffffffffffffffffffffffffffffffffff1673ffffffffffffffffffffffffffffffffffffffff1681526020018281038252868682818152602001925060200280828437600081840152601f19601f82011690508083019250505095505050505050600060405180830381600087803b15801562000ca357600080fd5b505af115801562000cb8573d6000803e3d6000fd5b50505050505050565b600260009054906101000a900473ffffffffffffffffffffffffffffffffffffffff1673ffffffffffffffffffffffffffffffffffffffff1663a652629582336040518363ffffffff1660e01b8152600401808373ffffffffffffffffffffffffffffffffffffffff1673ffffffffffffffffffffffffffffffffffffffff1681526020018273ffffffffffffffffffffffffffffffffffffffff1673ffffffffffffffffffffffffffffffffffffffff1681526020019250505060206040518083038186803b15801562000d9557600080fd5b505afa15801562000daa573d6000803e3d6000fd5b505050506040513d602081101562000dc157600080fd5b810190808051906020019092919050505073ffffffffffffffffffffffffffffffffffffffff1663ae70981f6040518163ffffffff1660e01b8152600401600060405180830381600087803b15801562000e1a57600080fd5b505af115801562000e2f573d6000803e3d6000fd5b5050505050565b600260009054906101000a900473ffffffffffffffffffffffffffffffffffffffff1673ffffffffffffffffffffffffffffffffffffffff1663a652629582336040518363ffffffff1660e01b8152600401808373ffffffffffffffffffffffffffffffffffffffff1673ffffffffffffffffffffffffffffffffffffffff1681526020018273ffffffffffffffffffffffffffffffffffffffff1673ffffffffffffffffffffffffffffffffffffffff1681526020019250505060206040518083038186803b15801562000f0a57600080fd5b505afa15801562000f1f573d6000803e3d6000fd5b505050506040513d602081101562000f3657600080fd5b810190808051906020019092919050505073ffffffffffffffffffffffffffffffffffffffff1663512b84266040518163ffffffff1660e01b8152600401600060405180830381600087803b15801562000f8f57600080fd5b505af115801562000fa4573d6000803e3d6000fd5b5050505050565b600160009054906101000a900473ffffffffffffffffffffffffffffffffffffffff1673ffffffffffffffffffffffffffffffffffffffff1663f90bee5689878a8a6040518563ffffffff1660e01b8152600401808573ffffffffffffffffffffffffffffffffffffffff1673ffffffffffffffffffffffffffffffffffffffff1681526020018473ffffffffffffffffffffffffffffffffffffffff1673ffffffffffffffffffffffffffffffffffffffff16815260200183815260200182815260200194505050505060206040518083038186803b1580156200108f57600080fd5b505afa158015620010a4573d6000803e3d6000fd5b505050506040513d6020811015620010bb57600080fd5b81019080805190602001909291905050506200113f576040517f08c379a000000000000000000000000000000000000000000000000000000000815260040180806020018281038252601f8152602001807f54686973207472616e73616374696f6e20646f6573206e6f742065786973740081525060200191505060405180910390fd5b600260009054906101000a900473ffffffffffffffffffffffffffffffffffffffff1673ffffffffffffffffffffffffffffffffffffffff1663a652629589336040518363ffffffff1660e01b8152600401808373ffffffffffffffffffffffffffffffffffffffff1673ffffffffffffffffffffffffffffffffffffffff1681526020018273ffffffffffffffffffffffffffffffffffffffff1673ffffffffffffffffffffffffffffffffffffffff1681526020019250505060206040518083038186803b1580156200121357600080fd5b505afa15801562001228573d6000803e3d6000fd5b505050506040513d60208110156200123f57600080fd5b810190808051906020019092919050505073ffffffffffffffffffffffffffffffffffffffff166319e5fba0888789888888886040518863ffffffff1660e01b8152600401808881526020018773ffffffffffffffffffffffffffffffffffffffff1673ffffffffffffffffffffffffffffffffffffffff16815260200186815260200180602001806020018381038352878782818152602001925080828437600081840152601f19601f8201169050808301925050508381038252858582818152602001925080828437600081840152601f19601f8201169050808301925050509950505050505050505050600060405180830381600087803b1580156200134757600080fd5b505af11580156200135c573d6000803e3d6000fd5b505050505050505050505050565b600260009054906101000a900473ffffffffffffffffffffffffffffffffffffffff1673ffffffffffffffffffffffffffffffffffffffff1663a652629585336040518363ffffffff1660e01b8152600401808373ffffffffffffffffffffffffffffffffffffffff1673ffffffffffffffffffffffffffffffffffffffff1681526020018273ffffffffffffffffffffffffffffffffffffffff1673ffffffffffffffffffffffffffffffffffffffff1681526020019250505060206040518083038186803b1580156200143e57600080fd5b505afa15801562001453573d6000803e3d6000fd5b505050506040513d60208110156200146a57600080fd5b810190808051906020019092919050505073ffffffffffffffffffffffffffffffffffffffff1663e8d94c00858585856040518563ffffffff1660e01b8152600401808573ffffffffffffffffffffffffffffffffffffffff1673ffffffffffffffffffffffffffffffffffffffff1681526020018473ffffffffffffffffffffffffffffffffffffffff1673ffffffffffffffffffffffffffffffffffffffff168152602001806020018281038252848482818152602001925080828437600081840152601f19601f82011690508083019250505095505050505050600060405180830381600087803b1580156200156257600080fd5b505af115801562001577573d6000803e3d6000fd5b5050505050505050565b60003373ffffffffffffffffffffffffffffffffffffffff168473ffffffffffffffffffffffffffffffffffffffff1614156200160a576040517f08c379a000000000000000000000000000000000000000000000000000000000815260040180806020018281038252602181526020018062005e2b6021913960400191505060405180910390fd5b600260009054906101000a900473ffffffffffffffffffffffffffffffffffffffff1673ffffffffffffffffffffffffffffffffffffffff1663ee030f2a85336040518363ffffffff1660e01b8152600401808373ffffffffffffffffffffffffffffffffffffffff1673ffffffffffffffffffffffffffffffffffffffff1681526020018273ffffffffffffffffffffffffffffffffffffffff1673ffffffffffffffffffffffffffffffffffffffff1681526020019250505060206040518083038186803b158015620016de57600080fd5b505afa158015620016f3573d6000803e3d6000fd5b505050506040513d60208110156200170a57600080fd5b81019080805190602001909291905050501562001773576040517f08c379a000000000000000000000000000000000000000000000000000000000815260040180806020018281038252603081526020018062005dcb6030913960400191505060405180910390fd5b600260009054906101000a900473ffffffffffffffffffffffffffffffffffffffff1673ffffffffffffffffffffffffffffffffffffffff16638db6364f85336040518363ffffffff1660e01b8152600401808373ffffffffffffffffffffffffffffffffffffffff1673ffffffffffffffffffffffffffffffffffffffff1681526020018273ffffffffffffffffffffffffffffffffffffffff1673ffffffffffffffffffffffffffffffffffffffff1681526020019250505060206040518083038186803b1580156200184757600080fd5b505afa1580156200185c573d6000803e3d6000fd5b505050506040513d60208110156200187357600080fd5b810190808051906020019092919050505015620018dc576040517f08c379a000000000000000000000000000000000000000000000000000000000815260040180806020018281038252603081526020018062005dfb6030913960400191505060405180910390fd5b60008060009054906101000a900473ffffffffffffffffffffffffffffffffffffffff1673ffffffffffffffffffffffffffffffffffffffff16636f77926b866040518263ffffffff1660e01b8152600401808273ffffffffffffffffffffffffffffffffffffffff1673ffffffffffffffffffffffffffffffffffffffff16815260200191505060206040518083038186803b1580156200197d57600080fd5b505afa15801562001992573d6000803e3d6000fd5b505050506040513d6020811015620019a957600080fd5b810190808051906020019092919050505073ffffffffffffffffffffffffffffffffffffffff1663b69ef8a86040518163ffffffff1660e01b815260040160206040518083038186803b15801562001a0057600080fd5b505afa15801562001a15573d6000803e3d6000fd5b505050506040513d602081101562001a2c57600080fd5b8101908080519060200190929190505050905060006014828162001a4c57fe5b0490506000863387878560405162001a649062001c56565b808673ffffffffffffffffffffffffffffffffffffffff1673ffffffffffffffffffffffffffffffffffffffff1681526020018573ffffffffffffffffffffffffffffffffffffffff1673ffffffffffffffffffffffffffffffffffffffff168152602001806020018381526020018281038252858582818152602001925080828437600081840152601f19601f8201169050808301925050509650505050505050604051809103906000f08015801562001b23573d6000803e3d6000fd5b509050600260009054906101000a900473ffffffffffffffffffffffffffffffffffffffff1673ffffffffffffffffffffffffffffffffffffffff16638af10ea78833846040518463ffffffff1660e01b8152600401808473ffffffffffffffffffffffffffffffffffffffff1673ffffffffffffffffffffffffffffffffffffffff1681526020018373ffffffffffffffffffffffffffffffffffffffff1673ffffffffffffffffffffffffffffffffffffffff1681526020018273ffffffffffffffffffffffffffffffffffffffff1673ffffffffffffffffffffffffffffffffffffffff1681526020019350505050600060405180830381600087803b15801562001c3057600080fd5b505af115801562001c45573d6000803e3d6000fd5b505050508193505050509392505050565b6141668062001c658339019056fe60806040526000600460006101000a81548173ffffffffffffffffffffffffffffffffffffffff021916908373ffffffffffffffffffffffffffffffffffffffff1602179055506000600960006101000a81548160ff021916908360ff1602179055506000600960016101000a81548160ff0219169083151502179055503480156200008a57600080fd5b50604051620041663803806200416683398101806040526080811015620000b057600080fd5b8101908080519060200190929190805190602001909291908051640100000000811115620000dd57600080fd5b82810190506020810184811115620000f457600080fd5b81518560018202830111640100000000821117156200011257600080fd5b50509291906020018051906020019092919050505083600560006101000a81548173ffffffffffffffffffffffffffffffffffffffff021916908373ffffffffffffffffffffffffffffffffffffffff16021790555082600660006101000a81548173ffffffffffffffffffffffffffffffffffffffff021916908373ffffffffffffffffffffffffffffffffffffffff1602179055508160079080519060200190620001c1929190620001d3565b50806008819055505050505062000282565b828054600181600116156101000203166002900490600052602060002090601f016020900481019282601f106200021657805160ff191683800117855562000247565b8280016001018555821562000247579182015b828111156200024657825182559160200191906001019062000229565b5b5090506200025691906200025a565b5090565b6200027f91905b808211156200027b57600081600090555060010162000261565b5090565b90565b613ed480620002926000396000f3fe60806040523480156200001157600080fd5b5060043610620000c45760003560e01c8063cdd72253116200007b578063cdd722531462000361578063cde596b214620003c4578063e628c2e0146200040b578063e8d94c0014620004dd578063f91ac899146200059c578063fa041dd714620006d857620000c4565b80630d2cea2c14620000c957806319e5fba01462000133578063512b8426146200023e57806360f25bd3146200024a5780638db5d0d21462000309578063ae70981f1462000355575b600080fd5b6200010e60048036036020811015620000e157600080fd5b81019080803573ffffffffffffffffffffffffffffffffffffffff1690602001909291905050506200072b565b6040518083151515158152602001821515151581526020019250505060405180910390f35b6200023c600480360360a08110156200014b57600080fd5b8101908080359060200190929190803573ffffffffffffffffffffffffffffffffffffffff16906020019092919080359060200190929190803590602001906401000000008111156200019d57600080fd5b820183602082011115620001b057600080fd5b80359060200191846001830284011164010000000083111715620001d357600080fd5b909192939192939080359060200190640100000000811115620001f557600080fd5b8201836020820111156200020857600080fd5b803590602001918460018302840111640100000000831117156200022b57600080fd5b909192939192939050505062000c45565b005b6200024862000dc7565b005b62000307600480360360608110156200026257600080fd5b81019080803590602001906401000000008111156200028057600080fd5b8201836020820111156200029357600080fd5b80359060200191846020830284011164010000000083111715620002b657600080fd5b9091929391929390803573ffffffffffffffffffffffffffffffffffffffff169060200190929190803573ffffffffffffffffffffffffffffffffffffffff169060200190929190505050620010b2565b005b6200031362001901565b604051808273ffffffffffffffffffffffffffffffffffffffff1673ffffffffffffffffffffffffffffffffffffffff16815260200191505060405180910390f35b6200035f620019d4565b005b6200036b62001d29565b6040518080602001828103825283818151815260200191508051906020019060200280838360005b83811015620003b057808201518184015260208101905062000393565b505050509050019250505060405180910390f35b6200040960048036036020811015620003dc57600080fd5b81019080803573ffffffffffffffffffffffffffffffffffffffff16906020019092919050505062001e19565b005b6200045a600480360360408110156200042357600080fd5b81019080803573ffffffffffffffffffffffffffffffffffffffff1690602001909291908035906020019092919050505062001f86565b604051808581526020018481526020018373ffffffffffffffffffffffffffffffffffffffff1673ffffffffffffffffffffffffffffffffffffffff1681526020018273ffffffffffffffffffffffffffffffffffffffff1673ffffffffffffffffffffffffffffffffffffffff16815260200194505050505060405180910390f35b6200059a60048036036060811015620004f557600080fd5b81019080803573ffffffffffffffffffffffffffffffffffffffff169060200190929190803573ffffffffffffffffffffffffffffffffffffffff169060200190929190803590602001906401000000008111156200055357600080fd5b8201836020820111156200056657600080fd5b803590602001918460018302840111640100000000831117156200058957600080fd5b9091929391929390505050620020b2565b005b620005eb60048036036040811015620005b457600080fd5b81019080803573ffffffffffffffffffffffffffffffffffffffff16906020019092919080359060200190929190505050620024a4565b604051808060200180602001838103835285818151815260200191508051906020019080838360005b838110156200063157808201518184015260208101905062000614565b50505050905090810190601f1680156200065f5780820380516001836020036101000a031916815260200191505b50838103825284818151815260200191508051906020019080838360005b838110156200069a5780820151818401526020810190506200067d565b50505050905090810190601f168015620006c85780820380516001836020036101000a031916815260200191505b5094505050505060405180910390f35b6200072960048036036040811015620006f057600080fd5b81019080803573ffffffffffffffffffffffffffffffffffffffff16906020019092919080351515906020019092919050505062002654565b005b6000806200073862002765565b60008062000745620029ba565b91509150600060428284606402816200075a57fe5b04101590506000603c8385606402816200077057fe5b041015905060008090505b600173__Set___________________________________63674a64ec90916040518263ffffffff1660e01b81526004018082815260200191505060206040518083038186803b158015620007ce57600080fd5b505af4158015620007e3573d6000803e3d6000fd5b505050506040513d6020811015620007fa57600080fd5b810190808051906020019092919050505081101562000c35576000806000600173__Set___________________________________63df763a9d9091866040518363ffffffff1660e01b8152600401808381526020018281526020019250505060206040518083038186803b1580156200087357600080fd5b505af415801562000888573d6000803e3d6000fd5b505050506040513d60208110156200089f57600080fd5b810190808051906020019092919050505073ffffffffffffffffffffffffffffffffffffffff1673ffffffffffffffffffffffffffffffffffffffff16815260200190815260200160002060009054906101000a900473ffffffffffffffffffffffffffffffffffffffff1690508073ffffffffffffffffffffffffffffffffffffffff16632f2a18ff6040518163ffffffff1660e01b815260040160206040518083038186803b1580156200095457600080fd5b505afa15801562000969573d6000803e3d6000fd5b505050506040513d60208110156200098057600080fd5b81019080805190602001909291905050501562000c2657600085600260085481620009a757fe5b0481620009b057fe5b0490508415158273ffffffffffffffffffffffffffffffffffffffff166319900a806040518163ffffffff1660e01b815260040160206040518083038186803b158015620009fd57600080fd5b505afa15801562000a12573d6000803e3d6000fd5b505050506040513d602081101562000a2957600080fd5b81019080805190602001909291905050501515141562000a60578660026008548162000a5157fe5b048162000a5a57fe5b04810190505b60008a73ffffffffffffffffffffffffffffffffffffffff16636f77926b600173__Set___________________________________63df763a9d9091886040518363ffffffff1660e01b8152600401808381526020018281526020019250505060206040518083038186803b15801562000ad957600080fd5b505af415801562000aee573d6000803e3d6000fd5b505050506040513d602081101562000b0557600080fd5b81019080805190602001909291905050506040518263ffffffff1660e01b8152600401808273ffffffffffffffffffffffffffffffffffffffff1673ffffffffffffffffffffffffffffffffffffffff16815260200191505060206040518083038186803b15801562000b7757600080fd5b505afa15801562000b8c573d6000803e3d6000fd5b505050506040513d602081101562000ba357600080fd5b810190808051906020019092919050505090508073ffffffffffffffffffffffffffffffffffffffff16633e4ccb40836040518263ffffffff1660e01b815260040180828152602001915050600060405180830381600087803b15801562000c0a57600080fd5b505af115801562000c1f573d6000803e3d6000fd5b5050505050505b5080806001019150506200077b565b5081819550955050505050915091565b62000c4f62002765565b6000808773ffffffffffffffffffffffffffffffffffffffff1673ffffffffffffffffffffffffffffffffffffffff16815260200190815260200160002060009054906101000a900473ffffffffffffffffffffffffffffffffffffffff1673ffffffffffffffffffffffffffffffffffffffff166319e5fba0888888888888886040518863ffffffff1660e01b8152600401808881526020018773ffffffffffffffffffffffffffffffffffffffff1673ffffffffffffffffffffffffffffffffffffffff16815260200186815260200180602001806020018381038352878782818152602001925080828437600081840152601f19601f8201169050808301925050508381038252858582818152602001925080828437600081840152601f19601f8201169050808301925050509950505050505050505050600060405180830381600087803b15801562000da557600080fd5b505af115801562000dba573d6000803e3d6000fd5b5050505050505050505050565b60011515600960019054906101000a900460ff1615151462000e35576040517f08c379a000000000000000000000000000000000000000000000000000000000815260040180806020018281038252602781526020018062003e2d6027913960400191505060405180910390fd5b6000600173__Set___________________________________63674a64ec90916040518263ffffffff1660e01b81526004018082815260200191505060206040518083038186803b15801562000e8a57600080fd5b505af415801562000e9f573d6000803e3d6000fd5b505050506040513d602081101562000eb657600080fd5b81019080805190602001909291905050501162000f1f576040517f08c379a000000000000000000000000000000000000000000000000000000000815260040180806020018281038252603781526020018062003dcb6037913960400191505060405180910390fd5b600073ffffffffffffffffffffffffffffffffffffffff16600460009054906101000a900473ffffffffffffffffffffffffffffffffffffffff1673ffffffffffffffffffffffffffffffffffffffff16141562000fc9576040517f08c379a000000000000000000000000000000000000000000000000000000000815260040180806020018281038252602b81526020018062003e02602b913960400191505060405180910390fd5b600173__Set___________________________________635df0a15c9091600460009054906101000a900473ffffffffffffffffffffffffffffffffffffffff166040518363ffffffff1660e01b8152600401808381526020018273ffffffffffffffffffffffffffffffffffffffff1673ffffffffffffffffffffffffffffffffffffffff1681526020019250505060206040518083038186803b1580156200107257600080fd5b505af415801562001087573d6000803e3d6000fd5b505050506040513d60208110156200109e57600080fd5b810190808051906020019092919050505050565b60008090505b848490508110156200138457848482818110620010d157fe5b9050602002013573ffffffffffffffffffffffffffffffffffffffff1673ffffffffffffffffffffffffffffffffffffffff16600660009054906101000a900473ffffffffffffffffffffffffffffffffffffffff1673ffffffffffffffffffffffffffffffffffffffff1614620013765760008273ffffffffffffffffffffffffffffffffffffffff166314ee741f600560009054906101000a900473ffffffffffffffffffffffffffffffffffffffff168888868181106200119157fe5b9050602002013573ffffffffffffffffffffffffffffffffffffffff166040518363ffffffff1660e01b8152600401808373ffffffffffffffffffffffffffffffffffffffff1673ffffffffffffffffffffffffffffffffffffffff1681526020018273ffffffffffffffffffffffffffffffffffffffff1673ffffffffffffffffffffffffffffffffffffffff1681526020019250505060206040518083038186803b1580156200124257600080fd5b505afa15801562001257573d6000803e3d6000fd5b505050506040513d60208110156200126e57600080fd5b810190808051906020019092919050505011156200137557600173__Set___________________________________635df0a15c9091878785818110620012b157fe5b9050602002013573ffffffffffffffffffffffffffffffffffffffff166040518363ffffffff1660e01b8152600401808381526020018273ffffffffffffffffffffffffffffffffffffffff1673ffffffffffffffffffffffffffffffffffffffff1681526020019250505060206040518083038186803b1580156200133657600080fd5b505af41580156200134b573d6000803e3d6000fd5b505050506040513d60208110156200136257600080fd5b8101908080519060200190929190505050505b5b8080600101915050620010b8565b506003600173__Set___________________________________63674a64ec90916040518263ffffffff1660e01b81526004018082815260200191505060206040518083038186803b158015620013da57600080fd5b505af4158015620013ef573d6000803e3d6000fd5b505050506040513d60208110156200140657600080fd5b810190808051906020019092919050505010156200148c576040517f08c379a000000000000000000000000000000000000000000000000000000000815260040180806020018281038252601f8152602001807f496e76616c6964204e756d626572206f66207472616465506172746e6572730081525060200191505060405180910390fd5b60608273ffffffffffffffffffffffffffffffffffffffff1663a39fac126040518163ffffffff1660e01b815260040160006040518083038186803b158015620014d557600080fd5b505afa158015620014ea573d6000803e3d6000fd5b505050506040513d6000823e3d601f19601f8201168201806040525060208110156200151557600080fd5b8101908080516401000000008111156200152e57600080fd5b828101905060208101848111156200154557600080fd5b81518560208202830111640100000000821117156200156357600080fd5b5050929190505050905060008090505b81518110156200187d578181815181106200158a57fe5b602002602001015173ffffffffffffffffffffffffffffffffffffffff16600660009054906101000a900473ffffffffffffffffffffffffffffffffffffffff1673ffffffffffffffffffffffffffffffffffffffff16146200186f5760008373ffffffffffffffffffffffffffffffffffffffff166314ee741f600560009054906101000a900473ffffffffffffffffffffffffffffffffffffffff168585815181106200163557fe5b60200260200101516040518363ffffffff1660e01b8152600401808373ffffffffffffffffffffffffffffffffffffffff1673ffffffffffffffffffffffffffffffffffffffff1681526020018273ffffffffffffffffffffffffffffffffffffffff1673ffffffffffffffffffffffffffffffffffffffff1681526020019250505060206040518083038186803b158015620016d157600080fd5b505afa158015620016e6573d6000803e3d6000fd5b505050506040513d6020811015620016fd57600080fd5b810190808051906020019092919050505011156200186e57600173__Set___________________________________63fe6949e390918484815181106200174057fe5b60200260200101516040518363ffffffff1660e01b8152600401808381526020018273ffffffffffffffffffffffffffffffffffffffff1673ffffffffffffffffffffffffffffffffffffffff1681526020019250505060206040518083038186803b158015620017b057600080fd5b505af4158015620017c5573d6000803e3d6000fd5b505050506040513d6020811015620017dc57600080fd5b81019080805190602001909291905050506200186d5760038282815181106200180157fe5b602002602001015190806001815401808255809150509060018203906000526020600020016000909192909190916101000a81548173ffffffffffffffffffffffffffffffffffffffff021916908373ffffffffffffffffffffffffffffffffffffffff160217905550505b5b5b808060010191505062001573565b50600380805490501015620018fa576040517f08c379a00000000000000000000000000000000000000000000000000000000081526004018080602001828103825260208152602001807f496e76616c6964204e756d626572206f6620686176655472616465645769746881525060200191505060405180910390fd5b5050505050565b60008073ffffffffffffffffffffffffffffffffffffffff16600460009054906101000a900473ffffffffffffffffffffffffffffffffffffffff1673ffffffffffffffffffffffffffffffffffffffff161415620019ac576040517f08c379a000000000000000000000000000000000000000000000000000000000815260040180806020018281038252602c81526020018062003e7d602c913960400191505060405180910390fd5b600460009054906101000a900473ffffffffffffffffffffffffffffffffffffffff16905090565b60011515600960019054906101000a900460ff1615151462001a42576040517f08c379a000000000000000000000000000000000000000000000000000000000815260040180806020018281038252602781526020018062003e2d6027913960400191505060405180910390fd5b6000600173__Set___________________________________63674a64ec90916040518263ffffffff1660e01b81526004018082815260200191505060206040518083038186803b15801562001a9757600080fd5b505af415801562001aac573d6000803e3d6000fd5b505050506040513d602081101562001ac357600080fd5b81019080805190602001909291905050501162001b2c576040517f08c379a000000000000000000000000000000000000000000000000000000000815260040180806020018281038252603781526020018062003dcb6037913960400191505060405180910390fd5b600062001b61600460009054906101000a900473ffffffffffffffffffffffffffffffffffffffff1660038054905062002ca1565b60ff1690505b600173__Set___________________________________63fe6949e390916003848154811062001b9357fe5b9060005260206000200160009054906101000a900473ffffffffffffffffffffffffffffffffffffffff166040518363ffffffff1660e01b8152600401808381526020018273ffffffffffffffffffffffffffffffffffffffff1673ffffffffffffffffffffffffffffffffffffffff1681526020019250505060206040518083038186803b15801562001c2657600080fd5b505af415801562001c3b573d6000803e3d6000fd5b505050506040513d602081101562001c5257600080fd5b81019080805190602001909291905050501562001cad5760005a905062001ca1600460009054906101000a900473ffffffffffffffffffffffffffffffffffffffff1660038054905062002ca1565b60ff1691505062001b67565b6003818154811062001cbb57fe5b9060005260206000200160009054906101000a900473ffffffffffffffffffffffffffffffffffffffff16600460006101000a81548173ffffffffffffffffffffffffffffffffffffffff021916908373ffffffffffffffffffffffffffffffffffffffff16021790555050565b6060600173__Set___________________________________633d597e6c90916040518263ffffffff1660e01b81526004018082815260200191505060006040518083038186803b15801562001d7e57600080fd5b505af415801562001d93573d6000803e3d6000fd5b505050506040513d6000823e3d601f19601f82011682018060405250602081101562001dbe57600080fd5b81019080805164010000000081111562001dd757600080fd5b8281019050602081018481111562001dee57600080fd5b815185602082028301116401000000008211171562001e0c57600080fd5b5050929190505050905090565b6008548173ffffffffffffffffffffffffffffffffffffffff1663b69ef8a86040518163ffffffff1660e01b815260040160206040518083038186803b15801562001e6357600080fd5b505afa15801562001e78573d6000803e3d6000fd5b505050506040513d602081101562001e8f57600080fd5b8101908080519060200190929190505050101562001ef9576040517f08c379a000000000000000000000000000000000000000000000000000000000815260040180806020018281038252602281526020018062003da96022913960400191505060405180910390fd5b8073ffffffffffffffffffffffffffffffffffffffff1663392aee436008546040518263ffffffff1660e01b815260040180828152602001915050600060405180830381600087803b15801562001f4f57600080fd5b505af115801562001f64573d6000803e3d6000fd5b505050506001600960016101000a81548160ff02191690831515021790555050565b60008060008062001f9662002765565b6000808773ffffffffffffffffffffffffffffffffffffffff1673ffffffffffffffffffffffffffffffffffffffff16815260200190815260200160002060009054906101000a900473ffffffffffffffffffffffffffffffffffffffff1673ffffffffffffffffffffffffffffffffffffffff16634ba569a4866040518263ffffffff1660e01b81526004018082815260200191505060806040518083038186803b1580156200204657600080fd5b505afa1580156200205b573d6000803e3d6000fd5b505050506040513d60808110156200207257600080fd5b8101908080519060200190929190805190602001909291908051906020019092919080519060200190929190505050935093509350935092959194509250565b60011515600960019054906101000a900460ff1615151462002120576040517f08c379a000000000000000000000000000000000000000000000000000000000815260040180806020018281038252602781526020018062003e2d6027913960400191505060405180910390fd5b6000600173__Set___________________________________63674a64ec90916040518263ffffffff1660e01b81526004018082815260200191505060206040518083038186803b1580156200217557600080fd5b505af41580156200218a573d6000803e3d6000fd5b505050506040513d6020811015620021a157600080fd5b8101908080519060200190929190505050116200220a576040517f08c379a000000000000000000000000000000000000000000000000000000000815260040180806020018281038252603781526020018062003dcb6037913960400191505060405180910390fd5b600173__Set___________________________________63fe6949e39091856040518363ffffffff1660e01b8152600401808381526020018273ffffffffffffffffffffffffffffffffffffffff1673ffffffffffffffffffffffffffffffffffffffff1681526020019250505060206040518083038186803b1580156200229157600080fd5b505af4158015620022a6573d6000803e3d6000fd5b505050506040513d6020811015620022bd57600080fd5b810190808051906020019092919050505062002325576040517f08c379a000000000000000000000000000000000000000000000000000000000815260040180806020018281038252602981526020018062003e546029913960400191505060405180910390fd5b83838383604051620023379062002d1e565b808573ffffffffffffffffffffffffffffffffffffffff1673ffffffffffffffffffffffffffffffffffffffff1681526020018473ffffffffffffffffffffffffffffffffffffffff1673ffffffffffffffffffffffffffffffffffffffff168152602001806020018281038252848482818152602001925080828437600081840152601f19601f82011690508083019250505095505050505050604051809103906000f080158015620023ef573d6000803e3d6000fd5b506000808573ffffffffffffffffffffffffffffffffffffffff1673ffffffffffffffffffffffffffffffffffffffff16815260200190815260200160002060006101000a81548173ffffffffffffffffffffffffffffffffffffffff021916908373ffffffffffffffffffffffffffffffffffffffff1602179055506009600081819054906101000a900460ff168092919060010191906101000a81548160ff021916908360ff1602179055505050505050565b606080620024b162002765565b6000808573ffffffffffffffffffffffffffffffffffffffff1673ffffffffffffffffffffffffffffffffffffffff16815260200190815260200160002060009054906101000a900473ffffffffffffffffffffffffffffffffffffffff1673ffffffffffffffffffffffffffffffffffffffff16637bd1eb3c846040518263ffffffff1660e01b81526004018082815260200191505060006040518083038186803b1580156200256157600080fd5b505afa15801562002576573d6000803e3d6000fd5b505050506040513d6000823e3d601f19601f820116820180604052506040811015620025a157600080fd5b810190808051640100000000811115620025ba57600080fd5b82810190506020810184811115620025d157600080fd5b8151856001820283011164010000000082111715620025ef57600080fd5b505092919060200180516401000000008111156200260c57600080fd5b828101905060208101848111156200262357600080fd5b81518560018202830111640100000000821117156200264157600080fd5b5050929190505050915091509250929050565b6200265e62002765565b6000808373ffffffffffffffffffffffffffffffffffffffff1673ffffffffffffffffffffffffffffffffffffffff16815260200190815260200160002060009054906101000a900473ffffffffffffffffffffffffffffffffffffffff1673ffffffffffffffffffffffffffffffffffffffff1663fa041dd783836040518363ffffffff1660e01b8152600401808373ffffffffffffffffffffffffffffffffffffffff1673ffffffffffffffffffffffffffffffffffffffff1681526020018215151515815260200192505050600060405180830381600087803b1580156200274857600080fd5b505af11580156200275d573d6000803e3d6000fd5b505050505050565b60011515600960019054906101000a900460ff16151514620027d3576040517f08c379a000000000000000000000000000000000000000000000000000000000815260040180806020018281038252602781526020018062003e2d6027913960400191505060405180910390fd5b6000600173__Set___________________________________63674a64ec90916040518263ffffffff1660e01b81526004018082815260200191505060206040518083038186803b1580156200282857600080fd5b505af41580156200283d573d6000803e3d6000fd5b505050506040513d60208110156200285457600080fd5b810190808051906020019092919050505011620028bd576040517f08c379a000000000000000000000000000000000000000000000000000000000815260040180806020018281038252603781526020018062003dcb6037913960400191505060405180910390fd5b600173__Set___________________________________63674a64ec90916040518263ffffffff1660e01b81526004018082815260200191505060206040518083038186803b1580156200291057600080fd5b505af415801562002925573d6000803e3d6000fd5b505050506040513d60208110156200293c57600080fd5b8101908080519060200190929190505050600960009054906101000a900460ff1660ff1614620029b8576040517f08c379a000000000000000000000000000000000000000000000000000000000815260040180806020018281038252602581526020018062003d846025913960400191505060405180910390fd5b565b6000806000809050600080905060008090505b600173__Set___________________________________63674a64ec90916040518263ffffffff1660e01b81526004018082815260200191505060206040518083038186803b15801562002a2057600080fd5b505af415801562002a35573d6000803e3d6000fd5b505050506040513d602081101562002a4c57600080fd5b810190808051906020019092919050505081101562002c94576000806000600173__Set___________________________________63df763a9d9091866040518363ffffffff1660e01b8152600401808381526020018281526020019250505060206040518083038186803b15801562002ac557600080fd5b505af415801562002ada573d6000803e3d6000fd5b505050506040513d602081101562002af157600080fd5b810190808051906020019092919050505073ffffffffffffffffffffffffffffffffffffffff1673ffffffffffffffffffffffffffffffffffffffff16815260200190815260200160002060009054906101000a900473ffffffffffffffffffffffffffffffffffffffff1690508073ffffffffffffffffffffffffffffffffffffffff16632f2a18ff6040518163ffffffff1660e01b815260040160206040518083038186803b15801562002ba657600080fd5b505afa15801562002bbb573d6000803e3d6000fd5b505050506040513d602081101562002bd257600080fd5b81019080805190602001909291905050501562002bf25783806001019450505b8073ffffffffffffffffffffffffffffffffffffffff166319900a806040518163ffffffff1660e01b815260040160206040518083038186803b15801562002c3957600080fd5b505afa15801562002c4e573d6000803e3d6000fd5b505050506040513d602081101562002c6557600080fd5b81019080805190602001909291905050501562002c855782806001019350505b508080600101915050620029cd565b5080829350935050509091565b600081424485604051602001808481526020018381526020018273ffffffffffffffffffffffffffffffffffffffff1673ffffffffffffffffffffffffffffffffffffffff1660601b815260140193505050506040516020818303038152906040528051906020012060001c8162002d1557fe5b06905092915050565b6110578062002d2d8339019056fe60806040523480156200001157600080fd5b506040516200105738038062001057833981018060405260608110156200003757600080fd5b81019080805190602001909291908051906020019092919080516401000000008111156200006457600080fd5b828101905060208101848111156200007b57600080fd5b81518560018202830111640100000000821117156200009957600080fd5b505092919050505081600360006101000a81548173ffffffffffffffffffffffffffffffffffffffff021916908373ffffffffffffffffffffffffffffffffffffffff16021790555082600260006101000a81548173ffffffffffffffffffffffffffffffffffffffff021916908373ffffffffffffffffffffffffffffffffffffffff1602179055506000600360146101000a81548160ff02191690831515021790555060016000806101000a81548160ff0219169083151502179055506000600360156101000a81548160ff02191690831515021790555080600190805190602001906200018b92919062000195565b5050505062000244565b828054600181600116156101000203166002900490600052602060002090601f016020900481019282601f10620001d857805160ff191683800117855562000209565b8280016001018555821562000209579182015b8281111562000208578251825591602001919060010190620001eb565b5b5090506200021891906200021c565b5090565b6200024191905b808211156200023d57600081600090555060010162000223565b5090565b90565b610e0380620002546000396000f3fe608060405234801561001057600080fd5b506004361061007d5760003560e01c80632f2a18ff1161005b5780632f2a18ff146101c85780634ba569a4146101ea5780637bd1eb3c14610299578063fa041dd7146103ac5761007d565b806319900a801461008257806319e5fba0146100a4578063267c4ae4146101a6575b600080fd5b61008a6103fc565b604051808215151515815260200191505060405180910390f35b6101a4600480360360a08110156100ba57600080fd5b8101908080359060200190929190803573ffffffffffffffffffffffffffffffffffffffff169060200190929190803590602001909291908035906020019064010000000081111561010b57600080fd5b82018360208201111561011d57600080fd5b8035906020019184600183028401116401000000008311171561013f57600080fd5b90919293919293908035906020019064010000000081111561016057600080fd5b82018360208201111561017257600080fd5b8035906020019184600183028401116401000000008311171561019457600080fd5b9091929391929390505050610442565b005b6101ae6106e2565b604051808215151515815260200191505060405180910390f35b6101d06106f4565b604051808215151515815260200191505060405180910390f35b6102166004803603602081101561020057600080fd5b8101908080359060200190929190505050610722565b604051808581526020018481526020018373ffffffffffffffffffffffffffffffffffffffff1673ffffffffffffffffffffffffffffffffffffffff1681526020018273ffffffffffffffffffffffffffffffffffffffff1673ffffffffffffffffffffffffffffffffffffffff16815260200194505050505060405180910390f35b6102c5600480360360208110156102af57600080fd5b8101908080359060200190929190505050610851565b604051808060200180602001838103835285818151815260200191508051906020019080838360005b838110156103095780820151818401526020810190506102ee565b50505050905090810190601f1680156103365780820380516001836020036101000a031916815260200191505b50838103825284818151815260200191508051906020019080838360005b8381101561036f578082015181840152602081019050610354565b50505050905090810190601f16801561039c5780820380516001836020036101000a031916815260200191505b5094505050505060405180910390f35b6103fa600480360360408110156103c257600080fd5b81019080803573ffffffffffffffffffffffffffffffffffffffff169060200190929190803515159060200190929190505050610a2f565b005b60008060009054906101000a900460ff1680156104255750600360159054906101000a900460ff165b801561043d5750600360149054906101000a900460ff165b905090565b600115156000809054906101000a900460ff161515146104ca576040517f08c379a00000000000000000000000000000000000000000000000000000000081526004018080602001828103825260198152602001807f5468697320766f74657220646f6573206e6f742065786973740000000000000081525060200191505060405180910390fd5b60046040518060c0016040528086868080601f016020809104026020016040519081016040528093929190818152602001838380828437600081840152601f19601f82011690508083019250505050505050815260200184848080601f016020809104026020016040519081016040528093929190818152602001838380828437600081840152601f19601f820116905080830192505050505050508152602001600260009054906101000a900473ffffffffffffffffffffffffffffffffffffffff1673ffffffffffffffffffffffffffffffffffffffff1681526020018873ffffffffffffffffffffffffffffffffffffffff16815260200189815260200187815250908060018154018082558091505090600182039060005260206000209060060201600090919290919091506000820151816000019080519060200190610616929190610d0e565b506020820151816001019080519060200190610633929190610d0e565b5060408201518160020160006101000a81548173ffffffffffffffffffffffffffffffffffffffff021916908373ffffffffffffffffffffffffffffffffffffffff16021790555060608201518160030160006101000a81548173ffffffffffffffffffffffffffffffffffffffff021916908373ffffffffffffffffffffffffffffffffffffffff1602179055506080820151816004015560a0820151816005015550505050505050505050565b6000809054906101000a900460ff1681565b60008060009054906101000a900460ff16801561071d5750600360159054906101000a900460ff165b905090565b600080600080600060048054905011610786576040517f08c379a0000000000000000000000000000000000000000000000000000000008152600401808060200182810382526024815260200180610db46024913960400191505060405180910390fd5b6004858154811061079357fe5b906000526020600020906006020160040154600486815481106107b257fe5b906000526020600020906006020160050154600487815481106107d157fe5b906000526020600020906006020160020160009054906101000a900473ffffffffffffffffffffffffffffffffffffffff166004888154811061081057fe5b906000526020600020906006020160030160009054906101000a900473ffffffffffffffffffffffffffffffffffffffff1693509350935093509193509193565b6060806000600480549050116108b2576040517f08c379a0000000000000000000000000000000000000000000000000000000008152600401808060200182810382526024815260200180610db46024913960400191505060405180910390fd5b600483815481106108bf57fe5b9060005260206000209060060201600001600484815481106108dd57fe5b9060005260206000209060060201600101818054600181600116156101000203166002900480601f0160208091040260200160405190810160405280929190818152602001828054600181600116156101000203166002900480156109835780601f1061095857610100808354040283529160200191610983565b820191906000526020600020905b81548152906001019060200180831161096657829003601f168201915b50505050509150808054600181600116156101000203166002900480601f016020809104026020016040519081016040528092919081815260200182805460018160011615610100020316600290048015610a1f5780601f106109f457610100808354040283529160200191610a1f565b820191906000526020600020905b815481529060010190602001808311610a0257829003601f168201915b5050505050905091509150915091565b600115156000809054906101000a900460ff16151514610ab7576040517f08c379a00000000000000000000000000000000000000000000000000000000081526004018080602001828103825260198152602001807f5468697320766f74657220646f6573206e6f742065786973740000000000000081525060200191505060405180910390fd5b8173ffffffffffffffffffffffffffffffffffffffff16600360009054906101000a900473ffffffffffffffffffffffffffffffffffffffff1673ffffffffffffffffffffffffffffffffffffffff1614610b7a576040517f08c379a00000000000000000000000000000000000000000000000000000000081526004018080602001828103825260198152602001807f53656e742066726f6d207468652077726f6e6720766f7465720000000000000081525060200191505060405180910390fd5b600060048054905011610bd8576040517f08c379a0000000000000000000000000000000000000000000000000000000008152600401808060200182810382526024815260200180610db46024913960400191505060405180910390fd5b60001515600360159054906101000a900460ff16151514610c61576040517f08c379a000000000000000000000000000000000000000000000000000000000815260040180806020018281038252600d8152602001807f416c726561647920566f7465640000000000000000000000000000000000000081525060200191505060405180910390fd5b80600360146101000a81548160ff0219169083151502179055506001600360156101000a81548160ff021916908315150217905550600360009054906101000a900473ffffffffffffffffffffffffffffffffffffffff1673ffffffffffffffffffffffffffffffffffffffff167fa635d31e67484fd1d93ba01ab0ef882e4440a78aa40d0e2771e8a2aace45986982604051808215151515815260200191505060405180910390a25050565b828054600181600116156101000203166002900490600052602060002090601f016020900481019282601f10610d4f57805160ff1916838001178555610d7d565b82800160010185558215610d7d579182015b82811115610d7c578251825591602001919060010190610d61565b5b509050610d8a9190610d8e565b5090565b610db091905b80821115610dac576000816000905550600101610d94565b5090565b9056fe5468657265206973206e6f207472616e73616374696f6e206461746120746f2076696577a165627a7a723058206780c5a1c3d0347a26068a089120791d9ca5556938e60c50740bbcece8e5d58e002948617665206e6f74206372656174656420616c6c2074686520566f74696e67546f6b656e734e6f7420456e6f7567682066756e647320666f7220746869732050726f706f73616c547261646520706172746e6572732068617665206e6f74206265656e20616464656420746f2074686973207965742070726f706f73616c4861766520746f2066696e6420612072616e646f6d2074726164696e6720706172746e6572206669727374546869732070726f706f73616c20686173206e6f74206265656e207061696420666f7220796574496e76616c696420566f7465722e2043616e206e6f74206d616b65206120566f74696e67546f6b656e596f752068617665206e6f7420666f756e6420612072616e646f6d207472616520706172746e657220796574a165627a7a723058200153223db9a2463c56c6aa22b32dc868601cb865c9ed1711058652fc23f3d00e0029546865726520616c72656164792065786973747320612050726f706f73616c20666f722074686973206163636f756e74596f75206861766520616c7265616479206661696c6564206120766f746520666f722074686973207265636f76657279416e206163636f756e742063616e206e6f74207265636f76657220697473656c66a165627a7a723058208ca5a60d6c8eb3dbd1e4a40cc4df313de1fbc3bea62ced7d0b0117442b3663a50029",
  "source": "/* ProposalCreator.sol */\r\n\r\npragma solidity >=0.4.0 <0.7.0;\r\n\r\nimport \"../contracts/UserManager.sol\";\r\nimport \"../contracts/TransactionManager.sol\";\r\nimport \"../contracts/ProposalManager.sol\";\r\n\r\nimport \"../contracts/Proposal.sol\";\r\n\r\n/* <Summary> \r\n\tThis contract manages all active proposal as well as makes and concludes proposals.\r\n*/\r\n\r\ncontract ProposalCreator {\r\n\r\n\tUserManager UserManagerInstance;\t\t\t\t// Connects to the list of users on the network\r\n\tTransactionManager TransactionManagerInstance;\t// Connects to the transaction data on the network\r\n\tProposalManager PMI;\t// Connects to the transaction data on the network\r\n\r\n\t// These arrays are used when creating Proposals. Needed to be on storage to use .push()\r\n\r\n\t// Used to originally deploy the contract\r\n\tconstructor(address UserManagerAddress, address TransactionManagerAddress, address ProposalManagerAddress) public {\r\n\t\tUserManagerInstance = UserManager(UserManagerAddress);\r\n\t\tTransactionManagerInstance = TransactionManager(TransactionManagerAddress);\r\n\t\tPMI = ProposalManager(ProposalManagerAddress);\r\n\t}\r\n\t\r\n\tfunction StartProposal(address _oldAccount, string calldata _description) external returns (uint) {\r\n\t\trequire(_oldAccount != msg.sender, \"An account can not recover itself\");\r\n\t\trequire(!PMI.ActiveProposalLength(_oldAccount, msg.sender), \"There already exists a Proposal for this account\");\r\n\t\trequire(!PMI.ArchivedProposalLength(_oldAccount, msg.sender), \"You have already failed a vote for this recovery\");\r\n\r\n\t\t// uint price = CalculatePrice(_oldAccount);\t\t\t// Calculates the price of the account recovery\r\n\r\n\t\tuint balance = UserManagerInstance.getUser(_oldAccount).balance();\r\n\t\tuint price = balance / 20;\r\n\r\n\t\t// Creates Proposal and adds it to the active proposal map\r\n\t\tProposal temp = new Proposal(_oldAccount, msg.sender, _description, price);\r\n\r\n\t\tPMI.AddActiveProposal(_oldAccount, msg.sender, temp);\t\t// Deletes proposal\r\n\t\treturn price;\r\n\t}\r\n\r\n\tfunction Pay(address _oldAccount, bool _pay) external {\r\n\t\tif (_pay){\r\n\t\t\tPerson newAccount = UserManagerInstance.getUser(msg.sender); // Finds the person in the network\r\n\t\t\tPMI.getActiveProposal(_oldAccount, msg.sender).Pay(newAccount);\r\n\t\t}else{\r\n\t\t\tPMI.RemoveActiveProposal(_oldAccount, msg.sender);\t\t// Deletes proposal\r\n\t\t}\r\n\t}\r\n\r\n\tfunction AddTradePartners(address _oldAccount, address[] calldata _tradePartners) external {\r\n\t\tPMI.getActiveProposal(_oldAccount, msg.sender).AddTradePartners(_tradePartners, UserManagerInstance, TransactionManagerInstance);\r\n\t}\r\n\r\n\tfunction FindRandomTradingPartner(address _oldAccount) external {\r\n\t\tPMI.getActiveProposal(_oldAccount, msg.sender).FindRandomTradingPartner();\r\n\t}\r\n\r\n\tfunction ViewRandomTradingPartner(address _oldAccount) external view returns (address) {\r\n\t\treturn PMI.getActiveProposal(_oldAccount, msg.sender).ViewRandomTradingPartner();\r\n\t}\r\n\t\r\n\tfunction AddRandomTradingPartner(address _oldAccount) external {\r\n\t\tPMI.getActiveProposal(_oldAccount, msg.sender).AddRandomTradingPartner();\r\n\t}\r\n\r\n\t// Finds proposal and makes voting token for a specified voter\r\n\tfunction MakeVotingToken(address oldAccount, address _voter, string calldata _description) external {\r\n\t\tPMI.getActiveProposal(oldAccount, msg.sender).MakeVotingToken(oldAccount, _voter, _description);\r\n\t}\r\n\r\n\t// Makes a set of data for a transaction of one of the trade partners. Checks this data \r\n\tfunction MakeTransactionDataSet(address oldAccount, uint timeStamp, uint _amount, address _voter, \r\n\t\tstring calldata _description, string calldata _itemsInTrade) external {\r\n\r\n\t\trequire( TransactionManagerInstance.Equal(oldAccount, _voter, timeStamp, _amount), \"This transaction does not exist\");\r\n\r\n\t\t// Finds proposal and creates set of data \r\n\t\tPMI.getActiveProposal(oldAccount, msg.sender).AddTransactionDataSet(timeStamp, _voter, _amount, _description, _itemsInTrade);\r\n\t}\r\n}\r\n\r\n// 6595020\tNo Require \r\n// 6323170\tMoved functions and removed global variables\r\n// 6537625\tHas both Require\r\n// 6537625\tRemoved link to Set\r\n// 6539233\tChanged Instance to address\r\n// 6537625\tUndid\r\n\r\n// 6556099\tCombined Couting Votes in Proposal\r\n\r\n// 6555907\tRepacking DataSetInfo\r\n// 6551071\tRemoving CalculatePrice function\r\n\r\n// 6542998\tCombined FindOtherAddresses and FindtradePartners functions in Proposal\r\n\r\n// 6496688\r\n",
  "sourcePath": "C:/Users/m5w5b/Desktop/GitHub/game-dapp/AccountRecovery/contracts/ProposalCreator.sol",
  "compiler": {
    "name": "solc",
    "version": "0.5.8+commit.23d335f2.Emscripten.clang"
  },
  "schemaVersion": "3.0.16",
  "updatedAt": "2019-10-22T20:23:51.615Z",
  "devdoc": {
    "methods": {}
  },
  "userdoc": {
    "methods": {}
  }
}