{
  "contractName": "ProposalCreator",
  "abi": [
    {
      "inputs": [
        {
          "name": "UserManagerAddress",
          "type": "address"
        },
        {
          "name": "TransactionManagerAddress",
          "type": "address"
        },
        {
          "name": "ProposalManagerAddress",
          "type": "address"
        }
      ],
      "payable": false,
      "stateMutability": "nonpayable",
      "type": "constructor"
    },
    {
      "constant": false,
      "inputs": [
        {
          "name": "_oldAccount",
          "type": "address"
        }
      ],
      "name": "StartProposal",
      "outputs": [],
      "payable": false,
      "stateMutability": "nonpayable",
      "type": "function"
    },
    {
      "constant": true,
      "inputs": [
        {
          "name": "_oldAccount",
          "type": "address"
        }
      ],
      "name": "ViewPrice",
      "outputs": [
        {
          "name": "",
          "type": "uint256"
        }
      ],
      "payable": false,
      "stateMutability": "view",
      "type": "function"
    },
    {
      "constant": false,
      "inputs": [
        {
          "name": "_oldAccount",
          "type": "address"
        },
        {
          "name": "_pay",
          "type": "bool"
        }
      ],
      "name": "Pay",
      "outputs": [],
      "payable": false,
      "stateMutability": "nonpayable",
      "type": "function"
    },
    {
      "constant": false,
      "inputs": [
        {
          "name": "_oldAccount",
          "type": "address"
        },
        {
          "name": "_tradePartners",
          "type": "address[]"
        }
      ],
      "name": "AddTradePartners",
      "outputs": [],
      "payable": false,
      "stateMutability": "nonpayable",
      "type": "function"
    },
    {
      "constant": true,
      "inputs": [
        {
          "name": "_oldAccount",
          "type": "address"
        }
      ],
      "name": "getVoters",
      "outputs": [
        {
          "name": "",
          "type": "address[]"
        }
      ],
      "payable": false,
      "stateMutability": "view",
      "type": "function"
    },
    {
      "constant": true,
      "inputs": [
        {
          "name": "_oldAccount",
          "type": "address"
        }
      ],
      "name": "ViewRandomTradingPartner",
      "outputs": [
        {
          "name": "",
          "type": "address"
        }
      ],
      "payable": false,
      "stateMutability": "view",
      "type": "function"
    },
    {
      "constant": false,
      "inputs": [
        {
          "name": "_oldAccount",
          "type": "address"
        },
        {
          "name": "_veto",
          "type": "bool"
        }
      ],
      "name": "RandomTradingPartner",
      "outputs": [],
      "payable": false,
      "stateMutability": "nonpayable",
      "type": "function"
    },
    {
      "constant": false,
      "inputs": [
        {
          "name": "oldAccount",
          "type": "address"
        },
        {
          "name": "_voter",
          "type": "address"
        },
        {
          "name": "_description",
          "type": "string"
        }
      ],
      "name": "MakeVotingToken",
      "outputs": [],
      "payable": false,
      "stateMutability": "nonpayable",
      "type": "function"
    },
    {
      "constant": false,
      "inputs": [
        {
          "name": "oldAccount",
          "type": "address"
        },
        {
          "name": "timeStamp",
          "type": "uint256"
        },
        {
          "name": "_amount",
          "type": "uint256"
        },
        {
          "name": "_voter",
          "type": "address"
        },
        {
          "name": "_description",
          "type": "string"
        },
        {
          "name": "_itemsInTrade",
          "type": "string"
        }
      ],
      "name": "MakeTransactionDataSet",
      "outputs": [],
      "payable": false,
      "stateMutability": "nonpayable",
      "type": "function"
    }
  ],
  "bytecode": "0x608060405234801561001057600080fd5b5060405160608061600f8339810180604052606081101561003057600080fd5b81019080805190602001909291908051906020019092919080519060200190929190505050826000806101000a81548173ffffffffffffffffffffffffffffffffffffffff021916908373ffffffffffffffffffffffffffffffffffffffff16021790555081600160006101000a81548173ffffffffffffffffffffffffffffffffffffffff021916908373ffffffffffffffffffffffffffffffffffffffff16021790555080600260006101000a81548173ffffffffffffffffffffffffffffffffffffffff021916908373ffffffffffffffffffffffffffffffffffffffff160217905550505050615ee6806101296000396000f3fe608060405234801561001057600080fd5b50600436106100935760003560e01c8063516e4c2a11610066578063516e4c2a1461025557806366fe4d2f146102ee5780637904973914610346578063ca4e206214610468578063e8d94c00146104ac57610093565b80632d15cc04146100985780632ec59b6e14610131578063342e6f63146101815780634bdc7b50146101d1575b600080fd5b6100da600480360360208110156100ae57600080fd5b81019080803573ffffffffffffffffffffffffffffffffffffffff169060200190929190505050610565565b6040518080602001828103825283818151815260200191508051906020019060200280838360005b8381101561011d578082015181840152602081019050610102565b505050509050019250505060405180910390f35b61017f6004803603604081101561014757600080fd5b81019080803573ffffffffffffffffffffffffffffffffffffffff169060200190929190803515159060200190929190505050610752565b005b6101cf6004803603604081101561019757600080fd5b81019080803573ffffffffffffffffffffffffffffffffffffffff169060200190929190803515159060200190929190505050610ad1565b005b610213600480360360208110156101e757600080fd5b81019080803573ffffffffffffffffffffffffffffffffffffffff169060200190929190505050610c51565b604051808273ffffffffffffffffffffffffffffffffffffffff1673ffffffffffffffffffffffffffffffffffffffff16815260200191505060405180910390f35b6102ec6004803603604081101561026b57600080fd5b81019080803573ffffffffffffffffffffffffffffffffffffffff169060200190929190803590602001906401000000008111156102a857600080fd5b8201836020820111156102ba57600080fd5b803590602001918460208302840111640100000000831117156102dc57600080fd5b9091929391929390505050610de8565b005b6103306004803603602081101561030457600080fd5b81019080803573ffffffffffffffffffffffffffffffffffffffff1690602001909291905050506111be565b6040518082815260200191505060405180910390f35b610466600480360360c081101561035c57600080fd5b81019080803573ffffffffffffffffffffffffffffffffffffffff1690602001909291908035906020019092919080359060200190929190803573ffffffffffffffffffffffffffffffffffffffff169060200190929190803590602001906401000000008111156103cd57600080fd5b8201836020820111156103df57600080fd5b8035906020019184600183028401116401000000008311171561040157600080fd5b90919293919293908035906020019064010000000081111561042257600080fd5b82018360208201111561043457600080fd5b8035906020019184600183028401116401000000008311171561045657600080fd5b9091929391929390505050611355565b005b6104aa6004803603602081101561047e57600080fd5b81019080803573ffffffffffffffffffffffffffffffffffffffff1690602001909291905050506117a6565b005b610563600480360360608110156104c257600080fd5b81019080803573ffffffffffffffffffffffffffffffffffffffff169060200190929190803573ffffffffffffffffffffffffffffffffffffffff1690602001909291908035906020019064010000000081111561051f57600080fd5b82018360208201111561053157600080fd5b8035906020019184600183028401116401000000008311171561055357600080fd5b9091929391929390505050611d66565b005b6060600260009054906101000a900473ffffffffffffffffffffffffffffffffffffffff1673ffffffffffffffffffffffffffffffffffffffff1663a652629583336040518363ffffffff1660e01b8152600401808373ffffffffffffffffffffffffffffffffffffffff1673ffffffffffffffffffffffffffffffffffffffff1681526020018273ffffffffffffffffffffffffffffffffffffffff1673ffffffffffffffffffffffffffffffffffffffff1681526020019250505060206040518083038186803b15801561063a57600080fd5b505afa15801561064e573d6000803e3d6000fd5b505050506040513d602081101561066457600080fd5b810190808051906020019092919050505073ffffffffffffffffffffffffffffffffffffffff1663cdd722536040518163ffffffff1660e01b815260040160006040518083038186803b1580156106ba57600080fd5b505afa1580156106ce573d6000803e3d6000fd5b505050506040513d6000823e3d601f19601f8201168201806040525060208110156106f857600080fd5b81019080805164010000000081111561071057600080fd5b8281019050602081018481111561072657600080fd5b815185602082028301116401000000008211171561074357600080fd5b50509291905050509050919050565b80156109df5760008060009054906101000a900473ffffffffffffffffffffffffffffffffffffffff1673ffffffffffffffffffffffffffffffffffffffff16636f77926b336040518263ffffffff1660e01b8152600401808273ffffffffffffffffffffffffffffffffffffffff1673ffffffffffffffffffffffffffffffffffffffff16815260200191505060206040518083038186803b1580156107f857600080fd5b505afa15801561080c573d6000803e3d6000fd5b505050506040513d602081101561082257600080fd5b81019080805190602001909291905050509050600260009054906101000a900473ffffffffffffffffffffffffffffffffffffffff1673ffffffffffffffffffffffffffffffffffffffff1663a652629584336040518363ffffffff1660e01b8152600401808373ffffffffffffffffffffffffffffffffffffffff1673ffffffffffffffffffffffffffffffffffffffff1681526020018273ffffffffffffffffffffffffffffffffffffffff1673ffffffffffffffffffffffffffffffffffffffff1681526020019250505060206040518083038186803b15801561090857600080fd5b505afa15801561091c573d6000803e3d6000fd5b505050506040513d602081101561093257600080fd5b810190808051906020019092919050505073ffffffffffffffffffffffffffffffffffffffff1663cde596b2826040518263ffffffff1660e01b8152600401808273ffffffffffffffffffffffffffffffffffffffff1673ffffffffffffffffffffffffffffffffffffffff168152602001915050600060405180830381600087803b1580156109c157600080fd5b505af11580156109d5573d6000803e3d6000fd5b5050505050610acd565b600260009054906101000a900473ffffffffffffffffffffffffffffffffffffffff1673ffffffffffffffffffffffffffffffffffffffff16636f4b8b7283336040518363ffffffff1660e01b8152600401808373ffffffffffffffffffffffffffffffffffffffff1673ffffffffffffffffffffffffffffffffffffffff1681526020018273ffffffffffffffffffffffffffffffffffffffff1673ffffffffffffffffffffffffffffffffffffffff16815260200192505050600060405180830381600087803b158015610ab457600080fd5b505af1158015610ac8573d6000803e3d6000fd5b505050505b5050565b600260009054906101000a900473ffffffffffffffffffffffffffffffffffffffff1673ffffffffffffffffffffffffffffffffffffffff1663a652629583336040518363ffffffff1660e01b8152600401808373ffffffffffffffffffffffffffffffffffffffff1673ffffffffffffffffffffffffffffffffffffffff1681526020018273ffffffffffffffffffffffffffffffffffffffff1673ffffffffffffffffffffffffffffffffffffffff1681526020019250505060206040518083038186803b158015610ba457600080fd5b505afa158015610bb8573d6000803e3d6000fd5b505050506040513d6020811015610bce57600080fd5b810190808051906020019092919050505073ffffffffffffffffffffffffffffffffffffffff166376a3fab6826040518263ffffffff1660e01b81526004018082151515158152602001915050600060405180830381600087803b158015610c3557600080fd5b505af1158015610c49573d6000803e3d6000fd5b505050505050565b6000600260009054906101000a900473ffffffffffffffffffffffffffffffffffffffff1673ffffffffffffffffffffffffffffffffffffffff1663a652629583336040518363ffffffff1660e01b8152600401808373ffffffffffffffffffffffffffffffffffffffff1673ffffffffffffffffffffffffffffffffffffffff1681526020018273ffffffffffffffffffffffffffffffffffffffff1673ffffffffffffffffffffffffffffffffffffffff1681526020019250505060206040518083038186803b158015610d2657600080fd5b505afa158015610d3a573d6000803e3d6000fd5b505050506040513d6020811015610d5057600080fd5b810190808051906020019092919050505073ffffffffffffffffffffffffffffffffffffffff1663137858a16040518163ffffffff1660e01b815260040160206040518083038186803b158015610da657600080fd5b505afa158015610dba573d6000803e3d6000fd5b505050506040513d6020811015610dd057600080fd5b81019080805190602001909291905050509050919050565b6060600260009054906101000a900473ffffffffffffffffffffffffffffffffffffffff1673ffffffffffffffffffffffffffffffffffffffff1663352ef89c856040518263ffffffff1660e01b8152600401808273ffffffffffffffffffffffffffffffffffffffff1673ffffffffffffffffffffffffffffffffffffffff16815260200191505060006040518083038186803b158015610e8957600080fd5b505afa158015610e9d573d6000803e3d6000fd5b505050506040513d6000823e3d601f19601f820116820180604052506020811015610ec757600080fd5b810190808051640100000000811115610edf57600080fd5b82810190506020810184811115610ef557600080fd5b8151856020820283011164010000000082111715610f1257600080fd5b50509291905050509050600260009054906101000a900473ffffffffffffffffffffffffffffffffffffffff1673ffffffffffffffffffffffffffffffffffffffff1663a652629585336040518363ffffffff1660e01b8152600401808373ffffffffffffffffffffffffffffffffffffffff1673ffffffffffffffffffffffffffffffffffffffff1681526020018273ffffffffffffffffffffffffffffffffffffffff1673ffffffffffffffffffffffffffffffffffffffff1681526020019250505060206040518083038186803b158015610fef57600080fd5b505afa158015611003573d6000803e3d6000fd5b505050506040513d602081101561101957600080fd5b810190808051906020019092919050505073ffffffffffffffffffffffffffffffffffffffff1663fac0328d848484600160009054906101000a900473ffffffffffffffffffffffffffffffffffffffff16600260009054906101000a900473ffffffffffffffffffffffffffffffffffffffff166040518663ffffffff1660e01b81526004018080602001806020018573ffffffffffffffffffffffffffffffffffffffff1673ffffffffffffffffffffffffffffffffffffffff1681526020018473ffffffffffffffffffffffffffffffffffffffff1673ffffffffffffffffffffffffffffffffffffffff1681526020018381038352888882818152602001925060200280828437600081840152601f19601f820116905080830192505050838103825286818151815260200191508051906020019060200280838360005b8381101561117657808201518184015260208101905061115b565b50505050905001975050505050505050600060405180830381600087803b1580156111a057600080fd5b505af11580156111b4573d6000803e3d6000fd5b5050505050505050565b6000600260009054906101000a900473ffffffffffffffffffffffffffffffffffffffff1673ffffffffffffffffffffffffffffffffffffffff1663a652629583336040518363ffffffff1660e01b8152600401808373ffffffffffffffffffffffffffffffffffffffff1673ffffffffffffffffffffffffffffffffffffffff1681526020018273ffffffffffffffffffffffffffffffffffffffff1673ffffffffffffffffffffffffffffffffffffffff1681526020019250505060206040518083038186803b15801561129357600080fd5b505afa1580156112a7573d6000803e3d6000fd5b505050506040513d60208110156112bd57600080fd5b810190808051906020019092919050505073ffffffffffffffffffffffffffffffffffffffff1663a035b1fe6040518163ffffffff1660e01b815260040160206040518083038186803b15801561131357600080fd5b505afa158015611327573d6000803e3d6000fd5b505050506040513d602081101561133d57600080fd5b81019080805190602001909291905050509050919050565b600160009054906101000a900473ffffffffffffffffffffffffffffffffffffffff1673ffffffffffffffffffffffffffffffffffffffff1663f90bee5689878a8a6040518563ffffffff1660e01b8152600401808573ffffffffffffffffffffffffffffffffffffffff1673ffffffffffffffffffffffffffffffffffffffff1681526020018473ffffffffffffffffffffffffffffffffffffffff1673ffffffffffffffffffffffffffffffffffffffff16815260200183815260200182815260200194505050505060006040518083038186803b15801561143857600080fd5b505afa15801561144c573d6000803e3d6000fd5b505050506000600260009054906101000a900473ffffffffffffffffffffffffffffffffffffffff1673ffffffffffffffffffffffffffffffffffffffff1663a65262958a336040518363ffffffff1660e01b8152600401808373ffffffffffffffffffffffffffffffffffffffff1673ffffffffffffffffffffffffffffffffffffffff1681526020018273ffffffffffffffffffffffffffffffffffffffff1673ffffffffffffffffffffffffffffffffffffffff1681526020019250505060206040518083038186803b15801561152557600080fd5b505afa158015611539573d6000803e3d6000fd5b505050506040513d602081101561154f57600080fd5b810190808051906020019092919050505090508073ffffffffffffffffffffffffffffffffffffffff16634f7ae4ae876040518263ffffffff1660e01b8152600401808273ffffffffffffffffffffffffffffffffffffffff1673ffffffffffffffffffffffffffffffffffffffff16815260200191505060206040518083038186803b1580156115df57600080fd5b505afa1580156115f3573d6000803e3d6000fd5b505050506040513d602081101561160957600080fd5b810190808051906020019092919050505061168c576040517f08c379a000000000000000000000000000000000000000000000000000000000815260040180806020018281038252600d8152602001807f496e76616c696420566f7465720000000000000000000000000000000000000081525060200191505060405180910390fd5b8073ffffffffffffffffffffffffffffffffffffffff166319e5fba089888a898989896040518863ffffffff1660e01b8152600401808881526020018773ffffffffffffffffffffffffffffffffffffffff1673ffffffffffffffffffffffffffffffffffffffff16815260200186815260200180602001806020018381038352878782818152602001925080828437600081840152601f19601f8201169050808301925050508381038252858582818152602001925080828437600081840152601f19601f8201169050808301925050509950505050505050505050600060405180830381600087803b15801561178357600080fd5b505af1158015611797573d6000803e3d6000fd5b50505050505050505050505050565b600260009054906101000a900473ffffffffffffffffffffffffffffffffffffffff1673ffffffffffffffffffffffffffffffffffffffff1663331c4bed33836040518363ffffffff1660e01b8152600401808373ffffffffffffffffffffffffffffffffffffffff1673ffffffffffffffffffffffffffffffffffffffff1681526020018273ffffffffffffffffffffffffffffffffffffffff1673ffffffffffffffffffffffffffffffffffffffff1681526020019250505060206040518083038186803b15801561187957600080fd5b505afa15801561188d573d6000803e3d6000fd5b505050506040513d60208110156118a357600080fd5b81019080805190602001909291905050501561190a576040517f08c379a0000000000000000000000000000000000000000000000000000000008152600401808060200182810382526026815260200180615e656026913960400191505060405180910390fd5b600260009054906101000a900473ffffffffffffffffffffffffffffffffffffffff1673ffffffffffffffffffffffffffffffffffffffff16633ef8f383826040518263ffffffff1660e01b8152600401808273ffffffffffffffffffffffffffffffffffffffff1673ffffffffffffffffffffffffffffffffffffffff16815260200191505060206040518083038186803b1580156119a957600080fd5b505afa1580156119bd573d6000803e3d6000fd5b505050506040513d60208110156119d357600080fd5b8101908080519060200190929190505050611a39576040517f08c379a0000000000000000000000000000000000000000000000000000000008152600401808060200182810382526030815260200180615e8b6030913960400191505060405180910390fd5b60008060009054906101000a900473ffffffffffffffffffffffffffffffffffffffff1673ffffffffffffffffffffffffffffffffffffffff16636f77926b836040518263ffffffff1660e01b8152600401808273ffffffffffffffffffffffffffffffffffffffff1673ffffffffffffffffffffffffffffffffffffffff16815260200191505060206040518083038186803b158015611ad957600080fd5b505afa158015611aed573d6000803e3d6000fd5b505050506040513d6020811015611b0357600080fd5b810190808051906020019092919050505073ffffffffffffffffffffffffffffffffffffffff1663b69ef8a86040518163ffffffff1660e01b815260040160206040518083038186803b158015611b5957600080fd5b505afa158015611b6d573d6000803e3d6000fd5b505050506040513d6020811015611b8357600080fd5b81019080805190602001909291905050509050600060148281611ba257fe5b049050600260009054906101000a900473ffffffffffffffffffffffffffffffffffffffff1673ffffffffffffffffffffffffffffffffffffffff16638af10ea78433863386604051611bf4906120a8565b808473ffffffffffffffffffffffffffffffffffffffff1673ffffffffffffffffffffffffffffffffffffffff1681526020018373ffffffffffffffffffffffffffffffffffffffff1673ffffffffffffffffffffffffffffffffffffffff1681526020018281526020019350505050604051809103906000f080158015611c80573d6000803e3d6000fd5b506040518463ffffffff1660e01b8152600401808473ffffffffffffffffffffffffffffffffffffffff1673ffffffffffffffffffffffffffffffffffffffff1681526020018373ffffffffffffffffffffffffffffffffffffffff1673ffffffffffffffffffffffffffffffffffffffff1681526020018273ffffffffffffffffffffffffffffffffffffffff1673ffffffffffffffffffffffffffffffffffffffff1681526020019350505050600060405180830381600087803b158015611d4957600080fd5b505af1158015611d5d573d6000803e3d6000fd5b50505050505050565b6000600260009054906101000a900473ffffffffffffffffffffffffffffffffffffffff1673ffffffffffffffffffffffffffffffffffffffff1663a652629586336040518363ffffffff1660e01b8152600401808373ffffffffffffffffffffffffffffffffffffffff1673ffffffffffffffffffffffffffffffffffffffff1681526020018273ffffffffffffffffffffffffffffffffffffffff1673ffffffffffffffffffffffffffffffffffffffff1681526020019250505060206040518083038186803b158015611e3b57600080fd5b505afa158015611e4f573d6000803e3d6000fd5b505050506040513d6020811015611e6557600080fd5b810190808051906020019092919050505090508073ffffffffffffffffffffffffffffffffffffffff16634f7ae4ae856040518263ffffffff1660e01b8152600401808273ffffffffffffffffffffffffffffffffffffffff1673ffffffffffffffffffffffffffffffffffffffff16815260200191505060206040518083038186803b158015611ef557600080fd5b505afa158015611f09573d6000803e3d6000fd5b505050506040513d6020811015611f1f57600080fd5b8101908080519060200190929190505050611fa2576040517f08c379a000000000000000000000000000000000000000000000000000000000815260040180806020018281038252600d8152602001807f496e76616c696420566f7465720000000000000000000000000000000000000081525060200191505060405180910390fd5b8073ffffffffffffffffffffffffffffffffffffffff1663e8d94c00868686866040518563ffffffff1660e01b8152600401808573ffffffffffffffffffffffffffffffffffffffff1673ffffffffffffffffffffffffffffffffffffffff1681526020018473ffffffffffffffffffffffffffffffffffffffff1673ffffffffffffffffffffffffffffffffffffffff168152602001806020018281038252848482818152602001925080828437600081840152601f19601f82011690508083019250505095505050505050600060405180830381600087803b15801561208957600080fd5b505af115801561209d573d6000803e3d6000fd5b505050505050505050565b613daf806120b68339019056fe60806040526000600760006101000a81548173ffffffffffffffffffffffffffffffffffffffff021916908373ffffffffffffffffffffffffffffffffffffffff1602179055506000600a556000600d60006101000a81548160ff021916908360ff1602179055506003600d60016101000a81548160ff021916908360ff1602179055506000600d60026101000a81548160ff0219169083151502179055503480156100aa57600080fd5b50604051606080613daf833981018060405260608110156100ca57600080fd5b8101908080519060200190929190805190602001909291908051906020019092919050505082600860006101000a81548173ffffffffffffffffffffffffffffffffffffffff021916908373ffffffffffffffffffffffffffffffffffffffff16021790555081600960006101000a81548173ffffffffffffffffffffffffffffffffffffffff021916908373ffffffffffffffffffffffffffffffffffffffff16021790555080600b8190555042600c81905550505050613c1e806101916000396000f3fe608060405234801561001057600080fd5b50600436106100cf5760003560e01c8063cdd722531161008c578063e8d94c0011610066578063e8d94c0014610494578063f91ac8991461054d578063fa041dd714610680578063fac0328d146106d0576100cf565b8063cdd7225314610322578063cde596b214610381578063e628c2e0146103c5576100cf565b80630d2cea2c146100d4578063137858a11461012c57806319e5fba0146101765780634f7ae4ae1461027857806376a3fab6146102d4578063a035b1fe14610304575b600080fd5b610116600480360360208110156100ea57600080fd5b81019080803573ffffffffffffffffffffffffffffffffffffffff1690602001909291905050506107de565b6040518082815260200191505060405180910390f35b6101346114ea565b604051808273ffffffffffffffffffffffffffffffffffffffff1673ffffffffffffffffffffffffffffffffffffffff16815260200191505060405180910390f35b610276600480360360a081101561018c57600080fd5b8101908080359060200190929190803573ffffffffffffffffffffffffffffffffffffffff16906020019092919080359060200190929190803590602001906401000000008111156101dd57600080fd5b8201836020820111156101ef57600080fd5b8035906020019184600183028401116401000000008311171561021157600080fd5b90919293919293908035906020019064010000000081111561023257600080fd5b82018360208201111561024457600080fd5b8035906020019184600183028401116401000000008311171561026657600080fd5b9091929391929390505050611510565b005b6102ba6004803603602081101561028e57600080fd5b81019080803573ffffffffffffffffffffffffffffffffffffffff169060200190929190505050611764565b604051808215151515815260200191505060405180910390f35b610302600480360360208110156102ea57600080fd5b8101908080351515906020019092919050505061182e565b005b61030c611e29565b6040518082815260200191505060405180910390f35b61032a611e2f565b6040518080602001828103825283818151815260200191508051906020019060200280838360005b8381101561036d578082015181840152602081019050610352565b505050509050019250505060405180910390f35b6103c36004803603602081101561039757600080fd5b81019080803573ffffffffffffffffffffffffffffffffffffffff169060200190929190505050611f19565b005b610411600480360360408110156103db57600080fd5b81019080803573ffffffffffffffffffffffffffffffffffffffff1690602001909291908035906020019092919050505061207f565b604051808581526020018481526020018373ffffffffffffffffffffffffffffffffffffffff1673ffffffffffffffffffffffffffffffffffffffff1681526020018273ffffffffffffffffffffffffffffffffffffffff1673ffffffffffffffffffffffffffffffffffffffff16815260200194505050505060405180910390f35b61054b600480360360608110156104aa57600080fd5b81019080803573ffffffffffffffffffffffffffffffffffffffff169060200190929190803573ffffffffffffffffffffffffffffffffffffffff1690602001909291908035906020019064010000000081111561050757600080fd5b82018360208201111561051957600080fd5b8035906020019184600183028401116401000000008311171561053b57600080fd5b909192939192939050505061219e565b005b6105996004803603604081101561056357600080fd5b81019080803573ffffffffffffffffffffffffffffffffffffffff1690602001909291908035906020019092919050505061258b565b604051808060200180602001838103835285818151815260200191508051906020019080838360005b838110156105dd5780820151818401526020810190506105c2565b50505050905090810190601f16801561060a5780820380516001836020036101000a031916815260200191505b50838103825284818151815260200191508051906020019080838360005b83811015610643578082015181840152602081019050610628565b50505050905090810190601f1680156106705780820380516001836020036101000a031916815260200191505b5094505050505060405180910390f35b6106ce6004803603604081101561069657600080fd5b81019080803573ffffffffffffffffffffffffffffffffffffffff169060200190929190803515159060200190929190505050612728565b005b6107dc600480360360808110156106e657600080fd5b810190808035906020019064010000000081111561070357600080fd5b82018360208201111561071557600080fd5b8035906020019184602083028401116401000000008311171561073757600080fd5b90919293919293908035906020019064010000000081111561075857600080fd5b82018360208201111561076a57600080fd5b8035906020019184602083028401116401000000008311171561078c57600080fd5b9091929391929390803573ffffffffffffffffffffffffffffffffffffffff169060200190929190803573ffffffffffffffffffffffffffffffffffffffff1690602001909291905050506127ea565b005b6000600273__Set___________________________________63ea70683890916040518263ffffffff1660e01b81526004018082815260200191505060206040518083038186803b15801561083257600080fd5b505af4158015610846573d6000803e3d6000fd5b505050506040513d602081101561085c57600080fd5b8101908080519060200190929190505050600d60009054906101000a900460ff1660ff16146108d6576040517f08c379a0000000000000000000000000000000000000000000000000000000008152600401808060200182810382526025815260200180613a446025913960400191505060405180910390fd5b600c5442038273ffffffffffffffffffffffffffffffffffffffff16636f77926b600860009054906101000a900473ffffffffffffffffffffffffffffffffffffffff166040518263ffffffff1660e01b8152600401808273ffffffffffffffffffffffffffffffffffffffff1673ffffffffffffffffffffffffffffffffffffffff16815260200191505060206040518083038186803b15801561097a57600080fd5b505afa15801561098e573d6000803e3d6000fd5b505050506040513d60208110156109a457600080fd5b810190808051906020019092919050505073ffffffffffffffffffffffffffffffffffffffff1663b7f688526040518163ffffffff1660e01b815260040160206040518083038186803b1580156109fa57600080fd5b505afa158015610a0e573d6000803e3d6000fd5b505050506040513d6020811015610a2457600080fd5b81019080805190602001909291905050501115610a63577fffffffffffffffffffffffffffffffffffffffffffffffffffffffffffffffff90506114e5565b60008090506000809050600080905060008090505b600273__Set___________________________________63ea70683890916040518263ffffffff1660e01b81526004018082815260200191505060206040518083038186803b158015610aca57600080fd5b505af4158015610ade573d6000803e3d6000fd5b505050506040513d6020811015610af457600080fd5b8101908080519060200190929190505050811015610ee6576000806000600273__Set___________________________________6344f7330d9091866040518363ffffffff1660e01b8152600401808381526020018281526020019250505060206040518083038186803b158015610b6b57600080fd5b505af4158015610b7f573d6000803e3d6000fd5b505050506040513d6020811015610b9557600080fd5b810190808051906020019092919050505073ffffffffffffffffffffffffffffffffffffffff1673ffffffffffffffffffffffffffffffffffffffff1681526020019081526020016000208054905011610c3a576040517f08c379a0000000000000000000000000000000000000000000000000000000008152600401808060200182810382526024815260200180613a8b6024913960400191505060405180910390fd5b600060016000600273__Set___________________________________6344f7330d9091866040518363ffffffff1660e01b8152600401808381526020018281526020019250505060206040518083038186803b158015610c9a57600080fd5b505af4158015610cae573d6000803e3d6000fd5b505050506040513d6020811015610cc457600080fd5b810190808051906020019092919050505073ffffffffffffffffffffffffffffffffffffffff1673ffffffffffffffffffffffffffffffffffffffff16815260200190815260200160002060000190508073__VotingToken___________________________63ffef631c90916040518263ffffffff1660e01b81526004018082815260200191505060206040518083038186803b158015610d6557600080fd5b505af4158015610d79573d6000803e3d6000fd5b505050506040513d6020811015610d8f57600080fd5b8101908080519060200190929190505050830192508073__VotingToken___________________________63117d52aa90916040518263ffffffff1660e01b81526004018082815260200191505060206040518083038186803b158015610df557600080fd5b505af4158015610e09573d6000803e3d6000fd5b505050506040513d6020811015610e1f57600080fd5b810190808051906020019092919050505015610ed85784806001019550508073__VotingToken___________________________63fb84fe7b90916040518263ffffffff1660e01b81526004018082815260200191505060206040518083038186803b158015610e8e57600080fd5b505af4158015610ea2573d6000803e3d6000fd5b505050506040513d6020811015610eb857600080fd5b810190808051906020019092919050505015610ed75783806001019450505b5b508080600101915050610a78565b506005831015610f36576202a300600c5442031115610f0b57603c93505050506114e5565b7ffffffffffffffffffffffffffffffffffffffffffffffffffffffffffffffffe93505050506114e5565b60006042848460640281610f4657fe5b04101590506000600290506000600290506000600190506000878681610f6857fe5b04905060008090505b600273__Set___________________________________63ea70683890916040518263ffffffff1660e01b81526004018082815260200191505060206040518083038186803b158015610fc357600080fd5b505af4158015610fd7573d6000803e3d6000fd5b505050506040513d6020811015610fed57600080fd5b81019080805190602001909291905050508110156114cc57600060016000600273__Set___________________________________6344f7330d9091866040518363ffffffff1660e01b8152600401808381526020018281526020019250505060206040518083038186803b15801561106557600080fd5b505af4158015611079573d6000803e3d6000fd5b505050506040513d602081101561108f57600080fd5b810190808051906020019092919050505073ffffffffffffffffffffffffffffffffffffffff1673ffffffffffffffffffffffffffffffffffffffff16815260200190815260200160002060000190508073__VotingToken___________________________63117d52aa90916040518263ffffffff1660e01b81526004018082815260200191505060206040518083038186803b15801561113057600080fd5b505af4158015611144573d6000803e3d6000fd5b505050506040513d602081101561115a57600080fd5b8101908080519060200190929190505050156114be5760008a87600b548161117e57fe5b048161118657fe5b0490508173__VotingToken___________________________63fb84fe7b90916040518263ffffffff1660e01b81526004018082815260200191505060206040518083038186803b1580156111da57600080fd5b505af41580156111ee573d6000803e3d6000fd5b505050506040513d602081101561120457600080fd5b810190808051906020019092919050505015158815151415611261578715611244578986600b548161123257fe5b048161123a57fe5b0481019050611260565b898b0386600b548161125257fe5b048161125a57fe5b04810190505b5b848273__VotingToken___________________________63ffef631c90916040518263ffffffff1660e01b81526004018082815260200191505060206040518083038186803b1580156112b357600080fd5b505af41580156112c7573d6000803e3d6000fd5b505050506040513d60208110156112dd57600080fd5b81019080805190602001909291905050508503816112f757fe5b048101905060008111156114bc578c73ffffffffffffffffffffffffffffffffffffffff16636f77926b600273__Set___________________________________6344f7330d9091876040518363ffffffff1660e01b8152600401808381526020018281526020019250505060206040518083038186803b15801561137b57600080fd5b505af415801561138f573d6000803e3d6000fd5b505050506040513d60208110156113a557600080fd5b81019080805190602001909291905050506040518263ffffffff1660e01b8152600401808273ffffffffffffffffffffffffffffffffffffffff1673ffffffffffffffffffffffffffffffffffffffff16815260200191505060206040518083038186803b15801561141657600080fd5b505afa15801561142a573d6000803e3d6000fd5b505050506040513d602081101561144057600080fd5b810190808051906020019092919050505073ffffffffffffffffffffffffffffffffffffffff16633e4ccb40826040518263ffffffff1660e01b815260040180828152602001915050600060405180830381600087803b1580156114a357600080fd5b505af11580156114b7573d6000803e3d6000fd5b505050505b505b508080600101915050610f71565b508787606402816114d957fe5b04985050505050505050505b919050565b600760009054906101000a900473ffffffffffffffffffffffffffffffffffffffff1681565b6000808773ffffffffffffffffffffffffffffffffffffffff1673ffffffffffffffffffffffffffffffffffffffff1681526020019081526020016000206040518060c0016040528086868080601f016020809104026020016040519081016040528093929190818152602001838380828437600081840152601f19601f82011690508083019250505050505050815260200184848080601f016020809104026020016040519081016040528093929190818152602001838380828437600081840152601f19601f820116905080830192505050505050508152602001600860009054906101000a900473ffffffffffffffffffffffffffffffffffffffff1673ffffffffffffffffffffffffffffffffffffffff1681526020018873ffffffffffffffffffffffffffffffffffffffff168152602001898152602001878152509080600181540180825580915050906001820390600052602060002090600602016000909192909190915060008201518160000190805190602001906116989291906138b7565b5060208201518160010190805190602001906116b59291906138b7565b5060408201518160020160006101000a81548173ffffffffffffffffffffffffffffffffffffffff021916908373ffffffffffffffffffffffffffffffffffffffff16021790555060608201518160030160006101000a81548173ffffffffffffffffffffffffffffffffffffffff021916908373ffffffffffffffffffffffffffffffffffffffff1602179055506080820151816004015560a0820151816005015550505050505050505050565b6000600273__Set___________________________________636aa90e979091846040518363ffffffff1660e01b8152600401808381526020018273ffffffffffffffffffffffffffffffffffffffff1673ffffffffffffffffffffffffffffffffffffffff1681526020019250505060206040518083038186803b1580156117ec57600080fd5b505af4158015611800573d6000803e3d6000fd5b505050506040513d602081101561181657600080fd5b81019080805190602001909291905050509050919050565b80611a7c57600273__Set___________________________________636aa90e979091600760009054906101000a900473ffffffffffffffffffffffffffffffffffffffff166040518363ffffffff1660e01b8152600401808381526020018273ffffffffffffffffffffffffffffffffffffffff1673ffffffffffffffffffffffffffffffffffffffff1681526020019250505060206040518083038186803b1580156118db57600080fd5b505af41580156118ef573d6000803e3d6000fd5b505050506040513d602081101561190557600080fd5b810190808051906020019092919050505015611989576040517f08c379a000000000000000000000000000000000000000000000000000000000815260040180806020018281038252601a8152602001807f416c72656164792061646465642074686174206164647265737300000000000081525060200191505060405180910390fd5b600d600181819054906101000a900460ff168092919060010191906101000a81548160ff021916908360ff16021790555050600273__Set___________________________________633c2580489091600760009054906101000a900473ffffffffffffffffffffffffffffffffffffffff166040518363ffffffff1660e01b8152600401808381526020018273ffffffffffffffffffffffffffffffffffffffff1673ffffffffffffffffffffffffffffffffffffffff1681526020019250505060006040518083038186803b158015611a6357600080fd5b505af4158015611a77573d6000803e3d6000fd5b505050505b600a54600273__Set___________________________________63ea70683890916040518263ffffffff1660e01b81526004018082815260200191505060206040518083038186803b158015611ad157600080fd5b505af4158015611ae5573d6000803e3d6000fd5b505050506040513d6020811015611afb57600080fd5b810190808051906020019092919050505014611e26576000600a5411611b6c576040517f08c379a0000000000000000000000000000000000000000000000000000000008152600401808060200182810382526037815260200180613adc6037913960400191505060405180910390fd5b6000600d60019054906101000a900460ff1660ff1611611bd7576040517f08c379a0000000000000000000000000000000000000000000000000000000008152600401808060200182810382526023815260200180613b5f6023913960400191505060405180910390fd5b600060068054905011611c35576040517f08c379a0000000000000000000000000000000000000000000000000000000008152600401808060200182810382526047815260200180613b826047913960600191505060405180910390fd5b600d600181819054906101000a900460ff16809291906001900391906101000a81548160ff021916908360ff160217905550506000611c9b600760009054906101000a900473ffffffffffffffffffffffffffffffffffffffff16600680549050613565565b60ff16905060068181548110611cad57fe5b9060005260206000200160009054906101000a900473ffffffffffffffffffffffffffffffffffffffff16600760006101000a81548173ffffffffffffffffffffffffffffffffffffffff021916908373ffffffffffffffffffffffffffffffffffffffff16021790555060008190505b600160068054905003811015611dcb5760066001820181548110611d3e57fe5b9060005260206000200160009054906101000a900473ffffffffffffffffffffffffffffffffffffffff1660068281548110611d7657fe5b9060005260206000200160006101000a81548173ffffffffffffffffffffffffffffffffffffffff021916908373ffffffffffffffffffffffffffffffffffffffff1602179055508080600101915050611d1e565b50600660016006805490500381548110611de157fe5b9060005260206000200160006101000a81549073ffffffffffffffffffffffffffffffffffffffff02191690556006805480919060019003611e239190613937565b50505b50565b600b5481565b6060600273__Set___________________________________639fa87cd190916040518263ffffffff1660e01b81526004018082815260200191505060006040518083038186803b158015611e8357600080fd5b505af4158015611e97573d6000803e3d6000fd5b505050506040513d6000823e3d601f19601f820116820180604052506020811015611ec157600080fd5b810190808051640100000000811115611ed957600080fd5b82810190506020810184811115611eef57600080fd5b8151856020820283011164010000000082111715611f0c57600080fd5b5050929190505050905090565b600b548173ffffffffffffffffffffffffffffffffffffffff1663b69ef8a86040518163ffffffff1660e01b815260040160206040518083038186803b158015611f6257600080fd5b505afa158015611f76573d6000803e3d6000fd5b505050506040513d6020811015611f8c57600080fd5b81019080805190602001909291905050501015611ff4576040517f08c379a0000000000000000000000000000000000000000000000000000000008152600401808060200182810382526022815260200180613a696022913960400191505060405180910390fd5b8073ffffffffffffffffffffffffffffffffffffffff1663392aee43600b546040518263ffffffff1660e01b815260040180828152602001915050600060405180830381600087803b15801561204957600080fd5b505af115801561205d573d6000803e3d6000fd5b505050506001600d60026101000a81548160ff02191690831515021790555050565b60008060008061208d6135e9565b6000808773ffffffffffffffffffffffffffffffffffffffff1673ffffffffffffffffffffffffffffffffffffffff16815260200190815260200160002085815481106120d657fe5b906000526020600020906006020173__TransactionDataSet____________________63b18e919690916040518263ffffffff1660e01b81526004018082815260200191505060806040518083038186803b15801561213457600080fd5b505af4158015612148573d6000803e3d6000fd5b505050506040513d608081101561215e57600080fd5b8101908080519060200190929190805190602001909291908051906020019092919080519060200190929190505050935093509350935092959194509250565b600a54600273__Set___________________________________63ea70683890916040518263ffffffff1660e01b81526004018082815260200191505060206040518083038186803b1580156121f357600080fd5b505af4158015612207573d6000803e3d6000fd5b505050506040513d602081101561221d57600080fd5b810190808051906020019092919050505014612284576040517f08c379a0000000000000000000000000000000000000000000000000000000008152600401808060200182810382526037815260200180613adc6037913960400191505060405180910390fd5b600160008473ffffffffffffffffffffffffffffffffffffffff1673ffffffffffffffffffffffffffffffffffffffff16815260200190815260200160002060050160009054906101000a900460ff161561232a576040517f08c379a0000000000000000000000000000000000000000000000000000000008152600401808060200182810382526025815260200180613b3a6025913960400191505060405180910390fd5b612332613963565b6040518060c0016040528084848080601f016020809104026020016040519081016040528093929190818152602001838380828437600081840152601f19601f8201169050808301925050505050505081526020018673ffffffffffffffffffffffffffffffffffffffff1681526020018573ffffffffffffffffffffffffffffffffffffffff16815260200160008152602001600015158152602001600015158152508160000181905250600181602001901515908115158152505080600160008673ffffffffffffffffffffffffffffffffffffffff1673ffffffffffffffffffffffffffffffffffffffff16815260200190815260200160002060008201518160000160008201518160000190805190602001906124549291906138b7565b5060208201518160010160006101000a81548173ffffffffffffffffffffffffffffffffffffffff021916908373ffffffffffffffffffffffffffffffffffffffff16021790555060408201518160020160006101000a81548173ffffffffffffffffffffffffffffffffffffffff021916908373ffffffffffffffffffffffffffffffffffffffff1602179055506060820151816003015560808201518160040160006101000a81548160ff02191690831515021790555060a08201518160040160016101000a81548160ff021916908315150217905550505060208201518160050160006101000a81548160ff021916908315150217905550905050600d600081819054906101000a900460ff168092919060010191906101000a81548160ff021916908360ff160217905550505050505050565b6060806125966135e9565b6000808573ffffffffffffffffffffffffffffffffffffffff1673ffffffffffffffffffffffffffffffffffffffff16815260200190815260200160002083815481106125df57fe5b906000526020600020906006020173__TransactionDataSet____________________63c233d7e890916040518263ffffffff1660e01b81526004018082815260200191505060006040518083038186803b15801561263d57600080fd5b505af4158015612651573d6000803e3d6000fd5b505050506040513d6000823e3d601f19601f82011682018060405250604081101561267b57600080fd5b81019080805164010000000081111561269357600080fd5b828101905060208101848111156126a957600080fd5b81518560018202830111640100000000821117156126c657600080fd5b505092919060200180516401000000008111156126e257600080fd5b828101905060208101848111156126f857600080fd5b815185600182028301116401000000008211171561271557600080fd5b5050929190505050915091509250929050565b6127306135e9565b600160008373ffffffffffffffffffffffffffffffffffffffff1673ffffffffffffffffffffffffffffffffffffffff16815260200190815260200160002060000173__VotingToken___________________________632bf6c95f9091836040518363ffffffff1660e01b815260040180838152602001821515151581526020019250505060006040518083038186803b1580156127ce57600080fd5b505af41580156127e2573d6000803e3d6000fd5b505050505050565b60011515600d60029054906101000a900460ff16151514612856576040517f08c379a0000000000000000000000000000000000000000000000000000000008152600401808060200182810382526027815260200180613b136027913960400191505060405180910390fd5b60008090505b8484905081101561293a57600473__Set___________________________________633c258048909187878581811061289157fe5b9050602002013573ffffffffffffffffffffffffffffffffffffffff166040518363ffffffff1660e01b8152600401808381526020018273ffffffffffffffffffffffffffffffffffffffff1673ffffffffffffffffffffffffffffffffffffffff1681526020019250505060006040518083038186803b15801561291557600080fd5b505af4158015612929573d6000803e3d6000fd5b50505050808060010191505061285c565b5060008090505b86869050811015612e0b5786868281811061295857fe5b9050602002013573ffffffffffffffffffffffffffffffffffffffff1673ffffffffffffffffffffffffffffffffffffffff16600960009054906101000a900473ffffffffffffffffffffffffffffffffffffffff1673ffffffffffffffffffffffffffffffffffffffff1614612dfe578173ffffffffffffffffffffffffffffffffffffffff1663331c4bed8888848181106129f157fe5b9050602002013573ffffffffffffffffffffffffffffffffffffffff16898985818110612a1a57fe5b9050602002013573ffffffffffffffffffffffffffffffffffffffff166040518363ffffffff1660e01b8152600401808373ffffffffffffffffffffffffffffffffffffffff1673ffffffffffffffffffffffffffffffffffffffff1681526020018273ffffffffffffffffffffffffffffffffffffffff1673ffffffffffffffffffffffffffffffffffffffff1681526020019250505060206040518083038186803b158015612aca57600080fd5b505afa158015612ade573d6000803e3d6000fd5b505050506040513d6020811015612af457600080fd5b8101908080519060200190929190505050612dfd5760008373ffffffffffffffffffffffffffffffffffffffff166314ee741f600860009054906101000a900473ffffffffffffffffffffffffffffffffffffffff168a8a86818110612b5657fe5b9050602002013573ffffffffffffffffffffffffffffffffffffffff166040518363ffffffff1660e01b8152600401808373ffffffffffffffffffffffffffffffffffffffff1673ffffffffffffffffffffffffffffffffffffffff1681526020018273ffffffffffffffffffffffffffffffffffffffff1673ffffffffffffffffffffffffffffffffffffffff1681526020019250505060206040518083038186803b158015612c0657600080fd5b505afa158015612c1a573d6000803e3d6000fd5b505050506040513d6020811015612c3057600080fd5b81019080805190602001909291905050501115612dfc57600473__Set___________________________________636aa90e979091898985818110612c7157fe5b9050602002013573ffffffffffffffffffffffffffffffffffffffff166040518363ffffffff1660e01b8152600401808381526020018273ffffffffffffffffffffffffffffffffffffffff1673ffffffffffffffffffffffffffffffffffffffff1681526020019250505060206040518083038186803b158015612cf557600080fd5b505af4158015612d09573d6000803e3d6000fd5b505050506040513d6020811015612d1f57600080fd5b8101908080519060200190929190505050612dfb57600273__Set___________________________________633c2580489091898985818110612d5e57fe5b9050602002013573ffffffffffffffffffffffffffffffffffffffff166040518363ffffffff1660e01b8152600401808381526020018273ffffffffffffffffffffffffffffffffffffffff1673ffffffffffffffffffffffffffffffffffffffff1681526020019250505060006040518083038186803b158015612de257600080fd5b505af4158015612df6573d6000803e3d6000fd5b505050505b5b5b5b8080600101915050612941565b506003600273__Set___________________________________63ea70683890916040518263ffffffff1660e01b81526004018082815260200191505060206040518083038186803b158015612e6057600080fd5b505af4158015612e74573d6000803e3d6000fd5b505050506040513d6020811015612e8a57600080fd5b81019080805190602001909291905050501015612ef2576040517f08c379a000000000000000000000000000000000000000000000000000000000815260040180806020018281038252602a815260200180613bc9602a913960400191505060405180910390fd5b6003600273__Set___________________________________63ea70683890916040518263ffffffff1660e01b81526004018082815260200191505060206040518083038186803b158015612f4657600080fd5b505af4158015612f5a573d6000803e3d6000fd5b505050506040513d6020811015612f7057600080fd5b8101908080519060200190929190505050878790500310612fdc576040517f08c379a000000000000000000000000000000000000000000000000000000000815260040180806020018281038252602d815260200180613aaf602d913960400191505060405180910390fd5b60028073__Set___________________________________63ea70683890916040518263ffffffff1660e01b81526004018082815260200191505060206040518083038186803b15801561302f57600080fd5b505af4158015613043573d6000803e3d6000fd5b505050506040513d602081101561305957600080fd5b810190808051906020019092919050505002600a8190555060608273ffffffffffffffffffffffffffffffffffffffff1663d2aeb0d2600860009054906101000a900473ffffffffffffffffffffffffffffffffffffffff16600960009054906101000a900473ffffffffffffffffffffffffffffffffffffffff166040518363ffffffff1660e01b8152600401808373ffffffffffffffffffffffffffffffffffffffff1673ffffffffffffffffffffffffffffffffffffffff1681526020018273ffffffffffffffffffffffffffffffffffffffff1673ffffffffffffffffffffffffffffffffffffffff16815260200192505050600060405180830381600087803b15801561316a57600080fd5b505af115801561317e573d6000803e3d6000fd5b505050506040513d6000823e3d601f19601f8201168201806040525060208110156131a857600080fd5b8101908080516401000000008111156131c057600080fd5b828101905060208101848111156131d657600080fd5b81518560208202830111640100000000821117156131f357600080fd5b5050929190505050905060008090505b815181101561344a57600273__Set___________________________________636aa90e97909184848151811061323657fe5b60200260200101516040518363ffffffff1660e01b8152600401808381526020018273ffffffffffffffffffffffffffffffffffffffff1673ffffffffffffffffffffffffffffffffffffffff1681526020019250505060206040518083038186803b1580156132a557600080fd5b505af41580156132b9573d6000803e3d6000fd5b505050506040513d60208110156132cf57600080fd5b81019080805190602001909291905050501580156133be5750600473__Set___________________________________636aa90e97909184848151811061331257fe5b60200260200101516040518363ffffffff1660e01b8152600401808381526020018273ffffffffffffffffffffffffffffffffffffffff1673ffffffffffffffffffffffffffffffffffffffff1681526020019250505060206040518083038186803b15801561338157600080fd5b505af4158015613395573d6000803e3d6000fd5b505050506040513d60208110156133ab57600080fd5b8101908080519060200190929190505050155b1561343d5760068282815181106133d157fe5b602002602001015190806001815401808255809150509060018203906000526020600020016000909192909190916101000a81548173ffffffffffffffffffffffffffffffffffffffff021916908373ffffffffffffffffffffffffffffffffffffffff160217905550505b8080600101915050613203565b50600273__Set___________________________________63ea70683890916040518263ffffffff1660e01b81526004018082815260200191505060206040518083038186803b15801561349d57600080fd5b505af41580156134b1573d6000803e3d6000fd5b505050506040513d60208110156134c757600080fd5b81019080805190602001909291905050506006805490501015613552576040517f08c379a00000000000000000000000000000000000000000000000000000000081526004018080602001828103825260208152602001807f496e76616c6964204e756d626572206f6620686176655472616465645769746881525060200191505060405180910390fd5b61355c600161182e565b50505050505050565b6000814244855a604051602001808581526020018481526020018373ffffffffffffffffffffffffffffffffffffffff1673ffffffffffffffffffffffffffffffffffffffff1660601b81526014018281526020019450505050506040516020818303038152906040528051906020012060001c816135e057fe5b06905092915050565b600273__Set___________________________________63ea70683890916040518263ffffffff1660e01b81526004018082815260200191505060206040518083038186803b15801561363b57600080fd5b505af415801561364f573d6000803e3d6000fd5b505050506040513d602081101561366557600080fd5b8101908080519060200190929190505050600d60009054906101000a900460ff1660ff16146136df576040517f08c379a0000000000000000000000000000000000000000000000000000000008152600401808060200182810382526025815260200180613a446025913960400191505060405180910390fd5b60008090505b600273__Set___________________________________63ea70683890916040518263ffffffff1660e01b81526004018082815260200191505060206040518083038186803b15801561373757600080fd5b505af415801561374b573d6000803e3d6000fd5b505050506040513d602081101561376157600080fd5b81019080805190602001909291905050508110156138b4576000806000600273__Set___________________________________6344f7330d9091866040518363ffffffff1660e01b8152600401808381526020018281526020019250505060206040518083038186803b1580156137d857600080fd5b505af41580156137ec573d6000803e3d6000fd5b505050506040513d602081101561380257600080fd5b810190808051906020019092919050505073ffffffffffffffffffffffffffffffffffffffff1673ffffffffffffffffffffffffffffffffffffffff16815260200190815260200160002080549050116138a7576040517f08c379a0000000000000000000000000000000000000000000000000000000008152600401808060200182810382526033815260200180613a116033913960400191505060405180910390fd5b80806001019150506136e5565b50565b828054600181600116156101000203166002900490600052602060002090601f016020900481019282601f106138f857805160ff1916838001178555613926565b82800160010185558215613926579182015b8281111561392557825182559160200191906001019061390a565b5b5090506139339190613985565b5090565b81548183558181111561395e5781836000526020600020918201910161395d9190613985565b5b505050565b6040518060e001604052806139766139aa565b81526020016000151581525090565b6139a791905b808211156139a357600081600090555060010161398b565b5090565b90565b6040518060c0016040528060608152602001600073ffffffffffffffffffffffffffffffffffffffff168152602001600073ffffffffffffffffffffffffffffffffffffffff16815260200160008152602001600015158152602001600015158152509056fe4e6577206163636f756e7420686173206e6f74207368617265642064617461207769746820616c6c20766f746572732079657448617665206e6f74206372656174656420616c6c2074686520566f74696e67546f6b656e734e6f7420456e6f7567682066756e647320666f7220746869732050726f706f73616c5468657265206973206e6f207472616e73616374696f6e206461746120746f2076696577596f7520696e6469636174656420746f30206d616e7920696e76616c696420747261646520706172746e657273547261646520706172746e6572732068617665206e6f74206265656e20616464656420746f2074686973207965742070726f706f73616c546869732070726f706f73616c20686173206e6f74206265656e207061696420666f72207965745468697320766f74657220616c726561647920686173206120766f74696e6720746f6b656e43616e206e6f74207665746f20616e79206d6f72652072616e646f6d20766f7465727343616e206e6f74207665746f207468697320766f7465722062656361757365207468657265206973206e6f7420656e6f75676820747261646520706172746e657273206c656674496e76616c6964204e756d626572206f6620696e6469636174656420747261646520706172746e657273a165627a7a7230582046cc9490a90d1bd7e916a71489170ae25ecca6591773c7a7c35afd6613a1fb3000294f6e6365206f66207468657365206163636f756e74732061726520626c61636b6c6973746564546865726520616c72656164792065786973747320612050726f706f73616c20666f722074686973206163636f756e74a165627a7a72305820de5ec5cdaaad5ff6ffab3dcb9043238250df7273ede8669ff732a7d508f93c7c0029",
  "source": "/* ProposalCreator.sol */\r\n\r\npragma solidity >=0.4.0 <0.7.0;\r\n\r\nimport \"../contracts/UserManager.sol\";\r\nimport \"../contracts/ProposalManager.sol\";\r\n\r\n/* <Summary> \r\n\tThis contract manages all active proposal as well as makes and concludes proposals.\r\n*/\r\n\r\ncontract ProposalCreator {\r\n\tUserManager UMI;\t\t\t\t// Connects to the list of users on the network\r\n\tTransactionManager TMI;\t\t\t// Connects to the transaction data on the network\r\n\tProposalManager PMI;\t\t\t// Connects to the transaction data on the network\r\n\r\n\t// Used to originally deploy the contract\r\n\tconstructor(address UserManagerAddress, address TransactionManagerAddress, address ProposalManagerAddress) public {\r\n\t\tUMI = UserManager(UserManagerAddress);\r\n\t\tTMI = TransactionManager(TransactionManagerAddress);\r\n\t\tPMI = ProposalManager(ProposalManagerAddress);\r\n\t}\r\n\t\r\n\tfunction StartProposal(address _oldAccount) external {\r\n\t\trequire (!PMI.getBlacklistedAccount(msg.sender, _oldAccount), \"Once of these accounts are blacklisted\");\r\n\t\trequire(PMI.validProposal(_oldAccount), \"There already exists a Proposal for this account\");\r\n\r\n\t\tuint balance = UMI.getUser(_oldAccount).balance();\r\n\t\tuint price = balance / 20;\r\n\r\n\t\t// Creates Proposal and adds it to the active proposal map\r\n\t\tPMI.AddActiveProposal(_oldAccount, msg.sender, new Proposal(_oldAccount, msg.sender, price));\r\n\t}\r\n\r\n\tfunction ViewPrice(address _oldAccount) external view returns (uint) {\r\n\t\treturn PMI.getActiveProposal(_oldAccount, msg.sender).price();\r\n\t}\r\n\r\n\tfunction Pay(address _oldAccount, bool _pay) external {\r\n\t\tif (_pay){\r\n\t\t\tPerson newAccount = UMI.getUser(msg.sender); // Finds the person in the network\r\n\t\t\tPMI.getActiveProposal(_oldAccount, msg.sender).Pay(newAccount);\r\n\t\t}else{\r\n\t\t\tPMI.archiveProposal(_oldAccount, msg.sender);\t\t// Deletes proposal\r\n\t\t}\r\n\t}\r\n\r\n\tfunction AddTradePartners(address _oldAccount, address[] calldata _tradePartners) external {\r\n\t\taddress[] memory archivedVoters = PMI.getArchivedVoter(_oldAccount);\r\n\t\tPMI.getActiveProposal(_oldAccount, msg.sender).AddTradePartners(_tradePartners, archivedVoters, TMI, PMI);\r\n\t}\r\n\r\n\tfunction getVoters(address _oldAccount) external view returns (address[] memory) {\r\n\t\treturn PMI.getActiveProposal(_oldAccount, msg.sender).getVoters();\r\n\t}\r\n\r\n\tfunction ViewRandomTradingPartner(address _oldAccount) external view returns (address) {\r\n\t\treturn PMI.getActiveProposal(_oldAccount, msg.sender).lastOtherPartner();\r\n\t}\r\n\r\n\tfunction RandomTradingPartner(address _oldAccount, bool _veto) external {\r\n\t\tPMI.getActiveProposal(_oldAccount, msg.sender).RandomTradingPartner(_veto);\r\n\t}\r\n\r\n\t// Finds proposal and makes voting token for a specified voter\r\n\tfunction MakeVotingToken(address oldAccount, address _voter, string calldata _description) external {\r\n\t\tProposal temp = PMI.getActiveProposal(oldAccount, msg.sender);\r\n\t\trequire(temp.ContainsVoter(_voter), \"Invalid Voter\");\r\n\t\ttemp.MakeVotingToken(oldAccount, _voter, _description);\r\n\t}\r\n\r\n\t// Makes a set of data for a transaction of one of the trade partners. Checks this data \r\n\tfunction MakeTransactionDataSet(address oldAccount, uint timeStamp, uint _amount, address _voter, \r\n\t\tstring calldata _description, string calldata _itemsInTrade) external {\r\n\t\tTMI.Equal(oldAccount, _voter, timeStamp, _amount);\r\n\r\n\t\tProposal temp = PMI.getActiveProposal(oldAccount, msg.sender);\r\n\t\trequire(temp.ContainsVoter(_voter), \"Invalid Voter\");\r\n\t\t// Finds proposal and creates set of data \r\n\t\ttemp.AddTransactionDataSet(timeStamp, _voter, _amount, _description, _itemsInTrade);\r\n\t}\r\n}\r\n\r\n// 6471200\r\n// 6568080",
  "sourcePath": "C:/Users/m5w5b/Desktop/GitHub/game-dapp/AccountRecovery/contracts/ProposalCreator.sol",
  "compiler": {
    "name": "solc",
    "version": "0.5.8+commit.23d335f2.Emscripten.clang"
  },
  "schemaVersion": "3.0.16",
  "updatedAt": "2019-11-06T18:46:10.954Z",
  "devdoc": {
    "methods": {}
  },
  "userdoc": {
    "methods": {}
  }
}