{
  "contractName": "Proposal",
  "abi": [
    {
      "constant": true,
      "inputs": [],
      "name": "lastOtherPartner",
      "outputs": [
        {
          "name": "",
          "type": "address"
        }
      ],
      "payable": false,
      "stateMutability": "view",
      "type": "function"
    },
    {
      "constant": true,
      "inputs": [],
      "name": "price",
      "outputs": [
        {
          "name": "",
          "type": "uint256"
        }
      ],
      "payable": false,
      "stateMutability": "view",
      "type": "function"
    },
    {
      "inputs": [
        {
          "name": "_price",
          "type": "uint256"
        }
      ],
      "payable": false,
      "stateMutability": "nonpayable",
      "type": "constructor"
    },
    {
      "constant": false,
      "inputs": [
        {
          "name": "_newAccount",
          "type": "address"
        }
      ],
      "name": "Pay",
      "outputs": [],
      "payable": false,
      "stateMutability": "nonpayable",
      "type": "function"
    },
    {
      "constant": false,
      "inputs": [
        {
          "name": "_newAccount",
          "type": "address"
        },
        {
          "name": "_oldAccount",
          "type": "address"
        },
        {
          "name": "_tradePartners",
          "type": "address[]"
        },
        {
          "name": "_archivedVoters",
          "type": "address[]"
        },
        {
          "name": "TMI",
          "type": "address"
        },
        {
          "name": "PMI",
          "type": "address"
        }
      ],
      "name": "AddTradePartners",
      "outputs": [],
      "payable": false,
      "stateMutability": "nonpayable",
      "type": "function"
    },
    {
      "constant": false,
      "inputs": [
        {
          "name": "_veto",
          "type": "bool"
        }
      ],
      "name": "RandomTradingPartner",
      "outputs": [],
      "payable": false,
      "stateMutability": "nonpayable",
      "type": "function"
    },
    {
      "constant": false,
      "inputs": [
        {
          "name": "_oldAccount",
          "type": "address"
        },
        {
          "name": "_timeStamp",
          "type": "uint256"
        },
        {
          "name": "_voter",
          "type": "address"
        },
        {
          "name": "_amount",
          "type": "uint256"
        },
        {
          "name": "_description",
          "type": "string"
        },
        {
          "name": "_itemsInTrade",
          "type": "string"
        }
      ],
      "name": "AddTransactionDataSet",
      "outputs": [],
      "payable": false,
      "stateMutability": "nonpayable",
      "type": "function"
    },
    {
      "constant": true,
      "inputs": [
        {
          "name": "_voter",
          "type": "address"
        },
        {
          "name": "i",
          "type": "uint256"
        }
      ],
      "name": "ViewPublicInformation",
      "outputs": [
        {
          "name": "",
          "type": "uint256"
        },
        {
          "name": "",
          "type": "uint256"
        },
        {
          "name": "",
          "type": "address"
        },
        {
          "name": "",
          "type": "address"
        }
      ],
      "payable": false,
      "stateMutability": "view",
      "type": "function"
    },
    {
      "constant": true,
      "inputs": [
        {
          "name": "_voter",
          "type": "address"
        },
        {
          "name": "i",
          "type": "uint256"
        }
      ],
      "name": "ViewPrivateInformation",
      "outputs": [
        {
          "name": "",
          "type": "string"
        },
        {
          "name": "",
          "type": "string"
        }
      ],
      "payable": false,
      "stateMutability": "view",
      "type": "function"
    },
    {
      "constant": false,
      "inputs": [
        {
          "name": "_voter",
          "type": "address"
        },
        {
          "name": "choice",
          "type": "bool"
        }
      ],
      "name": "CastVote",
      "outputs": [],
      "payable": false,
      "stateMutability": "nonpayable",
      "type": "function"
    },
    {
      "constant": false,
      "inputs": [
        {
          "name": "vetoTime",
          "type": "uint256"
        },
        {
          "name": "UMI",
          "type": "address"
        }
      ],
      "name": "ConcludeProposal",
      "outputs": [
        {
          "name": "",
          "type": "int256"
        }
      ],
      "payable": false,
      "stateMutability": "nonpayable",
      "type": "function"
    },
    {
      "constant": true,
      "inputs": [],
      "name": "getVoters",
      "outputs": [
        {
          "name": "",
          "type": "address[]"
        }
      ],
      "payable": false,
      "stateMutability": "view",
      "type": "function"
    },
    {
      "constant": true,
      "inputs": [
        {
          "name": "_voter",
          "type": "address"
        }
      ],
      "name": "ContainsVoter",
      "outputs": [
        {
          "name": "",
          "type": "bool"
        }
      ],
      "payable": false,
      "stateMutability": "view",
      "type": "function"
    }
  ],
  "bytecode": "0x60806040526003600b60016101000a81548160ff021916908360ff16021790555034801561002c57600080fd5b506040516020806135ce8339810180604052602081101561004c57600080fd5b8101908080519060200190929190505050806009819055505061355a806100746000396000f3fe608060405234801561001057600080fd5b50600436106100b45760003560e01c8063a035b1fe11610071578063a035b1fe14610461578063cdd722531461047f578063cde596b2146104de578063e628c2e014610522578063f91ac899146105f1578063fa041dd714610724576100b4565b8063137858a1146100b957806317a86a9f14610103578063363b39a2146102515780634f7ae4ae146102b357806376a3fab61461030f578063831dc76d1461033f575b600080fd5b6100c1610774565b604051808273ffffffffffffffffffffffffffffffffffffffff1673ffffffffffffffffffffffffffffffffffffffff16815260200191505060405180910390f35b61024f600480360360c081101561011957600080fd5b81019080803573ffffffffffffffffffffffffffffffffffffffff169060200190929190803573ffffffffffffffffffffffffffffffffffffffff1690602001909291908035906020019064010000000081111561017657600080fd5b82018360208201111561018857600080fd5b803590602001918460208302840111640100000000831117156101aa57600080fd5b9091929391929390803590602001906401000000008111156101cb57600080fd5b8201836020820111156101dd57600080fd5b803590602001918460208302840111640100000000831117156101ff57600080fd5b9091929391929390803573ffffffffffffffffffffffffffffffffffffffff169060200190929190803573ffffffffffffffffffffffffffffffffffffffff16906020019092919050505061079a565b005b61029d6004803603604081101561026757600080fd5b8101908080359060200190929190803573ffffffffffffffffffffffffffffffffffffffff16906020019092919050505061144e565b6040518082815260200191505060405180910390f35b6102f5600480360360208110156102c957600080fd5b81019080803573ffffffffffffffffffffffffffffffffffffffff169060200190929190505050611ece565b604051808215151515815260200191505060405180910390f35b61033d6004803603602081101561032557600080fd5b81019080803515159060200190929190505050611f98565b005b61045f600480360360c081101561035557600080fd5b81019080803573ffffffffffffffffffffffffffffffffffffffff16906020019092919080359060200190929190803573ffffffffffffffffffffffffffffffffffffffff16906020019092919080359060200190929190803590602001906401000000008111156103c657600080fd5b8201836020820111156103d857600080fd5b803590602001918460018302840111640100000000831117156103fa57600080fd5b90919293919293908035906020019064010000000081111561041b57600080fd5b82018360208201111561042d57600080fd5b8035906020019184600183028401116401000000008311171561044f57600080fd5b9091929391929390505050612567565b005b610469612973565b6040518082815260200191505060405180910390f35b610487612979565b6040518080602001828103825283818151815260200191508051906020019060200280838360005b838110156104ca5780820151818401526020810190506104af565b505050509050019250505060405180910390f35b610520600480360360208110156104f457600080fd5b81019080803573ffffffffffffffffffffffffffffffffffffffff169060200190929190505050612a63565b005b61056e6004803603604081101561053857600080fd5b81019080803573ffffffffffffffffffffffffffffffffffffffff16906020019092919080359060200190929190505050612bc9565b604051808581526020018481526020018373ffffffffffffffffffffffffffffffffffffffff1673ffffffffffffffffffffffffffffffffffffffff1681526020018273ffffffffffffffffffffffffffffffffffffffff1673ffffffffffffffffffffffffffffffffffffffff16815260200194505050505060405180910390f35b61063d6004803603604081101561060757600080fd5b81019080803573ffffffffffffffffffffffffffffffffffffffff16906020019092919080359060200190929190505050612dd6565b604051808060200180602001838103835285818151815260200191508051906020019080838360005b83811015610681578082015181840152602081019050610666565b50505050905090810190601f1680156106ae5780820380516001836020036101000a031916815260200191505b50838103825284818151815260200191508051906020019080838360005b838110156106e75780820151818401526020810190506106cc565b50505050905090810190601f1680156107145780820380516001836020036101000a031916815260200191505b5094505050505060405180910390f35b6107726004803603604081101561073a57600080fd5b81019080803573ffffffffffffffffffffffffffffffffffffffff169060200190929190803515159060200190929190505050613061565b005b600760009054906101000a900473ffffffffffffffffffffffffffffffffffffffff1681565b600b60029054906101000a900460ff166107ff576040517f08c379a00000000000000000000000000000000000000000000000000000000081526004018080602001828103825260278152602001806134696027913960400191505060405180910390fd5b60008090505b848490508110156108e357600473__Set___________________________________633c258048909187878581811061083a57fe5b9050602002013573ffffffffffffffffffffffffffffffffffffffff166040518363ffffffff1660e01b8152600401808381526020018273ffffffffffffffffffffffffffffffffffffffff1673ffffffffffffffffffffffffffffffffffffffff1681526020019250505060006040518083038186803b1580156108be57600080fd5b505af41580156108d2573d6000803e3d6000fd5b505050508080600101915050610805565b5060008090505b86869050811015610d145786868281811061090157fe5b9050602002013573ffffffffffffffffffffffffffffffffffffffff1673ffffffffffffffffffffffffffffffffffffffff168973ffffffffffffffffffffffffffffffffffffffff1614610d07578173ffffffffffffffffffffffffffffffffffffffff16634418adbc88888481811061097857fe5b9050602002013573ffffffffffffffffffffffffffffffffffffffff166040518263ffffffff1660e01b8152600401808273ffffffffffffffffffffffffffffffffffffffff1673ffffffffffffffffffffffffffffffffffffffff16815260200191505060206040518083038186803b1580156109f557600080fd5b505afa158015610a09573d6000803e3d6000fd5b505050506040513d6020811015610a1f57600080fd5b8101908080519060200190929190505050610d065760008373ffffffffffffffffffffffffffffffffffffffff166314ee741f8a8a8a86818110610a5f57fe5b9050602002013573ffffffffffffffffffffffffffffffffffffffff166040518363ffffffff1660e01b8152600401808373ffffffffffffffffffffffffffffffffffffffff1673ffffffffffffffffffffffffffffffffffffffff1681526020018273ffffffffffffffffffffffffffffffffffffffff1673ffffffffffffffffffffffffffffffffffffffff1681526020019250505060206040518083038186803b158015610b0f57600080fd5b505afa158015610b23573d6000803e3d6000fd5b505050506040513d6020811015610b3957600080fd5b81019080805190602001909291905050501115610d0557600473__Set___________________________________636aa90e979091898985818110610b7a57fe5b9050602002013573ffffffffffffffffffffffffffffffffffffffff166040518363ffffffff1660e01b8152600401808381526020018273ffffffffffffffffffffffffffffffffffffffff1673ffffffffffffffffffffffffffffffffffffffff1681526020019250505060206040518083038186803b158015610bfe57600080fd5b505af4158015610c12573d6000803e3d6000fd5b505050506040513d6020811015610c2857600080fd5b8101908080519060200190929190505050610d0457600273__Set___________________________________633c2580489091898985818110610c6757fe5b9050602002013573ffffffffffffffffffffffffffffffffffffffff166040518363ffffffff1660e01b8152600401808381526020018273ffffffffffffffffffffffffffffffffffffffff1673ffffffffffffffffffffffffffffffffffffffff1681526020019250505060006040518083038186803b158015610ceb57600080fd5b505af4158015610cff573d6000803e3d6000fd5b505050505b5b5b5b80806001019150506108ea565b506003600273__Set___________________________________63ea70683890916040518263ffffffff1660e01b81526004018082815260200191505060206040518083038186803b158015610d6957600080fd5b505af4158015610d7d573d6000803e3d6000fd5b505050506040513d6020811015610d9357600080fd5b81019080805190602001909291905050501015610dfb576040517f08c379a000000000000000000000000000000000000000000000000000000000815260040180806020018281038252602a815260200180613505602a913960400191505060405180910390fd5b6003600273__Set___________________________________63ea70683890916040518263ffffffff1660e01b81526004018082815260200191505060206040518083038186803b158015610e4f57600080fd5b505af4158015610e63573d6000803e3d6000fd5b505050506040513d6020811015610e7957600080fd5b8101908080519060200190929190505050878790500310610ee5576040517f08c379a000000000000000000000000000000000000000000000000000000000815260040180806020018281038252602d815260200180613398602d913960400191505060405180910390fd5b60028073__Set___________________________________63ea70683890916040518263ffffffff1660e01b81526004018082815260200191505060206040518083038186803b158015610f3857600080fd5b505af4158015610f4c573d6000803e3d6000fd5b505050506040513d6020811015610f6257600080fd5b81019080805190602001909291905050500260088190555060608273ffffffffffffffffffffffffffffffffffffffff16637f3d25de896040518263ffffffff1660e01b8152600401808273ffffffffffffffffffffffffffffffffffffffff1673ffffffffffffffffffffffffffffffffffffffff168152602001915050600060405180830381600087803b158015610ffb57600080fd5b505af115801561100f573d6000803e3d6000fd5b505050506040513d6000823e3d601f19601f82011682018060405250602081101561103957600080fd5b81019080805164010000000081111561105157600080fd5b8281019050602081018481111561106757600080fd5b815185602082028301116401000000008211171561108457600080fd5b5050929190505050905060008090505b815181101561131c578181815181106110a957fe5b602002602001015173ffffffffffffffffffffffffffffffffffffffff168a73ffffffffffffffffffffffffffffffffffffffff161461130f57600273__Set___________________________________636aa90e97909184848151811061110d57fe5b60200260200101516040518363ffffffff1660e01b8152600401808381526020018273ffffffffffffffffffffffffffffffffffffffff1673ffffffffffffffffffffffffffffffffffffffff1681526020019250505060206040518083038186803b15801561117c57600080fd5b505af4158015611190573d6000803e3d6000fd5b505050506040513d60208110156111a657600080fd5b810190808051906020019092919050505061130e57600473__Set___________________________________636aa90e9790918484815181106111e557fe5b60200260200101516040518363ffffffff1660e01b8152600401808381526020018273ffffffffffffffffffffffffffffffffffffffff1673ffffffffffffffffffffffffffffffffffffffff1681526020019250505060206040518083038186803b15801561125457600080fd5b505af4158015611268573d6000803e3d6000fd5b505050506040513d602081101561127e57600080fd5b810190808051906020019092919050505061130d5760068282815181106112a157fe5b602002602001015190806001815401808255809150509060018203906000526020600020016000909192909190916101000a81548173ffffffffffffffffffffffffffffffffffffffff021916908373ffffffffffffffffffffffffffffffffffffffff160217905550505b5b5b8080600101915050611094565b50600273__Set___________________________________63ea70683890916040518263ffffffff1660e01b81526004018082815260200191505060206040518083038186803b15801561136f57600080fd5b505af4158015611383573d6000803e3d6000fd5b505050506040513d602081101561139957600080fd5b81019080805190602001909291905050506006805490501015611407576040517f08c379a00000000000000000000000000000000000000000000000000000000081526004018080602001828103825260268152602001806133c56026913960400191505060405180910390fd5b6114116001611f98565b600b600181819054906101000a900460ff168092919060010191906101000a81548160ff021916908360ff16021790555050505050505050505050565b6000600273__Set___________________________________63ea70683890916040518263ffffffff1660e01b81526004018082815260200191505060206040518083038186803b1580156114a257600080fd5b505af41580156114b6573d6000803e3d6000fd5b505050506040513d60208110156114cc57600080fd5b8101908080519060200190929190505050600b60009054906101000a900460ff1660ff1614611546576040517f08c379a00000000000000000000000000000000000000000000000000000000081526004018080602001828103825260258152602001806133eb6025913960400191505060405180910390fd5b600a54420383111561157a577fffffffffffffffffffffffffffffffffffffffffffffffffffffffffffffffff9050611ec8565b60008090506000809050600080905060008090505b600273__Set___________________________________63ea70683890916040518263ffffffff1660e01b81526004018082815260200191505060206040518083038186803b1580156115e157600080fd5b505af41580156115f5573d6000803e3d6000fd5b505050506040513d602081101561160b57600080fd5b81019080805190602001909291905050508110156118cc57600060016000600273__Set___________________________________6344f7330d9091866040518363ffffffff1660e01b8152600401808381526020018281526020019250505060206040518083038186803b15801561168357600080fd5b505af4158015611697573d6000803e3d6000fd5b505050506040513d60208110156116ad57600080fd5b810190808051906020019092919050505073ffffffffffffffffffffffffffffffffffffffff1673ffffffffffffffffffffffffffffffffffffffff16815260200190815260200160002090508073__VotingToken___________________________63ffef631c90916040518263ffffffff1660e01b81526004018082815260200191505060206040518083038186803b15801561174b57600080fd5b505af415801561175f573d6000803e3d6000fd5b505050506040513d602081101561177557600080fd5b8101908080519060200190929190505050830192508073__VotingToken___________________________63117d52aa90916040518263ffffffff1660e01b81526004018082815260200191505060206040518083038186803b1580156117db57600080fd5b505af41580156117ef573d6000803e3d6000fd5b505050506040513d602081101561180557600080fd5b8101908080519060200190929190505050156118be5784806001019550508073__VotingToken___________________________63fb84fe7b90916040518263ffffffff1660e01b81526004018082815260200191505060206040518083038186803b15801561187457600080fd5b505af4158015611888573d6000803e3d6000fd5b505050506040513d602081101561189e57600080fd5b8101908080519060200190929190505050156118bd5783806001019450505b5b50808060010191505061158f565b50600583101561191c576202a300600a54420311156118f157603c9350505050611ec8565b7ffffffffffffffffffffffffffffffffffffffffffffffffffffffffffffffffe9350505050611ec8565b6000604284846064028161192c57fe5b0410159050600060029050600060029050600060019050600087868161194e57fe5b04905060008090505b600273__Set___________________________________63ea70683890916040518263ffffffff1660e01b81526004018082815260200191505060206040518083038186803b1580156119a957600080fd5b505af41580156119bd573d6000803e3d6000fd5b505050506040513d60208110156119d357600080fd5b8101908080519060200190929190505050811015611eaf57600060016000600273__Set___________________________________6344f7330d9091866040518363ffffffff1660e01b8152600401808381526020018281526020019250505060206040518083038186803b158015611a4b57600080fd5b505af4158015611a5f573d6000803e3d6000fd5b505050506040513d6020811015611a7557600080fd5b810190808051906020019092919050505073ffffffffffffffffffffffffffffffffffffffff1673ffffffffffffffffffffffffffffffffffffffff16815260200190815260200160002090508073__VotingToken___________________________63117d52aa90916040518263ffffffff1660e01b81526004018082815260200191505060206040518083038186803b158015611b1357600080fd5b505af4158015611b27573d6000803e3d6000fd5b505050506040513d6020811015611b3d57600080fd5b810190808051906020019092919050505015611ea15760008a8760095481611b6157fe5b0481611b6957fe5b0490508173__VotingToken___________________________63fb84fe7b90916040518263ffffffff1660e01b81526004018082815260200191505060206040518083038186803b158015611bbd57600080fd5b505af4158015611bd1573d6000803e3d6000fd5b505050506040513d6020811015611be757600080fd5b810190808051906020019092919050505015158815151415611c44578715611c2757898660095481611c1557fe5b0481611c1d57fe5b0481019050611c43565b898b038660095481611c3557fe5b0481611c3d57fe5b04810190505b5b848273__VotingToken___________________________63ffef631c90916040518263ffffffff1660e01b81526004018082815260200191505060206040518083038186803b158015611c9657600080fd5b505af4158015611caa573d6000803e3d6000fd5b505050506040513d6020811015611cc057600080fd5b8101908080519060200190929190505050850381611cda57fe5b04810190506000811115611e9f578c73ffffffffffffffffffffffffffffffffffffffff16636f77926b600273__Set___________________________________6344f7330d9091876040518363ffffffff1660e01b8152600401808381526020018281526020019250505060206040518083038186803b158015611d5e57600080fd5b505af4158015611d72573d6000803e3d6000fd5b505050506040513d6020811015611d8857600080fd5b81019080805190602001909291905050506040518263ffffffff1660e01b8152600401808273ffffffffffffffffffffffffffffffffffffffff1673ffffffffffffffffffffffffffffffffffffffff16815260200191505060206040518083038186803b158015611df957600080fd5b505afa158015611e0d573d6000803e3d6000fd5b505050506040513d6020811015611e2357600080fd5b810190808051906020019092919050505073ffffffffffffffffffffffffffffffffffffffff16633e4ccb40826040518263ffffffff1660e01b815260040180828152602001915050600060405180830381600087803b158015611e8657600080fd5b505af1158015611e9a573d6000803e3d6000fd5b505050505b505b508080600101915050611957565b50878760640281611ebc57fe5b04985050505050505050505b92915050565b6000600273__Set___________________________________636aa90e979091846040518363ffffffff1660e01b8152600401808381526020018273ffffffffffffffffffffffffffffffffffffffff1673ffffffffffffffffffffffffffffffffffffffff1681526020019250505060206040518083038186803b158015611f5657600080fd5b505af4158015611f6a573d6000803e3d6000fd5b505050506040513d6020811015611f8057600080fd5b81019080805190602001909291905050509050919050565b60006008541415611ff4576040517f08c379a00000000000000000000000000000000000000000000000000000000081526004018080602001828103825260378152602001806134326037913960400191505060405180910390fd5b8061221457600273__Set___________________________________636aa90e979091600760009054906101000a900473ffffffffffffffffffffffffffffffffffffffff166040518363ffffffff1660e01b8152600401808381526020018273ffffffffffffffffffffffffffffffffffffffff1673ffffffffffffffffffffffffffffffffffffffff1681526020019250505060206040518083038186803b1580156120a157600080fd5b505af41580156120b5573d6000803e3d6000fd5b505050506040513d60208110156120cb57600080fd5b81019080805190602001909291905050501561214f576040517f08c379a000000000000000000000000000000000000000000000000000000000815260040180806020018281038252601a8152602001807f416c72656164792061646465642074686174206164647265737300000000000081525060200191505060405180910390fd5b600273__Set___________________________________633c2580489091600760009054906101000a900473ffffffffffffffffffffffffffffffffffffffff166040518363ffffffff1660e01b8152600401808381526020018273ffffffffffffffffffffffffffffffffffffffff1673ffffffffffffffffffffffffffffffffffffffff1681526020019250505060006040518083038186803b1580156121f757600080fd5b505af415801561220b573d6000803e3d6000fd5b50505050612248565b600b600181819054906101000a900460ff16809291906001900391906101000a81548160ff021916908360ff160217905550505b600854600273__Set___________________________________63ea70683890916040518263ffffffff1660e01b81526004018082815260200191505060206040518083038186803b15801561229d57600080fd5b505af41580156122b1573d6000803e3d6000fd5b505050506040513d60208110156122c757600080fd5b810190808051906020019092919050505014612564576000600b60019054906101000a900460ff1660ff1611612348576040517f08c379a000000000000000000000000000000000000000000000000000000000815260040180806020018281038252602e815260200180613490602e913960400191505060405180910390fd5b6000600680549050116123a6576040517f08c379a00000000000000000000000000000000000000000000000000000000081526004018080602001828103825260478152602001806134be6047913960600191505060405180910390fd5b60006123d9600760009054906101000a900473ffffffffffffffffffffffffffffffffffffffff16600680549050613242565b60ff169050600681815481106123eb57fe5b9060005260206000200160009054906101000a900473ffffffffffffffffffffffffffffffffffffffff16600760006101000a81548173ffffffffffffffffffffffffffffffffffffffff021916908373ffffffffffffffffffffffffffffffffffffffff16021790555060008190505b600160068054905003811015612509576006600182018154811061247c57fe5b9060005260206000200160009054906101000a900473ffffffffffffffffffffffffffffffffffffffff16600682815481106124b457fe5b9060005260206000200160006101000a81548173ffffffffffffffffffffffffffffffffffffffff021916908373ffffffffffffffffffffffffffffffffffffffff160217905550808060010191505061245c565b5060066001600680549050038154811061251f57fe5b9060005260206000200160006101000a81549073ffffffffffffffffffffffffffffffffffffffff0219169055600680548091906001900361256191906132c6565b50505b50565b60008060008873ffffffffffffffffffffffffffffffffffffffff1673ffffffffffffffffffffffffffffffffffffffff1681526020019081526020016000208054905014156127405760405180606001604052806000815260200160001515815260200160001515815250600160008873ffffffffffffffffffffffffffffffffffffffff1673ffffffffffffffffffffffffffffffffffffffff1681526020019081526020016000206000820151816000015560208201518160010160006101000a81548160ff02191690831515021790555060408201518160010160016101000a81548160ff021916908315150217905550905050600b600081819054906101000a900460ff168092919060010191906101000a81548160ff021916908360ff16021790555050600273__Set___________________________________63ea70683890916040518263ffffffff1660e01b81526004018082815260200191505060206040518083038186803b1580156126e357600080fd5b505af41580156126f7573d6000803e3d6000fd5b505050506040513d602081101561270d57600080fd5b8101908080519060200190929190505050600b60009054906101000a900460ff1660ff16141561273f5742600a819055505b5b6000808773ffffffffffffffffffffffffffffffffffffffff1673ffffffffffffffffffffffffffffffffffffffff1681526020019081526020016000206040518060c0016040528086868080601f016020809104026020016040519081016040528093929190818152602001838380828437600081840152601f19601f82011690508083019250505050505050815260200184848080601f016020809104026020016040519081016040528093929190818152602001838380828437600081840152601f19601f8201169050808301925050505050505081526020018a73ffffffffffffffffffffffffffffffffffffffff1681526020018873ffffffffffffffffffffffffffffffffffffffff168152602001898152602001878152509080600181540180825580915050906001820390600052602060002090600602016000909192909190915060008201518160000190805190602001906128a69291906132f2565b5060208201518160010190805190602001906128c39291906132f2565b5060408201518160020160006101000a81548173ffffffffffffffffffffffffffffffffffffffff021916908373ffffffffffffffffffffffffffffffffffffffff16021790555060608201518160030160006101000a81548173ffffffffffffffffffffffffffffffffffffffff021916908373ffffffffffffffffffffffffffffffffffffffff1602179055506080820151816004015560a082015181600501555050505050505050505050565b60095481565b6060600273__Set___________________________________639fa87cd190916040518263ffffffff1660e01b81526004018082815260200191505060006040518083038186803b1580156129cd57600080fd5b505af41580156129e1573d6000803e3d6000fd5b505050506040513d6000823e3d601f19601f820116820180604052506020811015612a0b57600080fd5b810190808051640100000000811115612a2357600080fd5b82810190506020810184811115612a3957600080fd5b8151856020820283011164010000000082111715612a5657600080fd5b5050929190505050905090565b6009548173ffffffffffffffffffffffffffffffffffffffff1663b69ef8a86040518163ffffffff1660e01b815260040160206040518083038186803b158015612aac57600080fd5b505afa158015612ac0573d6000803e3d6000fd5b505050506040513d6020811015612ad657600080fd5b81019080805190602001909291905050501015612b3e576040517f08c379a00000000000000000000000000000000000000000000000000000000081526004018080602001828103825260228152602001806134106022913960400191505060405180910390fd5b8073ffffffffffffffffffffffffffffffffffffffff1663392aee436009546040518263ffffffff1660e01b815260040180828152602001915050600060405180830381600087803b158015612b9357600080fd5b505af1158015612ba7573d6000803e3d6000fd5b505050506001600b60026101000a81548160ff02191690831515021790555050565b600080600080600273__Set___________________________________63ea70683890916040518263ffffffff1660e01b81526004018082815260200191505060206040518083038186803b158015612c2157600080fd5b505af4158015612c35573d6000803e3d6000fd5b505050506040513d6020811015612c4b57600080fd5b8101908080519060200190929190505050600b60009054906101000a900460ff1660ff1614612cc5576040517f08c379a00000000000000000000000000000000000000000000000000000000081526004018080602001828103825260258152602001806133eb6025913960400191505060405180910390fd5b6000808773ffffffffffffffffffffffffffffffffffffffff1673ffffffffffffffffffffffffffffffffffffffff1681526020019081526020016000208581548110612d0e57fe5b906000526020600020906006020173__TransactionDataSet____________________63b18e919690916040518263ffffffff1660e01b81526004018082815260200191505060806040518083038186803b158015612d6c57600080fd5b505af4158015612d80573d6000803e3d6000fd5b505050506040513d6080811015612d9657600080fd5b8101908080519060200190929190805190602001909291908051906020019092919080519060200190929190505050935093509350935092959194509250565b606080600273__Set___________________________________63ea70683890916040518263ffffffff1660e01b81526004018082815260200191505060206040518083038186803b158015612e2b57600080fd5b505af4158015612e3f573d6000803e3d6000fd5b505050506040513d6020811015612e5557600080fd5b8101908080519060200190929190505050600b60009054906101000a900460ff1660ff1614612ecf576040517f08c379a00000000000000000000000000000000000000000000000000000000081526004018080602001828103825260258152602001806133eb6025913960400191505060405180910390fd5b6000808573ffffffffffffffffffffffffffffffffffffffff1673ffffffffffffffffffffffffffffffffffffffff1681526020019081526020016000208381548110612f1857fe5b906000526020600020906006020173__TransactionDataSet____________________63c233d7e890916040518263ffffffff1660e01b81526004018082815260200191505060006040518083038186803b158015612f7657600080fd5b505af4158015612f8a573d6000803e3d6000fd5b505050506040513d6000823e3d601f19601f820116820180604052506040811015612fb457600080fd5b810190808051640100000000811115612fcc57600080fd5b82810190506020810184811115612fe257600080fd5b8151856001820283011164010000000082111715612fff57600080fd5b5050929190602001805164010000000081111561301b57600080fd5b8281019050602081018481111561303157600080fd5b815185600182028301116401000000008211171561304e57600080fd5b5050929190505050915091509250929050565b600273__Set___________________________________63ea70683890916040518263ffffffff1660e01b81526004018082815260200191505060206040518083038186803b1580156130b357600080fd5b505af41580156130c7573d6000803e3d6000fd5b505050506040513d60208110156130dd57600080fd5b8101908080519060200190929190505050600b60009054906101000a900460ff1660ff1614613157576040517f08c379a00000000000000000000000000000000000000000000000000000000081526004018080602001828103825260258152602001806133eb6025913960400191505060405180910390fd5b600160008373ffffffffffffffffffffffffffffffffffffffff1673ffffffffffffffffffffffffffffffffffffffff16815260200190815260200160002073__VotingToken___________________________639a5a2a11909184846040518463ffffffff1660e01b8152600401808481526020018373ffffffffffffffffffffffffffffffffffffffff1673ffffffffffffffffffffffffffffffffffffffff16815260200182151515158152602001935050505060006040518083038186803b15801561322657600080fd5b505af415801561323a573d6000803e3d6000fd5b505050505050565b6000814244855a604051602001808581526020018481526020018373ffffffffffffffffffffffffffffffffffffffff1673ffffffffffffffffffffffffffffffffffffffff1660601b81526014018281526020019450505050506040516020818303038152906040528051906020012060001c816132bd57fe5b06905092915050565b8154818355818111156132ed578183600052602060002091820191016132ec9190613372565b5b505050565b828054600181600116156101000203166002900490600052602060002090601f016020900481019282601f1061333357805160ff1916838001178555613361565b82800160010185558215613361579182015b82811115613360578251825591602001919060010190613345565b5b50905061336e9190613372565b5090565b61339491905b80821115613390576000816000905550600101613378565b5090565b9056fe596f7520696e6469636174656420746f6f206d616e7920696e76616c696420747261646520706172746e657273496e76616c6964206e756d626572206f66206f7468657220747261646520706172746e65727348617665206e6f74206372656174656420616c6c2074686520566f74696e67546f6b656e734e6f7420456e6f7567682066756e647320666f7220746869732050726f706f73616c547261646520706172746e6572732068617665206e6f74206265656e20616464656420746f2074686973207965742070726f706f73616c546869732070726f706f73616c20686173206e6f74206265656e207061696420666f722079657443616e206e6f74207665746f20616e79206d6f72652072616e646f6d6c792073656c656374656420766f7465727343616e206e6f74207665746f207468697320766f7465722062656361757365207468657265206973206e6f7420656e6f75676820747261646520706172746e657273206c656674496e76616c6964204e756d626572206f6620696e6469636174656420747261646520706172746e657273a165627a7a72305820dd697b88980327979ecfaa0df3d69e4d73ad8fa0c8c38d7ba1b511064d35b37b0029",
  "source": "/* Proposal.sol */\r\n\r\npragma solidity >=0.4.0 <0.7.0;\r\n\r\nimport \"../contracts/Person.sol\";\r\nimport \"../contracts/UserManager.sol\";\r\n\r\nimport \"../contracts/Set.sol\";\r\nimport \"../contracts/VotingToken.sol\";\r\nimport \"../contracts/TransactionDataSet.sol\";\r\n\r\n/* <Summary> \r\n\tThis contract manages one active proposal: Pays for proposal, Adds indicated \r\n\t trade partners, finds random voters, manages transaction data, casts votes, \r\n\t tallies votes, and give rewards\r\n*/\r\n\r\ncontract Proposal {\r\n\tusing Set for Set.AddressData;\t\t\t\t\t// Set of addresses\r\n\tusing VotingToken for VotingToken.Token;\t\t// Voting token\r\n\t// Struct full of transaction data\r\n\tusing TransactionDataSet for TransactionDataSet.DataSet;\r\n\r\n\t// Map of lists of transaction data. [voter] -> list of data\r\n\tmapping (address => TransactionDataSet.DataSet[]) transactionDataSets;\r\n\t// Map of voting tokens. [voter] -> voting token\r\n\tmapping (address => VotingToken.Token) votingtokens;\r\n\r\n\tSet.AddressData voters;\t\t\t\t// Addresses who are eligible to vote\r\n\tSet.AddressData archivedVoters;\t\t// Archived voters from past proposals\r\n\r\n\taddress[] haveTradedWith;\t\t\t// all of old accounts trading partners\r\n\r\n\taddress public lastOtherPartner;\t// Last randomly selected voter\r\n\t\r\n\tuint numberOfVoters;\t\t\t\t// Number of required voters\r\n\tuint public price;\t\t\t\t\t// Price of the account recovery\r\n\tuint startTime;\t\t\t\t\t\t// The start of voting\r\n\tuint8 VotingTokensCreated;\t\t\t// Number of Voting tokens created\r\n\tuint8 randomVoterVetos = 3;\t\t\t// Number of vetos left\r\n\tbool paided;\t\t\t\t\t\t// If the user has paid yet\r\n\r\n\tconstructor(uint _price) public {\r\n\t\tprice = _price;\t\t\t\t\t// Price of the proposal\r\n\t}\r\n\r\n\t// Allows the new account to pay for the proposal\r\n\tfunction Pay(Person _newAccount) external {\r\n\t\trequire(_newAccount.balance() >= price, \"Not Enough funds for this Proposal\");\r\n\t\t_newAccount.decreaseBalance(price);\t\t// Removes money from the new account\r\n\t\tpaided = true;\t\t\t\t\t\t\t// The proposal has been paid for\r\n\t}\r\n\r\n\tfunction AddTradePartners(address _newAccount, address _oldAccount, \r\n\t\t\taddress[] calldata _tradePartners, address[] calldata _archivedVoters, \r\n\t\t\tTransactionManager TMI, ProposalManager PMI) external {\r\n\r\n\t\t// Checks that the new account has paid\r\n\t\trequire(paided, \"This proposal has not been paid for yet\");\r\n\r\n\t\t// Creates the archivedVoters set\r\n\t\tfor (uint i = 0; i < _archivedVoters.length; i++){\r\n\t\t\tarchivedVoters.insert(_archivedVoters[i]);\r\n\t\t}\r\n\r\n\t\t// Checks given trade partners and sets them as voters\r\n\t\tfor (uint i = 0; i < _tradePartners.length; i++){\t// For each given partner\r\n\r\n\t\t\t// The new account can not be a voter\r\n\t\t\tif (_newAccount != _tradePartners[i]){\r\n\r\n\t\t\t\t// Checks if the trade partner is black listed\t\t\r\n\t\t\t\tif (!PMI.getBlacklistedAccount(_tradePartners[i])){\r\n\r\n\t\t\t\t\t// Makes sure they are actually trade partners\r\n\t\t\t\t\tif (TMI.NumberOfTransactions(_oldAccount, _tradePartners[i]) > 0){\r\n\r\n\t\t\t\t\t\t// Voter was a voter in a past proposal for this account\r\n\t\t\t\t\t\tif (!archivedVoters.contains(_tradePartners[i])){\r\n\r\n\t\t\t\t\t\t\t// Make the trade partner a voter\r\n\t\t\t\t\t\t\tvoters.insert(_tradePartners[i]);\r\n\t\t\t\t\t\t}\r\n\t\t\t\t\t}\r\n\t\t\t\t}\r\n\t\t\t}\r\n\t\t}\r\n\r\n\t\t// Requires at least 3 indicated valid voters \r\n\t\trequire(voters.getValuesLength() >= 3, \r\n\t\t\t\"Invalid Number of indicated trade partners\");\r\n\r\n\t\t// Requires a maximum of 3 invlaid indicated trade partners\r\n\t\trequire(_tradePartners.length - voters.getValuesLength() < 3, \r\n\t\t\t\"You indicated too many invalid trade partners\");\r\n\r\n\t\t// Sets the required number of voters\r\n\t\tnumberOfVoters = voters.getValuesLength() * 2;\r\n\r\n\t\t// Finds all of the old accounts's trade partners\r\n\t\taddress[] memory _haveTradedWith = TMI.getHaveTradedWith(_oldAccount);\r\n\r\n\t\t// Checks if these trade partners are valid to be randomly selected voters\r\n\t\tfor (uint i = 0; i < _haveTradedWith.length; i++){\t\t// For each address\r\n\r\n\t\t\t// The new account can not be a voter\r\n\t\t\tif (_newAccount != _haveTradedWith[i]){\r\n\r\n\t\t\t\t// The were not already indicated as a voter\r\n\t\t\t\tif (!voters.contains(_haveTradedWith[i])){\r\n\r\n\t\t\t\t\t// They were not a voter in a past proposal for this account\r\n\t\t\t\t\tif (!archivedVoters.contains(_haveTradedWith[i]) ){\r\n\r\n\t\t\t\t\t\t// This address is an eligible voter\r\n\t\t\t\t\t\thaveTradedWith.push(_haveTradedWith[i]);\t\t\t\t\r\n\t\t\t\t\t}\r\n\t\t\t\t}\r\n\t\t\t}\r\n\t\t}\r\n\r\n\t\trequire(haveTradedWith.length >= voters.getValuesLength(), \r\n\t\t\t\"Invalid number of other trade partners\");\r\n\r\n\t\t// Find the first randomly selected voter\r\n\t\tRandomTradingPartner(true);\r\n\t\trandomVoterVetos++;\r\n\t}\r\n\r\n\t// Adds last randomly selected voter and finds the next one\r\n\tfunction RandomTradingPartner(bool _veto) public {\r\n\r\n\t\trequire(numberOfVoters != 0, \r\n\t\t\t\"Trade partners have not been added to this yet proposal\");\r\n\r\n\t\t// The new account remembers their transaction with this account\r\n\t\tif (!_veto){\r\n\r\n\t\t\t// This voter has not already been added to be a voter\r\n\t\t\trequire(!voters.contains(lastOtherPartner), \"Already added that address\");\r\n\r\n\t\t\t// Makes the selected trade partner a voter\r\n\t\t\tvoters.insert(lastOtherPartner);\r\n\t\t}else{\r\n\t\t\trandomVoterVetos--;\r\n\t\t}\r\n\r\n\t\t// Select another trade partner randomly \r\n\t\tif (voters.getValuesLength() != numberOfVoters){ \t// Needs to find more partners\r\n\t\t\trequire(randomVoterVetos > 0, \r\n\t\t\t\t\"Can not veto any more randomly selected voters\");\r\n\t\t\trequire(haveTradedWith.length > 0, \r\n\t\t\t\t\"Can not veto this voter because there is not enough trade partners left\");\r\n\r\n\t\t\t// Finds a random index in the haveTradedWith array\r\n\t\t\tuint index = random(lastOtherPartner, haveTradedWith.length);\r\n\t\t\t\r\n\t\t\t// Finds the randomly selected trade partner\r\n\t\t\tlastOtherPartner = haveTradedWith[index];\r\n\r\n\t\t\t// Remove this trade partner from the list\r\n\t\t\tfor (uint i = index; i < haveTradedWith.length - 1; i++){\r\n\t\t\t\thaveTradedWith[i] = haveTradedWith[i+1];  \t// Shift other address\r\n\t\t\t}\r\n\t\t\tdelete haveTradedWith[haveTradedWith.length-1]; // Remove address\r\n\t\t\thaveTradedWith.length--;\t\t\t\t\t\t// Reduce size\r\n\t\t}\r\n\t}\r\n\r\n\t// Add set of data for a give transaction for a give voter\r\n\tfunction AddTransactionDataSet(address _oldAccount, uint _timeStamp, \r\n\t\t\taddress _voter, uint _amount, string calldata _description, \r\n\t\t\tstring calldata _itemsInTrade) external {\r\n\r\n\t\t// If this is the first set transaction data being added for this voter\r\n\t\tif (transactionDataSets[_voter].length == 0){\r\n\r\n\t\t\t// Create a voting token for this voter\r\n\t\t\tvotingtokens[_voter] = VotingToken.Token(0, false, false);\r\n\t\t\tVotingTokensCreated++;\r\n\r\n\t\t\t// If all voters are able to vote now\r\n\t\t\tif (VotingTokensCreated == voters.getValuesLength()){\r\n\t\t\t\tstartTime = block.timestamp;\t// Start the timer on the voters\r\n\t\t\t}\r\n\t\t}\r\n\r\n\t\t// Create the data set and add it to the list for this voter\r\n\t\ttransactionDataSets[_voter].push(TransactionDataSet.DataSet(\r\n\t\t\t_description, _itemsInTrade, _oldAccount, _voter, _timeStamp, _amount));\r\n\t}\r\n\r\n\t// View public information on a set of data for a transaction\r\n\tfunction ViewPublicInformation( address _voter, uint i) \r\n\t\texternal view returns (uint, uint, address, address) {\r\n\r\n\t\t// Require that all voters are able to voter\r\n\t\trequire(VotingTokensCreated == voters.getValuesLength(), \r\n\t\t\t\"Have not created all the VotingTokens\");\r\n\r\n\t\t// Return transaction data\r\n\t\treturn transactionDataSets[_voter][i].ViewPublicInformation();\r\n\t}\r\n\r\n\t// View private information on a set of data for a transaction\r\n\tfunction ViewPrivateInformation( address _voter, uint i) \r\n\t\texternal view returns (string memory, string memory) {\r\n\r\n\t\t// Require that all voters are able to voter\r\n\t\trequire(VotingTokensCreated == voters.getValuesLength(), \r\n\t\t\t\"Have not created all the VotingTokens\");\r\n\r\n\t\t// Return transaction data\r\n\t\treturn transactionDataSets[_voter][i].ViewPrivateInformation();\r\n\t}\r\n\r\n\t// Casts a vote\r\n\tfunction CastVote(address _voter, bool choice) external {\r\n\r\n\t\t// Require that all voters are able to voter\r\n\t\trequire(VotingTokensCreated == voters.getValuesLength(), \r\n\t\t\t\"Have not created all the VotingTokens\");\r\n\r\n\t\tvotingtokens[_voter].CastVote(_voter, choice);\t// Casts the vote\r\n\t}\r\n\r\n\t// Give rewards to voters and return the outcome of the vote\r\n\tfunction ConcludeProposal(uint vetoTime, UserManager UMI) external returns (int){\r\n\r\n\t\t// Require that all voters are able to voter\r\n\t\trequire(VotingTokensCreated == voters.getValuesLength(), \r\n\t\t\t\"Have not created all the VotingTokens\");\r\n\r\n\t\t// Require that enough time has passed for the old account to veto an attack\r\n\t\tif (vetoTime > block.timestamp - startTime){\r\n\t\t\treturn -1;\r\n\t\t}\r\n\r\n\t\tuint total = 0;\t\t\t\t\t\t\t// Total number of votes\r\n\t\tuint yeses = 0;\t\t\t\t\t\t\t// Total number of yesses\r\n\t\tuint totalTimeToVote = 0;\t\t\t\t// Total time used to vote\r\n\r\n\t\t// Counts votes and find the time required for all voters to vote\r\n\t\tfor (uint i = 0; i < voters.getValuesLength(); i++) { // Goes through all voters\r\n\r\n\t\t\t// Get voting token for voter\r\n\t\t\tVotingToken.Token storage temp = votingtokens[voters.getValue(i)];\r\n\r\n\t\t\t// Incroment totalTimeToVote by the amount of time used by the voter\r\n\t\t\ttotalTimeToVote += temp.getVotedTime();\r\n\r\n\t\t\t// Count votes\r\n\t\t\tif (temp.getVoted()){\t\t\t\t// They are a voter and they voted\r\n\t\t\t\ttotal++;\t\t\t\t\t\t// Incroment the total number of votes\r\n\t\t\t\tif (temp.getVote()){ \t\t\t// They are a voter and they voted yes\r\n\t\t\t\t\tyeses++;\t\t\t\t\t// Incroment the number of yesses\r\n\t\t\t\t}\r\n\t\t\t}\r\n\t\t}\r\n\r\n\t\t// Requires a certain number of voters to vote before concluding the vote\r\n\t\tif (total < 5){\r\n\t\t\t// If enough time has passed allow a revote\r\n\t\t\tif (block.timestamp - startTime > 172800){\r\n\t\t\t\treturn 60;\r\n\t\t\t}\r\n\t\t\treturn -2;\t\t\t\t\t\t\t// Require more votes\r\n\t\t}\r\n\r\n\t\tbool outcome = (100*yeses) / total >= 66;\t// The outcome of the vote\r\n\r\n\t\t// Factors used in determining the requare for voters\r\n\t\tuint participationFactor = 2;\t\t\t// Participation factor\r\n\t\tuint correctionFactor = 2;\t\t\t\t// Correction factor\r\n\t\tuint timeFactor = 1;\t\t\t\t\t// Time factor\r\n\r\n\t\t// Average time used to vote\r\n\t\tuint averageTimeToVote = totalTimeToVote / total;\r\n\r\n\t\t// Rewards voters\r\n\t\tfor (uint i = 0; i < voters.getValuesLength(); i++) { \t// Goes through all voters\r\n\r\n\t\t\t// Get voting token for voter\r\n\t\t\tVotingToken.Token storage temp = votingtokens[voters.getValue(i)];\r\n\r\n\t\t\tif (temp.getVoted()){\t\t// If the voter has voted\r\n\r\n\t\t\t\t// Reward for participating \r\n\t\t\t\tuint amount = (price / participationFactor) / total;\t\t\t\r\n\r\n\t\t\t\t// They voted correctly\r\n\t\t\t\tif (outcome == temp.getVote()){\r\n\t\t\t\t\tif (outcome){\t\t// Yes was the correct vote \r\n\t\t\t\t\t\t// Reward for voting correctly \r\n\t\t\t\t\t\tamount += (price / correctionFactor) / yeses;\r\n\t\t\t\t\t}else{\t\t\t\t// No was the correct vote \r\n\t\t\t\t\t\t// Reward for voting correctly\r\n\t\t\t\t\t\tamount += (price / correctionFactor) / (total-yeses);\r\n\t\t\t\t\t}\r\n\t\t\t\t}\r\n\r\n\t\t\t\t// Reward based on the time used to vote\r\n\t\t\t\t//  If they took less time than average they gain more money\r\n\t\t\t\tamount += (averageTimeToVote - temp.getVotedTime()) / timeFactor;\r\n\r\n\t\t\t\tif (amount > 0){\t// The user actually did get a reward\r\n\r\n\t\t\t\t\t// Increases balance of the voter\r\n\t\t\t\t\tUMI.getUser(voters.getValue(i)).increaseBalance(amount);\r\n\t\t\t\t}\r\n\t\t\t}\r\n\t\t}\r\n\t\treturn int((100*yeses) / total);\t// Return outcome of vote\r\n\t}\r\n\r\n\t// Generate random number using an address\r\n\tfunction random(address address1, uint size) private view returns (uint8) {\r\n\t\treturn uint8(uint256(keccak256(abi.encodePacked(block.timestamp, \r\n\t\t\tblock.difficulty, address1, gasleft()))) % size);\r\n\t\t// return uint8(uint256(keccak256(abi.encodePacked(block.difficulty, block.coinbase, address1, gasleft()))) % size);\r\n\t}\r\n\r\n\t// Return voters\r\n\tfunction getVoters() external view returns (address[] memory){\r\n\t\treturn voters.getValues();\r\n\t}\r\n\r\n\t// Returns true is an address is a voter\r\n\tfunction ContainsVoter(address _voter) external view returns (bool) {\r\n\t\treturn voters.contains(_voter);\r\n\t}\r\n}\r\n",
  "sourcePath": "C:\\Users\\m5w5b\\Desktop\\GitHub\\game-dapp\\AccountRecovery\\contracts\\Proposal.sol",
  "compiler": {
    "name": "solc",
    "version": "0.5.8+commit.23d335f2.Emscripten.clang"
  },
  "schemaVersion": "3.0.16",
  "updatedAt": "2019-11-07T20:24:41.095Z",
  "devdoc": {
    "methods": {}
  },
  "userdoc": {
    "methods": {}
  }
}