{
  "contractName": "ProposalManager",
  "abi": [
    {
      "inputs": [
        {
          "name": "UserManagerAddress",
          "type": "address"
        }
      ],
      "payable": false,
      "stateMutability": "nonpayable",
      "type": "constructor"
    },
    {
      "constant": false,
      "inputs": [
        {
          "name": "_newAccount",
          "type": "address"
        }
      ],
      "name": "VetoAccountRecovery",
      "outputs": [],
      "payable": false,
      "stateMutability": "nonpayable",
      "type": "function"
    },
    {
      "constant": true,
      "inputs": [
        {
          "name": "oldAccount",
          "type": "address"
        },
        {
          "name": "newAccount",
          "type": "address"
        },
        {
          "name": "i",
          "type": "uint256"
        }
      ],
      "name": "ViewPublicInformation",
      "outputs": [
        {
          "name": "",
          "type": "uint256"
        },
        {
          "name": "",
          "type": "uint256"
        },
        {
          "name": "",
          "type": "address"
        },
        {
          "name": "",
          "type": "address"
        }
      ],
      "payable": false,
      "stateMutability": "view",
      "type": "function"
    },
    {
      "constant": true,
      "inputs": [
        {
          "name": "oldAccount",
          "type": "address"
        },
        {
          "name": "newAccount",
          "type": "address"
        },
        {
          "name": "i",
          "type": "uint256"
        }
      ],
      "name": "ViewPrivateInformation",
      "outputs": [
        {
          "name": "",
          "type": "string"
        },
        {
          "name": "",
          "type": "string"
        }
      ],
      "payable": false,
      "stateMutability": "view",
      "type": "function"
    },
    {
      "constant": false,
      "inputs": [
        {
          "name": "oldAccount",
          "type": "address"
        },
        {
          "name": "newAccount",
          "type": "address"
        },
        {
          "name": "choice",
          "type": "bool"
        }
      ],
      "name": "CastVote",
      "outputs": [],
      "payable": false,
      "stateMutability": "nonpayable",
      "type": "function"
    },
    {
      "constant": false,
      "inputs": [
        {
          "name": "_oldAccount",
          "type": "address"
        }
      ],
      "name": "ConcludeAccountRecovery",
      "outputs": [],
      "payable": false,
      "stateMutability": "nonpayable",
      "type": "function"
    },
    {
      "constant": true,
      "inputs": [
        {
          "name": "_oldAccount",
          "type": "address"
        },
        {
          "name": "_newAccount",
          "type": "address"
        }
      ],
      "name": "getActiveProposalExists",
      "outputs": [
        {
          "name": "",
          "type": "bool"
        }
      ],
      "payable": false,
      "stateMutability": "view",
      "type": "function"
    },
    {
      "constant": true,
      "inputs": [
        {
          "name": "_oldAccount",
          "type": "address"
        },
        {
          "name": "_newAccount",
          "type": "address"
        }
      ],
      "name": "getActiveProposal",
      "outputs": [
        {
          "name": "",
          "type": "address"
        }
      ],
      "payable": false,
      "stateMutability": "view",
      "type": "function"
    },
    {
      "constant": false,
      "inputs": [
        {
          "name": "_oldAccount",
          "type": "address"
        },
        {
          "name": "_newAccount",
          "type": "address"
        },
        {
          "name": "temp",
          "type": "address"
        }
      ],
      "name": "AddActiveProposal",
      "outputs": [],
      "payable": false,
      "stateMutability": "nonpayable",
      "type": "function"
    },
    {
      "constant": true,
      "inputs": [
        {
          "name": "_oldAccount",
          "type": "address"
        }
      ],
      "name": "getArchivedVoter",
      "outputs": [
        {
          "name": "",
          "type": "address[]"
        }
      ],
      "payable": false,
      "stateMutability": "view",
      "type": "function"
    },
    {
      "constant": false,
      "inputs": [
        {
          "name": "_oldAccount",
          "type": "address"
        },
        {
          "name": "_newAccount",
          "type": "address"
        }
      ],
      "name": "archiveProposal",
      "outputs": [],
      "payable": false,
      "stateMutability": "nonpayable",
      "type": "function"
    },
    {
      "constant": true,
      "inputs": [
        {
          "name": "_oldAccount",
          "type": "address"
        }
      ],
      "name": "validProposal",
      "outputs": [
        {
          "name": "",
          "type": "bool"
        }
      ],
      "payable": false,
      "stateMutability": "view",
      "type": "function"
    },
    {
      "constant": true,
      "inputs": [
        {
          "name": "_address1",
          "type": "address"
        },
        {
          "name": "_address2",
          "type": "address"
        }
      ],
      "name": "getBlacklistedAccount",
      "outputs": [
        {
          "name": "",
          "type": "bool"
        }
      ],
      "payable": false,
      "stateMutability": "view",
      "type": "function"
    },
    {
      "constant": false,
      "inputs": [
        {
          "name": "_address",
          "type": "address"
        }
      ],
      "name": "setBlacklistedAccount",
      "outputs": [],
      "payable": false,
      "stateMutability": "nonpayable",
      "type": "function"
    }
  ],
  "bytecode": "0x608060405234801561001057600080fd5b506040516020806120908339810180604052602081101561003057600080fd5b8101908080519060200190929190505050806000806101000a81548173ffffffffffffffffffffffffffffffffffffffff021916908373ffffffffffffffffffffffffffffffffffffffff16021790555050611fff806100916000396000f3fe608060405234801561001057600080fd5b50600436106100cf5760003560e01c80634a1ba5931161008c57806380b915281161006657806380b91528146105b75780638af10ea714610633578063a6526295146106b7578063b7e3f59f1461075b576100cf565b80634a1ba593146104205780636f4b8b721461050f57806380345d9d14610573576100cf565b80630b9f2b63146100d45780630d2cea2c14610227578063331c4bed1461026b578063352ef89c146102e75780633c4d4fe1146103805780633ef8f383146103c4575b600080fd5b610140600480360360608110156100ea57600080fd5b81019080803573ffffffffffffffffffffffffffffffffffffffff169060200190929190803573ffffffffffffffffffffffffffffffffffffffff169060200190929190803590602001909291905050506107cb565b604051808060200180602001838103835285818151815260200191508051906020019080838360005b83811015610184578082015181840152602081019050610169565b50505050905090810190601f1680156101b15780820380516001836020036101000a031916815260200191505b50838103825284818151815260200191508051906020019080838360005b838110156101ea5780820151818401526020810190506101cf565b50505050905090810190601f1680156102175780820380516001836020036101000a031916815260200191505b5094505050505060405180910390f35b6102696004803603602081101561023d57600080fd5b81019080803573ffffffffffffffffffffffffffffffffffffffff169060200190929190505050610a78565b005b6102cd6004803603604081101561028157600080fd5b81019080803573ffffffffffffffffffffffffffffffffffffffff169060200190929190803573ffffffffffffffffffffffffffffffffffffffff169060200190929190505050611087565b604051808215151515815260200191505060405180910390f35b610329600480360360208110156102fd57600080fd5b81019080803573ffffffffffffffffffffffffffffffffffffffff169060200190929190505050611132565b6040518080602001828103825283818151815260200191508051906020019060200280838360005b8381101561036c578082015181840152602081019050610351565b505050509050019250505060405180910390f35b6103c26004803603602081101561039657600080fd5b81019080803573ffffffffffffffffffffffffffffffffffffffff1690602001909291905050506111ff565b005b610406600480360360208110156103da57600080fd5b81019080803573ffffffffffffffffffffffffffffffffffffffff1690602001909291905050506112f1565b604051808215151515815260200191505060405180910390f35b61048c6004803603606081101561043657600080fd5b81019080803573ffffffffffffffffffffffffffffffffffffffff169060200190929190803573ffffffffffffffffffffffffffffffffffffffff16906020019092919080359060200190929190505050611510565b604051808581526020018481526020018373ffffffffffffffffffffffffffffffffffffffff1673ffffffffffffffffffffffffffffffffffffffff1681526020018273ffffffffffffffffffffffffffffffffffffffff1673ffffffffffffffffffffffffffffffffffffffff16815260200194505050505060405180910390f35b6105716004803603604081101561052557600080fd5b81019080803573ffffffffffffffffffffffffffffffffffffffff169060200190929190803573ffffffffffffffffffffffffffffffffffffffff16906020019092919050505061173e565b005b6105b56004803603602081101561058957600080fd5b81019080803573ffffffffffffffffffffffffffffffffffffffff1690602001909291905050506119ba565b005b610619600480360360408110156105cd57600080fd5b81019080803573ffffffffffffffffffffffffffffffffffffffff169060200190929190803573ffffffffffffffffffffffffffffffffffffffff169060200190929190505050611a15565b604051808215151515815260200191505060405180910390f35b6106b56004803603606081101561064957600080fd5b81019080803573ffffffffffffffffffffffffffffffffffffffff169060200190929190803573ffffffffffffffffffffffffffffffffffffffff169060200190929190803573ffffffffffffffffffffffffffffffffffffffff169060200190929190505050611aac565b005b610719600480360360408110156106cd57600080fd5b81019080803573ffffffffffffffffffffffffffffffffffffffff169060200190929190803573ffffffffffffffffffffffffffffffffffffffff169060200190929190505050611c42565b604051808273ffffffffffffffffffffffffffffffffffffffff1673ffffffffffffffffffffffffffffffffffffffff16815260200191505060405180910390f35b6107c96004803603606081101561077157600080fd5b81019080803573ffffffffffffffffffffffffffffffffffffffff169060200190929190803573ffffffffffffffffffffffffffffffffffffffff169060200190929190803515159060200190929190505050611d68565b005b60608060006107da8686611c42565b90508073ffffffffffffffffffffffffffffffffffffffff16634f7ae4ae336040518263ffffffff1660e01b8152600401808273ffffffffffffffffffffffffffffffffffffffff1673ffffffffffffffffffffffffffffffffffffffff16815260200191505060206040518083038186803b15801561085957600080fd5b505afa15801561086d573d6000803e3d6000fd5b505050506040513d602081101561088357600080fd5b8101908080519060200190929190505050610906576040517f08c379a000000000000000000000000000000000000000000000000000000000815260040180806020018281038252600d8152602001807f496e76616c696420566f7465720000000000000000000000000000000000000081525060200191505060405180910390fd5b8073ffffffffffffffffffffffffffffffffffffffff1663f91ac89933866040518363ffffffff1660e01b8152600401808373ffffffffffffffffffffffffffffffffffffffff1673ffffffffffffffffffffffffffffffffffffffff1681526020018281526020019250505060006040518083038186803b15801561098b57600080fd5b505afa15801561099f573d6000803e3d6000fd5b505050506040513d6000823e3d601f19601f8201168201806040525060408110156109c957600080fd5b8101908080516401000000008111156109e157600080fd5b828101905060208101848111156109f757600080fd5b8151856001820283011164010000000082111715610a1457600080fd5b50509291906020018051640100000000811115610a3057600080fd5b82810190506020810184811115610a4657600080fd5b8151856001820283011164010000000082111715610a6357600080fd5b50509291905050509250925050935093915050565b6000610a848233611c42565b73ffffffffffffffffffffffffffffffffffffffff16630d2cea2c6000809054906101000a900473ffffffffffffffffffffffffffffffffffffffff166040518263ffffffff1660e01b8152600401808273ffffffffffffffffffffffffffffffffffffffff1673ffffffffffffffffffffffffffffffffffffffff168152602001915050602060405180830381600087803b158015610b2357600080fd5b505af1158015610b37573d6000803e3d6000fd5b505050506040513d6020811015610b4d57600080fd5b810190808051906020019092919050505090507fffffffffffffffffffffffffffffffffffffffffffffffffffffffffffffffff811415610bd9576040517f08c379a0000000000000000000000000000000000000000000000000000000008152600401808060200182810382526037815260200180611f9d6037913960400191505060405180910390fd5b7ffffffffffffffffffffffffffffffffffffffffffffffffffffffffffffffffe811415610c6f576040517f08c379a00000000000000000000000000000000000000000000000000000000081526004018080602001828103825260208152602001807f4e6f7420656e6f75676820766f74657273206861766520766f7465642079657481525060200191505060405180910390fd5b6042811261100a5760008060009054906101000a900473ffffffffffffffffffffffffffffffffffffffff1673ffffffffffffffffffffffffffffffffffffffff16636f77926b846040518263ffffffff1660e01b8152600401808273ffffffffffffffffffffffffffffffffffffffff1673ffffffffffffffffffffffffffffffffffffffff16815260200191505060206040518083038186803b158015610d1757600080fd5b505afa158015610d2b573d6000803e3d6000fd5b505050506040513d6020811015610d4157600080fd5b8101908080519060200190929190505050905060008060009054906101000a900473ffffffffffffffffffffffffffffffffffffffff1673ffffffffffffffffffffffffffffffffffffffff16636f77926b336040518263ffffffff1660e01b8152600401808273ffffffffffffffffffffffffffffffffffffffff1673ffffffffffffffffffffffffffffffffffffffff16815260200191505060206040518083038186803b158015610df457600080fd5b505afa158015610e08573d6000803e3d6000fd5b505050506040513d6020811015610e1e57600080fd5b810190808051906020019092919050505090508073ffffffffffffffffffffffffffffffffffffffff16633e4ccb408373ffffffffffffffffffffffffffffffffffffffff1663b69ef8a86040518163ffffffff1660e01b815260040160206040518083038186803b158015610e9357600080fd5b505afa158015610ea7573d6000803e3d6000fd5b505050506040513d6020811015610ebd57600080fd5b81019080805190602001909291905050506040518263ffffffff1660e01b815260040180828152602001915050600060405180830381600087803b158015610f0457600080fd5b505af1158015610f18573d6000803e3d6000fd5b505050508173ffffffffffffffffffffffffffffffffffffffff1663392aee438373ffffffffffffffffffffffffffffffffffffffff1663b69ef8a86040518163ffffffff1660e01b815260040160206040518083038186803b158015610f7e57600080fd5b505afa158015610f92573d6000803e3d6000fd5b505050506040513d6020811015610fa857600080fd5b81019080805190602001909291905050506040518263ffffffff1660e01b815260040180828152602001915050600060405180830381600087803b158015610fef57600080fd5b505af1158015611003573d6000803e3d6000fd5b5050505050505b611014823361173e565b603c81121580156110255750604281125b15611083576000600360008473ffffffffffffffffffffffffffffffffffffffff1673ffffffffffffffffffffffffffffffffffffffff16815260200190815260200160002060006101000a81548160ff0219169083151502179055505b5050565b6000600460008473ffffffffffffffffffffffffffffffffffffffff1673ffffffffffffffffffffffffffffffffffffffff16815260200190815260200160002060009054906101000a900460ff168061112a5750600460008373ffffffffffffffffffffffffffffffffffffffff1673ffffffffffffffffffffffffffffffffffffffff16815260200190815260200160002060009054906101000a900460ff165b905092915050565b6060600260008373ffffffffffffffffffffffffffffffffffffffff1673ffffffffffffffffffffffffffffffffffffffff1681526020019081526020016000208054806020026020016040519081016040528092919081815260200182805480156111f357602002820191906000526020600020905b8160009054906101000a900473ffffffffffffffffffffffffffffffffffffffff1673ffffffffffffffffffffffffffffffffffffffff16815260200190600101908083116111a9575b50505050509050919050565b6112093382611c42565b73ffffffffffffffffffffffffffffffffffffffff16630d2cea2c6000809054906101000a900473ffffffffffffffffffffffffffffffffffffffff166040518263ffffffff1660e01b8152600401808273ffffffffffffffffffffffffffffffffffffffff1673ffffffffffffffffffffffffffffffffffffffff168152602001915050602060405180830381600087803b1580156112a857600080fd5b505af11580156112bc573d6000803e3d6000fd5b505050506040513d60208110156112d257600080fd5b8101908080519060200190929190505050506112ee338261173e565b50565b60008060009054906101000a900473ffffffffffffffffffffffffffffffffffffffff1673ffffffffffffffffffffffffffffffffffffffff16636e9960c36040518163ffffffff1660e01b815260040160206040518083038186803b15801561135a57600080fd5b505afa15801561136e573d6000803e3d6000fd5b505050506040513d602081101561138457600080fd5b810190808051906020019092919050505073ffffffffffffffffffffffffffffffffffffffff168273ffffffffffffffffffffffffffffffffffffffff161415611436576040517f08c379a00000000000000000000000000000000000000000000000000000000081526004018080602001828103825260208152602001807f43616e206e6f742074727920746f207265636f766572207468652061646d696e81525060200191505060405180910390fd5b3373ffffffffffffffffffffffffffffffffffffffff168273ffffffffffffffffffffffffffffffffffffffff1614156114bb576040517f08c379a0000000000000000000000000000000000000000000000000000000008152600401808060200182810382526021815260200180611f7c6021913960400191505060405180910390fd5b600360008373ffffffffffffffffffffffffffffffffffffffff1673ffffffffffffffffffffffffffffffffffffffff16815260200190815260200160002060009054906101000a900460ff16159050919050565b60008060008060006115228888611c42565b90508073ffffffffffffffffffffffffffffffffffffffff16634f7ae4ae336040518263ffffffff1660e01b8152600401808273ffffffffffffffffffffffffffffffffffffffff1673ffffffffffffffffffffffffffffffffffffffff16815260200191505060206040518083038186803b1580156115a157600080fd5b505afa1580156115b5573d6000803e3d6000fd5b505050506040513d60208110156115cb57600080fd5b810190808051906020019092919050505061164e576040517f08c379a000000000000000000000000000000000000000000000000000000000815260040180806020018281038252600d8152602001807f496e76616c696420566f7465720000000000000000000000000000000000000081525060200191505060405180910390fd5b8073ffffffffffffffffffffffffffffffffffffffff1663e628c2e033886040518363ffffffff1660e01b8152600401808373ffffffffffffffffffffffffffffffffffffffff1673ffffffffffffffffffffffffffffffffffffffff1681526020018281526020019250505060806040518083038186803b1580156116d357600080fd5b505afa1580156116e7573d6000803e3d6000fd5b505050506040513d60808110156116fd57600080fd5b810190808051906020019092919080519060200190929190805190602001909291908051906020019092919050505094509450945094505093509350935093565b600061174a8383611c42565b905060608173ffffffffffffffffffffffffffffffffffffffff1663cdd722536040518163ffffffff1660e01b815260040160006040518083038186803b15801561179457600080fd5b505afa1580156117a8573d6000803e3d6000fd5b505050506040513d6000823e3d601f19601f8201168201806040525060208110156117d257600080fd5b8101908080516401000000008111156117ea57600080fd5b8281019050602081018481111561180057600080fd5b815185602082028301116401000000008211171561181d57600080fd5b5050929190505050905060008090505b81518110156118f957600260008673ffffffffffffffffffffffffffffffffffffffff1673ffffffffffffffffffffffffffffffffffffffff16815260200190815260200160002082828151811061188157fe5b602002602001015190806001815401808255809150509060018203906000526020600020016000909192909190916101000a81548173ffffffffffffffffffffffffffffffffffffffff021916908373ffffffffffffffffffffffffffffffffffffffff16021790555050808060010191505061182d565b50600160008573ffffffffffffffffffffffffffffffffffffffff1673ffffffffffffffffffffffffffffffffffffffff16815260200190815260200160002060008473ffffffffffffffffffffffffffffffffffffffff1673ffffffffffffffffffffffffffffffffffffffff168152602001908152602001600020600080820160006101000a81549073ffffffffffffffffffffffffffffffffffffffff02191690556000820160146101000a81549060ff0219169055505050505050565b6001600460008373ffffffffffffffffffffffffffffffffffffffff1673ffffffffffffffffffffffffffffffffffffffff16815260200190815260200160002060006101000a81548160ff02191690831515021790555050565b6000600160008473ffffffffffffffffffffffffffffffffffffffff1673ffffffffffffffffffffffffffffffffffffffff16815260200190815260200160002060008373ffffffffffffffffffffffffffffffffffffffff1673ffffffffffffffffffffffffffffffffffffffff16815260200190815260200160002060000160149054906101000a900460ff16905092915050565b6001600360008573ffffffffffffffffffffffffffffffffffffffff1673ffffffffffffffffffffffffffffffffffffffff16815260200190815260200160002060006101000a81548160ff021916908315150217905550611b0c611f49565b81816000019073ffffffffffffffffffffffffffffffffffffffff16908173ffffffffffffffffffffffffffffffffffffffff1681525050600181602001901515908115158152505080600160008673ffffffffffffffffffffffffffffffffffffffff1673ffffffffffffffffffffffffffffffffffffffff16815260200190815260200160002060008573ffffffffffffffffffffffffffffffffffffffff1673ffffffffffffffffffffffffffffffffffffffff16815260200190815260200160002060008201518160000160006101000a81548173ffffffffffffffffffffffffffffffffffffffff021916908373ffffffffffffffffffffffffffffffffffffffff16021790555060208201518160000160146101000a81548160ff02191690831515021790555090505050505050565b6000611c4e8383611a15565b611cc0576040517f08c379a000000000000000000000000000000000000000000000000000000000815260040180806020018281038252601b8152602001807f5468657265206973206e6f206163746976652050726f706f73616c000000000081525060200191505060405180910390fd5b600160008473ffffffffffffffffffffffffffffffffffffffff1673ffffffffffffffffffffffffffffffffffffffff16815260200190815260200160002060008373ffffffffffffffffffffffffffffffffffffffff1673ffffffffffffffffffffffffffffffffffffffff16815260200190815260200160002060000160009054906101000a900473ffffffffffffffffffffffffffffffffffffffff16905092915050565b6000611d748484611c42565b90508073ffffffffffffffffffffffffffffffffffffffff16634f7ae4ae336040518263ffffffff1660e01b8152600401808273ffffffffffffffffffffffffffffffffffffffff1673ffffffffffffffffffffffffffffffffffffffff16815260200191505060206040518083038186803b158015611df357600080fd5b505afa158015611e07573d6000803e3d6000fd5b505050506040513d6020811015611e1d57600080fd5b8101908080519060200190929190505050611ea0576040517f08c379a000000000000000000000000000000000000000000000000000000000815260040180806020018281038252600d8152602001807f496e76616c696420566f7465720000000000000000000000000000000000000081525060200191505060405180910390fd5b8073ffffffffffffffffffffffffffffffffffffffff1663fa041dd733846040518363ffffffff1660e01b8152600401808373ffffffffffffffffffffffffffffffffffffffff1673ffffffffffffffffffffffffffffffffffffffff1681526020018215151515815260200192505050600060405180830381600087803b158015611f2b57600080fd5b505af1158015611f3f573d6000803e3d6000fd5b5050505050505050565b6040518060400160405280600073ffffffffffffffffffffffffffffffffffffffff168152602001600015158152509056fe416e206163636f756e742063616e206e6f74207265636f76657220697473656c66596f75206d7573742077616974206d6f72652074696d6520756e74696c20796f752063616e20636f6e636c7564652074686520766f7465a165627a7a72305820e1183e2cc47faa7f8fc51fe311daf81d866b732430a15b3dcaec2879ab1c031f0029",
  "source": "/* ProposalManager.sol */\r\n\r\npragma solidity >=0.4.0 <0.7.0;\r\n\r\nimport \"../contracts/UserManager.sol\";\r\nimport \"../contracts/Proposal.sol\";\r\n\r\nimport \"../contracts/Person.sol\";\r\n\r\n/* <Summary> \r\n\tThis contract manages all active proposal as well as makes and concludes proposals.\r\n*/\r\n\r\ncontract ProposalManager {\r\n\r\n\tstruct ProposalPair {\r\n\t\tProposal proposal;\r\n\t\tbool exists;\r\n\t}\r\n\r\n\tUserManager UMI;\t\t\t\t// Connects to the list of users on the network\r\n\r\n\tmapping (address => mapping (address => ProposalPair) ) activeProposals; // Map of active proposals\r\n\r\n\tmapping (address => address[]) archivedVoters; \t// Map of active proposals\r\n\tmapping (address => bool) invalidProposal; \t\t// If true then there has already been a proposal\r\n\tmapping (address => bool) blackListedAccounts; \t// If true then an account is blacklisted\r\n\r\n\t// Used to originally deploy the contract\r\n\tconstructor(address UserManagerAddress ) public {\r\n\t\tUMI = UserManager(UserManagerAddress);\r\n\t}\r\n\r\n\tfunction VetoAccountRecovery(address _newAccount) external{\r\n\t\tgetActiveProposal(msg.sender, _newAccount).ConcludeAccountRecovery(UMI);\r\n\t\tarchiveProposal(msg.sender, _newAccount);\r\n\t}\r\n\r\n\t// View public information on a set of data for a transaction\r\n\tfunction ViewPublicInformation(address oldAccount, address newAccount, uint i) external view returns (uint, uint, address, address)\t{\r\n\t\tProposal temp = getActiveProposal(oldAccount, newAccount);\r\n\t\trequire(temp.ContainsVoter(msg.sender), \"Invalid Voter\");\r\n\t\treturn temp.ViewPublicInformation( msg.sender, i );\r\n\t}\r\n\r\n\t// View private information on a set of data for a transaction\r\n\tfunction ViewPrivateInformation(address oldAccount, address newAccount, uint i) external view returns (string memory, string memory) {\r\n\t\tProposal temp = getActiveProposal(oldAccount, newAccount);\r\n\t\trequire(temp.ContainsVoter(msg.sender), \"Invalid Voter\");\r\n\t\treturn temp.ViewPrivateInformation( msg.sender, i );\r\n\t}\r\n\r\n\t// Allows a voter to cast a vote on a proposal\r\n\tfunction CastVote(address oldAccount, address newAccount, bool choice) external {\r\n\t\tProposal temp = getActiveProposal(oldAccount, newAccount);\r\n\t\trequire(temp.ContainsVoter(msg.sender), \"Invalid Voter\");\r\n\t\ttemp.CastVote(msg.sender, choice);\r\n\t}\r\n\t\r\n\t// Counts up votes and distriputes the reward\r\n\tfunction ConcludeAccountRecovery(address _oldAccount) external {\r\n\t\tint outcome = getActiveProposal(_oldAccount, msg.sender).ConcludeAccountRecovery(UMI);\r\n\r\n\t\trequire (outcome != -1, \"You must wait more time until you can conclude the vote\");\r\n\t\trequire (outcome != -2, \"Not enough voters have voted yet\");\r\n\r\n\t\tif (outcome >= 66){\t\t\t\t\t\t\t\t\t\t\t// Successful vote\r\n\t\t\t// Finds old account and new account on the network\r\n\t\t\tPerson oldAccount = UMI.getUser(_oldAccount);\r\n\t\t\tPerson newAccount = UMI.getUser(msg.sender);\r\n\r\n\t\t\t// Transfers balance\r\n\t\t\tnewAccount.increaseBalance(oldAccount.balance());\t// Increase new accounts balance\r\n\t\t\toldAccount.decreaseBalance(oldAccount.balance());\t// Decrease old accounts balance\r\n\r\n\t\t}\r\n\t\tarchiveProposal(_oldAccount, msg.sender);\r\n\r\n\t\tif (outcome >= 60 && outcome < 66){\t\t\t\t\t\t\t\t// Vote failed. No revote\r\n\t\t\tinvalidProposal[_oldAccount] = false;\r\n\t\t}\r\n\t}\r\n\r\n\t// Find the active proposal between _oldAccount and _newAccount\r\n\tfunction getActiveProposalExists(address _oldAccount, address _newAccount) public view returns (bool) {\r\n\t\treturn activeProposals[_oldAccount][_newAccount].exists;\r\n\t}\r\n\t\r\n\t// Find the active proposal between _oldAccount and _newAccount\r\n\tfunction getActiveProposal(address _oldAccount, address _newAccount) public view returns (Proposal) {\r\n\t\trequire(getActiveProposalExists(_oldAccount, _newAccount), \"There is no active Proposal\");\r\n\t\treturn activeProposals[_oldAccount][_newAccount].proposal;\r\n\t}\r\n\t\r\n\t// Adds an active proposal between _oldAccount and _newAccount\r\n\tfunction AddActiveProposal(address _oldAccount, address _newAccount, Proposal temp) external {\r\n\t\tinvalidProposal[_oldAccount] = true;\r\n\r\n\t\tProposalPair memory tempPair;\r\n\t\ttempPair.proposal = temp;\r\n\t\ttempPair.exists = true;\r\n\r\n\t\tactiveProposals[_oldAccount][_newAccount] = tempPair;\r\n\t}\r\n\t\r\n\t// Find the archived proposal between _oldAccount and _newAccount\r\n\tfunction getArchivedVoter(address _oldAccount) external view returns (address[] memory) {\r\n\t\treturn archivedVoters[_oldAccount];\r\n\t}\r\n\r\n\tfunction archiveProposal(address _oldAccount, address _newAccount) public {\r\n\t\tProposal temp = getActiveProposal(_oldAccount, _newAccount);\r\n\r\n\t\taddress[] memory voters = temp.getVoters();\r\n\r\n\t\tfor (uint i = 0; i < voters.length; i++){\r\n\t\t\tarchivedVoters[_oldAccount].push(voters[i]);\r\n\t\t}\r\n\r\n\t\tdelete activeProposals[_oldAccount][_newAccount];\r\n\t}\r\n\r\n\tfunction validProposal(address _oldAccount) external view returns (bool) {\r\n\t\trequire(_oldAccount != UMI.getAdmin(), \"Can not try to recover the admin\");\r\n\t\trequire(_oldAccount != msg.sender, \"An account can not recover itself\");\r\n\r\n\t\treturn !invalidProposal[_oldAccount];\r\n\t}\r\n\r\n\tfunction getBlacklistedAccount(address _address1, address _address2) external view returns (bool) {\r\n\t\treturn blackListedAccounts[_address1] || blackListedAccounts[_address2];\r\n\t}\r\n\r\n\tfunction setBlacklistedAccount(address _address) external {\r\n\t\tblackListedAccounts[_address] = true;\r\n\t}\r\n}\r\n",
  "sourcePath": "C:\\Users\\m5w5b\\Desktop\\GitHub\\game-dapp\\AccountRecovery\\contracts\\ProposalManager.sol",
  "compiler": {
    "name": "solc",
    "version": "0.5.8+commit.23d335f2.Emscripten.clang"
  },
  "schemaVersion": "3.0.16",
  "updatedAt": "2019-11-06T19:50:39.761Z",
  "devdoc": {
    "methods": {}
  },
  "userdoc": {
    "methods": {}
  }
}