{
  "contractName": "ProposalManager",
  "abi": [
    {
      "inputs": [
        {
          "name": "UserManagerAddress",
          "type": "address"
        }
      ],
      "payable": false,
      "stateMutability": "nonpayable",
      "type": "constructor"
    },
    {
      "constant": false,
      "inputs": [
        {
          "name": "_newAccount",
          "type": "address"
        }
      ],
      "name": "VetoAccountRecovery",
      "outputs": [],
      "payable": false,
      "stateMutability": "nonpayable",
      "type": "function"
    },
    {
      "constant": false,
      "inputs": [
        {
          "name": "_oldAccount",
          "type": "address"
        }
      ],
      "name": "ConcludeAccountRecovery",
      "outputs": [],
      "payable": false,
      "stateMutability": "nonpayable",
      "type": "function"
    },
    {
      "constant": false,
      "inputs": [
        {
          "name": "oldAccount",
          "type": "address"
        },
        {
          "name": "newAccount",
          "type": "address"
        },
        {
          "name": "choice",
          "type": "bool"
        }
      ],
      "name": "CastVote",
      "outputs": [],
      "payable": false,
      "stateMutability": "nonpayable",
      "type": "function"
    },
    {
      "constant": true,
      "inputs": [
        {
          "name": "oldAccount",
          "type": "address"
        },
        {
          "name": "newAccount",
          "type": "address"
        },
        {
          "name": "i",
          "type": "uint256"
        }
      ],
      "name": "ViewPublicInformation",
      "outputs": [
        {
          "name": "",
          "type": "uint256"
        },
        {
          "name": "",
          "type": "uint256"
        },
        {
          "name": "",
          "type": "address"
        },
        {
          "name": "",
          "type": "address"
        }
      ],
      "payable": false,
      "stateMutability": "view",
      "type": "function"
    },
    {
      "constant": true,
      "inputs": [
        {
          "name": "oldAccount",
          "type": "address"
        },
        {
          "name": "newAccount",
          "type": "address"
        },
        {
          "name": "i",
          "type": "uint256"
        }
      ],
      "name": "ViewPrivateInformation",
      "outputs": [
        {
          "name": "",
          "type": "string"
        },
        {
          "name": "",
          "type": "string"
        }
      ],
      "payable": false,
      "stateMutability": "view",
      "type": "function"
    },
    {
      "constant": true,
      "inputs": [
        {
          "name": "_oldAccount",
          "type": "address"
        },
        {
          "name": "_newAccount",
          "type": "address"
        }
      ],
      "name": "getActiveProposal",
      "outputs": [
        {
          "name": "",
          "type": "address"
        }
      ],
      "payable": false,
      "stateMutability": "view",
      "type": "function"
    },
    {
      "constant": true,
      "inputs": [
        {
          "name": "_oldAccount",
          "type": "address"
        },
        {
          "name": "_newAccount",
          "type": "address"
        }
      ],
      "name": "ActiveProposalLength",
      "outputs": [
        {
          "name": "",
          "type": "bool"
        }
      ],
      "payable": false,
      "stateMutability": "view",
      "type": "function"
    },
    {
      "constant": false,
      "inputs": [
        {
          "name": "_oldAccount",
          "type": "address"
        },
        {
          "name": "_newAccount",
          "type": "address"
        },
        {
          "name": "temp",
          "type": "address"
        }
      ],
      "name": "AddActiveProposal",
      "outputs": [],
      "payable": false,
      "stateMutability": "nonpayable",
      "type": "function"
    },
    {
      "constant": false,
      "inputs": [
        {
          "name": "_oldAccount",
          "type": "address"
        },
        {
          "name": "_newAccount",
          "type": "address"
        }
      ],
      "name": "RemoveActiveProposal",
      "outputs": [],
      "payable": false,
      "stateMutability": "nonpayable",
      "type": "function"
    },
    {
      "constant": true,
      "inputs": [
        {
          "name": "_oldAccount",
          "type": "address"
        },
        {
          "name": "_newAccount",
          "type": "address"
        }
      ],
      "name": "getArchivedProposals",
      "outputs": [
        {
          "name": "",
          "type": "bool[]"
        }
      ],
      "payable": false,
      "stateMutability": "view",
      "type": "function"
    },
    {
      "constant": true,
      "inputs": [
        {
          "name": "_oldAccount",
          "type": "address"
        },
        {
          "name": "_newAccount",
          "type": "address"
        }
      ],
      "name": "ArchivedProposalLength",
      "outputs": [
        {
          "name": "",
          "type": "bool"
        }
      ],
      "payable": false,
      "stateMutability": "view",
      "type": "function"
    }
  ],
  "bytecode": "0x608060405234801561001057600080fd5b506040516020806119038339810180604052602081101561003057600080fd5b8101908080519060200190929190505050806000806101000a81548173ffffffffffffffffffffffffffffffffffffffff021916908373ffffffffffffffffffffffffffffffffffffffff16021790555050611872806100916000396000f3fe608060405234801561001057600080fd5b50600436106100a95760003560e01c80634d5f6e6c116100715780634d5f6e6c146103dc5780638af10ea7146104955780638db6364f14610519578063a652629514610595578063b7e3f59f14610639578063ee030f2a146106a9576100a9565b80630b9f2b63146100ae5780630d2cea2c14610201578063365d4ce3146102455780633c4d4fe1146102a95780634a1ba593146102ed575b600080fd5b61011a600480360360608110156100c457600080fd5b81019080803573ffffffffffffffffffffffffffffffffffffffff169060200190929190803573ffffffffffffffffffffffffffffffffffffffff16906020019092919080359060200190929190505050610725565b604051808060200180602001838103835285818151815260200191508051906020019080838360005b8381101561015e578082015181840152602081019050610143565b50505050905090810190601f16801561018b5780820380516001836020036101000a031916815260200191505b50838103825284818151815260200191508051906020019080838360005b838110156101c45780820151818401526020810190506101a9565b50505050905090810190601f1680156101f15780820380516001836020036101000a031916815260200191505b5094505050505060405180910390f35b6102436004803603602081101561021757600080fd5b81019080803573ffffffffffffffffffffffffffffffffffffffff1690602001909291905050506108a2565b005b6102a76004803603604081101561025b57600080fd5b81019080803573ffffffffffffffffffffffffffffffffffffffff169060200190929190803573ffffffffffffffffffffffffffffffffffffffff169060200190929190505050610d65565b005b6102eb600480360360208110156102bf57600080fd5b81019080803573ffffffffffffffffffffffffffffffffffffffff169060200190929190505050610ee5565b005b6103596004803603606081101561030357600080fd5b81019080803573ffffffffffffffffffffffffffffffffffffffff169060200190929190803573ffffffffffffffffffffffffffffffffffffffff16906020019092919080359060200190929190505050610ef2565b604051808581526020018481526020018373ffffffffffffffffffffffffffffffffffffffff1673ffffffffffffffffffffffffffffffffffffffff1681526020018273ffffffffffffffffffffffffffffffffffffffff1673ffffffffffffffffffffffffffffffffffffffff16815260200194505050505060405180910390f35b61043e600480360360408110156103f257600080fd5b81019080803573ffffffffffffffffffffffffffffffffffffffff169060200190929190803573ffffffffffffffffffffffffffffffffffffffff169060200190929190505050610ff0565b6040518080602001828103825283818151815260200191508051906020019060200280838360005b83811015610481578082015181840152602081019050610466565b505050509050019250505060405180910390f35b610517600480360360608110156104ab57600080fd5b81019080803573ffffffffffffffffffffffffffffffffffffffff169060200190929190803573ffffffffffffffffffffffffffffffffffffffff169060200190929190803573ffffffffffffffffffffffffffffffffffffffff1690602001909291905050506111df565b005b61057b6004803603604081101561052f57600080fd5b81019080803573ffffffffffffffffffffffffffffffffffffffff169060200190929190803573ffffffffffffffffffffffffffffffffffffffff16906020019092919050505061139c565b604051808215151515815260200191505060405180910390f35b6105f7600480360360408110156105ab57600080fd5b81019080803573ffffffffffffffffffffffffffffffffffffffff169060200190929190803573ffffffffffffffffffffffffffffffffffffffff169060200190929190505050611429565b604051808273ffffffffffffffffffffffffffffffffffffffff1673ffffffffffffffffffffffffffffffffffffffff16815260200191505060405180910390f35b6106a76004803603606081101561064f57600080fd5b81019080803573ffffffffffffffffffffffffffffffffffffffff169060200190929190803573ffffffffffffffffffffffffffffffffffffffff1690602001909291908035151590602001909291905050506115da565b005b61070b600480360360408110156106bf57600080fd5b81019080803573ffffffffffffffffffffffffffffffffffffffff169060200190929190803573ffffffffffffffffffffffffffffffffffffffff16906020019092919050505061168b565b604051808215151515815260200191505060405180910390f35b6060806107328585611429565b73ffffffffffffffffffffffffffffffffffffffff1663f91ac89933856040518363ffffffff1660e01b8152600401808373ffffffffffffffffffffffffffffffffffffffff1673ffffffffffffffffffffffffffffffffffffffff1681526020018281526020019250505060006040518083038186803b1580156107b657600080fd5b505afa1580156107ca573d6000803e3d6000fd5b505050506040513d6000823e3d601f19601f8201168201806040525060408110156107f457600080fd5b81019080805164010000000081111561080c57600080fd5b8281019050602081018481111561082257600080fd5b815185600182028301116401000000008211171561083f57600080fd5b5050929190602001805164010000000081111561085b57600080fd5b8281019050602081018481111561087157600080fd5b815185600182028301116401000000008211171561088e57600080fd5b505092919050505091509150935093915050565b60006108ae8233611429565b90506108ba8233610d65565b6000808273ffffffffffffffffffffffffffffffffffffffff16630d2cea2c6000809054906101000a900473ffffffffffffffffffffffffffffffffffffffff166040518263ffffffff1660e01b8152600401808273ffffffffffffffffffffffffffffffffffffffff1673ffffffffffffffffffffffffffffffffffffffff1681526020019150506040805180830381600087803b15801561095c57600080fd5b505af1158015610970573d6000803e3d6000fd5b505050506040513d604081101561098657600080fd5b810190808051906020019092919080519060200190929190505050915091508115610d4d5760008060009054906101000a900473ffffffffffffffffffffffffffffffffffffffff1673ffffffffffffffffffffffffffffffffffffffff16636f77926b866040518263ffffffff1660e01b8152600401808273ffffffffffffffffffffffffffffffffffffffff1673ffffffffffffffffffffffffffffffffffffffff16815260200191505060206040518083038186803b158015610a4b57600080fd5b505afa158015610a5f573d6000803e3d6000fd5b505050506040513d6020811015610a7557600080fd5b8101908080519060200190929190505050905060008060009054906101000a900473ffffffffffffffffffffffffffffffffffffffff1673ffffffffffffffffffffffffffffffffffffffff16636f77926b336040518263ffffffff1660e01b8152600401808273ffffffffffffffffffffffffffffffffffffffff1673ffffffffffffffffffffffffffffffffffffffff16815260200191505060206040518083038186803b158015610b2857600080fd5b505afa158015610b3c573d6000803e3d6000fd5b505050506040513d6020811015610b5257600080fd5b810190808051906020019092919050505090508073ffffffffffffffffffffffffffffffffffffffff16633e4ccb408373ffffffffffffffffffffffffffffffffffffffff1663b69ef8a86040518163ffffffff1660e01b815260040160206040518083038186803b158015610bc757600080fd5b505afa158015610bdb573d6000803e3d6000fd5b505050506040513d6020811015610bf157600080fd5b81019080805190602001909291905050506040518263ffffffff1660e01b815260040180828152602001915050600060405180830381600087803b158015610c3857600080fd5b505af1158015610c4c573d6000803e3d6000fd5b505050508173ffffffffffffffffffffffffffffffffffffffff1663392aee438373ffffffffffffffffffffffffffffffffffffffff1663b69ef8a86040518163ffffffff1660e01b815260040160206040518083038186803b158015610cb257600080fd5b505afa158015610cc6573d6000803e3d6000fd5b505050506040513d6020811015610cdc57600080fd5b81019080805190602001909291905050506040518263ffffffff1660e01b815260040180828152602001915050600060405180830381600087803b158015610d2357600080fd5b505af1158015610d37573d6000803e3d6000fd5b50505050610d46863386611717565b5050610d5f565b80610d5e57610d5d843384611717565b5b5b50505050565b60018060008473ffffffffffffffffffffffffffffffffffffffff1673ffffffffffffffffffffffffffffffffffffffff16815260200190815260200160002060008373ffffffffffffffffffffffffffffffffffffffff1673ffffffffffffffffffffffffffffffffffffffff1681526020019081526020016000208054905014610e59576040517f08c379a000000000000000000000000000000000000000000000000000000000815260040180806020018281038252601b8152602001807f5468657265206973206e6f206163746976652050726f706f73616c000000000081525060200191505060405180910390fd5b600160008373ffffffffffffffffffffffffffffffffffffffff1673ffffffffffffffffffffffffffffffffffffffff16815260200190815260200160002060008273ffffffffffffffffffffffffffffffffffffffff1673ffffffffffffffffffffffffffffffffffffffff1681526020019081526020016000206000610ee191906117dd565b5050565b610eef3382610d65565b50565b600080600080610f028787611429565b73ffffffffffffffffffffffffffffffffffffffff1663e628c2e033876040518363ffffffff1660e01b8152600401808373ffffffffffffffffffffffffffffffffffffffff1673ffffffffffffffffffffffffffffffffffffffff1681526020018281526020019250505060806040518083038186803b158015610f8657600080fd5b505afa158015610f9a573d6000803e3d6000fd5b505050506040513d6080811015610fb057600080fd5b8101908080519060200190929190805190602001909291908051906020019092919080519060200190929190505050935093509350935093509350935093565b60606000600260008573ffffffffffffffffffffffffffffffffffffffff1673ffffffffffffffffffffffffffffffffffffffff16815260200190815260200160002060008473ffffffffffffffffffffffffffffffffffffffff1673ffffffffffffffffffffffffffffffffffffffff16815260200190815260200160002080549050116110e7576040517f08c379a000000000000000000000000000000000000000000000000000000000815260040180806020018281038252601d8152602001807f5468657265206973206e6f2061726368697665642050726f706f73616c00000081525060200191505060405180910390fd5b600260008473ffffffffffffffffffffffffffffffffffffffff1673ffffffffffffffffffffffffffffffffffffffff16815260200190815260200160002060008373ffffffffffffffffffffffffffffffffffffffff1673ffffffffffffffffffffffffffffffffffffffff1681526020019081526020016000208054806020026020016040519081016040528092919081815260200182805480156111d257602002820191906000526020600020906000905b82829054906101000a900460ff1615158152602001906001019060208260000104928301926001038202915080841161119c5790505b5050505050905092915050565b6000600160008573ffffffffffffffffffffffffffffffffffffffff1673ffffffffffffffffffffffffffffffffffffffff16815260200190815260200160002060008473ffffffffffffffffffffffffffffffffffffffff1673ffffffffffffffffffffffffffffffffffffffff16815260200190815260200160002080549050146112b7576040517f08c379a00000000000000000000000000000000000000000000000000000000081526004018080602001828103825260238152602001806118246023913960400191505060405180910390fd5b600160008473ffffffffffffffffffffffffffffffffffffffff1673ffffffffffffffffffffffffffffffffffffffff16815260200190815260200160002060008373ffffffffffffffffffffffffffffffffffffffff1673ffffffffffffffffffffffffffffffffffffffff1681526020019081526020016000208190806001815401808255809150509060018203906000526020600020016000909192909190916101000a81548173ffffffffffffffffffffffffffffffffffffffff021916908373ffffffffffffffffffffffffffffffffffffffff16021790555050505050565b60006001600260008573ffffffffffffffffffffffffffffffffffffffff1673ffffffffffffffffffffffffffffffffffffffff16815260200190815260200160002060008473ffffffffffffffffffffffffffffffffffffffff1673ffffffffffffffffffffffffffffffffffffffff1681526020019081526020016000208054905014905092915050565b600060018060008573ffffffffffffffffffffffffffffffffffffffff1673ffffffffffffffffffffffffffffffffffffffff16815260200190815260200160002060008473ffffffffffffffffffffffffffffffffffffffff1673ffffffffffffffffffffffffffffffffffffffff168152602001908152602001600020805490501461151f576040517f08c379a000000000000000000000000000000000000000000000000000000000815260040180806020018281038252601b8152602001807f5468657265206973206e6f206163746976652050726f706f73616c000000000081525060200191505060405180910390fd5b600160008473ffffffffffffffffffffffffffffffffffffffff1673ffffffffffffffffffffffffffffffffffffffff16815260200190815260200160002060008373ffffffffffffffffffffffffffffffffffffffff1673ffffffffffffffffffffffffffffffffffffffff1681526020019081526020016000206000815481106115a757fe5b9060005260206000200160009054906101000a900473ffffffffffffffffffffffffffffffffffffffff16905092915050565b6115e48383611429565b73ffffffffffffffffffffffffffffffffffffffff1663fa041dd733836040518363ffffffff1660e01b8152600401808373ffffffffffffffffffffffffffffffffffffffff1673ffffffffffffffffffffffffffffffffffffffff1681526020018215151515815260200192505050600060405180830381600087803b15801561166e57600080fd5b505af1158015611682573d6000803e3d6000fd5b50505050505050565b600060018060008573ffffffffffffffffffffffffffffffffffffffff1673ffffffffffffffffffffffffffffffffffffffff16815260200190815260200160002060008473ffffffffffffffffffffffffffffffffffffffff1673ffffffffffffffffffffffffffffffffffffffff1681526020019081526020016000208054905014905092915050565b600260008473ffffffffffffffffffffffffffffffffffffffff1673ffffffffffffffffffffffffffffffffffffffff16815260200190815260200160002060008373ffffffffffffffffffffffffffffffffffffffff1673ffffffffffffffffffffffffffffffffffffffff16815260200190815260200160002081908060018154018082558091505090600182039060005260206000209060209182820401919006909192909190916101000a81548160ff02191690831515021790555050505050565b50805460008255906000526020600020908101906117fb91906117fe565b50565b61182091905b8082111561181c576000816000905550600101611804565b5090565b9056fe546865726520697320616c726561647920616e206163746976652050726f706f73616ca165627a7a723058206d139580e67de13a21928cdca7c2b67088dc705fd5f2aa29a19447ecfc89a0210029",
  "source": "/* ProposalManager.sol */\r\n\r\npragma solidity >=0.4.0 <0.7.0;\r\n\r\nimport \"../contracts/UserManager.sol\";\r\nimport \"../contracts/Proposal.sol\";\r\n\r\nimport \"../contracts/Person.sol\";\r\n\r\n\r\n/* <Summary> \r\n\tThis contract manages all active proposal as well as makes and concludes proposals.\r\n*/\r\n\r\ncontract ProposalManager {\r\n\tUserManager UserManagerInstance;\t\t\t\t// Connects to the list of users on the network\r\n\r\n\t// These arrays are used when creating Proposals. Needed to be on storage to use .push()\r\n\r\n\tmapping (address => mapping (address => Proposal[]) ) activeProposals; // Map of active proposals\r\n\t\t\t\t\t\t\t\t\t\t\t\t\t// Old Account -> New Account -> Proposal\r\n\tmapping (address => mapping (address => bool[]) ) archivedProposalsResults; // Map of active proposals\r\n\t\t\t\t\t\t\t\t\t\t\t\t\t// Old Account -> New Account -> Proposal[]\r\n\r\n\t// Used to originally deploy the contract\r\n\tconstructor(address UserManagerAddress ) public {\r\n\t\tUserManagerInstance = UserManager(UserManagerAddress);\r\n\t}\r\n\r\n\tfunction VetoAccountRecovery(address _newAccount) external{\r\n\t\tRemoveActiveProposal(msg.sender, _newAccount);\r\n\t}\r\n\t\r\n\t// Counts up votes and distriputes the reward\r\n\tfunction ConcludeAccountRecovery(address _oldAccount) external {\r\n\t\tProposal temp = getActiveProposal(_oldAccount, msg.sender);\r\n\t\tRemoveActiveProposal(_oldAccount, msg.sender);\t// Deletes proposal\r\n\r\n\t\t(bool outcome, bool revote)  = temp.ConcludeAccountRecovery(UserManagerInstance);\r\n\r\n\t\tif (outcome){\t\t\t\t\t\t\t\t\t\t\t// Successful vote\r\n\t\t\t// Finds old account and new account on the network\r\n\t\t\tPerson oldAccount = UserManagerInstance.getUser(_oldAccount);\r\n\t\t\tPerson newAccount = UserManagerInstance.getUser(msg.sender);\r\n\r\n\t\t\t// Transfers balance\r\n\t\t\tnewAccount.increaseBalance(oldAccount.balance());\t// Increase new accounts balance\r\n\t\t\toldAccount.decreaseBalance(oldAccount.balance());\t// Decrease old accounts balance\r\n\t\t\t\r\n\t\t\tAddArchivedProposal(_oldAccount, msg.sender, outcome);\r\n\r\n\t\t}else if (!revote){\t\t\t\t\t\t\t\t\t// Requires a re-vote\r\n\t\t\tAddArchivedProposal(_oldAccount, msg.sender, outcome);\r\n\t\t}\r\n\t}\r\n\r\n\t// Allows a voter to cast a vote on a proposal\r\n\tfunction CastVote(address oldAccount, address newAccount, bool choice) external {\r\n\t\tgetActiveProposal(oldAccount, newAccount).CastVote(msg.sender, choice);\r\n\t}\r\n\r\n\t// View public information on a set of data for a transaction\r\n\tfunction ViewPublicInformation(address oldAccount, address newAccount, uint i) external view returns (uint, uint, address, address)\t{\r\n\t\treturn getActiveProposal(oldAccount, newAccount).ViewPublicInformation( msg.sender, i );\r\n\t}\r\n\r\n\t// View private information on a set of data for a transaction\r\n\tfunction ViewPrivateInformation(address oldAccount, address newAccount, uint i) external view returns (string memory, string memory)\t{\r\n\t\treturn getActiveProposal(oldAccount, newAccount).ViewPrivateInformation( msg.sender, i );\r\n\t}\r\n\t\r\n\t// Find the active proposal between _oldAccount and _newAccount\r\n\tfunction getActiveProposal(address _oldAccount, address _newAccount) public view returns (Proposal) {\r\n\t\trequire(activeProposals[_oldAccount][_newAccount].length == 1, \"There is no active Proposal\");\r\n\t\treturn activeProposals[_oldAccount][_newAccount][0];\r\n\t}\r\n\r\n\t// Finds if there is an active Proposal between _oldAccount and _newAccount\r\n\tfunction ActiveProposalLength(address _oldAccount, address _newAccount) external view returns (bool) {\r\n\t\treturn activeProposals[_oldAccount][_newAccount].length == 1;\r\n\t}\r\n\t\r\n\t// Adds an active proposal between _oldAccount and _newAccount\r\n\tfunction AddActiveProposal(address _oldAccount, address _newAccount, Proposal temp) external {\r\n\t\trequire(activeProposals[_oldAccount][_newAccount].length == 0, \"There is already an active Proposal\");\r\n\t\tactiveProposals[_oldAccount][_newAccount].push(temp);\r\n\t}\r\n\t\r\n\t// Removes the active proposal between _oldAccount and _newAccount\r\n\tfunction RemoveActiveProposal(address _oldAccount, address _newAccount) public {\r\n\t\trequire(activeProposals[_oldAccount][_newAccount].length == 1, \"There is no active Proposal\");\r\n\t\tdelete activeProposals[_oldAccount][_newAccount];\r\n\t}\r\n\r\n\t// Find the archived proposal between _oldAccount and _newAccount\r\n\tfunction getArchivedProposals(address _oldAccount, address _newAccount) external view returns (bool[] memory) {\r\n\t\trequire(archivedProposalsResults[_oldAccount][_newAccount].length > 0, \"There is no archived Proposal\");\r\n\t\treturn archivedProposalsResults[_oldAccount][_newAccount];\r\n\t}\r\n\r\n\t// Finds if there is an archived Proposal between _oldAccount and _newAccount\r\n\tfunction ArchivedProposalLength(address _oldAccount, address _newAccount) external view returns (bool) {\r\n\t\treturn archivedProposalsResults[_oldAccount][_newAccount].length == 1;\r\n\t}\r\n\r\n\t// Adds an archived proposal between _oldAccount and _newAccount\r\n\tfunction AddArchivedProposal(address _oldAccount, address _newAccount, bool temp) private {\r\n\t\tarchivedProposalsResults[_oldAccount][_newAccount].push(temp);\r\n\t}\r\n}\r\n",
  "sourcePath": "C:\\Users\\m5w5b\\Desktop\\GitHub\\game-dapp\\AccountRecovery\\contracts\\ProposalManager.sol",
  "compiler": {
    "name": "solc",
    "version": "0.5.8+commit.23d335f2.Emscripten.clang"
  },
  "schemaVersion": "3.0.16",
  "updatedAt": "2019-10-24T15:29:28.719Z",
  "devdoc": {
    "methods": {}
  },
  "userdoc": {
    "methods": {}
  }
}