{
  "contractName": "Proposal",
  "abi": [
    {
      "constant": true,
      "inputs": [],
      "name": "price",
      "outputs": [
        {
          "name": "",
          "type": "uint256"
        }
      ],
      "payable": false,
      "stateMutability": "view",
      "type": "function"
    },
    {
      "inputs": [
        {
          "name": "_oldAccount",
          "type": "address"
        },
        {
          "name": "_newAccount",
          "type": "address"
        },
        {
          "name": "_price",
          "type": "uint256"
        }
      ],
      "payable": false,
      "stateMutability": "nonpayable",
      "type": "constructor"
    },
    {
      "constant": false,
      "inputs": [
        {
          "name": "_newAccount",
          "type": "address"
        }
      ],
      "name": "Pay",
      "outputs": [],
      "payable": false,
      "stateMutability": "nonpayable",
      "type": "function"
    },
    {
      "constant": false,
      "inputs": [
        {
          "name": "_tradePartners",
          "type": "address[]"
        },
        {
          "name": "_archivedVoters",
          "type": "address[]"
        },
        {
          "name": "TMI",
          "type": "address"
        },
        {
          "name": "PMI",
          "type": "address"
        }
      ],
      "name": "AddTradePartners",
      "outputs": [],
      "payable": false,
      "stateMutability": "nonpayable",
      "type": "function"
    },
    {
      "constant": true,
      "inputs": [],
      "name": "ViewRandomTradingPartner",
      "outputs": [
        {
          "name": "",
          "type": "address"
        }
      ],
      "payable": false,
      "stateMutability": "view",
      "type": "function"
    },
    {
      "constant": false,
      "inputs": [
        {
          "name": "_veto",
          "type": "bool"
        }
      ],
      "name": "RandomTradingPartner",
      "outputs": [],
      "payable": false,
      "stateMutability": "nonpayable",
      "type": "function"
    },
    {
      "constant": false,
      "inputs": [
        {
          "name": "_oldAccount",
          "type": "address"
        },
        {
          "name": "_voter",
          "type": "address"
        },
        {
          "name": "_description",
          "type": "string"
        }
      ],
      "name": "MakeVotingToken",
      "outputs": [],
      "payable": false,
      "stateMutability": "nonpayable",
      "type": "function"
    },
    {
      "constant": false,
      "inputs": [
        {
          "name": "_timeStamp",
          "type": "uint256"
        },
        {
          "name": "_voter",
          "type": "address"
        },
        {
          "name": "_amount",
          "type": "uint256"
        },
        {
          "name": "_description",
          "type": "string"
        },
        {
          "name": "_itemsInTrade",
          "type": "string"
        }
      ],
      "name": "AddTransactionDataSet",
      "outputs": [],
      "payable": false,
      "stateMutability": "nonpayable",
      "type": "function"
    },
    {
      "constant": true,
      "inputs": [
        {
          "name": "_voter",
          "type": "address"
        },
        {
          "name": "i",
          "type": "uint256"
        }
      ],
      "name": "ViewPublicInformation",
      "outputs": [
        {
          "name": "",
          "type": "uint256"
        },
        {
          "name": "",
          "type": "uint256"
        },
        {
          "name": "",
          "type": "address"
        },
        {
          "name": "",
          "type": "address"
        }
      ],
      "payable": false,
      "stateMutability": "view",
      "type": "function"
    },
    {
      "constant": true,
      "inputs": [
        {
          "name": "_voter",
          "type": "address"
        },
        {
          "name": "i",
          "type": "uint256"
        }
      ],
      "name": "ViewPrivateInformation",
      "outputs": [
        {
          "name": "",
          "type": "string"
        },
        {
          "name": "",
          "type": "string"
        }
      ],
      "payable": false,
      "stateMutability": "view",
      "type": "function"
    },
    {
      "constant": false,
      "inputs": [
        {
          "name": "_voter",
          "type": "address"
        },
        {
          "name": "choice",
          "type": "bool"
        }
      ],
      "name": "CastVote",
      "outputs": [],
      "payable": false,
      "stateMutability": "nonpayable",
      "type": "function"
    },
    {
      "constant": false,
      "inputs": [
        {
          "name": "UMI",
          "type": "address"
        }
      ],
      "name": "ConcludeAccountRecovery",
      "outputs": [
        {
          "name": "",
          "type": "int256"
        }
      ],
      "payable": false,
      "stateMutability": "nonpayable",
      "type": "function"
    },
    {
      "constant": true,
      "inputs": [],
      "name": "getVoters",
      "outputs": [
        {
          "name": "",
          "type": "address[]"
        }
      ],
      "payable": false,
      "stateMutability": "view",
      "type": "function"
    }
  ],
  "bytecode": "0x60806040526000600760006101000a81548173ffffffffffffffffffffffffffffffffffffffff021916908373ffffffffffffffffffffffffffffffffffffffff1602179055506000600a556000600d60006101000a81548160ff021916908360ff1602179055506003600d60016101000a81548160ff021916908360ff1602179055506000600d60026101000a81548160ff0219169083151502179055503480156100aa57600080fd5b50604051606080613f5f833981018060405260608110156100ca57600080fd5b8101908080519060200190929190805190602001909291908051906020019092919050505082600860006101000a81548173ffffffffffffffffffffffffffffffffffffffff021916908373ffffffffffffffffffffffffffffffffffffffff16021790555081600960006101000a81548173ffffffffffffffffffffffffffffffffffffffff021916908373ffffffffffffffffffffffffffffffffffffffff16021790555080600b8190555042600c81905550505050613dce806101916000396000f3fe608060405234801561001057600080fd5b50600436106100b45760003560e01c8063cde596b211610071578063cde596b21461030a578063e628c2e01461034e578063e8d94c001461041d578063f91ac899146104d6578063fa041dd714610609578063fac0328d14610659576100b4565b80630d2cea2c146100b957806319e5fba01461011157806376a3fab6146102135780638db5d0d214610243578063a035b1fe1461028d578063cdd72253146102ab575b600080fd5b6100fb600480360360208110156100cf57600080fd5b81019080803573ffffffffffffffffffffffffffffffffffffffff169060200190929190505050610767565b6040518082815260200191505060405180910390f35b610211600480360360a081101561012757600080fd5b8101908080359060200190929190803573ffffffffffffffffffffffffffffffffffffffff169060200190929190803590602001909291908035906020019064010000000081111561017857600080fd5b82018360208201111561018a57600080fd5b803590602001918460018302840111640100000000831117156101ac57600080fd5b9091929391929390803590602001906401000000008111156101cd57600080fd5b8201836020820111156101df57600080fd5b8035906020019184600183028401116401000000008311171561020157600080fd5b9091929391929390505050611512565b005b6102416004803603602081101561022957600080fd5b8101908080351515906020019092919050505061187c565b005b61024b611e77565b604051808273ffffffffffffffffffffffffffffffffffffffff1673ffffffffffffffffffffffffffffffffffffffff16815260200191505060405180910390f35b610295611ea1565b6040518082815260200191505060405180910390f35b6102b3611ea7565b6040518080602001828103825283818151815260200191508051906020019060200280838360005b838110156102f65780820151818401526020810190506102db565b505050509050019250505060405180910390f35b61034c6004803603602081101561032057600080fd5b81019080803573ffffffffffffffffffffffffffffffffffffffff169060200190929190505050611f91565b005b61039a6004803603604081101561036457600080fd5b81019080803573ffffffffffffffffffffffffffffffffffffffff169060200190929190803590602001909291905050506120f7565b604051808581526020018481526020018373ffffffffffffffffffffffffffffffffffffffff1673ffffffffffffffffffffffffffffffffffffffff1681526020018273ffffffffffffffffffffffffffffffffffffffff1673ffffffffffffffffffffffffffffffffffffffff16815260200194505050505060405180910390f35b6104d46004803603606081101561043357600080fd5b81019080803573ffffffffffffffffffffffffffffffffffffffff169060200190929190803573ffffffffffffffffffffffffffffffffffffffff1690602001909291908035906020019064010000000081111561049057600080fd5b8201836020820111156104a257600080fd5b803590602001918460018302840111640100000000831117156104c457600080fd5b9091929391929390505050612217565b005b610522600480360360408110156104ec57600080fd5b81019080803573ffffffffffffffffffffffffffffffffffffffff16906020019092919080359060200190929190505050612720565b604051808060200180602001838103835285818151815260200191508051906020019080838360005b8381101561056657808201518184015260208101905061054b565b50505050905090810190601f1680156105935780820380516001836020036101000a031916815260200191505b50838103825284818151815260200191508051906020019080838360005b838110156105cc5780820151818401526020810190506105b1565b50505050905090810190601f1680156105f95780820380516001836020036101000a031916815260200191505b5094505050505060405180910390f35b6106576004803603604081101561061f57600080fd5b81019080803573ffffffffffffffffffffffffffffffffffffffff1690602001909291908035151590602001909291905050506128be565b005b6107656004803603608081101561066f57600080fd5b810190808035906020019064010000000081111561068c57600080fd5b82018360208201111561069e57600080fd5b803590602001918460208302840111640100000000831117156106c057600080fd5b9091929391929390803590602001906401000000008111156106e157600080fd5b8201836020820111156106f357600080fd5b8035906020019184602083028401116401000000008311171561071557600080fd5b9091929391929390803573ffffffffffffffffffffffffffffffffffffffff169060200190929190803573ffffffffffffffffffffffffffffffffffffffff169060200190929190505050612981565b005b6000600273__Set___________________________________63ea70683890916040518263ffffffff1660e01b81526004018082815260200191505060206040518083038186803b1580156107bb57600080fd5b505af41580156107cf573d6000803e3d6000fd5b505050506040513d60208110156107e557600080fd5b8101908080519060200190929190505050600d60009054906101000a900460ff1660ff161461085f576040517f08c379a0000000000000000000000000000000000000000000000000000000008152600401808060200182810382526025815260200180613bcb6025913960400191505060405180910390fd5b600c5442038273ffffffffffffffffffffffffffffffffffffffff16636f77926b600860009054906101000a900473ffffffffffffffffffffffffffffffffffffffff166040518263ffffffff1660e01b8152600401808273ffffffffffffffffffffffffffffffffffffffff1673ffffffffffffffffffffffffffffffffffffffff16815260200191505060206040518083038186803b15801561090357600080fd5b505afa158015610917573d6000803e3d6000fd5b505050506040513d602081101561092d57600080fd5b810190808051906020019092919050505073ffffffffffffffffffffffffffffffffffffffff1663b7f688526040518163ffffffff1660e01b815260040160206040518083038186803b15801561098357600080fd5b505afa158015610997573d6000803e3d6000fd5b505050506040513d60208110156109ad57600080fd5b810190808051906020019092919050505011156109ec577fffffffffffffffffffffffffffffffffffffffffffffffffffffffffffffffff905061150d565b60008090506000809050600080905060008090505b600273__Set___________________________________63ea70683890916040518263ffffffff1660e01b81526004018082815260200191505060206040518083038186803b158015610a5357600080fd5b505af4158015610a67573d6000803e3d6000fd5b505050506040513d6020811015610a7d57600080fd5b8101908080519060200190929190505050811015610e6f576000806000600273__Set___________________________________6344f7330d9091866040518363ffffffff1660e01b8152600401808381526020018281526020019250505060206040518083038186803b158015610af457600080fd5b505af4158015610b08573d6000803e3d6000fd5b505050506040513d6020811015610b1e57600080fd5b810190808051906020019092919050505073ffffffffffffffffffffffffffffffffffffffff1673ffffffffffffffffffffffffffffffffffffffff1681526020019081526020016000208054905011610bc3576040517f08c379a0000000000000000000000000000000000000000000000000000000008152600401808060200182810382526024815260200180613c126024913960400191505060405180910390fd5b600060016000600273__Set___________________________________6344f7330d9091866040518363ffffffff1660e01b8152600401808381526020018281526020019250505060206040518083038186803b158015610c2357600080fd5b505af4158015610c37573d6000803e3d6000fd5b505050506040513d6020811015610c4d57600080fd5b810190808051906020019092919050505073ffffffffffffffffffffffffffffffffffffffff1673ffffffffffffffffffffffffffffffffffffffff16815260200190815260200160002060000190508073__VotingToken___________________________63ffef631c90916040518263ffffffff1660e01b81526004018082815260200191505060206040518083038186803b158015610cee57600080fd5b505af4158015610d02573d6000803e3d6000fd5b505050506040513d6020811015610d1857600080fd5b8101908080519060200190929190505050830192508073__VotingToken___________________________63117d52aa90916040518263ffffffff1660e01b81526004018082815260200191505060206040518083038186803b158015610d7e57600080fd5b505af4158015610d92573d6000803e3d6000fd5b505050506040513d6020811015610da857600080fd5b810190808051906020019092919050505015610e615784806001019550508073__VotingToken___________________________63fb84fe7b90916040518263ffffffff1660e01b81526004018082815260200191505060206040518083038186803b158015610e1757600080fd5b505af4158015610e2b573d6000803e3d6000fd5b505050506040513d6020811015610e4157600080fd5b810190808051906020019092919050505015610e605783806001019450505b5b508080600101915050610a01565b506005831015610ebf576202a300600c5442031115610e9457603c935050505061150d565b7ffffffffffffffffffffffffffffffffffffffffffffffffffffffffffffffffe935050505061150d565b60006042848460640281610ecf57fe5b04101590506000600290506000600290506000600190506000878681610ef157fe5b04905060008090505b600273__Set___________________________________63ea70683890916040518263ffffffff1660e01b81526004018082815260200191505060206040518083038186803b158015610f4c57600080fd5b505af4158015610f60573d6000803e3d6000fd5b505050506040513d6020811015610f7657600080fd5b81019080805190602001909291905050508110156114f457600060016000600273__Set___________________________________6344f7330d9091866040518363ffffffff1660e01b8152600401808381526020018281526020019250505060206040518083038186803b158015610fee57600080fd5b505af4158015611002573d6000803e3d6000fd5b505050506040513d602081101561101857600080fd5b810190808051906020019092919050505073ffffffffffffffffffffffffffffffffffffffff1673ffffffffffffffffffffffffffffffffffffffff16815260200190815260200160002060000190508073__VotingToken___________________________63117d52aa90916040518263ffffffff1660e01b81526004018082815260200191505060206040518083038186803b1580156110b957600080fd5b505af41580156110cd573d6000803e3d6000fd5b505050506040513d60208110156110e357600080fd5b8101908080519060200190929190505050156114e65760008a87600b548161110757fe5b048161110f57fe5b0490508780156111a757508173__VotingToken___________________________63fb84fe7b90916040518263ffffffff1660e01b81526004018082815260200191505060206040518083038186803b15801561116b57600080fd5b505af415801561117f573d6000803e3d6000fd5b505050506040513d602081101561119557600080fd5b81019080805190602001909291905050505b156111ca578986600b54816111b857fe5b04816111c057fe5b0481019050611283565b8715801561126157508173__VotingToken___________________________63fb84fe7b90916040518263ffffffff1660e01b81526004018082815260200191505060206040518083038186803b15801561122457600080fd5b505af4158015611238573d6000803e3d6000fd5b505050506040513d602081101561124e57600080fd5b8101908080519060200190929190505050155b1561128257898b0386600b548161127457fe5b048161127c57fe5b04810190505b5b848273__VotingToken___________________________63ffef631c90916040518263ffffffff1660e01b81526004018082815260200191505060206040518083038186803b1580156112d557600080fd5b505af41580156112e9573d6000803e3d6000fd5b505050506040513d60208110156112ff57600080fd5b810190808051906020019092919050505085038161131957fe5b048101905060008111156114e45760008d73ffffffffffffffffffffffffffffffffffffffff16636f77926b600273__Set___________________________________6344f7330d9091886040518363ffffffff1660e01b8152600401808381526020018281526020019250505060206040518083038186803b15801561139f57600080fd5b505af41580156113b3573d6000803e3d6000fd5b505050506040513d60208110156113c957600080fd5b81019080805190602001909291905050506040518263ffffffff1660e01b8152600401808273ffffffffffffffffffffffffffffffffffffffff1673ffffffffffffffffffffffffffffffffffffffff16815260200191505060206040518083038186803b15801561143a57600080fd5b505afa15801561144e573d6000803e3d6000fd5b505050506040513d602081101561146457600080fd5b810190808051906020019092919050505090508073ffffffffffffffffffffffffffffffffffffffff16633e4ccb40836040518263ffffffff1660e01b815260040180828152602001915050600060405180830381600087803b1580156114ca57600080fd5b505af11580156114de573d6000803e3d6000fd5b50505050505b505b508080600101915050610efa565b5087876064028161150157fe5b04985050505050505050505b919050565b600273__Set___________________________________636aa90e979091886040518363ffffffff1660e01b8152600401808381526020018273ffffffffffffffffffffffffffffffffffffffff1673ffffffffffffffffffffffffffffffffffffffff1681526020019250505060206040518083038186803b15801561159857600080fd5b505af41580156115ac573d6000803e3d6000fd5b505050506040513d60208110156115c257600080fd5b8101908080519060200190929190505050611628576040517f08c379a000000000000000000000000000000000000000000000000000000000815260040180806020018281038252602b815260200180613ba0602b913960400191505060405180910390fd5b6000808773ffffffffffffffffffffffffffffffffffffffff1673ffffffffffffffffffffffffffffffffffffffff1681526020019081526020016000206040518060c0016040528086868080601f016020809104026020016040519081016040528093929190818152602001838380828437600081840152601f19601f82011690508083019250505050505050815260200184848080601f016020809104026020016040519081016040528093929190818152602001838380828437600081840152601f19601f820116905080830192505050505050508152602001600860009054906101000a900473ffffffffffffffffffffffffffffffffffffffff1673ffffffffffffffffffffffffffffffffffffffff1681526020018873ffffffffffffffffffffffffffffffffffffffff168152602001898152602001878152509080600181540180825580915050906001820390600052602060002090600602016000909192909190915060008201518160000190805190602001906117b0929190613a46565b5060208201518160010190805190602001906117cd929190613a46565b5060408201518160020160006101000a81548173ffffffffffffffffffffffffffffffffffffffff021916908373ffffffffffffffffffffffffffffffffffffffff16021790555060608201518160030160006101000a81548173ffffffffffffffffffffffffffffffffffffffff021916908373ffffffffffffffffffffffffffffffffffffffff1602179055506080820151816004015560a0820151816005015550505050505050505050565b80611aca57600273__Set___________________________________636aa90e979091600760009054906101000a900473ffffffffffffffffffffffffffffffffffffffff166040518363ffffffff1660e01b8152600401808381526020018273ffffffffffffffffffffffffffffffffffffffff1673ffffffffffffffffffffffffffffffffffffffff1681526020019250505060206040518083038186803b15801561192957600080fd5b505af415801561193d573d6000803e3d6000fd5b505050506040513d602081101561195357600080fd5b8101908080519060200190929190505050156119d7576040517f08c379a000000000000000000000000000000000000000000000000000000000815260040180806020018281038252601a8152602001807f416c72656164792061646465642074686174206164647265737300000000000081525060200191505060405180910390fd5b600d600181819054906101000a900460ff168092919060010191906101000a81548160ff021916908360ff16021790555050600273__Set___________________________________633c2580489091600760009054906101000a900473ffffffffffffffffffffffffffffffffffffffff166040518363ffffffff1660e01b8152600401808381526020018273ffffffffffffffffffffffffffffffffffffffff1673ffffffffffffffffffffffffffffffffffffffff1681526020019250505060006040518083038186803b158015611ab157600080fd5b505af4158015611ac5573d6000803e3d6000fd5b505050505b600a54600273__Set___________________________________63ea70683890916040518263ffffffff1660e01b81526004018082815260200191505060206040518083038186803b158015611b1f57600080fd5b505af4158015611b33573d6000803e3d6000fd5b505050506040513d6020811015611b4957600080fd5b810190808051906020019092919050505014611e74576000600a5411611bba576040517f08c379a0000000000000000000000000000000000000000000000000000000008152600401808060200182810382526037815260200180613c636037913960400191505060405180910390fd5b6000600d60019054906101000a900460ff1660ff1611611c25576040517f08c379a0000000000000000000000000000000000000000000000000000000008152600401808060200182810382526023815260200180613ce66023913960400191505060405180910390fd5b600060068054905011611c83576040517f08c379a0000000000000000000000000000000000000000000000000000000008152600401808060200182810382526047815260200180613d096047913960600191505060405180910390fd5b600d600181819054906101000a900460ff16809291906001900391906101000a81548160ff021916908360ff160217905550506000611ce9600760009054906101000a900473ffffffffffffffffffffffffffffffffffffffff166006805490506136fc565b60ff16905060068181548110611cfb57fe5b9060005260206000200160009054906101000a900473ffffffffffffffffffffffffffffffffffffffff16600760006101000a81548173ffffffffffffffffffffffffffffffffffffffff021916908373ffffffffffffffffffffffffffffffffffffffff16021790555060008190505b600160068054905003811015611e195760066001820181548110611d8c57fe5b9060005260206000200160009054906101000a900473ffffffffffffffffffffffffffffffffffffffff1660068281548110611dc457fe5b9060005260206000200160006101000a81548173ffffffffffffffffffffffffffffffffffffffff021916908373ffffffffffffffffffffffffffffffffffffffff1602179055508080600101915050611d6c565b50600660016006805490500381548110611e2f57fe5b9060005260206000200160006101000a81549073ffffffffffffffffffffffffffffffffffffffff02191690556006805480919060019003611e719190613ac6565b50505b50565b6000600760009054906101000a900473ffffffffffffffffffffffffffffffffffffffff16905090565b600b5481565b6060600273__Set___________________________________639fa87cd190916040518263ffffffff1660e01b81526004018082815260200191505060006040518083038186803b158015611efb57600080fd5b505af4158015611f0f573d6000803e3d6000fd5b505050506040513d6000823e3d601f19601f820116820180604052506020811015611f3957600080fd5b810190808051640100000000811115611f5157600080fd5b82810190506020810184811115611f6757600080fd5b8151856020820283011164010000000082111715611f8457600080fd5b5050929190505050905090565b600b548173ffffffffffffffffffffffffffffffffffffffff1663b69ef8a86040518163ffffffff1660e01b815260040160206040518083038186803b158015611fda57600080fd5b505afa158015611fee573d6000803e3d6000fd5b505050506040513d602081101561200457600080fd5b8101908080519060200190929190505050101561206c576040517f08c379a0000000000000000000000000000000000000000000000000000000008152600401808060200182810382526022815260200180613bf06022913960400191505060405180910390fd5b8073ffffffffffffffffffffffffffffffffffffffff1663392aee43600b546040518263ffffffff1660e01b815260040180828152602001915050600060405180830381600087803b1580156120c157600080fd5b505af11580156120d5573d6000803e3d6000fd5b505050506001600d60026101000a81548160ff02191690831515021790555050565b60008060008061210686613780565b6000808773ffffffffffffffffffffffffffffffffffffffff1673ffffffffffffffffffffffffffffffffffffffff168152602001908152602001600020858154811061214f57fe5b906000526020600020906006020173__TransactionDataSet____________________63b18e919690916040518263ffffffff1660e01b81526004018082815260200191505060806040518083038186803b1580156121ad57600080fd5b505af41580156121c1573d6000803e3d6000fd5b505050506040513d60808110156121d757600080fd5b8101908080519060200190929190805190602001909291908051906020019092919080519060200190929190505050935093509350935092959194509250565b600a54600273__Set___________________________________63ea70683890916040518263ffffffff1660e01b81526004018082815260200191505060206040518083038186803b15801561226c57600080fd5b505af4158015612280573d6000803e3d6000fd5b505050506040513d602081101561229657600080fd5b8101908080519060200190929190505050146122fd576040517f08c379a0000000000000000000000000000000000000000000000000000000008152600401808060200182810382526037815260200180613c636037913960400191505060405180910390fd5b600273__Set___________________________________636aa90e979091856040518363ffffffff1660e01b8152600401808381526020018273ffffffffffffffffffffffffffffffffffffffff1673ffffffffffffffffffffffffffffffffffffffff1681526020019250505060206040518083038186803b15801561238357600080fd5b505af4158015612397573d6000803e3d6000fd5b505050506040513d60208110156123ad57600080fd5b8101908080519060200190929190505050612413576040517f08c379a0000000000000000000000000000000000000000000000000000000008152600401808060200182810382526029815260200180613d506029913960400191505060405180910390fd5b60001515600160008573ffffffffffffffffffffffffffffffffffffffff1673ffffffffffffffffffffffffffffffffffffffff16815260200190815260200160002060050160009054906101000a900460ff161515146124bf576040517f08c379a0000000000000000000000000000000000000000000000000000000008152600401808060200182810382526025815260200180613cc16025913960400191505060405180910390fd5b6124c7613af2565b6040518060c0016040528084848080601f016020809104026020016040519081016040528093929190818152602001838380828437600081840152601f19601f8201169050808301925050505050505081526020018673ffffffffffffffffffffffffffffffffffffffff1681526020018573ffffffffffffffffffffffffffffffffffffffff16815260200160008152602001600015158152602001600015158152508160000181905250600181602001901515908115158152505080600160008673ffffffffffffffffffffffffffffffffffffffff1673ffffffffffffffffffffffffffffffffffffffff16815260200190815260200160002060008201518160000160008201518160000190805190602001906125e9929190613a46565b5060208201518160010160006101000a81548173ffffffffffffffffffffffffffffffffffffffff021916908373ffffffffffffffffffffffffffffffffffffffff16021790555060408201518160020160006101000a81548173ffffffffffffffffffffffffffffffffffffffff021916908373ffffffffffffffffffffffffffffffffffffffff1602179055506060820151816003015560808201518160040160006101000a81548160ff02191690831515021790555060a08201518160040160016101000a81548160ff021916908315150217905550505060208201518160050160006101000a81548160ff021916908315150217905550905050600d600081819054906101000a900460ff168092919060010191906101000a81548160ff021916908360ff160217905550505050505050565b60608061272c84613780565b6000808573ffffffffffffffffffffffffffffffffffffffff1673ffffffffffffffffffffffffffffffffffffffff168152602001908152602001600020838154811061277557fe5b906000526020600020906006020173__TransactionDataSet____________________63c233d7e890916040518263ffffffff1660e01b81526004018082815260200191505060006040518083038186803b1580156127d357600080fd5b505af41580156127e7573d6000803e3d6000fd5b505050506040513d6000823e3d601f19601f82011682018060405250604081101561281157600080fd5b81019080805164010000000081111561282957600080fd5b8281019050602081018481111561283f57600080fd5b815185600182028301116401000000008211171561285c57600080fd5b5050929190602001805164010000000081111561287857600080fd5b8281019050602081018481111561288e57600080fd5b81518560018202830111640100000000821117156128ab57600080fd5b5050929190505050915091509250929050565b6128c782613780565b600160008373ffffffffffffffffffffffffffffffffffffffff1673ffffffffffffffffffffffffffffffffffffffff16815260200190815260200160002060000173__VotingToken___________________________632bf6c95f9091836040518363ffffffff1660e01b815260040180838152602001821515151581526020019250505060006040518083038186803b15801561296557600080fd5b505af4158015612979573d6000803e3d6000fd5b505050505050565b60011515600d60029054906101000a900460ff161515146129ed576040517f08c379a0000000000000000000000000000000000000000000000000000000008152600401808060200182810382526027815260200180613c9a6027913960400191505060405180910390fd5b60008090505b84849050811015612ad157600473__Set___________________________________633c2580489091878785818110612a2857fe5b9050602002013573ffffffffffffffffffffffffffffffffffffffff166040518363ffffffff1660e01b8152600401808381526020018273ffffffffffffffffffffffffffffffffffffffff1673ffffffffffffffffffffffffffffffffffffffff1681526020019250505060006040518083038186803b158015612aac57600080fd5b505af4158015612ac0573d6000803e3d6000fd5b5050505080806001019150506129f3565b5060008090505b86869050811015612fa257868682818110612aef57fe5b9050602002013573ffffffffffffffffffffffffffffffffffffffff1673ffffffffffffffffffffffffffffffffffffffff16600960009054906101000a900473ffffffffffffffffffffffffffffffffffffffff1673ffffffffffffffffffffffffffffffffffffffff1614612f95578173ffffffffffffffffffffffffffffffffffffffff1663331c4bed888884818110612b8857fe5b9050602002013573ffffffffffffffffffffffffffffffffffffffff16898985818110612bb157fe5b9050602002013573ffffffffffffffffffffffffffffffffffffffff166040518363ffffffff1660e01b8152600401808373ffffffffffffffffffffffffffffffffffffffff1673ffffffffffffffffffffffffffffffffffffffff1681526020018273ffffffffffffffffffffffffffffffffffffffff1673ffffffffffffffffffffffffffffffffffffffff1681526020019250505060206040518083038186803b158015612c6157600080fd5b505afa158015612c75573d6000803e3d6000fd5b505050506040513d6020811015612c8b57600080fd5b8101908080519060200190929190505050612f945760008373ffffffffffffffffffffffffffffffffffffffff166314ee741f600860009054906101000a900473ffffffffffffffffffffffffffffffffffffffff168a8a86818110612ced57fe5b9050602002013573ffffffffffffffffffffffffffffffffffffffff166040518363ffffffff1660e01b8152600401808373ffffffffffffffffffffffffffffffffffffffff1673ffffffffffffffffffffffffffffffffffffffff1681526020018273ffffffffffffffffffffffffffffffffffffffff1673ffffffffffffffffffffffffffffffffffffffff1681526020019250505060206040518083038186803b158015612d9d57600080fd5b505afa158015612db1573d6000803e3d6000fd5b505050506040513d6020811015612dc757600080fd5b81019080805190602001909291905050501115612f9357600473__Set___________________________________636aa90e979091898985818110612e0857fe5b9050602002013573ffffffffffffffffffffffffffffffffffffffff166040518363ffffffff1660e01b8152600401808381526020018273ffffffffffffffffffffffffffffffffffffffff1673ffffffffffffffffffffffffffffffffffffffff1681526020019250505060206040518083038186803b158015612e8c57600080fd5b505af4158015612ea0573d6000803e3d6000fd5b505050506040513d6020811015612eb657600080fd5b8101908080519060200190929190505050612f9257600273__Set___________________________________633c2580489091898985818110612ef557fe5b9050602002013573ffffffffffffffffffffffffffffffffffffffff166040518363ffffffff1660e01b8152600401808381526020018273ffffffffffffffffffffffffffffffffffffffff1673ffffffffffffffffffffffffffffffffffffffff1681526020019250505060006040518083038186803b158015612f7957600080fd5b505af4158015612f8d573d6000803e3d6000fd5b505050505b5b5b5b8080600101915050612ad8565b506003600273__Set___________________________________63ea70683890916040518263ffffffff1660e01b81526004018082815260200191505060206040518083038186803b158015612ff757600080fd5b505af415801561300b573d6000803e3d6000fd5b505050506040513d602081101561302157600080fd5b81019080805190602001909291905050501015613089576040517f08c379a000000000000000000000000000000000000000000000000000000000815260040180806020018281038252602a815260200180613d79602a913960400191505060405180910390fd5b6003600273__Set___________________________________63ea70683890916040518263ffffffff1660e01b81526004018082815260200191505060206040518083038186803b1580156130dd57600080fd5b505af41580156130f1573d6000803e3d6000fd5b505050506040513d602081101561310757600080fd5b8101908080519060200190929190505050878790500310613173576040517f08c379a000000000000000000000000000000000000000000000000000000000815260040180806020018281038252602d815260200180613c36602d913960400191505060405180910390fd5b60028073__Set___________________________________63ea70683890916040518263ffffffff1660e01b81526004018082815260200191505060206040518083038186803b1580156131c657600080fd5b505af41580156131da573d6000803e3d6000fd5b505050506040513d60208110156131f057600080fd5b810190808051906020019092919050505002600a8190555060608273ffffffffffffffffffffffffffffffffffffffff1663d2aeb0d2600860009054906101000a900473ffffffffffffffffffffffffffffffffffffffff16600960009054906101000a900473ffffffffffffffffffffffffffffffffffffffff166040518363ffffffff1660e01b8152600401808373ffffffffffffffffffffffffffffffffffffffff1673ffffffffffffffffffffffffffffffffffffffff1681526020018273ffffffffffffffffffffffffffffffffffffffff1673ffffffffffffffffffffffffffffffffffffffff16815260200192505050600060405180830381600087803b15801561330157600080fd5b505af1158015613315573d6000803e3d6000fd5b505050506040513d6000823e3d601f19601f82011682018060405250602081101561333f57600080fd5b81019080805164010000000081111561335757600080fd5b8281019050602081018481111561336d57600080fd5b815185602082028301116401000000008211171561338a57600080fd5b5050929190505050905060008090505b81518110156135e157600273__Set___________________________________636aa90e9790918484815181106133cd57fe5b60200260200101516040518363ffffffff1660e01b8152600401808381526020018273ffffffffffffffffffffffffffffffffffffffff1673ffffffffffffffffffffffffffffffffffffffff1681526020019250505060206040518083038186803b15801561343c57600080fd5b505af4158015613450573d6000803e3d6000fd5b505050506040513d602081101561346657600080fd5b81019080805190602001909291905050501580156135555750600473__Set___________________________________636aa90e9790918484815181106134a957fe5b60200260200101516040518363ffffffff1660e01b8152600401808381526020018273ffffffffffffffffffffffffffffffffffffffff1673ffffffffffffffffffffffffffffffffffffffff1681526020019250505060206040518083038186803b15801561351857600080fd5b505af415801561352c573d6000803e3d6000fd5b505050506040513d602081101561354257600080fd5b8101908080519060200190929190505050155b156135d457600682828151811061356857fe5b602002602001015190806001815401808255809150509060018203906000526020600020016000909192909190916101000a81548173ffffffffffffffffffffffffffffffffffffffff021916908373ffffffffffffffffffffffffffffffffffffffff160217905550505b808060010191505061339a565b50600273__Set___________________________________63ea70683890916040518263ffffffff1660e01b81526004018082815260200191505060206040518083038186803b15801561363457600080fd5b505af4158015613648573d6000803e3d6000fd5b505050506040513d602081101561365e57600080fd5b810190808051906020019092919050505060068054905010156136e9576040517f08c379a00000000000000000000000000000000000000000000000000000000081526004018080602001828103825260208152602001807f496e76616c6964204e756d626572206f6620686176655472616465645769746881525060200191505060405180910390fd5b6136f3600161187c565b50505050505050565b6000814244855a604051602001808581526020018481526020018373ffffffffffffffffffffffffffffffffffffffff1673ffffffffffffffffffffffffffffffffffffffff1660601b81526014018281526020019450505050506040516020818303038152906040528051906020012060001c8161377757fe5b06905092915050565b600273__Set___________________________________636aa90e979091836040518363ffffffff1660e01b8152600401808381526020018273ffffffffffffffffffffffffffffffffffffffff1673ffffffffffffffffffffffffffffffffffffffff1681526020019250505060206040518083038186803b15801561380657600080fd5b505af415801561381a573d6000803e3d6000fd5b505050506040513d602081101561383057600080fd5b81019080805190602001909291905050506138b3576040517f08c379a000000000000000000000000000000000000000000000000000000000815260040180806020018281038252600d8152602001807f496e76616c696420566f7465720000000000000000000000000000000000000081525060200191505060405180910390fd5b600273__Set___________________________________63ea70683890916040518263ffffffff1660e01b81526004018082815260200191505060206040518083038186803b15801561390557600080fd5b505af4158015613919573d6000803e3d6000fd5b505050506040513d602081101561392f57600080fd5b8101908080519060200190929190505050600d60009054906101000a900460ff1660ff16146139a9576040517f08c379a0000000000000000000000000000000000000000000000000000000008152600401808060200182810382526025815260200180613bcb6025913960400191505060405180910390fd5b60008060008373ffffffffffffffffffffffffffffffffffffffff1673ffffffffffffffffffffffffffffffffffffffff1681526020019081526020016000208054905011613a43576040517f08c379a0000000000000000000000000000000000000000000000000000000008152600401808060200182810382526024815260200180613c126024913960400191505060405180910390fd5b50565b828054600181600116156101000203166002900490600052602060002090601f016020900481019282601f10613a8757805160ff1916838001178555613ab5565b82800160010185558215613ab5579182015b82811115613ab4578251825591602001919060010190613a99565b5b509050613ac29190613b14565b5090565b815481835581811115613aed57818360005260206000209182019101613aec9190613b14565b5b505050565b6040518060e00160405280613b05613b39565b81526020016000151581525090565b613b3691905b80821115613b32576000816000905550600101613b1a565b5090565b90565b6040518060c0016040528060608152602001600073ffffffffffffffffffffffffffffffffffffffff168152602001600073ffffffffffffffffffffffffffffffffffffffff16815260200160008152602001600015158152602001600015158152509056fe496e76616c696420566f7465722e2043616e206e6f7420616464207472616e73616374696f6e206461746148617665206e6f74206372656174656420616c6c2074686520566f74696e67546f6b656e734e6f7420456e6f7567682066756e647320666f7220746869732050726f706f73616c5468657265206973206e6f207472616e73616374696f6e206461746120746f2076696577596f7520696e6469636174656420746f30206d616e7920696e76616c696420747261646520706172746e657273547261646520706172746e6572732068617665206e6f74206265656e20616464656420746f2074686973207965742070726f706f73616c546869732070726f706f73616c20686173206e6f74206265656e207061696420666f72207965745468697320766f74657220616c726561647920686173206120766f74696e6720746f6b656e43616e206e6f74207665746f20616e79206d6f72652072616e646f6d20766f7465727343616e206e6f74207665746f207468697320766f7465722062656361757365207468657265206973206e6f7420656e6f75676820747261646520706172746e657273206c656674496e76616c696420566f7465722e2043616e206e6f74206d616b65206120566f74696e67546f6b656e496e76616c6964204e756d626572206f6620696e6469636174656420747261646520706172746e657273a165627a7a723058201b4b1495f07ae519db893fc2e635ff9a9397592d247c2541c4e6e0364079a1550029",
  "source": "/* Proposal.sol */\r\n\r\npragma solidity >=0.4.0 <0.7.0;\r\n\r\nimport \"../contracts/Person.sol\";\r\nimport \"../contracts/UserManager.sol\";\r\n\r\nimport \"../contracts/Set.sol\";\r\nimport \"../contracts/VotingToken.sol\";\r\nimport \"../contracts/TransactionDataSet.sol\";\r\n\r\n/* <Summary> \r\n\tThis contract manages one active proposal: Casts Votes, Tallies votes, give rewards\r\n*/\r\n\r\ncontract Proposal {\r\n\tusing Set for Set.AddressData;\r\n\tusing VotingToken for VotingToken.Token;\r\n\tusing TransactionDataSet for TransactionDataSet.DataSet;\r\n\r\n\tstruct VotingTokenPair {\r\n\t\tVotingToken.Token token;\r\n\t\tbool exists;\r\n\t}\r\n\r\n\tmapping (address => TransactionDataSet.DataSet[]) transactionDataSets; // Map of active proposals\r\n\r\n\tmapping (address => VotingTokenPair) votingtokens;\t\t// Active Voting Tokens\r\n\tSet.AddressData voters;\t\t\t\t\t\t\t\t\t// Addresses who are eligible to vote\r\n\tSet.AddressData archivedVoters;\r\n\r\n\taddress[] haveTradedWith;\r\n\r\n\taddress lastOtherPartner = 0x0000000000000000000000000000000000000000;\r\n\taddress oldAccount;\t\t\t\t\t\t\t\t\t// Address of the old account\r\n\taddress newAccount;\t\t\t\t\t\t\t// Address of the new account\r\n\t\r\n\tuint numberOfVoters = 0;\r\n\tuint public price;\t\t\t\t\t\t\t\t\t// Price of the account recovery\r\n\tuint startTime;\r\n\tuint8 VotingTokenCreated = 0;\t\t\t\t\t\t// Number of Voting tokens created\r\n\tuint8 randomVoterVetos = 3;\r\n\tbool paided = false;\r\n\r\n\r\n\tconstructor(address _oldAccount, address _newAccount, uint _price) public {\r\n\t\t// Set variable\r\n\t\toldAccount = _oldAccount;\r\n\t\tnewAccount = _newAccount;\r\n\t\t\r\n\t\tprice = _price;\r\n\t\tstartTime = block.timestamp;\r\n\t}\r\n\r\n\tfunction Pay(Person _newAccount) external {\r\n\t\trequire(_newAccount.balance() >= price, \"Not Enough funds for this Proposal\");\r\n\t\t_newAccount.decreaseBalance(price);\t\t\t// Removes money from the new account\r\n\t\tpaided = true;\t\t\t\t\t\t\t\t// The proposal has been paid for\r\n\t}\r\n\r\n\tfunction AddTradePartners(address[] calldata _tradePartners, address[] calldata _archivedVoters, TransactionManager TMI, ProposalManager PMI) external {\r\n\t\trequire(paided == true, \"This proposal has not been paid for yet\");\r\n\r\n\t\tfor (uint i = 0; i < _archivedVoters.length; i++){\r\n\t\t\tarchivedVoters.insert(_archivedVoters[i]);\r\n\t\t}\r\n\r\n\t\tfor (uint i = 0; i < _tradePartners.length; i++){\t// For each partner\r\n\t\t\tif (newAccount != _tradePartners[i]){\t\t\t// The new account can not be a voter\r\n\t\t\t\tif (!PMI.getBlacklistedAccount(_tradePartners[i], _tradePartners[i])){\r\n\t\t\t\t\t// They have made a transaction with the old account\r\n\t\t\t\t\tif (TMI.NumberOfTransactions(oldAccount, _tradePartners[i]) > 0){\r\n\t\t\t\t\t\tif (!archivedVoters.contains(_tradePartners[i])){\t\t\t// This address is not already a voter\r\n\t\t\t\t\t\t\tvoters.insert(_tradePartners[i]);\r\n\t\t\t\t\t\t}\r\n\t\t\t\t\t}\r\n\t\t\t\t}\r\n\t\t\t}\r\n\t\t}\r\n\t\trequire(voters.getValuesLength() >= 3, \"Invalid Number of indicated trade partners\");\r\n\t\trequire(_tradePartners.length - voters.getValuesLength() < 3, \"You indicated to0 many invalid trade partners\");\r\n\t\tnumberOfVoters = voters.getValuesLength() * 2;\r\n\r\n\t\taddress[] memory _haveTradedWith = TMI.getHaveTradedWith(oldAccount, newAccount);\r\n\r\n\t\tfor (uint i = 0; i < _haveTradedWith.length; i++){\t\t\t\t\t// For each address\r\n\t\t\tif (!voters.contains(_haveTradedWith[i]) && !archivedVoters.contains(_haveTradedWith[i]) ){\t\t\t// This address is not already a voter\r\n\t\t\t\thaveTradedWith.push(_haveTradedWith[i]);\t\t\t\t// This address is an eligible voter\r\n\t\t\t}\r\n\t\t}\r\n\t\trequire(haveTradedWith.length >= voters.getValuesLength(), \"Invalid Number of haveTradedWith\");\r\n\t\tRandomTradingPartner(true);\r\n\t}\r\n\r\n\tfunction ViewRandomTradingPartner() external view returns (address) {\r\n\t\treturn lastOtherPartner;\r\n\t}\r\n\r\n\tfunction RandomTradingPartner(bool _veto) public {\r\n\t\tif (!_veto){\r\n\t\t\trequire(!voters.contains(lastOtherPartner), \"Already added that address\");\r\n\t\t\trandomVoterVetos++;\r\n\t\t\tvoters.insert(lastOtherPartner);\r\n\t\t}\r\n\r\n\t\tif (voters.getValuesLength() != numberOfVoters){\r\n\t\t\trequire(numberOfVoters > 0, \"Trade partners have not been added to this yet proposal\");\r\n\t\t\trequire(randomVoterVetos > 0, \"Can not veto any more random voters\");\r\n\t\t\trequire(haveTradedWith.length > 0, \"Can not veto this voter because there is not enough trade partners left\");\r\n\r\n\t\t\trandomVoterVetos--;\r\n\t\t\tuint index = random(lastOtherPartner, haveTradedWith.length);\t\t\t// Find random value\r\n\t\t\t\t\t\r\n\t\t\tlastOtherPartner = haveTradedWith[index];\r\n\r\n\t\t\tfor (uint i = index; i < haveTradedWith.length - 1; i++){\r\n\t\t\t\thaveTradedWith[i] = haveTradedWith[i+1];\r\n\t\t\t}\r\n\t\t\tdelete haveTradedWith[haveTradedWith.length-1];\r\n\t\t\thaveTradedWith.length--;\r\n\t\t}\r\n\t}\r\n\r\n\t// Make Voting Tokens\r\n\tfunction MakeVotingToken(address _oldAccount, address _voter, string calldata _description) external {\r\n\t\trequire(voters.getValuesLength() == numberOfVoters, \"Trade partners have not been added to this yet proposal\");\r\n\t\trequire(voters.contains(_voter), \"Invalid Voter. Can not make a VotingToken\");\r\n\r\n\t\trequire(votingtokens[_voter].exists == false, \"This voter already has a voting token\");\r\n\r\n\t\tVotingTokenPair memory temp;\r\n\t\ttemp.token = VotingToken.Token(_description, _oldAccount, _voter, 0, false, false);\r\n\t\ttemp.exists = true;\r\n\t\tvotingtokens[_voter] = temp;\r\n\r\n\t\tVotingTokenCreated++;\t\t\t// Incroment the number of voting tokens created\r\n\t}\r\n\r\n\t// Add set of data for a give transaction for a give voter\r\n\tfunction AddTransactionDataSet(uint _timeStamp, address _voter, uint _amount, \r\n\t\tstring calldata _description, string calldata _itemsInTrade) external {\r\n\t\trequire(voters.contains(_voter), \"Invalid Voter. Can not add transaction data\");\r\n\r\n\t\ttransactionDataSets[_voter].push(TransactionDataSet.DataSet(_description, _itemsInTrade, oldAccount, _voter, _timeStamp, _amount));\r\n\t}\r\n\r\n\t// View public information on a set of data for a transaction\r\n\tfunction ViewPublicInformation( address _voter, uint i) external view returns (uint, uint, address, address) {\r\n\t\tcheck(_voter);\r\n\t\treturn transactionDataSets[_voter][i].ViewPublicInformation();\r\n\t}\r\n\r\n\t// View private information on a set of data for a transaction\r\n\tfunction ViewPrivateInformation( address _voter, uint i) external view returns (string memory, string memory) {\r\n\t\tcheck(_voter);\r\n\t\treturn transactionDataSets[_voter][i].ViewPrivateInformation();\r\n\t}\r\n\r\n\t// Casts a vote\r\n\tfunction CastVote(address _voter, bool choice) external {\r\n\t\tcheck(_voter);\r\n\t\tvotingtokens[_voter].token.CastVote(choice);\r\n\t}\r\n\r\n\t// Give rewards to voters and return outcome of vote\r\n\tfunction ConcludeAccountRecovery(UserManager UMI) external returns (int){\r\n\t\trequire(VotingTokenCreated == voters.getValuesLength(), \"Have not created all the VotingTokens\");\r\n\r\n\t\tif (UMI.getUser(oldAccount).vetoTime() > block.timestamp - startTime){\r\n\t\t\treturn -1;\r\n\t\t}\r\n\r\n\t\tuint total = 0;\t\t\t\t\t\t\t// Total number of votes\r\n\t\tuint yeses = 0;\t\t\t\t\t\t\t// Total number of yesses\r\n\r\n\t\tuint totalTimeToVote = 0;\r\n\r\n\t\tfor (uint i = 0; i < voters.getValuesLength(); i++) { // Goes through all voters\r\n\t\t\trequire(transactionDataSets[voters.getValue(i)].length > 0, \"There is no transaction data to view\");\r\n\t\t\tVotingToken.Token storage temp = votingtokens[voters.getValue(i)].token;\r\n\t\t\ttotalTimeToVote += temp.getVotedTime();\r\n\t\t\tif (temp.getVoted()){\t\t\t// They are a voter and they voted\r\n\t\t\t\ttotal++;\t\t\t\t\t\t// Incroment the total number of votes\r\n\t\t\t\tif (temp.getVote()){ \t\t\t\t// They are a voter and they voted yes\r\n\t\t\t\t\tyeses++;\t\t\t\t\t\t// Incroment the number of yesses\r\n\t\t\t\t}\r\n\t\t\t}\r\n\t\t}\r\n\r\n\t\tif (total < 5){\r\n\t\t\tif (block.timestamp - startTime > 172800){\r\n\t\t\t\treturn 60;\r\n\t\t\t}\r\n\t\t\treturn -2;\r\n\t\t}\r\n\r\n\t\tbool outcome = (100*yeses) / total >= 66;\t\t\t// The outcome of the vote\r\n\r\n\t\tuint participationFactor = 2;\r\n\t\tuint correctionFactor = 2;\r\n\t\tuint timeFactor = 1;\r\n\r\n\t\tuint averageTimeToVote = totalTimeToVote / total;\r\n\r\n\t\tfor (uint i = 0; i < voters.getValuesLength(); i++) { \t// Goes through all voters\r\n\t\t\tVotingToken.Token storage temp = votingtokens[voters.getValue(i)].token;\r\n\t\t\tif (temp.getVoted()){\t\t\t\t\t\t\t// They are a voter and they voted\r\n\t\t\t\tuint amount = (price / participationFactor) / total;\t\t\t// Reward for participating \r\n\r\n\t\t\t\tif (outcome && temp.getVote()){\t\t\t\t\t\t\t\t\t// Successful vote and voted yes\r\n\t\t\t\t\tamount += (price / correctionFactor) / yeses;\t\t\t\t// Reward for voting correctly \r\n\t\t\t\t}else if (!outcome && !temp.getVote()){\t\t\t\t\t\t\t// Unsuccessful vote and voted no\r\n\t\t\t\t\tamount += (price / correctionFactor) / (total-yeses);\t\t// Reward for voting correctly \r\n\t\t\t\t}\r\n\r\n\t\t\t\tamount += (averageTimeToVote - temp.getVotedTime()) / timeFactor;\r\n\r\n\t\t\t\tif (amount > 0){\r\n\t\t\t\t\tPerson voter = UMI.getUser(voters.getValue(i)); // Gets voter in the network\r\n\t\t\t\t\tvoter.increaseBalance(amount);\t\t\t\t\t// Increases balance\r\n\t\t\t\t}\r\n\t\t\t}\r\n\t\t}\r\n\t\treturn int((100*yeses) / total);\t\t\t\t\t\t\t\t// Return outcome of vote\r\n\t}\r\n\r\n\t// Generate random number using an address\r\n\tfunction random(address address1, uint size) private view returns (uint8) {\r\n\t\treturn uint8(uint256(keccak256(abi.encodePacked(block.timestamp, block.difficulty, address1, gasleft()))) % size);\r\n\t\t// return uint8(uint256(keccak256(abi.encodePacked(block.difficulty, block.coinbase, address1, gasleft()))) % size);\r\n\t}\r\n\r\n\tfunction check(address _voter) private view {\r\n\t\trequire(voters.contains(_voter), \"Invalid Voter\");\r\n\t\trequire(VotingTokenCreated == voters.getValuesLength(), \"Have not created all the VotingTokens\");\r\n\t\trequire(transactionDataSets[_voter].length > 0, \"There is no transaction data to view\");\r\n\t} \r\n\r\n\tfunction getVoters() external view returns (address[] memory){\r\n\t\treturn voters.getValues();\r\n\t}\r\n}\r\n",
  "sourcePath": "C:\\Users\\m5w5b\\Desktop\\GitHub\\game-dapp\\AccountRecovery\\contracts\\Proposal.sol",
  "compiler": {
    "name": "solc",
    "version": "0.5.8+commit.23d335f2.Emscripten.clang"
  },
  "schemaVersion": "3.0.16",
  "updatedAt": "2019-11-06T17:13:07.924Z",
  "devdoc": {
    "methods": {}
  },
  "userdoc": {
    "methods": {}
  }
}