{
  "contractName": "ProposalCreator",
  "abi": [
    {
      "inputs": [
        {
          "name": "_UM",
          "type": "address"
        },
        {
          "name": "_TM",
          "type": "address"
        },
        {
          "name": "_PM",
          "type": "address"
        }
      ],
      "payable": false,
      "stateMutability": "nonpayable",
      "type": "constructor"
    },
    {
      "constant": false,
      "inputs": [
        {
          "name": "_oldAccount",
          "type": "address"
        }
      ],
      "name": "StartProposal",
      "outputs": [],
      "payable": false,
      "stateMutability": "nonpayable",
      "type": "function"
    },
    {
      "constant": true,
      "inputs": [
        {
          "name": "_oldAccount",
          "type": "address"
        }
      ],
      "name": "ViewPrice",
      "outputs": [
        {
          "name": "",
          "type": "uint256"
        }
      ],
      "payable": false,
      "stateMutability": "view",
      "type": "function"
    },
    {
      "constant": false,
      "inputs": [
        {
          "name": "_oldAccount",
          "type": "address"
        },
        {
          "name": "_pay",
          "type": "bool"
        }
      ],
      "name": "Pay",
      "outputs": [],
      "payable": false,
      "stateMutability": "nonpayable",
      "type": "function"
    },
    {
      "constant": false,
      "inputs": [
        {
          "name": "_oldAccount",
          "type": "address"
        },
        {
          "name": "_tradePartners",
          "type": "address[]"
        }
      ],
      "name": "AddTradePartners",
      "outputs": [],
      "payable": false,
      "stateMutability": "nonpayable",
      "type": "function"
    },
    {
      "constant": true,
      "inputs": [
        {
          "name": "_oldAccount",
          "type": "address"
        }
      ],
      "name": "ViewVoters",
      "outputs": [
        {
          "name": "",
          "type": "address[]"
        }
      ],
      "payable": false,
      "stateMutability": "view",
      "type": "function"
    },
    {
      "constant": false,
      "inputs": [
        {
          "name": "_oldAccount",
          "type": "address"
        },
        {
          "name": "_veto",
          "type": "bool"
        }
      ],
      "name": "RandomTradingPartner",
      "outputs": [],
      "payable": false,
      "stateMutability": "nonpayable",
      "type": "function"
    },
    {
      "constant": true,
      "inputs": [
        {
          "name": "_oldAccount",
          "type": "address"
        }
      ],
      "name": "ViewRandomTradingPartner",
      "outputs": [
        {
          "name": "",
          "type": "address"
        }
      ],
      "payable": false,
      "stateMutability": "view",
      "type": "function"
    },
    {
      "constant": false,
      "inputs": [
        {
          "name": "_oldAccount",
          "type": "address"
        },
        {
          "name": "_timeStamp",
          "type": "uint256"
        },
        {
          "name": "_voter",
          "type": "address"
        },
        {
          "name": "_amount",
          "type": "uint256"
        },
        {
          "name": "_description",
          "type": "string"
        },
        {
          "name": "_location",
          "type": "string"
        },
        {
          "name": "_itemsInTrade",
          "type": "string"
        }
      ],
      "name": "MakeTransactionDataSet",
      "outputs": [],
      "payable": false,
      "stateMutability": "nonpayable",
      "type": "function"
    }
  ],
  "bytecode": "0x608060405234801561001057600080fd5b506040516060806154608339810180604052606081101561003057600080fd5b81019080805190602001909291908051906020019092919080519060200190929190505050826000806101000a81548173ffffffffffffffffffffffffffffffffffffffff021916908373ffffffffffffffffffffffffffffffffffffffff16021790555081600160006101000a81548173ffffffffffffffffffffffffffffffffffffffff021916908373ffffffffffffffffffffffffffffffffffffffff16021790555080600260006101000a81548173ffffffffffffffffffffffffffffffffffffffff021916908373ffffffffffffffffffffffffffffffffffffffff160217905550505050615337806101296000396000f3fe608060405234801561001057600080fd5b50600436106100885760003560e01c806366fe4d2f1161005b57806366fe4d2f1461024a578063a20380c0146102a2578063ca4e206214610419578063d5e3b5621461045d57610088565b80632ec59b6e1461008d578063342e6f63146100dd5780634bdc7b501461012d578063516e4c2a146101b1575b600080fd5b6100db600480360360408110156100a357600080fd5b81019080803573ffffffffffffffffffffffffffffffffffffffff1690602001909291908035151590602001909291905050506104f6565b005b61012b600480360360408110156100f357600080fd5b81019080803573ffffffffffffffffffffffffffffffffffffffff169060200190929190803515159060200190929190505050610875565b005b61016f6004803603602081101561014357600080fd5b81019080803573ffffffffffffffffffffffffffffffffffffffff1690602001909291905050506109f5565b604051808273ffffffffffffffffffffffffffffffffffffffff1673ffffffffffffffffffffffffffffffffffffffff16815260200191505060405180910390f35b610248600480360360408110156101c757600080fd5b81019080803573ffffffffffffffffffffffffffffffffffffffff1690602001909291908035906020019064010000000081111561020457600080fd5b82018360208201111561021657600080fd5b8035906020019184602083028401116401000000008311171561023857600080fd5b9091929391929390505050610b8c565b005b61028c6004803603602081101561026057600080fd5b81019080803573ffffffffffffffffffffffffffffffffffffffff169060200190929190505050610fca565b6040518082815260200191505060405180910390f35b610417600480360360e08110156102b857600080fd5b81019080803573ffffffffffffffffffffffffffffffffffffffff16906020019092919080359060200190929190803573ffffffffffffffffffffffffffffffffffffffff169060200190929190803590602001909291908035906020019064010000000081111561032957600080fd5b82018360208201111561033b57600080fd5b8035906020019184600183028401116401000000008311171561035d57600080fd5b90919293919293908035906020019064010000000081111561037e57600080fd5b82018360208201111561039057600080fd5b803590602001918460018302840111640100000000831117156103b257600080fd5b9091929391929390803590602001906401000000008111156103d357600080fd5b8201836020820111156103e557600080fd5b8035906020019184600183028401116401000000008311171561040757600080fd5b9091929391929390505050611161565b005b61045b6004803603602081101561042f57600080fd5b81019080803573ffffffffffffffffffffffffffffffffffffffff16906020019092919050505061161c565b005b61049f6004803603602081101561047357600080fd5b81019080803573ffffffffffffffffffffffffffffffffffffffff1690602001909291905050506119c6565b6040518080602001828103825283818151815260200191508051906020019060200280838360005b838110156104e25780820151818401526020810190506104c7565b505050509050019250505060405180910390f35b80156107835760008060009054906101000a900473ffffffffffffffffffffffffffffffffffffffff1673ffffffffffffffffffffffffffffffffffffffff16636f77926b336040518263ffffffff1660e01b8152600401808273ffffffffffffffffffffffffffffffffffffffff1673ffffffffffffffffffffffffffffffffffffffff16815260200191505060206040518083038186803b15801561059c57600080fd5b505afa1580156105b0573d6000803e3d6000fd5b505050506040513d60208110156105c657600080fd5b81019080805190602001909291905050509050600260009054906101000a900473ffffffffffffffffffffffffffffffffffffffff1673ffffffffffffffffffffffffffffffffffffffff1663d4b3853684336040518363ffffffff1660e01b8152600401808373ffffffffffffffffffffffffffffffffffffffff1673ffffffffffffffffffffffffffffffffffffffff1681526020018273ffffffffffffffffffffffffffffffffffffffff1673ffffffffffffffffffffffffffffffffffffffff1681526020019250505060206040518083038186803b1580156106ac57600080fd5b505afa1580156106c0573d6000803e3d6000fd5b505050506040513d60208110156106d657600080fd5b810190808051906020019092919050505073ffffffffffffffffffffffffffffffffffffffff1663cde596b2826040518263ffffffff1660e01b8152600401808273ffffffffffffffffffffffffffffffffffffffff1673ffffffffffffffffffffffffffffffffffffffff168152602001915050600060405180830381600087803b15801561076557600080fd5b505af1158015610779573d6000803e3d6000fd5b5050505050610871565b600260009054906101000a900473ffffffffffffffffffffffffffffffffffffffff1673ffffffffffffffffffffffffffffffffffffffff16636f4b8b7283336040518363ffffffff1660e01b8152600401808373ffffffffffffffffffffffffffffffffffffffff1673ffffffffffffffffffffffffffffffffffffffff1681526020018273ffffffffffffffffffffffffffffffffffffffff1673ffffffffffffffffffffffffffffffffffffffff16815260200192505050600060405180830381600087803b15801561085857600080fd5b505af115801561086c573d6000803e3d6000fd5b505050505b5050565b600260009054906101000a900473ffffffffffffffffffffffffffffffffffffffff1673ffffffffffffffffffffffffffffffffffffffff1663d4b3853683336040518363ffffffff1660e01b8152600401808373ffffffffffffffffffffffffffffffffffffffff1673ffffffffffffffffffffffffffffffffffffffff1681526020018273ffffffffffffffffffffffffffffffffffffffff1673ffffffffffffffffffffffffffffffffffffffff1681526020019250505060206040518083038186803b15801561094857600080fd5b505afa15801561095c573d6000803e3d6000fd5b505050506040513d602081101561097257600080fd5b810190808051906020019092919050505073ffffffffffffffffffffffffffffffffffffffff166376a3fab6826040518263ffffffff1660e01b81526004018082151515158152602001915050600060405180830381600087803b1580156109d957600080fd5b505af11580156109ed573d6000803e3d6000fd5b505050505050565b6000600260009054906101000a900473ffffffffffffffffffffffffffffffffffffffff1673ffffffffffffffffffffffffffffffffffffffff1663d4b3853683336040518363ffffffff1660e01b8152600401808373ffffffffffffffffffffffffffffffffffffffff1673ffffffffffffffffffffffffffffffffffffffff1681526020018273ffffffffffffffffffffffffffffffffffffffff1673ffffffffffffffffffffffffffffffffffffffff1681526020019250505060206040518083038186803b158015610aca57600080fd5b505afa158015610ade573d6000803e3d6000fd5b505050506040513d6020811015610af457600080fd5b810190808051906020019092919050505073ffffffffffffffffffffffffffffffffffffffff1663137858a16040518163ffffffff1660e01b815260040160206040518083038186803b158015610b4a57600080fd5b505afa158015610b5e573d6000803e3d6000fd5b505050506040513d6020811015610b7457600080fd5b81019080805190602001909291905050509050919050565b6060600260009054906101000a900473ffffffffffffffffffffffffffffffffffffffff1673ffffffffffffffffffffffffffffffffffffffff1663352ef89c856040518263ffffffff1660e01b8152600401808273ffffffffffffffffffffffffffffffffffffffff1673ffffffffffffffffffffffffffffffffffffffff16815260200191505060006040518083038186803b158015610c2d57600080fd5b505afa158015610c41573d6000803e3d6000fd5b505050506040513d6000823e3d601f19601f820116820180604052506020811015610c6b57600080fd5b810190808051640100000000811115610c8357600080fd5b82810190506020810184811115610c9957600080fd5b8151856020820283011164010000000082111715610cb657600080fd5b50509291905050509050600260009054906101000a900473ffffffffffffffffffffffffffffffffffffffff1673ffffffffffffffffffffffffffffffffffffffff1663d4b3853685336040518363ffffffff1660e01b8152600401808373ffffffffffffffffffffffffffffffffffffffff1673ffffffffffffffffffffffffffffffffffffffff1681526020018273ffffffffffffffffffffffffffffffffffffffff1673ffffffffffffffffffffffffffffffffffffffff1681526020019250505060206040518083038186803b158015610d9357600080fd5b505afa158015610da7573d6000803e3d6000fd5b505050506040513d6020811015610dbd57600080fd5b810190808051906020019092919050505073ffffffffffffffffffffffffffffffffffffffff166317a86a9f3386868686600160009054906101000a900473ffffffffffffffffffffffffffffffffffffffff16600260009054906101000a900473ffffffffffffffffffffffffffffffffffffffff166040518863ffffffff1660e01b8152600401808873ffffffffffffffffffffffffffffffffffffffff1673ffffffffffffffffffffffffffffffffffffffff1681526020018773ffffffffffffffffffffffffffffffffffffffff1673ffffffffffffffffffffffffffffffffffffffff16815260200180602001806020018573ffffffffffffffffffffffffffffffffffffffff1673ffffffffffffffffffffffffffffffffffffffff1681526020018473ffffffffffffffffffffffffffffffffffffffff1673ffffffffffffffffffffffffffffffffffffffff1681526020018381038352888882818152602001925060200280828437600081840152601f19601f820116905080830192505050838103825286818151815260200191508051906020019060200280838360005b83811015610f80578082015181840152602081019050610f65565b505050509050019950505050505050505050600060405180830381600087803b158015610fac57600080fd5b505af1158015610fc0573d6000803e3d6000fd5b5050505050505050565b6000600260009054906101000a900473ffffffffffffffffffffffffffffffffffffffff1673ffffffffffffffffffffffffffffffffffffffff1663d4b3853683336040518363ffffffff1660e01b8152600401808373ffffffffffffffffffffffffffffffffffffffff1673ffffffffffffffffffffffffffffffffffffffff1681526020018273ffffffffffffffffffffffffffffffffffffffff1673ffffffffffffffffffffffffffffffffffffffff1681526020019250505060206040518083038186803b15801561109f57600080fd5b505afa1580156110b3573d6000803e3d6000fd5b505050506040513d60208110156110c957600080fd5b810190808051906020019092919050505073ffffffffffffffffffffffffffffffffffffffff1663a035b1fe6040518163ffffffff1660e01b815260040160206040518083038186803b15801561111f57600080fd5b505afa158015611133573d6000803e3d6000fd5b505050506040513d602081101561114957600080fd5b81019080805190602001909291905050509050919050565b600160009054906101000a900473ffffffffffffffffffffffffffffffffffffffff1673ffffffffffffffffffffffffffffffffffffffff1663f90bee568b8a8c8b6040518563ffffffff1660e01b8152600401808573ffffffffffffffffffffffffffffffffffffffff1673ffffffffffffffffffffffffffffffffffffffff1681526020018473ffffffffffffffffffffffffffffffffffffffff1673ffffffffffffffffffffffffffffffffffffffff16815260200183815260200182815260200194505050505060006040518083038186803b15801561124457600080fd5b505afa158015611258573d6000803e3d6000fd5b505050506000600260009054906101000a900473ffffffffffffffffffffffffffffffffffffffff1673ffffffffffffffffffffffffffffffffffffffff1663d4b385368c336040518363ffffffff1660e01b8152600401808373ffffffffffffffffffffffffffffffffffffffff1673ffffffffffffffffffffffffffffffffffffffff1681526020018273ffffffffffffffffffffffffffffffffffffffff1673ffffffffffffffffffffffffffffffffffffffff1681526020019250505060206040518083038186803b15801561133157600080fd5b505afa158015611345573d6000803e3d6000fd5b505050506040513d602081101561135b57600080fd5b810190808051906020019092919050505090508073ffffffffffffffffffffffffffffffffffffffff16634f7ae4ae8a6040518263ffffffff1660e01b8152600401808273ffffffffffffffffffffffffffffffffffffffff1673ffffffffffffffffffffffffffffffffffffffff16815260200191505060206040518083038186803b1580156113eb57600080fd5b505afa1580156113ff573d6000803e3d6000fd5b505050506040513d602081101561141557600080fd5b8101908080519060200190929190505050611498576040517f08c379a000000000000000000000000000000000000000000000000000000000815260040180806020018281038252600d8152602001807f496e76616c696420566f7465720000000000000000000000000000000000000081525060200191505060405180910390fd5b8073ffffffffffffffffffffffffffffffffffffffff16634f24d0d78c8c8c8c8c8c8c8c8c8c6040518b63ffffffff1660e01b8152600401808b73ffffffffffffffffffffffffffffffffffffffff1673ffffffffffffffffffffffffffffffffffffffff1681526020018a81526020018973ffffffffffffffffffffffffffffffffffffffff1673ffffffffffffffffffffffffffffffffffffffff16815260200188815260200180602001806020018060200184810384528a8a82818152602001925080828437600081840152601f19601f8201169050808301925050508481038352888882818152602001925080828437600081840152601f19601f8201169050808301925050508481038252868682818152602001925080828437600081840152601f19601f8201169050808301925050509d5050505050505050505050505050600060405180830381600087803b1580156115f757600080fd5b505af115801561160b573d6000803e3d6000fd5b505050505050505050505050505050565b600260009054906101000a900473ffffffffffffffffffffffffffffffffffffffff1673ffffffffffffffffffffffffffffffffffffffff1663870ad86082336040518363ffffffff1660e01b8152600401808373ffffffffffffffffffffffffffffffffffffffff1673ffffffffffffffffffffffffffffffffffffffff1681526020018273ffffffffffffffffffffffffffffffffffffffff1673ffffffffffffffffffffffffffffffffffffffff1681526020019250505060006040518083038186803b1580156116ef57600080fd5b505afa158015611703573d6000803e3d6000fd5b50505050600060146000809054906101000a900473ffffffffffffffffffffffffffffffffffffffff1673ffffffffffffffffffffffffffffffffffffffff16636f77926b846040518263ffffffff1660e01b8152600401808273ffffffffffffffffffffffffffffffffffffffff1673ffffffffffffffffffffffffffffffffffffffff16815260200191505060206040518083038186803b1580156117a957600080fd5b505afa1580156117bd573d6000803e3d6000fd5b505050506040513d60208110156117d357600080fd5b810190808051906020019092919050505073ffffffffffffffffffffffffffffffffffffffff1663b69ef8a86040518163ffffffff1660e01b815260040160206040518083038186803b15801561182957600080fd5b505afa15801561183d573d6000803e3d6000fd5b505050506040513d602081101561185357600080fd5b81019080805190602001909291905050508161186b57fe5b049050600260009054906101000a900473ffffffffffffffffffffffffffffffffffffffff1673ffffffffffffffffffffffffffffffffffffffff16638af10ea78333846040516118bb90611bb3565b80828152602001915050604051809103906000f0801580156118e1573d6000803e3d6000fd5b506040518463ffffffff1660e01b8152600401808473ffffffffffffffffffffffffffffffffffffffff1673ffffffffffffffffffffffffffffffffffffffff1681526020018373ffffffffffffffffffffffffffffffffffffffff1673ffffffffffffffffffffffffffffffffffffffff1681526020018273ffffffffffffffffffffffffffffffffffffffff1673ffffffffffffffffffffffffffffffffffffffff1681526020019350505050600060405180830381600087803b1580156119aa57600080fd5b505af11580156119be573d6000803e3d6000fd5b505050505050565b6060600260009054906101000a900473ffffffffffffffffffffffffffffffffffffffff1673ffffffffffffffffffffffffffffffffffffffff1663d4b3853683336040518363ffffffff1660e01b8152600401808373ffffffffffffffffffffffffffffffffffffffff1673ffffffffffffffffffffffffffffffffffffffff1681526020018273ffffffffffffffffffffffffffffffffffffffff1673ffffffffffffffffffffffffffffffffffffffff1681526020019250505060206040518083038186803b158015611a9b57600080fd5b505afa158015611aaf573d6000803e3d6000fd5b505050506040513d6020811015611ac557600080fd5b810190808051906020019092919050505073ffffffffffffffffffffffffffffffffffffffff1663cdd722536040518163ffffffff1660e01b815260040160006040518083038186803b158015611b1b57600080fd5b505afa158015611b2f573d6000803e3d6000fd5b505050506040513d6000823e3d601f19601f820116820180604052506020811015611b5957600080fd5b810190808051640100000000811115611b7157600080fd5b82810190506020810184811115611b8757600080fd5b8151856020820283011164010000000082111715611ba457600080fd5b50509291905050509050919050565b61374b80611bc18339019056fe60806040526003600b60016101000a81548160ff021916908360ff16021790555034801561002c57600080fd5b5060405160208061374b8339810180604052602081101561004c57600080fd5b810190808051906020019092919050505080600981905550506136d7806100746000396000f3fe608060405234801561001057600080fd5b50600436106100b45760003560e01c8063a035b1fe11610071578063a035b1fe146104b6578063cdd72253146104d4578063cde596b214610533578063e628c2e014610577578063f91ac89914610646578063fa041dd7146107e5576100b4565b8063137858a1146100b957806317a86a9f14610103578063363b39a2146102515780634f24d0d7146102b35780634f7ae4ae1461042a57806376a3fab614610486575b600080fd5b6100c1610835565b604051808273ffffffffffffffffffffffffffffffffffffffff1673ffffffffffffffffffffffffffffffffffffffff16815260200191505060405180910390f35b61024f600480360360c081101561011957600080fd5b81019080803573ffffffffffffffffffffffffffffffffffffffff169060200190929190803573ffffffffffffffffffffffffffffffffffffffff1690602001909291908035906020019064010000000081111561017657600080fd5b82018360208201111561018857600080fd5b803590602001918460208302840111640100000000831117156101aa57600080fd5b9091929391929390803590602001906401000000008111156101cb57600080fd5b8201836020820111156101dd57600080fd5b803590602001918460208302840111640100000000831117156101ff57600080fd5b9091929391929390803573ffffffffffffffffffffffffffffffffffffffff169060200190929190803573ffffffffffffffffffffffffffffffffffffffff16906020019092919050505061085b565b005b61029d6004803603604081101561026757600080fd5b8101908080359060200190929190803573ffffffffffffffffffffffffffffffffffffffff16906020019092919050505061150f565b6040518082815260200191505060405180910390f35b610428600480360360e08110156102c957600080fd5b81019080803573ffffffffffffffffffffffffffffffffffffffff16906020019092919080359060200190929190803573ffffffffffffffffffffffffffffffffffffffff169060200190929190803590602001909291908035906020019064010000000081111561033a57600080fd5b82018360208201111561034c57600080fd5b8035906020019184600183028401116401000000008311171561036e57600080fd5b90919293919293908035906020019064010000000081111561038f57600080fd5b8201836020820111156103a157600080fd5b803590602001918460018302840111640100000000831117156103c357600080fd5b9091929391929390803590602001906401000000008111156103e457600080fd5b8201836020820111156103f657600080fd5b8035906020019184600183028401116401000000008311171561041857600080fd5b9091929391929390505050611f8f565b005b61046c6004803603602081101561044057600080fd5b81019080803573ffffffffffffffffffffffffffffffffffffffff169060200190929190505050612404565b604051808215151515815260200191505060405180910390f35b6104b46004803603602081101561049c57600080fd5b810190808035151590602001909291905050506124ce565b005b6104be612a9d565b6040518082815260200191505060405180910390f35b6104dc612aa3565b6040518080602001828103825283818151815260200191508051906020019060200280838360005b8381101561051f578082015181840152602081019050610504565b505050509050019250505060405180910390f35b6105756004803603602081101561054957600080fd5b81019080803573ffffffffffffffffffffffffffffffffffffffff169060200190929190505050612b8d565b005b6105c36004803603604081101561058d57600080fd5b81019080803573ffffffffffffffffffffffffffffffffffffffff16906020019092919080359060200190929190505050612cf3565b604051808581526020018481526020018373ffffffffffffffffffffffffffffffffffffffff1673ffffffffffffffffffffffffffffffffffffffff1681526020018273ffffffffffffffffffffffffffffffffffffffff1673ffffffffffffffffffffffffffffffffffffffff16815260200194505050505060405180910390f35b6106926004803603604081101561065c57600080fd5b81019080803573ffffffffffffffffffffffffffffffffffffffff16906020019092919080359060200190929190505050612f00565b60405180806020018060200180602001848103845287818151815260200191508051906020019080838360005b838110156106da5780820151818401526020810190506106bf565b50505050905090810190601f1680156107075780820380516001836020036101000a031916815260200191505b50848103835286818151815260200191508051906020019080838360005b83811015610740578082015181840152602081019050610725565b50505050905090810190601f16801561076d5780820380516001836020036101000a031916815260200191505b50848103825285818151815260200191508051906020019080838360005b838110156107a657808201518184015260208101905061078b565b50505050905090810190601f1680156107d35780820380516001836020036101000a031916815260200191505b50965050505050505060405180910390f35b610833600480360360408110156107fb57600080fd5b81019080803573ffffffffffffffffffffffffffffffffffffffff1690602001909291908035151590602001909291905050506131de565b005b600760009054906101000a900473ffffffffffffffffffffffffffffffffffffffff1681565b600b60029054906101000a900460ff166108c0576040517f08c379a00000000000000000000000000000000000000000000000000000000081526004018080602001828103825260278152602001806135e66027913960400191505060405180910390fd5b60008090505b848490508110156109a457600473__Set___________________________________633c25804890918787858181106108fb57fe5b9050602002013573ffffffffffffffffffffffffffffffffffffffff166040518363ffffffff1660e01b8152600401808381526020018273ffffffffffffffffffffffffffffffffffffffff1673ffffffffffffffffffffffffffffffffffffffff1681526020019250505060006040518083038186803b15801561097f57600080fd5b505af4158015610993573d6000803e3d6000fd5b5050505080806001019150506108c6565b5060008090505b86869050811015610dd5578686828181106109c257fe5b9050602002013573ffffffffffffffffffffffffffffffffffffffff1673ffffffffffffffffffffffffffffffffffffffff168973ffffffffffffffffffffffffffffffffffffffff1614610dc8578173ffffffffffffffffffffffffffffffffffffffff16634418adbc888884818110610a3957fe5b9050602002013573ffffffffffffffffffffffffffffffffffffffff166040518263ffffffff1660e01b8152600401808273ffffffffffffffffffffffffffffffffffffffff1673ffffffffffffffffffffffffffffffffffffffff16815260200191505060206040518083038186803b158015610ab657600080fd5b505afa158015610aca573d6000803e3d6000fd5b505050506040513d6020811015610ae057600080fd5b8101908080519060200190929190505050610dc75760008373ffffffffffffffffffffffffffffffffffffffff166314ee741f8a8a8a86818110610b2057fe5b9050602002013573ffffffffffffffffffffffffffffffffffffffff166040518363ffffffff1660e01b8152600401808373ffffffffffffffffffffffffffffffffffffffff1673ffffffffffffffffffffffffffffffffffffffff1681526020018273ffffffffffffffffffffffffffffffffffffffff1673ffffffffffffffffffffffffffffffffffffffff1681526020019250505060206040518083038186803b158015610bd057600080fd5b505afa158015610be4573d6000803e3d6000fd5b505050506040513d6020811015610bfa57600080fd5b81019080805190602001909291905050501115610dc657600473__Set___________________________________636aa90e979091898985818110610c3b57fe5b9050602002013573ffffffffffffffffffffffffffffffffffffffff166040518363ffffffff1660e01b8152600401808381526020018273ffffffffffffffffffffffffffffffffffffffff1673ffffffffffffffffffffffffffffffffffffffff1681526020019250505060206040518083038186803b158015610cbf57600080fd5b505af4158015610cd3573d6000803e3d6000fd5b505050506040513d6020811015610ce957600080fd5b8101908080519060200190929190505050610dc557600273__Set___________________________________633c2580489091898985818110610d2857fe5b9050602002013573ffffffffffffffffffffffffffffffffffffffff166040518363ffffffff1660e01b8152600401808381526020018273ffffffffffffffffffffffffffffffffffffffff1673ffffffffffffffffffffffffffffffffffffffff1681526020019250505060006040518083038186803b158015610dac57600080fd5b505af4158015610dc0573d6000803e3d6000fd5b505050505b5b5b5b80806001019150506109ab565b506003600273__Set___________________________________63ea70683890916040518263ffffffff1660e01b81526004018082815260200191505060206040518083038186803b158015610e2a57600080fd5b505af4158015610e3e573d6000803e3d6000fd5b505050506040513d6020811015610e5457600080fd5b81019080805190602001909291905050501015610ebc576040517f08c379a000000000000000000000000000000000000000000000000000000000815260040180806020018281038252602a815260200180613682602a913960400191505060405180910390fd5b6003600273__Set___________________________________63ea70683890916040518263ffffffff1660e01b81526004018082815260200191505060206040518083038186803b158015610f1057600080fd5b505af4158015610f24573d6000803e3d6000fd5b505050506040513d6020811015610f3a57600080fd5b8101908080519060200190929190505050878790500310610fa6576040517f08c379a000000000000000000000000000000000000000000000000000000000815260040180806020018281038252602d815260200180613515602d913960400191505060405180910390fd5b60028073__Set___________________________________63ea70683890916040518263ffffffff1660e01b81526004018082815260200191505060206040518083038186803b158015610ff957600080fd5b505af415801561100d573d6000803e3d6000fd5b505050506040513d602081101561102357600080fd5b81019080805190602001909291905050500260088190555060608273ffffffffffffffffffffffffffffffffffffffff16637f3d25de896040518263ffffffff1660e01b8152600401808273ffffffffffffffffffffffffffffffffffffffff1673ffffffffffffffffffffffffffffffffffffffff168152602001915050600060405180830381600087803b1580156110bc57600080fd5b505af11580156110d0573d6000803e3d6000fd5b505050506040513d6000823e3d601f19601f8201168201806040525060208110156110fa57600080fd5b81019080805164010000000081111561111257600080fd5b8281019050602081018481111561112857600080fd5b815185602082028301116401000000008211171561114557600080fd5b5050929190505050905060008090505b81518110156113dd5781818151811061116a57fe5b602002602001015173ffffffffffffffffffffffffffffffffffffffff168a73ffffffffffffffffffffffffffffffffffffffff16146113d057600273__Set___________________________________636aa90e9790918484815181106111ce57fe5b60200260200101516040518363ffffffff1660e01b8152600401808381526020018273ffffffffffffffffffffffffffffffffffffffff1673ffffffffffffffffffffffffffffffffffffffff1681526020019250505060206040518083038186803b15801561123d57600080fd5b505af4158015611251573d6000803e3d6000fd5b505050506040513d602081101561126757600080fd5b81019080805190602001909291905050506113cf57600473__Set___________________________________636aa90e9790918484815181106112a657fe5b60200260200101516040518363ffffffff1660e01b8152600401808381526020018273ffffffffffffffffffffffffffffffffffffffff1673ffffffffffffffffffffffffffffffffffffffff1681526020019250505060206040518083038186803b15801561131557600080fd5b505af4158015611329573d6000803e3d6000fd5b505050506040513d602081101561133f57600080fd5b81019080805190602001909291905050506113ce57600682828151811061136257fe5b602002602001015190806001815401808255809150509060018203906000526020600020016000909192909190916101000a81548173ffffffffffffffffffffffffffffffffffffffff021916908373ffffffffffffffffffffffffffffffffffffffff160217905550505b5b5b8080600101915050611155565b50600273__Set___________________________________63ea70683890916040518263ffffffff1660e01b81526004018082815260200191505060206040518083038186803b15801561143057600080fd5b505af4158015611444573d6000803e3d6000fd5b505050506040513d602081101561145a57600080fd5b810190808051906020019092919050505060068054905010156114c8576040517f08c379a00000000000000000000000000000000000000000000000000000000081526004018080602001828103825260268152602001806135426026913960400191505060405180910390fd5b6114d260016124ce565b600b600181819054906101000a900460ff168092919060010191906101000a81548160ff021916908360ff16021790555050505050505050505050565b6000600273__Set___________________________________63ea70683890916040518263ffffffff1660e01b81526004018082815260200191505060206040518083038186803b15801561156357600080fd5b505af4158015611577573d6000803e3d6000fd5b505050506040513d602081101561158d57600080fd5b8101908080519060200190929190505050600b60009054906101000a900460ff1660ff1614611607576040517f08c379a00000000000000000000000000000000000000000000000000000000081526004018080602001828103825260258152602001806135686025913960400191505060405180910390fd5b600a54420383111561163b577fffffffffffffffffffffffffffffffffffffffffffffffffffffffffffffffff9050611f89565b60008090506000809050600080905060008090505b600273__Set___________________________________63ea70683890916040518263ffffffff1660e01b81526004018082815260200191505060206040518083038186803b1580156116a257600080fd5b505af41580156116b6573d6000803e3d6000fd5b505050506040513d60208110156116cc57600080fd5b810190808051906020019092919050505081101561198d57600060016000600273__Set___________________________________6344f7330d9091866040518363ffffffff1660e01b8152600401808381526020018281526020019250505060206040518083038186803b15801561174457600080fd5b505af4158015611758573d6000803e3d6000fd5b505050506040513d602081101561176e57600080fd5b810190808051906020019092919050505073ffffffffffffffffffffffffffffffffffffffff1673ffffffffffffffffffffffffffffffffffffffff16815260200190815260200160002090508073__VotingToken___________________________63ffef631c90916040518263ffffffff1660e01b81526004018082815260200191505060206040518083038186803b15801561180c57600080fd5b505af4158015611820573d6000803e3d6000fd5b505050506040513d602081101561183657600080fd5b8101908080519060200190929190505050830192508073__VotingToken___________________________63117d52aa90916040518263ffffffff1660e01b81526004018082815260200191505060206040518083038186803b15801561189c57600080fd5b505af41580156118b0573d6000803e3d6000fd5b505050506040513d60208110156118c657600080fd5b81019080805190602001909291905050501561197f5784806001019550508073__VotingToken___________________________63fb84fe7b90916040518263ffffffff1660e01b81526004018082815260200191505060206040518083038186803b15801561193557600080fd5b505af4158015611949573d6000803e3d6000fd5b505050506040513d602081101561195f57600080fd5b81019080805190602001909291905050501561197e5783806001019450505b5b508080600101915050611650565b5060058310156119dd576202a300600a54420311156119b257603c9350505050611f89565b7ffffffffffffffffffffffffffffffffffffffffffffffffffffffffffffffffe9350505050611f89565b600060428484606402816119ed57fe5b04101590506000600290506000600290506000600190506000878681611a0f57fe5b04905060008090505b600273__Set___________________________________63ea70683890916040518263ffffffff1660e01b81526004018082815260200191505060206040518083038186803b158015611a6a57600080fd5b505af4158015611a7e573d6000803e3d6000fd5b505050506040513d6020811015611a9457600080fd5b8101908080519060200190929190505050811015611f7057600060016000600273__Set___________________________________6344f7330d9091866040518363ffffffff1660e01b8152600401808381526020018281526020019250505060206040518083038186803b158015611b0c57600080fd5b505af4158015611b20573d6000803e3d6000fd5b505050506040513d6020811015611b3657600080fd5b810190808051906020019092919050505073ffffffffffffffffffffffffffffffffffffffff1673ffffffffffffffffffffffffffffffffffffffff16815260200190815260200160002090508073__VotingToken___________________________63117d52aa90916040518263ffffffff1660e01b81526004018082815260200191505060206040518083038186803b158015611bd457600080fd5b505af4158015611be8573d6000803e3d6000fd5b505050506040513d6020811015611bfe57600080fd5b810190808051906020019092919050505015611f625760008a8760095481611c2257fe5b0481611c2a57fe5b0490508173__VotingToken___________________________63fb84fe7b90916040518263ffffffff1660e01b81526004018082815260200191505060206040518083038186803b158015611c7e57600080fd5b505af4158015611c92573d6000803e3d6000fd5b505050506040513d6020811015611ca857600080fd5b810190808051906020019092919050505015158815151415611d05578715611ce857898660095481611cd657fe5b0481611cde57fe5b0481019050611d04565b898b038660095481611cf657fe5b0481611cfe57fe5b04810190505b5b848273__VotingToken___________________________63ffef631c90916040518263ffffffff1660e01b81526004018082815260200191505060206040518083038186803b158015611d5757600080fd5b505af4158015611d6b573d6000803e3d6000fd5b505050506040513d6020811015611d8157600080fd5b8101908080519060200190929190505050850381611d9b57fe5b04810190506000811115611f60578c73ffffffffffffffffffffffffffffffffffffffff16636f77926b600273__Set___________________________________6344f7330d9091876040518363ffffffff1660e01b8152600401808381526020018281526020019250505060206040518083038186803b158015611e1f57600080fd5b505af4158015611e33573d6000803e3d6000fd5b505050506040513d6020811015611e4957600080fd5b81019080805190602001909291905050506040518263ffffffff1660e01b8152600401808273ffffffffffffffffffffffffffffffffffffffff1673ffffffffffffffffffffffffffffffffffffffff16815260200191505060206040518083038186803b158015611eba57600080fd5b505afa158015611ece573d6000803e3d6000fd5b505050506040513d6020811015611ee457600080fd5b810190808051906020019092919050505073ffffffffffffffffffffffffffffffffffffffff16633e4ccb40826040518263ffffffff1660e01b815260040180828152602001915050600060405180830381600087803b158015611f4757600080fd5b505af1158015611f5b573d6000803e3d6000fd5b505050505b505b508080600101915050611a18565b50878760640281611f7d57fe5b04985050505050505050505b92915050565b60008060008a73ffffffffffffffffffffffffffffffffffffffff1673ffffffffffffffffffffffffffffffffffffffff1681526020019081526020016000208054905014156121685760405180606001604052806000815260200160001515815260200160001515815250600160008a73ffffffffffffffffffffffffffffffffffffffff1673ffffffffffffffffffffffffffffffffffffffff1681526020019081526020016000206000820151816000015560208201518160010160006101000a81548160ff02191690831515021790555060408201518160010160016101000a81548160ff021916908315150217905550905050600b600081819054906101000a900460ff168092919060010191906101000a81548160ff021916908360ff16021790555050600273__Set___________________________________63ea70683890916040518263ffffffff1660e01b81526004018082815260200191505060206040518083038186803b15801561210b57600080fd5b505af415801561211f573d6000803e3d6000fd5b505050506040513d602081101561213557600080fd5b8101908080519060200190929190505050600b60009054906101000a900460ff1660ff1614156121675742600a819055505b5b6000808973ffffffffffffffffffffffffffffffffffffffff1673ffffffffffffffffffffffffffffffffffffffff1681526020019081526020016000206040518060e0016040528088888080601f016020809104026020016040519081016040528093929190818152602001838380828437600081840152601f19601f82011690508083019250505050505050815260200186868080601f016020809104026020016040519081016040528093929190818152602001838380828437600081840152601f19601f82011690508083019250505050505050815260200184848080601f016020809104026020016040519081016040528093929190818152602001838380828437600081840152601f19601f8201169050808301925050505050505081526020018c73ffffffffffffffffffffffffffffffffffffffff1681526020018a73ffffffffffffffffffffffffffffffffffffffff1681526020018b815260200189815250908060018154018082558091505090600182039060005260206000209060070201600090919290919091506000820151816000019080519060200190612318929190613443565b506020820151816001019080519060200190612335929190613443565b506040820151816002019080519060200190612352929190613443565b5060608201518160030160006101000a81548173ffffffffffffffffffffffffffffffffffffffff021916908373ffffffffffffffffffffffffffffffffffffffff16021790555060808201518160040160006101000a81548173ffffffffffffffffffffffffffffffffffffffff021916908373ffffffffffffffffffffffffffffffffffffffff16021790555060a0820151816005015560c0820151816006015550505050505050505050505050565b6000600273__Set___________________________________636aa90e979091846040518363ffffffff1660e01b8152600401808381526020018273ffffffffffffffffffffffffffffffffffffffff1673ffffffffffffffffffffffffffffffffffffffff1681526020019250505060206040518083038186803b15801561248c57600080fd5b505af41580156124a0573d6000803e3d6000fd5b505050506040513d60208110156124b657600080fd5b81019080805190602001909291905050509050919050565b6000600854141561252a576040517f08c379a00000000000000000000000000000000000000000000000000000000081526004018080602001828103825260378152602001806135af6037913960400191505060405180910390fd5b8061274a57600273__Set___________________________________636aa90e979091600760009054906101000a900473ffffffffffffffffffffffffffffffffffffffff166040518363ffffffff1660e01b8152600401808381526020018273ffffffffffffffffffffffffffffffffffffffff1673ffffffffffffffffffffffffffffffffffffffff1681526020019250505060206040518083038186803b1580156125d757600080fd5b505af41580156125eb573d6000803e3d6000fd5b505050506040513d602081101561260157600080fd5b810190808051906020019092919050505015612685576040517f08c379a000000000000000000000000000000000000000000000000000000000815260040180806020018281038252601a8152602001807f416c72656164792061646465642074686174206164647265737300000000000081525060200191505060405180910390fd5b600273__Set___________________________________633c2580489091600760009054906101000a900473ffffffffffffffffffffffffffffffffffffffff166040518363ffffffff1660e01b8152600401808381526020018273ffffffffffffffffffffffffffffffffffffffff1673ffffffffffffffffffffffffffffffffffffffff1681526020019250505060006040518083038186803b15801561272d57600080fd5b505af4158015612741573d6000803e3d6000fd5b5050505061277e565b600b600181819054906101000a900460ff16809291906001900391906101000a81548160ff021916908360ff160217905550505b600854600273__Set___________________________________63ea70683890916040518263ffffffff1660e01b81526004018082815260200191505060206040518083038186803b1580156127d357600080fd5b505af41580156127e7573d6000803e3d6000fd5b505050506040513d60208110156127fd57600080fd5b810190808051906020019092919050505014612a9a576000600b60019054906101000a900460ff1660ff161161287e576040517f08c379a000000000000000000000000000000000000000000000000000000000815260040180806020018281038252602e81526020018061360d602e913960400191505060405180910390fd5b6000600680549050116128dc576040517f08c379a000000000000000000000000000000000000000000000000000000000815260040180806020018281038252604781526020018061363b6047913960600191505060405180910390fd5b600061290f600760009054906101000a900473ffffffffffffffffffffffffffffffffffffffff166006805490506133bf565b60ff1690506006818154811061292157fe5b9060005260206000200160009054906101000a900473ffffffffffffffffffffffffffffffffffffffff16600760006101000a81548173ffffffffffffffffffffffffffffffffffffffff021916908373ffffffffffffffffffffffffffffffffffffffff16021790555060008190505b600160068054905003811015612a3f57600660018201815481106129b257fe5b9060005260206000200160009054906101000a900473ffffffffffffffffffffffffffffffffffffffff16600682815481106129ea57fe5b9060005260206000200160006101000a81548173ffffffffffffffffffffffffffffffffffffffff021916908373ffffffffffffffffffffffffffffffffffffffff1602179055508080600101915050612992565b50600660016006805490500381548110612a5557fe5b9060005260206000200160006101000a81549073ffffffffffffffffffffffffffffffffffffffff02191690556006805480919060019003612a9791906134c3565b50505b50565b60095481565b6060600273__Set___________________________________639fa87cd190916040518263ffffffff1660e01b81526004018082815260200191505060006040518083038186803b158015612af757600080fd5b505af4158015612b0b573d6000803e3d6000fd5b505050506040513d6000823e3d601f19601f820116820180604052506020811015612b3557600080fd5b810190808051640100000000811115612b4d57600080fd5b82810190506020810184811115612b6357600080fd5b8151856020820283011164010000000082111715612b8057600080fd5b5050929190505050905090565b6009548173ffffffffffffffffffffffffffffffffffffffff1663b69ef8a86040518163ffffffff1660e01b815260040160206040518083038186803b158015612bd657600080fd5b505afa158015612bea573d6000803e3d6000fd5b505050506040513d6020811015612c0057600080fd5b81019080805190602001909291905050501015612c68576040517f08c379a000000000000000000000000000000000000000000000000000000000815260040180806020018281038252602281526020018061358d6022913960400191505060405180910390fd5b8073ffffffffffffffffffffffffffffffffffffffff1663392aee436009546040518263ffffffff1660e01b815260040180828152602001915050600060405180830381600087803b158015612cbd57600080fd5b505af1158015612cd1573d6000803e3d6000fd5b505050506001600b60026101000a81548160ff02191690831515021790555050565b600080600080600273__Set___________________________________63ea70683890916040518263ffffffff1660e01b81526004018082815260200191505060206040518083038186803b158015612d4b57600080fd5b505af4158015612d5f573d6000803e3d6000fd5b505050506040513d6020811015612d7557600080fd5b8101908080519060200190929190505050600b60009054906101000a900460ff1660ff1614612def576040517f08c379a00000000000000000000000000000000000000000000000000000000081526004018080602001828103825260258152602001806135686025913960400191505060405180910390fd5b6000808773ffffffffffffffffffffffffffffffffffffffff1673ffffffffffffffffffffffffffffffffffffffff1681526020019081526020016000208581548110612e3857fe5b906000526020600020906007020173__TransactionDataSet____________________63b18e919690916040518263ffffffff1660e01b81526004018082815260200191505060806040518083038186803b158015612e9657600080fd5b505af4158015612eaa573d6000803e3d6000fd5b505050506040513d6080811015612ec057600080fd5b8101908080519060200190929190805190602001909291908051906020019092919080519060200190929190505050935093509350935092959194509250565b6060806060600273__Set___________________________________63ea70683890916040518263ffffffff1660e01b81526004018082815260200191505060206040518083038186803b158015612f5757600080fd5b505af4158015612f6b573d6000803e3d6000fd5b505050506040513d6020811015612f8157600080fd5b8101908080519060200190929190505050600b60009054906101000a900460ff1660ff1614612ffb576040517f08c379a00000000000000000000000000000000000000000000000000000000081526004018080602001828103825260258152602001806135686025913960400191505060405180910390fd5b6000808673ffffffffffffffffffffffffffffffffffffffff1673ffffffffffffffffffffffffffffffffffffffff168152602001908152602001600020848154811061304457fe5b906000526020600020906007020173__TransactionDataSet____________________63c233d7e890916040518263ffffffff1660e01b81526004018082815260200191505060006040518083038186803b1580156130a257600080fd5b505af41580156130b6573d6000803e3d6000fd5b505050506040513d6000823e3d601f19601f8201168201806040525060608110156130e057600080fd5b8101908080516401000000008111156130f857600080fd5b8281019050602081018481111561310e57600080fd5b815185600182028301116401000000008211171561312b57600080fd5b5050929190602001805164010000000081111561314757600080fd5b8281019050602081018481111561315d57600080fd5b815185600182028301116401000000008211171561317a57600080fd5b5050929190602001805164010000000081111561319657600080fd5b828101905060208101848111156131ac57600080fd5b81518560018202830111640100000000821117156131c957600080fd5b50509291905050509250925092509250925092565b600273__Set___________________________________63ea70683890916040518263ffffffff1660e01b81526004018082815260200191505060206040518083038186803b15801561323057600080fd5b505af4158015613244573d6000803e3d6000fd5b505050506040513d602081101561325a57600080fd5b8101908080519060200190929190505050600b60009054906101000a900460ff1660ff16146132d4576040517f08c379a00000000000000000000000000000000000000000000000000000000081526004018080602001828103825260258152602001806135686025913960400191505060405180910390fd5b600160008373ffffffffffffffffffffffffffffffffffffffff1673ffffffffffffffffffffffffffffffffffffffff16815260200190815260200160002073__VotingToken___________________________639a5a2a11909184846040518463ffffffff1660e01b8152600401808481526020018373ffffffffffffffffffffffffffffffffffffffff1673ffffffffffffffffffffffffffffffffffffffff16815260200182151515158152602001935050505060006040518083038186803b1580156133a357600080fd5b505af41580156133b7573d6000803e3d6000fd5b505050505050565b6000814244855a604051602001808581526020018481526020018373ffffffffffffffffffffffffffffffffffffffff1673ffffffffffffffffffffffffffffffffffffffff1660601b81526014018281526020019450505050506040516020818303038152906040528051906020012060001c8161343a57fe5b06905092915050565b828054600181600116156101000203166002900490600052602060002090601f016020900481019282601f1061348457805160ff19168380011785556134b2565b828001600101855582156134b2579182015b828111156134b1578251825591602001919060010190613496565b5b5090506134bf91906134ef565b5090565b8154818355818111156134ea578183600052602060002091820191016134e991906134ef565b5b505050565b61351191905b8082111561350d5760008160009055506001016134f5565b5090565b9056fe596f7520696e6469636174656420746f6f206d616e7920696e76616c696420747261646520706172746e657273496e76616c6964206e756d626572206f66206f7468657220747261646520706172746e65727348617665206e6f74206372656174656420616c6c2074686520566f74696e67546f6b656e734e6f7420456e6f7567682066756e647320666f7220746869732050726f706f73616c547261646520706172746e6572732068617665206e6f74206265656e20616464656420746f2074686973207965742070726f706f73616c546869732070726f706f73616c20686173206e6f74206265656e207061696420666f722079657443616e206e6f74207665746f20616e79206d6f72652072616e646f6d6c792073656c656374656420766f7465727343616e206e6f74207665746f207468697320766f7465722062656361757365207468657265206973206e6f7420656e6f75676820747261646520706172746e657273206c656674496e76616c6964204e756d626572206f6620696e6469636174656420747261646520706172746e657273a165627a7a723058209a0235af2a34bccdcc4566315f5fc9992e3d91f719c153efce2a6d3b5aa585530029a165627a7a7230582092499ecd065f553241a450cb030098215f70c51f863e183346b3fccb678b292a0029",
  "source": "/* ProposalCreator.sol */\r\n\r\npragma solidity >=0.4.0 <0.7.0;\r\n\r\nimport \"../contracts/UserManager.sol\";\r\nimport \"../contracts/ProposalManager.sol\";\r\n\r\n/* <Summary> \r\n\tThis contract is used by an account to create an account recovery \r\n\t proposal. All functions in this contract are used by the new new account.\r\n*/\r\n\r\ncontract ProposalCreator {\r\n\tUserManager UMI;\t\t\t// Connects to the list of users on the network\r\n\tTransactionManager TMI;\t\t// Connects to the list of transaction data\r\n\tProposalManager PMI;\t\t// Connects to the list of proposals\r\n\r\n\t// Used to originally deploy the contract\r\n\tconstructor(address _UM, address _TM, address _PM) public {\r\n\t\tUMI = UserManager(_UM);\r\n\t\tTMI = TransactionManager(_TM);\r\n\t\tPMI = ProposalManager(_PM);\r\n\t}\r\n\t\r\n\t// Used to create a new account recovery proposal\r\n\tfunction StartProposal(address _oldAccount) external {\r\n\r\n\t\t// Checks if there is already an active proposal for this account\r\n\t\tPMI.validProposal(_oldAccount, msg.sender);\r\n\r\n\t\t// Price of the account recover proposal: Used to pay voters\r\n\t\tuint price = UMI.getUser(_oldAccount).balance() / 20;\r\n\r\n\t\t// Creates Proposal and adds it to the active proposal map\r\n\t\tPMI.AddActiveProposal(_oldAccount, msg.sender, \r\n\t\t\tnew Proposal(price));\r\n\t}\r\n\r\n\t// Used to view the price of the account recover proposal\r\n\tfunction ViewPrice(address _oldAccount) external view returns (uint) {\r\n\t\treturn PMI.getProposal(_oldAccount, msg.sender).price();\r\n\t}\r\n\r\n\t// Used to pay for the account recover proposal\r\n\tfunction Pay(address _oldAccount, bool _pay) external {\r\n\t\tif (_pay){\t\t\t\t// The new account is paying for the proposal\r\n\t\t\t// Finds the person in the network\r\n\t\t\tPerson newAccount = UMI.getUser(msg.sender); \r\n\t\t\t// Pays for the proposal\r\n\t\t\tPMI.getProposal(_oldAccount, msg.sender).Pay(newAccount);\r\n\t\t}\r\n\t\telse{\t\t\t\t\t// The new account will not pay\r\n\t\t\tPMI.archiveProposal(_oldAccount, msg.sender);\t// Deletes proposal\r\n\t\t}\r\n\t}\r\n\r\n\t// Used to add indicated voters to the proposal\r\n\tfunction AddTradePartners(address _oldAccount, address[] calldata _tradePartners) external {\r\n\r\n\t\t// Gets voters from past account recovery attempts\r\n\t\taddress[] memory archivedVoters = PMI.getArchivedVoter(_oldAccount);\r\n\r\n\t\t// Finds proposal and adds indicated voters\r\n\t\tPMI.getProposal(_oldAccount, msg.sender).AddTradePartners( msg.sender, _oldAccount,  \r\n\t\t\t_tradePartners, archivedVoters, TMI, PMI);\r\n\t}\r\n\r\n\t// Returns a list of voters for an account recovery proposal\r\n\tfunction ViewVoters(address _oldAccount) external view returns (address[] memory) {\r\n\t\treturn PMI.getProposal(_oldAccount, msg.sender).getVoters();\r\n\t}\r\n\r\n\t// Randomly selects a trade partner. Also adds the last randomly selected\r\n\t//  trade partner to the list of voters\r\n\tfunction RandomTradingPartner(address _oldAccount, bool _veto) external {\r\n\t\tPMI.getProposal(_oldAccount, msg.sender).RandomTradingPartner(_veto);\r\n\t}\r\n\r\n\t// Returns the current randomly selected voter \r\n\tfunction ViewRandomTradingPartner(address _oldAccount) external view returns (address) {\r\n\t\treturn PMI.getProposal(_oldAccount, msg.sender).lastOtherPartner();\r\n\t}\r\n\r\n\t// Checks transaction data and adds it to the proposal to be viewed later\r\n\tfunction MakeTransactionDataSet( address _oldAccount, uint _timeStamp, \r\n\t\t\taddress _voter, uint _amount, string calldata _description, \r\n\t\t\tstring calldata _location, string calldata _itemsInTrade) external {\r\n\r\n\t\t/*\r\n\t\trequire(bytes(_description).length > 0 && \r\n\t\t\t\tbytes(_location).length > 0 && \r\n\t\t\t\tbytes(_itemsInTrade).length > 0, \r\n\t\t\t\t\"Must provide private infromation\");\r\n\t\t*/\r\n\r\n\r\n\t\t// Checks if there exists a transaction with this infromation\r\n\t\tTMI.Equal(_oldAccount, _voter, _timeStamp, _amount);\r\n\r\n\t\tProposal temp = PMI.getProposal(_oldAccount, msg.sender);\r\n\r\n\t\t// Checks if this address is actually a voter\r\n\t\trequire(temp.ContainsVoter(_voter), \"Invalid Voter\");\r\n\t\t\r\n\t\t// Adds the tranaction data to the proposal to be viewed by the voter\r\n\t\ttemp.AddTransactionDataSet(_oldAccount, _timeStamp, _voter, _amount, \r\n\t\t\t_description, _location, _itemsInTrade);\r\n\t}\r\n}\r\n\r\n// 5643513\r\n",
  "sourcePath": "C:/Users/m5w5b/Desktop/GitHub/game-dapp/AccountRecovery/contracts/ProposalCreator.sol",
  "compiler": {
    "name": "solc",
    "version": "0.5.8+commit.23d335f2.Emscripten.clang"
  },
  "schemaVersion": "3.0.16",
  "updatedAt": "2019-11-15T18:03:58.444Z",
  "devdoc": {
    "methods": {}
  },
  "userdoc": {
    "methods": {}
  }
}