{
  "contractName": "Proposal",
  "abi": [
    {
      "inputs": [
        {
          "name": "_oldAccount",
          "type": "address"
        },
        {
          "name": "_newAccount",
          "type": "address"
        },
        {
          "name": "_description",
          "type": "string"
        },
        {
          "name": "_price",
          "type": "uint256"
        }
      ],
      "payable": false,
      "stateMutability": "nonpayable",
      "type": "constructor"
    },
    {
      "constant": false,
      "inputs": [
        {
          "name": "_newAccount",
          "type": "address"
        }
      ],
      "name": "Pay",
      "outputs": [],
      "payable": false,
      "stateMutability": "nonpayable",
      "type": "function"
    },
    {
      "constant": false,
      "inputs": [
        {
          "name": "_tradePartners",
          "type": "address[]"
        },
        {
          "name": "UserManagerInstance",
          "type": "address"
        },
        {
          "name": "TransactionManagerInstance",
          "type": "address"
        }
      ],
      "name": "AddTradePartners",
      "outputs": [],
      "payable": false,
      "stateMutability": "nonpayable",
      "type": "function"
    },
    {
      "constant": false,
      "inputs": [],
      "name": "FindRandomTradingPartner",
      "outputs": [],
      "payable": false,
      "stateMutability": "nonpayable",
      "type": "function"
    },
    {
      "constant": true,
      "inputs": [],
      "name": "ViewRandomTradingPartner",
      "outputs": [
        {
          "name": "",
          "type": "address"
        }
      ],
      "payable": false,
      "stateMutability": "view",
      "type": "function"
    },
    {
      "constant": false,
      "inputs": [],
      "name": "AddRandomTradingPartner",
      "outputs": [],
      "payable": false,
      "stateMutability": "nonpayable",
      "type": "function"
    },
    {
      "constant": false,
      "inputs": [
        {
          "name": "_oldAccount",
          "type": "address"
        },
        {
          "name": "_voter",
          "type": "address"
        },
        {
          "name": "_description",
          "type": "string"
        }
      ],
      "name": "MakeVotingToken",
      "outputs": [],
      "payable": false,
      "stateMutability": "nonpayable",
      "type": "function"
    },
    {
      "constant": false,
      "inputs": [
        {
          "name": "from",
          "type": "address"
        },
        {
          "name": "choice",
          "type": "bool"
        }
      ],
      "name": "CastVote",
      "outputs": [],
      "payable": false,
      "stateMutability": "nonpayable",
      "type": "function"
    },
    {
      "constant": false,
      "inputs": [
        {
          "name": "UserManagerInstance",
          "type": "address"
        }
      ],
      "name": "ConcludeAccountRecovery",
      "outputs": [
        {
          "name": "",
          "type": "bool"
        },
        {
          "name": "",
          "type": "bool"
        }
      ],
      "payable": false,
      "stateMutability": "nonpayable",
      "type": "function"
    },
    {
      "constant": false,
      "inputs": [
        {
          "name": "_timeStamp",
          "type": "uint256"
        },
        {
          "name": "_voter",
          "type": "address"
        },
        {
          "name": "_amount",
          "type": "uint256"
        },
        {
          "name": "_description",
          "type": "string"
        },
        {
          "name": "_itemsInTrade",
          "type": "string"
        }
      ],
      "name": "AddTransactionDataSet",
      "outputs": [],
      "payable": false,
      "stateMutability": "nonpayable",
      "type": "function"
    },
    {
      "constant": true,
      "inputs": [
        {
          "name": "_voter",
          "type": "address"
        },
        {
          "name": "i",
          "type": "uint256"
        }
      ],
      "name": "ViewPublicInformation",
      "outputs": [
        {
          "name": "",
          "type": "uint256"
        },
        {
          "name": "",
          "type": "uint256"
        },
        {
          "name": "",
          "type": "address"
        },
        {
          "name": "",
          "type": "address"
        }
      ],
      "payable": false,
      "stateMutability": "view",
      "type": "function"
    },
    {
      "constant": true,
      "inputs": [
        {
          "name": "_voter",
          "type": "address"
        },
        {
          "name": "i",
          "type": "uint256"
        }
      ],
      "name": "ViewPrivateInformation",
      "outputs": [
        {
          "name": "",
          "type": "string"
        },
        {
          "name": "",
          "type": "string"
        }
      ],
      "payable": false,
      "stateMutability": "view",
      "type": "function"
    },
    {
      "constant": true,
      "inputs": [],
      "name": "getVoters",
      "outputs": [
        {
          "name": "",
          "type": "address[]"
        }
      ],
      "payable": false,
      "stateMutability": "view",
      "type": "function"
    }
  ],
  "bytecode": "0x60806040526000600460006101000a81548173ffffffffffffffffffffffffffffffffffffffff021916908373ffffffffffffffffffffffffffffffffffffffff1602179055506000600960006101000a81548160ff021916908360ff1602179055506000600960016101000a81548160ff0219169083151502179055503480156200008a57600080fd5b50604051620041683803806200416883398101806040526080811015620000b057600080fd5b8101908080519060200190929190805190602001909291908051640100000000811115620000dd57600080fd5b82810190506020810184811115620000f457600080fd5b81518560018202830111640100000000821117156200011257600080fd5b50509291906020018051906020019092919050505083600560006101000a81548173ffffffffffffffffffffffffffffffffffffffff021916908373ffffffffffffffffffffffffffffffffffffffff16021790555082600660006101000a81548173ffffffffffffffffffffffffffffffffffffffff021916908373ffffffffffffffffffffffffffffffffffffffff1602179055508160079080519060200190620001c1929190620001d3565b50806008819055505050505062000282565b828054600181600116156101000203166002900490600052602060002090601f016020900481019282601f106200021657805160ff191683800117855562000247565b8280016001018555821562000247579182015b828111156200024657825182559160200191906001019062000229565b5b5090506200025691906200025a565b5090565b6200027f91905b808211156200027b57600081600090555060010162000261565b5090565b90565b613ed680620002926000396000f3fe60806040523480156200001157600080fd5b5060043610620000c45760003560e01c8063cdd72253116200007b578063cdd722531462000361578063cde596b214620003c4578063e628c2e0146200040b578063e8d94c0014620004dd578063f91ac899146200059c578063fa041dd714620006d857620000c4565b80630d2cea2c14620000c957806319e5fba01462000133578063512b8426146200023e57806360f25bd3146200024a5780638db5d0d21462000309578063ae70981f1462000355575b600080fd5b6200010e60048036036020811015620000e157600080fd5b81019080803573ffffffffffffffffffffffffffffffffffffffff1690602001909291905050506200072b565b6040518083151515158152602001821515151581526020019250505060405180910390f35b6200023c600480360360a08110156200014b57600080fd5b8101908080359060200190929190803573ffffffffffffffffffffffffffffffffffffffff16906020019092919080359060200190929190803590602001906401000000008111156200019d57600080fd5b820183602082011115620001b057600080fd5b80359060200191846001830284011164010000000083111715620001d357600080fd5b909192939192939080359060200190640100000000811115620001f557600080fd5b8201836020820111156200020857600080fd5b803590602001918460018302840111640100000000831117156200022b57600080fd5b909192939192939050505062000c45565b005b6200024862000dc7565b005b62000307600480360360608110156200026257600080fd5b81019080803590602001906401000000008111156200028057600080fd5b8201836020820111156200029357600080fd5b80359060200191846020830284011164010000000083111715620002b657600080fd5b9091929391929390803573ffffffffffffffffffffffffffffffffffffffff169060200190929190803573ffffffffffffffffffffffffffffffffffffffff169060200190929190505050620010b2565b005b6200031362001901565b604051808273ffffffffffffffffffffffffffffffffffffffff1673ffffffffffffffffffffffffffffffffffffffff16815260200191505060405180910390f35b6200035f620019d4565b005b6200036b62001d23565b6040518080602001828103825283818151815260200191508051906020019060200280838360005b83811015620003b057808201518184015260208101905062000393565b505050509050019250505060405180910390f35b6200040960048036036020811015620003dc57600080fd5b81019080803573ffffffffffffffffffffffffffffffffffffffff16906020019092919050505062001e13565b005b6200045a600480360360408110156200042357600080fd5b81019080803573ffffffffffffffffffffffffffffffffffffffff1690602001909291908035906020019092919050505062001f80565b604051808581526020018481526020018373ffffffffffffffffffffffffffffffffffffffff1673ffffffffffffffffffffffffffffffffffffffff1681526020018273ffffffffffffffffffffffffffffffffffffffff1673ffffffffffffffffffffffffffffffffffffffff16815260200194505050505060405180910390f35b6200059a60048036036060811015620004f557600080fd5b81019080803573ffffffffffffffffffffffffffffffffffffffff169060200190929190803573ffffffffffffffffffffffffffffffffffffffff169060200190929190803590602001906401000000008111156200055357600080fd5b8201836020820111156200056657600080fd5b803590602001918460018302840111640100000000831117156200058957600080fd5b9091929391929390505050620020ac565b005b620005eb60048036036040811015620005b457600080fd5b81019080803573ffffffffffffffffffffffffffffffffffffffff169060200190929190803590602001909291905050506200249e565b604051808060200180602001838103835285818151815260200191508051906020019080838360005b838110156200063157808201518184015260208101905062000614565b50505050905090810190601f1680156200065f5780820380516001836020036101000a031916815260200191505b50838103825284818151815260200191508051906020019080838360005b838110156200069a5780820151818401526020810190506200067d565b50505050905090810190601f168015620006c85780820380516001836020036101000a031916815260200191505b5094505050505060405180910390f35b6200072960048036036040811015620006f057600080fd5b81019080803573ffffffffffffffffffffffffffffffffffffffff1690602001909291908035151590602001909291905050506200264e565b005b600080620007386200275f565b60008062000745620029b4565b91509150600060428284606402816200075a57fe5b04101590506000603c8385606402816200077057fe5b041015905060008090505b600173__Set___________________________________63674a64ec90916040518263ffffffff1660e01b81526004018082815260200191505060206040518083038186803b158015620007ce57600080fd5b505af4158015620007e3573d6000803e3d6000fd5b505050506040513d6020811015620007fa57600080fd5b810190808051906020019092919050505081101562000c35576000806000600173__Set___________________________________63df763a9d9091866040518363ffffffff1660e01b8152600401808381526020018281526020019250505060206040518083038186803b1580156200087357600080fd5b505af415801562000888573d6000803e3d6000fd5b505050506040513d60208110156200089f57600080fd5b810190808051906020019092919050505073ffffffffffffffffffffffffffffffffffffffff1673ffffffffffffffffffffffffffffffffffffffff16815260200190815260200160002060009054906101000a900473ffffffffffffffffffffffffffffffffffffffff1690508073ffffffffffffffffffffffffffffffffffffffff16632f2a18ff6040518163ffffffff1660e01b815260040160206040518083038186803b1580156200095457600080fd5b505afa15801562000969573d6000803e3d6000fd5b505050506040513d60208110156200098057600080fd5b81019080805190602001909291905050501562000c2657600085600260085481620009a757fe5b0481620009b057fe5b0490508415158273ffffffffffffffffffffffffffffffffffffffff166319900a806040518163ffffffff1660e01b815260040160206040518083038186803b158015620009fd57600080fd5b505afa15801562000a12573d6000803e3d6000fd5b505050506040513d602081101562000a2957600080fd5b81019080805190602001909291905050501515141562000a60578660026008548162000a5157fe5b048162000a5a57fe5b04810190505b60008a73ffffffffffffffffffffffffffffffffffffffff16636f77926b600173__Set___________________________________63df763a9d9091886040518363ffffffff1660e01b8152600401808381526020018281526020019250505060206040518083038186803b15801562000ad957600080fd5b505af415801562000aee573d6000803e3d6000fd5b505050506040513d602081101562000b0557600080fd5b81019080805190602001909291905050506040518263ffffffff1660e01b8152600401808273ffffffffffffffffffffffffffffffffffffffff1673ffffffffffffffffffffffffffffffffffffffff16815260200191505060206040518083038186803b15801562000b7757600080fd5b505afa15801562000b8c573d6000803e3d6000fd5b505050506040513d602081101562000ba357600080fd5b810190808051906020019092919050505090508073ffffffffffffffffffffffffffffffffffffffff16633e4ccb40836040518263ffffffff1660e01b815260040180828152602001915050600060405180830381600087803b15801562000c0a57600080fd5b505af115801562000c1f573d6000803e3d6000fd5b5050505050505b5080806001019150506200077b565b5081819550955050505050915091565b62000c4f6200275f565b6000808773ffffffffffffffffffffffffffffffffffffffff1673ffffffffffffffffffffffffffffffffffffffff16815260200190815260200160002060009054906101000a900473ffffffffffffffffffffffffffffffffffffffff1673ffffffffffffffffffffffffffffffffffffffff166319e5fba0888888888888886040518863ffffffff1660e01b8152600401808881526020018773ffffffffffffffffffffffffffffffffffffffff1673ffffffffffffffffffffffffffffffffffffffff16815260200186815260200180602001806020018381038352878782818152602001925080828437600081840152601f19601f8201169050808301925050508381038252858582818152602001925080828437600081840152601f19601f8201169050808301925050509950505050505050505050600060405180830381600087803b15801562000da557600080fd5b505af115801562000dba573d6000803e3d6000fd5b5050505050505050505050565b60011515600960019054906101000a900460ff1615151462000e35576040517f08c379a000000000000000000000000000000000000000000000000000000000815260040180806020018281038252602781526020018062003e2f6027913960400191505060405180910390fd5b6000600173__Set___________________________________63674a64ec90916040518263ffffffff1660e01b81526004018082815260200191505060206040518083038186803b15801562000e8a57600080fd5b505af415801562000e9f573d6000803e3d6000fd5b505050506040513d602081101562000eb657600080fd5b81019080805190602001909291905050501162000f1f576040517f08c379a000000000000000000000000000000000000000000000000000000000815260040180806020018281038252603781526020018062003dcd6037913960400191505060405180910390fd5b600073ffffffffffffffffffffffffffffffffffffffff16600460009054906101000a900473ffffffffffffffffffffffffffffffffffffffff1673ffffffffffffffffffffffffffffffffffffffff16141562000fc9576040517f08c379a000000000000000000000000000000000000000000000000000000000815260040180806020018281038252602b81526020018062003e04602b913960400191505060405180910390fd5b600173__Set___________________________________635df0a15c9091600460009054906101000a900473ffffffffffffffffffffffffffffffffffffffff166040518363ffffffff1660e01b8152600401808381526020018273ffffffffffffffffffffffffffffffffffffffff1673ffffffffffffffffffffffffffffffffffffffff1681526020019250505060206040518083038186803b1580156200107257600080fd5b505af415801562001087573d6000803e3d6000fd5b505050506040513d60208110156200109e57600080fd5b810190808051906020019092919050505050565b60008090505b848490508110156200138457848482818110620010d157fe5b9050602002013573ffffffffffffffffffffffffffffffffffffffff1673ffffffffffffffffffffffffffffffffffffffff16600660009054906101000a900473ffffffffffffffffffffffffffffffffffffffff1673ffffffffffffffffffffffffffffffffffffffff1614620013765760008273ffffffffffffffffffffffffffffffffffffffff166314ee741f600560009054906101000a900473ffffffffffffffffffffffffffffffffffffffff168888868181106200119157fe5b9050602002013573ffffffffffffffffffffffffffffffffffffffff166040518363ffffffff1660e01b8152600401808373ffffffffffffffffffffffffffffffffffffffff1673ffffffffffffffffffffffffffffffffffffffff1681526020018273ffffffffffffffffffffffffffffffffffffffff1673ffffffffffffffffffffffffffffffffffffffff1681526020019250505060206040518083038186803b1580156200124257600080fd5b505afa15801562001257573d6000803e3d6000fd5b505050506040513d60208110156200126e57600080fd5b810190808051906020019092919050505011156200137557600173__Set___________________________________635df0a15c9091878785818110620012b157fe5b9050602002013573ffffffffffffffffffffffffffffffffffffffff166040518363ffffffff1660e01b8152600401808381526020018273ffffffffffffffffffffffffffffffffffffffff1673ffffffffffffffffffffffffffffffffffffffff1681526020019250505060206040518083038186803b1580156200133657600080fd5b505af41580156200134b573d6000803e3d6000fd5b505050506040513d60208110156200136257600080fd5b8101908080519060200190929190505050505b5b8080600101915050620010b8565b506003600173__Set___________________________________63674a64ec90916040518263ffffffff1660e01b81526004018082815260200191505060206040518083038186803b158015620013da57600080fd5b505af4158015620013ef573d6000803e3d6000fd5b505050506040513d60208110156200140657600080fd5b810190808051906020019092919050505010156200148c576040517f08c379a000000000000000000000000000000000000000000000000000000000815260040180806020018281038252601f8152602001807f496e76616c6964204e756d626572206f66207472616465506172746e6572730081525060200191505060405180910390fd5b60608273ffffffffffffffffffffffffffffffffffffffff1663a39fac126040518163ffffffff1660e01b815260040160006040518083038186803b158015620014d557600080fd5b505afa158015620014ea573d6000803e3d6000fd5b505050506040513d6000823e3d601f19601f8201168201806040525060208110156200151557600080fd5b8101908080516401000000008111156200152e57600080fd5b828101905060208101848111156200154557600080fd5b81518560208202830111640100000000821117156200156357600080fd5b5050929190505050905060008090505b81518110156200187d578181815181106200158a57fe5b602002602001015173ffffffffffffffffffffffffffffffffffffffff16600660009054906101000a900473ffffffffffffffffffffffffffffffffffffffff1673ffffffffffffffffffffffffffffffffffffffff16146200186f5760008373ffffffffffffffffffffffffffffffffffffffff166314ee741f600560009054906101000a900473ffffffffffffffffffffffffffffffffffffffff168585815181106200163557fe5b60200260200101516040518363ffffffff1660e01b8152600401808373ffffffffffffffffffffffffffffffffffffffff1673ffffffffffffffffffffffffffffffffffffffff1681526020018273ffffffffffffffffffffffffffffffffffffffff1673ffffffffffffffffffffffffffffffffffffffff1681526020019250505060206040518083038186803b158015620016d157600080fd5b505afa158015620016e6573d6000803e3d6000fd5b505050506040513d6020811015620016fd57600080fd5b810190808051906020019092919050505011156200186e57600173__Set___________________________________63fe6949e390918484815181106200174057fe5b60200260200101516040518363ffffffff1660e01b8152600401808381526020018273ffffffffffffffffffffffffffffffffffffffff1673ffffffffffffffffffffffffffffffffffffffff1681526020019250505060206040518083038186803b158015620017b057600080fd5b505af4158015620017c5573d6000803e3d6000fd5b505050506040513d6020811015620017dc57600080fd5b81019080805190602001909291905050506200186d5760038282815181106200180157fe5b602002602001015190806001815401808255809150509060018203906000526020600020016000909192909190916101000a81548173ffffffffffffffffffffffffffffffffffffffff021916908373ffffffffffffffffffffffffffffffffffffffff160217905550505b5b5b808060010191505062001573565b50600380805490501015620018fa576040517f08c379a00000000000000000000000000000000000000000000000000000000081526004018080602001828103825260208152602001807f496e76616c6964204e756d626572206f6620686176655472616465645769746881525060200191505060405180910390fd5b5050505050565b60008073ffffffffffffffffffffffffffffffffffffffff16600460009054906101000a900473ffffffffffffffffffffffffffffffffffffffff1673ffffffffffffffffffffffffffffffffffffffff161415620019ac576040517f08c379a000000000000000000000000000000000000000000000000000000000815260040180806020018281038252602c81526020018062003e7f602c913960400191505060405180910390fd5b600460009054906101000a900473ffffffffffffffffffffffffffffffffffffffff16905090565b60011515600960019054906101000a900460ff1615151462001a42576040517f08c379a000000000000000000000000000000000000000000000000000000000815260040180806020018281038252602781526020018062003e2f6027913960400191505060405180910390fd5b6000600173__Set___________________________________63674a64ec90916040518263ffffffff1660e01b81526004018082815260200191505060206040518083038186803b15801562001a9757600080fd5b505af415801562001aac573d6000803e3d6000fd5b505050506040513d602081101562001ac357600080fd5b81019080805190602001909291905050501162001b2c576040517f08c379a000000000000000000000000000000000000000000000000000000000815260040180806020018281038252603781526020018062003dcd6037913960400191505060405180910390fd5b600062001b61600460009054906101000a900473ffffffffffffffffffffffffffffffffffffffff1660038054905062002c9b565b60ff1690505b600173__Set___________________________________63fe6949e390916003848154811062001b9357fe5b9060005260206000200160009054906101000a900473ffffffffffffffffffffffffffffffffffffffff166040518363ffffffff1660e01b8152600401808381526020018273ffffffffffffffffffffffffffffffffffffffff1673ffffffffffffffffffffffffffffffffffffffff1681526020019250505060206040518083038186803b15801562001c2657600080fd5b505af415801562001c3b573d6000803e3d6000fd5b505050506040513d602081101562001c5257600080fd5b81019080805190602001909291905050501562001ca75762001c9c600460009054906101000a900473ffffffffffffffffffffffffffffffffffffffff1660038054905062002c9b565b60ff16905062001b67565b6003818154811062001cb557fe5b9060005260206000200160009054906101000a900473ffffffffffffffffffffffffffffffffffffffff16600460006101000a81548173ffffffffffffffffffffffffffffffffffffffff021916908373ffffffffffffffffffffffffffffffffffffffff16021790555050565b6060600173__Set___________________________________633d597e6c90916040518263ffffffff1660e01b81526004018082815260200191505060006040518083038186803b15801562001d7857600080fd5b505af415801562001d8d573d6000803e3d6000fd5b505050506040513d6000823e3d601f19601f82011682018060405250602081101562001db857600080fd5b81019080805164010000000081111562001dd157600080fd5b8281019050602081018481111562001de857600080fd5b815185602082028301116401000000008211171562001e0657600080fd5b5050929190505050905090565b6008548173ffffffffffffffffffffffffffffffffffffffff1663b69ef8a86040518163ffffffff1660e01b815260040160206040518083038186803b15801562001e5d57600080fd5b505afa15801562001e72573d6000803e3d6000fd5b505050506040513d602081101562001e8957600080fd5b8101908080519060200190929190505050101562001ef3576040517f08c379a000000000000000000000000000000000000000000000000000000000815260040180806020018281038252602281526020018062003dab6022913960400191505060405180910390fd5b8073ffffffffffffffffffffffffffffffffffffffff1663392aee436008546040518263ffffffff1660e01b815260040180828152602001915050600060405180830381600087803b15801562001f4957600080fd5b505af115801562001f5e573d6000803e3d6000fd5b505050506001600960016101000a81548160ff02191690831515021790555050565b60008060008062001f906200275f565b6000808773ffffffffffffffffffffffffffffffffffffffff1673ffffffffffffffffffffffffffffffffffffffff16815260200190815260200160002060009054906101000a900473ffffffffffffffffffffffffffffffffffffffff1673ffffffffffffffffffffffffffffffffffffffff16634ba569a4866040518263ffffffff1660e01b81526004018082815260200191505060806040518083038186803b1580156200204057600080fd5b505afa15801562002055573d6000803e3d6000fd5b505050506040513d60808110156200206c57600080fd5b8101908080519060200190929190805190602001909291908051906020019092919080519060200190929190505050935093509350935092959194509250565b60011515600960019054906101000a900460ff161515146200211a576040517f08c379a000000000000000000000000000000000000000000000000000000000815260040180806020018281038252602781526020018062003e2f6027913960400191505060405180910390fd5b6000600173__Set___________________________________63674a64ec90916040518263ffffffff1660e01b81526004018082815260200191505060206040518083038186803b1580156200216f57600080fd5b505af415801562002184573d6000803e3d6000fd5b505050506040513d60208110156200219b57600080fd5b81019080805190602001909291905050501162002204576040517f08c379a000000000000000000000000000000000000000000000000000000000815260040180806020018281038252603781526020018062003dcd6037913960400191505060405180910390fd5b600173__Set___________________________________63fe6949e39091856040518363ffffffff1660e01b8152600401808381526020018273ffffffffffffffffffffffffffffffffffffffff1673ffffffffffffffffffffffffffffffffffffffff1681526020019250505060206040518083038186803b1580156200228b57600080fd5b505af4158015620022a0573d6000803e3d6000fd5b505050506040513d6020811015620022b757600080fd5b81019080805190602001909291905050506200231f576040517f08c379a000000000000000000000000000000000000000000000000000000000815260040180806020018281038252602981526020018062003e566029913960400191505060405180910390fd5b83838383604051620023319062002d20565b808573ffffffffffffffffffffffffffffffffffffffff1673ffffffffffffffffffffffffffffffffffffffff1681526020018473ffffffffffffffffffffffffffffffffffffffff1673ffffffffffffffffffffffffffffffffffffffff168152602001806020018281038252848482818152602001925080828437600081840152601f19601f82011690508083019250505095505050505050604051809103906000f080158015620023e9573d6000803e3d6000fd5b506000808573ffffffffffffffffffffffffffffffffffffffff1673ffffffffffffffffffffffffffffffffffffffff16815260200190815260200160002060006101000a81548173ffffffffffffffffffffffffffffffffffffffff021916908373ffffffffffffffffffffffffffffffffffffffff1602179055506009600081819054906101000a900460ff168092919060010191906101000a81548160ff021916908360ff1602179055505050505050565b606080620024ab6200275f565b6000808573ffffffffffffffffffffffffffffffffffffffff1673ffffffffffffffffffffffffffffffffffffffff16815260200190815260200160002060009054906101000a900473ffffffffffffffffffffffffffffffffffffffff1673ffffffffffffffffffffffffffffffffffffffff16637bd1eb3c846040518263ffffffff1660e01b81526004018082815260200191505060006040518083038186803b1580156200255b57600080fd5b505afa15801562002570573d6000803e3d6000fd5b505050506040513d6000823e3d601f19601f8201168201806040525060408110156200259b57600080fd5b810190808051640100000000811115620025b457600080fd5b82810190506020810184811115620025cb57600080fd5b8151856001820283011164010000000082111715620025e957600080fd5b505092919060200180516401000000008111156200260657600080fd5b828101905060208101848111156200261d57600080fd5b81518560018202830111640100000000821117156200263b57600080fd5b5050929190505050915091509250929050565b620026586200275f565b6000808373ffffffffffffffffffffffffffffffffffffffff1673ffffffffffffffffffffffffffffffffffffffff16815260200190815260200160002060009054906101000a900473ffffffffffffffffffffffffffffffffffffffff1673ffffffffffffffffffffffffffffffffffffffff1663fa041dd783836040518363ffffffff1660e01b8152600401808373ffffffffffffffffffffffffffffffffffffffff1673ffffffffffffffffffffffffffffffffffffffff1681526020018215151515815260200192505050600060405180830381600087803b1580156200274257600080fd5b505af115801562002757573d6000803e3d6000fd5b505050505050565b60011515600960019054906101000a900460ff16151514620027cd576040517f08c379a000000000000000000000000000000000000000000000000000000000815260040180806020018281038252602781526020018062003e2f6027913960400191505060405180910390fd5b6000600173__Set___________________________________63674a64ec90916040518263ffffffff1660e01b81526004018082815260200191505060206040518083038186803b1580156200282257600080fd5b505af415801562002837573d6000803e3d6000fd5b505050506040513d60208110156200284e57600080fd5b810190808051906020019092919050505011620028b7576040517f08c379a000000000000000000000000000000000000000000000000000000000815260040180806020018281038252603781526020018062003dcd6037913960400191505060405180910390fd5b600173__Set___________________________________63674a64ec90916040518263ffffffff1660e01b81526004018082815260200191505060206040518083038186803b1580156200290a57600080fd5b505af41580156200291f573d6000803e3d6000fd5b505050506040513d60208110156200293657600080fd5b8101908080519060200190929190505050600960009054906101000a900460ff1660ff1614620029b2576040517f08c379a000000000000000000000000000000000000000000000000000000000815260040180806020018281038252602581526020018062003d866025913960400191505060405180910390fd5b565b6000806000809050600080905060008090505b600173__Set___________________________________63674a64ec90916040518263ffffffff1660e01b81526004018082815260200191505060206040518083038186803b15801562002a1a57600080fd5b505af415801562002a2f573d6000803e3d6000fd5b505050506040513d602081101562002a4657600080fd5b810190808051906020019092919050505081101562002c8e576000806000600173__Set___________________________________63df763a9d9091866040518363ffffffff1660e01b8152600401808381526020018281526020019250505060206040518083038186803b15801562002abf57600080fd5b505af415801562002ad4573d6000803e3d6000fd5b505050506040513d602081101562002aeb57600080fd5b810190808051906020019092919050505073ffffffffffffffffffffffffffffffffffffffff1673ffffffffffffffffffffffffffffffffffffffff16815260200190815260200160002060009054906101000a900473ffffffffffffffffffffffffffffffffffffffff1690508073ffffffffffffffffffffffffffffffffffffffff16632f2a18ff6040518163ffffffff1660e01b815260040160206040518083038186803b15801562002ba057600080fd5b505afa15801562002bb5573d6000803e3d6000fd5b505050506040513d602081101562002bcc57600080fd5b81019080805190602001909291905050501562002bec5783806001019450505b8073ffffffffffffffffffffffffffffffffffffffff166319900a806040518163ffffffff1660e01b815260040160206040518083038186803b15801562002c3357600080fd5b505afa15801562002c48573d6000803e3d6000fd5b505050506040513d602081101562002c5f57600080fd5b81019080805190602001909291905050501562002c7f5782806001019350505b508080600101915050620029c7565b5080829350935050509091565b6000814244855a604051602001808581526020018481526020018373ffffffffffffffffffffffffffffffffffffffff1673ffffffffffffffffffffffffffffffffffffffff1660601b81526014018281526020019450505050506040516020818303038152906040528051906020012060001c8162002d1757fe5b06905092915050565b6110578062002d2f8339019056fe60806040523480156200001157600080fd5b506040516200105738038062001057833981018060405260608110156200003757600080fd5b81019080805190602001909291908051906020019092919080516401000000008111156200006457600080fd5b828101905060208101848111156200007b57600080fd5b81518560018202830111640100000000821117156200009957600080fd5b505092919050505081600360006101000a81548173ffffffffffffffffffffffffffffffffffffffff021916908373ffffffffffffffffffffffffffffffffffffffff16021790555082600260006101000a81548173ffffffffffffffffffffffffffffffffffffffff021916908373ffffffffffffffffffffffffffffffffffffffff1602179055506000600360146101000a81548160ff02191690831515021790555060016000806101000a81548160ff0219169083151502179055506000600360156101000a81548160ff02191690831515021790555080600190805190602001906200018b92919062000195565b5050505062000244565b828054600181600116156101000203166002900490600052602060002090601f016020900481019282601f10620001d857805160ff191683800117855562000209565b8280016001018555821562000209579182015b8281111562000208578251825591602001919060010190620001eb565b5b5090506200021891906200021c565b5090565b6200024191905b808211156200023d57600081600090555060010162000223565b5090565b90565b610e0380620002546000396000f3fe608060405234801561001057600080fd5b506004361061007d5760003560e01c80632f2a18ff1161005b5780632f2a18ff146101c85780634ba569a4146101ea5780637bd1eb3c14610299578063fa041dd7146103ac5761007d565b806319900a801461008257806319e5fba0146100a4578063267c4ae4146101a6575b600080fd5b61008a6103fc565b604051808215151515815260200191505060405180910390f35b6101a4600480360360a08110156100ba57600080fd5b8101908080359060200190929190803573ffffffffffffffffffffffffffffffffffffffff169060200190929190803590602001909291908035906020019064010000000081111561010b57600080fd5b82018360208201111561011d57600080fd5b8035906020019184600183028401116401000000008311171561013f57600080fd5b90919293919293908035906020019064010000000081111561016057600080fd5b82018360208201111561017257600080fd5b8035906020019184600183028401116401000000008311171561019457600080fd5b9091929391929390505050610442565b005b6101ae6106e2565b604051808215151515815260200191505060405180910390f35b6101d06106f4565b604051808215151515815260200191505060405180910390f35b6102166004803603602081101561020057600080fd5b8101908080359060200190929190505050610722565b604051808581526020018481526020018373ffffffffffffffffffffffffffffffffffffffff1673ffffffffffffffffffffffffffffffffffffffff1681526020018273ffffffffffffffffffffffffffffffffffffffff1673ffffffffffffffffffffffffffffffffffffffff16815260200194505050505060405180910390f35b6102c5600480360360208110156102af57600080fd5b8101908080359060200190929190505050610851565b604051808060200180602001838103835285818151815260200191508051906020019080838360005b838110156103095780820151818401526020810190506102ee565b50505050905090810190601f1680156103365780820380516001836020036101000a031916815260200191505b50838103825284818151815260200191508051906020019080838360005b8381101561036f578082015181840152602081019050610354565b50505050905090810190601f16801561039c5780820380516001836020036101000a031916815260200191505b5094505050505060405180910390f35b6103fa600480360360408110156103c257600080fd5b81019080803573ffffffffffffffffffffffffffffffffffffffff169060200190929190803515159060200190929190505050610a2f565b005b60008060009054906101000a900460ff1680156104255750600360159054906101000a900460ff165b801561043d5750600360149054906101000a900460ff165b905090565b600115156000809054906101000a900460ff161515146104ca576040517f08c379a00000000000000000000000000000000000000000000000000000000081526004018080602001828103825260198152602001807f5468697320766f74657220646f6573206e6f742065786973740000000000000081525060200191505060405180910390fd5b60046040518060c0016040528086868080601f016020809104026020016040519081016040528093929190818152602001838380828437600081840152601f19601f82011690508083019250505050505050815260200184848080601f016020809104026020016040519081016040528093929190818152602001838380828437600081840152601f19601f820116905080830192505050505050508152602001600260009054906101000a900473ffffffffffffffffffffffffffffffffffffffff1673ffffffffffffffffffffffffffffffffffffffff1681526020018873ffffffffffffffffffffffffffffffffffffffff16815260200189815260200187815250908060018154018082558091505090600182039060005260206000209060060201600090919290919091506000820151816000019080519060200190610616929190610d0e565b506020820151816001019080519060200190610633929190610d0e565b5060408201518160020160006101000a81548173ffffffffffffffffffffffffffffffffffffffff021916908373ffffffffffffffffffffffffffffffffffffffff16021790555060608201518160030160006101000a81548173ffffffffffffffffffffffffffffffffffffffff021916908373ffffffffffffffffffffffffffffffffffffffff1602179055506080820151816004015560a0820151816005015550505050505050505050565b6000809054906101000a900460ff1681565b60008060009054906101000a900460ff16801561071d5750600360159054906101000a900460ff165b905090565b600080600080600060048054905011610786576040517f08c379a0000000000000000000000000000000000000000000000000000000008152600401808060200182810382526024815260200180610db46024913960400191505060405180910390fd5b6004858154811061079357fe5b906000526020600020906006020160040154600486815481106107b257fe5b906000526020600020906006020160050154600487815481106107d157fe5b906000526020600020906006020160020160009054906101000a900473ffffffffffffffffffffffffffffffffffffffff166004888154811061081057fe5b906000526020600020906006020160030160009054906101000a900473ffffffffffffffffffffffffffffffffffffffff1693509350935093509193509193565b6060806000600480549050116108b2576040517f08c379a0000000000000000000000000000000000000000000000000000000008152600401808060200182810382526024815260200180610db46024913960400191505060405180910390fd5b600483815481106108bf57fe5b9060005260206000209060060201600001600484815481106108dd57fe5b9060005260206000209060060201600101818054600181600116156101000203166002900480601f0160208091040260200160405190810160405280929190818152602001828054600181600116156101000203166002900480156109835780601f1061095857610100808354040283529160200191610983565b820191906000526020600020905b81548152906001019060200180831161096657829003601f168201915b50505050509150808054600181600116156101000203166002900480601f016020809104026020016040519081016040528092919081815260200182805460018160011615610100020316600290048015610a1f5780601f106109f457610100808354040283529160200191610a1f565b820191906000526020600020905b815481529060010190602001808311610a0257829003601f168201915b5050505050905091509150915091565b600115156000809054906101000a900460ff16151514610ab7576040517f08c379a00000000000000000000000000000000000000000000000000000000081526004018080602001828103825260198152602001807f5468697320766f74657220646f6573206e6f742065786973740000000000000081525060200191505060405180910390fd5b8173ffffffffffffffffffffffffffffffffffffffff16600360009054906101000a900473ffffffffffffffffffffffffffffffffffffffff1673ffffffffffffffffffffffffffffffffffffffff1614610b7a576040517f08c379a00000000000000000000000000000000000000000000000000000000081526004018080602001828103825260198152602001807f53656e742066726f6d207468652077726f6e6720766f7465720000000000000081525060200191505060405180910390fd5b600060048054905011610bd8576040517f08c379a0000000000000000000000000000000000000000000000000000000008152600401808060200182810382526024815260200180610db46024913960400191505060405180910390fd5b60001515600360159054906101000a900460ff16151514610c61576040517f08c379a000000000000000000000000000000000000000000000000000000000815260040180806020018281038252600d8152602001807f416c726561647920566f7465640000000000000000000000000000000000000081525060200191505060405180910390fd5b80600360146101000a81548160ff0219169083151502179055506001600360156101000a81548160ff021916908315150217905550600360009054906101000a900473ffffffffffffffffffffffffffffffffffffffff1673ffffffffffffffffffffffffffffffffffffffff167fa635d31e67484fd1d93ba01ab0ef882e4440a78aa40d0e2771e8a2aace45986982604051808215151515815260200191505060405180910390a25050565b828054600181600116156101000203166002900490600052602060002090601f016020900481019282601f10610d4f57805160ff1916838001178555610d7d565b82800160010185558215610d7d579182015b82811115610d7c578251825591602001919060010190610d61565b5b509050610d8a9190610d8e565b5090565b610db091905b80821115610dac576000816000905550600101610d94565b5090565b9056fe5468657265206973206e6f207472616e73616374696f6e206461746120746f2076696577a165627a7a723058206780c5a1c3d0347a26068a089120791d9ca5556938e60c50740bbcece8e5d58e002948617665206e6f74206372656174656420616c6c2074686520566f74696e67546f6b656e734e6f7420456e6f7567682066756e647320666f7220746869732050726f706f73616c547261646520706172746e6572732068617665206e6f74206265656e20616464656420746f2074686973207965742070726f706f73616c4861766520746f2066696e6420612072616e646f6d2074726164696e6720706172746e6572206669727374546869732070726f706f73616c20686173206e6f74206265656e207061696420666f7220796574496e76616c696420566f7465722e2043616e206e6f74206d616b65206120566f74696e67546f6b656e596f752068617665206e6f7420666f756e6420612072616e646f6d207472616520706172746e657220796574a165627a7a72305820f3f5a09262576b84ed6f26bfdc6a098946763722bdaf1acef679b68e3a905bdf0029",
  "source": "/* Proposal.sol */\r\n\r\npragma solidity >=0.4.0 <0.7.0;\r\n\r\nimport \"../contracts/VotingToken.sol\";\r\n\r\nimport \"../contracts/Person.sol\";\r\nimport \"../contracts/UserManager.sol\";\r\n\r\nimport \"../contracts/Set.sol\";\r\n\r\n/* <Summary> \r\n\tThis contract manages one active proposal: Casts Votes, Tallies votes, give rewards\r\n*/\r\n\r\ncontract Proposal {\r\n\tusing Set for Set.Data;\r\n\r\n\tmapping (address => VotingToken) votingtokens;\t\t// Active Voting Tokens\r\n\tSet.Data voters;\t\t\t\t\t\t\t\t\t// Addresses who are eligible to vote\r\n\taddress[] haveTradedWith;\r\n\r\n\taddress lastOtherPartner = 0x0000000000000000000000000000000000000000;\r\n\taddress oldAccount;\t\t\t\t\t\t\t\t\t// Address of the old account\r\n\taddress newAccount;\t\t\t\t\t\t\t\t\t// Address of the new account\r\n\tstring description;\t\t\t\t\t\t\t\t\t// Description of Proposal\r\n\r\n\tuint price;\t\t\t\t\t\t\t\t\t\t\t// Price of the account recovery\r\n\tuint8 VotingTokenCreated = 0;\t\t\t\t\t\t// Number of Voting tokens created\r\n\tbool paided = false;\r\n\r\n\tconstructor(address _oldAccount, address _newAccount, string memory _description, uint _price) public {\r\n\t\t// Set variable\r\n\t\toldAccount = _oldAccount;\r\n\t\tnewAccount = _newAccount;\r\n\t\t\r\n\t\tdescription = _description;\r\n\t\tprice = _price;\r\n\t}\r\n\r\n\tfunction Pay(Person _newAccount) external {\r\n\t\trequire(_newAccount.balance() >= price, \"Not Enough funds for this Proposal\");\r\n\t\t_newAccount.decreaseBalance(price);\t\t\t// Removes money from the new account\r\n\t\tpaided = true;\t\t\t\t\t\t\t\t// The proposal has been paid for\r\n\t}\r\n\r\n\tfunction AddTradePartners(address[] calldata _tradePartners, UserManager UserManagerInstance, TransactionManager TransactionManagerInstance) external {\r\n\t\tfor (uint i = 0; i < _tradePartners.length; i++){\t// For each partner\r\n\t\t\tif (newAccount != _tradePartners[i]){\t\t\t// The new account can not be a voter\r\n\t\t\t\t// They have made a transaction with the old account\r\n\t\t\t\tif (TransactionManagerInstance.NumberOfTransactions(oldAccount, _tradePartners[i]) > 0){\r\n\t\t\t\t\tvoters.insert(_tradePartners[i]);\r\n\t\t\t\t}\r\n\t\t\t}\r\n\t\t}\r\n\t\trequire(voters.getValuesLength() >= 3, \"Invalid Number of tradePartners\");\r\n\r\n\t\taddress[] memory addresses = UserManagerInstance.getAddresses(); // List of addresses on the network\r\n\r\n\t\tfor (uint i = 0; i < addresses.length; i++){\t\t\t\t\t// For each address\r\n\t\t\tif (newAccount != addresses[i]){\t\t\t\t\t\t\t// The new account can not be a voter\r\n\t\t\t\t// They have made a transaction with the old account\r\n\t\t\t\tif (TransactionManagerInstance.NumberOfTransactions(oldAccount, addresses[i]) > 0){\r\n\t\t\t\t\tif (!voters.contains(addresses[i])){\t\t\t// This address is not already a voter\r\n\t\t\t\t\t\thaveTradedWith.push(addresses[i]);\t\t\t\t// This address is an eligible voter\r\n\t\t\t\t\t}\r\n\t\t\t\t}\r\n\t\t\t}\r\n\t\t}\r\n\t\trequire(haveTradedWith.length >= 3, \"Invalid Number of haveTradedWith\");\r\n\t}\r\n\r\n\tfunction FindRandomTradingPartner() external {\r\n\t\trequire(paided == true, \"This proposal has not been paid for yet\");\r\n\t\trequire(voters.getValuesLength() > 0, \"Trade partners have not been added to this yet proposal\");\r\n\r\n\t\tuint index = random(lastOtherPartner, haveTradedWith.length);\t\t\t// Find random value\r\n\t\t\r\n\t\twhile(voters.contains(haveTradedWith[index])){\r\n\t\t\tindex = random(lastOtherPartner, haveTradedWith.length);\t\t\t// Find random value\r\n\t\t}\t\t\r\n\t\t\r\n\t\tlastOtherPartner = haveTradedWith[index];\r\n\t}\r\n\r\n\tfunction ViewRandomTradingPartner() external view returns (address) {\r\n\t\trequire(lastOtherPartner != 0x0000000000000000000000000000000000000000, \"You have not found a random trae partner yet\");\r\n\t\treturn lastOtherPartner;\r\n\t}\r\n\r\n\tfunction AddRandomTradingPartner() external {\r\n\t\trequire(paided == true, \"This proposal has not been paid for yet\");\r\n\t\trequire(voters.getValuesLength() > 0, \"Trade partners have not been added to this yet proposal\");\r\n\r\n\t\trequire( lastOtherPartner != 0x0000000000000000000000000000000000000000, \"Have to find a random trading partner first\");\r\n\t\t// require( otherPartners[otherPartners.length - 1] != lastOtherPartner, \"Already added that address\");\r\n\r\n\t\tvoters.insert(lastOtherPartner);\r\n\t}\r\n\r\n\t// Make Voting Tokens\r\n\tfunction MakeVotingToken(address _oldAccount, address _voter, string calldata _description) external {\r\n\t\trequire(paided == true, \"This proposal has not been paid for yet\");\r\n\t\trequire(voters.getValuesLength() > 0, \"Trade partners have not been added to this yet proposal\");\r\n\r\n\t\trequire(voters.contains(_voter), \"Invalid Voter. Can not make a VotingToken\");\r\n\r\n\t\tvotingtokens[_voter] = new VotingToken(_oldAccount, _voter, _description);\r\n\t\tVotingTokenCreated++;\t\t\t// Incroment the number of voting tokens created\r\n\t}\r\n\r\n\t// Casts a vote\r\n\tfunction CastVote(address from, bool choice) external {\r\n\t\tcheck();\r\n\r\n\t\tvotingtokens[from].CastVote(from, choice);\r\n\t}\r\n\r\n\tfunction CountVotes() private view returns(uint, uint) {\r\n\t\tuint total = 0;\t\t\t\t\t\t\t// Total number of votes\r\n\t\tuint yeses = 0;\t\t\t\t\t\t\t// Total number of yesses\r\n\r\n\t\tfor (uint i = 0; i < voters.getValuesLength(); i++) { // Goes through all voters\r\n\t\t\tVotingToken temp = votingtokens[voters.getValue(i)];\r\n\t\t\tif (temp.ExistsAndVoted()){\t\t\t// They are a voter and they voted\r\n\t\t\t\ttotal++;\t\t\t\t\t\t// Incroment the total number of votes\r\n\t\t\t}\r\n\t\t\tif (temp.VotedYes()){ \t\t\t\t// They are a voter and they voted yes\r\n\t\t\t\tyeses++;\t\t\t\t\t\t// Incroment the number of yesses\r\n\t\t\t}\r\n\t\t}\r\n\t\treturn (yeses, total);\r\n\t}\r\n\r\n\r\n\t// Give rewards to voters and return outcome of vote\r\n\tfunction ConcludeAccountRecovery(UserManager UserManagerInstance) external returns (bool, bool){\r\n\t\tcheck();\r\n\r\n\t\t(uint yesses, uint total) = CountVotes();\r\n\r\n\t\tbool outcome = (100*yesses) / total >= 66;\t\t\t// The outcome of the vote\r\n\t\tbool revote = (100*yesses) / total  >= 60;\t\t\t// There must be a re-vote\r\n\r\n\t\tfor (uint i = 0; i < voters.getValuesLength(); i++) { \t// Goes through all voters\r\n\t\t\tVotingToken temp = votingtokens[voters.getValue(i)];\r\n\t\t\tif (temp.ExistsAndVoted()){\t\t\t\t\t\t\t// They are a voter and they voted\r\n\t\t\t\tuint amount = (price / 2) / total;\t\t\t\t// Reward for participating \r\n\t\t\t\tif (temp.VotedYes() == outcome){\t\t\t\t// They voted correctly \r\n\t\t\t\t\tamount += (price / 2) / yesses;\t\t\t\t// Reward for voting correctly \r\n\t\t\t\t}\r\n\r\n\t\t\t\tPerson voter = UserManagerInstance.getUser(voters.getValue(i)); // Gets voter in the network\r\n\t\t\t\tvoter.increaseBalance(amount);\t\t\t\t\t// Increases balance\r\n\t\t\t}\r\n\t\t}\r\n\t\treturn (outcome, revote);\t\t\t\t\t\t\t\t// Return outcome of vote\r\n\t}\r\n\r\n\t// Add set of data for a give transaction for a give voter\r\n\tfunction AddTransactionDataSet(uint _timeStamp, address _voter, uint _amount, \r\n\t\tstring calldata _description, string calldata _itemsInTrade) external {\r\n\t\tcheck();\r\n\t\tvotingtokens[_voter].AddTransactionDataSet(_timeStamp, _voter, _amount, _description, _itemsInTrade);\r\n\t}\r\n\r\n\t// View public information on a set of data for a transaction\r\n\tfunction ViewPublicInformation( address _voter, uint i) external view returns (uint, uint, address, address) {\r\n\t\tcheck();\r\n\t\treturn votingtokens[_voter].ViewPublicInformation(i);\r\n\t}\r\n\r\n\t// View private information on a set of data for a transaction\r\n\tfunction ViewPrivateInformation( address _voter, uint i) external view returns (string memory, string memory) {\r\n\t\tcheck();\r\n\t\treturn votingtokens[_voter].ViewPrivateInformation(i);\r\n\t}\r\n\r\n\t// Generate random number using an address\r\n\tfunction random(address address1, uint size) private view returns (uint8) {\r\n\t\treturn uint8(uint256(keccak256(abi.encodePacked(block.timestamp, block.difficulty, address1, gasleft()))) % size);\r\n\t}\r\n\r\n\tfunction check() private view {\r\n\t\trequire(paided == true, \"This proposal has not been paid for yet\");\r\n\t\trequire(voters.getValuesLength() > 0, \"Trade partners have not been added to this yet proposal\");\r\n\t\trequire(VotingTokenCreated == voters.getValuesLength(), \"Have not created all the VotingTokens\");\r\n\t}\r\n\r\n\tfunction getVoters() public view returns (address[] memory){\r\n\t\treturn voters.getValues();\r\n\t}\r\n}\r\n",
  "sourcePath": "C:\\Users\\m5w5b\\Desktop\\GitHub\\game-dapp\\AccountRecovery\\contracts\\Proposal.sol",
  "compiler": {
    "name": "solc",
    "version": "0.5.8+commit.23d335f2.Emscripten.clang"
  },
  "schemaVersion": "3.0.16",
  "updatedAt": "2019-10-22T23:38:45.232Z",
  "devdoc": {
    "methods": {}
  },
  "userdoc": {
    "methods": {}
  }
}