{
  "contractName": "Proposal",
  "abi": [
    {
      "constant": true,
      "inputs": [],
      "name": "lastOtherPartner",
      "outputs": [
        {
          "name": "",
          "type": "address"
        }
      ],
      "payable": false,
      "stateMutability": "view",
      "type": "function"
    },
    {
      "constant": true,
      "inputs": [],
      "name": "price",
      "outputs": [
        {
          "name": "",
          "type": "uint256"
        }
      ],
      "payable": false,
      "stateMutability": "view",
      "type": "function"
    },
    {
      "inputs": [
        {
          "name": "_oldAccount",
          "type": "address"
        },
        {
          "name": "_newAccount",
          "type": "address"
        },
        {
          "name": "_price",
          "type": "uint256"
        }
      ],
      "payable": false,
      "stateMutability": "nonpayable",
      "type": "constructor"
    },
    {
      "constant": false,
      "inputs": [
        {
          "name": "_newAccount",
          "type": "address"
        }
      ],
      "name": "Pay",
      "outputs": [],
      "payable": false,
      "stateMutability": "nonpayable",
      "type": "function"
    },
    {
      "constant": false,
      "inputs": [
        {
          "name": "_tradePartners",
          "type": "address[]"
        },
        {
          "name": "_archivedVoters",
          "type": "address[]"
        },
        {
          "name": "TMI",
          "type": "address"
        },
        {
          "name": "PMI",
          "type": "address"
        }
      ],
      "name": "AddTradePartners",
      "outputs": [],
      "payable": false,
      "stateMutability": "nonpayable",
      "type": "function"
    },
    {
      "constant": false,
      "inputs": [
        {
          "name": "_veto",
          "type": "bool"
        }
      ],
      "name": "RandomTradingPartner",
      "outputs": [],
      "payable": false,
      "stateMutability": "nonpayable",
      "type": "function"
    },
    {
      "constant": false,
      "inputs": [
        {
          "name": "_oldAccount",
          "type": "address"
        },
        {
          "name": "_voter",
          "type": "address"
        },
        {
          "name": "_description",
          "type": "string"
        }
      ],
      "name": "MakeVotingToken",
      "outputs": [],
      "payable": false,
      "stateMutability": "nonpayable",
      "type": "function"
    },
    {
      "constant": false,
      "inputs": [
        {
          "name": "_timeStamp",
          "type": "uint256"
        },
        {
          "name": "_voter",
          "type": "address"
        },
        {
          "name": "_amount",
          "type": "uint256"
        },
        {
          "name": "_description",
          "type": "string"
        },
        {
          "name": "_itemsInTrade",
          "type": "string"
        }
      ],
      "name": "AddTransactionDataSet",
      "outputs": [],
      "payable": false,
      "stateMutability": "nonpayable",
      "type": "function"
    },
    {
      "constant": true,
      "inputs": [
        {
          "name": "_voter",
          "type": "address"
        },
        {
          "name": "j",
          "type": "uint256"
        }
      ],
      "name": "ViewPublicInformation",
      "outputs": [
        {
          "name": "",
          "type": "uint256"
        },
        {
          "name": "",
          "type": "uint256"
        },
        {
          "name": "",
          "type": "address"
        },
        {
          "name": "",
          "type": "address"
        }
      ],
      "payable": false,
      "stateMutability": "view",
      "type": "function"
    },
    {
      "constant": true,
      "inputs": [
        {
          "name": "_voter",
          "type": "address"
        },
        {
          "name": "j",
          "type": "uint256"
        }
      ],
      "name": "ViewPrivateInformation",
      "outputs": [
        {
          "name": "",
          "type": "string"
        },
        {
          "name": "",
          "type": "string"
        }
      ],
      "payable": false,
      "stateMutability": "view",
      "type": "function"
    },
    {
      "constant": false,
      "inputs": [
        {
          "name": "_voter",
          "type": "address"
        },
        {
          "name": "choice",
          "type": "bool"
        }
      ],
      "name": "CastVote",
      "outputs": [],
      "payable": false,
      "stateMutability": "nonpayable",
      "type": "function"
    },
    {
      "constant": false,
      "inputs": [
        {
          "name": "UMI",
          "type": "address"
        }
      ],
      "name": "ConcludeAccountRecovery",
      "outputs": [
        {
          "name": "",
          "type": "int256"
        }
      ],
      "payable": false,
      "stateMutability": "nonpayable",
      "type": "function"
    },
    {
      "constant": true,
      "inputs": [],
      "name": "getVoters",
      "outputs": [
        {
          "name": "",
          "type": "address[]"
        }
      ],
      "payable": false,
      "stateMutability": "view",
      "type": "function"
    },
    {
      "constant": true,
      "inputs": [
        {
          "name": "_voter",
          "type": "address"
        }
      ],
      "name": "ContainsVoter",
      "outputs": [
        {
          "name": "",
          "type": "bool"
        }
      ],
      "payable": false,
      "stateMutability": "view",
      "type": "function"
    }
  ],
  "bytecode": "0x60806040526000600760006101000a81548173ffffffffffffffffffffffffffffffffffffffff021916908373ffffffffffffffffffffffffffffffffffffffff1602179055506000600a556000600d60006101000a81548160ff021916908360ff1602179055506003600d60016101000a81548160ff021916908360ff1602179055506000600d60026101000a81548160ff0219169083151502179055503480156100aa57600080fd5b50604051606080614122833981018060405260608110156100ca57600080fd5b8101908080519060200190929190805190602001909291908051906020019092919050505082600860006101000a81548173ffffffffffffffffffffffffffffffffffffffff021916908373ffffffffffffffffffffffffffffffffffffffff16021790555081600960006101000a81548173ffffffffffffffffffffffffffffffffffffffff021916908373ffffffffffffffffffffffffffffffffffffffff16021790555080600b8190555042600c81905550505050613f91806101916000396000f3fe608060405234801561001057600080fd5b50600436106100cf5760003560e01c8063cdd722531161008c578063e8d94c0011610066578063e8d94c0014610494578063f91ac8991461054d578063fa041dd714610680578063fac0328d146106d0576100cf565b8063cdd7225314610322578063cde596b214610381578063e628c2e0146103c5576100cf565b80630d2cea2c146100d4578063137858a11461012c57806319e5fba0146101765780634f7ae4ae1461027857806376a3fab6146102d4578063a035b1fe14610304575b600080fd5b610116600480360360208110156100ea57600080fd5b81019080803573ffffffffffffffffffffffffffffffffffffffff1690602001909291905050506107de565b6040518082815260200191505060405180910390f35b6101346114ea565b604051808273ffffffffffffffffffffffffffffffffffffffff1673ffffffffffffffffffffffffffffffffffffffff16815260200191505060405180910390f35b610276600480360360a081101561018c57600080fd5b8101908080359060200190929190803573ffffffffffffffffffffffffffffffffffffffff16906020019092919080359060200190929190803590602001906401000000008111156101dd57600080fd5b8201836020820111156101ef57600080fd5b8035906020019184600183028401116401000000008311171561021157600080fd5b90919293919293908035906020019064010000000081111561023257600080fd5b82018360208201111561024457600080fd5b8035906020019184600183028401116401000000008311171561026657600080fd5b9091929391929390505050611510565b005b6102ba6004803603602081101561028e57600080fd5b81019080803573ffffffffffffffffffffffffffffffffffffffff169060200190929190505050611809565b604051808215151515815260200191505060405180910390f35b610302600480360360208110156102ea57600080fd5b810190808035151590602001909291905050506118d3565b005b61030c611ece565b6040518082815260200191505060405180910390f35b61032a611ed4565b6040518080602001828103825283818151815260200191508051906020019060200280838360005b8381101561036d578082015181840152602081019050610352565b505050509050019250505060405180910390f35b6103c36004803603602081101561039757600080fd5b81019080803573ffffffffffffffffffffffffffffffffffffffff169060200190929190505050611fbe565b005b610411600480360360408110156103db57600080fd5b81019080803573ffffffffffffffffffffffffffffffffffffffff16906020019092919080359060200190929190505050612124565b604051808581526020018481526020018373ffffffffffffffffffffffffffffffffffffffff1673ffffffffffffffffffffffffffffffffffffffff1681526020018273ffffffffffffffffffffffffffffffffffffffff1673ffffffffffffffffffffffffffffffffffffffff16815260200194505050505060405180910390f35b61054b600480360360608110156104aa57600080fd5b81019080803573ffffffffffffffffffffffffffffffffffffffff169060200190929190803573ffffffffffffffffffffffffffffffffffffffff1690602001909291908035906020019064010000000081111561050757600080fd5b82018360208201111561051957600080fd5b8035906020019184600183028401116401000000008311171561053b57600080fd5b9091929391929390505050612411565b005b6105996004803603604081101561056357600080fd5b81019080803573ffffffffffffffffffffffffffffffffffffffff169060200190929190803590602001909291905050506127fe565b604051808060200180602001838103835285818151815260200191508051906020019080838360005b838110156105dd5780820151818401526020810190506105c2565b50505050905090810190601f16801561060a5780820380516001836020036101000a031916815260200191505b50838103825284818151815260200191508051906020019080838360005b83811015610643578082015181840152602081019050610628565b50505050905090810190601f1680156106705780820380516001836020036101000a031916815260200191505b5094505050505060405180910390f35b6106ce6004803603604081101561069657600080fd5b81019080803573ffffffffffffffffffffffffffffffffffffffff169060200190929190803515159060200190929190505050612b69565b005b6107dc600480360360808110156106e657600080fd5b810190808035906020019064010000000081111561070357600080fd5b82018360208201111561071557600080fd5b8035906020019184602083028401116401000000008311171561073757600080fd5b90919293919293908035906020019064010000000081111561075857600080fd5b82018360208201111561076a57600080fd5b8035906020019184602083028401116401000000008311171561078c57600080fd5b9091929391929390803573ffffffffffffffffffffffffffffffffffffffff169060200190929190803573ffffffffffffffffffffffffffffffffffffffff169060200190929190505050612df9565b005b6000600273__Set___________________________________63ea70683890916040518263ffffffff1660e01b81526004018082815260200191505060206040518083038186803b15801561083257600080fd5b505af4158015610846573d6000803e3d6000fd5b505050506040513d602081101561085c57600080fd5b8101908080519060200190929190505050600d60009054906101000a900460ff1660ff16146108d6576040517f08c379a0000000000000000000000000000000000000000000000000000000008152600401808060200182810382526025815260200180613db76025913960400191505060405180910390fd5b600c5442038273ffffffffffffffffffffffffffffffffffffffff16636f77926b600860009054906101000a900473ffffffffffffffffffffffffffffffffffffffff166040518263ffffffff1660e01b8152600401808273ffffffffffffffffffffffffffffffffffffffff1673ffffffffffffffffffffffffffffffffffffffff16815260200191505060206040518083038186803b15801561097a57600080fd5b505afa15801561098e573d6000803e3d6000fd5b505050506040513d60208110156109a457600080fd5b810190808051906020019092919050505073ffffffffffffffffffffffffffffffffffffffff1663b7f688526040518163ffffffff1660e01b815260040160206040518083038186803b1580156109fa57600080fd5b505afa158015610a0e573d6000803e3d6000fd5b505050506040513d6020811015610a2457600080fd5b81019080805190602001909291905050501115610a63577fffffffffffffffffffffffffffffffffffffffffffffffffffffffffffffffff90506114e5565b60008090506000809050600080905060008090505b600273__Set___________________________________63ea70683890916040518263ffffffff1660e01b81526004018082815260200191505060206040518083038186803b158015610aca57600080fd5b505af4158015610ade573d6000803e3d6000fd5b505050506040513d6020811015610af457600080fd5b8101908080519060200190929190505050811015610ee6576000806000600273__Set___________________________________6344f7330d9091866040518363ffffffff1660e01b8152600401808381526020018281526020019250505060206040518083038186803b158015610b6b57600080fd5b505af4158015610b7f573d6000803e3d6000fd5b505050506040513d6020811015610b9557600080fd5b810190808051906020019092919050505073ffffffffffffffffffffffffffffffffffffffff1673ffffffffffffffffffffffffffffffffffffffff1681526020019081526020016000208054905011610c3a576040517f08c379a0000000000000000000000000000000000000000000000000000000008152600401808060200182810382526024815260200180613dfe6024913960400191505060405180910390fd5b600060016000600273__Set___________________________________6344f7330d9091866040518363ffffffff1660e01b8152600401808381526020018281526020019250505060206040518083038186803b158015610c9a57600080fd5b505af4158015610cae573d6000803e3d6000fd5b505050506040513d6020811015610cc457600080fd5b810190808051906020019092919050505073ffffffffffffffffffffffffffffffffffffffff1673ffffffffffffffffffffffffffffffffffffffff16815260200190815260200160002060000190508073__VotingToken___________________________63ffef631c90916040518263ffffffff1660e01b81526004018082815260200191505060206040518083038186803b158015610d6557600080fd5b505af4158015610d79573d6000803e3d6000fd5b505050506040513d6020811015610d8f57600080fd5b8101908080519060200190929190505050830192508073__VotingToken___________________________63117d52aa90916040518263ffffffff1660e01b81526004018082815260200191505060206040518083038186803b158015610df557600080fd5b505af4158015610e09573d6000803e3d6000fd5b505050506040513d6020811015610e1f57600080fd5b810190808051906020019092919050505015610ed85784806001019550508073__VotingToken___________________________63fb84fe7b90916040518263ffffffff1660e01b81526004018082815260200191505060206040518083038186803b158015610e8e57600080fd5b505af4158015610ea2573d6000803e3d6000fd5b505050506040513d6020811015610eb857600080fd5b810190808051906020019092919050505015610ed75783806001019450505b5b508080600101915050610a78565b506005831015610f36576202a300600c5442031115610f0b57603c93505050506114e5565b7ffffffffffffffffffffffffffffffffffffffffffffffffffffffffffffffffe93505050506114e5565b60006042848460640281610f4657fe5b04101590506000600290506000600290506000600190506000878681610f6857fe5b04905060008090505b600273__Set___________________________________63ea70683890916040518263ffffffff1660e01b81526004018082815260200191505060206040518083038186803b158015610fc357600080fd5b505af4158015610fd7573d6000803e3d6000fd5b505050506040513d6020811015610fed57600080fd5b81019080805190602001909291905050508110156114cc57600060016000600273__Set___________________________________6344f7330d9091866040518363ffffffff1660e01b8152600401808381526020018281526020019250505060206040518083038186803b15801561106557600080fd5b505af4158015611079573d6000803e3d6000fd5b505050506040513d602081101561108f57600080fd5b810190808051906020019092919050505073ffffffffffffffffffffffffffffffffffffffff1673ffffffffffffffffffffffffffffffffffffffff16815260200190815260200160002060000190508073__VotingToken___________________________63117d52aa90916040518263ffffffff1660e01b81526004018082815260200191505060206040518083038186803b15801561113057600080fd5b505af4158015611144573d6000803e3d6000fd5b505050506040513d602081101561115a57600080fd5b8101908080519060200190929190505050156114be5760008a87600b548161117e57fe5b048161118657fe5b0490508173__VotingToken___________________________63fb84fe7b90916040518263ffffffff1660e01b81526004018082815260200191505060206040518083038186803b1580156111da57600080fd5b505af41580156111ee573d6000803e3d6000fd5b505050506040513d602081101561120457600080fd5b810190808051906020019092919050505015158815151415611261578715611244578986600b548161123257fe5b048161123a57fe5b0481019050611260565b898b0386600b548161125257fe5b048161125a57fe5b04810190505b5b848273__VotingToken___________________________63ffef631c90916040518263ffffffff1660e01b81526004018082815260200191505060206040518083038186803b1580156112b357600080fd5b505af41580156112c7573d6000803e3d6000fd5b505050506040513d60208110156112dd57600080fd5b81019080805190602001909291905050508503816112f757fe5b048101905060008111156114bc578c73ffffffffffffffffffffffffffffffffffffffff16636f77926b600273__Set___________________________________6344f7330d9091876040518363ffffffff1660e01b8152600401808381526020018281526020019250505060206040518083038186803b15801561137b57600080fd5b505af415801561138f573d6000803e3d6000fd5b505050506040513d60208110156113a557600080fd5b81019080805190602001909291905050506040518263ffffffff1660e01b8152600401808273ffffffffffffffffffffffffffffffffffffffff1673ffffffffffffffffffffffffffffffffffffffff16815260200191505060206040518083038186803b15801561141657600080fd5b505afa15801561142a573d6000803e3d6000fd5b505050506040513d602081101561144057600080fd5b810190808051906020019092919050505073ffffffffffffffffffffffffffffffffffffffff16633e4ccb40826040518263ffffffff1660e01b815260040180828152602001915050600060405180830381600087803b1580156114a357600080fd5b505af11580156114b7573d6000803e3d6000fd5b505050505b505b508080600101915050610f71565b508787606402816114d957fe5b04985050505050505050505b919050565b600760009054906101000a900473ffffffffffffffffffffffffffffffffffffffff1681565b600160008773ffffffffffffffffffffffffffffffffffffffff1673ffffffffffffffffffffffffffffffffffffffff16815260200190815260200160002060050160009054906101000a900460ff166115b5576040517f08c379a0000000000000000000000000000000000000000000000000000000008152600401808060200182810382526032815260200180613d856032913960400191505060405180910390fd5b6000808773ffffffffffffffffffffffffffffffffffffffff1673ffffffffffffffffffffffffffffffffffffffff1681526020019081526020016000206040518060c0016040528086868080601f016020809104026020016040519081016040528093929190818152602001838380828437600081840152601f19601f82011690508083019250505050505050815260200184848080601f016020809104026020016040519081016040528093929190818152602001838380828437600081840152601f19601f820116905080830192505050505050508152602001600860009054906101000a900473ffffffffffffffffffffffffffffffffffffffff1673ffffffffffffffffffffffffffffffffffffffff1681526020018873ffffffffffffffffffffffffffffffffffffffff1681526020018981526020018781525090806001815401808255809150509060018203906000526020600020906006020160009091929091909150600082015181600001908051906020019061173d929190613bf8565b50602082015181600101908051906020019061175a929190613bf8565b5060408201518160020160006101000a81548173ffffffffffffffffffffffffffffffffffffffff021916908373ffffffffffffffffffffffffffffffffffffffff16021790555060608201518160030160006101000a81548173ffffffffffffffffffffffffffffffffffffffff021916908373ffffffffffffffffffffffffffffffffffffffff1602179055506080820151816004015560a0820151816005015550505050505050505050565b6000600273__Set___________________________________636aa90e979091846040518363ffffffff1660e01b8152600401808381526020018273ffffffffffffffffffffffffffffffffffffffff1673ffffffffffffffffffffffffffffffffffffffff1681526020019250505060206040518083038186803b15801561189157600080fd5b505af41580156118a5573d6000803e3d6000fd5b505050506040513d60208110156118bb57600080fd5b81019080805190602001909291905050509050919050565b80611b2157600273__Set___________________________________636aa90e979091600760009054906101000a900473ffffffffffffffffffffffffffffffffffffffff166040518363ffffffff1660e01b8152600401808381526020018273ffffffffffffffffffffffffffffffffffffffff1673ffffffffffffffffffffffffffffffffffffffff1681526020019250505060206040518083038186803b15801561198057600080fd5b505af4158015611994573d6000803e3d6000fd5b505050506040513d60208110156119aa57600080fd5b810190808051906020019092919050505015611a2e576040517f08c379a000000000000000000000000000000000000000000000000000000000815260040180806020018281038252601a8152602001807f416c72656164792061646465642074686174206164647265737300000000000081525060200191505060405180910390fd5b600d600181819054906101000a900460ff168092919060010191906101000a81548160ff021916908360ff16021790555050600273__Set___________________________________633c2580489091600760009054906101000a900473ffffffffffffffffffffffffffffffffffffffff166040518363ffffffff1660e01b8152600401808381526020018273ffffffffffffffffffffffffffffffffffffffff1673ffffffffffffffffffffffffffffffffffffffff1681526020019250505060006040518083038186803b158015611b0857600080fd5b505af4158015611b1c573d6000803e3d6000fd5b505050505b600a54600273__Set___________________________________63ea70683890916040518263ffffffff1660e01b81526004018082815260200191505060206040518083038186803b158015611b7657600080fd5b505af4158015611b8a573d6000803e3d6000fd5b505050506040513d6020811015611ba057600080fd5b810190808051906020019092919050505014611ecb576000600a5411611c11576040517f08c379a0000000000000000000000000000000000000000000000000000000008152600401808060200182810382526037815260200180613e4f6037913960400191505060405180910390fd5b6000600d60019054906101000a900460ff1660ff1611611c7c576040517f08c379a0000000000000000000000000000000000000000000000000000000008152600401808060200182810382526023815260200180613ed26023913960400191505060405180910390fd5b600060068054905011611cda576040517f08c379a0000000000000000000000000000000000000000000000000000000008152600401808060200182810382526047815260200180613ef56047913960600191505060405180910390fd5b600d600181819054906101000a900460ff16809291906001900391906101000a81548160ff021916908360ff160217905550506000611d40600760009054906101000a900473ffffffffffffffffffffffffffffffffffffffff16600680549050613b74565b60ff16905060068181548110611d5257fe5b9060005260206000200160009054906101000a900473ffffffffffffffffffffffffffffffffffffffff16600760006101000a81548173ffffffffffffffffffffffffffffffffffffffff021916908373ffffffffffffffffffffffffffffffffffffffff16021790555060008190505b600160068054905003811015611e705760066001820181548110611de357fe5b9060005260206000200160009054906101000a900473ffffffffffffffffffffffffffffffffffffffff1660068281548110611e1b57fe5b9060005260206000200160006101000a81548173ffffffffffffffffffffffffffffffffffffffff021916908373ffffffffffffffffffffffffffffffffffffffff1602179055508080600101915050611dc3565b50600660016006805490500381548110611e8657fe5b9060005260206000200160006101000a81549073ffffffffffffffffffffffffffffffffffffffff02191690556006805480919060019003611ec89190613c78565b50505b50565b600b5481565b6060600273__Set___________________________________639fa87cd190916040518263ffffffff1660e01b81526004018082815260200191505060006040518083038186803b158015611f2857600080fd5b505af4158015611f3c573d6000803e3d6000fd5b505050506040513d6000823e3d601f19601f820116820180604052506020811015611f6657600080fd5b810190808051640100000000811115611f7e57600080fd5b82810190506020810184811115611f9457600080fd5b8151856020820283011164010000000082111715611fb157600080fd5b5050929190505050905090565b600b548173ffffffffffffffffffffffffffffffffffffffff1663b69ef8a86040518163ffffffff1660e01b815260040160206040518083038186803b15801561200757600080fd5b505afa15801561201b573d6000803e3d6000fd5b505050506040513d602081101561203157600080fd5b81019080805190602001909291905050501015612099576040517f08c379a0000000000000000000000000000000000000000000000000000000008152600401808060200182810382526022815260200180613ddc6022913960400191505060405180910390fd5b8073ffffffffffffffffffffffffffffffffffffffff1663392aee43600b546040518263ffffffff1660e01b815260040180828152602001915050600060405180830381600087803b1580156120ee57600080fd5b505af1158015612102573d6000803e3d6000fd5b505050506001600d60026101000a81548160ff02191690831515021790555050565b60008060008060008090505b600273__Set___________________________________63ea70683890916040518263ffffffff1660e01b81526004018082815260200191505060206040518083038186803b15801561218257600080fd5b505af4158015612196573d6000803e3d6000fd5b505050506040513d60208110156121ac57600080fd5b81019080805190602001909291905050508110156122ff576000806000600273__Set___________________________________6344f7330d9091866040518363ffffffff1660e01b8152600401808381526020018281526020019250505060206040518083038186803b15801561222357600080fd5b505af4158015612237573d6000803e3d6000fd5b505050506040513d602081101561224d57600080fd5b810190808051906020019092919050505073ffffffffffffffffffffffffffffffffffffffff1673ffffffffffffffffffffffffffffffffffffffff16815260200190815260200160002080549050116122f2576040517f08c379a0000000000000000000000000000000000000000000000000000000008152600401808060200182810382526033815260200180613d526033913960400191505060405180910390fd5b8080600101915050612130565b506000808773ffffffffffffffffffffffffffffffffffffffff1673ffffffffffffffffffffffffffffffffffffffff168152602001908152602001600020858154811061234957fe5b906000526020600020906006020173__TransactionDataSet____________________63b18e919690916040518263ffffffff1660e01b81526004018082815260200191505060806040518083038186803b1580156123a757600080fd5b505af41580156123bb573d6000803e3d6000fd5b505050506040513d60808110156123d157600080fd5b8101908080519060200190929190805190602001909291908051906020019092919080519060200190929190505050935093509350935092959194509250565b600a54600273__Set___________________________________63ea70683890916040518263ffffffff1660e01b81526004018082815260200191505060206040518083038186803b15801561246657600080fd5b505af415801561247a573d6000803e3d6000fd5b505050506040513d602081101561249057600080fd5b8101908080519060200190929190505050146124f7576040517f08c379a0000000000000000000000000000000000000000000000000000000008152600401808060200182810382526037815260200180613e4f6037913960400191505060405180910390fd5b600160008473ffffffffffffffffffffffffffffffffffffffff1673ffffffffffffffffffffffffffffffffffffffff16815260200190815260200160002060050160009054906101000a900460ff161561259d576040517f08c379a0000000000000000000000000000000000000000000000000000000008152600401808060200182810382526025815260200180613ead6025913960400191505060405180910390fd5b6125a5613ca4565b6040518060c0016040528084848080601f016020809104026020016040519081016040528093929190818152602001838380828437600081840152601f19601f8201169050808301925050505050505081526020018673ffffffffffffffffffffffffffffffffffffffff1681526020018573ffffffffffffffffffffffffffffffffffffffff16815260200160008152602001600015158152602001600015158152508160000181905250600181602001901515908115158152505080600160008673ffffffffffffffffffffffffffffffffffffffff1673ffffffffffffffffffffffffffffffffffffffff16815260200190815260200160002060008201518160000160008201518160000190805190602001906126c7929190613bf8565b5060208201518160010160006101000a81548173ffffffffffffffffffffffffffffffffffffffff021916908373ffffffffffffffffffffffffffffffffffffffff16021790555060408201518160020160006101000a81548173ffffffffffffffffffffffffffffffffffffffff021916908373ffffffffffffffffffffffffffffffffffffffff1602179055506060820151816003015560808201518160040160006101000a81548160ff02191690831515021790555060a08201518160040160016101000a81548160ff021916908315150217905550505060208201518160050160006101000a81548160ff021916908315150217905550905050600d600081819054906101000a900460ff168092919060010191906101000a81548160ff021916908360ff160217905550505050505050565b60608060008090505b600273__Set___________________________________63ea70683890916040518263ffffffff1660e01b81526004018082815260200191505060206040518083038186803b15801561285957600080fd5b505af415801561286d573d6000803e3d6000fd5b505050506040513d602081101561288357600080fd5b81019080805190602001909291905050508110156129d6576000806000600273__Set___________________________________6344f7330d9091866040518363ffffffff1660e01b8152600401808381526020018281526020019250505060206040518083038186803b1580156128fa57600080fd5b505af415801561290e573d6000803e3d6000fd5b505050506040513d602081101561292457600080fd5b810190808051906020019092919050505073ffffffffffffffffffffffffffffffffffffffff1673ffffffffffffffffffffffffffffffffffffffff16815260200190815260200160002080549050116129c9576040517f08c379a0000000000000000000000000000000000000000000000000000000008152600401808060200182810382526033815260200180613d526033913960400191505060405180910390fd5b8080600101915050612807565b506000808573ffffffffffffffffffffffffffffffffffffffff1673ffffffffffffffffffffffffffffffffffffffff1681526020019081526020016000208381548110612a2057fe5b906000526020600020906006020173__TransactionDataSet____________________63c233d7e890916040518263ffffffff1660e01b81526004018082815260200191505060006040518083038186803b158015612a7e57600080fd5b505af4158015612a92573d6000803e3d6000fd5b505050506040513d6000823e3d601f19601f820116820180604052506040811015612abc57600080fd5b810190808051640100000000811115612ad457600080fd5b82810190506020810184811115612aea57600080fd5b8151856001820283011164010000000082111715612b0757600080fd5b50509291906020018051640100000000811115612b2357600080fd5b82810190506020810184811115612b3957600080fd5b8151856001820283011164010000000082111715612b5657600080fd5b5050929190505050915091509250929050565b60008090505b600273__Set___________________________________63ea70683890916040518263ffffffff1660e01b81526004018082815260200191505060206040518083038186803b158015612bc157600080fd5b505af4158015612bd5573d6000803e3d6000fd5b505050506040513d6020811015612beb57600080fd5b8101908080519060200190929190505050811015612d3e576000806000600273__Set___________________________________6344f7330d9091866040518363ffffffff1660e01b8152600401808381526020018281526020019250505060206040518083038186803b158015612c6257600080fd5b505af4158015612c76573d6000803e3d6000fd5b505050506040513d6020811015612c8c57600080fd5b810190808051906020019092919050505073ffffffffffffffffffffffffffffffffffffffff1673ffffffffffffffffffffffffffffffffffffffff1681526020019081526020016000208054905011612d31576040517f08c379a0000000000000000000000000000000000000000000000000000000008152600401808060200182810382526033815260200180613d526033913960400191505060405180910390fd5b8080600101915050612b6f565b50600160008373ffffffffffffffffffffffffffffffffffffffff1673ffffffffffffffffffffffffffffffffffffffff16815260200190815260200160002060000173__VotingToken___________________________632bf6c95f9091836040518363ffffffff1660e01b815260040180838152602001821515151581526020019250505060006040518083038186803b158015612ddd57600080fd5b505af4158015612df1573d6000803e3d6000fd5b505050505050565b60011515600d60029054906101000a900460ff16151514612e65576040517f08c379a0000000000000000000000000000000000000000000000000000000008152600401808060200182810382526027815260200180613e866027913960400191505060405180910390fd5b60008090505b84849050811015612f4957600473__Set___________________________________633c2580489091878785818110612ea057fe5b9050602002013573ffffffffffffffffffffffffffffffffffffffff166040518363ffffffff1660e01b8152600401808381526020018273ffffffffffffffffffffffffffffffffffffffff1673ffffffffffffffffffffffffffffffffffffffff1681526020019250505060006040518083038186803b158015612f2457600080fd5b505af4158015612f38573d6000803e3d6000fd5b505050508080600101915050612e6b565b5060008090505b8686905081101561341a57868682818110612f6757fe5b9050602002013573ffffffffffffffffffffffffffffffffffffffff1673ffffffffffffffffffffffffffffffffffffffff16600960009054906101000a900473ffffffffffffffffffffffffffffffffffffffff1673ffffffffffffffffffffffffffffffffffffffff161461340d578173ffffffffffffffffffffffffffffffffffffffff1663331c4bed88888481811061300057fe5b9050602002013573ffffffffffffffffffffffffffffffffffffffff1689898581811061302957fe5b9050602002013573ffffffffffffffffffffffffffffffffffffffff166040518363ffffffff1660e01b8152600401808373ffffffffffffffffffffffffffffffffffffffff1673ffffffffffffffffffffffffffffffffffffffff1681526020018273ffffffffffffffffffffffffffffffffffffffff1673ffffffffffffffffffffffffffffffffffffffff1681526020019250505060206040518083038186803b1580156130d957600080fd5b505afa1580156130ed573d6000803e3d6000fd5b505050506040513d602081101561310357600080fd5b810190808051906020019092919050505061340c5760008373ffffffffffffffffffffffffffffffffffffffff166314ee741f600860009054906101000a900473ffffffffffffffffffffffffffffffffffffffff168a8a8681811061316557fe5b9050602002013573ffffffffffffffffffffffffffffffffffffffff166040518363ffffffff1660e01b8152600401808373ffffffffffffffffffffffffffffffffffffffff1673ffffffffffffffffffffffffffffffffffffffff1681526020018273ffffffffffffffffffffffffffffffffffffffff1673ffffffffffffffffffffffffffffffffffffffff1681526020019250505060206040518083038186803b15801561321557600080fd5b505afa158015613229573d6000803e3d6000fd5b505050506040513d602081101561323f57600080fd5b8101908080519060200190929190505050111561340b57600473__Set___________________________________636aa90e97909189898581811061328057fe5b9050602002013573ffffffffffffffffffffffffffffffffffffffff166040518363ffffffff1660e01b8152600401808381526020018273ffffffffffffffffffffffffffffffffffffffff1673ffffffffffffffffffffffffffffffffffffffff1681526020019250505060206040518083038186803b15801561330457600080fd5b505af4158015613318573d6000803e3d6000fd5b505050506040513d602081101561332e57600080fd5b810190808051906020019092919050505061340a57600273__Set___________________________________633c258048909189898581811061336d57fe5b9050602002013573ffffffffffffffffffffffffffffffffffffffff166040518363ffffffff1660e01b8152600401808381526020018273ffffffffffffffffffffffffffffffffffffffff1673ffffffffffffffffffffffffffffffffffffffff1681526020019250505060006040518083038186803b1580156133f157600080fd5b505af4158015613405573d6000803e3d6000fd5b505050505b5b5b5b8080600101915050612f50565b506003600273__Set___________________________________63ea70683890916040518263ffffffff1660e01b81526004018082815260200191505060206040518083038186803b15801561346f57600080fd5b505af4158015613483573d6000803e3d6000fd5b505050506040513d602081101561349957600080fd5b81019080805190602001909291905050501015613501576040517f08c379a000000000000000000000000000000000000000000000000000000000815260040180806020018281038252602a815260200180613f3c602a913960400191505060405180910390fd5b6003600273__Set___________________________________63ea70683890916040518263ffffffff1660e01b81526004018082815260200191505060206040518083038186803b15801561355557600080fd5b505af4158015613569573d6000803e3d6000fd5b505050506040513d602081101561357f57600080fd5b81019080805190602001909291905050508787905003106135eb576040517f08c379a000000000000000000000000000000000000000000000000000000000815260040180806020018281038252602d815260200180613e22602d913960400191505060405180910390fd5b60028073__Set___________________________________63ea70683890916040518263ffffffff1660e01b81526004018082815260200191505060206040518083038186803b15801561363e57600080fd5b505af4158015613652573d6000803e3d6000fd5b505050506040513d602081101561366857600080fd5b810190808051906020019092919050505002600a8190555060608273ffffffffffffffffffffffffffffffffffffffff1663d2aeb0d2600860009054906101000a900473ffffffffffffffffffffffffffffffffffffffff16600960009054906101000a900473ffffffffffffffffffffffffffffffffffffffff166040518363ffffffff1660e01b8152600401808373ffffffffffffffffffffffffffffffffffffffff1673ffffffffffffffffffffffffffffffffffffffff1681526020018273ffffffffffffffffffffffffffffffffffffffff1673ffffffffffffffffffffffffffffffffffffffff16815260200192505050600060405180830381600087803b15801561377957600080fd5b505af115801561378d573d6000803e3d6000fd5b505050506040513d6000823e3d601f19601f8201168201806040525060208110156137b757600080fd5b8101908080516401000000008111156137cf57600080fd5b828101905060208101848111156137e557600080fd5b815185602082028301116401000000008211171561380257600080fd5b5050929190505050905060008090505b8151811015613a5957600273__Set___________________________________636aa90e97909184848151811061384557fe5b60200260200101516040518363ffffffff1660e01b8152600401808381526020018273ffffffffffffffffffffffffffffffffffffffff1673ffffffffffffffffffffffffffffffffffffffff1681526020019250505060206040518083038186803b1580156138b457600080fd5b505af41580156138c8573d6000803e3d6000fd5b505050506040513d60208110156138de57600080fd5b81019080805190602001909291905050501580156139cd5750600473__Set___________________________________636aa90e97909184848151811061392157fe5b60200260200101516040518363ffffffff1660e01b8152600401808381526020018273ffffffffffffffffffffffffffffffffffffffff1673ffffffffffffffffffffffffffffffffffffffff1681526020019250505060206040518083038186803b15801561399057600080fd5b505af41580156139a4573d6000803e3d6000fd5b505050506040513d60208110156139ba57600080fd5b8101908080519060200190929190505050155b15613a4c5760068282815181106139e057fe5b602002602001015190806001815401808255809150509060018203906000526020600020016000909192909190916101000a81548173ffffffffffffffffffffffffffffffffffffffff021916908373ffffffffffffffffffffffffffffffffffffffff160217905550505b8080600101915050613812565b50600273__Set___________________________________63ea70683890916040518263ffffffff1660e01b81526004018082815260200191505060206040518083038186803b158015613aac57600080fd5b505af4158015613ac0573d6000803e3d6000fd5b505050506040513d6020811015613ad657600080fd5b81019080805190602001909291905050506006805490501015613b61576040517f08c379a00000000000000000000000000000000000000000000000000000000081526004018080602001828103825260208152602001807f496e76616c6964204e756d626572206f6620686176655472616465645769746881525060200191505060405180910390fd5b613b6b60016118d3565b50505050505050565b6000814244855a604051602001808581526020018481526020018373ffffffffffffffffffffffffffffffffffffffff1673ffffffffffffffffffffffffffffffffffffffff1660601b81526014018281526020019450505050506040516020818303038152906040528051906020012060001c81613bef57fe5b06905092915050565b828054600181600116156101000203166002900490600052602060002090601f016020900481019282601f10613c3957805160ff1916838001178555613c67565b82800160010185558215613c67579182015b82811115613c66578251825591602001919060010190613c4b565b5b509050613c749190613cc6565b5090565b815481835581811115613c9f57818360005260206000209182019101613c9e9190613cc6565b5b505050565b6040518060e00160405280613cb7613ceb565b81526020016000151581525090565b613ce891905b80821115613ce4576000816000905550600101613ccc565b5090565b90565b6040518060c0016040528060608152602001600073ffffffffffffffffffffffffffffffffffffffff168152602001600073ffffffffffffffffffffffffffffffffffffffff16815260200160008152602001600015158152602001600015158152509056fe4e6577206163636f756e7420686173206e6f74207368617265642064617461207769746820616c6c20766f74657273207965744e65656420746f20637265617465206120766f74696e6720746f6b656e20666f72207468697320766f74657220666972737448617665206e6f74206372656174656420616c6c2074686520566f74696e67546f6b656e734e6f7420456e6f7567682066756e647320666f7220746869732050726f706f73616c5468657265206973206e6f207472616e73616374696f6e206461746120746f2076696577596f7520696e6469636174656420746f30206d616e7920696e76616c696420747261646520706172746e657273547261646520706172746e6572732068617665206e6f74206265656e20616464656420746f2074686973207965742070726f706f73616c546869732070726f706f73616c20686173206e6f74206265656e207061696420666f72207965745468697320766f74657220616c726561647920686173206120766f74696e6720746f6b656e43616e206e6f74207665746f20616e79206d6f72652072616e646f6d20766f7465727343616e206e6f74207665746f207468697320766f7465722062656361757365207468657265206973206e6f7420656e6f75676820747261646520706172746e657273206c656674496e76616c6964204e756d626572206f6620696e6469636174656420747261646520706172746e657273a165627a7a72305820098f279b11b5182439c08cb36a17f3affab8bab592fd53eea58041ef3a0151470029",
  "source": "/* Proposal.sol */\r\n\r\npragma solidity >=0.4.0 <0.7.0;\r\n\r\nimport \"../contracts/Person.sol\";\r\nimport \"../contracts/UserManager.sol\";\r\n\r\nimport \"../contracts/Set.sol\";\r\nimport \"../contracts/VotingToken.sol\";\r\nimport \"../contracts/TransactionDataSet.sol\";\r\n\r\n/* <Summary> \r\n\tThis contract manages one active proposal: Casts Votes, Tallies votes, give rewards\r\n*/\r\n\r\ncontract Proposal {\r\n\tusing Set for Set.AddressData;\r\n\tusing VotingToken for VotingToken.Token;\r\n\tusing TransactionDataSet for TransactionDataSet.DataSet;\r\n\r\n\tstruct VotingTokenPair {\r\n\t\tVotingToken.Token token;\r\n\t\tbool exists;\r\n\t}\r\n\r\n\tmapping (address => TransactionDataSet.DataSet[]) transactionDataSets; // Map of active proposals\r\n\r\n\tmapping (address => VotingTokenPair) votingtokens;\t\t// Active Voting Tokens\r\n\tSet.AddressData voters;\t\t\t\t\t\t\t\t\t// Addresses who are eligible to vote\r\n\tSet.AddressData archivedVoters;\r\n\r\n\taddress[] haveTradedWith;\r\n\r\n\taddress public lastOtherPartner = 0x0000000000000000000000000000000000000000;\r\n\taddress oldAccount;\t\t\t\t\t\t\t\t\t// Address of the old account\r\n\taddress newAccount;\t\t\t\t\t\t\t// Address of the new account\r\n\t\r\n\tuint numberOfVoters = 0;\r\n\tuint public price;\t\t\t\t\t\t\t\t\t// Price of the account recovery\r\n\tuint startTime;\r\n\tuint8 VotingTokenCreated = 0;\t\t\t\t\t\t// Number of Voting tokens created\r\n\tuint8 randomVoterVetos = 3;\r\n\tbool paided = false;\r\n\r\n\r\n\tconstructor(address _oldAccount, address _newAccount, uint _price) public {\r\n\t\t// Set variable\r\n\t\toldAccount = _oldAccount;\r\n\t\tnewAccount = _newAccount;\r\n\t\t\r\n\t\tprice = _price;\r\n\t\tstartTime = block.timestamp;\r\n\t}\r\n\r\n\tfunction Pay(Person _newAccount) external {\r\n\t\trequire(_newAccount.balance() >= price, \"Not Enough funds for this Proposal\");\r\n\t\t_newAccount.decreaseBalance(price);\t\t\t// Removes money from the new account\r\n\t\tpaided = true;\t\t\t\t\t\t\t\t// The proposal has been paid for\r\n\t}\r\n\r\n\tfunction AddTradePartners(address[] calldata _tradePartners, address[] calldata _archivedVoters, TransactionManager TMI, ProposalManager PMI) external {\r\n\t\trequire(paided == true, \"This proposal has not been paid for yet\");\r\n\r\n\t\tfor (uint i = 0; i < _archivedVoters.length; i++){\r\n\t\t\tarchivedVoters.insert(_archivedVoters[i]);\r\n\t\t}\r\n\r\n\t\tfor (uint i = 0; i < _tradePartners.length; i++){\t// For each partner\r\n\t\t\tif (newAccount != _tradePartners[i]){\t\t\t// The new account can not be a voter\r\n\t\t\t\tif (!PMI.getBlacklistedAccount(_tradePartners[i], _tradePartners[i])){\r\n\t\t\t\t\t// They have made a transaction with the old account\r\n\t\t\t\t\tif (TMI.NumberOfTransactions(oldAccount, _tradePartners[i]) > 0){\r\n\t\t\t\t\t\tif (!archivedVoters.contains(_tradePartners[i])){\t\t\t// This address is not already a voter\r\n\t\t\t\t\t\t\tvoters.insert(_tradePartners[i]);\r\n\t\t\t\t\t\t}\r\n\t\t\t\t\t}\r\n\t\t\t\t}\r\n\t\t\t}\r\n\t\t}\r\n\t\trequire(voters.getValuesLength() >= 3, \"Invalid Number of indicated trade partners\");\r\n\t\trequire(_tradePartners.length - voters.getValuesLength() < 3, \"You indicated to0 many invalid trade partners\");\r\n\t\tnumberOfVoters = voters.getValuesLength() * 2;\r\n\r\n\t\taddress[] memory _haveTradedWith = TMI.getHaveTradedWith(oldAccount, newAccount);\r\n\r\n\t\tfor (uint i = 0; i < _haveTradedWith.length; i++){\t\t\t\t\t// For each address\r\n\t\t\tif (!voters.contains(_haveTradedWith[i]) && !archivedVoters.contains(_haveTradedWith[i]) ){\t\t\t// This address is not already a voter\r\n\t\t\t\thaveTradedWith.push(_haveTradedWith[i]);\t\t\t\t// This address is an eligible voter\r\n\t\t\t}\r\n\t\t}\r\n\t\trequire(haveTradedWith.length >= voters.getValuesLength(), \"Invalid Number of haveTradedWith\");\r\n\t\tRandomTradingPartner(true);\r\n\t}\r\n\r\n\tfunction RandomTradingPartner(bool _veto) public {\r\n\t\tif (!_veto){\r\n\t\t\trequire(!voters.contains(lastOtherPartner), \"Already added that address\");\r\n\t\t\trandomVoterVetos++;\r\n\t\t\tvoters.insert(lastOtherPartner);\r\n\t\t}\r\n\r\n\t\tif (voters.getValuesLength() != numberOfVoters){\r\n\t\t\trequire(numberOfVoters > 0, \"Trade partners have not been added to this yet proposal\");\r\n\t\t\trequire(randomVoterVetos > 0, \"Can not veto any more random voters\");\r\n\t\t\trequire(haveTradedWith.length > 0, \"Can not veto this voter because there is not enough trade partners left\");\r\n\r\n\t\t\trandomVoterVetos--;\r\n\t\t\tuint index = random(lastOtherPartner, haveTradedWith.length);\t\t\t// Find random value\r\n\t\t\t\t\t\r\n\t\t\tlastOtherPartner = haveTradedWith[index];\r\n\r\n\t\t\tfor (uint i = index; i < haveTradedWith.length - 1; i++){\r\n\t\t\t\thaveTradedWith[i] = haveTradedWith[i+1];\r\n\t\t\t}\r\n\t\t\tdelete haveTradedWith[haveTradedWith.length-1];\r\n\t\t\thaveTradedWith.length--;\r\n\t\t}\r\n\t}\r\n\r\n\t// Make Voting Tokens\r\n\tfunction MakeVotingToken(address _oldAccount, address _voter, string calldata _description) external {\r\n\t\trequire(voters.getValuesLength() == numberOfVoters, \"Trade partners have not been added to this yet proposal\");\r\n\t\trequire(!votingtokens[_voter].exists, \"This voter already has a voting token\");\r\n\r\n\t\tVotingTokenPair memory temp;\r\n\t\ttemp.token = VotingToken.Token(_description, _oldAccount, _voter, 0, false, false);\r\n\t\ttemp.exists = true;\r\n\t\tvotingtokens[_voter] = temp;\r\n\r\n\t\tVotingTokenCreated++;\t\t\t// Incroment the number of voting tokens created\r\n\t}\r\n\r\n\t// Add set of data for a give transaction for a give voter\r\n\tfunction AddTransactionDataSet(uint _timeStamp, address _voter, uint _amount, \r\n\t\tstring calldata _description, string calldata _itemsInTrade) external {\r\n\r\n\t\trequire(votingtokens[_voter].exists, \"Need to create a voting token for this voter first\");\r\n\t\ttransactionDataSets[_voter].push(TransactionDataSet.DataSet(_description, _itemsInTrade, oldAccount, _voter, _timeStamp, _amount));\r\n\t}\r\n\r\n\t// View public information on a set of data for a transaction\r\n\tfunction ViewPublicInformation( address _voter, uint j) external view returns (uint, uint, address, address) {\r\n\t\tfor (uint i = 0; i < voters.getValuesLength(); i++) { // Goes through all voters\r\n\t\t\trequire(transactionDataSets[voters.getValue(i)].length > 0, \"New account has not shared data with all voters yet\");\r\n\t\t}\r\n\t\treturn transactionDataSets[_voter][j].ViewPublicInformation();\r\n\t}\r\n\r\n\t// View private information on a set of data for a transaction\r\n\tfunction ViewPrivateInformation( address _voter, uint j) external view returns (string memory, string memory) {\r\n\t\tfor (uint i = 0; i < voters.getValuesLength(); i++) { // Goes through all voters\r\n\t\t\trequire(transactionDataSets[voters.getValue(i)].length > 0, \"New account has not shared data with all voters yet\");\r\n\t\t}\r\n\t\treturn transactionDataSets[_voter][j].ViewPrivateInformation();\r\n\t}\r\n\r\n\t// Casts a vote\r\n\tfunction CastVote(address _voter, bool choice) external {\r\n\t\tfor (uint i = 0; i < voters.getValuesLength(); i++) { // Goes through all voters\r\n\t\t\trequire(transactionDataSets[voters.getValue(i)].length > 0, \"New account has not shared data with all voters yet\");\r\n\t\t}\r\n\t\tvotingtokens[_voter].token.CastVote(choice);\r\n\t}\r\n\r\n\t// Give rewards to voters and return outcome of vote\r\n\tfunction ConcludeAccountRecovery(UserManager UMI) external returns (int){\r\n\t\trequire(VotingTokenCreated == voters.getValuesLength(), \"Have not created all the VotingTokens\");\r\n\r\n\t\tif (UMI.getUser(oldAccount).vetoTime() > block.timestamp - startTime){\r\n\t\t\treturn -1;\r\n\t\t}\r\n\r\n\t\tuint total = 0;\t\t\t\t\t\t\t// Total number of votes\r\n\t\tuint yeses = 0;\t\t\t\t\t\t\t// Total number of yesses\r\n\r\n\t\tuint totalTimeToVote = 0;\r\n\r\n\t\tfor (uint i = 0; i < voters.getValuesLength(); i++) { // Goes through all voters\r\n\t\t\trequire(transactionDataSets[voters.getValue(i)].length > 0, \"There is no transaction data to view\");\r\n\t\t\tVotingToken.Token storage temp = votingtokens[voters.getValue(i)].token;\r\n\t\t\ttotalTimeToVote += temp.getVotedTime();\r\n\t\t\tif (temp.getVoted()){\t\t\t\t// They are a voter and they voted\r\n\t\t\t\ttotal++;\t\t\t\t\t\t// Incroment the total number of votes\r\n\t\t\t\tif (temp.getVote()){ \t\t\t// They are a voter and they voted yes\r\n\t\t\t\t\tyeses++;\t\t\t\t\t// Incroment the number of yesses\r\n\t\t\t\t}\r\n\t\t\t}\r\n\t\t}\r\n\r\n\t\tif (total < 5){\r\n\t\t\tif (block.timestamp - startTime > 172800){\r\n\t\t\t\treturn 60;\r\n\t\t\t}\r\n\t\t\treturn -2;\r\n\t\t}\r\n\r\n\t\tbool outcome = (100*yeses) / total >= 66;\t\t\t// The outcome of the vote\r\n\r\n\t\tuint participationFactor = 2;\r\n\t\tuint correctionFactor = 2;\r\n\t\tuint timeFactor = 1;\r\n\r\n\t\tuint averageTimeToVote = totalTimeToVote / total;\r\n\r\n\t\tfor (uint i = 0; i < voters.getValuesLength(); i++) { \t// Goes through all voters\r\n\t\t\tVotingToken.Token storage temp = votingtokens[voters.getValue(i)].token;\r\n\t\t\tif (temp.getVoted()){\t\t\t\t\t\t\t// They are a voter and they voted\r\n\t\t\t\tuint amount = (price / participationFactor) / total;\t\t\t// Reward for participating \r\n\r\n\t\t\t\tif (outcome == temp.getVote()){\r\n\t\t\t\t\tif (outcome){\r\n\t\t\t\t\t\tamount += (price / correctionFactor) / yeses;\t\t\t\t// Reward for voting correctly \r\n\t\t\t\t\t}else{\r\n\t\t\t\t\t\tamount += (price / correctionFactor) / (total-yeses);\t\t// Reward for voting correctly\r\n\t\t\t\t\t}\r\n\t\t\t\t}\r\n\r\n\t\t\t\tamount += (averageTimeToVote - temp.getVotedTime()) / timeFactor;\r\n\r\n\t\t\t\tif (amount > 0){\r\n\t\t\t\t\tUMI.getUser(voters.getValue(i)).increaseBalance(amount);\t// Increases balance\r\n\t\t\t\t}\r\n\t\t\t}\r\n\t\t}\r\n\t\treturn int((100*yeses) / total);\t\t\t\t\t\t\t\t\t\t// Return outcome of vote\r\n\t}\r\n\r\n\t// Generate random number using an address\r\n\tfunction random(address address1, uint size) private view returns (uint8) {\r\n\t\treturn uint8(uint256(keccak256(abi.encodePacked(block.timestamp, block.difficulty, address1, gasleft()))) % size);\r\n\t\t// return uint8(uint256(keccak256(abi.encodePacked(block.difficulty, block.coinbase, address1, gasleft()))) % size);\r\n\t}\r\n\r\n\t/*\r\n\tfunction check() private view {\r\n\t\t// require(VotingTokenCreated == voters.getValuesLength(), \"Have not created all the VotingTokens\");\r\n\t\tfor (uint i = 0; i < voters.getValuesLength(); i++) { // Goes through all voters\r\n\t\t\trequire(transactionDataSets[voters.getValue(i)].length > 0, \"New account has not shared data with all voters yet\");\r\n\t\t}\r\n\t} \r\n\t*/\r\n\r\n\tfunction getVoters() external view returns (address[] memory){\r\n\t\treturn voters.getValues();\r\n\t}\r\n\r\n\tfunction ContainsVoter(address _voter) external view returns (bool) {\r\n\t\treturn voters.contains(_voter);\r\n\t}\r\n}\r\n",
  "sourcePath": "C:\\Users\\m5w5b\\Desktop\\GitHub\\game-dapp\\AccountRecovery\\contracts\\Proposal.sol",
  "compiler": {
    "name": "solc",
    "version": "0.5.8+commit.23d335f2.Emscripten.clang"
  },
  "schemaVersion": "3.0.16",
  "updatedAt": "2019-11-06T18:46:06.796Z",
  "devdoc": {
    "methods": {}
  },
  "userdoc": {
    "methods": {}
  }
}