{
  "contractName": "Proposal",
  "abi": [
    {
      "constant": true,
      "inputs": [],
      "name": "lastOtherPartner",
      "outputs": [
        {
          "name": "",
          "type": "address"
        }
      ],
      "payable": false,
      "stateMutability": "view",
      "type": "function"
    },
    {
      "constant": true,
      "inputs": [],
      "name": "price",
      "outputs": [
        {
          "name": "",
          "type": "uint256"
        }
      ],
      "payable": false,
      "stateMutability": "view",
      "type": "function"
    },
    {
      "inputs": [
        {
          "name": "_oldAccount",
          "type": "address"
        },
        {
          "name": "_newAccount",
          "type": "address"
        },
        {
          "name": "_price",
          "type": "uint256"
        }
      ],
      "payable": false,
      "stateMutability": "nonpayable",
      "type": "constructor"
    },
    {
      "constant": false,
      "inputs": [
        {
          "name": "_newAccount",
          "type": "address"
        }
      ],
      "name": "Pay",
      "outputs": [],
      "payable": false,
      "stateMutability": "nonpayable",
      "type": "function"
    },
    {
      "constant": false,
      "inputs": [
        {
          "name": "_tradePartners",
          "type": "address[]"
        },
        {
          "name": "_archivedVoters",
          "type": "address[]"
        },
        {
          "name": "TMI",
          "type": "address"
        },
        {
          "name": "PMI",
          "type": "address"
        }
      ],
      "name": "AddTradePartners",
      "outputs": [],
      "payable": false,
      "stateMutability": "nonpayable",
      "type": "function"
    },
    {
      "constant": false,
      "inputs": [
        {
          "name": "_veto",
          "type": "bool"
        }
      ],
      "name": "RandomTradingPartner",
      "outputs": [],
      "payable": false,
      "stateMutability": "nonpayable",
      "type": "function"
    },
    {
      "constant": false,
      "inputs": [
        {
          "name": "_timeStamp",
          "type": "uint256"
        },
        {
          "name": "_voter",
          "type": "address"
        },
        {
          "name": "_amount",
          "type": "uint256"
        },
        {
          "name": "_description",
          "type": "string"
        },
        {
          "name": "_itemsInTrade",
          "type": "string"
        }
      ],
      "name": "AddTransactionDataSet",
      "outputs": [],
      "payable": false,
      "stateMutability": "nonpayable",
      "type": "function"
    },
    {
      "constant": true,
      "inputs": [
        {
          "name": "_voter",
          "type": "address"
        },
        {
          "name": "j",
          "type": "uint256"
        }
      ],
      "name": "ViewPublicInformation",
      "outputs": [
        {
          "name": "",
          "type": "uint256"
        },
        {
          "name": "",
          "type": "uint256"
        },
        {
          "name": "",
          "type": "address"
        },
        {
          "name": "",
          "type": "address"
        }
      ],
      "payable": false,
      "stateMutability": "view",
      "type": "function"
    },
    {
      "constant": true,
      "inputs": [
        {
          "name": "_voter",
          "type": "address"
        },
        {
          "name": "j",
          "type": "uint256"
        }
      ],
      "name": "ViewPrivateInformation",
      "outputs": [
        {
          "name": "",
          "type": "string"
        },
        {
          "name": "",
          "type": "string"
        }
      ],
      "payable": false,
      "stateMutability": "view",
      "type": "function"
    },
    {
      "constant": false,
      "inputs": [
        {
          "name": "_voter",
          "type": "address"
        },
        {
          "name": "choice",
          "type": "bool"
        }
      ],
      "name": "CastVote",
      "outputs": [],
      "payable": false,
      "stateMutability": "nonpayable",
      "type": "function"
    },
    {
      "constant": false,
      "inputs": [
        {
          "name": "UMI",
          "type": "address"
        }
      ],
      "name": "ConcludeAccountRecovery",
      "outputs": [
        {
          "name": "",
          "type": "int256"
        }
      ],
      "payable": false,
      "stateMutability": "nonpayable",
      "type": "function"
    },
    {
      "constant": true,
      "inputs": [],
      "name": "getVoters",
      "outputs": [
        {
          "name": "",
          "type": "address[]"
        }
      ],
      "payable": false,
      "stateMutability": "view",
      "type": "function"
    },
    {
      "constant": true,
      "inputs": [
        {
          "name": "_voter",
          "type": "address"
        }
      ],
      "name": "ContainsVoter",
      "outputs": [
        {
          "name": "",
          "type": "bool"
        }
      ],
      "payable": false,
      "stateMutability": "view",
      "type": "function"
    }
  ],
  "bytecode": "0x60806040526000600760006101000a81548173ffffffffffffffffffffffffffffffffffffffff021916908373ffffffffffffffffffffffffffffffffffffffff1602179055506000600a556000600c556000600d60006101000a81548160ff021916908360ff1602179055506003600d60016101000a81548160ff021916908360ff1602179055506000600d60026101000a81548160ff0219169083151502179055503480156100af57600080fd5b50604051606080613ac0833981018060405260608110156100cf57600080fd5b8101908080519060200190929190805190602001909291908051906020019092919050505082600860006101000a81548173ffffffffffffffffffffffffffffffffffffffff021916908373ffffffffffffffffffffffffffffffffffffffff16021790555081600960006101000a81548173ffffffffffffffffffffffffffffffffffffffff021916908373ffffffffffffffffffffffffffffffffffffffff16021790555080600b819055505050506139318061018f6000396000f3fe608060405234801561001057600080fd5b50600436106100b45760003560e01c8063cdd7225311610071578063cdd7225314610307578063cde596b214610366578063e628c2e0146103aa578063f91ac89914610479578063fa041dd7146105ac578063fac0328d146105fc576100b4565b80630d2cea2c146100b9578063137858a11461011157806319e5fba01461015b5780634f7ae4ae1461025d57806376a3fab6146102b9578063a035b1fe146102e9575b600080fd5b6100fb600480360360208110156100cf57600080fd5b81019080803573ffffffffffffffffffffffffffffffffffffffff16906020019092919050505061070a565b6040518082815260200191505060405180910390f35b610119611410565b604051808273ffffffffffffffffffffffffffffffffffffffff1673ffffffffffffffffffffffffffffffffffffffff16815260200191505060405180910390f35b61025b600480360360a081101561017157600080fd5b8101908080359060200190929190803573ffffffffffffffffffffffffffffffffffffffff16906020019092919080359060200190929190803590602001906401000000008111156101c257600080fd5b8201836020820111156101d457600080fd5b803590602001918460018302840111640100000000831117156101f657600080fd5b90919293919293908035906020019064010000000081111561021757600080fd5b82018360208201111561022957600080fd5b8035906020019184600183028401116401000000008311171561024b57600080fd5b9091929391929390505050611436565b005b61029f6004803603602081101561027357600080fd5b81019080803573ffffffffffffffffffffffffffffffffffffffff16906020019092919050505061194b565b604051808215151515815260200191505060405180910390f35b6102e7600480360360208110156102cf57600080fd5b81019080803515159060200190929190505050611a15565b005b6102f1612010565b6040518082815260200191505060405180910390f35b61030f612016565b6040518080602001828103825283818151815260200191508051906020019060200280838360005b83811015610352578082015181840152602081019050610337565b505050509050019250505060405180910390f35b6103a86004803603602081101561037c57600080fd5b81019080803573ffffffffffffffffffffffffffffffffffffffff169060200190929190505050612100565b005b6103f6600480360360408110156103c057600080fd5b81019080803573ffffffffffffffffffffffffffffffffffffffff16906020019092919080359060200190929190505050612266565b604051808581526020018481526020018373ffffffffffffffffffffffffffffffffffffffff1673ffffffffffffffffffffffffffffffffffffffff1681526020018273ffffffffffffffffffffffffffffffffffffffff1673ffffffffffffffffffffffffffffffffffffffff16815260200194505050505060405180910390f35b6104c56004803603604081101561048f57600080fd5b81019080803573ffffffffffffffffffffffffffffffffffffffff16906020019092919080359060200190929190505050612473565b604051808060200180602001838103835285818151815260200191508051906020019080838360005b838110156105095780820151818401526020810190506104ee565b50505050905090810190601f1680156105365780820380516001836020036101000a031916815260200191505b50838103825284818151815260200191508051906020019080838360005b8381101561056f578082015181840152602081019050610554565b50505050905090810190601f16801561059c5780820380516001836020036101000a031916815260200191505b5094505050505060405180910390f35b6105fa600480360360408110156105c257600080fd5b81019080803573ffffffffffffffffffffffffffffffffffffffff1690602001909291908035151590602001909291905050506126fe565b005b6107086004803603608081101561061257600080fd5b810190808035906020019064010000000081111561062f57600080fd5b82018360208201111561064157600080fd5b8035906020019184602083028401116401000000008311171561066357600080fd5b90919293919293908035906020019064010000000081111561068457600080fd5b82018360208201111561069657600080fd5b803590602001918460208302840111640100000000831117156106b857600080fd5b9091929391929390803573ffffffffffffffffffffffffffffffffffffffff169060200190929190803573ffffffffffffffffffffffffffffffffffffffff1690602001909291905050506128ab565b005b6000600273__Set___________________________________63ea70683890916040518263ffffffff1660e01b81526004018082815260200191505060206040518083038186803b15801561075e57600080fd5b505af4158015610772573d6000803e3d6000fd5b505050506040513d602081101561078857600080fd5b8101908080519060200190929190505050600d60009054906101000a900460ff1660ff1614610802576040517f08c379a000000000000000000000000000000000000000000000000000000000815260040180806020018281038252602581526020018061377c6025913960400191505060405180910390fd5b600c5442038273ffffffffffffffffffffffffffffffffffffffff16636f77926b600860009054906101000a900473ffffffffffffffffffffffffffffffffffffffff166040518263ffffffff1660e01b8152600401808273ffffffffffffffffffffffffffffffffffffffff1673ffffffffffffffffffffffffffffffffffffffff16815260200191505060206040518083038186803b1580156108a657600080fd5b505afa1580156108ba573d6000803e3d6000fd5b505050506040513d60208110156108d057600080fd5b810190808051906020019092919050505073ffffffffffffffffffffffffffffffffffffffff1663b7f688526040518163ffffffff1660e01b815260040160206040518083038186803b15801561092657600080fd5b505afa15801561093a573d6000803e3d6000fd5b505050506040513d602081101561095057600080fd5b8101908080519060200190929190505050111561098f577fffffffffffffffffffffffffffffffffffffffffffffffffffffffffffffffff905061140b565b60008090506000809050600080905060008090505b600273__Set___________________________________63ea70683890916040518263ffffffff1660e01b81526004018082815260200191505060206040518083038186803b1580156109f657600080fd5b505af4158015610a0a573d6000803e3d6000fd5b505050506040513d6020811015610a2057600080fd5b8101908080519060200190929190505050811015610e0f576000806000600273__Set___________________________________6344f7330d9091866040518363ffffffff1660e01b8152600401808381526020018281526020019250505060206040518083038186803b158015610a9757600080fd5b505af4158015610aab573d6000803e3d6000fd5b505050506040513d6020811015610ac157600080fd5b810190808051906020019092919050505073ffffffffffffffffffffffffffffffffffffffff1673ffffffffffffffffffffffffffffffffffffffff1681526020019081526020016000208054905011610b66576040517f08c379a00000000000000000000000000000000000000000000000000000000081526004018080602001828103825260248152602001806137c36024913960400191505060405180910390fd5b600060016000600273__Set___________________________________6344f7330d9091866040518363ffffffff1660e01b8152600401808381526020018281526020019250505060206040518083038186803b158015610bc657600080fd5b505af4158015610bda573d6000803e3d6000fd5b505050506040513d6020811015610bf057600080fd5b810190808051906020019092919050505073ffffffffffffffffffffffffffffffffffffffff1673ffffffffffffffffffffffffffffffffffffffff16815260200190815260200160002090508073__VotingToken___________________________63ffef631c90916040518263ffffffff1660e01b81526004018082815260200191505060206040518083038186803b158015610c8e57600080fd5b505af4158015610ca2573d6000803e3d6000fd5b505050506040513d6020811015610cb857600080fd5b8101908080519060200190929190505050830192508073__VotingToken___________________________63117d52aa90916040518263ffffffff1660e01b81526004018082815260200191505060206040518083038186803b158015610d1e57600080fd5b505af4158015610d32573d6000803e3d6000fd5b505050506040513d6020811015610d4857600080fd5b810190808051906020019092919050505015610e015784806001019550508073__VotingToken___________________________63fb84fe7b90916040518263ffffffff1660e01b81526004018082815260200191505060206040518083038186803b158015610db757600080fd5b505af4158015610dcb573d6000803e3d6000fd5b505050506040513d6020811015610de157600080fd5b810190808051906020019092919050505015610e005783806001019450505b5b5080806001019150506109a4565b506005831015610e5f576202a300600c5442031115610e3457603c935050505061140b565b7ffffffffffffffffffffffffffffffffffffffffffffffffffffffffffffffffe935050505061140b565b60006042848460640281610e6f57fe5b04101590506000600290506000600290506000600190506000878681610e9157fe5b04905060008090505b600273__Set___________________________________63ea70683890916040518263ffffffff1660e01b81526004018082815260200191505060206040518083038186803b158015610eec57600080fd5b505af4158015610f00573d6000803e3d6000fd5b505050506040513d6020811015610f1657600080fd5b81019080805190602001909291905050508110156113f257600060016000600273__Set___________________________________6344f7330d9091866040518363ffffffff1660e01b8152600401808381526020018281526020019250505060206040518083038186803b158015610f8e57600080fd5b505af4158015610fa2573d6000803e3d6000fd5b505050506040513d6020811015610fb857600080fd5b810190808051906020019092919050505073ffffffffffffffffffffffffffffffffffffffff1673ffffffffffffffffffffffffffffffffffffffff16815260200190815260200160002090508073__VotingToken___________________________63117d52aa90916040518263ffffffff1660e01b81526004018082815260200191505060206040518083038186803b15801561105657600080fd5b505af415801561106a573d6000803e3d6000fd5b505050506040513d602081101561108057600080fd5b8101908080519060200190929190505050156113e45760008a87600b54816110a457fe5b04816110ac57fe5b0490508173__VotingToken___________________________63fb84fe7b90916040518263ffffffff1660e01b81526004018082815260200191505060206040518083038186803b15801561110057600080fd5b505af4158015611114573d6000803e3d6000fd5b505050506040513d602081101561112a57600080fd5b81019080805190602001909291905050501515881515141561118757871561116a578986600b548161115857fe5b048161116057fe5b0481019050611186565b898b0386600b548161117857fe5b048161118057fe5b04810190505b5b848273__VotingToken___________________________63ffef631c90916040518263ffffffff1660e01b81526004018082815260200191505060206040518083038186803b1580156111d957600080fd5b505af41580156111ed573d6000803e3d6000fd5b505050506040513d602081101561120357600080fd5b810190808051906020019092919050505085038161121d57fe5b048101905060008111156113e2578c73ffffffffffffffffffffffffffffffffffffffff16636f77926b600273__Set___________________________________6344f7330d9091876040518363ffffffff1660e01b8152600401808381526020018281526020019250505060206040518083038186803b1580156112a157600080fd5b505af41580156112b5573d6000803e3d6000fd5b505050506040513d60208110156112cb57600080fd5b81019080805190602001909291905050506040518263ffffffff1660e01b8152600401808273ffffffffffffffffffffffffffffffffffffffff1673ffffffffffffffffffffffffffffffffffffffff16815260200191505060206040518083038186803b15801561133c57600080fd5b505afa158015611350573d6000803e3d6000fd5b505050506040513d602081101561136657600080fd5b810190808051906020019092919050505073ffffffffffffffffffffffffffffffffffffffff16633e4ccb40826040518263ffffffff1660e01b815260040180828152602001915050600060405180830381600087803b1580156113c957600080fd5b505af11580156113dd573d6000803e3d6000fd5b505050505b505b508080600101915050610e9a565b508787606402816113ff57fe5b04985050505050505050505b919050565b600760009054906101000a900473ffffffffffffffffffffffffffffffffffffffff1681565b60008060008873ffffffffffffffffffffffffffffffffffffffff1673ffffffffffffffffffffffffffffffffffffffff1681526020019081526020016000208054905014156116f757600d600081819054906101000a900460ff168092919060010191906101000a81548160ff021916908360ff160217905550506040518060a00160405280600860009054906101000a900473ffffffffffffffffffffffffffffffffffffffff1673ffffffffffffffffffffffffffffffffffffffff1681526020018773ffffffffffffffffffffffffffffffffffffffff1681526020016000815260200160001515815260200160001515815250600160008873ffffffffffffffffffffffffffffffffffffffff1673ffffffffffffffffffffffffffffffffffffffff16815260200190815260200160002060008201518160000160006101000a81548173ffffffffffffffffffffffffffffffffffffffff021916908373ffffffffffffffffffffffffffffffffffffffff16021790555060208201518160010160006101000a81548173ffffffffffffffffffffffffffffffffffffffff021916908373ffffffffffffffffffffffffffffffffffffffff1602179055506040820151816002015560608201518160030160006101000a81548160ff02191690831515021790555060808201518160030160016101000a81548160ff021916908315150217905550905050600273__Set___________________________________63ea70683890916040518263ffffffff1660e01b81526004018082815260200191505060206040518083038186803b15801561169a57600080fd5b505af41580156116ae573d6000803e3d6000fd5b505050506040513d60208110156116c457600080fd5b8101908080519060200190929190505050600d60009054906101000a900460ff1660ff1614156116f65742600c819055505b5b6000808773ffffffffffffffffffffffffffffffffffffffff1673ffffffffffffffffffffffffffffffffffffffff1681526020019081526020016000206040518060c0016040528086868080601f016020809104026020016040519081016040528093929190818152602001838380828437600081840152601f19601f82011690508083019250505050505050815260200184848080601f016020809104026020016040519081016040528093929190818152602001838380828437600081840152601f19601f820116905080830192505050505050508152602001600860009054906101000a900473ffffffffffffffffffffffffffffffffffffffff1673ffffffffffffffffffffffffffffffffffffffff1681526020018873ffffffffffffffffffffffffffffffffffffffff1681526020018981526020018781525090806001815401808255809150509060018203906000526020600020906006020160009091929091909150600082015181600001908051906020019061187f9291906136aa565b50602082015181600101908051906020019061189c9291906136aa565b5060408201518160020160006101000a81548173ffffffffffffffffffffffffffffffffffffffff021916908373ffffffffffffffffffffffffffffffffffffffff16021790555060608201518160030160006101000a81548173ffffffffffffffffffffffffffffffffffffffff021916908373ffffffffffffffffffffffffffffffffffffffff1602179055506080820151816004015560a0820151816005015550505050505050505050565b6000600273__Set___________________________________636aa90e979091846040518363ffffffff1660e01b8152600401808381526020018273ffffffffffffffffffffffffffffffffffffffff1673ffffffffffffffffffffffffffffffffffffffff1681526020019250505060206040518083038186803b1580156119d357600080fd5b505af41580156119e7573d6000803e3d6000fd5b505050506040513d60208110156119fd57600080fd5b81019080805190602001909291905050509050919050565b80611c6357600273__Set___________________________________636aa90e979091600760009054906101000a900473ffffffffffffffffffffffffffffffffffffffff166040518363ffffffff1660e01b8152600401808381526020018273ffffffffffffffffffffffffffffffffffffffff1673ffffffffffffffffffffffffffffffffffffffff1681526020019250505060206040518083038186803b158015611ac257600080fd5b505af4158015611ad6573d6000803e3d6000fd5b505050506040513d6020811015611aec57600080fd5b810190808051906020019092919050505015611b70576040517f08c379a000000000000000000000000000000000000000000000000000000000815260040180806020018281038252601a8152602001807f416c72656164792061646465642074686174206164647265737300000000000081525060200191505060405180910390fd5b600d600181819054906101000a900460ff168092919060010191906101000a81548160ff021916908360ff16021790555050600273__Set___________________________________633c2580489091600760009054906101000a900473ffffffffffffffffffffffffffffffffffffffff166040518363ffffffff1660e01b8152600401808381526020018273ffffffffffffffffffffffffffffffffffffffff1673ffffffffffffffffffffffffffffffffffffffff1681526020019250505060006040518083038186803b158015611c4a57600080fd5b505af4158015611c5e573d6000803e3d6000fd5b505050505b600a54600273__Set___________________________________63ea70683890916040518263ffffffff1660e01b81526004018082815260200191505060206040518083038186803b158015611cb857600080fd5b505af4158015611ccc573d6000803e3d6000fd5b505050506040513d6020811015611ce257600080fd5b81019080805190602001909291905050501461200d576000600a5411611d53576040517f08c379a00000000000000000000000000000000000000000000000000000000081526004018080602001828103825260378152602001806138146037913960400191505060405180910390fd5b6000600d60019054906101000a900460ff1660ff1611611dbe576040517f08c379a00000000000000000000000000000000000000000000000000000000081526004018080602001828103825260238152602001806138726023913960400191505060405180910390fd5b600060068054905011611e1c576040517f08c379a00000000000000000000000000000000000000000000000000000000081526004018080602001828103825260478152602001806138956047913960600191505060405180910390fd5b600d600181819054906101000a900460ff16809291906001900391906101000a81548160ff021916908360ff160217905550506000611e82600760009054906101000a900473ffffffffffffffffffffffffffffffffffffffff16600680549050613626565b60ff16905060068181548110611e9457fe5b9060005260206000200160009054906101000a900473ffffffffffffffffffffffffffffffffffffffff16600760006101000a81548173ffffffffffffffffffffffffffffffffffffffff021916908373ffffffffffffffffffffffffffffffffffffffff16021790555060008190505b600160068054905003811015611fb25760066001820181548110611f2557fe5b9060005260206000200160009054906101000a900473ffffffffffffffffffffffffffffffffffffffff1660068281548110611f5d57fe5b9060005260206000200160006101000a81548173ffffffffffffffffffffffffffffffffffffffff021916908373ffffffffffffffffffffffffffffffffffffffff1602179055508080600101915050611f05565b50600660016006805490500381548110611fc857fe5b9060005260206000200160006101000a81549073ffffffffffffffffffffffffffffffffffffffff0219169055600680548091906001900361200a919061372a565b50505b50565b600b5481565b6060600273__Set___________________________________639fa87cd190916040518263ffffffff1660e01b81526004018082815260200191505060006040518083038186803b15801561206a57600080fd5b505af415801561207e573d6000803e3d6000fd5b505050506040513d6000823e3d601f19601f8201168201806040525060208110156120a857600080fd5b8101908080516401000000008111156120c057600080fd5b828101905060208101848111156120d657600080fd5b81518560208202830111640100000000821117156120f357600080fd5b5050929190505050905090565b600b548173ffffffffffffffffffffffffffffffffffffffff1663b69ef8a86040518163ffffffff1660e01b815260040160206040518083038186803b15801561214957600080fd5b505afa15801561215d573d6000803e3d6000fd5b505050506040513d602081101561217357600080fd5b810190808051906020019092919050505010156121db576040517f08c379a00000000000000000000000000000000000000000000000000000000081526004018080602001828103825260228152602001806137a16022913960400191505060405180910390fd5b8073ffffffffffffffffffffffffffffffffffffffff1663392aee43600b546040518263ffffffff1660e01b815260040180828152602001915050600060405180830381600087803b15801561223057600080fd5b505af1158015612244573d6000803e3d6000fd5b505050506001600d60026101000a81548160ff02191690831515021790555050565b600080600080600273__Set___________________________________63ea70683890916040518263ffffffff1660e01b81526004018082815260200191505060206040518083038186803b1580156122be57600080fd5b505af41580156122d2573d6000803e3d6000fd5b505050506040513d60208110156122e857600080fd5b8101908080519060200190929190505050600d60009054906101000a900460ff1660ff1614612362576040517f08c379a000000000000000000000000000000000000000000000000000000000815260040180806020018281038252602581526020018061377c6025913960400191505060405180910390fd5b6000808773ffffffffffffffffffffffffffffffffffffffff1673ffffffffffffffffffffffffffffffffffffffff16815260200190815260200160002085815481106123ab57fe5b906000526020600020906006020173__TransactionDataSet____________________63b18e919690916040518263ffffffff1660e01b81526004018082815260200191505060806040518083038186803b15801561240957600080fd5b505af415801561241d573d6000803e3d6000fd5b505050506040513d608081101561243357600080fd5b8101908080519060200190929190805190602001909291908051906020019092919080519060200190929190505050935093509350935092959194509250565b606080600273__Set___________________________________63ea70683890916040518263ffffffff1660e01b81526004018082815260200191505060206040518083038186803b1580156124c857600080fd5b505af41580156124dc573d6000803e3d6000fd5b505050506040513d60208110156124f257600080fd5b8101908080519060200190929190505050600d60009054906101000a900460ff1660ff161461256c576040517f08c379a000000000000000000000000000000000000000000000000000000000815260040180806020018281038252602581526020018061377c6025913960400191505060405180910390fd5b6000808573ffffffffffffffffffffffffffffffffffffffff1673ffffffffffffffffffffffffffffffffffffffff16815260200190815260200160002083815481106125b557fe5b906000526020600020906006020173__TransactionDataSet____________________63c233d7e890916040518263ffffffff1660e01b81526004018082815260200191505060006040518083038186803b15801561261357600080fd5b505af4158015612627573d6000803e3d6000fd5b505050506040513d6000823e3d601f19601f82011682018060405250604081101561265157600080fd5b81019080805164010000000081111561266957600080fd5b8281019050602081018481111561267f57600080fd5b815185600182028301116401000000008211171561269c57600080fd5b505092919060200180516401000000008111156126b857600080fd5b828101905060208101848111156126ce57600080fd5b81518560018202830111640100000000821117156126eb57600080fd5b5050929190505050915091509250929050565b600273__Set___________________________________63ea70683890916040518263ffffffff1660e01b81526004018082815260200191505060206040518083038186803b15801561275057600080fd5b505af4158015612764573d6000803e3d6000fd5b505050506040513d602081101561277a57600080fd5b8101908080519060200190929190505050600d60009054906101000a900460ff1660ff16146127f4576040517f08c379a000000000000000000000000000000000000000000000000000000000815260040180806020018281038252602581526020018061377c6025913960400191505060405180910390fd5b600160008373ffffffffffffffffffffffffffffffffffffffff1673ffffffffffffffffffffffffffffffffffffffff16815260200190815260200160002073__VotingToken___________________________632bf6c95f9091836040518363ffffffff1660e01b815260040180838152602001821515151581526020019250505060006040518083038186803b15801561288f57600080fd5b505af41580156128a3573d6000803e3d6000fd5b505050505050565b60011515600d60029054906101000a900460ff16151514612917576040517f08c379a000000000000000000000000000000000000000000000000000000000815260040180806020018281038252602781526020018061384b6027913960400191505060405180910390fd5b60008090505b848490508110156129fb57600473__Set___________________________________633c258048909187878581811061295257fe5b9050602002013573ffffffffffffffffffffffffffffffffffffffff166040518363ffffffff1660e01b8152600401808381526020018273ffffffffffffffffffffffffffffffffffffffff1673ffffffffffffffffffffffffffffffffffffffff1681526020019250505060006040518083038186803b1580156129d657600080fd5b505af41580156129ea573d6000803e3d6000fd5b50505050808060010191505061291d565b5060008090505b86869050811015612ecc57868682818110612a1957fe5b9050602002013573ffffffffffffffffffffffffffffffffffffffff1673ffffffffffffffffffffffffffffffffffffffff16600960009054906101000a900473ffffffffffffffffffffffffffffffffffffffff1673ffffffffffffffffffffffffffffffffffffffff1614612ebf578173ffffffffffffffffffffffffffffffffffffffff1663331c4bed888884818110612ab257fe5b9050602002013573ffffffffffffffffffffffffffffffffffffffff16898985818110612adb57fe5b9050602002013573ffffffffffffffffffffffffffffffffffffffff166040518363ffffffff1660e01b8152600401808373ffffffffffffffffffffffffffffffffffffffff1673ffffffffffffffffffffffffffffffffffffffff1681526020018273ffffffffffffffffffffffffffffffffffffffff1673ffffffffffffffffffffffffffffffffffffffff1681526020019250505060206040518083038186803b158015612b8b57600080fd5b505afa158015612b9f573d6000803e3d6000fd5b505050506040513d6020811015612bb557600080fd5b8101908080519060200190929190505050612ebe5760008373ffffffffffffffffffffffffffffffffffffffff166314ee741f600860009054906101000a900473ffffffffffffffffffffffffffffffffffffffff168a8a86818110612c1757fe5b9050602002013573ffffffffffffffffffffffffffffffffffffffff166040518363ffffffff1660e01b8152600401808373ffffffffffffffffffffffffffffffffffffffff1673ffffffffffffffffffffffffffffffffffffffff1681526020018273ffffffffffffffffffffffffffffffffffffffff1673ffffffffffffffffffffffffffffffffffffffff1681526020019250505060206040518083038186803b158015612cc757600080fd5b505afa158015612cdb573d6000803e3d6000fd5b505050506040513d6020811015612cf157600080fd5b81019080805190602001909291905050501115612ebd57600473__Set___________________________________636aa90e979091898985818110612d3257fe5b9050602002013573ffffffffffffffffffffffffffffffffffffffff166040518363ffffffff1660e01b8152600401808381526020018273ffffffffffffffffffffffffffffffffffffffff1673ffffffffffffffffffffffffffffffffffffffff1681526020019250505060206040518083038186803b158015612db657600080fd5b505af4158015612dca573d6000803e3d6000fd5b505050506040513d6020811015612de057600080fd5b8101908080519060200190929190505050612ebc57600273__Set___________________________________633c2580489091898985818110612e1f57fe5b9050602002013573ffffffffffffffffffffffffffffffffffffffff166040518363ffffffff1660e01b8152600401808381526020018273ffffffffffffffffffffffffffffffffffffffff1673ffffffffffffffffffffffffffffffffffffffff1681526020019250505060006040518083038186803b158015612ea357600080fd5b505af4158015612eb7573d6000803e3d6000fd5b505050505b5b5b5b8080600101915050612a02565b506003600273__Set___________________________________63ea70683890916040518263ffffffff1660e01b81526004018082815260200191505060206040518083038186803b158015612f2157600080fd5b505af4158015612f35573d6000803e3d6000fd5b505050506040513d6020811015612f4b57600080fd5b81019080805190602001909291905050501015612fb3576040517f08c379a000000000000000000000000000000000000000000000000000000000815260040180806020018281038252602a8152602001806138dc602a913960400191505060405180910390fd5b6003600273__Set___________________________________63ea70683890916040518263ffffffff1660e01b81526004018082815260200191505060206040518083038186803b15801561300757600080fd5b505af415801561301b573d6000803e3d6000fd5b505050506040513d602081101561303157600080fd5b810190808051906020019092919050505087879050031061309d576040517f08c379a000000000000000000000000000000000000000000000000000000000815260040180806020018281038252602d8152602001806137e7602d913960400191505060405180910390fd5b60028073__Set___________________________________63ea70683890916040518263ffffffff1660e01b81526004018082815260200191505060206040518083038186803b1580156130f057600080fd5b505af4158015613104573d6000803e3d6000fd5b505050506040513d602081101561311a57600080fd5b810190808051906020019092919050505002600a8190555060608273ffffffffffffffffffffffffffffffffffffffff1663d2aeb0d2600860009054906101000a900473ffffffffffffffffffffffffffffffffffffffff16600960009054906101000a900473ffffffffffffffffffffffffffffffffffffffff166040518363ffffffff1660e01b8152600401808373ffffffffffffffffffffffffffffffffffffffff1673ffffffffffffffffffffffffffffffffffffffff1681526020018273ffffffffffffffffffffffffffffffffffffffff1673ffffffffffffffffffffffffffffffffffffffff16815260200192505050600060405180830381600087803b15801561322b57600080fd5b505af115801561323f573d6000803e3d6000fd5b505050506040513d6000823e3d601f19601f82011682018060405250602081101561326957600080fd5b81019080805164010000000081111561328157600080fd5b8281019050602081018481111561329757600080fd5b81518560208202830111640100000000821117156132b457600080fd5b5050929190505050905060008090505b815181101561350b57600273__Set___________________________________636aa90e9790918484815181106132f757fe5b60200260200101516040518363ffffffff1660e01b8152600401808381526020018273ffffffffffffffffffffffffffffffffffffffff1673ffffffffffffffffffffffffffffffffffffffff1681526020019250505060206040518083038186803b15801561336657600080fd5b505af415801561337a573d6000803e3d6000fd5b505050506040513d602081101561339057600080fd5b810190808051906020019092919050505015801561347f5750600473__Set___________________________________636aa90e9790918484815181106133d357fe5b60200260200101516040518363ffffffff1660e01b8152600401808381526020018273ffffffffffffffffffffffffffffffffffffffff1673ffffffffffffffffffffffffffffffffffffffff1681526020019250505060206040518083038186803b15801561344257600080fd5b505af4158015613456573d6000803e3d6000fd5b505050506040513d602081101561346c57600080fd5b8101908080519060200190929190505050155b156134fe57600682828151811061349257fe5b602002602001015190806001815401808255809150509060018203906000526020600020016000909192909190916101000a81548173ffffffffffffffffffffffffffffffffffffffff021916908373ffffffffffffffffffffffffffffffffffffffff160217905550505b80806001019150506132c4565b50600273__Set___________________________________63ea70683890916040518263ffffffff1660e01b81526004018082815260200191505060206040518083038186803b15801561355e57600080fd5b505af4158015613572573d6000803e3d6000fd5b505050506040513d602081101561358857600080fd5b81019080805190602001909291905050506006805490501015613613576040517f08c379a00000000000000000000000000000000000000000000000000000000081526004018080602001828103825260208152602001807f496e76616c6964204e756d626572206f6620686176655472616465645769746881525060200191505060405180910390fd5b61361d6001611a15565b50505050505050565b6000814244855a604051602001808581526020018481526020018373ffffffffffffffffffffffffffffffffffffffff1673ffffffffffffffffffffffffffffffffffffffff1660601b81526014018281526020019450505050506040516020818303038152906040528051906020012060001c816136a157fe5b06905092915050565b828054600181600116156101000203166002900490600052602060002090601f016020900481019282601f106136eb57805160ff1916838001178555613719565b82800160010185558215613719579182015b828111156137185782518255916020019190600101906136fd565b5b5090506137269190613756565b5090565b815481835581811115613751578183600052602060002091820191016137509190613756565b5b505050565b61377891905b8082111561377457600081600090555060010161375c565b5090565b9056fe48617665206e6f74206372656174656420616c6c2074686520566f74696e67546f6b656e734e6f7420456e6f7567682066756e647320666f7220746869732050726f706f73616c5468657265206973206e6f207472616e73616374696f6e206461746120746f2076696577596f7520696e6469636174656420746f30206d616e7920696e76616c696420747261646520706172746e657273547261646520706172746e6572732068617665206e6f74206265656e20616464656420746f2074686973207965742070726f706f73616c546869732070726f706f73616c20686173206e6f74206265656e207061696420666f722079657443616e206e6f74207665746f20616e79206d6f72652072616e646f6d20766f7465727343616e206e6f74207665746f207468697320766f7465722062656361757365207468657265206973206e6f7420656e6f75676820747261646520706172746e657273206c656674496e76616c6964204e756d626572206f6620696e6469636174656420747261646520706172746e657273a165627a7a723058200608c847efa72bf0d7e009a75f2ec85ed0863f5985802b79debb66c506e279410029",
  "source": "/* Proposal.sol */\r\n\r\npragma solidity >=0.4.0 <0.7.0;\r\n\r\nimport \"../contracts/Person.sol\";\r\nimport \"../contracts/UserManager.sol\";\r\n\r\nimport \"../contracts/Set.sol\";\r\nimport \"../contracts/VotingToken.sol\";\r\nimport \"../contracts/TransactionDataSet.sol\";\r\n\r\n/* <Summary> \r\n\tThis contract manages one active proposal: Casts Votes, Tallies votes, give rewards\r\n*/\r\n\r\ncontract Proposal {\r\n\tusing Set for Set.AddressData;\r\n\tusing VotingToken for VotingToken.Token;\r\n\tusing TransactionDataSet for TransactionDataSet.DataSet;\r\n\r\n\t/*\r\n\tstruct VotingTokenPair {\r\n\t\tVotingToken.Token token;\r\n\t\tbool exists;\r\n\t}\r\n\t*/\r\n\r\n\tmapping (address => TransactionDataSet.DataSet[]) transactionDataSets; // Map of active proposals\r\n\r\n\tmapping (address => VotingToken.Token) votingtokens;\t\t// Active Voting Tokens\r\n\tSet.AddressData voters;\t\t\t\t\t\t\t\t\t// Addresses who are eligible to vote\r\n\tSet.AddressData archivedVoters;\r\n\r\n\taddress[] haveTradedWith;\r\n\r\n\taddress public lastOtherPartner = 0x0000000000000000000000000000000000000000;\r\n\taddress oldAccount;\t\t\t\t\t\t\t\t\t// Address of the old account\r\n\taddress newAccount;\t\t\t\t\t\t\t// Address of the new account\r\n\t\r\n\tuint numberOfVoters = 0;\r\n\tuint public price;\t\t\t\t\t\t\t\t\t// Price of the account recovery\r\n\tuint startTime = 0;\r\n\tuint8 transactionDataSetsCreated = 0;\t\t\t\t\t\t// Number of Voting tokens created\r\n\tuint8 randomVoterVetos = 3;\r\n\tbool paided = false;\r\n\r\n\r\n\tconstructor(address _oldAccount, address _newAccount, uint _price) public {\r\n\t\t// Set variable\r\n\t\toldAccount = _oldAccount;\r\n\t\tnewAccount = _newAccount;\r\n\t\t\r\n\t\tprice = _price;\r\n\t}\r\n\r\n\tfunction Pay(Person _newAccount) external {\r\n\t\trequire(_newAccount.balance() >= price, \"Not Enough funds for this Proposal\");\r\n\t\t_newAccount.decreaseBalance(price);\t\t\t// Removes money from the new account\r\n\t\tpaided = true;\t\t\t\t\t\t\t\t// The proposal has been paid for\r\n\t}\r\n\r\n\tfunction AddTradePartners(address[] calldata _tradePartners, address[] calldata _archivedVoters, TransactionManager TMI, ProposalManager PMI) external {\r\n\t\trequire(paided == true, \"This proposal has not been paid for yet\");\r\n\r\n\t\tfor (uint i = 0; i < _archivedVoters.length; i++){\r\n\t\t\tarchivedVoters.insert(_archivedVoters[i]);\r\n\t\t}\r\n\r\n\t\tfor (uint i = 0; i < _tradePartners.length; i++){\t// For each partner\r\n\t\t\tif (newAccount != _tradePartners[i]){\t\t\t// The new account can not be a voter\r\n\t\t\t\tif (!PMI.getBlacklistedAccount(_tradePartners[i], _tradePartners[i])){\r\n\t\t\t\t\t// They have made a transaction with the old account\r\n\t\t\t\t\tif (TMI.NumberOfTransactions(oldAccount, _tradePartners[i]) > 0){\r\n\t\t\t\t\t\tif (!archivedVoters.contains(_tradePartners[i])){\t\t\t// This address is not already a voter\r\n\t\t\t\t\t\t\tvoters.insert(_tradePartners[i]);\r\n\t\t\t\t\t\t}\r\n\t\t\t\t\t}\r\n\t\t\t\t}\r\n\t\t\t}\r\n\t\t}\r\n\t\trequire(voters.getValuesLength() >= 3, \"Invalid Number of indicated trade partners\");\r\n\t\trequire(_tradePartners.length - voters.getValuesLength() < 3, \"You indicated to0 many invalid trade partners\");\r\n\t\tnumberOfVoters = voters.getValuesLength() * 2;\r\n\r\n\t\taddress[] memory _haveTradedWith = TMI.getHaveTradedWith(oldAccount, newAccount);\r\n\r\n\t\tfor (uint i = 0; i < _haveTradedWith.length; i++){\t\t\t\t\t// For each address\r\n\t\t\tif (!voters.contains(_haveTradedWith[i]) && !archivedVoters.contains(_haveTradedWith[i]) ){\t\t\t// This address is not already a voter\r\n\t\t\t\thaveTradedWith.push(_haveTradedWith[i]);\t\t\t\t// This address is an eligible voter\r\n\t\t\t}\r\n\t\t}\r\n\t\trequire(haveTradedWith.length >= voters.getValuesLength(), \"Invalid Number of haveTradedWith\");\r\n\t\tRandomTradingPartner(true);\r\n\t}\r\n\r\n\tfunction RandomTradingPartner(bool _veto) public {\r\n\t\tif (!_veto){\r\n\t\t\trequire(!voters.contains(lastOtherPartner), \"Already added that address\");\r\n\t\t\trandomVoterVetos++;\r\n\t\t\tvoters.insert(lastOtherPartner);\r\n\t\t}\r\n\r\n\t\tif (voters.getValuesLength() != numberOfVoters){\r\n\t\t\trequire(numberOfVoters > 0, \"Trade partners have not been added to this yet proposal\");\r\n\t\t\trequire(randomVoterVetos > 0, \"Can not veto any more random voters\");\r\n\t\t\trequire(haveTradedWith.length > 0, \"Can not veto this voter because there is not enough trade partners left\");\r\n\r\n\t\t\trandomVoterVetos--;\r\n\t\t\tuint index = random(lastOtherPartner, haveTradedWith.length);\t\t\t// Find random value\r\n\t\t\t\t\t\r\n\t\t\tlastOtherPartner = haveTradedWith[index];\r\n\r\n\t\t\tfor (uint i = index; i < haveTradedWith.length - 1; i++){\r\n\t\t\t\thaveTradedWith[i] = haveTradedWith[i+1];\r\n\t\t\t}\r\n\t\t\tdelete haveTradedWith[haveTradedWith.length-1];\r\n\t\t\thaveTradedWith.length--;\r\n\t\t}\r\n\t}\r\n\r\n\t/*\r\n\t// Make Voting Tokens\r\n\tfunction MakeVotingToken(address _oldAccount, address _voter) external {\r\n\t\trequire(voters.getValuesLength() == numberOfVoters, \"Trade partners have not been added to this yet proposal\");\r\n\t\t// require(!votingtokens[_voter].exists, \"This voter already has a voting token\");\r\n\r\n\t\tVotingTokenPair memory temp;\r\n\t\ttemp.token = VotingToken.Token(_oldAccount, _voter, 0, false, false);\r\n\t\ttemp.exists = true;\r\n\t\tvotingtokens[_voter] = temp;\r\n\t}\r\n\t*/\r\n\r\n\t/*\r\n\t// Make Voting Tokens\r\n\tfunction MakeVotingToken(address _oldAccount) external {\r\n\t\trequire(voters.getValuesLength() == numberOfVoters, \"Trade partners have not been added to this yet proposal\");\r\n\t\tfor (uint i = 0; i < voters.getValuesLength(); i++) { // Goes through all voters\r\n\t\t\tVotingTokenPair memory temp;\r\n\t\t\ttemp.token = VotingToken.Token(_oldAccount, _voter, 0, false, false);\r\n\t\t\ttemp.exists = true;\r\n\t\t\tvotingtokens[voters.getValue(i)] = temp;\r\n\t\t}\r\n\t}\r\n\t*/\r\n\r\n\t// Add set of data for a give transaction for a give voter\r\n\tfunction AddTransactionDataSet(uint _timeStamp, address _voter, uint _amount, \r\n\t\tstring calldata _description, string calldata _itemsInTrade) external {\r\n\r\n\t\t// require(votingtokens[_voter].exists, \"Need to create a voting token for this voter first\");\r\n\r\n\t\tif (transactionDataSets[_voter].length == 0){\r\n\t\t\ttransactionDataSetsCreated++;\t\t\t// Incroment the number of voting tokens created\r\n\r\n\t\t\tvotingtokens[_voter] = VotingToken.Token(oldAccount, _voter, 0, false, false);\r\n\r\n\r\n\t\t\tif (transactionDataSetsCreated == voters.getValuesLength()){\r\n\t\t\t\tstartTime = block.timestamp;\r\n\t\t\t}\r\n\t\t}\r\n\r\n\t\ttransactionDataSets[_voter].push(TransactionDataSet.DataSet(_description, _itemsInTrade, oldAccount, _voter, _timeStamp, _amount));\r\n\t}\r\n\r\n\r\n\r\n\r\n\r\n\r\n\t// View public information on a set of data for a transaction\r\n\tfunction ViewPublicInformation( address _voter, uint j) external view returns (uint, uint, address, address) {\r\n\t\trequire(transactionDataSetsCreated == voters.getValuesLength(), \"Have not created all the VotingTokens\");\r\n\t\treturn transactionDataSets[_voter][j].ViewPublicInformation();\r\n\t}\r\n\r\n\t// View private information on a set of data for a transaction\r\n\tfunction ViewPrivateInformation( address _voter, uint j) external view returns (string memory, string memory) {\r\n\t\trequire(transactionDataSetsCreated == voters.getValuesLength(), \"Have not created all the VotingTokens\");\r\n\t\treturn transactionDataSets[_voter][j].ViewPrivateInformation();\r\n\t}\r\n\r\n\t// Casts a vote\r\n\tfunction CastVote(address _voter, bool choice) external {\r\n\t\trequire(transactionDataSetsCreated == voters.getValuesLength(), \"Have not created all the VotingTokens\");\r\n\t\tvotingtokens[_voter].CastVote(choice);\r\n\t}\r\n\r\n\t// Give rewards to voters and return outcome of vote\r\n\tfunction ConcludeAccountRecovery(UserManager UMI) external returns (int){\r\n\t\trequire(transactionDataSetsCreated == voters.getValuesLength(), \"Have not created all the VotingTokens\");\r\n\r\n\t\tif (UMI.getUser(oldAccount).vetoTime() > block.timestamp - startTime){\r\n\t\t\treturn -1;\r\n\t\t}\r\n\r\n\t\tuint total = 0;\t\t\t\t\t\t\t// Total number of votes\r\n\t\tuint yeses = 0;\t\t\t\t\t\t\t// Total number of yesses\r\n\r\n\t\tuint totalTimeToVote = 0;\r\n\r\n\t\tfor (uint i = 0; i < voters.getValuesLength(); i++) { // Goes through all voters\r\n\t\t\trequire(transactionDataSets[voters.getValue(i)].length > 0, \"There is no transaction data to view\");\r\n\t\t\tVotingToken.Token storage temp = votingtokens[voters.getValue(i)];\r\n\t\t\ttotalTimeToVote += temp.getVotedTime();\r\n\t\t\tif (temp.getVoted()){\t\t\t\t// They are a voter and they voted\r\n\t\t\t\ttotal++;\t\t\t\t\t\t// Incroment the total number of votes\r\n\t\t\t\tif (temp.getVote()){ \t\t\t// They are a voter and they voted yes\r\n\t\t\t\t\tyeses++;\t\t\t\t\t// Incroment the number of yesses\r\n\t\t\t\t}\r\n\t\t\t}\r\n\t\t}\r\n\r\n\t\tif (total < 5){\r\n\t\t\tif (block.timestamp - startTime > 172800){\r\n\t\t\t\treturn 60;\r\n\t\t\t}\r\n\t\t\treturn -2;\r\n\t\t}\r\n\r\n\t\tbool outcome = (100*yeses) / total >= 66;\t\t\t// The outcome of the vote\r\n\r\n\t\tuint participationFactor = 2;\r\n\t\tuint correctionFactor = 2;\r\n\t\tuint timeFactor = 1;\r\n\r\n\t\tuint averageTimeToVote = totalTimeToVote / total;\r\n\r\n\t\tfor (uint i = 0; i < voters.getValuesLength(); i++) { \t// Goes through all voters\r\n\t\t\tVotingToken.Token storage temp = votingtokens[voters.getValue(i)];\r\n\t\t\tif (temp.getVoted()){\t\t\t\t\t\t\t// They are a voter and they voted\r\n\t\t\t\tuint amount = (price / participationFactor) / total;\t\t\t// Reward for participating \r\n\r\n\t\t\t\tif (outcome == temp.getVote()){\r\n\t\t\t\t\tif (outcome){\r\n\t\t\t\t\t\tamount += (price / correctionFactor) / yeses;\t\t\t\t// Reward for voting correctly \r\n\t\t\t\t\t}else{\r\n\t\t\t\t\t\tamount += (price / correctionFactor) / (total-yeses);\t\t// Reward for voting correctly\r\n\t\t\t\t\t}\r\n\t\t\t\t}\r\n\r\n\t\t\t\tamount += (averageTimeToVote - temp.getVotedTime()) / timeFactor;\r\n\r\n\t\t\t\tif (amount > 0){\r\n\t\t\t\t\tUMI.getUser(voters.getValue(i)).increaseBalance(amount);\t// Increases balance\r\n\t\t\t\t}\r\n\t\t\t}\r\n\t\t}\r\n\t\treturn int((100*yeses) / total);\t\t\t\t\t\t\t\t\t\t// Return outcome of vote\r\n\t}\r\n\r\n\t// Generate random number using an address\r\n\tfunction random(address address1, uint size) private view returns (uint8) {\r\n\t\treturn uint8(uint256(keccak256(abi.encodePacked(block.timestamp, block.difficulty, address1, gasleft()))) % size);\r\n\t\t// return uint8(uint256(keccak256(abi.encodePacked(block.difficulty, block.coinbase, address1, gasleft()))) % size);\r\n\t}\r\n\r\n\tfunction getVoters() external view returns (address[] memory){\r\n\t\treturn voters.getValues();\r\n\t}\r\n\r\n\tfunction ContainsVoter(address _voter) external view returns (bool) {\r\n\t\treturn voters.contains(_voter);\r\n\t}\r\n}\r\n",
  "sourcePath": "C:\\Users\\m5w5b\\Desktop\\GitHub\\game-dapp\\AccountRecovery\\contracts\\Proposal.sol",
  "compiler": {
    "name": "solc",
    "version": "0.5.8+commit.23d335f2.Emscripten.clang"
  },
  "schemaVersion": "3.0.16",
  "updatedAt": "2019-11-06T19:50:35.659Z",
  "devdoc": {
    "methods": {}
  },
  "userdoc": {
    "methods": {}
  }
}