{
  "contractName": "ProsoalManager",
  "abi": [
    {
      "inputs": [
        {
          "name": "_UserManagerInstance",
          "type": "address"
        },
        {
          "name": "_TransactionManagerInstance",
          "type": "address"
        }
      ],
      "payable": false,
      "stateMutability": "nonpayable",
      "type": "constructor"
    },
    {
      "constant": false,
      "inputs": [
        {
          "name": "_oldAccount",
          "type": "address"
        }
      ],
      "name": "MakeProposal",
      "outputs": [],
      "payable": false,
      "stateMutability": "nonpayable",
      "type": "function"
    }
  ],
  "bytecode": "0x608060405234801561001057600080fd5b5060405160408061017a8339810180604052604081101561003057600080fd5b81019080805190602001909291908051906020019092919050505081600160006101000a81548173ffffffffffffffffffffffffffffffffffffffff021916908373ffffffffffffffffffffffffffffffffffffffff16021790555080600260006101000a81548173ffffffffffffffffffffffffffffffffffffffff021916908373ffffffffffffffffffffffffffffffffffffffff1602179055505050609d806100dd6000396000f3fe6080604052348015600f57600080fd5b506004361060285760003560e01c8063afdf038114602d575b600080fd5b606c60048036036020811015604157600080fd5b81019080803573ffffffffffffffffffffffffffffffffffffffff169060200190929190505050606e565b005b5056fea165627a7a7230582053815b06a13bad59c4438b0987c984b9dc9b215018b09eb856c1cf1591f573800029",
  "source": "pragma solidity >=0.4.0 <0.7.0;\r\n\r\nimport \"../contracts/Person.sol\";\r\nimport \"../contracts/VotingToken.sol\";\r\n\r\nimport \"../contracts/UserManager.sol\";\r\nimport \"../contracts/TransactionManager.sol\";\r\n\r\ncontract ProsoalManager {\r\n\r\n\taddress[] voters;\r\n\tUserManager UserManagerInstance;\r\n\tTransactionManager TransactionManagerInstance;\r\n\t// mapping (address => mapping (address => VotingToken) ) transactions;\r\n\r\n\tconstructor(UserManager _UserManagerInstance, TransactionManager _TransactionManagerInstance) public {\r\n\t\tUserManagerInstance = _UserManagerInstance;\r\n\t\tTransactionManagerInstance = _TransactionManagerInstance;\r\n\t}\r\n\t\r\n\r\n\tfunction MakeProposal(address _oldAccount) public {\r\n\r\n\t\t// Person newAccount = Users[msg.sender];\r\n\t\t// Person oldAccount = Users[_oldAccount];\r\n\r\n\t\t/*\r\n\t\tfor (uint i = 0; i < addresses.length; i++){\r\n\t\t\tif (transactions[_oldAccount][addresses[i]].length > 0){\r\n\t\t\t\tvoters.push(addresses[i]);\r\n\t\t\t}\r\n\t\t}\r\n\t\tif (voters.length >= 3){\r\n\t\t\tVotingToken temp = new VotingToken(voters, _oldAccount, msg.sender);\r\n\t\t}\r\n\t\tdelete voters;\r\n\t\t*/\r\n\t}\r\n}",
  "sourcePath": "C:/Users/m5w5b/Desktop/GitHub/game-dapp/AccountRecovery/contracts/ProposalManager.sol",
  "compiler": {
    "name": "solc",
    "version": "0.5.8+commit.23d335f2.Emscripten.clang"
  },
  "schemaVersion": "3.0.16",
  "updatedAt": "2019-10-08T17:03:02.241Z",
  "devdoc": {
    "methods": {}
  },
  "userdoc": {
    "methods": {}
  }
}