{
  "contractName": "Random",
  "abi": [
    {
      "constant": true,
      "inputs": [
        {
          "name": "address1",
          "type": "address"
        },
        {
          "name": "size",
          "type": "uint256"
        }
      ],
      "name": "random",
      "outputs": [
        {
          "name": "",
          "type": "uint8"
        }
      ],
      "payable": false,
      "stateMutability": "view",
      "type": "function"
    }
  ],
  "bytecode": "0x610152610026600b82828239805160001a60731461001957fe5b30600052607381538281f3fe73000000000000000000000000000000000000000030146080604052600436106100355760003560e01c8063a35bfd211461003a575b600080fd5b6100866004803603604081101561005057600080fd5b81019080803573ffffffffffffffffffffffffffffffffffffffff169060200190929190803590602001909291905050506100a2565b604051808260ff1660ff16815260200191505060405180910390f35b6000814244855a604051602001808581526020018481526020018373ffffffffffffffffffffffffffffffffffffffff1673ffffffffffffffffffffffffffffffffffffffff1660601b81526014018281526020019450505050506040516020818303038152906040528051906020012060001c8161011d57fe5b0690509291505056fea165627a7a72305820406447a0a8deadcad597da482f02ce363e1d79619c78f45eb93df73e49dae9f50029",
  "source": "/* Set.sol */\r\n\r\npragma solidity >=0.4.0 <0.7.0;\r\n\r\nlibrary Random {\r\n\r\n\t// Generate random number using an address\r\n\tfunction random(address address1, uint size) external view returns (uint8) {\r\n\t\treturn uint8(uint256(keccak256(abi.encodePacked(block.timestamp, block.difficulty, address1, gasleft()))) % size);\r\n\t\t// return uint8(uint256(keccak256(abi.encodePacked(block.difficulty, block.coinbase, address1, gasleft()))) % size);\r\n\t}\r\n}",
  "sourcePath": "C:\\Users\\m5w5b\\Desktop\\GitHub\\game-dapp\\AccountRecovery\\contracts\\Random.sol",
  "compiler": {
    "name": "solc",
    "version": "0.5.8+commit.23d335f2.Emscripten.clang"
  },
  "schemaVersion": "3.0.16",
  "updatedAt": "2019-11-05T22:21:12.291Z",
  "devdoc": {
    "methods": {}
  },
  "userdoc": {
    "methods": {}
  }
}