{
  "contractName": "Set",
  "abi": [
    {
      "constant": true,
      "inputs": [],
      "name": "AAAA",
      "outputs": [
        {
          "name": "",
          "type": "uint256"
        }
      ],
      "payable": false,
      "stateMutability": "pure",
      "type": "function"
    }
  ],
  "bytecode": "0x610546610026600b82828239805160001a60731461001957fe5b30600052607381538281f3fe730000000000000000000000000000000000000000301460806040526004361061006c5760003560e01c80630778359c146100715780633d597e6c1461008f5780635df0a15c14610112578063674a64ec14610185578063df763a9d146101c7578063fe6949e31461023f575b600080fd5b6100796102a5565b6040518082815260200191505060405180910390f35b6100bb600480360360208110156100a557600080fd5b81019080803590602001909291905050506102ae565b6040518080602001828103825283818151815260200191508051906020019060200280838360005b838110156100fe5780820151818401526020810190506100e3565b505050509050019250505060405180910390f35b81801561011e57600080fd5b5061016b6004803603604081101561013557600080fd5b8101908080359060200190929190803573ffffffffffffffffffffffffffffffffffffffff169060200190929190505050610340565b604051808215151515815260200191505060405180910390f35b6101b16004803603602081101561019b57600080fd5b810190808035906020019092919050505061046c565b6040518082815260200191505060405180910390f35b6101fd600480360360408110156101dd57600080fd5b81019080803590602001909291908035906020019092919050505061047d565b604051808273ffffffffffffffffffffffffffffffffffffffff1673ffffffffffffffffffffffffffffffffffffffff16815260200191505060405180910390f35b61028b6004803603604081101561025557600080fd5b8101908080359060200190929190803573ffffffffffffffffffffffffffffffffffffffff1690602001909291905050506104c1565b604051808215151515815260200191505060405180910390f35b60006005905090565b60608160010180548060200260200160405190810160405280929190818152602001828054801561033457602002820191906000526020600020905b8160009054906101000a900473ffffffffffffffffffffffffffffffffffffffff1673ffffffffffffffffffffffffffffffffffffffff16815260200190600101908083116102ea575b50505050509050919050565b60008260000160008373ffffffffffffffffffffffffffffffffffffffff1673ffffffffffffffffffffffffffffffffffffffff16815260200190815260200160002060009054906101000a900460ff161561039f5760009050610466565b60018360000160008473ffffffffffffffffffffffffffffffffffffffff1673ffffffffffffffffffffffffffffffffffffffff16815260200190815260200160002060006101000a81548160ff021916908315150217905550826001018290806001815401808255809150509060018203906000526020600020016000909192909190916101000a81548173ffffffffffffffffffffffffffffffffffffffff021916908373ffffffffffffffffffffffffffffffffffffffff16021790555050600190505b92915050565b600081600101805490509050919050565b600082600101828154811061048e57fe5b9060005260206000200160009054906101000a900473ffffffffffffffffffffffffffffffffffffffff16905092915050565b60008260000160008373ffffffffffffffffffffffffffffffffffffffff1673ffffffffffffffffffffffffffffffffffffffff16815260200190815260200160002060009054906101000a900460ff1690509291505056fea165627a7a72305820dabb9c038711689bede05d7d92e27bf8a82768597bb754df58c22033401f78f80029",
  "source": "/* Set.sol */\r\n\r\npragma solidity >=0.4.0 <0.7.0;\r\n\r\nlibrary Set {\r\n\tstruct Data {\r\n\t\tmapping(address => bool) exists;\r\n\t\taddress[] values;\r\n\t}\r\n\t\r\n\tfunction insert(Data storage self, address value) public returns (bool){\r\n\t\tif (self.exists[value]) return false;\r\n\t\tself.exists[value] = true;\r\n\t\tself.values.push(value);\r\n\t\treturn true;\r\n\t}\r\n\r\n\tfunction contains(Data storage self, address value) public view returns (bool) {\r\n\t\treturn self.exists[value];\r\n\t}\r\n\r\n\tfunction getValues(Data storage self) public view returns (address[] memory) {\r\n\t\treturn self.values;\r\n\t}\r\n\r\n\tfunction getValue(Data storage self, uint i) public view returns (address) {\r\n\t\treturn self.values[i];\r\n\t}\r\n\r\n\tfunction getValuesLength(Data storage self) public view returns (uint) {\r\n\t\treturn self.values.length;\r\n\t}\r\n\r\n\tfunction AAAA() public pure returns (uint){\r\n\t\treturn 5;\r\n\t}\r\n}",
  "sourcePath": "C:\\Users\\m5w5b\\Desktop\\GitHub\\game-dapp\\AccountRecovery\\contracts\\Set.sol",
  "compiler": {
    "name": "solc",
    "version": "0.5.8+commit.23d335f2.Emscripten.clang"
  },
  "schemaVersion": "3.0.16",
  "updatedAt": "2019-10-31T15:37:03.992Z",
  "devdoc": {
    "methods": {}
  },
  "userdoc": {
    "methods": {}
  }
}