{
  "contractName": "TransactionManager",
  "abi": [
    {
      "inputs": [
        {
          "name": "UserManagerAddress",
          "type": "address"
        },
        {
          "name": "ProposalManagerAddress",
          "type": "address"
        }
      ],
      "payable": false,
      "stateMutability": "nonpayable",
      "type": "constructor"
    },
    {
      "constant": false,
      "inputs": [],
      "name": "BuyCoin",
      "outputs": [],
      "payable": true,
      "stateMutability": "payable",
      "type": "function"
    },
    {
      "constant": false,
      "inputs": [
        {
          "name": "_reciever",
          "type": "address"
        },
        {
          "name": "_amount",
          "type": "uint256"
        }
      ],
      "name": "MakeTransaction",
      "outputs": [],
      "payable": false,
      "stateMutability": "nonpayable",
      "type": "function"
    },
    {
      "constant": true,
      "inputs": [
        {
          "name": "sender",
          "type": "address"
        },
        {
          "name": "receiver",
          "type": "address"
        }
      ],
      "name": "getTransactions",
      "outputs": [
        {
          "name": "",
          "type": "address[]"
        }
      ],
      "payable": false,
      "stateMutability": "view",
      "type": "function"
    },
    {
      "constant": true,
      "inputs": [
        {
          "name": "sender",
          "type": "address"
        },
        {
          "name": "receiver",
          "type": "address"
        }
      ],
      "name": "NumberOfTransactions",
      "outputs": [
        {
          "name": "",
          "type": "uint256"
        }
      ],
      "payable": false,
      "stateMutability": "view",
      "type": "function"
    },
    {
      "constant": true,
      "inputs": [
        {
          "name": "sender",
          "type": "address"
        },
        {
          "name": "receiver",
          "type": "address"
        },
        {
          "name": "i",
          "type": "uint256"
        }
      ],
      "name": "getTransactionJS",
      "outputs": [
        {
          "name": "",
          "type": "address"
        },
        {
          "name": "",
          "type": "address"
        },
        {
          "name": "",
          "type": "uint256"
        }
      ],
      "payable": false,
      "stateMutability": "view",
      "type": "function"
    },
    {
      "constant": true,
      "inputs": [
        {
          "name": "sender",
          "type": "address"
        },
        {
          "name": "receiver",
          "type": "address"
        },
        {
          "name": "timeStamp",
          "type": "uint256"
        },
        {
          "name": "_amount",
          "type": "uint256"
        }
      ],
      "name": "Equal",
      "outputs": [],
      "payable": false,
      "stateMutability": "view",
      "type": "function"
    },
    {
      "constant": false,
      "inputs": [
        {
          "name": "_oldAccount",
          "type": "address"
        },
        {
          "name": "_newAccount",
          "type": "address"
        }
      ],
      "name": "getHaveTradedWith",
      "outputs": [
        {
          "name": "",
          "type": "address[]"
        }
      ],
      "payable": false,
      "stateMutability": "nonpayable",
      "type": "function"
    }
  ],
  "bytecode": "0x608060405234801561001057600080fd5b50604051604080612ea28339810180604052604081101561003057600080fd5b81019080805190602001909291908051906020019092919050505081600260006101000a81548173ffffffffffffffffffffffffffffffffffffffff021916908373ffffffffffffffffffffffffffffffffffffffff16021790555080600360006101000a81548173ffffffffffffffffffffffffffffffffffffffff021916908373ffffffffffffffffffffffffffffffffffffffff1602179055505050612dc4806100de6000396000f3fe6080604052600436106200007a5760003560e01c8063b1f7e43c1162000055578063b1f7e43c14620001e0578063d2aeb0d2146200023f578063db3b001f146200030b578063f90bee561462000404576200007a565b806314ee741f146200007f578063827e24791462000108578063876cb1081462000114575b600080fd5b3480156200008c57600080fd5b50620000f260048036036040811015620000a557600080fd5b81019080803573ffffffffffffffffffffffffffffffffffffffff169060200190929190803573ffffffffffffffffffffffffffffffffffffffff1690602001909291905050506200048d565b6040518082815260200191505060405180910390f35b6200011262000516565b005b3480156200012157600080fd5b5062000187600480360360408110156200013a57600080fd5b81019080803573ffffffffffffffffffffffffffffffffffffffff169060200190929190803573ffffffffffffffffffffffffffffffffffffffff1690602001909291905050506200097f565b6040518080602001828103825283818151815260200191508051906020019060200280838360005b83811015620001cc578082015181840152602081019050620001af565b505050509050019250505060405180910390f35b348015620001ed57600080fd5b506200023d600480360360408110156200020657600080fd5b81019080803573ffffffffffffffffffffffffffffffffffffffff1690602001909291908035906020019092919050505062000a8b565b005b3480156200024c57600080fd5b50620002b2600480360360408110156200026557600080fd5b81019080803573ffffffffffffffffffffffffffffffffffffffff169060200190929190803573ffffffffffffffffffffffffffffffffffffffff169060200190929190505050620012ec565b6040518080602001828103825283818151815260200191508051906020019060200280838360005b83811015620002f7578082015181840152602081019050620002da565b505050509050019250505060405180910390f35b3480156200031857600080fd5b5062000388600480360360608110156200033157600080fd5b81019080803573ffffffffffffffffffffffffffffffffffffffff169060200190929190803573ffffffffffffffffffffffffffffffffffffffff169060200190929190803590602001909291905050506200159f565b604051808473ffffffffffffffffffffffffffffffffffffffff1673ffffffffffffffffffffffffffffffffffffffff1681526020018373ffffffffffffffffffffffffffffffffffffffff1673ffffffffffffffffffffffffffffffffffffffff168152602001828152602001935050505060405180910390f35b3480156200041157600080fd5b506200048b600480360360808110156200042a57600080fd5b81019080803573ffffffffffffffffffffffffffffffffffffffff169060200190929190803573ffffffffffffffffffffffffffffffffffffffff1690602001909291908035906020019092919080359060200190929190505050620017fe565b005b60008060008473ffffffffffffffffffffffffffffffffffffffff1673ffffffffffffffffffffffffffffffffffffffff16815260200190815260200160002060008373ffffffffffffffffffffffffffffffffffffffff1673ffffffffffffffffffffffffffffffffffffffff16815260200190815260200160002080549050905092915050565b600360009054906101000a900473ffffffffffffffffffffffffffffffffffffffff1673ffffffffffffffffffffffffffffffffffffffff1663331c4bed33600260009054906101000a900473ffffffffffffffffffffffffffffffffffffffff1673ffffffffffffffffffffffffffffffffffffffff16636e9960c36040518163ffffffff1660e01b815260040160206040518083038186803b158015620005be57600080fd5b505afa158015620005d3573d6000803e3d6000fd5b505050506040513d6020811015620005ea57600080fd5b81019080805190602001909291905050506040518363ffffffff1660e01b8152600401808373ffffffffffffffffffffffffffffffffffffffff1673ffffffffffffffffffffffffffffffffffffffff1681526020018273ffffffffffffffffffffffffffffffffffffffff1673ffffffffffffffffffffffffffffffffffffffff1681526020019250505060206040518083038186803b1580156200068f57600080fd5b505afa158015620006a4573d6000803e3d6000fd5b505050506040513d6020811015620006bb57600080fd5b81019080805190602001909291905050501562000724576040517f08c379a000000000000000000000000000000000000000000000000000000000815260040180806020018281038252602681526020018062002d736026913960400191505060405180910390fd5b6000600260009054906101000a900473ffffffffffffffffffffffffffffffffffffffff1673ffffffffffffffffffffffffffffffffffffffff16636e9960c36040518163ffffffff1660e01b815260040160206040518083038186803b1580156200078f57600080fd5b505afa158015620007a4573d6000803e3d6000fd5b505050506040513d6020811015620007bb57600080fd5b810190808051906020019092919050505090508073ffffffffffffffffffffffffffffffffffffffff166108fc349081150290604051600060405180830381858888f1935050505015801562000815573d6000803e3d6000fd5b506000600260009054906101000a900473ffffffffffffffffffffffffffffffffffffffff1673ffffffffffffffffffffffffffffffffffffffff16636f77926b336040518263ffffffff1660e01b8152600401808273ffffffffffffffffffffffffffffffffffffffff1673ffffffffffffffffffffffffffffffffffffffff16815260200191505060206040518083038186803b158015620008b857600080fd5b505afa158015620008cd573d6000803e3d6000fd5b505050506040513d6020811015620008e457600080fd5b810190808051906020019092919050505090506000662386f26fc1000034816200090a57fe5b0490508173ffffffffffffffffffffffffffffffffffffffff16633e4ccb40826040518263ffffffff1660e01b815260040180828152602001915050600060405180830381600087803b1580156200096157600080fd5b505af115801562000976573d6000803e3d6000fd5b50505050505050565b60606000808473ffffffffffffffffffffffffffffffffffffffff1673ffffffffffffffffffffffffffffffffffffffff16815260200190815260200160002060008373ffffffffffffffffffffffffffffffffffffffff1673ffffffffffffffffffffffffffffffffffffffff16815260200190815260200160002080548060200260200160405190810160405280929190818152602001828054801562000a7e57602002820191906000526020600020905b8160009054906101000a900473ffffffffffffffffffffffffffffffffffffffff1673ffffffffffffffffffffffffffffffffffffffff168152602001906001019080831162000a33575b5050505050905092915050565b3373ffffffffffffffffffffffffffffffffffffffff168273ffffffffffffffffffffffffffffffffffffffff16141562000b2e576040517f08c379a000000000000000000000000000000000000000000000000000000000815260040180806020018281038252601e8152602001807f43616e206e6f742073656e64206d6f6e657920746f20796f757273656c66000081525060200191505060405180910390fd5b600260009054906101000a900473ffffffffffffffffffffffffffffffffffffffff1673ffffffffffffffffffffffffffffffffffffffff16636e9960c36040518163ffffffff1660e01b815260040160206040518083038186803b15801562000b9757600080fd5b505afa15801562000bac573d6000803e3d6000fd5b505050506040513d602081101562000bc357600080fd5b810190808051906020019092919050505073ffffffffffffffffffffffffffffffffffffffff168273ffffffffffffffffffffffffffffffffffffffff16141562000c76576040517f08c379a000000000000000000000000000000000000000000000000000000000815260040180806020018281038252601f8152602001807f43616e206e6f742073656e64206d6f6e657920746f207468652061646d696e0081525060200191505060405180910390fd5b600360009054906101000a900473ffffffffffffffffffffffffffffffffffffffff1673ffffffffffffffffffffffffffffffffffffffff1663331c4bed33846040518363ffffffff1660e01b8152600401808373ffffffffffffffffffffffffffffffffffffffff1673ffffffffffffffffffffffffffffffffffffffff1681526020018273ffffffffffffffffffffffffffffffffffffffff1673ffffffffffffffffffffffffffffffffffffffff1681526020019250505060206040518083038186803b15801562000d4a57600080fd5b505afa15801562000d5f573d6000803e3d6000fd5b505050506040513d602081101562000d7657600080fd5b81019080805190602001909291905050501562000ddf576040517f08c379a000000000000000000000000000000000000000000000000000000000815260040180806020018281038252602681526020018062002d736026913960400191505060405180910390fd5b62000deb338362001a61565b1562000e5f576040517f08c379a000000000000000000000000000000000000000000000000000000000815260040180806020018281038252600f8152602001807f546869732069732042726962657279000000000000000000000000000000000081525060200191505060405180910390fd5b600062000e6c33620020ff565b90505b600073ffffffffffffffffffffffffffffffffffffffff168173ffffffffffffffffffffffffffffffffffffffff161462000fa657600360009054906101000a900473ffffffffffffffffffffffffffffffffffffffff1673ffffffffffffffffffffffffffffffffffffffff16636f4b8b7233836040518363ffffffff1660e01b8152600401808373ffffffffffffffffffffffffffffffffffffffff1673ffffffffffffffffffffffffffffffffffffffff1681526020018273ffffffffffffffffffffffffffffffffffffffff1673ffffffffffffffffffffffffffffffffffffffff16815260200192505050600060405180830381600087803b15801562000f7a57600080fd5b505af115801562000f8f573d6000803e3d6000fd5b5050505062000f9e33620020ff565b905062000e6f565b6000600260009054906101000a900473ffffffffffffffffffffffffffffffffffffffff1673ffffffffffffffffffffffffffffffffffffffff16636f77926b336040518263ffffffff1660e01b8152600401808273ffffffffffffffffffffffffffffffffffffffff1673ffffffffffffffffffffffffffffffffffffffff16815260200191505060206040518083038186803b1580156200104857600080fd5b505afa1580156200105d573d6000803e3d6000fd5b505050506040513d60208110156200107457600080fd5b810190808051906020019092919050505090506000600260009054906101000a900473ffffffffffffffffffffffffffffffffffffffff1673ffffffffffffffffffffffffffffffffffffffff16636f77926b866040518263ffffffff1660e01b8152600401808273ffffffffffffffffffffffffffffffffffffffff1673ffffffffffffffffffffffffffffffffffffffff16815260200191505060206040518083038186803b1580156200112957600080fd5b505afa1580156200113e573d6000803e3d6000fd5b505050506040513d60208110156200115557600080fd5b810190808051906020019092919050505090506000803373ffffffffffffffffffffffffffffffffffffffff1673ffffffffffffffffffffffffffffffffffffffff16815260200190815260200160002060008673ffffffffffffffffffffffffffffffffffffffff1673ffffffffffffffffffffffffffffffffffffffff168152602001908152602001600020828286604051620011f49062002490565b808473ffffffffffffffffffffffffffffffffffffffff1673ffffffffffffffffffffffffffffffffffffffff1681526020018373ffffffffffffffffffffffffffffffffffffffff1673ffffffffffffffffffffffffffffffffffffffff1681526020018281526020019350505050604051809103906000f08015801562001281573d6000803e3d6000fd5b5090806001815401808255809150509060018203906000526020600020016000909192909190916101000a81548173ffffffffffffffffffffffffffffffffffffffff021916908373ffffffffffffffffffffffffffffffffffffffff160217905550505050505050565b606060016000620012fe91906200249e565b6060600260009054906101000a900473ffffffffffffffffffffffffffffffffffffffff1673ffffffffffffffffffffffffffffffffffffffff1663a39fac126040518163ffffffff1660e01b815260040160006040518083038186803b1580156200136957600080fd5b505afa1580156200137e573d6000803e3d6000fd5b505050506040513d6000823e3d601f19601f820116820180604052506020811015620013a957600080fd5b810190808051640100000000811115620013c257600080fd5b82810190506020810184811115620013d957600080fd5b8151856020820283011164010000000082111715620013f757600080fd5b5050929190505050905060008090505b81518110156200150c578181815181106200141e57fe5b602002602001015173ffffffffffffffffffffffffffffffffffffffff168473ffffffffffffffffffffffffffffffffffffffff1614620014fe5760006200147b868484815181106200146d57fe5b60200260200101516200048d565b1115620014fd5760018282815181106200149157fe5b602002602001015190806001815401808255809150509060018203906000526020600020016000909192909190916101000a81548173ffffffffffffffffffffffffffffffffffffffff021916908373ffffffffffffffffffffffffffffffffffffffff160217905550505b5b808060010191505062001407565b5060018054806020026020016040519081016040528092919081815260200182805480156200159157602002820191906000526020600020905b8160009054906101000a900473ffffffffffffffffffffffffffffffffffffffff1673ffffffffffffffffffffffffffffffffffffffff168152602001906001019080831162001546575b505050505091505092915050565b60008060008060008773ffffffffffffffffffffffffffffffffffffffff1673ffffffffffffffffffffffffffffffffffffffff16815260200190815260200160002060008673ffffffffffffffffffffffffffffffffffffffff1673ffffffffffffffffffffffffffffffffffffffff168152602001908152602001600020805490508410801562001633575060008410155b620016a6576040517f08c379a000000000000000000000000000000000000000000000000000000000815260040180806020018281038252600d8152602001807f496e76616c696420496e6465780000000000000000000000000000000000000081525060200191505060405180910390fd5b6000808773ffffffffffffffffffffffffffffffffffffffff1673ffffffffffffffffffffffffffffffffffffffff16815260200190815260200160002060008673ffffffffffffffffffffffffffffffffffffffff1673ffffffffffffffffffffffffffffffffffffffff16815260200190815260200160002084815481106200172d57fe5b9060005260206000200160009054906101000a900473ffffffffffffffffffffffffffffffffffffffff1673ffffffffffffffffffffffffffffffffffffffff166359705f816040518163ffffffff1660e01b815260040160606040518083038186803b1580156200179e57600080fd5b505afa158015620017b3573d6000803e3d6000fd5b505050506040513d6060811015620017ca57600080fd5b8101908080519060200190929190805190602001909291908051906020019092919050505092509250925093509350939050565b60008060008673ffffffffffffffffffffffffffffffffffffffff1673ffffffffffffffffffffffffffffffffffffffff16815260200190815260200160002060008573ffffffffffffffffffffffffffffffffffffffff1673ffffffffffffffffffffffffffffffffffffffff1681526020019081526020016000209050600080905060008090505b8280549050811015620019e457828181548110620018a257fe5b9060005260206000200160009054906101000a900473ffffffffffffffffffffffffffffffffffffffff1673ffffffffffffffffffffffffffffffffffffffff166315ca5854868989886040518563ffffffff1660e01b8152600401808581526020018473ffffffffffffffffffffffffffffffffffffffff1673ffffffffffffffffffffffffffffffffffffffff1681526020018373ffffffffffffffffffffffffffffffffffffffff1673ffffffffffffffffffffffffffffffffffffffff16815260200182815260200194505050505060206040518083038186803b1580156200198e57600080fd5b505afa158015620019a3573d6000803e3d6000fd5b505050506040513d6020811015620019ba57600080fd5b810190808051906020019092919050505015620019d657600191505b808060010191505062001888565b508062001a59576040517f08c379a000000000000000000000000000000000000000000000000000000000815260040180806020018281038252601f8152602001807f54686973207472616e73616374696f6e20646f6573206e6f742065786973740081525060200191505060405180910390fd5b505050505050565b60006060600260009054906101000a900473ffffffffffffffffffffffffffffffffffffffff1673ffffffffffffffffffffffffffffffffffffffff1663a39fac126040518163ffffffff1660e01b815260040160006040518083038186803b15801562001ace57600080fd5b505afa15801562001ae3573d6000803e3d6000fd5b505050506040513d6000823e3d601f19601f82011682018060405250602081101562001b0e57600080fd5b81019080805164010000000081111562001b2757600080fd5b8281019050602081018481111562001b3e57600080fd5b815185602082028301116401000000008211171562001b5c57600080fd5b5050929190505050905060008090505b8151811015620020f25781818151811062001b8357fe5b602002602001015173ffffffffffffffffffffffffffffffffffffffff168573ffffffffffffffffffffffffffffffffffffffff1614620020e457600360009054906101000a900473ffffffffffffffffffffffffffffffffffffffff1673ffffffffffffffffffffffffffffffffffffffff166380b9152883838151811062001c0957fe5b6020026020010151876040518363ffffffff1660e01b8152600401808373ffffffffffffffffffffffffffffffffffffffff1673ffffffffffffffffffffffffffffffffffffffff1681526020018273ffffffffffffffffffffffffffffffffffffffff1673ffffffffffffffffffffffffffffffffffffffff1681526020019250505060206040518083038186803b15801562001ca657600080fd5b505afa15801562001cbb573d6000803e3d6000fd5b505050506040513d602081101562001cd257600080fd5b810190808051906020019092919050505015620020e3576000600360009054906101000a900473ffffffffffffffffffffffffffffffffffffffff1673ffffffffffffffffffffffffffffffffffffffff1663a652629584848151811062001d3657fe5b6020026020010151886040518363ffffffff1660e01b8152600401808373ffffffffffffffffffffffffffffffffffffffff1673ffffffffffffffffffffffffffffffffffffffff1681526020018273ffffffffffffffffffffffffffffffffffffffff1673ffffffffffffffffffffffffffffffffffffffff1681526020019250505060206040518083038186803b15801562001dd357600080fd5b505afa15801562001de8573d6000803e3d6000fd5b505050506040513d602081101562001dff57600080fd5b8101908080519060200190929190505050905060608173ffffffffffffffffffffffffffffffffffffffff1663cdd722536040518163ffffffff1660e01b815260040160006040518083038186803b15801562001e5b57600080fd5b505afa15801562001e70573d6000803e3d6000fd5b505050506040513d6000823e3d601f19601f82011682018060405250602081101562001e9b57600080fd5b81019080805164010000000081111562001eb457600080fd5b8281019050602081018481111562001ecb57600080fd5b815185602082028301116401000000008211171562001ee957600080fd5b5050929190505050905060008090505b8151811015620020df578673ffffffffffffffffffffffffffffffffffffffff1682828151811062001f2757fe5b602002602001015173ffffffffffffffffffffffffffffffffffffffff161415620020d157600360009054906101000a900473ffffffffffffffffffffffffffffffffffffffff1673ffffffffffffffffffffffffffffffffffffffff166380345d9d886040518263ffffffff1660e01b8152600401808273ffffffffffffffffffffffffffffffffffffffff1673ffffffffffffffffffffffffffffffffffffffff168152602001915050600060405180830381600087803b15801562001fee57600080fd5b505af115801562002003573d6000803e3d6000fd5b50505050600360009054906101000a900473ffffffffffffffffffffffffffffffffffffffff1673ffffffffffffffffffffffffffffffffffffffff166380345d9d896040518263ffffffff1660e01b8152600401808273ffffffffffffffffffffffffffffffffffffffff1673ffffffffffffffffffffffffffffffffffffffff168152602001915050600060405180830381600087803b158015620020a957600080fd5b505af1158015620020be573d6000803e3d6000fd5b50505050600195505050505050620020f9565b808060010191505062001ef9565b5050505b5b808060010191505062001b6c565b5060009150505b92915050565b60006060600260009054906101000a900473ffffffffffffffffffffffffffffffffffffffff1673ffffffffffffffffffffffffffffffffffffffff1663a39fac126040518163ffffffff1660e01b815260040160006040518083038186803b1580156200216c57600080fd5b505afa15801562002181573d6000803e3d6000fd5b505050506040513d6000823e3d601f19601f820116820180604052506020811015620021ac57600080fd5b810190808051640100000000811115620021c557600080fd5b82810190506020810184811115620021dc57600080fd5b8151856020820283011164010000000082111715620021fa57600080fd5b5050929190505050905060008090505b815181101562002484578181815181106200222157fe5b602002602001015173ffffffffffffffffffffffffffffffffffffffff168473ffffffffffffffffffffffffffffffffffffffff16146200247657600360009054906101000a900473ffffffffffffffffffffffffffffffffffffffff1673ffffffffffffffffffffffffffffffffffffffff166380b9152885848481518110620022a857fe5b60200260200101516040518363ffffffff1660e01b8152600401808373ffffffffffffffffffffffffffffffffffffffff1673ffffffffffffffffffffffffffffffffffffffff1681526020018273ffffffffffffffffffffffffffffffffffffffff1673ffffffffffffffffffffffffffffffffffffffff1681526020019250505060206040518083038186803b1580156200234457600080fd5b505afa15801562002359573d6000803e3d6000fd5b505050506040513d60208110156200237057600080fd5b8101908080519060200190929190505050156200247557600360009054906101000a900473ffffffffffffffffffffffffffffffffffffffff1673ffffffffffffffffffffffffffffffffffffffff166380345d9d838381518110620023d257fe5b60200260200101516040518263ffffffff1660e01b8152600401808273ffffffffffffffffffffffffffffffffffffffff1673ffffffffffffffffffffffffffffffffffffffff168152602001915050600060405180830381600087803b1580156200243d57600080fd5b505af115801562002452573d6000803e3d6000fd5b505050508181815181106200246357fe5b6020026020010151925050506200248b565b5b80806001019150506200220a565b5060009150505b919050565b61088980620024ea83390190565b5080546000825590600052602060002090810190620024be9190620024c1565b50565b620024e691905b80821115620024e2576000816000905550600101620024c8565b5090565b9056fe608060405234801561001057600080fd5b506040516060806108898339810180604052606081101561003057600080fd5b81019080805190602001909291908051906020019092919080519060200190929190505050808373ffffffffffffffffffffffffffffffffffffffff1663b69ef8a86040518163ffffffff1660e01b815260040160206040518083038186803b15801561009c57600080fd5b505afa1580156100b0573d6000803e3d6000fd5b505050506040513d60208110156100c657600080fd5b8101908080519060200190929190505050101561014b576040517f08c379a00000000000000000000000000000000000000000000000000000000081526004018080602001828103825260108152602001807f496e76616c69642042616c616e63652e0000000000000000000000000000000081525060200191505060405180910390fd5b4260008190555082600160006101000a81548173ffffffffffffffffffffffffffffffffffffffff021916908373ffffffffffffffffffffffffffffffffffffffff16021790555081600260006101000a81548173ffffffffffffffffffffffffffffffffffffffff021916908373ffffffffffffffffffffffffffffffffffffffff160217905550806003819055506101e96101f160201b60201c565b5050506103bc565b600160009054906101000a900473ffffffffffffffffffffffffffffffffffffffff1673ffffffffffffffffffffffffffffffffffffffff1663392aee436003546040518263ffffffff1660e01b815260040180828152602001915050600060405180830381600087803b15801561026857600080fd5b505af115801561027c573d6000803e3d6000fd5b50505050600260009054906101000a900473ffffffffffffffffffffffffffffffffffffffff1673ffffffffffffffffffffffffffffffffffffffff16633e4ccb406003546040518263ffffffff1660e01b815260040180828152602001915050600060405180830381600087803b1580156102f757600080fd5b505af115801561030b573d6000803e3d6000fd5b50505050600260009054906101000a900473ffffffffffffffffffffffffffffffffffffffff1673ffffffffffffffffffffffffffffffffffffffff16600160009054906101000a900473ffffffffffffffffffffffffffffffffffffffff1673ffffffffffffffffffffffffffffffffffffffff167fddf252ad1be2c89b69c2b068fc378daa952ba7f163c4a11628f55a4df523b3ef6003546040518082815260200191505060405180910390a3565b6104be806103cb6000396000f3fe608060405234801561001057600080fd5b50600436106100365760003560e01c806315ca58541461003b57806359705f81146100cb575b600080fd5b6100b16004803603608081101561005157600080fd5b8101908080359060200190929190803573ffffffffffffffffffffffffffffffffffffffff169060200190929190803573ffffffffffffffffffffffffffffffffffffffff1690602001909291908035906020019092919050505061014f565b604051808215151515815260200191505060405180910390f35b6100d3610339565b604051808473ffffffffffffffffffffffffffffffffffffffff1673ffffffffffffffffffffffffffffffffffffffff1681526020018373ffffffffffffffffffffffffffffffffffffffff1673ffffffffffffffffffffffffffffffffffffffff168152602001828152602001935050505060405180910390f35b600080600a60005403861015801561016c5750600a600054018611155b905080801561024857508473ffffffffffffffffffffffffffffffffffffffff16600160009054906101000a900473ffffffffffffffffffffffffffffffffffffffff1673ffffffffffffffffffffffffffffffffffffffff1663b3cea2176040518163ffffffff1660e01b815260040160206040518083038186803b1580156101f557600080fd5b505afa158015610209573d6000803e3d6000fd5b505050506040513d602081101561021f57600080fd5b810190808051906020019092919050505073ffffffffffffffffffffffffffffffffffffffff16145b801561032157508373ffffffffffffffffffffffffffffffffffffffff16600260009054906101000a900473ffffffffffffffffffffffffffffffffffffffff1673ffffffffffffffffffffffffffffffffffffffff1663b3cea2176040518163ffffffff1660e01b815260040160206040518083038186803b1580156102ce57600080fd5b505afa1580156102e2573d6000803e3d6000fd5b505050506040513d60208110156102f857600080fd5b810190808051906020019092919050505073ffffffffffffffffffffffffffffffffffffffff16145b801561032e575060035483145b915050949350505050565b6000806000600160009054906101000a900473ffffffffffffffffffffffffffffffffffffffff1673ffffffffffffffffffffffffffffffffffffffff1663b3cea2176040518163ffffffff1660e01b815260040160206040518083038186803b1580156103a657600080fd5b505afa1580156103ba573d6000803e3d6000fd5b505050506040513d60208110156103d057600080fd5b8101908080519060200190929190505050600260009054906101000a900473ffffffffffffffffffffffffffffffffffffffff1673ffffffffffffffffffffffffffffffffffffffff1663b3cea2176040518163ffffffff1660e01b815260040160206040518083038186803b15801561044957600080fd5b505afa15801561045d573d6000803e3d6000fd5b505050506040513d602081101561047357600080fd5b810190808051906020019092919050505060035492509250925090919256fea165627a7a7230582089a222a1d797029b2855869fc427b0cd0a57c6841294430faa41355963ad89bb00294f6e6365206f66207468657365206163636f756e74732061726520626c61636b6c6973746564a165627a7a72305820ada868b8d77141b0c95821d6afe6efc669409fcfdce8e858a46df7ddf2afc9680029",
  "source": "/* TransactionManager.sol */\r\n\r\npragma solidity >=0.4.0 <0.7.0;\r\n\r\nimport \"../contracts/UserManager.sol\";\r\nimport \"../contracts/ProposalManager.sol\";\r\n\r\nimport \"../contracts/Person.sol\";\r\nimport \"../contracts/Transaction.sol\";\r\n\r\n/* <Summary> \r\n\tManages the list of transaction as well as making transactions\r\n*/\r\n\r\ncontract TransactionManager {\r\n\tmapping (address => mapping (address => Transaction[]) ) transactions;\r\n\taddress[]  haveTradedWith;\r\n\r\n\tUserManager UMI;\t\t\t// Connects to the list of users on the network\r\n\tProposalManager PMI;\t// Connects to the list of active proposals on the network\r\n\r\n\tconstructor(address UserManagerAddress, address ProposalManagerAddress) public {\r\n\t\tUMI = UserManager(UserManagerAddress);\r\n\t\tPMI = ProposalManager(ProposalManagerAddress);\r\n\t}\r\n\r\n\tfunction BuyCoin() public payable {\r\n\t\trequire (!PMI.getBlacklistedAccount(msg.sender, UMI.getAdmin()), \"Once of these accounts are blacklisted\");\r\n\r\n\t\taddress payable admin = UMI.getAdmin();\r\n\t\tadmin.transfer(msg.value);\t\t\t\t\t\t\t\t// Spend ETH\r\n\r\n\t\tPerson buyer = UMI.getUser(msg.sender); // Finds buy\r\n\t\tuint price = msg.value/10000000000000000;\t\t\t\t// 1 ETh = 100 Coins\r\n\t\tbuyer.increaseBalance(price);\t\t\t\t\t\t\t// Increase the reciever's balance\r\n\r\n\t}\r\n\r\n\t// Makes a transaction between 2 users\r\n\tfunction MakeTransaction(address _reciever, uint _amount) external {\r\n\t\trequire (_reciever != msg.sender, \"Can not send money to yourself\");\r\n\t\trequire (_reciever != address(UMI.getAdmin()), \"Can not send money to the admin\");\r\n\r\n\t\trequire (!PMI.getBlacklistedAccount(msg.sender, _reciever), \"Once of these accounts are blacklisted\");\r\n\r\n\t\trequire (!CheckForBribery(msg.sender, _reciever), \"This is Bribery\");\r\n\r\n\t\taddress newAccount = CheckForOldAccount(msg.sender);\r\n\t\twhile (newAccount != 0x0000000000000000000000000000000000000000){\r\n\t\t\tPMI.archiveProposal(msg.sender, newAccount);\r\n\t\t\tnewAccount = CheckForOldAccount(msg.sender);\r\n\t\t}\r\n\r\n\t\tPerson sender = UMI.getUser(msg.sender); // Finds sender\r\n\t\tPerson reciever = UMI.getUser(_reciever); // Finds reciever\r\n\r\n\t\t// Makes transaction \r\n\t\ttransactions[msg.sender][_reciever].push(new Transaction(sender, reciever, _amount));\r\n\t}\r\n\r\n\t// Gets transacions between 2 addresses\r\n\tfunction getTransactions(address sender, address receiver) external view returns(Transaction[] memory) {\r\n\t\treturn transactions[sender][receiver];\r\n\t}\r\n\r\n\t// Gets the number of transacions between 2 addresses\r\n\tfunction NumberOfTransactions(address sender, address receiver) public view returns(uint) {\r\n\t\treturn transactions[sender][receiver].length;\r\n\t}\r\n\r\n\t// Get a transaction between 2 address but returns it in parts\r\n\tfunction getTransactionJS(address sender, address receiver, uint i) external view returns(address, address, uint) {\r\n\t\trequire(i < transactions[sender][receiver].length && i >= 0, \"Invalid Index\");\r\n\t\treturn transactions[sender][receiver][i].getTransaction();\r\n\t}\r\n\r\n\tfunction Equal(address sender, address receiver, uint timeStamp, uint _amount) external view {\r\n\t\tTransaction[] storage temp = transactions[sender][receiver];\r\n\r\n\t\tbool found = false;\r\n\r\n\t\tfor (uint i = 0; i < temp.length; i++){\r\n\t\t\tif (temp[i].Equal(timeStamp, sender, receiver, _amount)){\r\n\t\t\t\tfound = true;\r\n\t\t\t}\r\n\r\n\t\t}\r\n\t\trequire(found, \"This transaction does not exist\");\r\n\t}\r\n\r\n\tfunction CheckForOldAccount(address _oldAccount) internal returns (address){\r\n\t\taddress[] memory addresses = UMI.getAddresses(); // List of addresses on the network\r\n\t\tfor (uint i = 0; i < addresses.length; i++){\t\t\t\t\t// For each address\r\n\t\t\tif (_oldAccount != addresses[i]){\t\t\t\t\t\t\t// The new account can not be a voter\r\n\t\t\t\tif (PMI.getActiveProposalExists(_oldAccount, addresses[i])){\r\n\r\n\t\t\t\t\tPMI.setBlacklistedAccount(addresses[i]);\r\n\r\n\t\t\t\t\treturn addresses[i];\r\n\t\t\t\t}\r\n\t\t\t}\r\n\t\t}\r\n\t\treturn 0x0000000000000000000000000000000000000000;\r\n\t}\r\n\r\n\tfunction CheckForBribery(address _newAccount, address _voter) internal returns (bool){\r\n\t\taddress[] memory addresses = UMI.getAddresses(); // List of addresses on the network\r\n\r\n\t\tfor (uint i = 0; i < addresses.length; i++){\t\t\t\t\t// For each address\r\n\t\t\tif (_newAccount != addresses[i]){\t\t\t\t\t\t\t// The new account can not be a voter\r\n\t\t\t\tif (PMI.getActiveProposalExists(addresses[i], _newAccount)){\r\n\t\t\t\t\tProposal temp = PMI.getActiveProposal(addresses[i], _newAccount);\r\n\t\t\t\t\taddress[] memory voters = temp.getVoters();\r\n\t\t\t\t\tfor(uint j = 0; j < voters.length; j++){\r\n\t\t\t\t\t\tif (voters[j] == _voter){\r\n\r\n\t\t\t\t\t\t\tPMI.setBlacklistedAccount(_voter);\r\n\t\t\t\t\t\t\tPMI.setBlacklistedAccount(_newAccount);\r\n\r\n\t\t\t\t\t\t\treturn true;\r\n\t\t\t\t\t\t}\r\n\t\t\t\t\t}\r\n\t\t\t\t}\r\n\t\t\t}\r\n\t\t}\r\n\t\treturn false;\r\n\t}\r\n\r\n\tfunction getHaveTradedWith(address _oldAccount, address _newAccount) external returns (address[] memory){\r\n\t\tdelete haveTradedWith;\r\n\t\taddress[] memory addresses = UMI.getAddresses(); // List of addresses on the network\r\n\t\tfor (uint i = 0; i < addresses.length; i++){\t\t\t\t\t// For each address\r\n\t\t\tif (_newAccount != addresses[i]){\t\t\t\t\t\t\t// The new account can not be a voter\r\n\t\t\t\t// They have made a transaction with the old account\r\n\t\t\t\tif (NumberOfTransactions(_oldAccount, addresses[i]) > 0){\r\n\t\t\t\t\thaveTradedWith.push(addresses[i]);\t\t\t\t// This address is an eligible voter\r\n\t\t\t\t}\r\n\t\t\t}\r\n\t\t}\r\n\t\t// require(haveTradedWith.length >= 3, \"Invalid Number of haveTradedWith\");\r\n\t\treturn haveTradedWith;\r\n\t}\r\n\r\n}\r\n",
  "sourcePath": "C:\\Users\\m5w5b\\Desktop\\GitHub\\game-dapp\\AccountRecovery\\contracts\\TransactionManager.sol",
  "compiler": {
    "name": "solc",
    "version": "0.5.8+commit.23d335f2.Emscripten.clang"
  },
  "schemaVersion": "3.0.16",
  "updatedAt": "2019-11-06T19:50:39.742Z",
  "devdoc": {
    "methods": {}
  },
  "userdoc": {
    "methods": {}
  }
}