{
  "contractName": "TransactionManager",
  "abi": [
    {
      "inputs": [
        {
          "name": "_UserManagerInstance",
          "type": "address"
        }
      ],
      "payable": false,
      "stateMutability": "nonpayable",
      "type": "constructor"
    },
    {
      "constant": false,
      "inputs": [
        {
          "name": "_reciever",
          "type": "address"
        },
        {
          "name": "_amount",
          "type": "uint256"
        }
      ],
      "name": "MakeTransaction",
      "outputs": [],
      "payable": false,
      "stateMutability": "nonpayable",
      "type": "function"
    },
    {
      "constant": true,
      "inputs": [
        {
          "name": "sender",
          "type": "address"
        },
        {
          "name": "receiver",
          "type": "address"
        },
        {
          "name": "i",
          "type": "uint256"
        }
      ],
      "name": "getTransactions",
      "outputs": [
        {
          "name": "",
          "type": "address"
        }
      ],
      "payable": false,
      "stateMutability": "view",
      "type": "function"
    },
    {
      "constant": true,
      "inputs": [
        {
          "name": "sender",
          "type": "address"
        },
        {
          "name": "receiver",
          "type": "address"
        },
        {
          "name": "i",
          "type": "uint256"
        }
      ],
      "name": "getTransactionsJS",
      "outputs": [
        {
          "name": "",
          "type": "address"
        },
        {
          "name": "",
          "type": "address"
        },
        {
          "name": "",
          "type": "uint256"
        }
      ],
      "payable": false,
      "stateMutability": "view",
      "type": "function"
    }
  ],
  "bytecode": "0x608060405234801561001057600080fd5b506040516020806113bc8339810180604052602081101561003057600080fd5b810190808051906020019092919050505080600160006101000a81548173ffffffffffffffffffffffffffffffffffffffff021916908373ffffffffffffffffffffffffffffffffffffffff1602179055505061132a806100926000396000f3fe60806040523480156200001157600080fd5b5060043610620000465760003560e01c806361bad382146200004b5780636a74fc5814620000fc578063b1f7e43c14620001e7575b600080fd5b620000ba600480360360608110156200006357600080fd5b81019080803573ffffffffffffffffffffffffffffffffffffffff169060200190929190803573ffffffffffffffffffffffffffffffffffffffff1690602001909291908035906020019092919050505062000238565b604051808273ffffffffffffffffffffffffffffffffffffffff1673ffffffffffffffffffffffffffffffffffffffff16815260200191505060405180910390f35b6200016b600480360360608110156200011457600080fd5b81019080803573ffffffffffffffffffffffffffffffffffffffff169060200190929190803573ffffffffffffffffffffffffffffffffffffffff16906020019092919080359060200190929190505050620003f7565b604051808473ffffffffffffffffffffffffffffffffffffffff1673ffffffffffffffffffffffffffffffffffffffff1681526020018373ffffffffffffffffffffffffffffffffffffffff1673ffffffffffffffffffffffffffffffffffffffff168152602001828152602001935050505060405180910390f35b6200023660048036036040811015620001ff57600080fd5b81019080803573ffffffffffffffffffffffffffffffffffffffff1690602001909291908035906020019092919050505062000856565b005b60008060008573ffffffffffffffffffffffffffffffffffffffff1673ffffffffffffffffffffffffffffffffffffffff16815260200190815260200160002060008473ffffffffffffffffffffffffffffffffffffffff1673ffffffffffffffffffffffffffffffffffffffff1681526020019081526020016000208054905082108015620002c9575060008210155b6200033c576040517f08c379a000000000000000000000000000000000000000000000000000000000815260040180806020018281038252600e8152602001807f496e76616c696420496e6465782e00000000000000000000000000000000000081525060200191505060405180910390fd5b6000808573ffffffffffffffffffffffffffffffffffffffff1673ffffffffffffffffffffffffffffffffffffffff16815260200190815260200160002060008473ffffffffffffffffffffffffffffffffffffffff1673ffffffffffffffffffffffffffffffffffffffff1681526020019081526020016000208281548110620003c357fe5b9060005260206000200160009054906101000a900473ffffffffffffffffffffffffffffffffffffffff1690509392505050565b60008060008060008773ffffffffffffffffffffffffffffffffffffffff1673ffffffffffffffffffffffffffffffffffffffff16815260200190815260200160002060008673ffffffffffffffffffffffffffffffffffffffff1673ffffffffffffffffffffffffffffffffffffffff16815260200190815260200160002080549050841080156200048b575060008410155b620004fe576040517f08c379a000000000000000000000000000000000000000000000000000000000815260040180806020018281038252600e8152602001807f496e76616c696420496e6465782e00000000000000000000000000000000000081525060200191505060405180910390fd5b60008060008873ffffffffffffffffffffffffffffffffffffffff1673ffffffffffffffffffffffffffffffffffffffff16815260200190815260200160002060008773ffffffffffffffffffffffffffffffffffffffff1673ffffffffffffffffffffffffffffffffffffffff16815260200190815260200160002085815481106200058757fe5b9060005260206000200160009054906101000a900473ffffffffffffffffffffffffffffffffffffffff1690508073ffffffffffffffffffffffffffffffffffffffff166367e404ce6040518163ffffffff1660e01b815260040160206040518083038186803b158015620005fb57600080fd5b505afa15801562000610573d6000803e3d6000fd5b505050506040513d60208110156200062757600080fd5b810190808051906020019092919050505073ffffffffffffffffffffffffffffffffffffffff1663b3cea2176040518163ffffffff1660e01b815260040160206040518083038186803b1580156200067e57600080fd5b505afa15801562000693573d6000803e3d6000fd5b505050506040513d6020811015620006aa57600080fd5b81019080805190602001909291905050508173ffffffffffffffffffffffffffffffffffffffff1663f7260d3e6040518163ffffffff1660e01b815260040160206040518083038186803b1580156200070257600080fd5b505afa15801562000717573d6000803e3d6000fd5b505050506040513d60208110156200072e57600080fd5b810190808051906020019092919050505073ffffffffffffffffffffffffffffffffffffffff1663b3cea2176040518163ffffffff1660e01b815260040160206040518083038186803b1580156200078557600080fd5b505afa1580156200079a573d6000803e3d6000fd5b505050506040513d6020811015620007b157600080fd5b81019080805190602001909291905050508273ffffffffffffffffffffffffffffffffffffffff1663aa8c217c6040518163ffffffff1660e01b815260040160206040518083038186803b1580156200080957600080fd5b505afa1580156200081e573d6000803e3d6000fd5b505050506040513d60208110156200083557600080fd5b81019080805190602001909291905050509350935093505093509350939050565b6000600160009054906101000a900473ffffffffffffffffffffffffffffffffffffffff1673ffffffffffffffffffffffffffffffffffffffff16636f77926b336040518263ffffffff1660e01b8152600401808273ffffffffffffffffffffffffffffffffffffffff1673ffffffffffffffffffffffffffffffffffffffff16815260200191505060206040518083038186803b158015620008f857600080fd5b505afa1580156200090d573d6000803e3d6000fd5b505050506040513d60208110156200092457600080fd5b810190808051906020019092919050505090506000600160009054906101000a900473ffffffffffffffffffffffffffffffffffffffff1673ffffffffffffffffffffffffffffffffffffffff16636f77926b856040518263ffffffff1660e01b8152600401808273ffffffffffffffffffffffffffffffffffffffff1673ffffffffffffffffffffffffffffffffffffffff16815260200191505060206040518083038186803b158015620009d957600080fd5b505afa158015620009ee573d6000803e3d6000fd5b505050506040513d602081101562000a0557600080fd5b810190808051906020019092919050505090506000808373ffffffffffffffffffffffffffffffffffffffff1663b3cea2176040518163ffffffff1660e01b815260040160206040518083038186803b15801562000a6257600080fd5b505afa15801562000a77573d6000803e3d6000fd5b505050506040513d602081101562000a8e57600080fd5b810190808051906020019092919050505073ffffffffffffffffffffffffffffffffffffffff1673ffffffffffffffffffffffffffffffffffffffff16815260200190815260200160002060008273ffffffffffffffffffffffffffffffffffffffff1663b3cea2176040518163ffffffff1660e01b815260040160206040518083038186803b15801562000b2257600080fd5b505afa15801562000b37573d6000803e3d6000fd5b505050506040513d602081101562000b4e57600080fd5b810190808051906020019092919050505073ffffffffffffffffffffffffffffffffffffffff1673ffffffffffffffffffffffffffffffffffffffff16815260200190815260200160002082828560405162000baa9062000ca1565b808473ffffffffffffffffffffffffffffffffffffffff1673ffffffffffffffffffffffffffffffffffffffff1681526020018373ffffffffffffffffffffffffffffffffffffffff1673ffffffffffffffffffffffffffffffffffffffff1681526020018281526020019350505050604051809103906000f08015801562000c37573d6000803e3d6000fd5b5090806001815401808255809150509060018203906000526020600020016000909192909190916101000a81548173ffffffffffffffffffffffffffffffffffffffff021916908373ffffffffffffffffffffffffffffffffffffffff1602179055505050505050565b61064f8062000cb08339019056fe608060405234801561001057600080fd5b5060405160608061064f8339810180604052606081101561003057600080fd5b81019080805190602001909291908051906020019092919080519060200190929190505050808373ffffffffffffffffffffffffffffffffffffffff1663b69ef8a86040518163ffffffff1660e01b815260040160206040518083038186803b15801561009c57600080fd5b505afa1580156100b0573d6000803e3d6000fd5b505050506040513d60208110156100c657600080fd5b8101908080519060200190929190505050101561014b576040517f08c379a00000000000000000000000000000000000000000000000000000000081526004018080602001828103825260108152602001807f496e76616c69642042616c616e63652e0000000000000000000000000000000081525060200191505060405180910390fd5b826000806101000a81548173ffffffffffffffffffffffffffffffffffffffff021916908373ffffffffffffffffffffffffffffffffffffffff16021790555081600160006101000a81548173ffffffffffffffffffffffffffffffffffffffff021916908373ffffffffffffffffffffffffffffffffffffffff160217905550806002819055506101e16101e960201b60201c565b5050506104cb565b6002546000809054906101000a900473ffffffffffffffffffffffffffffffffffffffff1673ffffffffffffffffffffffffffffffffffffffff1663b69ef8a86040518163ffffffff1660e01b815260040160206040518083038186803b15801561025357600080fd5b505afa158015610267573d6000803e3d6000fd5b505050506040513d602081101561027d57600080fd5b81019080805190602001909291905050501015610302576040517f08c379a00000000000000000000000000000000000000000000000000000000081526004018080602001828103825260108152602001807f496e76616c69642042616c616e63652e0000000000000000000000000000000081525060200191505060405180910390fd5b6000809054906101000a900473ffffffffffffffffffffffffffffffffffffffff1673ffffffffffffffffffffffffffffffffffffffff1663392aee436002546040518263ffffffff1660e01b815260040180828152602001915050600060405180830381600087803b15801561037857600080fd5b505af115801561038c573d6000803e3d6000fd5b50505050600160009054906101000a900473ffffffffffffffffffffffffffffffffffffffff1673ffffffffffffffffffffffffffffffffffffffff16633e4ccb406002546040518263ffffffff1660e01b815260040180828152602001915050600060405180830381600087803b15801561040757600080fd5b505af115801561041b573d6000803e3d6000fd5b50505050600160009054906101000a900473ffffffffffffffffffffffffffffffffffffffff1673ffffffffffffffffffffffffffffffffffffffff166000809054906101000a900473ffffffffffffffffffffffffffffffffffffffff1673ffffffffffffffffffffffffffffffffffffffff167fddf252ad1be2c89b69c2b068fc378daa952ba7f163c4a11628f55a4df523b3ef6002546040518082815260200191505060405180910390a3565b610175806104da6000396000f3fe608060405234801561001057600080fd5b50600436106100415760003560e01c806367e404ce14610046578063aa8c217c14610090578063f7260d3e146100ae575b600080fd5b61004e6100f8565b604051808273ffffffffffffffffffffffffffffffffffffffff1673ffffffffffffffffffffffffffffffffffffffff16815260200191505060405180910390f35b61009861011d565b6040518082815260200191505060405180910390f35b6100b6610123565b604051808273ffffffffffffffffffffffffffffffffffffffff1673ffffffffffffffffffffffffffffffffffffffff16815260200191505060405180910390f35b6000809054906101000a900473ffffffffffffffffffffffffffffffffffffffff1681565b60025481565b600160009054906101000a900473ffffffffffffffffffffffffffffffffffffffff168156fea165627a7a7230582000a79df4d6d6828d20b11463daafd87f5a4d9513d2d1b04a6975278626d1c8c80029a165627a7a72305820b7291420c69af63072a4c9c74af5afe5a36ebe23508c47d23ea8f0206addf3a50029",
  "source": "pragma solidity >=0.4.0 <0.7.0;\r\n\r\nimport \"../contracts/UserManager.sol\";\r\nimport \"../contracts/Person.sol\";\r\nimport \"../contracts/Transaction.sol\";\r\n\r\ncontract TransactionManager {\r\n\tmapping (address => mapping (address => Transaction[]) ) transactions;\r\n\tUserManager UserManagerInstance;\r\n\r\n\tconstructor(UserManager _UserManagerInstance) public {\r\n\t\tUserManagerInstance = _UserManagerInstance;\r\n\t}\r\n\r\n\tfunction MakeTransaction(address _reciever, uint _amount) public {\r\n\t\tPerson sender = UserManagerInstance.getUser(msg.sender);\r\n\t\tPerson reciever = UserManagerInstance.getUser(_reciever);\r\n\r\n\t\ttransactions[sender.ID()][reciever.ID()].push(new Transaction(sender, reciever, _amount));\r\n\r\n\t\t/*\r\n\t\tTransaction temp = new Transaction(sender, reciever, _amount);\r\n\t\tif (temp.sendCoin()){\r\n\t\t\ttransactions[sender.ID()][reciever.ID()].push(temp);\r\n\t\t}\r\n\t\t*/\r\n\t}\r\n\r\n\tfunction getTransactions(address sender, address receiver, uint i) public view returns(Transaction) {\r\n\t\trequire(i < transactions[sender][receiver].length && i >= 0, \"Invalid Index.\");\r\n\t\treturn transactions[sender][receiver][i];\r\n\t}\r\n\r\n\tfunction getTransactionsJS(address sender, address receiver, uint i) public view returns(address, address, uint) {\r\n\t\trequire(i < transactions[sender][receiver].length && i >= 0, \"Invalid Index.\");\r\n\t\tTransaction temp = transactions[sender][receiver][i];\r\n\t\treturn (temp.sender().ID(), temp.receiver().ID(), temp.amount());\r\n\t}\r\n}",
  "sourcePath": "C:\\Users\\m5w5b\\Desktop\\GitHub\\game-dapp\\AccountRecovery\\contracts\\TransactionManager.sol",
  "compiler": {
    "name": "solc",
    "version": "0.5.8+commit.23d335f2.Emscripten.clang"
  },
  "schemaVersion": "3.0.16",
  "updatedAt": "2019-10-08T17:03:02.247Z",
  "devdoc": {
    "methods": {}
  },
  "userdoc": {
    "methods": {}
  }
}