{
  "contractName": "Transaction",
  "abi": [
    {
      "constant": true,
      "inputs": [],
      "name": "sender",
      "outputs": [
        {
          "name": "",
          "type": "address"
        }
      ],
      "payable": false,
      "stateMutability": "view",
      "type": "function"
    },
    {
      "constant": true,
      "inputs": [],
      "name": "amount",
      "outputs": [
        {
          "name": "",
          "type": "uint256"
        }
      ],
      "payable": false,
      "stateMutability": "view",
      "type": "function"
    },
    {
      "constant": true,
      "inputs": [],
      "name": "receiver",
      "outputs": [
        {
          "name": "",
          "type": "address"
        }
      ],
      "payable": false,
      "stateMutability": "view",
      "type": "function"
    },
    {
      "inputs": [
        {
          "name": "_sender",
          "type": "address"
        },
        {
          "name": "_reciever",
          "type": "address"
        },
        {
          "name": "_amount",
          "type": "uint256"
        }
      ],
      "payable": false,
      "stateMutability": "nonpayable",
      "type": "constructor"
    },
    {
      "anonymous": false,
      "inputs": [
        {
          "indexed": true,
          "name": "_from",
          "type": "address"
        },
        {
          "indexed": true,
          "name": "_to",
          "type": "address"
        },
        {
          "indexed": false,
          "name": "_value",
          "type": "uint256"
        }
      ],
      "name": "Transfer",
      "type": "event"
    },
    {
      "constant": true,
      "inputs": [],
      "name": "sendCoin",
      "outputs": [
        {
          "name": "sufficient",
          "type": "bool"
        }
      ],
      "payable": false,
      "stateMutability": "pure",
      "type": "function"
    }
  ],
  "bytecode": "0x608060405234801561001057600080fd5b506040516060806102b78339810180604052606081101561003057600080fd5b81019080805190602001909291908051906020019092919080519060200190929190505050826000806101000a81548173ffffffffffffffffffffffffffffffffffffffff021916908373ffffffffffffffffffffffffffffffffffffffff16021790555081600160006101000a81548173ffffffffffffffffffffffffffffffffffffffff021916908373ffffffffffffffffffffffffffffffffffffffff160217905550806002819055506100eb6100f460201b60201c565b505050506100fd565b60006001905090565b6101ab8061010c6000396000f3fe608060405234801561001057600080fd5b506004361061004c5760003560e01c806367e404ce14610051578063aa8c217c1461009b578063c621fe97146100b9578063f7260d3e146100db575b600080fd5b610059610125565b604051808273ffffffffffffffffffffffffffffffffffffffff1673ffffffffffffffffffffffffffffffffffffffff16815260200191505060405180910390f35b6100a361014a565b6040518082815260200191505060405180910390f35b6100c1610150565b604051808215151515815260200191505060405180910390f35b6100e3610159565b604051808273ffffffffffffffffffffffffffffffffffffffff1673ffffffffffffffffffffffffffffffffffffffff16815260200191505060405180910390f35b6000809054906101000a900473ffffffffffffffffffffffffffffffffffffffff1681565b60025481565b60006001905090565b600160009054906101000a900473ffffffffffffffffffffffffffffffffffffffff168156fea165627a7a723058200d03841bd136358a91bead6db43d62c9c26121aa21889eceefe94329fb8fc2600029",
  "source": "pragma solidity >=0.4.25 <0.6.0;\n\n\ncontract Manager {\n\n\tmapping (address => Person) Users;\n\n\tconstructor(address[] memory _addresses) public {\n\t\tfor (uint i = 0; i < _addresses.length; i++) {\n\t\t\tUsers[_addresses[i]] = Person(_addresses[i]);\n\t\t}\t\n\t}\n}\n\ncontract Person {\n\taddress public ID;\n\tuint public balance;\n\n\tconstructor(address _ID, uint _balance) public {\n\t\tID = _ID;\n\t\tbalance = _balance;\n\t}\n}\n\ncontract Transaction {\n\n\tPerson public sender;\n\tPerson public receiver;\n\tuint public amount;\n\n\tevent Transfer(address indexed _from, address indexed _to, uint256 _value);\n\n\tconstructor(Person _sender, Person _reciever, uint _amount) public {\n\t\tsender = _sender;\n\t\treceiver = _reciever;\n\t\tamount = _amount;\n\t\tsendCoin();\n\t}\n\n\tfunction sendCoin() public pure returns(bool sufficient) {\n\t\t/*\n\t\tif (balances[msg.sender] < amount) return false;\n\t\tbalances[msg.sender] -= amount;\n\t\tbalances[receiver] += amount;\n\t\temit Transfer(msg.sender, receiver, amount);\n\t\t*/\n\t\treturn true;\n\t}\n}\n\ncontract VotingToken {\n\n\tstruct token {\n\t\tbool vote;\n\t\tbool eligible;\n\t\tbool voted;\n\t}\n\n\tmapping (address => token) votes;\n\taddress[] public voters;\n\taddress public oldAccount;\n\taddress public newAccount;\n\tuint256 public result;\n\tuint256 public margin;\n\n\tevent Vote(address indexed _from, bool _choice);\n\n\tconstructor(address[] memory _voters, address _oldAccount, address _newAccount) public {\n\n\t\toldAccount = _oldAccount;\n\t\tnewAccount = _newAccount;\n\t\tvoters = _voters;\n\n\t\tfor (uint i = 0; i < voters.length; i++) {\n\t\t\tvotes[voters[i]] = token(false, true, false);\n\t\t}\n\n\t\tresult = 0;\t\n\t\tmargin = 6;\n\t}\n\n\tfunction random(uint8 size) public view returns (uint8) {\n        return uint8(uint256(keccak256(abi.encodePacked(block.timestamp, block.difficulty)))%size);\n    }\n\n\tfunction CastVote(address from, bool choice) public {\n\t\tif (votes[from].eligible == false) return;\n\t\tif (votes[from].voted == true) return;\n\t\tvotes[from].vote = choice;\n\t\tvotes[from].eligible = false;\n\t\tvotes[from].voted = true;\n\t\temit Vote(from, choice);\n\t}\n\n\tfunction getVotes() public view returns(uint) {\n\t\tuint yeses = 0;\n\n\t\tfor (uint i = 0; i < voters.length; i++) {\n\t\t\ttoken memory temp = votes[voters[i]];\n\t\t\tif (temp.voted == true){\n\t\t\t\tif (temp.vote == true){\n\t\t\t\t\tyeses++;\n\t\t\t\t}\n\t\t\t}\t\t\t\n\t\t}\n\t\treturn yeses;\n\t}\n\n\tfunction getOutcome() public view returns(bool) {\n\t\treturn result >= margin;\n\t}\n\n\tfunction getResult() public view returns(uint256) {\n\t\treturn result;\n\t}\n\n\tfunction CountVotes(address from) public {\n\t\tif (from != newAccount) return;\n\n\t\tuint yeses = 0;\n\t\tuint total = 0;\n\n\t\tfor (uint i = 0; i < voters.length; i++) {\n\t\t\ttoken memory temp = votes[voters[i]];\n\t\t\tif (temp.voted == true){\n\t\t\t\tif (temp.vote == true){\n\t\t\t\t\tyeses++;\n\t\t\t\t}\n\t\t\t\ttotal++;\n\t\t\t}\t\t\t\n\t\t}\n\n\t\tresult = (yeses*10) / total;\n\t}\n}\n",
  "sourcePath": "C:/Users/m5w5b/Desktop/GitHub/game-dapp/AccountRecovery/contracts/Contracts.sol",
  "compiler": {
    "name": "solc",
    "version": "0.5.8+commit.23d335f2.Emscripten.clang"
  },
  "schemaVersion": "3.0.16",
  "updatedAt": "2019-10-04T18:11:15.903Z",
  "devdoc": {
    "methods": {}
  },
  "userdoc": {
    "methods": {}
  }
}