{
  "contractName": "TransactionManager",
  "abi": [
    {
      "inputs": [
        {
          "name": "UserManagerAddress",
          "type": "address"
        },
        {
          "name": "ProposalManagerAddress",
          "type": "address"
        }
      ],
      "payable": false,
      "stateMutability": "nonpayable",
      "type": "constructor"
    },
    {
      "constant": false,
      "inputs": [],
      "name": "BuyCoin",
      "outputs": [],
      "payable": true,
      "stateMutability": "payable",
      "type": "function"
    },
    {
      "constant": false,
      "inputs": [
        {
          "name": "_reciever",
          "type": "address"
        },
        {
          "name": "_amount",
          "type": "uint256"
        }
      ],
      "name": "MakeTransaction",
      "outputs": [],
      "payable": false,
      "stateMutability": "nonpayable",
      "type": "function"
    },
    {
      "constant": true,
      "inputs": [
        {
          "name": "sender",
          "type": "address"
        },
        {
          "name": "receiver",
          "type": "address"
        }
      ],
      "name": "getTransactions",
      "outputs": [
        {
          "name": "",
          "type": "address[]"
        }
      ],
      "payable": false,
      "stateMutability": "view",
      "type": "function"
    },
    {
      "constant": true,
      "inputs": [
        {
          "name": "sender",
          "type": "address"
        },
        {
          "name": "receiver",
          "type": "address"
        }
      ],
      "name": "NumberOfTransactions",
      "outputs": [
        {
          "name": "",
          "type": "uint256"
        }
      ],
      "payable": false,
      "stateMutability": "view",
      "type": "function"
    },
    {
      "constant": true,
      "inputs": [
        {
          "name": "sender",
          "type": "address"
        },
        {
          "name": "receiver",
          "type": "address"
        },
        {
          "name": "i",
          "type": "uint256"
        }
      ],
      "name": "getTransactionJS",
      "outputs": [
        {
          "name": "",
          "type": "address"
        },
        {
          "name": "",
          "type": "address"
        },
        {
          "name": "",
          "type": "uint256"
        }
      ],
      "payable": false,
      "stateMutability": "view",
      "type": "function"
    },
    {
      "constant": true,
      "inputs": [
        {
          "name": "sender",
          "type": "address"
        },
        {
          "name": "receiver",
          "type": "address"
        },
        {
          "name": "timeStamp",
          "type": "uint256"
        },
        {
          "name": "_amount",
          "type": "uint256"
        }
      ],
      "name": "Equal",
      "outputs": [],
      "payable": false,
      "stateMutability": "view",
      "type": "function"
    },
    {
      "constant": false,
      "inputs": [
        {
          "name": "account",
          "type": "address"
        }
      ],
      "name": "getHaveTradedWith",
      "outputs": [
        {
          "name": "",
          "type": "address[]"
        }
      ],
      "payable": false,
      "stateMutability": "nonpayable",
      "type": "function"
    }
  ],
  "bytecode": "0x608060405234801561001057600080fd5b50604051604080612ccd8339810180604052604081101561003057600080fd5b81019080805190602001909291908051906020019092919050505081600260006101000a81548173ffffffffffffffffffffffffffffffffffffffff021916908373ffffffffffffffffffffffffffffffffffffffff16021790555080600360006101000a81548173ffffffffffffffffffffffffffffffffffffffff021916908373ffffffffffffffffffffffffffffffffffffffff1602179055505050612bef806100de6000396000f3fe6080604052600436106200007a5760003560e01c8063876cb1081162000055578063876cb10814620001c0578063b1f7e43c146200028c578063db3b001f14620002eb578063f90bee5614620003e4576200007a565b806314ee741f146200007f5780637f3d25de1462000108578063827e247914620001b4575b600080fd5b3480156200008c57600080fd5b50620000f260048036036040811015620000a557600080fd5b81019080803573ffffffffffffffffffffffffffffffffffffffff169060200190929190803573ffffffffffffffffffffffffffffffffffffffff1690602001909291905050506200046d565b6040518082815260200191505060405180910390f35b3480156200011557600080fd5b506200015b600480360360208110156200012e57600080fd5b81019080803573ffffffffffffffffffffffffffffffffffffffff169060200190929190505050620004f6565b6040518080602001828103825283818151815260200191508051906020019060200280838360005b83811015620001a057808201518184015260208101905062000183565b505050509050019250505060405180910390f35b620001be6200075f565b005b348015620001cd57600080fd5b506200023360048036036040811015620001e657600080fd5b81019080803573ffffffffffffffffffffffffffffffffffffffff169060200190929190803573ffffffffffffffffffffffffffffffffffffffff16906020019092919050505062000b0b565b6040518080602001828103825283818151815260200191508051906020019060200280838360005b83811015620002785780820151818401526020810190506200025b565b505050509050019250505060405180910390f35b3480156200029957600080fd5b50620002e960048036036040811015620002b257600080fd5b81019080803573ffffffffffffffffffffffffffffffffffffffff1690602001909291908035906020019092919050505062000c17565b005b348015620002f857600080fd5b5062000368600480360360608110156200031157600080fd5b81019080803573ffffffffffffffffffffffffffffffffffffffff169060200190929190803573ffffffffffffffffffffffffffffffffffffffff1690602001909291908035906020019092919050505062001773565b604051808473ffffffffffffffffffffffffffffffffffffffff1673ffffffffffffffffffffffffffffffffffffffff1681526020018373ffffffffffffffffffffffffffffffffffffffff1673ffffffffffffffffffffffffffffffffffffffff168152602001828152602001935050505060405180910390f35b348015620003f157600080fd5b506200046b600480360360808110156200040a57600080fd5b81019080803573ffffffffffffffffffffffffffffffffffffffff169060200190929190803573ffffffffffffffffffffffffffffffffffffffff1690602001909291908035906020019092919080359060200190929190505050620019d2565b005b60008060008473ffffffffffffffffffffffffffffffffffffffff1673ffffffffffffffffffffffffffffffffffffffff16815260200190815260200160002060008373ffffffffffffffffffffffffffffffffffffffff1673ffffffffffffffffffffffffffffffffffffffff16815260200190815260200160002080549050905092915050565b606060016000620005089190620022fb565b6060600260009054906101000a900473ffffffffffffffffffffffffffffffffffffffff1673ffffffffffffffffffffffffffffffffffffffff1663a39fac126040518163ffffffff1660e01b815260040160006040518083038186803b1580156200057357600080fd5b505afa15801562000588573d6000803e3d6000fd5b505050506040513d6000823e3d601f19601f820116820180604052506020811015620005b357600080fd5b810190808051640100000000811115620005cc57600080fd5b82810190506020810184811115620005e357600080fd5b81518560208202830111640100000000821117156200060157600080fd5b5050929190505050905060008090505b8151811015620006cd5760006200063d858484815181106200062f57fe5b60200260200101516200046d565b1115620006bf5760018282815181106200065357fe5b602002602001015190806001815401808255809150509060018203906000526020600020016000909192909190916101000a81548173ffffffffffffffffffffffffffffffffffffffff021916908373ffffffffffffffffffffffffffffffffffffffff160217905550505b808060010191505062000611565b5060018054806020026020016040519081016040528092919081815260200182805480156200075257602002820191906000526020600020905b8160009054906101000a900473ffffffffffffffffffffffffffffffffffffffff1673ffffffffffffffffffffffffffffffffffffffff168152602001906001019080831162000707575b5050505050915050919050565b600360009054906101000a900473ffffffffffffffffffffffffffffffffffffffff1673ffffffffffffffffffffffffffffffffffffffff16634418adbc336040518263ffffffff1660e01b8152600401808273ffffffffffffffffffffffffffffffffffffffff1673ffffffffffffffffffffffffffffffffffffffff16815260200191505060206040518083038186803b158015620007ff57600080fd5b505afa15801562000814573d6000803e3d6000fd5b505050506040513d60208110156200082b57600080fd5b810190808051906020019092919050505015620008b0576040517f08c379a00000000000000000000000000000000000000000000000000000000081526004018080602001828103825260198152602001807f5468652073656e64657220697320626c61636b6c69737465640000000000000081525060200191505060405180910390fd5b6000600260009054906101000a900473ffffffffffffffffffffffffffffffffffffffff1673ffffffffffffffffffffffffffffffffffffffff16636f77926b336040518263ffffffff1660e01b8152600401808273ffffffffffffffffffffffffffffffffffffffff1673ffffffffffffffffffffffffffffffffffffffff16815260200191505060206040518083038186803b1580156200095257600080fd5b505afa15801562000967573d6000803e3d6000fd5b505050506040513d60208110156200097e57600080fd5b810190808051906020019092919050505090506000600260009054906101000a900473ffffffffffffffffffffffffffffffffffffffff1673ffffffffffffffffffffffffffffffffffffffff16636e9960c36040518163ffffffff1660e01b815260040160206040518083038186803b158015620009fc57600080fd5b505afa15801562000a11573d6000803e3d6000fd5b505050506040513d602081101562000a2857600080fd5b810190808051906020019092919050505090508073ffffffffffffffffffffffffffffffffffffffff166108fc349081150290604051600060405180830381858888f1935050505015801562000a82573d6000803e3d6000fd5b506000662386f26fc10000348162000a9657fe5b0490508273ffffffffffffffffffffffffffffffffffffffff16633e4ccb40826040518263ffffffff1660e01b815260040180828152602001915050600060405180830381600087803b15801562000aed57600080fd5b505af115801562000b02573d6000803e3d6000fd5b50505050505050565b60606000808473ffffffffffffffffffffffffffffffffffffffff1673ffffffffffffffffffffffffffffffffffffffff16815260200190815260200160002060008373ffffffffffffffffffffffffffffffffffffffff1673ffffffffffffffffffffffffffffffffffffffff16815260200190815260200160002080548060200260200160405190810160405280929190818152602001828054801562000c0a57602002820191906000526020600020905b8160009054906101000a900473ffffffffffffffffffffffffffffffffffffffff1673ffffffffffffffffffffffffffffffffffffffff168152602001906001019080831162000bbf575b5050505050905092915050565b3373ffffffffffffffffffffffffffffffffffffffff168273ffffffffffffffffffffffffffffffffffffffff16141562000cba576040517f08c379a000000000000000000000000000000000000000000000000000000000815260040180806020018281038252601e8152602001807f43616e206e6f742073656e64206d6f6e657920746f20796f757273656c66000081525060200191505060405180910390fd5b600260009054906101000a900473ffffffffffffffffffffffffffffffffffffffff1673ffffffffffffffffffffffffffffffffffffffff16636e9960c36040518163ffffffff1660e01b815260040160206040518083038186803b15801562000d2357600080fd5b505afa15801562000d38573d6000803e3d6000fd5b505050506040513d602081101562000d4f57600080fd5b810190808051906020019092919050505073ffffffffffffffffffffffffffffffffffffffff168273ffffffffffffffffffffffffffffffffffffffff16141562000e02576040517f08c379a000000000000000000000000000000000000000000000000000000000815260040180806020018281038252601f8152602001807f43616e206e6f742073656e64206d6f6e657920746f207468652061646d696e0081525060200191505060405180910390fd5b600360009054906101000a900473ffffffffffffffffffffffffffffffffffffffff1673ffffffffffffffffffffffffffffffffffffffff16634418adbc336040518263ffffffff1660e01b8152600401808273ffffffffffffffffffffffffffffffffffffffff1673ffffffffffffffffffffffffffffffffffffffff16815260200191505060206040518083038186803b15801562000ea257600080fd5b505afa15801562000eb7573d6000803e3d6000fd5b505050506040513d602081101562000ece57600080fd5b81019080805190602001909291905050501562000f53576040517f08c379a00000000000000000000000000000000000000000000000000000000081526004018080602001828103825260198152602001807f5468652073656e64657220697320626c61636b6c69737465640000000000000081525060200191505060405180910390fd5b600360009054906101000a900473ffffffffffffffffffffffffffffffffffffffff1673ffffffffffffffffffffffffffffffffffffffff16634418adbc836040518263ffffffff1660e01b8152600401808273ffffffffffffffffffffffffffffffffffffffff1673ffffffffffffffffffffffffffffffffffffffff16815260200191505060206040518083038186803b15801562000ff357600080fd5b505afa15801562001008573d6000803e3d6000fd5b505050506040513d60208110156200101f57600080fd5b810190808051906020019092919050505015620010a4576040517f08c379a000000000000000000000000000000000000000000000000000000000815260040180806020018281038252601b8152602001807f54686520726563696576657220697320626c61636b6c6973746564000000000081525060200191505060405180910390fd5b6060600260009054906101000a900473ffffffffffffffffffffffffffffffffffffffff1673ffffffffffffffffffffffffffffffffffffffff1663a39fac126040518163ffffffff1660e01b815260040160006040518083038186803b1580156200110f57600080fd5b505afa15801562001124573d6000803e3d6000fd5b505050506040513d6000823e3d601f19601f8201168201806040525060208110156200114f57600080fd5b8101908080516401000000008111156200116857600080fd5b828101905060208101848111156200117f57600080fd5b81518560208202830111640100000000821117156200119d57600080fd5b50509291905050509050620011b433848362001c35565b1562001228576040517f08c379a000000000000000000000000000000000000000000000000000000000815260040180806020018281038252600f8152602001807f546869732069732062726962657279000000000000000000000000000000000081525060200191505060405180910390fd5b600062001236338362002186565b90505b600073ffffffffffffffffffffffffffffffffffffffff168173ffffffffffffffffffffffffffffffffffffffff16146200142c57600360009054906101000a900473ffffffffffffffffffffffffffffffffffffffff1673ffffffffffffffffffffffffffffffffffffffff16636f4b8b7233836040518363ffffffff1660e01b8152600401808373ffffffffffffffffffffffffffffffffffffffff1673ffffffffffffffffffffffffffffffffffffffff1681526020018273ffffffffffffffffffffffffffffffffffffffff1673ffffffffffffffffffffffffffffffffffffffff16815260200192505050600060405180830381600087803b1580156200134457600080fd5b505af115801562001359573d6000803e3d6000fd5b50505050600360009054906101000a900473ffffffffffffffffffffffffffffffffffffffff1673ffffffffffffffffffffffffffffffffffffffff166380345d9d826040518263ffffffff1660e01b8152600401808273ffffffffffffffffffffffffffffffffffffffff1673ffffffffffffffffffffffffffffffffffffffff168152602001915050600060405180830381600087803b158015620013ff57600080fd5b505af115801562001414573d6000803e3d6000fd5b5050505062001424338362002186565b905062001239565b6000600260009054906101000a900473ffffffffffffffffffffffffffffffffffffffff1673ffffffffffffffffffffffffffffffffffffffff16636f77926b336040518263ffffffff1660e01b8152600401808273ffffffffffffffffffffffffffffffffffffffff1673ffffffffffffffffffffffffffffffffffffffff16815260200191505060206040518083038186803b158015620014ce57600080fd5b505afa158015620014e3573d6000803e3d6000fd5b505050506040513d6020811015620014fa57600080fd5b810190808051906020019092919050505090506000600260009054906101000a900473ffffffffffffffffffffffffffffffffffffffff1673ffffffffffffffffffffffffffffffffffffffff16636f77926b876040518263ffffffff1660e01b8152600401808273ffffffffffffffffffffffffffffffffffffffff1673ffffffffffffffffffffffffffffffffffffffff16815260200191505060206040518083038186803b158015620015af57600080fd5b505afa158015620015c4573d6000803e3d6000fd5b505050506040513d6020811015620015db57600080fd5b810190808051906020019092919050505090506000803373ffffffffffffffffffffffffffffffffffffffff1673ffffffffffffffffffffffffffffffffffffffff16815260200190815260200160002060008773ffffffffffffffffffffffffffffffffffffffff1673ffffffffffffffffffffffffffffffffffffffff1681526020019081526020016000208282876040516200167a906200231e565b808473ffffffffffffffffffffffffffffffffffffffff1673ffffffffffffffffffffffffffffffffffffffff1681526020018373ffffffffffffffffffffffffffffffffffffffff1673ffffffffffffffffffffffffffffffffffffffff1681526020018281526020019350505050604051809103906000f08015801562001707573d6000803e3d6000fd5b5090806001815401808255809150509060018203906000526020600020016000909192909190916101000a81548173ffffffffffffffffffffffffffffffffffffffff021916908373ffffffffffffffffffffffffffffffffffffffff16021790555050505050505050565b60008060008060008773ffffffffffffffffffffffffffffffffffffffff1673ffffffffffffffffffffffffffffffffffffffff16815260200190815260200160002060008673ffffffffffffffffffffffffffffffffffffffff1673ffffffffffffffffffffffffffffffffffffffff168152602001908152602001600020805490508410801562001807575060008410155b6200187a576040517f08c379a000000000000000000000000000000000000000000000000000000000815260040180806020018281038252600d8152602001807f496e76616c696420496e6465780000000000000000000000000000000000000081525060200191505060405180910390fd5b6000808773ffffffffffffffffffffffffffffffffffffffff1673ffffffffffffffffffffffffffffffffffffffff16815260200190815260200160002060008673ffffffffffffffffffffffffffffffffffffffff1673ffffffffffffffffffffffffffffffffffffffff16815260200190815260200160002084815481106200190157fe5b9060005260206000200160009054906101000a900473ffffffffffffffffffffffffffffffffffffffff1673ffffffffffffffffffffffffffffffffffffffff166359705f816040518163ffffffff1660e01b815260040160606040518083038186803b1580156200197257600080fd5b505afa15801562001987573d6000803e3d6000fd5b505050506040513d60608110156200199e57600080fd5b8101908080519060200190929190805190602001909291908051906020019092919050505092509250925093509350939050565b60008060008673ffffffffffffffffffffffffffffffffffffffff1673ffffffffffffffffffffffffffffffffffffffff16815260200190815260200160002060008573ffffffffffffffffffffffffffffffffffffffff1673ffffffffffffffffffffffffffffffffffffffff1681526020019081526020016000209050600080905060008090505b828054905081101562001bb85782818154811062001a7657fe5b9060005260206000200160009054906101000a900473ffffffffffffffffffffffffffffffffffffffff1673ffffffffffffffffffffffffffffffffffffffff166315ca5854868989886040518563ffffffff1660e01b8152600401808581526020018473ffffffffffffffffffffffffffffffffffffffff1673ffffffffffffffffffffffffffffffffffffffff1681526020018373ffffffffffffffffffffffffffffffffffffffff1673ffffffffffffffffffffffffffffffffffffffff16815260200182815260200194505050505060206040518083038186803b15801562001b6257600080fd5b505afa15801562001b77573d6000803e3d6000fd5b505050506040513d602081101562001b8e57600080fd5b81019080805190602001909291905050501562001baa57600191505b808060010191505062001a5c565b508062001c2d576040517f08c379a000000000000000000000000000000000000000000000000000000000815260040180806020018281038252601f8152602001807f54686973207472616e73616374696f6e20646f6573206e6f742065786973740081525060200191505060405180910390fd5b505050505050565b600080600090505b82518110156200217957600360009054906101000a900473ffffffffffffffffffffffffffffffffffffffff1673ffffffffffffffffffffffffffffffffffffffff166380b9152884838151811062001c9257fe5b6020026020010151876040518363ffffffff1660e01b8152600401808373ffffffffffffffffffffffffffffffffffffffff1673ffffffffffffffffffffffffffffffffffffffff1681526020018273ffffffffffffffffffffffffffffffffffffffff1673ffffffffffffffffffffffffffffffffffffffff1681526020019250505060206040518083038186803b15801562001d2f57600080fd5b505afa15801562001d44573d6000803e3d6000fd5b505050506040513d602081101562001d5b57600080fd5b8101908080519060200190929190505050156200216b576000600360009054906101000a900473ffffffffffffffffffffffffffffffffffffffff1673ffffffffffffffffffffffffffffffffffffffff1663d4b3853685848151811062001dbf57fe5b6020026020010151886040518363ffffffff1660e01b8152600401808373ffffffffffffffffffffffffffffffffffffffff1673ffffffffffffffffffffffffffffffffffffffff1681526020018273ffffffffffffffffffffffffffffffffffffffff1673ffffffffffffffffffffffffffffffffffffffff1681526020019250505060206040518083038186803b15801562001e5c57600080fd5b505afa15801562001e71573d6000803e3d6000fd5b505050506040513d602081101562001e8857600080fd5b8101908080519060200190929190505050905060608173ffffffffffffffffffffffffffffffffffffffff1663cdd722536040518163ffffffff1660e01b815260040160006040518083038186803b15801562001ee457600080fd5b505afa15801562001ef9573d6000803e3d6000fd5b505050506040513d6000823e3d601f19601f82011682018060405250602081101562001f2457600080fd5b81019080805164010000000081111562001f3d57600080fd5b8281019050602081018481111562001f5457600080fd5b815185602082028301116401000000008211171562001f7257600080fd5b5050929190505050905060008090505b815181101562002167578673ffffffffffffffffffffffffffffffffffffffff1682828151811062001fb057fe5b602002602001015173ffffffffffffffffffffffffffffffffffffffff1614156200215957600360009054906101000a900473ffffffffffffffffffffffffffffffffffffffff1673ffffffffffffffffffffffffffffffffffffffff166380345d9d886040518263ffffffff1660e01b8152600401808273ffffffffffffffffffffffffffffffffffffffff1673ffffffffffffffffffffffffffffffffffffffff168152602001915050600060405180830381600087803b1580156200207757600080fd5b505af11580156200208c573d6000803e3d6000fd5b50505050600360009054906101000a900473ffffffffffffffffffffffffffffffffffffffff1673ffffffffffffffffffffffffffffffffffffffff166380345d9d896040518263ffffffff1660e01b8152600401808273ffffffffffffffffffffffffffffffffffffffff1673ffffffffffffffffffffffffffffffffffffffff168152602001915050600060405180830381600087803b1580156200213257600080fd5b505af115801562002147573d6000803e3d6000fd5b5050505060019450505050506200217f565b808060010191505062001f82565b5050505b808060010191505062001c3d565b50600090505b9392505050565b600080600090505b8251811015620022ef57600360009054906101000a900473ffffffffffffffffffffffffffffffffffffffff1673ffffffffffffffffffffffffffffffffffffffff166380b9152885858481518110620021e457fe5b60200260200101516040518363ffffffff1660e01b8152600401808373ffffffffffffffffffffffffffffffffffffffff1673ffffffffffffffffffffffffffffffffffffffff1681526020018273ffffffffffffffffffffffffffffffffffffffff1673ffffffffffffffffffffffffffffffffffffffff1681526020019250505060206040518083038186803b1580156200228057600080fd5b505afa15801562002295573d6000803e3d6000fd5b505050506040513d6020811015620022ac57600080fd5b810190808051906020019092919050505015620022e157828181518110620022d057fe5b6020026020010151915050620022f5565b80806001019150506200218e565b50600090505b92915050565b50805460008255906000526020600020908101906200231b91906200232c565b50565b61086f806200235583390190565b6200235191905b808211156200234d57600081600090555060010162002333565b5090565b9056fe608060405234801561001057600080fd5b5060405160608061086f8339810180604052606081101561003057600080fd5b81019080805190602001909291908051906020019092919080519060200190929190505050808373ffffffffffffffffffffffffffffffffffffffff1663b69ef8a86040518163ffffffff1660e01b815260040160206040518083038186803b15801561009c57600080fd5b505afa1580156100b0573d6000803e3d6000fd5b505050506040513d60208110156100c657600080fd5b8101908080519060200190929190505050101561014b576040517f08c379a00000000000000000000000000000000000000000000000000000000081526004018080602001828103825260108152602001807f496e76616c69642042616c616e63652e0000000000000000000000000000000081525060200191505060405180910390fd5b826000806101000a81548173ffffffffffffffffffffffffffffffffffffffff021916908373ffffffffffffffffffffffffffffffffffffffff16021790555081600160006101000a81548173ffffffffffffffffffffffffffffffffffffffff021916908373ffffffffffffffffffffffffffffffffffffffff16021790555042600281905550806003819055506000809054906101000a900473ffffffffffffffffffffffffffffffffffffffff1673ffffffffffffffffffffffffffffffffffffffff1663392aee436003546040518263ffffffff1660e01b815260040180828152602001915050600060405180830381600087803b15801561025057600080fd5b505af1158015610264573d6000803e3d6000fd5b50505050600160009054906101000a900473ffffffffffffffffffffffffffffffffffffffff1673ffffffffffffffffffffffffffffffffffffffff16633e4ccb406003546040518263ffffffff1660e01b815260040180828152602001915050600060405180830381600087803b1580156102df57600080fd5b505af11580156102f3573d6000803e3d6000fd5b50505050600160009054906101000a900473ffffffffffffffffffffffffffffffffffffffff1673ffffffffffffffffffffffffffffffffffffffff166000809054906101000a900473ffffffffffffffffffffffffffffffffffffffff1673ffffffffffffffffffffffffffffffffffffffff167fddf252ad1be2c89b69c2b068fc378daa952ba7f163c4a11628f55a4df523b3ef6003546040518082815260200191505060405180910390a35050506104bc806103b36000396000f3fe608060405234801561001057600080fd5b50600436106100365760003560e01c806315ca58541461003b57806359705f81146100cb575b600080fd5b6100b16004803603608081101561005157600080fd5b8101908080359060200190929190803573ffffffffffffffffffffffffffffffffffffffff169060200190929190803573ffffffffffffffffffffffffffffffffffffffff1690602001909291908035906020019092919050505061014f565b604051808215151515815260200191505060405180910390f35b6100d3610338565b604051808473ffffffffffffffffffffffffffffffffffffffff1673ffffffffffffffffffffffffffffffffffffffff1681526020018373ffffffffffffffffffffffffffffffffffffffff1673ffffffffffffffffffffffffffffffffffffffff168152602001828152602001935050505060405180910390f35b600080600a60025403861015801561016c5750600a600254018611155b905080801561024757508473ffffffffffffffffffffffffffffffffffffffff166000809054906101000a900473ffffffffffffffffffffffffffffffffffffffff1673ffffffffffffffffffffffffffffffffffffffff1663b3cea2176040518163ffffffff1660e01b815260040160206040518083038186803b1580156101f457600080fd5b505afa158015610208573d6000803e3d6000fd5b505050506040513d602081101561021e57600080fd5b810190808051906020019092919050505073ffffffffffffffffffffffffffffffffffffffff16145b801561032057508373ffffffffffffffffffffffffffffffffffffffff16600160009054906101000a900473ffffffffffffffffffffffffffffffffffffffff1673ffffffffffffffffffffffffffffffffffffffff1663b3cea2176040518163ffffffff1660e01b815260040160206040518083038186803b1580156102cd57600080fd5b505afa1580156102e1573d6000803e3d6000fd5b505050506040513d60208110156102f757600080fd5b810190808051906020019092919050505073ffffffffffffffffffffffffffffffffffffffff16145b801561032d575060035483145b915050949350505050565b60008060008060009054906101000a900473ffffffffffffffffffffffffffffffffffffffff1673ffffffffffffffffffffffffffffffffffffffff1663b3cea2176040518163ffffffff1660e01b815260040160206040518083038186803b1580156103a457600080fd5b505afa1580156103b8573d6000803e3d6000fd5b505050506040513d60208110156103ce57600080fd5b8101908080519060200190929190505050600160009054906101000a900473ffffffffffffffffffffffffffffffffffffffff1673ffffffffffffffffffffffffffffffffffffffff1663b3cea2176040518163ffffffff1660e01b815260040160206040518083038186803b15801561044757600080fd5b505afa15801561045b573d6000803e3d6000fd5b505050506040513d602081101561047157600080fd5b810190808051906020019092919050505060035492509250925090919256fea165627a7a72305820c60f40ac423a6e6792d9ab2d5bbdf7d42695679086c70ce701272ac4da9579ac0029a165627a7a72305820b8d737178af350285bb9319b7870ea41c44314ec73f9565c87e3e5af72b08d080029",
  "source": "/* TransactionManager.sol */\r\n\r\npragma solidity >=0.4.0 <0.7.0;\r\n\r\nimport \"../contracts/UserManager.sol\";\r\nimport \"../contracts/ProposalManager.sol\";\r\n\r\nimport \"../contracts/Person.sol\";\r\nimport \"../contracts/Transaction.sol\";\r\n\r\n/* <Summary> \r\n\tManages the list of transaction as well as making transactions\r\n*/\r\n\r\ncontract TransactionManager {\r\n\r\n\t// A map of all transaction on the ledger\r\n\tmapping (address => mapping (address => Transaction[]) ) transactions;\r\n\r\n\t// A array used to return the trade partners of a give account\r\n\taddress[] haveTradedWith;\r\n\r\n\tUserManager UMI;\t\t// Connects to the list of users on the network\r\n\tProposalManager PMI;\t// Connects to the list of active proposals on the network\r\n\r\n\tconstructor(address UserManagerAddress, address ProposalManagerAddress) public {\r\n\t\tUMI = UserManager(UserManagerAddress);\r\n\t\tPMI = ProposalManager(ProposalManagerAddress);\r\n\t}\r\n\r\n\t// Allows a users to buy coins from the admin\r\n\tfunction BuyCoin() external payable {\r\n\t\t// Requires that the user is not blacklisted\r\n\t\trequire (!PMI.getBlacklistedAccount(msg.sender), \r\n\t\t\t\"The sender is blacklisted\");\r\n\r\n\t\tPerson buyer = UMI.getUser(msg.sender); \t\t// Finds buyer\r\n\t\taddress payable admin = UMI.getAdmin();\t\t\t// Get admin's address\r\n\r\n\t\tadmin.transfer(msg.value);\t\t\t\t\t\t// Send ETH to admin\r\n\t\tuint price = msg.value/10000000000000000;\t\t// 1 ETH = 100 Coins\r\n\t\tbuyer.increaseBalance(price);\t\t\t\t\t// Increase the buyer's balance\r\n\r\n\t}\r\n\r\n\t// Makes a transaction between 2 users\r\n\tfunction MakeTransaction(address _reciever, uint _amount) external {\r\n\r\n\t\t// Requires that the sender is not the reciever\r\n\t\trequire (_reciever != msg.sender, \"Can not send money to yourself\");\r\n\r\n\t\t// Requires that the receiver is not the admin\r\n\t\trequire (_reciever != address(UMI.getAdmin()), \r\n\t\t\t\"Can not send money to the admin\");\r\n\r\n\t\t// Checks if either account is blacklisted\r\n\t\trequire (!PMI.getBlacklistedAccount(msg.sender), \r\n\t\t\t\"The sender is blacklisted\");\r\n\t\trequire (!PMI.getBlacklistedAccount(_reciever), \r\n\t\t\t\"The reciever is blacklisted\");\r\n\r\n\t\t// List of addresses on the network\r\n\t\taddress[] memory addresses = UMI.getAddresses(); \r\n\r\n\t\t// Checks if the reciever is a voter for a proposal where the sender \r\n\t\t//  is the new account. This is bribery  \r\n\t\trequire (!CheckForBribery(msg.sender, _reciever, addresses), \"This is bribery\");\r\n\r\n\t\t// Checks if the sender is the old account of any proposals\r\n\t\t//  Finds if there is a proposal and returns the new account\r\n\t\t//  If it returns 0x00.. then there is no more proposals\r\n\t\taddress newAccount = CheckForOldAccount(msg.sender, addresses);\r\n\r\n\t\t// Until there is no more proposals\r\n\t\twhile (newAccount != 0x0000000000000000000000000000000000000000){\r\n\r\n\t\t\t// Deletes proposal\r\n\t\t\tPMI.archiveProposal(msg.sender, newAccount);\r\n\r\n\t\t\t// Black lists attackers\r\n\t\t\tPMI.setBlacklistedAccount(newAccount);\r\n\r\n\t\t\t// Finds if there is anymore proposals\r\n\t\t\tnewAccount = CheckForOldAccount(msg.sender, addresses);\r\n\t\t}\r\n\r\n\t\t// Finds users on the network\r\n\t\tPerson sender = UMI.getUser(msg.sender); // Finds sender\r\n\t\tPerson reciever = UMI.getUser(_reciever); // Finds reciever\r\n\r\n\t\t// Makes transaction and adds it to the list\r\n\t\ttransactions[msg.sender][_reciever].push(\r\n\t\t\tnew Transaction(sender, reciever, _amount));\r\n\t}\r\n\r\n\t// Gets the transactions between 2 addresses\r\n\tfunction getTransactions(address sender, address receiver) \r\n\t\t\texternal view returns(Transaction[] memory) {\r\n\t\t\r\n\t\treturn transactions[sender][receiver];\r\n\t}\r\n\r\n\t// Gets the number of transactions between 2 addresses\r\n\tfunction NumberOfTransactions(address sender, address receiver) \r\n\t\t\tpublic view returns(uint) {\r\n\r\n\t\treturn transactions[sender][receiver].length;\r\n\t}\r\n\r\n\t// Get a transaction between 2 address but returns it in parts\r\n\tfunction getTransactionJS(address sender, address receiver, uint i) \r\n\t\t\texternal view returns(address, address, uint) {\r\n\r\n\t\t// Requires the index to be valid\r\n\t\trequire(i < transactions[sender][receiver].length && i >= 0, \"Invalid Index\");\r\n\t\t// Returns parts of transaction\r\n\t\treturn transactions[sender][receiver][i].getTransaction();\r\n\t}\r\n\r\n\t// Finds if there is a transaction that consists of information provided\r\n\tfunction Equal(address sender, address receiver, uint timeStamp, \r\n\t\t\tuint _amount) external view {\r\n\r\n\t\t// Gets the list of transactions\r\n\t\tTransaction[] storage temp = transactions[sender][receiver];\r\n\r\n\t\tbool found = false;\t\t\t\t\t\t\t// If the transaction has been found\r\n\r\n\t\tfor (uint i = 0; i < temp.length; i++){\t\t// For each transaction\t\r\n\t\t\t// Compares infromation to the transaction\r\n\t\t\tif (temp[i].Equal(timeStamp, sender, receiver, _amount)){\r\n\t\t\t\tfound = true;\t\t\t\t\t\t// Transaction was found\r\n\t\t\t}\r\n\r\n\t\t}\r\n\r\n\t\t// Requires that the transaction was found\r\n\t\trequire(found, \"This transaction does not exist\");\r\n\t}\r\n\r\n\t// Checks if the sender of a transaction is being recovered by a proposal\r\n\tfunction CheckForOldAccount(address _oldAccount, address[] memory addresses) \r\n\t\t\tinternal view returns (address){\r\n\r\n\t\t// Checks if there is proposal with the sender as the old account\r\n\t\tfor (uint i = 0; i < addresses.length; i++){\r\n\t\t\t// If a proposal exists for this sender\r\n\t\t\tif (PMI.getActiveProposalExists(_oldAccount, addresses[i])){\r\n\t\t\t\treturn addresses[i];\t\t// Return the address of the attacker\r\n\t\t\t}\r\n\t\t}\r\n\t\t// If there is no proposal return 0x00...\r\n\t\treturn 0x0000000000000000000000000000000000000000;\r\n\t}\r\n\r\n\t// Checks if a new account is sending monet to a voter\r\n\tfunction CheckForBribery(address _newAccount, address _voter, \r\n\t\t\taddress[] memory addresses) internal returns (bool){\r\n\r\n\t\t// Checks if there is proposal with the new account and voter\r\n\t\tfor (uint i = 0; i < addresses.length; i++){\r\n\r\n\t\t\t// If a proposal exists\r\n\t\t\tif (PMI.getActiveProposalExists(addresses[i], _newAccount)){\r\n\r\n\t\t\t\t// Get proposal\r\n\t\t\t\tProposal temp = PMI.getProposal(addresses[i], _newAccount);\r\n\t\t\t\taddress[] memory voters = temp.getVoters();\t\t// List of voters\r\n\t\t\t\tfor(uint j = 0; j < voters.length; j++){\r\n\t\t\t\t\tif (voters[j] == _voter){\t\t\t\t\t// Found the voter\r\n\r\n\t\t\t\t\t\t// Blacklist this voter and reciever\r\n\t\t\t\t\t\tPMI.setBlacklistedAccount(_voter);\r\n\t\t\t\t\t\tPMI.setBlacklistedAccount(_newAccount);\r\n\r\n\t\t\t\t\t\treturn true;\r\n\t\t\t\t\t}\r\n\t\t\t\t}\r\n\t\t\t}\r\n\t\t}\r\n\t\treturn false;\r\n\t}\r\n\r\n\t// Finds the trade partners of a give account\r\n\tfunction getHaveTradedWith(address account) \r\n\t\t\texternal returns (address[] memory){\r\n\r\n\t\tdelete haveTradedWith;\t\t\t\t\t\t\t// Clears data\r\n\t\t\r\n\t\t// List of addresses on the network\r\n\t\taddress[] memory addresses = UMI.getAddresses();\r\n\r\n\t\tfor (uint i = 0; i < addresses.length; i++){\t// For each address\r\n\t\t\t// Check if they have made a transaction with the old account\r\n\t\t\tif (NumberOfTransactions(account, addresses[i]) > 0){\r\n\t\t\t\thaveTradedWith.push(addresses[i]);\r\n\t\t\t}\r\n\t\t}\r\n\t\treturn haveTradedWith;\t\t\t\t\t\t\t// Returns trade partners\r\n\t}\r\n\r\n}\r\n",
  "sourcePath": "C:\\Users\\m5w5b\\Desktop\\GitHub\\game-dapp\\AccountRecovery\\contracts\\TransactionManager.sol",
  "compiler": {
    "name": "solc",
    "version": "0.5.8+commit.23d335f2.Emscripten.clang"
  },
  "schemaVersion": "3.0.16",
  "updatedAt": "2019-11-07T20:24:43.161Z",
  "devdoc": {
    "methods": {}
  },
  "userdoc": {
    "methods": {}
  }
}