{
  "contractName": "Transaction",
  "abi": [
    {
      "constant": true,
      "inputs": [],
      "name": "sender",
      "outputs": [
        {
          "name": "",
          "type": "address"
        }
      ],
      "payable": false,
      "stateMutability": "view",
      "type": "function"
    },
    {
      "constant": true,
      "inputs": [],
      "name": "amount",
      "outputs": [
        {
          "name": "",
          "type": "uint256"
        }
      ],
      "payable": false,
      "stateMutability": "view",
      "type": "function"
    },
    {
      "constant": true,
      "inputs": [],
      "name": "receiver",
      "outputs": [
        {
          "name": "",
          "type": "address"
        }
      ],
      "payable": false,
      "stateMutability": "view",
      "type": "function"
    },
    {
      "inputs": [
        {
          "name": "_sender",
          "type": "address"
        },
        {
          "name": "_reciever",
          "type": "address"
        },
        {
          "name": "_amount",
          "type": "uint256"
        }
      ],
      "payable": false,
      "stateMutability": "nonpayable",
      "type": "constructor"
    },
    {
      "anonymous": false,
      "inputs": [
        {
          "indexed": true,
          "name": "_from",
          "type": "address"
        },
        {
          "indexed": true,
          "name": "_to",
          "type": "address"
        },
        {
          "indexed": false,
          "name": "_value",
          "type": "uint256"
        }
      ],
      "name": "Transfer",
      "type": "event"
    }
  ],
  "bytecode": "0x608060405234801561001057600080fd5b5060405160608061064f8339810180604052606081101561003057600080fd5b81019080805190602001909291908051906020019092919080519060200190929190505050808373ffffffffffffffffffffffffffffffffffffffff1663b69ef8a86040518163ffffffff1660e01b815260040160206040518083038186803b15801561009c57600080fd5b505afa1580156100b0573d6000803e3d6000fd5b505050506040513d60208110156100c657600080fd5b8101908080519060200190929190505050101561014b576040517f08c379a00000000000000000000000000000000000000000000000000000000081526004018080602001828103825260108152602001807f496e76616c69642042616c616e63652e0000000000000000000000000000000081525060200191505060405180910390fd5b826000806101000a81548173ffffffffffffffffffffffffffffffffffffffff021916908373ffffffffffffffffffffffffffffffffffffffff16021790555081600160006101000a81548173ffffffffffffffffffffffffffffffffffffffff021916908373ffffffffffffffffffffffffffffffffffffffff160217905550806002819055506101e16101e960201b60201c565b5050506104cb565b6002546000809054906101000a900473ffffffffffffffffffffffffffffffffffffffff1673ffffffffffffffffffffffffffffffffffffffff1663b69ef8a86040518163ffffffff1660e01b815260040160206040518083038186803b15801561025357600080fd5b505afa158015610267573d6000803e3d6000fd5b505050506040513d602081101561027d57600080fd5b81019080805190602001909291905050501015610302576040517f08c379a00000000000000000000000000000000000000000000000000000000081526004018080602001828103825260108152602001807f496e76616c69642042616c616e63652e0000000000000000000000000000000081525060200191505060405180910390fd5b6000809054906101000a900473ffffffffffffffffffffffffffffffffffffffff1673ffffffffffffffffffffffffffffffffffffffff1663392aee436002546040518263ffffffff1660e01b815260040180828152602001915050600060405180830381600087803b15801561037857600080fd5b505af115801561038c573d6000803e3d6000fd5b50505050600160009054906101000a900473ffffffffffffffffffffffffffffffffffffffff1673ffffffffffffffffffffffffffffffffffffffff16633e4ccb406002546040518263ffffffff1660e01b815260040180828152602001915050600060405180830381600087803b15801561040757600080fd5b505af115801561041b573d6000803e3d6000fd5b50505050600160009054906101000a900473ffffffffffffffffffffffffffffffffffffffff1673ffffffffffffffffffffffffffffffffffffffff166000809054906101000a900473ffffffffffffffffffffffffffffffffffffffff1673ffffffffffffffffffffffffffffffffffffffff167fddf252ad1be2c89b69c2b068fc378daa952ba7f163c4a11628f55a4df523b3ef6002546040518082815260200191505060405180910390a3565b610175806104da6000396000f3fe608060405234801561001057600080fd5b50600436106100415760003560e01c806367e404ce14610046578063aa8c217c14610090578063f7260d3e146100ae575b600080fd5b61004e6100f8565b604051808273ffffffffffffffffffffffffffffffffffffffff1673ffffffffffffffffffffffffffffffffffffffff16815260200191505060405180910390f35b61009861011d565b6040518082815260200191505060405180910390f35b6100b6610123565b604051808273ffffffffffffffffffffffffffffffffffffffff1673ffffffffffffffffffffffffffffffffffffffff16815260200191505060405180910390f35b6000809054906101000a900473ffffffffffffffffffffffffffffffffffffffff1681565b60025481565b600160009054906101000a900473ffffffffffffffffffffffffffffffffffffffff168156fea165627a7a7230582000a79df4d6d6828d20b11463daafd87f5a4d9513d2d1b04a6975278626d1c8c80029",
  "source": "pragma solidity >=0.4.0 <0.7.0;\r\n\r\nimport \"../contracts/Person.sol\";\r\n\r\ncontract Transaction {\r\n\tPerson public sender;\r\n\tPerson public receiver;\r\n\tuint public amount;\r\n\r\n\tevent Transfer(Person indexed _from, Person indexed _to, uint _value);\r\n\r\n\tconstructor(Person _sender, Person _reciever, uint _amount) public {\r\n\t\trequire(_sender.balance() >= _amount, \"Invalid Balance.\");\r\n\t\tsender = _sender;\r\n\t\treceiver = _reciever;\r\n\t\tamount = _amount;\r\n\t\tsendCoin();\r\n\t}\r\n\r\n\tfunction sendCoin() internal {\r\n\t\trequire(sender.balance() >= amount, \"Invalid Balance.\");\r\n\t\tsender.decreaseBalance(amount);\r\n\t\treceiver.increaseBalance(amount);\r\n\t\temit Transfer(sender, receiver, amount);\r\n\t}\r\n}\t",
  "sourcePath": "C:\\Users\\m5w5b\\Desktop\\GitHub\\game-dapp\\AccountRecovery\\contracts\\Transaction.sol",
  "compiler": {
    "name": "solc",
    "version": "0.5.8+commit.23d335f2.Emscripten.clang"
  },
  "schemaVersion": "3.0.16",
  "updatedAt": "2019-10-08T17:03:02.243Z",
  "devdoc": {
    "methods": {}
  },
  "userdoc": {
    "methods": {}
  }
}