{
  "contractName": "TransactionManager",
  "abi": [
    {
      "inputs": [
        {
          "name": "UserManagerAddress",
          "type": "address"
        }
      ],
      "payable": false,
      "stateMutability": "nonpayable",
      "type": "constructor"
    },
    {
      "constant": false,
      "inputs": [
        {
          "name": "_reciever",
          "type": "address"
        },
        {
          "name": "_amount",
          "type": "uint256"
        }
      ],
      "name": "MakeTransaction",
      "outputs": [],
      "payable": false,
      "stateMutability": "nonpayable",
      "type": "function"
    },
    {
      "constant": true,
      "inputs": [
        {
          "name": "sender",
          "type": "address"
        },
        {
          "name": "receiver",
          "type": "address"
        }
      ],
      "name": "getTransactions",
      "outputs": [
        {
          "name": "",
          "type": "address[]"
        }
      ],
      "payable": false,
      "stateMutability": "view",
      "type": "function"
    },
    {
      "constant": true,
      "inputs": [
        {
          "name": "sender",
          "type": "address"
        },
        {
          "name": "receiver",
          "type": "address"
        },
        {
          "name": "i",
          "type": "uint256"
        }
      ],
      "name": "getTransactionJS",
      "outputs": [
        {
          "name": "",
          "type": "address"
        },
        {
          "name": "",
          "type": "address"
        },
        {
          "name": "",
          "type": "uint256"
        }
      ],
      "payable": false,
      "stateMutability": "view",
      "type": "function"
    }
  ],
  "bytecode": "0x608060405234801561001057600080fd5b506040516020806113288339810180604052602081101561003057600080fd5b810190808051906020019092919050505080600160006101000a81548173ffffffffffffffffffffffffffffffffffffffff021916908373ffffffffffffffffffffffffffffffffffffffff16021790555050611296806100926000396000f3fe608060405234801561001057600080fd5b50600436106100415760003560e01c8063876cb10814610046578063b1f7e43c146100ff578063db3b001f1461014d575b600080fd5b6100a86004803603604081101561005c57600080fd5b81019080803573ffffffffffffffffffffffffffffffffffffffff169060200190929190803573ffffffffffffffffffffffffffffffffffffffff169060200190929190505050610235565b6040518080602001828103825283818151815260200191508051906020019060200280838360005b838110156100eb5780820151818401526020810190506100d0565b505050509050019250505060405180910390f35b61014b6004803603604081101561011557600080fd5b81019080803573ffffffffffffffffffffffffffffffffffffffff1690602001909291908035906020019092919050505061033f565b005b6101b96004803603606081101561016357600080fd5b81019080803573ffffffffffffffffffffffffffffffffffffffff169060200190929190803573ffffffffffffffffffffffffffffffffffffffff1690602001909291908035906020019092919050505061067b565b604051808473ffffffffffffffffffffffffffffffffffffffff1673ffffffffffffffffffffffffffffffffffffffff1681526020018373ffffffffffffffffffffffffffffffffffffffff1673ffffffffffffffffffffffffffffffffffffffff168152602001828152602001935050505060405180910390f35b60606000808473ffffffffffffffffffffffffffffffffffffffff1673ffffffffffffffffffffffffffffffffffffffff16815260200190815260200160002060008373ffffffffffffffffffffffffffffffffffffffff1673ffffffffffffffffffffffffffffffffffffffff16815260200190815260200160002080548060200260200160405190810160405280929190818152602001828054801561033257602002820191906000526020600020905b8160009054906101000a900473ffffffffffffffffffffffffffffffffffffffff1673ffffffffffffffffffffffffffffffffffffffff16815260200190600101908083116102e8575b5050505050905092915050565b6000600160009054906101000a900473ffffffffffffffffffffffffffffffffffffffff1673ffffffffffffffffffffffffffffffffffffffff16636f77926b336040518263ffffffff1660e01b8152600401808273ffffffffffffffffffffffffffffffffffffffff1673ffffffffffffffffffffffffffffffffffffffff16815260200191505060206040518083038186803b1580156103e057600080fd5b505afa1580156103f4573d6000803e3d6000fd5b505050506040513d602081101561040a57600080fd5b810190808051906020019092919050505090506000600160009054906101000a900473ffffffffffffffffffffffffffffffffffffffff1673ffffffffffffffffffffffffffffffffffffffff16636f77926b856040518263ffffffff1660e01b8152600401808273ffffffffffffffffffffffffffffffffffffffff1673ffffffffffffffffffffffffffffffffffffffff16815260200191505060206040518083038186803b1580156104be57600080fd5b505afa1580156104d2573d6000803e3d6000fd5b505050506040513d60208110156104e857600080fd5b810190808051906020019092919050505090506000803373ffffffffffffffffffffffffffffffffffffffff1673ffffffffffffffffffffffffffffffffffffffff16815260200190815260200160002060008573ffffffffffffffffffffffffffffffffffffffff1673ffffffffffffffffffffffffffffffffffffffff168152602001908152602001600020828285604051610585906108d4565b808473ffffffffffffffffffffffffffffffffffffffff1673ffffffffffffffffffffffffffffffffffffffff1681526020018373ffffffffffffffffffffffffffffffffffffffff1673ffffffffffffffffffffffffffffffffffffffff1681526020018281526020019350505050604051809103906000f080158015610611573d6000803e3d6000fd5b5090806001815401808255809150509060018203906000526020600020016000909192909190916101000a81548173ffffffffffffffffffffffffffffffffffffffff021916908373ffffffffffffffffffffffffffffffffffffffff1602179055505050505050565b60008060008060008773ffffffffffffffffffffffffffffffffffffffff1673ffffffffffffffffffffffffffffffffffffffff16815260200190815260200160002060008673ffffffffffffffffffffffffffffffffffffffff1673ffffffffffffffffffffffffffffffffffffffff168152602001908152602001600020805490508410801561070e575060008410155b610780576040517f08c379a000000000000000000000000000000000000000000000000000000000815260040180806020018281038252600d8152602001807f496e76616c696420496e6465780000000000000000000000000000000000000081525060200191505060405180910390fd5b6000808773ffffffffffffffffffffffffffffffffffffffff1673ffffffffffffffffffffffffffffffffffffffff16815260200190815260200160002060008673ffffffffffffffffffffffffffffffffffffffff1673ffffffffffffffffffffffffffffffffffffffff168152602001908152602001600020848154811061080657fe5b9060005260206000200160009054906101000a900473ffffffffffffffffffffffffffffffffffffffff1673ffffffffffffffffffffffffffffffffffffffff166359705f816040518163ffffffff1660e01b815260040160606040518083038186803b15801561087657600080fd5b505afa15801561088a573d6000803e3d6000fd5b505050506040513d60608110156108a057600080fd5b8101908080519060200190929190805190602001909291908051906020019092919050505092509250925093509350939050565b610989806108e28339019056fe608060405234801561001057600080fd5b506040516060806109898339810180604052606081101561003057600080fd5b81019080805190602001909291908051906020019092919080519060200190929190505050808373ffffffffffffffffffffffffffffffffffffffff1663b69ef8a86040518163ffffffff1660e01b815260040160206040518083038186803b15801561009c57600080fd5b505afa1580156100b0573d6000803e3d6000fd5b505050506040513d60208110156100c657600080fd5b8101908080519060200190929190505050101561014b576040517f08c379a00000000000000000000000000000000000000000000000000000000081526004018080602001828103825260108152602001807f496e76616c69642042616c616e63652e0000000000000000000000000000000081525060200191505060405180910390fd5b600160008190555082600160006101000a81548173ffffffffffffffffffffffffffffffffffffffff021916908373ffffffffffffffffffffffffffffffffffffffff16021790555081600260006101000a81548173ffffffffffffffffffffffffffffffffffffffff021916908373ffffffffffffffffffffffffffffffffffffffff160217905550806003819055506101ea6101f260201b60201c565b5050506104d7565b600354600160009054906101000a900473ffffffffffffffffffffffffffffffffffffffff1673ffffffffffffffffffffffffffffffffffffffff1663b69ef8a86040518163ffffffff1660e01b815260040160206040518083038186803b15801561025d57600080fd5b505afa158015610271573d6000803e3d6000fd5b505050506040513d602081101561028757600080fd5b8101908080519060200190929190505050101561030c576040517f08c379a00000000000000000000000000000000000000000000000000000000081526004018080602001828103825260108152602001807f496e76616c69642042616c616e63652e0000000000000000000000000000000081525060200191505060405180910390fd5b600160009054906101000a900473ffffffffffffffffffffffffffffffffffffffff1673ffffffffffffffffffffffffffffffffffffffff1663392aee436003546040518263ffffffff1660e01b815260040180828152602001915050600060405180830381600087803b15801561038357600080fd5b505af1158015610397573d6000803e3d6000fd5b50505050600260009054906101000a900473ffffffffffffffffffffffffffffffffffffffff1673ffffffffffffffffffffffffffffffffffffffff16633e4ccb406003546040518263ffffffff1660e01b815260040180828152602001915050600060405180830381600087803b15801561041257600080fd5b505af1158015610426573d6000803e3d6000fd5b50505050600260009054906101000a900473ffffffffffffffffffffffffffffffffffffffff1673ffffffffffffffffffffffffffffffffffffffff16600160009054906101000a900473ffffffffffffffffffffffffffffffffffffffff1673ffffffffffffffffffffffffffffffffffffffff167fddf252ad1be2c89b69c2b068fc378daa952ba7f163c4a11628f55a4df523b3ef6003546040518082815260200191505060405180910390a3565b6104a3806104e66000396000f3fe608060405234801561001057600080fd5b50600436106100365760003560e01c806315ca58541461003b57806359705f81146100cb575b600080fd5b6100b16004803603608081101561005157600080fd5b8101908080359060200190929190803573ffffffffffffffffffffffffffffffffffffffff169060200190929190803573ffffffffffffffffffffffffffffffffffffffff1690602001909291908035906020019092919050505061014f565b604051808215151515815260200191505060405180910390f35b6100d361031e565b604051808473ffffffffffffffffffffffffffffffffffffffff1673ffffffffffffffffffffffffffffffffffffffff1681526020018373ffffffffffffffffffffffffffffffffffffffff1673ffffffffffffffffffffffffffffffffffffffff168152602001828152602001935050505060405180910390f35b600080548514801561022e57508373ffffffffffffffffffffffffffffffffffffffff16600160009054906101000a900473ffffffffffffffffffffffffffffffffffffffff1673ffffffffffffffffffffffffffffffffffffffff1663b3cea2176040518163ffffffff1660e01b815260040160206040518083038186803b1580156101db57600080fd5b505afa1580156101ef573d6000803e3d6000fd5b505050506040513d602081101561020557600080fd5b810190808051906020019092919050505073ffffffffffffffffffffffffffffffffffffffff16145b801561030757508273ffffffffffffffffffffffffffffffffffffffff16600260009054906101000a900473ffffffffffffffffffffffffffffffffffffffff1673ffffffffffffffffffffffffffffffffffffffff1663b3cea2176040518163ffffffff1660e01b815260040160206040518083038186803b1580156102b457600080fd5b505afa1580156102c8573d6000803e3d6000fd5b505050506040513d60208110156102de57600080fd5b810190808051906020019092919050505073ffffffffffffffffffffffffffffffffffffffff16145b8015610314575060035482145b9050949350505050565b6000806000600160009054906101000a900473ffffffffffffffffffffffffffffffffffffffff1673ffffffffffffffffffffffffffffffffffffffff1663b3cea2176040518163ffffffff1660e01b815260040160206040518083038186803b15801561038b57600080fd5b505afa15801561039f573d6000803e3d6000fd5b505050506040513d60208110156103b557600080fd5b8101908080519060200190929190505050600260009054906101000a900473ffffffffffffffffffffffffffffffffffffffff1673ffffffffffffffffffffffffffffffffffffffff1663b3cea2176040518163ffffffff1660e01b815260040160206040518083038186803b15801561042e57600080fd5b505afa158015610442573d6000803e3d6000fd5b505050506040513d602081101561045857600080fd5b810190808051906020019092919050505060035492509250925090919256fea165627a7a72305820cd44f75c16cb671224747380273c000694c53251acd3ea1ece97966ea6bd10ac0029a165627a7a723058201a83c40556db4dce1ed893d9129dfc557a9dadef792035f3105f007f787b030a0029",
  "source": "/* TransactionManager.sol */\r\n\r\npragma solidity >=0.4.0 <0.7.0;\r\n\r\nimport \"../contracts/UserManager.sol\";\r\nimport \"../contracts/Person.sol\";\r\nimport \"../contracts/Transaction.sol\";\r\n\r\n/* <Summary> \r\n\tManages the list of transaction as well as making transactions\r\n*/\r\n\r\ncontract TransactionManager {\r\n\tmapping (address => mapping (address => Transaction[]) ) transactions;\r\n\tUserManager UserManagerInstance;\t\t\t// Connects to the list of users on the network\r\n\r\n\tconstructor(address UserManagerAddress) public {\r\n\t\tUserManagerInstance = UserManager(UserManagerAddress);\r\n\t}\r\n\r\n\t// Makes a transaction between 2 users\r\n\tfunction MakeTransaction(address _reciever, uint _amount) external {\r\n\t\tPerson sender = UserManagerInstance.getUser(msg.sender); // Finds sender\r\n\t\tPerson reciever = UserManagerInstance.getUser(_reciever); // Finds reciever\r\n\r\n\t\t// Makes transaction \r\n\t\ttransactions[msg.sender][_reciever].push(new Transaction(sender, reciever, _amount));\r\n\t}\r\n\r\n\t// Gets transacions between 2 addresses\r\n\tfunction getTransactions(address sender, address receiver) external view returns(Transaction[] memory) {\r\n\t\treturn transactions[sender][receiver];\r\n\t}\r\n\r\n\t// Get a transaction between 2 address but returns it in parts\r\n\tfunction getTransactionJS(address sender, address receiver, uint i) external view returns(address, address, uint) {\r\n\t\trequire(i < transactions[sender][receiver].length && i >= 0, \"Invalid Index\");\r\n\t\treturn transactions[sender][receiver][i].getTransaction();\r\n\t}\r\n}\r\n",
  "sourcePath": "C:\\Users\\m5w5b\\Desktop\\GitHub\\game-dapp\\AccountRecovery\\contracts\\TransactionManager.sol",
  "compiler": {
    "name": "solc",
    "version": "0.5.8+commit.23d335f2.Emscripten.clang"
  },
  "schemaVersion": "3.0.16",
  "updatedAt": "2019-10-18T01:35:03.015Z",
  "devdoc": {
    "methods": {}
  },
  "userdoc": {
    "methods": {}
  }
}