{
  "contractName": "TransactionManager",
  "abi": [
    {
      "inputs": [
        {
          "name": "UserManagerAddress",
          "type": "address"
        },
        {
          "name": "ProposalManagerAddress",
          "type": "address"
        }
      ],
      "payable": false,
      "stateMutability": "nonpayable",
      "type": "constructor"
    },
    {
      "constant": false,
      "inputs": [],
      "name": "BuyCoin",
      "outputs": [],
      "payable": true,
      "stateMutability": "payable",
      "type": "function"
    },
    {
      "constant": false,
      "inputs": [
        {
          "name": "_reciever",
          "type": "address"
        },
        {
          "name": "_amount",
          "type": "uint256"
        }
      ],
      "name": "MakeTransaction",
      "outputs": [],
      "payable": false,
      "stateMutability": "nonpayable",
      "type": "function"
    },
    {
      "constant": true,
      "inputs": [
        {
          "name": "sender",
          "type": "address"
        },
        {
          "name": "receiver",
          "type": "address"
        }
      ],
      "name": "getTransactions",
      "outputs": [
        {
          "name": "",
          "type": "address[]"
        }
      ],
      "payable": false,
      "stateMutability": "view",
      "type": "function"
    },
    {
      "constant": true,
      "inputs": [
        {
          "name": "sender",
          "type": "address"
        },
        {
          "name": "receiver",
          "type": "address"
        }
      ],
      "name": "NumberOfTransactions",
      "outputs": [
        {
          "name": "",
          "type": "uint256"
        }
      ],
      "payable": false,
      "stateMutability": "view",
      "type": "function"
    },
    {
      "constant": true,
      "inputs": [
        {
          "name": "sender",
          "type": "address"
        },
        {
          "name": "receiver",
          "type": "address"
        },
        {
          "name": "i",
          "type": "uint256"
        }
      ],
      "name": "getTransactionJS",
      "outputs": [
        {
          "name": "",
          "type": "address"
        },
        {
          "name": "",
          "type": "address"
        },
        {
          "name": "",
          "type": "uint256"
        }
      ],
      "payable": false,
      "stateMutability": "view",
      "type": "function"
    },
    {
      "constant": true,
      "inputs": [
        {
          "name": "sender",
          "type": "address"
        },
        {
          "name": "receiver",
          "type": "address"
        },
        {
          "name": "timeStamp",
          "type": "uint256"
        },
        {
          "name": "_amount",
          "type": "uint256"
        }
      ],
      "name": "Equal",
      "outputs": [
        {
          "name": "",
          "type": "bool"
        }
      ],
      "payable": false,
      "stateMutability": "view",
      "type": "function"
    }
  ],
  "bytecode": "0x608060405234801561001057600080fd5b506040516040806124118339810180604052604081101561003057600080fd5b81019080805190602001909291908051906020019092919050505081600160006101000a81548173ffffffffffffffffffffffffffffffffffffffff021916908373ffffffffffffffffffffffffffffffffffffffff16021790555080600260006101000a81548173ffffffffffffffffffffffffffffffffffffffff021916908373ffffffffffffffffffffffffffffffffffffffff1602179055505050612333806100de6000396000f3fe6080604052600436106200005c5760003560e01c806314ee741f1462000061578063827e247914620000ea578063876cb10814620000f6578063b1f7e43c14620001c2578063db3b001f1462000221578063f90bee56146200031a575b600080fd5b3480156200006e57600080fd5b50620000d4600480360360408110156200008757600080fd5b81019080803573ffffffffffffffffffffffffffffffffffffffff169060200190929190803573ffffffffffffffffffffffffffffffffffffffff169060200190929190505050620003bb565b6040518082815260200191505060405180910390f35b620000f462000444565b005b3480156200010357600080fd5b5062000169600480360360408110156200011c57600080fd5b81019080803573ffffffffffffffffffffffffffffffffffffffff169060200190929190803573ffffffffffffffffffffffffffffffffffffffff1690602001909291905050506200069f565b6040518080602001828103825283818151815260200191508051906020019060200280838360005b83811015620001ae57808201518184015260208101905062000191565b505050509050019250505060405180910390f35b348015620001cf57600080fd5b506200021f60048036036040811015620001e857600080fd5b81019080803573ffffffffffffffffffffffffffffffffffffffff16906020019092919080359060200190929190505050620007ab565b005b3480156200022e57600080fd5b506200029e600480360360608110156200024757600080fd5b81019080803573ffffffffffffffffffffffffffffffffffffffff169060200190929190803573ffffffffffffffffffffffffffffffffffffffff1690602001909291908035906020019092919050505062000d1b565b604051808473ffffffffffffffffffffffffffffffffffffffff1673ffffffffffffffffffffffffffffffffffffffff1681526020018373ffffffffffffffffffffffffffffffffffffffff1673ffffffffffffffffffffffffffffffffffffffff168152602001828152602001935050505060405180910390f35b3480156200032757600080fd5b50620003a1600480360360808110156200034057600080fd5b81019080803573ffffffffffffffffffffffffffffffffffffffff169060200190929190803573ffffffffffffffffffffffffffffffffffffffff169060200190929190803590602001909291908035906020019092919050505062000f7a565b604051808215151515815260200191505060405180910390f35b60008060008473ffffffffffffffffffffffffffffffffffffffff1673ffffffffffffffffffffffffffffffffffffffff16815260200190815260200160002060008373ffffffffffffffffffffffffffffffffffffffff1673ffffffffffffffffffffffffffffffffffffffff16815260200190815260200160002080549050905092915050565b6000600160009054906101000a900473ffffffffffffffffffffffffffffffffffffffff1673ffffffffffffffffffffffffffffffffffffffff16636e9960c36040518163ffffffff1660e01b815260040160206040518083038186803b158015620004af57600080fd5b505afa158015620004c4573d6000803e3d6000fd5b505050506040513d6020811015620004db57600080fd5b810190808051906020019092919050505090508073ffffffffffffffffffffffffffffffffffffffff166108fc349081150290604051600060405180830381858888f1935050505015801562000535573d6000803e3d6000fd5b506000600160009054906101000a900473ffffffffffffffffffffffffffffffffffffffff1673ffffffffffffffffffffffffffffffffffffffff16636f77926b336040518263ffffffff1660e01b8152600401808273ffffffffffffffffffffffffffffffffffffffff1673ffffffffffffffffffffffffffffffffffffffff16815260200191505060206040518083038186803b158015620005d857600080fd5b505afa158015620005ed573d6000803e3d6000fd5b505050506040513d60208110156200060457600080fd5b810190808051906020019092919050505090506000662386f26fc1000034816200062a57fe5b0490508173ffffffffffffffffffffffffffffffffffffffff16633e4ccb40826040518263ffffffff1660e01b815260040180828152602001915050600060405180830381600087803b1580156200068157600080fd5b505af115801562000696573d6000803e3d6000fd5b50505050505050565b60606000808473ffffffffffffffffffffffffffffffffffffffff1673ffffffffffffffffffffffffffffffffffffffff16815260200190815260200160002060008373ffffffffffffffffffffffffffffffffffffffff1673ffffffffffffffffffffffffffffffffffffffff1681526020019081526020016000208054806020026020016040519081016040528092919081815260200182805480156200079e57602002820191906000526020600020905b8160009054906101000a900473ffffffffffffffffffffffffffffffffffffffff1673ffffffffffffffffffffffffffffffffffffffff168152602001906001019080831162000753575b5050505050905092915050565b600160009054906101000a900473ffffffffffffffffffffffffffffffffffffffff1673ffffffffffffffffffffffffffffffffffffffff16636e9960c36040518163ffffffff1660e01b815260040160206040518083038186803b1580156200081457600080fd5b505afa15801562000829573d6000803e3d6000fd5b505050506040513d60208110156200084057600080fd5b810190808051906020019092919050505073ffffffffffffffffffffffffffffffffffffffff168273ffffffffffffffffffffffffffffffffffffffff161415620008f3576040517f08c379a000000000000000000000000000000000000000000000000000000000815260040180806020018281038252601f8152602001807f43616e206e6f742073656e64206d6f6e657920746f207468652061646d696e0081525060200191505060405180910390fd5b620008ff338362001172565b1562000973576040517f08c379a000000000000000000000000000000000000000000000000000000000815260040180806020018281038252600f8152602001807f546869732069732042726962657279000000000000000000000000000000000081525060200191505060405180910390fd5b6200097e336200169a565b15620009d6576040517f08c379a0000000000000000000000000000000000000000000000000000000008152600401808060200182810382526027815260200180620022e16027913960400191505060405180910390fd5b6000600160009054906101000a900473ffffffffffffffffffffffffffffffffffffffff1673ffffffffffffffffffffffffffffffffffffffff16636f77926b336040518263ffffffff1660e01b8152600401808273ffffffffffffffffffffffffffffffffffffffff1673ffffffffffffffffffffffffffffffffffffffff16815260200191505060206040518083038186803b15801562000a7857600080fd5b505afa15801562000a8d573d6000803e3d6000fd5b505050506040513d602081101562000aa457600080fd5b810190808051906020019092919050505090506000600160009054906101000a900473ffffffffffffffffffffffffffffffffffffffff1673ffffffffffffffffffffffffffffffffffffffff16636f77926b856040518263ffffffff1660e01b8152600401808273ffffffffffffffffffffffffffffffffffffffff1673ffffffffffffffffffffffffffffffffffffffff16815260200191505060206040518083038186803b15801562000b5957600080fd5b505afa15801562000b6e573d6000803e3d6000fd5b505050506040513d602081101562000b8557600080fd5b810190808051906020019092919050505090506000803373ffffffffffffffffffffffffffffffffffffffff1673ffffffffffffffffffffffffffffffffffffffff16815260200190815260200160002060008573ffffffffffffffffffffffffffffffffffffffff1673ffffffffffffffffffffffffffffffffffffffff16815260200190815260200160002082828560405162000c249062001949565b808473ffffffffffffffffffffffffffffffffffffffff1673ffffffffffffffffffffffffffffffffffffffff1681526020018373ffffffffffffffffffffffffffffffffffffffff1673ffffffffffffffffffffffffffffffffffffffff1681526020018281526020019350505050604051809103906000f08015801562000cb1573d6000803e3d6000fd5b5090806001815401808255809150509060018203906000526020600020016000909192909190916101000a81548173ffffffffffffffffffffffffffffffffffffffff021916908373ffffffffffffffffffffffffffffffffffffffff1602179055505050505050565b60008060008060008773ffffffffffffffffffffffffffffffffffffffff1673ffffffffffffffffffffffffffffffffffffffff16815260200190815260200160002060008673ffffffffffffffffffffffffffffffffffffffff1673ffffffffffffffffffffffffffffffffffffffff168152602001908152602001600020805490508410801562000daf575060008410155b62000e22576040517f08c379a000000000000000000000000000000000000000000000000000000000815260040180806020018281038252600d8152602001807f496e76616c696420496e6465780000000000000000000000000000000000000081525060200191505060405180910390fd5b6000808773ffffffffffffffffffffffffffffffffffffffff1673ffffffffffffffffffffffffffffffffffffffff16815260200190815260200160002060008673ffffffffffffffffffffffffffffffffffffffff1673ffffffffffffffffffffffffffffffffffffffff168152602001908152602001600020848154811062000ea957fe5b9060005260206000200160009054906101000a900473ffffffffffffffffffffffffffffffffffffffff1673ffffffffffffffffffffffffffffffffffffffff166359705f816040518163ffffffff1660e01b815260040160606040518083038186803b15801562000f1a57600080fd5b505afa15801562000f2f573d6000803e3d6000fd5b505050506040513d606081101562000f4657600080fd5b8101908080519060200190929190805190602001909291908051906020019092919050505092509250925093509350939050565b6000806000808773ffffffffffffffffffffffffffffffffffffffff1673ffffffffffffffffffffffffffffffffffffffff16815260200190815260200160002060008673ffffffffffffffffffffffffffffffffffffffff1673ffffffffffffffffffffffffffffffffffffffff168152602001908152602001600020905060008090505b818054905081101562001163578181815481106200101a57fe5b9060005260206000200160009054906101000a900473ffffffffffffffffffffffffffffffffffffffff1673ffffffffffffffffffffffffffffffffffffffff166315ca5854868989886040518563ffffffff1660e01b8152600401808581526020018473ffffffffffffffffffffffffffffffffffffffff1673ffffffffffffffffffffffffffffffffffffffff1681526020018373ffffffffffffffffffffffffffffffffffffffff1673ffffffffffffffffffffffffffffffffffffffff16815260200182815260200194505050505060206040518083038186803b1580156200110657600080fd5b505afa1580156200111b573d6000803e3d6000fd5b505050506040513d60208110156200113257600080fd5b81019080805190602001909291905050501562001155576001925050506200116a565b808060010191505062001000565b5060009150505b949350505050565b60006060600160009054906101000a900473ffffffffffffffffffffffffffffffffffffffff1673ffffffffffffffffffffffffffffffffffffffff1663a39fac126040518163ffffffff1660e01b815260040160006040518083038186803b158015620011df57600080fd5b505afa158015620011f4573d6000803e3d6000fd5b505050506040513d6000823e3d601f19601f8201168201806040525060208110156200121f57600080fd5b8101908080516401000000008111156200123857600080fd5b828101905060208101848111156200124f57600080fd5b81518560208202830111640100000000821117156200126d57600080fd5b5050929190505050905060008090505b81518110156200168d578181815181106200129457fe5b602002602001015173ffffffffffffffffffffffffffffffffffffffff168573ffffffffffffffffffffffffffffffffffffffff16146200167f57600260009054906101000a900473ffffffffffffffffffffffffffffffffffffffff1673ffffffffffffffffffffffffffffffffffffffff1663ee030f2a8383815181106200131a57fe5b6020026020010151876040518363ffffffff1660e01b8152600401808373ffffffffffffffffffffffffffffffffffffffff1673ffffffffffffffffffffffffffffffffffffffff1681526020018273ffffffffffffffffffffffffffffffffffffffff1673ffffffffffffffffffffffffffffffffffffffff1681526020019250505060206040518083038186803b158015620013b757600080fd5b505afa158015620013cc573d6000803e3d6000fd5b505050506040513d6020811015620013e357600080fd5b8101908080519060200190929190505050156200167e576000600260009054906101000a900473ffffffffffffffffffffffffffffffffffffffff1673ffffffffffffffffffffffffffffffffffffffff1663a65262958484815181106200144757fe5b6020026020010151886040518363ffffffff1660e01b8152600401808373ffffffffffffffffffffffffffffffffffffffff1673ffffffffffffffffffffffffffffffffffffffff1681526020018273ffffffffffffffffffffffffffffffffffffffff1673ffffffffffffffffffffffffffffffffffffffff1681526020019250505060206040518083038186803b158015620014e457600080fd5b505afa158015620014f9573d6000803e3d6000fd5b505050506040513d60208110156200151057600080fd5b8101908080519060200190929190505050905060608173ffffffffffffffffffffffffffffffffffffffff1663cdd722536040518163ffffffff1660e01b815260040160006040518083038186803b1580156200156c57600080fd5b505afa15801562001581573d6000803e3d6000fd5b505050506040513d6000823e3d601f19601f820116820180604052506020811015620015ac57600080fd5b810190808051640100000000811115620015c557600080fd5b82810190506020810184811115620015dc57600080fd5b8151856020820283011164010000000082111715620015fa57600080fd5b5050929190505050905060008090505b81518110156200167a578673ffffffffffffffffffffffffffffffffffffffff168282815181106200163857fe5b602002602001015173ffffffffffffffffffffffffffffffffffffffff1614156200166c5760009550505050505062001694565b80806001019150506200160a565b5050505b5b80806001019150506200127d565b5060009150505b92915050565b60006060600160009054906101000a900473ffffffffffffffffffffffffffffffffffffffff1673ffffffffffffffffffffffffffffffffffffffff1663a39fac126040518163ffffffff1660e01b815260040160006040518083038186803b1580156200170757600080fd5b505afa1580156200171c573d6000803e3d6000fd5b505050506040513d6000823e3d601f19601f8201168201806040525060208110156200174757600080fd5b8101908080516401000000008111156200176057600080fd5b828101905060208101848111156200177757600080fd5b81518560208202830111640100000000821117156200179557600080fd5b5050929190505050905060008090505b81518110156200193d57818181518110620017bc57fe5b602002602001015173ffffffffffffffffffffffffffffffffffffffff168473ffffffffffffffffffffffffffffffffffffffff16146200192f57600260009054906101000a900473ffffffffffffffffffffffffffffffffffffffff1673ffffffffffffffffffffffffffffffffffffffff1663ee030f2a858484815181106200184357fe5b60200260200101516040518363ffffffff1660e01b8152600401808373ffffffffffffffffffffffffffffffffffffffff1673ffffffffffffffffffffffffffffffffffffffff1681526020018273ffffffffffffffffffffffffffffffffffffffff1673ffffffffffffffffffffffffffffffffffffffff1681526020019250505060206040518083038186803b158015620018df57600080fd5b505afa158015620018f4573d6000803e3d6000fd5b505050506040513d60208110156200190b57600080fd5b8101908080519060200190929190505050156200192e5760019250505062001944565b5b8080600101915050620017a5565b5060009150505b919050565b61098980620019588339019056fe608060405234801561001057600080fd5b506040516060806109898339810180604052606081101561003057600080fd5b81019080805190602001909291908051906020019092919080519060200190929190505050808373ffffffffffffffffffffffffffffffffffffffff1663b69ef8a86040518163ffffffff1660e01b815260040160206040518083038186803b15801561009c57600080fd5b505afa1580156100b0573d6000803e3d6000fd5b505050506040513d60208110156100c657600080fd5b8101908080519060200190929190505050101561014b576040517f08c379a00000000000000000000000000000000000000000000000000000000081526004018080602001828103825260108152602001807f496e76616c69642042616c616e63652e0000000000000000000000000000000081525060200191505060405180910390fd5b600160008190555082600160006101000a81548173ffffffffffffffffffffffffffffffffffffffff021916908373ffffffffffffffffffffffffffffffffffffffff16021790555081600260006101000a81548173ffffffffffffffffffffffffffffffffffffffff021916908373ffffffffffffffffffffffffffffffffffffffff160217905550806003819055506101ea6101f260201b60201c565b5050506104d7565b600354600160009054906101000a900473ffffffffffffffffffffffffffffffffffffffff1673ffffffffffffffffffffffffffffffffffffffff1663b69ef8a86040518163ffffffff1660e01b815260040160206040518083038186803b15801561025d57600080fd5b505afa158015610271573d6000803e3d6000fd5b505050506040513d602081101561028757600080fd5b8101908080519060200190929190505050101561030c576040517f08c379a00000000000000000000000000000000000000000000000000000000081526004018080602001828103825260108152602001807f496e76616c69642042616c616e63652e0000000000000000000000000000000081525060200191505060405180910390fd5b600160009054906101000a900473ffffffffffffffffffffffffffffffffffffffff1673ffffffffffffffffffffffffffffffffffffffff1663392aee436003546040518263ffffffff1660e01b815260040180828152602001915050600060405180830381600087803b15801561038357600080fd5b505af1158015610397573d6000803e3d6000fd5b50505050600260009054906101000a900473ffffffffffffffffffffffffffffffffffffffff1673ffffffffffffffffffffffffffffffffffffffff16633e4ccb406003546040518263ffffffff1660e01b815260040180828152602001915050600060405180830381600087803b15801561041257600080fd5b505af1158015610426573d6000803e3d6000fd5b50505050600260009054906101000a900473ffffffffffffffffffffffffffffffffffffffff1673ffffffffffffffffffffffffffffffffffffffff16600160009054906101000a900473ffffffffffffffffffffffffffffffffffffffff1673ffffffffffffffffffffffffffffffffffffffff167fddf252ad1be2c89b69c2b068fc378daa952ba7f163c4a11628f55a4df523b3ef6003546040518082815260200191505060405180910390a3565b6104a3806104e66000396000f3fe608060405234801561001057600080fd5b50600436106100365760003560e01c806315ca58541461003b57806359705f81146100cb575b600080fd5b6100b16004803603608081101561005157600080fd5b8101908080359060200190929190803573ffffffffffffffffffffffffffffffffffffffff169060200190929190803573ffffffffffffffffffffffffffffffffffffffff1690602001909291908035906020019092919050505061014f565b604051808215151515815260200191505060405180910390f35b6100d361031e565b604051808473ffffffffffffffffffffffffffffffffffffffff1673ffffffffffffffffffffffffffffffffffffffff1681526020018373ffffffffffffffffffffffffffffffffffffffff1673ffffffffffffffffffffffffffffffffffffffff168152602001828152602001935050505060405180910390f35b600080548514801561022e57508373ffffffffffffffffffffffffffffffffffffffff16600160009054906101000a900473ffffffffffffffffffffffffffffffffffffffff1673ffffffffffffffffffffffffffffffffffffffff1663b3cea2176040518163ffffffff1660e01b815260040160206040518083038186803b1580156101db57600080fd5b505afa1580156101ef573d6000803e3d6000fd5b505050506040513d602081101561020557600080fd5b810190808051906020019092919050505073ffffffffffffffffffffffffffffffffffffffff16145b801561030757508273ffffffffffffffffffffffffffffffffffffffff16600260009054906101000a900473ffffffffffffffffffffffffffffffffffffffff1673ffffffffffffffffffffffffffffffffffffffff1663b3cea2176040518163ffffffff1660e01b815260040160206040518083038186803b1580156102b457600080fd5b505afa1580156102c8573d6000803e3d6000fd5b505050506040513d60208110156102de57600080fd5b810190808051906020019092919050505073ffffffffffffffffffffffffffffffffffffffff16145b8015610314575060035482145b9050949350505050565b6000806000600160009054906101000a900473ffffffffffffffffffffffffffffffffffffffff1673ffffffffffffffffffffffffffffffffffffffff1663b3cea2176040518163ffffffff1660e01b815260040160206040518083038186803b15801561038b57600080fd5b505afa15801561039f573d6000803e3d6000fd5b505050506040513d60208110156103b557600080fd5b8101908080519060200190929190505050600260009054906101000a900473ffffffffffffffffffffffffffffffffffffffff1673ffffffffffffffffffffffffffffffffffffffff1663b3cea2176040518163ffffffff1660e01b815260040160206040518083038186803b15801561042e57600080fd5b505afa158015610442573d6000803e3d6000fd5b505050506040513d602081101561045857600080fd5b810190808051906020019092919050505060035492509250925090919256fea165627a7a72305820a079e992234757efaf7202709ed05ff4c9a2d3fd6acb903dc7a8b13874aefda1002954686973207472616e73616374696f6e2069662066726f6d20616e204f6c64204163636f756e74a165627a7a7230582044c5b6f89930025da81f532fb778f07dc52fcdeff5b5d2cfc55f22410dae7e5e0029",
  "source": "/* TransactionManager.sol */\r\n\r\npragma solidity >=0.4.0 <0.7.0;\r\n\r\nimport \"../contracts/UserManager.sol\";\r\nimport \"../contracts/ProposalManager.sol\";\r\n\r\nimport \"../contracts/Person.sol\";\r\nimport \"../contracts/Transaction.sol\";\r\n\r\n/* <Summary> \r\n\tManages the list of transaction as well as making transactions\r\n*/\r\n\r\ncontract TransactionManager {\r\n\tmapping (address => mapping (address => Transaction[]) ) transactions;\r\n\tUserManager UserManagerInstance;\t\t\t// Connects to the list of users on the network\r\n\tProposalManager ProposalManagerInstance;\t// Connects to the list of active proposals on the network\r\n\r\n\tconstructor(address UserManagerAddress, address ProposalManagerAddress) public {\r\n\t\tUserManagerInstance = UserManager(UserManagerAddress);\r\n\t\tProposalManagerInstance = ProposalManager(ProposalManagerAddress);\r\n\t}\r\n\r\n\tfunction BuyCoin() public payable {\r\n\t\taddress payable admin = UserManagerInstance.getAdmin();\r\n\t\tadmin.transfer(msg.value);\t\t\t\t\t\t\t\t// Spend ETH\r\n\r\n\t\tPerson buyer = UserManagerInstance.getUser(msg.sender); // Finds buy\r\n\t\tuint price = msg.value/10000000000000000;\t\t\t\t// 1 ETh = 100 Coins\r\n\t\tbuyer.increaseBalance(price);\t\t\t\t\t\t\t// Increase the reciever's balance\r\n\r\n\t}\r\n\r\n\t// Makes a transaction between 2 users\r\n\tfunction MakeTransaction(address _reciever, uint _amount) external {\r\n\t\trequire (_reciever != UserManagerInstance.getAdmin(), \"Can not send money to the admin\");\r\n\t\trequire (!CheckForBribery(msg.sender, _reciever), \"This is Bribery\");\r\n\t\trequire (!CheckForOldAccount(msg.sender), \"This transaction if from an Old Account\");\r\n\r\n\t\tPerson sender = UserManagerInstance.getUser(msg.sender); // Finds sender\r\n\t\tPerson reciever = UserManagerInstance.getUser(_reciever); // Finds reciever\r\n\r\n\t\t// Makes transaction \r\n\t\ttransactions[msg.sender][_reciever].push(new Transaction(sender, reciever, _amount));\r\n\t}\r\n\r\n\t// Gets transacions between 2 addresses\r\n\tfunction getTransactions(address sender, address receiver) external view returns(Transaction[] memory) {\r\n\t\treturn transactions[sender][receiver];\r\n\t}\r\n\r\n\t// Gets the number of transacions between 2 addresses\r\n\tfunction NumberOfTransactions(address sender, address receiver) external view returns(uint) {\r\n\t\treturn transactions[sender][receiver].length;\r\n\t}\r\n\r\n\t// Get a transaction between 2 address but returns it in parts\r\n\tfunction getTransactionJS(address sender, address receiver, uint i) external view returns(address, address, uint) {\r\n\t\trequire(i < transactions[sender][receiver].length && i >= 0, \"Invalid Index\");\r\n\t\treturn transactions[sender][receiver][i].getTransaction();\r\n\t}\r\n\r\n\tfunction Equal(address sender, address receiver, uint timeStamp, uint _amount) external view returns (bool) {\r\n\t\tTransaction[] storage temp = transactions[sender][receiver];\r\n\r\n\t\tfor (uint i = 0; i < temp.length; i++){\r\n\t\t\tif (temp[i].Equal(timeStamp, sender, receiver, _amount)){\r\n\t\t\t\treturn true;\r\n\t\t\t}\r\n\t\t}\r\n\t\treturn false;\r\n\t}\r\n\r\n\tfunction CheckForOldAccount(address _oldAccount) internal view returns (bool){\r\n\t\taddress[] memory addresses = UserManagerInstance.getAddresses(); // List of addresses on the network\r\n\t\tfor (uint i = 0; i < addresses.length; i++){\t\t\t\t\t// For each address\r\n\t\t\tif (_oldAccount != addresses[i]){\t\t\t\t\t\t\t// The new account can not be a voter\r\n\t\t\t\tif (ProposalManagerInstance.ActiveProposalLength(_oldAccount, addresses[i])){\r\n\t\t\t\t\treturn true;\r\n\t\t\t\t}\r\n\t\t\t}\r\n\t\t}\r\n\t\treturn false;\r\n\t}\r\n\r\n\tfunction CheckForBribery(address _newAccount, address _voter) internal view returns (bool){\r\n\t\taddress[] memory addresses = UserManagerInstance.getAddresses(); // List of addresses on the network\r\n\r\n\t\tfor (uint i = 0; i < addresses.length; i++){\t\t\t\t\t// For each address\r\n\t\t\tif (_newAccount != addresses[i]){\t\t\t\t\t\t\t// The new account can not be a voter\r\n\t\t\t\tif (ProposalManagerInstance.ActiveProposalLength(addresses[i], _newAccount)){\r\n\t\t\t\t\tProposal temp = ProposalManagerInstance.getActiveProposal(addresses[i], _newAccount);\r\n\t\t\t\t\taddress[] memory voters = temp.getVoters();\r\n\t\t\t\t\tfor(uint j = 0; j < voters.length; j++){\r\n\t\t\t\t\t\tif (voters[j] == _voter){\r\n\t\t\t\t\t\t\treturn false;\r\n\t\t\t\t\t\t}\r\n\t\t\t\t\t}\r\n\t\t\t\t}\r\n\t\t\t}\r\n\t\t}\r\n\t\treturn false;\r\n\t}\r\n\r\n}\r\n",
  "sourcePath": "C:\\Users\\m5w5b\\Desktop\\GitHub\\game-dapp\\AccountRecovery\\contracts\\TransactionManager.sol",
  "compiler": {
    "name": "solc",
    "version": "0.5.8+commit.23d335f2.Emscripten.clang"
  },
  "schemaVersion": "3.0.16",
  "updatedAt": "2019-10-29T18:49:20.556Z",
  "devdoc": {
    "methods": {}
  },
  "userdoc": {
    "methods": {}
  }
}