{
  "contractName": "Transaction",
  "abi": [
    {
      "inputs": [
        {
          "name": "_sender",
          "type": "address"
        },
        {
          "name": "_reciever",
          "type": "address"
        },
        {
          "name": "_amount",
          "type": "uint256"
        }
      ],
      "payable": false,
      "stateMutability": "nonpayable",
      "type": "constructor"
    },
    {
      "anonymous": false,
      "inputs": [
        {
          "indexed": true,
          "name": "_from",
          "type": "address"
        },
        {
          "indexed": true,
          "name": "_to",
          "type": "address"
        },
        {
          "indexed": false,
          "name": "_value",
          "type": "uint256"
        }
      ],
      "name": "Transfer",
      "type": "event"
    },
    {
      "constant": true,
      "inputs": [
        {
          "name": "_timeStamp",
          "type": "uint256"
        },
        {
          "name": "_sender",
          "type": "address"
        },
        {
          "name": "_receiver",
          "type": "address"
        },
        {
          "name": "_amount",
          "type": "uint256"
        }
      ],
      "name": "Equal",
      "outputs": [
        {
          "name": "",
          "type": "bool"
        }
      ],
      "payable": false,
      "stateMutability": "view",
      "type": "function"
    },
    {
      "constant": true,
      "inputs": [],
      "name": "getTransaction",
      "outputs": [
        {
          "name": "",
          "type": "address"
        },
        {
          "name": "",
          "type": "address"
        },
        {
          "name": "",
          "type": "uint256"
        }
      ],
      "payable": false,
      "stateMutability": "view",
      "type": "function"
    }
  ],
  "bytecode": "0x608060405234801561001057600080fd5b506040516060806109898339810180604052606081101561003057600080fd5b81019080805190602001909291908051906020019092919080519060200190929190505050808373ffffffffffffffffffffffffffffffffffffffff1663b69ef8a86040518163ffffffff1660e01b815260040160206040518083038186803b15801561009c57600080fd5b505afa1580156100b0573d6000803e3d6000fd5b505050506040513d60208110156100c657600080fd5b8101908080519060200190929190505050101561014b576040517f08c379a00000000000000000000000000000000000000000000000000000000081526004018080602001828103825260108152602001807f496e76616c69642042616c616e63652e0000000000000000000000000000000081525060200191505060405180910390fd5b600160008190555082600160006101000a81548173ffffffffffffffffffffffffffffffffffffffff021916908373ffffffffffffffffffffffffffffffffffffffff16021790555081600260006101000a81548173ffffffffffffffffffffffffffffffffffffffff021916908373ffffffffffffffffffffffffffffffffffffffff160217905550806003819055506101ea6101f260201b60201c565b5050506104d7565b600354600160009054906101000a900473ffffffffffffffffffffffffffffffffffffffff1673ffffffffffffffffffffffffffffffffffffffff1663b69ef8a86040518163ffffffff1660e01b815260040160206040518083038186803b15801561025d57600080fd5b505afa158015610271573d6000803e3d6000fd5b505050506040513d602081101561028757600080fd5b8101908080519060200190929190505050101561030c576040517f08c379a00000000000000000000000000000000000000000000000000000000081526004018080602001828103825260108152602001807f496e76616c69642042616c616e63652e0000000000000000000000000000000081525060200191505060405180910390fd5b600160009054906101000a900473ffffffffffffffffffffffffffffffffffffffff1673ffffffffffffffffffffffffffffffffffffffff1663392aee436003546040518263ffffffff1660e01b815260040180828152602001915050600060405180830381600087803b15801561038357600080fd5b505af1158015610397573d6000803e3d6000fd5b50505050600260009054906101000a900473ffffffffffffffffffffffffffffffffffffffff1673ffffffffffffffffffffffffffffffffffffffff16633e4ccb406003546040518263ffffffff1660e01b815260040180828152602001915050600060405180830381600087803b15801561041257600080fd5b505af1158015610426573d6000803e3d6000fd5b50505050600260009054906101000a900473ffffffffffffffffffffffffffffffffffffffff1673ffffffffffffffffffffffffffffffffffffffff16600160009054906101000a900473ffffffffffffffffffffffffffffffffffffffff1673ffffffffffffffffffffffffffffffffffffffff167fddf252ad1be2c89b69c2b068fc378daa952ba7f163c4a11628f55a4df523b3ef6003546040518082815260200191505060405180910390a3565b6104a3806104e66000396000f3fe608060405234801561001057600080fd5b50600436106100365760003560e01c806315ca58541461003b57806359705f81146100cb575b600080fd5b6100b16004803603608081101561005157600080fd5b8101908080359060200190929190803573ffffffffffffffffffffffffffffffffffffffff169060200190929190803573ffffffffffffffffffffffffffffffffffffffff1690602001909291908035906020019092919050505061014f565b604051808215151515815260200191505060405180910390f35b6100d361031e565b604051808473ffffffffffffffffffffffffffffffffffffffff1673ffffffffffffffffffffffffffffffffffffffff1681526020018373ffffffffffffffffffffffffffffffffffffffff1673ffffffffffffffffffffffffffffffffffffffff168152602001828152602001935050505060405180910390f35b600080548514801561022e57508373ffffffffffffffffffffffffffffffffffffffff16600160009054906101000a900473ffffffffffffffffffffffffffffffffffffffff1673ffffffffffffffffffffffffffffffffffffffff1663b3cea2176040518163ffffffff1660e01b815260040160206040518083038186803b1580156101db57600080fd5b505afa1580156101ef573d6000803e3d6000fd5b505050506040513d602081101561020557600080fd5b810190808051906020019092919050505073ffffffffffffffffffffffffffffffffffffffff16145b801561030757508273ffffffffffffffffffffffffffffffffffffffff16600260009054906101000a900473ffffffffffffffffffffffffffffffffffffffff1673ffffffffffffffffffffffffffffffffffffffff1663b3cea2176040518163ffffffff1660e01b815260040160206040518083038186803b1580156102b457600080fd5b505afa1580156102c8573d6000803e3d6000fd5b505050506040513d60208110156102de57600080fd5b810190808051906020019092919050505073ffffffffffffffffffffffffffffffffffffffff16145b8015610314575060035482145b9050949350505050565b6000806000600160009054906101000a900473ffffffffffffffffffffffffffffffffffffffff1673ffffffffffffffffffffffffffffffffffffffff1663b3cea2176040518163ffffffff1660e01b815260040160206040518083038186803b15801561038b57600080fd5b505afa15801561039f573d6000803e3d6000fd5b505050506040513d60208110156103b557600080fd5b8101908080519060200190929190505050600260009054906101000a900473ffffffffffffffffffffffffffffffffffffffff1673ffffffffffffffffffffffffffffffffffffffff1663b3cea2176040518163ffffffff1660e01b815260040160206040518083038186803b15801561042e57600080fd5b505afa158015610442573d6000803e3d6000fd5b505050506040513d602081101561045857600080fd5b810190808051906020019092919050505060035492509250925090919256fea165627a7a72305820a079e992234757efaf7202709ed05ff4c9a2d3fd6acb903dc7a8b13874aefda10029",
  "source": "/* Transaction.sol */\r\n\r\npragma solidity >=0.4.0 <0.7.0;\r\n\r\nimport \"../contracts/Person.sol\";\r\n\r\n/* <Summary> \r\n\tThis transaction repersents a transaction on the network\r\n*/\r\n\r\ncontract Transaction {\r\n\r\n\tuint timeStamp;\t\t\t\t\t\t// Time stamp of the transaction\r\n\tPerson sender;\t\t\t\t// Sender of the transaction\r\n\tPerson receiver;\t\t\t\t// Reciever of the transacion\r\n\tuint amount;\t\t\t\t\t// Amount of money traded\r\n\r\n\tevent Transfer(Person indexed _from, Person indexed _to, uint _value); // Transaction event\r\n\r\n\tconstructor(Person _sender, Person _reciever, uint _amount) public {\r\n\t\trequire(_sender.balance() >= _amount, \"Invalid Balance.\");\r\n\t\t\r\n\t\ttimeStamp = 1;\r\n\t\t// timeStamp = block.timestamp;\r\n\t\tsender = _sender;\r\n\t\treceiver = _reciever;\r\n\t\tamount = _amount;\r\n\t\tsendCoin();\r\n\t}\r\n\r\n\t// Send Money\r\n\tfunction sendCoin() internal {\r\n\t\trequire(sender.balance() >= amount, \"Invalid Balance.\");\r\n\t\tsender.decreaseBalance(amount);\t\t\t// Decrease the sender's balance\r\n\t\treceiver.increaseBalance(amount);\t\t// Increase the reciever's balance\r\n\t\temit Transfer(sender, receiver, amount);\r\n\t}\r\n\r\n\t// Returns if a set of data and this tranaction have the same set of public information\r\n\tfunction Equal(uint _timeStamp, address _sender, address _receiver, uint _amount) external view returns (bool){\r\n\t\treturn _timeStamp == timeStamp && sender.ID() == _sender && receiver.ID() == _receiver && _amount == amount;\r\n\t}\r\n\r\n\tfunction getTransaction() external view returns(address, address, uint) {\r\n\t\treturn (sender.ID(), receiver.ID(), amount);\r\n\t} \r\n}\t\r\n",
  "sourcePath": "C:\\Users\\m5w5b\\Desktop\\GitHub\\game-dapp\\AccountRecovery\\contracts\\Transaction.sol",
  "compiler": {
    "name": "solc",
    "version": "0.5.8+commit.23d335f2.Emscripten.clang"
  },
  "schemaVersion": "3.0.16",
  "updatedAt": "2019-10-29T18:49:17.013Z",
  "devdoc": {
    "methods": {}
  },
  "userdoc": {
    "methods": {}
  }
}