{
  "contractName": "UserManager",
  "abi": [
    {
      "inputs": [
        {
          "name": "_addresses",
          "type": "address[]"
        }
      ],
      "payable": false,
      "stateMutability": "nonpayable",
      "type": "constructor"
    },
    {
      "constant": true,
      "inputs": [
        {
          "name": "i",
          "type": "address"
        }
      ],
      "name": "getUser",
      "outputs": [
        {
          "name": "",
          "type": "address"
        }
      ],
      "payable": false,
      "stateMutability": "view",
      "type": "function"
    },
    {
      "constant": true,
      "inputs": [],
      "name": "getAddresses",
      "outputs": [
        {
          "name": "",
          "type": "address[]"
        }
      ],
      "payable": false,
      "stateMutability": "view",
      "type": "function"
    },
    {
      "constant": true,
      "inputs": [
        {
          "name": "i",
          "type": "address"
        }
      ],
      "name": "getUserBalance",
      "outputs": [
        {
          "name": "",
          "type": "uint256"
        }
      ],
      "payable": false,
      "stateMutability": "view",
      "type": "function"
    },
    {
      "constant": true,
      "inputs": [
        {
          "name": "i",
          "type": "address"
        }
      ],
      "name": "getUserID",
      "outputs": [
        {
          "name": "",
          "type": "address"
        }
      ],
      "payable": false,
      "stateMutability": "view",
      "type": "function"
    }
  ],
  "bytecode": "0x608060405234801561001057600080fd5b50604051610e9b380380610e9b8339810180604052602081101561003357600080fd5b81019080805164010000000081111561004b57600080fd5b8281019050602081018481111561006157600080fd5b815185602082028301116401000000008211171561007e57600080fd5b5050929190505050806001908051906020019061009c929190610218565b5060008090505b60018054905081101561021157600181815481106100bd57fe5b9060005260206000200160009054906101000a900473ffffffffffffffffffffffffffffffffffffffff166103e86040516100f7906102a2565b808373ffffffffffffffffffffffffffffffffffffffff1673ffffffffffffffffffffffffffffffffffffffff16815260200182815260200192505050604051809103906000f080158015610150573d6000803e3d6000fd5b506000806001848154811061016157fe5b9060005260206000200160009054906101000a900473ffffffffffffffffffffffffffffffffffffffff1673ffffffffffffffffffffffffffffffffffffffff1673ffffffffffffffffffffffffffffffffffffffff16815260200190815260200160002060006101000a81548173ffffffffffffffffffffffffffffffffffffffff021916908373ffffffffffffffffffffffffffffffffffffffff16021790555080806001019150506100a3565b50506102f2565b828054828255906000526020600020908101928215610291579160200282015b828111156102905782518260006101000a81548173ffffffffffffffffffffffffffffffffffffffff021916908373ffffffffffffffffffffffffffffffffffffffff16021790555091602001919060010190610238565b5b50905061029e91906102af565b5090565b61029080610c0b83390190565b6102ef91905b808211156102eb57600081816101000a81549073ffffffffffffffffffffffffffffffffffffffff0219169055506001016102b5565b5090565b90565b61090a806103016000396000f3fe608060405234801561001057600080fd5b506004361061004c5760003560e01c80630ef12aa91461005157806347734892146100d55780636f77926b1461012d578063a39fac12146101b1575b600080fd5b6100936004803603602081101561006757600080fd5b81019080803573ffffffffffffffffffffffffffffffffffffffff169060200190929190505050610210565b604051808273ffffffffffffffffffffffffffffffffffffffff1673ffffffffffffffffffffffffffffffffffffffff16815260200191505060405180910390f35b610117600480360360208110156100eb57600080fd5b81019080803573ffffffffffffffffffffffffffffffffffffffff169060200190929190505050610450565b6040518082815260200191505060405180910390f35b61016f6004803603602081101561014357600080fd5b81019080803573ffffffffffffffffffffffffffffffffffffffff169060200190929190505050610690565b604051808273ffffffffffffffffffffffffffffffffffffffff1673ffffffffffffffffffffffffffffffffffffffff16815260200191505060405180910390f35b6101b9610850565b6040518080602001828103825283818151815260200191508051906020019060200280838360005b838110156101fc5780820151818401526020810190506101e1565b505050509050019250505060405180910390f35b6000600115156000808473ffffffffffffffffffffffffffffffffffffffff1673ffffffffffffffffffffffffffffffffffffffff16815260200190815260200160002060009054906101000a900473ffffffffffffffffffffffffffffffffffffffff1673ffffffffffffffffffffffffffffffffffffffff1663267c4ae46040518163ffffffff1660e01b815260040160206040518083038186803b1580156102ba57600080fd5b505afa1580156102ce573d6000803e3d6000fd5b505050506040513d60208110156102e457600080fd5b810190808051906020019092919050505015151461036a576040517f08c379a00000000000000000000000000000000000000000000000000000000081526004018080602001828103825260188152602001807f54686973207573657220646f6573206e6f74206578697374000000000000000081525060200191505060405180910390fd5b6000808373ffffffffffffffffffffffffffffffffffffffff1673ffffffffffffffffffffffffffffffffffffffff16815260200190815260200160002060009054906101000a900473ffffffffffffffffffffffffffffffffffffffff1673ffffffffffffffffffffffffffffffffffffffff1663b3cea2176040518163ffffffff1660e01b815260040160206040518083038186803b15801561040e57600080fd5b505afa158015610422573d6000803e3d6000fd5b505050506040513d602081101561043857600080fd5b81019080805190602001909291905050509050919050565b6000600115156000808473ffffffffffffffffffffffffffffffffffffffff1673ffffffffffffffffffffffffffffffffffffffff16815260200190815260200160002060009054906101000a900473ffffffffffffffffffffffffffffffffffffffff1673ffffffffffffffffffffffffffffffffffffffff1663267c4ae46040518163ffffffff1660e01b815260040160206040518083038186803b1580156104fa57600080fd5b505afa15801561050e573d6000803e3d6000fd5b505050506040513d602081101561052457600080fd5b81019080805190602001909291905050501515146105aa576040517f08c379a00000000000000000000000000000000000000000000000000000000081526004018080602001828103825260188152602001807f54686973207573657220646f6573206e6f74206578697374000000000000000081525060200191505060405180910390fd5b6000808373ffffffffffffffffffffffffffffffffffffffff1673ffffffffffffffffffffffffffffffffffffffff16815260200190815260200160002060009054906101000a900473ffffffffffffffffffffffffffffffffffffffff1673ffffffffffffffffffffffffffffffffffffffff1663b69ef8a86040518163ffffffff1660e01b815260040160206040518083038186803b15801561064e57600080fd5b505afa158015610662573d6000803e3d6000fd5b505050506040513d602081101561067857600080fd5b81019080805190602001909291905050509050919050565b6000600115156000808473ffffffffffffffffffffffffffffffffffffffff1673ffffffffffffffffffffffffffffffffffffffff16815260200190815260200160002060009054906101000a900473ffffffffffffffffffffffffffffffffffffffff1673ffffffffffffffffffffffffffffffffffffffff1663267c4ae46040518163ffffffff1660e01b815260040160206040518083038186803b15801561073a57600080fd5b505afa15801561074e573d6000803e3d6000fd5b505050506040513d602081101561076457600080fd5b81019080805190602001909291905050501515146107ea576040517f08c379a00000000000000000000000000000000000000000000000000000000081526004018080602001828103825260188152602001807f54686973207573657220646f6573206e6f74206578697374000000000000000081525060200191505060405180910390fd5b6000808373ffffffffffffffffffffffffffffffffffffffff1673ffffffffffffffffffffffffffffffffffffffff16815260200190815260200160002060009054906101000a900473ffffffffffffffffffffffffffffffffffffffff169050919050565b606060018054806020026020016040519081016040528092919081815260200182805480156108d457602002820191906000526020600020905b8160009054906101000a900473ffffffffffffffffffffffffffffffffffffffff1673ffffffffffffffffffffffffffffffffffffffff168152602001906001019080831161088a575b505050505090509056fea165627a7a72305820c9a60059e27f87fc8405a870f97f129e24d2874f5ad02536d5eca3c4e88489f10029608060405234801561001057600080fd5b506040516040806102908339810180604052604081101561003057600080fd5b810190808051906020019092919080519060200190929190505050816000806101000a81548173ffffffffffffffffffffffffffffffffffffffff021916908373ffffffffffffffffffffffffffffffffffffffff160217905550806001819055506001600260006101000a81548160ff02191690831515021790555050506101d2806100be6000396000f3fe608060405234801561001057600080fd5b50600436106100575760003560e01c8063267c4ae41461005c578063392aee431461007e5780633e4ccb40146100ac578063b3cea217146100da578063b69ef8a814610124575b600080fd5b610064610142565b604051808215151515815260200191505060405180910390f35b6100aa6004803603602081101561009457600080fd5b8101908080359060200190929190505050610155565b005b6100d8600480360360208110156100c257600080fd5b8101908080359060200190929190505050610168565b005b6100e261017b565b604051808273ffffffffffffffffffffffffffffffffffffffff1673ffffffffffffffffffffffffffffffffffffffff16815260200191505060405180910390f35b61012c6101a0565b6040518082815260200191505060405180910390f35b600260009054906101000a900460ff1681565b8060016000828254039250508190555050565b8060016000828254019250508190555050565b6000809054906101000a900473ffffffffffffffffffffffffffffffffffffffff1681565b6001548156fea165627a7a7230582030f76cd239a8d806be8b75d2a6025e88f9e662b320c8792d35a1ed380c40d5a60029",
  "source": "/* UserManager.sol */\r\n\r\npragma solidity >=0.4.0 <0.7.0;\r\n\r\nimport \"../contracts/Person.sol\";\r\nimport \"../contracts/TransactionManager.sol\";\r\n\r\n/* <Summary> \r\n\tManages all the users in the network\r\n*/\r\n\r\ncontract UserManager {\r\n\r\n\tmapping (address => Person) Users;\t\t\t\t\t// Map of users on the network\r\n\taddress[] addresses;\t\t\t\t\t\t\t\t// Addresses on the network\r\n\r\n\tconstructor(address[] memory _addresses) public {\r\n\t\taddresses = _addresses;\r\n\t\tfor (uint i = 0; i < addresses.length; i++) {\t// Creates users on the network\r\n\t\t\tUsers[addresses[i]] = new Person(addresses[i], 1000);\r\n\t\t}\r\n\t}\r\n\r\n\t// Gets User with the given address\r\n\tfunction getUser(address i) external view returns(Person) {\r\n\t\trequire(Users[i].exists() == true, \"This user does not exist\");\r\n\t\treturn Users[i];\r\n\t}\r\n\r\n\t// Gets the list of addresses on the network\r\n\tfunction getAddresses() external view returns(address[] memory) {\r\n\t\treturn addresses;\r\n\t}\r\n\r\n\tfunction getUserBalance(address i) external view returns(uint) {\r\n\t\trequire(Users[i].exists() == true, \"This user does not exist\");\r\n\t\treturn Users[i].balance();\r\n\t}\r\n\r\n\tfunction getUserID(address i) external view returns(address) {\r\n\t\trequire(Users[i].exists() == true, \"This user does not exist\");\r\n\t\treturn Users[i].ID();\r\n\t}\r\n}\r\n",
  "sourcePath": "C:\\Users\\m5w5b\\Desktop\\GitHub\\game-dapp\\AccountRecovery\\contracts\\UserManager.sol",
  "compiler": {
    "name": "solc",
    "version": "0.5.8+commit.23d335f2.Emscripten.clang"
  },
  "schemaVersion": "3.0.16",
  "updatedAt": "2019-10-18T01:35:03.021Z",
  "devdoc": {
    "methods": {}
  },
  "userdoc": {
    "methods": {}
  }
}