{
  "contractName": "UserManager",
  "abi": [
    {
      "inputs": [
        {
          "name": "_addresses",
          "type": "address[]"
        }
      ],
      "payable": false,
      "stateMutability": "nonpayable",
      "type": "constructor"
    },
    {
      "constant": true,
      "inputs": [
        {
          "name": "i",
          "type": "address"
        }
      ],
      "name": "getUser",
      "outputs": [
        {
          "name": "",
          "type": "address"
        }
      ],
      "payable": false,
      "stateMutability": "view",
      "type": "function"
    },
    {
      "constant": true,
      "inputs": [
        {
          "name": "i",
          "type": "address"
        }
      ],
      "name": "getUserBalance",
      "outputs": [
        {
          "name": "",
          "type": "uint256"
        }
      ],
      "payable": false,
      "stateMutability": "view",
      "type": "function"
    },
    {
      "constant": true,
      "inputs": [
        {
          "name": "i",
          "type": "address"
        }
      ],
      "name": "getUserID",
      "outputs": [
        {
          "name": "",
          "type": "address"
        }
      ],
      "payable": false,
      "stateMutability": "view",
      "type": "function"
    }
  ],
  "bytecode": "0x608060405234801561001057600080fd5b506040516108f33803806108f38339810180604052602081101561003357600080fd5b81019080805164010000000081111561004b57600080fd5b8281019050602081018481111561006157600080fd5b815185602082028301116401000000008211171561007e57600080fd5b505092919050505060008090505b81518110156101ad578181815181106100a157fe5b602002602001015160646040516100b7906101cb565b808373ffffffffffffffffffffffffffffffffffffffff1673ffffffffffffffffffffffffffffffffffffffff16815260200182815260200192505050604051809103906000f080158015610110573d6000803e3d6000fd5b5060008084848151811061012057fe5b602002602001015173ffffffffffffffffffffffffffffffffffffffff1673ffffffffffffffffffffffffffffffffffffffff16815260200190815260200160002060006101000a81548173ffffffffffffffffffffffffffffffffffffffff021916908373ffffffffffffffffffffffffffffffffffffffff160217905550808060010191505061008c565b5080600190805190602001906101c49291906101d8565b50506102a5565b610235806106be83390190565b828054828255906000526020600020908101928215610251579160200282015b828111156102505782518260006101000a81548173ffffffffffffffffffffffffffffffffffffffff021916908373ffffffffffffffffffffffffffffffffffffffff160217905550916020019190600101906101f8565b5b50905061025e9190610262565b5090565b6102a291905b8082111561029e57600081816101000a81549073ffffffffffffffffffffffffffffffffffffffff021916905550600101610268565b5090565b90565b61040a806102b46000396000f3fe608060405234801561001057600080fd5b50600436106100415760003560e01c80630ef12aa91461004657806347734892146100ca5780636f77926b14610122575b600080fd5b6100886004803603602081101561005c57600080fd5b81019080803573ffffffffffffffffffffffffffffffffffffffff1690602001909291905050506101a6565b604051808273ffffffffffffffffffffffffffffffffffffffff1673ffffffffffffffffffffffffffffffffffffffff16815260200191505060405180910390f35b61010c600480360360208110156100e057600080fd5b81019080803573ffffffffffffffffffffffffffffffffffffffff16906020019092919050505061028e565b6040518082815260200191505060405180910390f35b6101646004803603602081101561013857600080fd5b81019080803573ffffffffffffffffffffffffffffffffffffffff169060200190929190505050610376565b604051808273ffffffffffffffffffffffffffffffffffffffff1673ffffffffffffffffffffffffffffffffffffffff16815260200191505060405180910390f35b60008060008373ffffffffffffffffffffffffffffffffffffffff1673ffffffffffffffffffffffffffffffffffffffff16815260200190815260200160002060009054906101000a900473ffffffffffffffffffffffffffffffffffffffff1673ffffffffffffffffffffffffffffffffffffffff1663b3cea2176040518163ffffffff1660e01b815260040160206040518083038186803b15801561024c57600080fd5b505afa158015610260573d6000803e3d6000fd5b505050506040513d602081101561027657600080fd5b81019080805190602001909291905050509050919050565b60008060008373ffffffffffffffffffffffffffffffffffffffff1673ffffffffffffffffffffffffffffffffffffffff16815260200190815260200160002060009054906101000a900473ffffffffffffffffffffffffffffffffffffffff1673ffffffffffffffffffffffffffffffffffffffff1663b69ef8a86040518163ffffffff1660e01b815260040160206040518083038186803b15801561033457600080fd5b505afa158015610348573d6000803e3d6000fd5b505050506040513d602081101561035e57600080fd5b81019080805190602001909291905050509050919050565b60008060008373ffffffffffffffffffffffffffffffffffffffff1673ffffffffffffffffffffffffffffffffffffffff16815260200190815260200160002060009054906101000a900473ffffffffffffffffffffffffffffffffffffffff16905091905056fea165627a7a72305820b22050e1bc465a0cd99f2df7a7ad539312bcda4dc988c997b6010b717aa7d1b90029608060405234801561001057600080fd5b506040516040806102358339810180604052604081101561003057600080fd5b810190808051906020019092919080519060200190929190505050816000806101000a81548173ffffffffffffffffffffffffffffffffffffffff021916908373ffffffffffffffffffffffffffffffffffffffff160217905550806001819055505050610192806100a36000396000f3fe608060405234801561001057600080fd5b506004361061004c5760003560e01c8063392aee43146100515780633e4ccb401461007f578063b3cea217146100ad578063b69ef8a8146100f7575b600080fd5b61007d6004803603602081101561006757600080fd5b8101908080359060200190929190505050610115565b005b6100ab6004803603602081101561009557600080fd5b8101908080359060200190929190505050610128565b005b6100b561013b565b604051808273ffffffffffffffffffffffffffffffffffffffff1673ffffffffffffffffffffffffffffffffffffffff16815260200191505060405180910390f35b6100ff610160565b6040518082815260200191505060405180910390f35b8060016000828254039250508190555050565b8060016000828254019250508190555050565b6000809054906101000a900473ffffffffffffffffffffffffffffffffffffffff1681565b6001548156fea165627a7a723058200f4f4661dae9187150b884ecc1fcf3e8e2d9ee97668338fa8086cb8d601f87230029",
  "source": "pragma solidity >=0.4.0 <0.7.0;\r\n\r\nimport \"../contracts/Person.sol\";\r\n\r\ncontract UserManager {\r\n\r\n\tmapping (address => Person) Users;\r\n\taddress[] addresses;\r\n\r\n\tconstructor(address[] memory _addresses) public {\r\n\t\tfor (uint i = 0; i < _addresses.length; i++) {\r\n\t\t\tUsers[_addresses[i]] = new Person(_addresses[i], 100);\r\n\t\t}\r\n\t\taddresses = _addresses;\r\n\t}\r\n\r\n\tfunction getUser(address i) public view returns(Person) {\r\n\t\treturn Users[i];\r\n\t}\r\n\r\n\tfunction getUserBalance(address i) public view returns(uint) {\r\n\t\treturn Users[i].balance();\r\n\t}\r\n\r\n\tfunction getUserID(address i) public view returns(address) {\r\n\t\treturn Users[i].ID();\r\n\t}\r\n}",
  "sourcePath": "C:/Users/m5w5b/Desktop/GitHub/game-dapp/AccountRecovery/contracts/UserManager.sol",
  "compiler": {
    "name": "solc",
    "version": "0.5.8+commit.23d335f2.Emscripten.clang"
  },
  "schemaVersion": "3.0.16",
  "updatedAt": "2019-10-08T16:58:50.481Z",
  "devdoc": {
    "methods": {}
  },
  "userdoc": {
    "methods": {}
  }
}