{
  "contractName": "UserManager",
  "abi": [
    {
      "inputs": [
        {
          "name": "_addresses",
          "type": "address[]"
        }
      ],
      "payable": false,
      "stateMutability": "nonpayable",
      "type": "constructor"
    },
    {
      "constant": true,
      "inputs": [],
      "name": "getAdmin",
      "outputs": [
        {
          "name": "",
          "type": "address"
        }
      ],
      "payable": false,
      "stateMutability": "view",
      "type": "function"
    },
    {
      "constant": true,
      "inputs": [
        {
          "name": "i",
          "type": "address"
        }
      ],
      "name": "getUser",
      "outputs": [
        {
          "name": "",
          "type": "address"
        }
      ],
      "payable": false,
      "stateMutability": "view",
      "type": "function"
    },
    {
      "constant": true,
      "inputs": [],
      "name": "getAddresses",
      "outputs": [
        {
          "name": "",
          "type": "address[]"
        }
      ],
      "payable": false,
      "stateMutability": "view",
      "type": "function"
    },
    {
      "constant": true,
      "inputs": [
        {
          "name": "i",
          "type": "address"
        }
      ],
      "name": "getUserBalance",
      "outputs": [
        {
          "name": "",
          "type": "uint256"
        }
      ],
      "payable": false,
      "stateMutability": "view",
      "type": "function"
    },
    {
      "constant": true,
      "inputs": [
        {
          "name": "i",
          "type": "address"
        }
      ],
      "name": "getUserID",
      "outputs": [
        {
          "name": "",
          "type": "address"
        }
      ],
      "payable": false,
      "stateMutability": "view",
      "type": "function"
    }
  ],
  "bytecode": "0x60806040523480156200001157600080fd5b50604051620011a7380380620011a7833981018060405260208110156200003757600080fd5b8101908080516401000000008111156200005057600080fd5b828101905060208101848111156200006757600080fd5b81518560208202830111640100000000821117156200008557600080fd5b50509291905050508060019080519060200190620000a592919062000477565b5033600260006101000a81548173ffffffffffffffffffffffffffffffffffffffff021916908373ffffffffffffffffffffffffffffffffffffffff160217905550600260009054906101000a900473ffffffffffffffffffffffffffffffffffffffff166103e86040516200011b9062000506565b808373ffffffffffffffffffffffffffffffffffffffff1673ffffffffffffffffffffffffffffffffffffffff16815260200182815260200192505050604051809103906000f08015801562000175573d6000803e3d6000fd5b50600080600260009054906101000a900473ffffffffffffffffffffffffffffffffffffffff1673ffffffffffffffffffffffffffffffffffffffff1673ffffffffffffffffffffffffffffffffffffffff16815260200190815260200160002060006101000a81548173ffffffffffffffffffffffffffffffffffffffff021916908373ffffffffffffffffffffffffffffffffffffffff16021790555060008090505b6001805490508110156200046f57600181815481106200023657fe5b9060005260206000200160009054906101000a900473ffffffffffffffffffffffffffffffffffffffff1673ffffffffffffffffffffffffffffffffffffffff16600260009054906101000a900473ffffffffffffffffffffffffffffffffffffffff1673ffffffffffffffffffffffffffffffffffffffff16141562000309576040517f08c379a0000000000000000000000000000000000000000000000000000000008152600401808060200182810382526024815260200180620011836024913960400191505060405180910390fd5b600181815481106200031757fe5b9060005260206000200160009054906101000a900473ffffffffffffffffffffffffffffffffffffffff166000604051620003529062000506565b808373ffffffffffffffffffffffffffffffffffffffff1673ffffffffffffffffffffffffffffffffffffffff16815260200182815260200192505050604051809103906000f080158015620003ac573d6000803e3d6000fd5b5060008060018481548110620003be57fe5b9060005260206000200160009054906101000a900473ffffffffffffffffffffffffffffffffffffffff1673ffffffffffffffffffffffffffffffffffffffff1673ffffffffffffffffffffffffffffffffffffffff16815260200190815260200160002060006101000a81548173ffffffffffffffffffffffffffffffffffffffff021916908373ffffffffffffffffffffffffffffffffffffffff16021790555080806001019150506200021a565b50506200055a565b828054828255906000526020600020908101928215620004f3579160200282015b82811115620004f25782518260006101000a81548173ffffffffffffffffffffffffffffffffffffffff021916908373ffffffffffffffffffffffffffffffffffffffff1602179055509160200191906001019062000498565b5b50905062000502919062000514565b5090565b6102908062000ef383390190565b6200055791905b808211156200055357600081816101000a81549073ffffffffffffffffffffffffffffffffffffffff0219169055506001016200051b565b5090565b90565b610989806200056a6000396000f3fe608060405234801561001057600080fd5b50600436106100575760003560e01c80630ef12aa91461005c57806347734892146100e05780636e9960c3146101385780636f77926b14610182578063a39fac1214610206575b600080fd5b61009e6004803603602081101561007257600080fd5b81019080803573ffffffffffffffffffffffffffffffffffffffff169060200190929190505050610265565b604051808273ffffffffffffffffffffffffffffffffffffffff1673ffffffffffffffffffffffffffffffffffffffff16815260200191505060405180910390f35b610122600480360360208110156100f657600080fd5b81019080803573ffffffffffffffffffffffffffffffffffffffff1690602001909291905050506104a5565b6040518082815260200191505060405180910390f35b6101406106e5565b604051808273ffffffffffffffffffffffffffffffffffffffff1673ffffffffffffffffffffffffffffffffffffffff16815260200191505060405180910390f35b6101c46004803603602081101561019857600080fd5b81019080803573ffffffffffffffffffffffffffffffffffffffff16906020019092919050505061070f565b604051808273ffffffffffffffffffffffffffffffffffffffff1673ffffffffffffffffffffffffffffffffffffffff16815260200191505060405180910390f35b61020e6108cf565b6040518080602001828103825283818151815260200191508051906020019060200280838360005b83811015610251578082015181840152602081019050610236565b505050509050019250505060405180910390f35b6000600115156000808473ffffffffffffffffffffffffffffffffffffffff1673ffffffffffffffffffffffffffffffffffffffff16815260200190815260200160002060009054906101000a900473ffffffffffffffffffffffffffffffffffffffff1673ffffffffffffffffffffffffffffffffffffffff1663267c4ae46040518163ffffffff1660e01b815260040160206040518083038186803b15801561030f57600080fd5b505afa158015610323573d6000803e3d6000fd5b505050506040513d602081101561033957600080fd5b81019080805190602001909291905050501515146103bf576040517f08c379a00000000000000000000000000000000000000000000000000000000081526004018080602001828103825260188152602001807f54686973207573657220646f6573206e6f74206578697374000000000000000081525060200191505060405180910390fd5b6000808373ffffffffffffffffffffffffffffffffffffffff1673ffffffffffffffffffffffffffffffffffffffff16815260200190815260200160002060009054906101000a900473ffffffffffffffffffffffffffffffffffffffff1673ffffffffffffffffffffffffffffffffffffffff1663b3cea2176040518163ffffffff1660e01b815260040160206040518083038186803b15801561046357600080fd5b505afa158015610477573d6000803e3d6000fd5b505050506040513d602081101561048d57600080fd5b81019080805190602001909291905050509050919050565b6000600115156000808473ffffffffffffffffffffffffffffffffffffffff1673ffffffffffffffffffffffffffffffffffffffff16815260200190815260200160002060009054906101000a900473ffffffffffffffffffffffffffffffffffffffff1673ffffffffffffffffffffffffffffffffffffffff1663267c4ae46040518163ffffffff1660e01b815260040160206040518083038186803b15801561054f57600080fd5b505afa158015610563573d6000803e3d6000fd5b505050506040513d602081101561057957600080fd5b81019080805190602001909291905050501515146105ff576040517f08c379a00000000000000000000000000000000000000000000000000000000081526004018080602001828103825260188152602001807f54686973207573657220646f6573206e6f74206578697374000000000000000081525060200191505060405180910390fd5b6000808373ffffffffffffffffffffffffffffffffffffffff1673ffffffffffffffffffffffffffffffffffffffff16815260200190815260200160002060009054906101000a900473ffffffffffffffffffffffffffffffffffffffff1673ffffffffffffffffffffffffffffffffffffffff1663b69ef8a86040518163ffffffff1660e01b815260040160206040518083038186803b1580156106a357600080fd5b505afa1580156106b7573d6000803e3d6000fd5b505050506040513d60208110156106cd57600080fd5b81019080805190602001909291905050509050919050565b6000600260009054906101000a900473ffffffffffffffffffffffffffffffffffffffff16905090565b6000600115156000808473ffffffffffffffffffffffffffffffffffffffff1673ffffffffffffffffffffffffffffffffffffffff16815260200190815260200160002060009054906101000a900473ffffffffffffffffffffffffffffffffffffffff1673ffffffffffffffffffffffffffffffffffffffff1663267c4ae46040518163ffffffff1660e01b815260040160206040518083038186803b1580156107b957600080fd5b505afa1580156107cd573d6000803e3d6000fd5b505050506040513d60208110156107e357600080fd5b8101908080519060200190929190505050151514610869576040517f08c379a00000000000000000000000000000000000000000000000000000000081526004018080602001828103825260188152602001807f54686973207573657220646f6573206e6f74206578697374000000000000000081525060200191505060405180910390fd5b6000808373ffffffffffffffffffffffffffffffffffffffff1673ffffffffffffffffffffffffffffffffffffffff16815260200190815260200160002060009054906101000a900473ffffffffffffffffffffffffffffffffffffffff169050919050565b6060600180548060200260200160405190810160405280929190818152602001828054801561095357602002820191906000526020600020905b8160009054906101000a900473ffffffffffffffffffffffffffffffffffffffff1673ffffffffffffffffffffffffffffffffffffffff1681526020019060010190808311610909575b505050505090509056fea165627a7a72305820a1628e7603eed5bd40b805357be184245ff97906b0581c20400913822c05a4e60029608060405234801561001057600080fd5b506040516040806102908339810180604052604081101561003057600080fd5b810190808051906020019092919080519060200190929190505050816000806101000a81548173ffffffffffffffffffffffffffffffffffffffff021916908373ffffffffffffffffffffffffffffffffffffffff160217905550806001819055506001600260006101000a81548160ff02191690831515021790555050506101d2806100be6000396000f3fe608060405234801561001057600080fd5b50600436106100575760003560e01c8063267c4ae41461005c578063392aee431461007e5780633e4ccb40146100ac578063b3cea217146100da578063b69ef8a814610124575b600080fd5b610064610142565b604051808215151515815260200191505060405180910390f35b6100aa6004803603602081101561009457600080fd5b8101908080359060200190929190505050610155565b005b6100d8600480360360208110156100c257600080fd5b8101908080359060200190929190505050610168565b005b6100e261017b565b604051808273ffffffffffffffffffffffffffffffffffffffff1673ffffffffffffffffffffffffffffffffffffffff16815260200191505060405180910390f35b61012c6101a0565b6040518082815260200191505060405180910390f35b600260009054906101000a900460ff1681565b8060016000828254039250508190555050565b8060016000828254019250508190555050565b6000809054906101000a900473ffffffffffffffffffffffffffffffffffffffff1681565b6001548156fea165627a7a7230582030f76cd239a8d806be8b75d2a6025e88f9e662b320c8792d35a1ed380c40d5a6002941646d696e2063616e206e6f742062652070617274206f6620746865206e6574776f726b",
  "source": "/* UserManager.sol */\r\n\r\npragma solidity >=0.4.0 <0.7.0;\r\n\r\nimport \"../contracts/Person.sol\";\r\nimport \"../contracts/TransactionManager.sol\";\r\n\r\n/* <Summary> \r\n\tManages all the users in the network\r\n*/\r\n\r\ncontract UserManager {\r\n\r\n\tmapping (address => Person) Users;\t\t\t\t\t// Map of users on the network\r\n\taddress[] addresses;\t\t\t\t\t\t\t\t// Addresses on the network\r\n\taddress payable admin;\r\n\r\n\tconstructor(address[] memory _addresses) public {\r\n\t\taddresses = _addresses;\r\n\r\n\t\tadmin = msg.sender;\r\n\t\tUsers[admin] = new Person(admin, 1000);\r\n\r\n\t\tfor (uint i = 0; i < addresses.length; i++) {\t// Creates users on the network\r\n\t\t\trequire(admin != addresses[i], \"Admin can not be part of the network\");\r\n\t\t\tUsers[addresses[i]] = new Person(addresses[i], 0);\r\n\t\t}\r\n\t}\r\n\r\n\t// Gets the adress of the admin of the network\r\n\tfunction getAdmin() external view returns(address payable) {\r\n\t\treturn admin;\r\n\t}\r\n\r\n\t// Gets User with the given address\r\n\tfunction getUser(address i) external view returns(Person) {\r\n\t\trequire(Users[i].exists() == true, \"This user does not exist\");\r\n\t\treturn Users[i];\r\n\t}\r\n\r\n\t// Gets the list of addresses on the network\r\n\tfunction getAddresses() external view returns(address[] memory) {\r\n\t\treturn addresses;\r\n\t}\r\n\r\n\tfunction getUserBalance(address i) external view returns(uint) {\r\n\t\trequire(Users[i].exists() == true, \"This user does not exist\");\r\n\t\treturn Users[i].balance();\r\n\t}\r\n\r\n\tfunction getUserID(address i) external view returns(address) {\r\n\t\trequire(Users[i].exists() == true, \"This user does not exist\");\r\n\t\treturn Users[i].ID();\r\n\t}\r\n}\r\n",
  "sourcePath": "C:\\Users\\m5w5b\\Desktop\\GitHub\\game-dapp\\AccountRecovery\\contracts\\UserManager.sol",
  "compiler": {
    "name": "solc",
    "version": "0.5.8+commit.23d335f2.Emscripten.clang"
  },
  "schemaVersion": "3.0.16",
  "updatedAt": "2019-10-29T18:49:20.543Z",
  "devdoc": {
    "methods": {}
  },
  "userdoc": {
    "methods": {}
  }
}