{
  "contractName": "UserManager",
  "abi": [
    {
      "inputs": [
        {
          "name": "_addresses",
          "type": "address[]"
        }
      ],
      "payable": false,
      "stateMutability": "nonpayable",
      "type": "constructor"
    },
    {
      "constant": true,
      "inputs": [],
      "name": "getAdmin",
      "outputs": [
        {
          "name": "",
          "type": "address"
        }
      ],
      "payable": false,
      "stateMutability": "view",
      "type": "function"
    },
    {
      "constant": true,
      "inputs": [
        {
          "name": "i",
          "type": "address"
        }
      ],
      "name": "getUser",
      "outputs": [
        {
          "name": "",
          "type": "address"
        }
      ],
      "payable": false,
      "stateMutability": "view",
      "type": "function"
    },
    {
      "constant": true,
      "inputs": [],
      "name": "getAddresses",
      "outputs": [
        {
          "name": "",
          "type": "address[]"
        }
      ],
      "payable": false,
      "stateMutability": "view",
      "type": "function"
    },
    {
      "constant": true,
      "inputs": [
        {
          "name": "i",
          "type": "address"
        }
      ],
      "name": "getUserBalance",
      "outputs": [
        {
          "name": "",
          "type": "uint256"
        }
      ],
      "payable": false,
      "stateMutability": "view",
      "type": "function"
    },
    {
      "constant": false,
      "inputs": [
        {
          "name": "_time",
          "type": "uint256"
        }
      ],
      "name": "changeVetoTime",
      "outputs": [],
      "payable": false,
      "stateMutability": "nonpayable",
      "type": "function"
    }
  ],
  "bytecode": "0x608060405234801561001057600080fd5b50604051610be2380380610be28339810180604052602081101561003357600080fd5b81019080805164010000000081111561004b57600080fd5b8281019050602081018481111561006157600080fd5b815185602082028301116401000000008211171561007e57600080fd5b5050929190505050806001908051906020019061009c9291906102e1565b5033600260006101000a81548173ffffffffffffffffffffffffffffffffffffffff021916908373ffffffffffffffffffffffffffffffffffffffff16021790555060008090505b6001805490508110156102da576100f961036b565b6001828154811061010657fe5b9060005260206000200160009054906101000a900473ffffffffffffffffffffffffffffffffffffffff166000620151806040516101439061039d565b808473ffffffffffffffffffffffffffffffffffffffff1673ffffffffffffffffffffffffffffffffffffffff1681526020018381526020018281526020019350505050604051809103906000f0801580156101a3573d6000803e3d6000fd5b50816000019073ffffffffffffffffffffffffffffffffffffffff16908173ffffffffffffffffffffffffffffffffffffffff1681525050600181602001901515908115158152505080600080600185815481106101fd57fe5b9060005260206000200160009054906101000a900473ffffffffffffffffffffffffffffffffffffffff1673ffffffffffffffffffffffffffffffffffffffff1673ffffffffffffffffffffffffffffffffffffffff16815260200190815260200160002060008201518160000160006101000a81548173ffffffffffffffffffffffffffffffffffffffff021916908373ffffffffffffffffffffffffffffffffffffffff16021790555060208201518160000160146101000a81548160ff0219169083151502179055509050505080806001019150506100e4565b50506103ed565b82805482825590600052602060002090810192821561035a579160200282015b828111156103595782518260006101000a81548173ffffffffffffffffffffffffffffffffffffffff021916908373ffffffffffffffffffffffffffffffffffffffff16021790555091602001919060010190610301565b5b50905061036791906103aa565b5090565b6040518060400160405280600073ffffffffffffffffffffffffffffffffffffffff1681526020016000151581525090565b6102b98061092983390190565b6103ea91905b808211156103e657600081816101000a81549073ffffffffffffffffffffffffffffffffffffffff0219169055506001016103b0565b5090565b90565b61052d806103fc6000396000f3fe608060405234801561001057600080fd5b50600436106100565760003560e01c80628c4cc11461005b57806347734892146100895780636e9960c3146100e15780636f77926b1461012b578063a39fac12146101af575b600080fd5b6100876004803603602081101561007157600080fd5b810190808035906020019092919050505061020e565b005b6100cb6004803603602081101561009f57600080fd5b81019080803573ffffffffffffffffffffffffffffffffffffffff169060200190929190505050610284565b6040518082815260200191505060405180910390f35b6100e9610316565b604051808273ffffffffffffffffffffffffffffffffffffffff1673ffffffffffffffffffffffffffffffffffffffff16815260200191505060405180910390f35b61016d6004803603602081101561014157600080fd5b81019080803573ffffffffffffffffffffffffffffffffffffffff169060200190929190505050610340565b604051808273ffffffffffffffffffffffffffffffffffffffff1673ffffffffffffffffffffffffffffffffffffffff16815260200191505060405180910390f35b6101b7610473565b6040518080602001828103825283818151815260200191508051906020019060200280838360005b838110156101fa5780820151818401526020810190506101df565b505050509050019250505060405180910390f35b61021733610340565b73ffffffffffffffffffffffffffffffffffffffff16634ea13d84826040518263ffffffff1660e01b815260040180828152602001915050600060405180830381600087803b15801561026957600080fd5b505af115801561027d573d6000803e3d6000fd5b5050505050565b600061028f82610340565b73ffffffffffffffffffffffffffffffffffffffff1663b69ef8a86040518163ffffffff1660e01b815260040160206040518083038186803b1580156102d457600080fd5b505afa1580156102e8573d6000803e3d6000fd5b505050506040513d60208110156102fe57600080fd5b81019080805190602001909291905050509050919050565b6000600260009054906101000a900473ffffffffffffffffffffffffffffffffffffffff16905090565b6000600115156000808473ffffffffffffffffffffffffffffffffffffffff1673ffffffffffffffffffffffffffffffffffffffff16815260200190815260200160002060000160149054906101000a900460ff1615151461040a576040517f08c379a00000000000000000000000000000000000000000000000000000000081526004018080602001828103825260188152602001807f54686973207573657220646f6573206e6f74206578697374000000000000000081525060200191505060405180910390fd5b6000808373ffffffffffffffffffffffffffffffffffffffff1673ffffffffffffffffffffffffffffffffffffffff16815260200190815260200160002060000160009054906101000a900473ffffffffffffffffffffffffffffffffffffffff169050919050565b606060018054806020026020016040519081016040528092919081815260200182805480156104f757602002820191906000526020600020905b8160009054906101000a900473ffffffffffffffffffffffffffffffffffffffff1673ffffffffffffffffffffffffffffffffffffffff16815260200190600101908083116104ad575b505050505090509056fea165627a7a72305820e2eb644a4eafcb31d2713073125e80363f9baba47aeeefeba7263f1e2d40de290029608060405234801561001057600080fd5b506040516060806102b98339810180604052606081101561003057600080fd5b81019080805190602001909291908051906020019092919080519060200190929190505050826000806101000a81548173ffffffffffffffffffffffffffffffffffffffff021916908373ffffffffffffffffffffffffffffffffffffffff1602179055508160018190555080600281905550505050610204806100b56000396000f3fe608060405234801561001057600080fd5b50600436106100625760003560e01c8063392aee43146100675780633e4ccb40146100955780634ea13d84146100c3578063b3cea217146100f1578063b69ef8a81461013b578063b7f6885214610159575b600080fd5b6100936004803603602081101561007d57600080fd5b8101908080359060200190929190505050610177565b005b6100c1600480360360208110156100ab57600080fd5b810190808035906020019092919050505061018a565b005b6100ef600480360360208110156100d957600080fd5b810190808035906020019092919050505061019d565b005b6100f96101a7565b604051808273ffffffffffffffffffffffffffffffffffffffff1673ffffffffffffffffffffffffffffffffffffffff16815260200191505060405180910390f35b6101436101cc565b6040518082815260200191505060405180910390f35b6101616101d2565b6040518082815260200191505060405180910390f35b8060016000828254039250508190555050565b8060016000828254019250508190555050565b8060028190555050565b6000809054906101000a900473ffffffffffffffffffffffffffffffffffffffff1681565b60015481565b6002548156fea165627a7a723058207c428967853a30dc542254f5e486a36d982f505504e37f330e1757bbf6baaa190029",
  "source": "/* UserManager.sol */\r\n\r\npragma solidity >=0.4.0 <0.7.0;\r\n\r\nimport \"../contracts/Person.sol\";\r\nimport \"../contracts/TransactionManager.sol\";\r\n\r\n/* <Summary> \r\n\tManages all the users in the network\r\n*/\r\n\r\ncontract UserManager {\r\n\r\n\t// A struct containing a user as well as if they are a part of the network\r\n\tstruct UserPair {\r\n\t\tPerson person;\r\n\t\tbool exists;\r\n\t}\r\n\r\n\tmapping (address => UserPair) Users;\t\t// Map of users on the network\r\n\taddress[] addresses;\t\t\t\t\t\t// Addresses on the network\r\n\taddress payable admin;\t\t\t\t\t\t// Address of the admin\r\n\r\n\tconstructor(address[] memory _addresses) public {\r\n\t\taddresses = _addresses;\r\n\r\n\t\tadmin = msg.sender;\r\n\r\n\t\t// Creates users on the network\r\n\t\tfor (uint i = 0; i < addresses.length; i++) {\r\n\r\n\t\t\t// A struct containing a user and if they are a part of the network\r\n\t\t\tUserPair memory tempPair;\r\n\t\t\ttempPair.person = new Person(addresses[i], 0, 86400);\t// Create account\r\n\t\t\ttempPair.exists = true;\t\t\t\t// They are apart of the network\t\r\n\t\t\tUsers[addresses[i]] = tempPair;\t\t// Add them to the map of users\r\n\t\t}\r\n\t}\r\n\r\n\t// Gets the adress of the admin of the network\r\n\tfunction getAdmin() external view returns (address payable) {\r\n\t\treturn admin;\r\n\t}\r\n\r\n\t// Gets the user with the given address\r\n\tfunction getUser(address i) public view returns (Person) {\r\n\t\t// Requires that the user is a part of the network\r\n\t\trequire(Users[i].exists == true, \"This user does not exist\");\r\n\t\treturn Users[i].person;\t\t\t\t\t// Returns user\r\n\t}\r\n\r\n\t// Gets the list of addresses on the network\r\n\tfunction getAddresses() external view returns (address[] memory) {\r\n\t\treturn addresses;\r\n\t}\r\n\t\r\n\t// Gets the balance of a user in the network\r\n\tfunction getUserBalance(address i) external view returns (uint) {\r\n\t\treturn getUser(i).balance();\r\n\t}\r\n\r\n\t// Changes the time desinated for this address to veto a malicious proposal\r\n\tfunction changeVetoTime(uint _time) external {\r\n\t\tgetUser(msg.sender).setVetoTime(_time);\r\n\t}\r\n}\r\n",
  "sourcePath": "C:\\Users\\m5w5b\\Desktop\\GitHub\\game-dapp\\AccountRecovery\\contracts\\UserManager.sol",
  "compiler": {
    "name": "solc",
    "version": "0.5.8+commit.23d335f2.Emscripten.clang"
  },
  "schemaVersion": "3.0.16",
  "updatedAt": "2019-11-15T18:03:58.473Z",
  "devdoc": {
    "methods": {}
  },
  "userdoc": {
    "methods": {}
  }
}