{
  "contractName": "UserManager",
  "abi": [
    {
      "inputs": [
        {
          "name": "_addresses",
          "type": "address[]"
        }
      ],
      "payable": false,
      "stateMutability": "nonpayable",
      "type": "constructor"
    },
    {
      "constant": true,
      "inputs": [],
      "name": "getAdmin",
      "outputs": [
        {
          "name": "",
          "type": "address"
        }
      ],
      "payable": false,
      "stateMutability": "view",
      "type": "function"
    },
    {
      "constant": true,
      "inputs": [
        {
          "name": "i",
          "type": "address"
        }
      ],
      "name": "getUser",
      "outputs": [
        {
          "name": "",
          "type": "address"
        }
      ],
      "payable": false,
      "stateMutability": "view",
      "type": "function"
    },
    {
      "constant": true,
      "inputs": [],
      "name": "getAddresses",
      "outputs": [
        {
          "name": "",
          "type": "address[]"
        }
      ],
      "payable": false,
      "stateMutability": "view",
      "type": "function"
    },
    {
      "constant": true,
      "inputs": [
        {
          "name": "i",
          "type": "address"
        }
      ],
      "name": "getUserBalance",
      "outputs": [
        {
          "name": "",
          "type": "uint256"
        }
      ],
      "payable": false,
      "stateMutability": "view",
      "type": "function"
    },
    {
      "constant": true,
      "inputs": [
        {
          "name": "i",
          "type": "address"
        }
      ],
      "name": "getUserID",
      "outputs": [
        {
          "name": "",
          "type": "address"
        }
      ],
      "payable": false,
      "stateMutability": "view",
      "type": "function"
    },
    {
      "constant": false,
      "inputs": [
        {
          "name": "_time",
          "type": "uint256"
        }
      ],
      "name": "changeVetoTime",
      "outputs": [],
      "payable": false,
      "stateMutability": "nonpayable",
      "type": "function"
    }
  ],
  "bytecode": "0x60806040523480156200001157600080fd5b50604051620013b2380380620013b2833981018060405260208110156200003757600080fd5b8101908080516401000000008111156200005057600080fd5b828101905060208101848111156200006757600080fd5b81518560208202830111640100000000821117156200008557600080fd5b50509291905050508060019080519060200190620000a59291906200050e565b5033600260006101000a81548173ffffffffffffffffffffffffffffffffffffffff021916908373ffffffffffffffffffffffffffffffffffffffff160217905550600260009054906101000a900473ffffffffffffffffffffffffffffffffffffffff166103e860006040516200011d906200059d565b808473ffffffffffffffffffffffffffffffffffffffff1673ffffffffffffffffffffffffffffffffffffffff1681526020018381526020018281526020019350505050604051809103906000f0801580156200017e573d6000803e3d6000fd5b50600080600260009054906101000a900473ffffffffffffffffffffffffffffffffffffffff1673ffffffffffffffffffffffffffffffffffffffff1673ffffffffffffffffffffffffffffffffffffffff16815260200190815260200160002060006101000a81548173ffffffffffffffffffffffffffffffffffffffff021916908373ffffffffffffffffffffffffffffffffffffffff16021790555060016000815481106200022c57fe5b9060005260206000200160009054906101000a900473ffffffffffffffffffffffffffffffffffffffff166000600160405162000269906200059d565b808473ffffffffffffffffffffffffffffffffffffffff1673ffffffffffffffffffffffffffffffffffffffff1681526020018381526020018281526020019350505050604051809103906000f080158015620002ca573d6000803e3d6000fd5b506000806001600081548110620002dd57fe5b9060005260206000200160009054906101000a900473ffffffffffffffffffffffffffffffffffffffff1673ffffffffffffffffffffffffffffffffffffffff1673ffffffffffffffffffffffffffffffffffffffff16815260200190815260200160002060006101000a81548173ffffffffffffffffffffffffffffffffffffffff021916908373ffffffffffffffffffffffffffffffffffffffff1602179055506000600190505b600180549050811015620005065760018181548110620003a357fe5b9060005260206000200160009054906101000a900473ffffffffffffffffffffffffffffffffffffffff16600062015180604051620003e2906200059d565b808473ffffffffffffffffffffffffffffffffffffffff1673ffffffffffffffffffffffffffffffffffffffff1681526020018381526020018281526020019350505050604051809103906000f08015801562000443573d6000803e3d6000fd5b50600080600184815481106200045557fe5b9060005260206000200160009054906101000a900473ffffffffffffffffffffffffffffffffffffffff1673ffffffffffffffffffffffffffffffffffffffff1673ffffffffffffffffffffffffffffffffffffffff16815260200190815260200160002060006101000a81548173ffffffffffffffffffffffffffffffffffffffff021916908373ffffffffffffffffffffffffffffffffffffffff160217905550808060010191505062000387565b5050620005f1565b8280548282559060005260206000209081019282156200058a579160200282015b82811115620005895782518260006101000a81548173ffffffffffffffffffffffffffffffffffffffff021916908373ffffffffffffffffffffffffffffffffffffffff160217905550916020019190600101906200052f565b5b509050620005999190620005ab565b5090565b610324806200108e83390190565b620005ee91905b80821115620005ea57600081816101000a81549073ffffffffffffffffffffffffffffffffffffffff021916905550600101620005b2565b5090565b90565b610a8d80620006016000396000f3fe608060405234801561001057600080fd5b50600436106100615760003560e01c80628c4cc1146100665780630ef12aa91461009457806347734892146101185780636e9960c3146101705780636f77926b146101ba578063a39fac121461023e575b600080fd5b6100926004803603602081101561007c57600080fd5b810190808035906020019092919050505061029d565b005b6100d6600480360360208110156100aa57600080fd5b81019080803573ffffffffffffffffffffffffffffffffffffffff169060200190929190505050610369565b604051808273ffffffffffffffffffffffffffffffffffffffff1673ffffffffffffffffffffffffffffffffffffffff16815260200191505060405180910390f35b61015a6004803603602081101561012e57600080fd5b81019080803573ffffffffffffffffffffffffffffffffffffffff1690602001909291905050506105a9565b6040518082815260200191505060405180910390f35b6101786107e9565b604051808273ffffffffffffffffffffffffffffffffffffffff1673ffffffffffffffffffffffffffffffffffffffff16815260200191505060405180910390f35b6101fc600480360360208110156101d057600080fd5b81019080803573ffffffffffffffffffffffffffffffffffffffff169060200190929190505050610813565b604051808273ffffffffffffffffffffffffffffffffffffffff1673ffffffffffffffffffffffffffffffffffffffff16815260200191505060405180910390f35b6102466109d3565b6040518080602001828103825283818151815260200191508051906020019060200280838360005b8381101561028957808201518184015260208101905061026e565b505050509050019250505060405180910390f35b6000803373ffffffffffffffffffffffffffffffffffffffff1673ffffffffffffffffffffffffffffffffffffffff16815260200190815260200160002060009054906101000a900473ffffffffffffffffffffffffffffffffffffffff1673ffffffffffffffffffffffffffffffffffffffff16634ea13d84826040518263ffffffff1660e01b815260040180828152602001915050600060405180830381600087803b15801561034e57600080fd5b505af1158015610362573d6000803e3d6000fd5b5050505050565b6000600115156000808473ffffffffffffffffffffffffffffffffffffffff1673ffffffffffffffffffffffffffffffffffffffff16815260200190815260200160002060009054906101000a900473ffffffffffffffffffffffffffffffffffffffff1673ffffffffffffffffffffffffffffffffffffffff1663267c4ae46040518163ffffffff1660e01b815260040160206040518083038186803b15801561041357600080fd5b505afa158015610427573d6000803e3d6000fd5b505050506040513d602081101561043d57600080fd5b81019080805190602001909291905050501515146104c3576040517f08c379a00000000000000000000000000000000000000000000000000000000081526004018080602001828103825260188152602001807f54686973207573657220646f6573206e6f74206578697374000000000000000081525060200191505060405180910390fd5b6000808373ffffffffffffffffffffffffffffffffffffffff1673ffffffffffffffffffffffffffffffffffffffff16815260200190815260200160002060009054906101000a900473ffffffffffffffffffffffffffffffffffffffff1673ffffffffffffffffffffffffffffffffffffffff1663b3cea2176040518163ffffffff1660e01b815260040160206040518083038186803b15801561056757600080fd5b505afa15801561057b573d6000803e3d6000fd5b505050506040513d602081101561059157600080fd5b81019080805190602001909291905050509050919050565b6000600115156000808473ffffffffffffffffffffffffffffffffffffffff1673ffffffffffffffffffffffffffffffffffffffff16815260200190815260200160002060009054906101000a900473ffffffffffffffffffffffffffffffffffffffff1673ffffffffffffffffffffffffffffffffffffffff1663267c4ae46040518163ffffffff1660e01b815260040160206040518083038186803b15801561065357600080fd5b505afa158015610667573d6000803e3d6000fd5b505050506040513d602081101561067d57600080fd5b8101908080519060200190929190505050151514610703576040517f08c379a00000000000000000000000000000000000000000000000000000000081526004018080602001828103825260188152602001807f54686973207573657220646f6573206e6f74206578697374000000000000000081525060200191505060405180910390fd5b6000808373ffffffffffffffffffffffffffffffffffffffff1673ffffffffffffffffffffffffffffffffffffffff16815260200190815260200160002060009054906101000a900473ffffffffffffffffffffffffffffffffffffffff1673ffffffffffffffffffffffffffffffffffffffff1663b69ef8a86040518163ffffffff1660e01b815260040160206040518083038186803b1580156107a757600080fd5b505afa1580156107bb573d6000803e3d6000fd5b505050506040513d60208110156107d157600080fd5b81019080805190602001909291905050509050919050565b6000600260009054906101000a900473ffffffffffffffffffffffffffffffffffffffff16905090565b6000600115156000808473ffffffffffffffffffffffffffffffffffffffff1673ffffffffffffffffffffffffffffffffffffffff16815260200190815260200160002060009054906101000a900473ffffffffffffffffffffffffffffffffffffffff1673ffffffffffffffffffffffffffffffffffffffff1663267c4ae46040518163ffffffff1660e01b815260040160206040518083038186803b1580156108bd57600080fd5b505afa1580156108d1573d6000803e3d6000fd5b505050506040513d60208110156108e757600080fd5b810190808051906020019092919050505015151461096d576040517f08c379a00000000000000000000000000000000000000000000000000000000081526004018080602001828103825260188152602001807f54686973207573657220646f6573206e6f74206578697374000000000000000081525060200191505060405180910390fd5b6000808373ffffffffffffffffffffffffffffffffffffffff1673ffffffffffffffffffffffffffffffffffffffff16815260200190815260200160002060009054906101000a900473ffffffffffffffffffffffffffffffffffffffff169050919050565b60606001805480602002602001604051908101604052809291908181526020018280548015610a5757602002820191906000526020600020905b8160009054906101000a900473ffffffffffffffffffffffffffffffffffffffff1673ffffffffffffffffffffffffffffffffffffffff1681526020019060010190808311610a0d575b505050505090509056fea165627a7a72305820027befbd9f4e292be3a1b527ce38cc0da0e7f75d08e413b44e53268133de06ff0029608060405234801561001057600080fd5b506040516060806103248339810180604052606081101561003057600080fd5b81019080805190602001909291908051906020019092919080519060200190929190505050826000806101000a81548173ffffffffffffffffffffffffffffffffffffffff021916908373ffffffffffffffffffffffffffffffffffffffff160217905550816001819055506001600260006101000a81548160ff02191690831515021790555080600381905550505050610254806100d06000396000f3fe608060405234801561001057600080fd5b506004361061007d5760003560e01c80634ea13d841161005b5780634ea13d8414610100578063b3cea2171461012e578063b69ef8a814610178578063b7f68852146101965761007d565b8063267c4ae414610082578063392aee43146100a45780633e4ccb40146100d2575b600080fd5b61008a6101b4565b604051808215151515815260200191505060405180910390f35b6100d0600480360360208110156100ba57600080fd5b81019080803590602001909291905050506101c7565b005b6100fe600480360360208110156100e857600080fd5b81019080803590602001909291905050506101da565b005b61012c6004803603602081101561011657600080fd5b81019080803590602001909291905050506101ed565b005b6101366101f7565b604051808273ffffffffffffffffffffffffffffffffffffffff1673ffffffffffffffffffffffffffffffffffffffff16815260200191505060405180910390f35b61018061021c565b6040518082815260200191505060405180910390f35b61019e610222565b6040518082815260200191505060405180910390f35b600260009054906101000a900460ff1681565b8060016000828254039250508190555050565b8060016000828254019250508190555050565b8060038190555050565b6000809054906101000a900473ffffffffffffffffffffffffffffffffffffffff1681565b60015481565b6003548156fea165627a7a72305820cba3da87d532e2daa6cd7f39a77694b300ae42d367f580ac654f45a5d84a51a50029",
  "source": "/* UserManager.sol */\r\n\r\npragma solidity >=0.4.0 <0.7.0;\r\n\r\nimport \"../contracts/Person.sol\";\r\nimport \"../contracts/TransactionManager.sol\";\r\n\r\n/* <Summary> \r\n\tManages all the users in the network\r\n*/\r\n\r\ncontract UserManager {\r\n\r\n\tmapping (address => Person) Users;\t\t\t\t\t// Map of users on the network\r\n\taddress[] addresses;\t\t\t\t\t\t\t\t// Addresses on the network\r\n\taddress payable admin;\r\n\r\n\tconstructor(address[] memory _addresses) public {\r\n\t\taddresses = _addresses;\r\n\r\n\t\tadmin = msg.sender;\r\n\t\tUsers[admin] = new Person(admin, 1000, 0);\r\n\r\n\t\tUsers[addresses[0]] = new Person(addresses[0], 0, 1);\r\n\r\n\t\tfor (uint i = 1; i < addresses.length; i++) {\t// Creates users on the network\r\n\t\t\tUsers[addresses[i]] = new Person(addresses[i], 0, 86400);\r\n\t\t}\r\n\t}\r\n\r\n\t// Gets the adress of the admin of the network\r\n\tfunction getAdmin() external view returns (address payable) {\r\n\t\treturn admin;\r\n\t}\r\n\r\n\t// Gets User with the given address\r\n\tfunction getUser(address i) external view returns (Person) {\r\n\t\trequire(Users[i].exists() == true, \"This user does not exist\");\r\n\t\treturn Users[i];\r\n\t}\r\n\r\n\t// Gets the list of addresses on the network\r\n\tfunction getAddresses() external view returns (address[] memory) {\r\n\t\treturn addresses;\r\n\t}\r\n\r\n\tfunction getUserBalance(address i) external view returns (uint) {\r\n\t\trequire(Users[i].exists() == true, \"This user does not exist\");\r\n\t\treturn Users[i].balance();\r\n\t}\r\n\r\n\tfunction getUserID(address i) external view returns (address) {\r\n\t\trequire(Users[i].exists() == true, \"This user does not exist\");\r\n\t\treturn Users[i].ID();\r\n\t}\r\n\r\n\tfunction changeVetoTime(uint _time) external {\r\n\t\tUsers[msg.sender].setVetoTime(_time);\r\n\t}\r\n}\r\n",
  "sourcePath": "C:\\Users\\m5w5b\\Desktop\\GitHub\\game-dapp\\AccountRecovery\\contracts\\UserManager.sol",
  "compiler": {
    "name": "solc",
    "version": "0.5.8+commit.23d335f2.Emscripten.clang"
  },
  "schemaVersion": "3.0.16",
  "updatedAt": "2019-10-31T15:37:04.008Z",
  "devdoc": {
    "methods": {}
  },
  "userdoc": {
    "methods": {}
  }
}