{
  "contractName": "VotingToken",
  "abi": [
    {
      "constant": true,
      "inputs": [],
      "name": "exists",
      "outputs": [
        {
          "name": "",
          "type": "bool"
        }
      ],
      "payable": false,
      "stateMutability": "view",
      "type": "function"
    },
    {
      "constant": true,
      "inputs": [],
      "name": "voted",
      "outputs": [
        {
          "name": "",
          "type": "bool"
        }
      ],
      "payable": false,
      "stateMutability": "view",
      "type": "function"
    },
    {
      "constant": true,
      "inputs": [],
      "name": "voter",
      "outputs": [
        {
          "name": "",
          "type": "address"
        }
      ],
      "payable": false,
      "stateMutability": "view",
      "type": "function"
    },
    {
      "constant": true,
      "inputs": [],
      "name": "vote",
      "outputs": [
        {
          "name": "",
          "type": "bool"
        }
      ],
      "payable": false,
      "stateMutability": "view",
      "type": "function"
    },
    {
      "constant": true,
      "inputs": [],
      "name": "privateInfo",
      "outputs": [
        {
          "name": "",
          "type": "bool"
        }
      ],
      "payable": false,
      "stateMutability": "view",
      "type": "function"
    },
    {
      "constant": true,
      "inputs": [],
      "name": "dataSet",
      "outputs": [
        {
          "name": "",
          "type": "address"
        }
      ],
      "payable": false,
      "stateMutability": "view",
      "type": "function"
    },
    {
      "constant": true,
      "inputs": [],
      "name": "publicInfo",
      "outputs": [
        {
          "name": "",
          "type": "bool"
        }
      ],
      "payable": false,
      "stateMutability": "view",
      "type": "function"
    },
    {
      "inputs": [
        {
          "name": "_voter",
          "type": "address"
        }
      ],
      "payable": false,
      "stateMutability": "nonpayable",
      "type": "constructor"
    },
    {
      "anonymous": false,
      "inputs": [
        {
          "indexed": true,
          "name": "_voter",
          "type": "address"
        },
        {
          "indexed": false,
          "name": "_choice",
          "type": "bool"
        }
      ],
      "name": "Vote",
      "type": "event"
    },
    {
      "constant": false,
      "inputs": [
        {
          "name": "from",
          "type": "address"
        },
        {
          "name": "choice",
          "type": "bool"
        }
      ],
      "name": "CastVote",
      "outputs": [],
      "payable": false,
      "stateMutability": "nonpayable",
      "type": "function"
    },
    {
      "constant": false,
      "inputs": [
        {
          "name": "_oldAccount",
          "type": "address"
        },
        {
          "name": "_timeStamp",
          "type": "uint256"
        },
        {
          "name": "_amount",
          "type": "uint256"
        },
        {
          "name": "_voter",
          "type": "address"
        }
      ],
      "name": "AddPublicInformation",
      "outputs": [],
      "payable": false,
      "stateMutability": "nonpayable",
      "type": "function"
    },
    {
      "constant": false,
      "inputs": [
        {
          "name": "description",
          "type": "string"
        },
        {
          "name": "itemsInTrade",
          "type": "string"
        }
      ],
      "name": "AddPrivateInformation",
      "outputs": [],
      "payable": false,
      "stateMutability": "nonpayable",
      "type": "function"
    },
    {
      "constant": true,
      "inputs": [],
      "name": "ViewPublicInformation",
      "outputs": [
        {
          "name": "",
          "type": "uint256"
        },
        {
          "name": "",
          "type": "uint256"
        },
        {
          "name": "",
          "type": "address"
        },
        {
          "name": "",
          "type": "address"
        }
      ],
      "payable": false,
      "stateMutability": "view",
      "type": "function"
    },
    {
      "constant": true,
      "inputs": [],
      "name": "ViewPrivateInformation",
      "outputs": [
        {
          "name": "",
          "type": "string"
        },
        {
          "name": "",
          "type": "string"
        }
      ],
      "payable": false,
      "stateMutability": "view",
      "type": "function"
    }
  ],
  "bytecode": "0x608060405234801561001057600080fd5b50604051602080611eb08339810180604052602081101561003057600080fd5b8101908080519060200190929190505050600073ffffffffffffffffffffffffffffffffffffffff168173ffffffffffffffffffffffffffffffffffffffff1614156100e4576040517f08c379a00000000000000000000000000000000000000000000000000000000081526004018080602001828103825260118152602001807f5468657265206973206e6f20766f74657200000000000000000000000000000081525060200191505060405180910390fd5b80600060016101000a81548173ffffffffffffffffffffffffffffffffffffffff021916908373ffffffffffffffffffffffffffffffffffffffff16021790555060008060156101000a81548160ff02191690831515021790555060016000806101000a81548160ff02191690831515021790555060008060166101000a81548160ff02191690831515021790555060008060176101000a81548160ff0219169083151502179055506001600060186101000a81548160ff0219169083151502179055506040516101b490610217565b604051809103906000f0801580156101d0573d6000803e3d6000fd5b50600160006101000a81548173ffffffffffffffffffffffffffffffffffffffff021916908373ffffffffffffffffffffffffffffffffffffffff16021790555050610224565b6108bc806115f483390190565b6113c1806102336000396000f3fe608060405234801561001057600080fd5b50600436106100b45760003560e01c80637c273ddb116100715780637c273ddb14610346578063822e59d21461036857806394bba46414610457578063c31e5f66146104a1578063ea8e3623146104c3578063fa041dd71461053b576100b4565b80630d4246e6146100b9578063224093731461020b578063267c4ae4146102965780633500f91e146102b857806346c96aac146102da578063632a9a5214610324575b600080fd5b610209600480360360408110156100cf57600080fd5b81019080803590602001906401000000008111156100ec57600080fd5b8201836020820111156100fe57600080fd5b8035906020019184600183028401116401000000008311171561012057600080fd5b91908080601f016020809104026020016040519081016040528093929190818152602001838380828437600081840152601f19601f8201169050808301925050505050505091929192908035906020019064010000000081111561018357600080fd5b82018360208201111561019557600080fd5b803590602001918460018302840111640100000000831117156101b757600080fd5b91908080601f016020809104026020016040519081016040528093929190818152602001838380828437600081840152601f19601f82011690508083019250505050505050919291929050505061058b565b005b610213610791565b604051808581526020018481526020018373ffffffffffffffffffffffffffffffffffffffff1673ffffffffffffffffffffffffffffffffffffffff1681526020018273ffffffffffffffffffffffffffffffffffffffff1673ffffffffffffffffffffffffffffffffffffffff16815260200194505050505060405180910390f35b61029e610a9d565b604051808215151515815260200191505060405180910390f35b6102c0610aaf565b604051808215151515815260200191505060405180910390f35b6102e2610ac2565b604051808273ffffffffffffffffffffffffffffffffffffffff1673ffffffffffffffffffffffffffffffffffffffff16815260200191505060405180910390f35b61032c610ae8565b604051808215151515815260200191505060405180910390f35b61034e610afb565b604051808215151515815260200191505060405180910390f35b610370610b0e565b604051808060200180602001838103835285818151815260200191508051906020019080838360005b838110156103b4578082015181840152602081019050610399565b50505050905090810190601f1680156103e15780820380516001836020036101000a031916815260200191505b50838103825284818151815260200191508051906020019080838360005b8381101561041a5780820151818401526020810190506103ff565b50505050905090810190601f1680156104475780820380516001836020036101000a031916815260200191505b5094505050505060405180910390f35b61045f610d7d565b604051808273ffffffffffffffffffffffffffffffffffffffff1673ffffffffffffffffffffffffffffffffffffffff16815260200191505060405180910390f35b6104a9610da3565b604051808215151515815260200191505060405180910390f35b610539600480360360808110156104d957600080fd5b81019080803573ffffffffffffffffffffffffffffffffffffffff1690602001909291908035906020019092919080359060200190929190803573ffffffffffffffffffffffffffffffffffffffff169060200190929190505050610db6565b005b6105896004803603604081101561055157600080fd5b81019080803573ffffffffffffffffffffffffffffffffffffffff16906020019092919080351515906020019092919050505061101f565b005b600115156000809054906101000a900460ff16151514610613576040517f08c379a00000000000000000000000000000000000000000000000000000000081526004018080602001828103825260198152602001807f5468697320766f74657220646f6573206e6f742065786973740000000000000081525060200191505060405180910390fd5b600160009054906101000a900473ffffffffffffffffffffffffffffffffffffffff1673ffffffffffffffffffffffffffffffffffffffff16630d4246e683836040518363ffffffff1660e01b8152600401808060200180602001838103835285818151815260200191508051906020019080838360005b838110156106a657808201518184015260208101905061068b565b50505050905090810190601f1680156106d35780820380516001836020036101000a031916815260200191505b50838103825284818151815260200191508051906020019080838360005b8381101561070c5780820151818401526020810190506106f1565b50505050905090810190601f1680156107395780820380516001836020036101000a031916815260200191505b50945050505050600060405180830381600087803b15801561075a57600080fd5b505af115801561076e573d6000803e3d6000fd5b505050506001600060186101000a81548160ff0219169083151502179055505050565b60008060008060011515600060179054906101000a900460ff16151514610803576040517f08c379a00000000000000000000000000000000000000000000000000000000081526004018080602001828103825260268152602001806113496026913960400191505060405180910390fd5b600160009054906101000a900473ffffffffffffffffffffffffffffffffffffffff1673ffffffffffffffffffffffffffffffffffffffff16630ab0df876040518163ffffffff1660e01b815260040160206040518083038186803b15801561086b57600080fd5b505afa15801561087f573d6000803e3d6000fd5b505050506040513d602081101561089557600080fd5b8101908080519060200190929190505050600160009054906101000a900473ffffffffffffffffffffffffffffffffffffffff1673ffffffffffffffffffffffffffffffffffffffff1663aa8c217c6040518163ffffffff1660e01b815260040160206040518083038186803b15801561090e57600080fd5b505afa158015610922573d6000803e3d6000fd5b505050506040513d602081101561093857600080fd5b8101908080519060200190929190505050600160009054906101000a900473ffffffffffffffffffffffffffffffffffffffff1673ffffffffffffffffffffffffffffffffffffffff166367e404ce6040518163ffffffff1660e01b815260040160206040518083038186803b1580156109b157600080fd5b505afa1580156109c5573d6000803e3d6000fd5b505050506040513d60208110156109db57600080fd5b8101908080519060200190929190505050600160009054906101000a900473ffffffffffffffffffffffffffffffffffffffff1673ffffffffffffffffffffffffffffffffffffffff1663f7260d3e6040518163ffffffff1660e01b815260040160206040518083038186803b158015610a5457600080fd5b505afa158015610a68573d6000803e3d6000fd5b505050506040513d6020811015610a7e57600080fd5b8101908080519060200190929190505050935093509350935090919293565b6000809054906101000a900460ff1681565b600060169054906101000a900460ff1681565b600060019054906101000a900473ffffffffffffffffffffffffffffffffffffffff1681565b600060159054906101000a900460ff1681565b600060189054906101000a900460ff1681565b60608060011515600060189054906101000a900460ff16151514610b7d576040517f08c379a000000000000000000000000000000000000000000000000000000000815260040180806020018281038252602781526020018061136f6027913960400191505060405180910390fd5b600160009054906101000a900473ffffffffffffffffffffffffffffffffffffffff1673ffffffffffffffffffffffffffffffffffffffff16637284e4166040518163ffffffff1660e01b815260040160006040518083038186803b158015610be557600080fd5b505afa158015610bf9573d6000803e3d6000fd5b505050506040513d6000823e3d601f19601f820116820180604052506020811015610c2357600080fd5b810190808051640100000000811115610c3b57600080fd5b82810190506020810184811115610c5157600080fd5b8151856001820283011164010000000082111715610c6e57600080fd5b5050929190505050600160009054906101000a900473ffffffffffffffffffffffffffffffffffffffff1673ffffffffffffffffffffffffffffffffffffffff16638dcdaeed6040518163ffffffff1660e01b815260040160006040518083038186803b158015610cde57600080fd5b505afa158015610cf2573d6000803e3d6000fd5b505050506040513d6000823e3d601f19601f820116820180604052506020811015610d1c57600080fd5b810190808051640100000000811115610d3457600080fd5b82810190506020810184811115610d4a57600080fd5b8151856001820283011164010000000082111715610d6757600080fd5b5050929190505050819150809050915091509091565b600160009054906101000a900473ffffffffffffffffffffffffffffffffffffffff1681565b600060179054906101000a900460ff1681565b600115156000809054906101000a900460ff16151514610e3e576040517f08c379a00000000000000000000000000000000000000000000000000000000081526004018080602001828103825260198152602001807f5468697320766f74657220646f6573206e6f742065786973740000000000000081525060200191505060405180910390fd5b8073ffffffffffffffffffffffffffffffffffffffff16600060019054906101000a900473ffffffffffffffffffffffffffffffffffffffff1673ffffffffffffffffffffffffffffffffffffffff1614610f01576040517f08c379a00000000000000000000000000000000000000000000000000000000081526004018080602001828103825260158152602001807f4e6f742074686520636f727265637420766f746572000000000000000000000081525060200191505060405180910390fd5b600160009054906101000a900473ffffffffffffffffffffffffffffffffffffffff1673ffffffffffffffffffffffffffffffffffffffff1663ea8e3623858585856040518563ffffffff1660e01b8152600401808573ffffffffffffffffffffffffffffffffffffffff1673ffffffffffffffffffffffffffffffffffffffff1681526020018481526020018381526020018273ffffffffffffffffffffffffffffffffffffffff1673ffffffffffffffffffffffffffffffffffffffff168152602001945050505050600060405180830381600087803b158015610fe657600080fd5b505af1158015610ffa573d6000803e3d6000fd5b505050506001600060176101000a81548160ff02191690831515021790555050505050565b600115156000809054906101000a900460ff161515146110a7576040517f08c379a00000000000000000000000000000000000000000000000000000000081526004018080602001828103825260198152602001807f5468697320766f74657220646f6573206e6f742065786973740000000000000081525060200191505060405180910390fd5b8173ffffffffffffffffffffffffffffffffffffffff16600060019054906101000a900473ffffffffffffffffffffffffffffffffffffffff1673ffffffffffffffffffffffffffffffffffffffff161461116a576040517f08c379a00000000000000000000000000000000000000000000000000000000081526004018080602001828103825260198152602001807f53656e742066726f6d207468652077726f6e6720766f7465720000000000000081525060200191505060405180910390fd5b60011515600060179054906101000a900460ff1615151480156111a0575060011515600060189054906101000a900460ff161515145b611212576040517f08c379a00000000000000000000000000000000000000000000000000000000081526004018080602001828103825260158152602001807f4e6f7420616e20656c696769626c6520766f746572000000000000000000000081525060200191505060405180910390fd5b60001515600060169054906101000a900460ff1615151461129b576040517f08c379a000000000000000000000000000000000000000000000000000000000815260040180806020018281038252600d8152602001807f416c726561647920566f7465640000000000000000000000000000000000000081525060200191505060405180910390fd5b80600060156101000a81548160ff0219169083151502179055506001600060166101000a81548160ff021916908315150217905550600060019054906101000a900473ffffffffffffffffffffffffffffffffffffffff1673ffffffffffffffffffffffffffffffffffffffff167fa635d31e67484fd1d93ba01ab0ef882e4440a78aa40d0e2771e8a2aace45986982604051808215151515815260200191505060405180910390a2505056fe5468657265206973206e6f207075626c696320696e666f726d6174696f6e20746f20766965775468657265206973206e6f207072697661746520696e666f726d6174696f6e20746f2076696577a165627a7a72305820098809fe0d10e993d2ff8a6d77ee83df4f8a62dda97d528735a3aa2940266c01002960806040526040518060400160405280600b81526020017f6465736372697074696f6e0000000000000000000000000000000000000000008152506004908051906020019061004f9291906100ae565b506040518060400160405280600c81526020017f6974656d73496e547261646500000000000000000000000000000000000000008152506005908051906020019061009b9291906100ae565b503480156100a857600080fd5b50610153565b828054600181600116156101000203166002900490600052602060002090601f016020900481019282601f106100ef57805160ff191683800117855561011d565b8280016001018555821561011d579182015b8281111561011c578251825591602001919060010190610101565b5b50905061012a919061012e565b5090565b61015091905b8082111561014c576000816000905550600101610134565b5090565b90565b61075a806101626000396000f3fe608060405234801561001057600080fd5b50600436106100885760003560e01c80638dcdaeed1161005b5780638dcdaeed146102ca578063aa8c217c1461034d578063ea8e36231461036b578063f7260d3e146103e357610088565b80630ab0df871461008d5780630d4246e6146100ab57806367e404ce146101fd5780637284e41614610247575b600080fd5b61009561042d565b6040518082815260200191505060405180910390f35b6101fb600480360360408110156100c157600080fd5b81019080803590602001906401000000008111156100de57600080fd5b8201836020820111156100f057600080fd5b8035906020019184600183028401116401000000008311171561011257600080fd5b91908080601f016020809104026020016040519081016040528093929190818152602001838380828437600081840152601f19601f8201169050808301925050505050505091929192908035906020019064010000000081111561017557600080fd5b82018360208201111561018757600080fd5b803590602001918460018302840111640100000000831117156101a957600080fd5b91908080601f016020809104026020016040519081016040528093929190818152602001838380828437600081840152601f19601f820116905080830192505050505050509192919290505050610433565b005b610205610465565b604051808273ffffffffffffffffffffffffffffffffffffffff1673ffffffffffffffffffffffffffffffffffffffff16815260200191505060405180910390f35b61024f61048b565b6040518080602001828103825283818151815260200191508051906020019080838360005b8381101561028f578082015181840152602081019050610274565b50505050905090810190601f1680156102bc5780820380516001836020036101000a031916815260200191505b509250505060405180910390f35b6102d2610529565b6040518080602001828103825283818151815260200191508051906020019080838360005b838110156103125780820151818401526020810190506102f7565b50505050905090810190601f16801561033f5780820380516001836020036101000a031916815260200191505b509250505060405180910390f35b6103556105c7565b6040518082815260200191505060405180910390f35b6103e16004803603608081101561038157600080fd5b81019080803573ffffffffffffffffffffffffffffffffffffffff1690602001909291908035906020019092919080359060200190929190803573ffffffffffffffffffffffffffffffffffffffff1690602001909291905050506105cd565b005b6103eb610663565b604051808273ffffffffffffffffffffffffffffffffffffffff1673ffffffffffffffffffffffffffffffffffffffff16815260200191505060405180910390f35b60005481565b8160049080519060200190610449929190610689565b508060059080519060200190610460929190610689565b505050565b600160009054906101000a900473ffffffffffffffffffffffffffffffffffffffff1681565b60048054600181600116156101000203166002900480601f0160208091040260200160405190810160405280929190818152602001828054600181600116156101000203166002900480156105215780601f106104f657610100808354040283529160200191610521565b820191906000526020600020905b81548152906001019060200180831161050457829003601f168201915b505050505081565b60058054600181600116156101000203166002900480601f0160208091040260200160405190810160405280929190818152602001828054600181600116156101000203166002900480156105bf5780601f10610594576101008083540402835291602001916105bf565b820191906000526020600020905b8154815290600101906020018083116105a257829003601f168201915b505050505081565b60035481565b826000819055508160038190555083600160006101000a81548173ffffffffffffffffffffffffffffffffffffffff021916908373ffffffffffffffffffffffffffffffffffffffff16021790555080600260006101000a81548173ffffffffffffffffffffffffffffffffffffffff021916908373ffffffffffffffffffffffffffffffffffffffff16021790555050505050565b600260009054906101000a900473ffffffffffffffffffffffffffffffffffffffff1681565b828054600181600116156101000203166002900490600052602060002090601f016020900481019282601f106106ca57805160ff19168380011785556106f8565b828001600101855582156106f8579182015b828111156106f75782518255916020019190600101906106dc565b5b5090506107059190610709565b5090565b61072b91905b8082111561072757600081600090555060010161070f565b5090565b9056fea165627a7a723058205e54680a30e9d11af76d16d9477944e1e1f1906eecd316b3690014be014b4ae20029",
  "source": "pragma solidity >=0.4.0 <0.7.0;\n\nimport \"../contracts/DataSet.sol\";\n\ncontract VotingToken {\n\n\tbool public exists;\n\n\taddress public voter;\n\tbool public vote;\n\tbool public voted;\n\n\tbool public publicInfo;\n\tbool public privateInfo;\n\n\tDataSet public dataSet;\n\n\tevent Vote(address indexed _voter, bool _choice);\n\n\tconstructor(address _voter) public {\n\t\trequire(_voter != 0x0000000000000000000000000000000000000000, \"There is no voter\");\n\n\t\tvoter = _voter;\n\n\t\tvote = false;\n\t\texists = true;\n\t\tvoted = false;\n\n\t\tpublicInfo = false;\n\t\tprivateInfo = true;\n\n\t\tdataSet = new DataSet();\n\n\t\t// require(_voter == 0x0000000000000000000000000000000000000000, \"11111\");\n\t}\n\n\tfunction CastVote(address from, bool choice) public {\n\t\trequire(exists == true, \"This voter does not exist\");\n\t\trequire(voter == from, \"Sent from the wrong voter\");\n\t\trequire(publicInfo == true && privateInfo == true, \"Not an eligible voter\");\n\t\trequire(voted == false, \"Already Voted\");\n\t\tvote = choice;\n\t\tvoted = true;\n\t\temit Vote(voter, choice);\n\t}\n\n\tfunction AddPublicInformation(address _oldAccount, uint _timeStamp, uint _amount, address _voter) public {\n\t\trequire(exists == true, \"This voter does not exist\");\n\t\trequire(voter == _voter, \"Not the correct voter\");\n\t\tdataSet.AddPublicInformation(_oldAccount, _timeStamp, _amount, _voter);\n\t\tpublicInfo = true;\n\t}\n\n\tfunction AddPrivateInformation(string memory description, string memory itemsInTrade) public {\n\t\trequire(exists == true, \"This voter does not exist\");\n\t\tdataSet.AddPrivateInformation( description, itemsInTrade );\n\t\tprivateInfo = true;\n\t}\n\t\n\tfunction ViewPublicInformation() public view returns (uint, uint, address, address) {\n\t\trequire(publicInfo == true, \"There is no public information to view\");\n\t\treturn (dataSet.timeStamp(), dataSet.amount(), dataSet.sender(), dataSet.receiver() );\n\t}\n\t\n\tfunction ViewPrivateInformation() public view returns (string memory, string memory) {\n\t\trequire(privateInfo == true, \"There is no private information to view\");\n\t\treturn (dataSet.description(), dataSet.itemsInTrade());\n\t}\n}\n",
  "sourcePath": "C:\\Users\\m5w5b\\Desktop\\GitHub\\game-dapp\\AccountRecovery\\contracts\\VotingToken.sol",
  "compiler": {
    "name": "solc",
    "version": "0.5.8+commit.23d335f2.Emscripten.clang"
  },
  "schemaVersion": "3.0.16",
  "updatedAt": "2019-10-12T20:09:27.601Z",
  "devdoc": {
    "methods": {}
  },
  "userdoc": {
    "methods": {}
  }
}