{
  "contractName": "VotingToken",
  "abi": [
    {
      "constant": true,
      "inputs": [],
      "name": "voted",
      "outputs": [
        {
          "name": "",
          "type": "bool"
        }
      ],
      "payable": false,
      "stateMutability": "view",
      "type": "function"
    },
    {
      "constant": true,
      "inputs": [],
      "name": "vote",
      "outputs": [
        {
          "name": "",
          "type": "bool"
        }
      ],
      "payable": false,
      "stateMutability": "view",
      "type": "function"
    },
    {
      "inputs": [
        {
          "name": "_oldAccount",
          "type": "address"
        },
        {
          "name": "_voter",
          "type": "address"
        },
        {
          "name": "_description",
          "type": "string"
        }
      ],
      "payable": false,
      "stateMutability": "nonpayable",
      "type": "constructor"
    },
    {
      "anonymous": false,
      "inputs": [
        {
          "indexed": true,
          "name": "_voter",
          "type": "address"
        },
        {
          "indexed": false,
          "name": "_choice",
          "type": "bool"
        }
      ],
      "name": "Vote",
      "type": "event"
    },
    {
      "constant": false,
      "inputs": [
        {
          "name": "choice",
          "type": "bool"
        }
      ],
      "name": "CastVote",
      "outputs": [],
      "payable": false,
      "stateMutability": "nonpayable",
      "type": "function"
    },
    {
      "constant": false,
      "inputs": [
        {
          "name": "_timeStamp",
          "type": "uint256"
        },
        {
          "name": "_voter",
          "type": "address"
        },
        {
          "name": "_amount",
          "type": "uint256"
        },
        {
          "name": "_description",
          "type": "string"
        },
        {
          "name": "_itemsInTrade",
          "type": "string"
        }
      ],
      "name": "AddTransactionDataSet",
      "outputs": [],
      "payable": false,
      "stateMutability": "nonpayable",
      "type": "function"
    },
    {
      "constant": true,
      "inputs": [
        {
          "name": "i",
          "type": "uint256"
        }
      ],
      "name": "ViewPublicInformation",
      "outputs": [
        {
          "name": "",
          "type": "uint256"
        },
        {
          "name": "",
          "type": "uint256"
        },
        {
          "name": "",
          "type": "address"
        },
        {
          "name": "",
          "type": "address"
        }
      ],
      "payable": false,
      "stateMutability": "view",
      "type": "function"
    },
    {
      "constant": true,
      "inputs": [
        {
          "name": "i",
          "type": "uint256"
        }
      ],
      "name": "ViewPrivateInformation",
      "outputs": [
        {
          "name": "",
          "type": "string"
        },
        {
          "name": "",
          "type": "string"
        }
      ],
      "payable": false,
      "stateMutability": "view",
      "type": "function"
    }
  ],
  "bytecode": "0x60806040526000600360146101000a81548160ff0219169083151502179055506000600360156101000a81548160ff02191690831515021790555034801561004657600080fd5b50604051610d94380380610d948339810180604052606081101561006957600080fd5b810190808051906020019092919080519060200190929190805164010000000081111561009557600080fd5b828101905060208101848111156100ab57600080fd5b81518560018202830111640100000000821117156100c857600080fd5b505092919050505081600360006101000a81548173ffffffffffffffffffffffffffffffffffffffff021916908373ffffffffffffffffffffffffffffffffffffffff16021790555082600260006101000a81548173ffffffffffffffffffffffffffffffffffffffff021916908373ffffffffffffffffffffffffffffffffffffffff1602179055508060019080519060200190610168929190610171565b50505050610216565b828054600181600116156101000203166002900490600052602060002090601f016020900481019282601f106101b257805160ff19168380011785556101e0565b828001600101855582156101e0579182015b828111156101df5782518255916020019190600101906101c4565b5b5090506101ed91906101f1565b5090565b61021391905b8082111561020f5760008160009055506001016101f7565b5090565b90565b610b6f806102256000396000f3fe608060405234801561001057600080fd5b50600436106100625760003560e01c806319e5fba0146100675780633500f91e146101695780634ba569a41461018b578063632a9a521461023a5780637bd1eb3c1461025c578063bfcdca481461036f575b600080fd5b610167600480360360a081101561007d57600080fd5b8101908080359060200190929190803573ffffffffffffffffffffffffffffffffffffffff16906020019092919080359060200190929190803590602001906401000000008111156100ce57600080fd5b8201836020820111156100e057600080fd5b8035906020019184600183028401116401000000008311171561010257600080fd5b90919293919293908035906020019064010000000081111561012357600080fd5b82018360208201111561013557600080fd5b8035906020019184600183028401116401000000008311171561015757600080fd5b909192939192939050505061039f565b005b6101716105b7565b604051808215151515815260200191505060405180910390f35b6101b7600480360360208110156101a157600080fd5b81019080803590602001909291905050506105ca565b604051808581526020018481526020018373ffffffffffffffffffffffffffffffffffffffff1673ffffffffffffffffffffffffffffffffffffffff1681526020018273ffffffffffffffffffffffffffffffffffffffff1673ffffffffffffffffffffffffffffffffffffffff16815260200194505050505060405180910390f35b6102426106f8565b604051808215151515815260200191505060405180910390f35b6102886004803603602081101561027257600080fd5b810190808035906020019092919050505061070b565b604051808060200180602001838103835285818151815260200191508051906020019080838360005b838110156102cc5780820151818401526020810190506102b1565b50505050905090810190601f1680156102f95780820380516001836020036101000a031916815260200191505b50838103825284818151815260200191508051906020019080838360005b83811015610332578082015181840152602081019050610317565b50505050905090810190601f16801561035f5780820380516001836020036101000a031916815260200191505b5094505050505060405180910390f35b61039d6004803603602081101561038557600080fd5b810190808035151590602001909291905050506108e8565b005b60006040518060c0016040528086868080601f016020809104026020016040519081016040528093929190818152602001838380828437600081840152601f19601f82011690508083019250505050505050815260200184848080601f016020809104026020016040519081016040528093929190818152602001838380828437600081840152601f19601f820116905080830192505050505050508152602001600260009054906101000a900473ffffffffffffffffffffffffffffffffffffffff1673ffffffffffffffffffffffffffffffffffffffff1681526020018873ffffffffffffffffffffffffffffffffffffffff168152602001898152602001878152509080600181540180825580915050906001820390600052602060002090600602016000909192909190915060008201518160000190805190602001906104eb929190610a7a565b506020820151816001019080519060200190610508929190610a7a565b5060408201518160020160006101000a81548173ffffffffffffffffffffffffffffffffffffffff021916908373ffffffffffffffffffffffffffffffffffffffff16021790555060608201518160030160006101000a81548173ffffffffffffffffffffffffffffffffffffffff021916908373ffffffffffffffffffffffffffffffffffffffff1602179055506080820151816004015560a0820151816005015550505050505050505050565b600360159054906101000a900460ff1681565b600080600080600080805490501161062d576040517f08c379a0000000000000000000000000000000000000000000000000000000008152600401808060200182810382526024815260200180610b206024913960400191505060405180910390fd5b6000858154811061063a57fe5b9060005260206000209060060201600401546000868154811061065957fe5b9060005260206000209060060201600501546000878154811061067857fe5b906000526020600020906006020160020160009054906101000a900473ffffffffffffffffffffffffffffffffffffffff16600088815481106106b757fe5b906000526020600020906006020160030160009054906101000a900473ffffffffffffffffffffffffffffffffffffffff1693509350935093509193509193565b600360149054906101000a900460ff1681565b606080600080805490501161076b576040517f08c379a0000000000000000000000000000000000000000000000000000000008152600401808060200182810382526024815260200180610b206024913960400191505060405180910390fd5b6000838154811061077857fe5b90600052602060002090600602016000016000848154811061079657fe5b9060005260206000209060060201600101818054600181600116156101000203166002900480601f01602080910402602001604051908101604052809291908181526020018280546001816001161561010002031660029004801561083c5780601f106108115761010080835404028352916020019161083c565b820191906000526020600020905b81548152906001019060200180831161081f57829003601f168201915b50505050509150808054600181600116156101000203166002900480601f0160208091040260200160405190810160405280929190818152602001828054600181600116156101000203166002900480156108d85780601f106108ad576101008083540402835291602001916108d8565b820191906000526020600020905b8154815290600101906020018083116108bb57829003601f168201915b5050505050905091509150915091565b6000808054905011610945576040517f08c379a0000000000000000000000000000000000000000000000000000000008152600401808060200182810382526024815260200180610b206024913960400191505060405180910390fd5b60001515600360159054906101000a900460ff161515146109ce576040517f08c379a000000000000000000000000000000000000000000000000000000000815260040180806020018281038252600d8152602001807f416c726561647920566f7465640000000000000000000000000000000000000081525060200191505060405180910390fd5b80600360146101000a81548160ff0219169083151502179055506001600360156101000a81548160ff021916908315150217905550600360009054906101000a900473ffffffffffffffffffffffffffffffffffffffff1673ffffffffffffffffffffffffffffffffffffffff167fa635d31e67484fd1d93ba01ab0ef882e4440a78aa40d0e2771e8a2aace45986982604051808215151515815260200191505060405180910390a250565b828054600181600116156101000203166002900490600052602060002090601f016020900481019282601f10610abb57805160ff1916838001178555610ae9565b82800160010185558215610ae9579182015b82811115610ae8578251825591602001919060010190610acd565b5b509050610af69190610afa565b5090565b610b1c91905b80821115610b18576000816000905550600101610b00565b5090565b9056fe5468657265206973206e6f207472616e73616374696f6e206461746120746f2076696577a165627a7a723058207114b14db366228a4d1ebcdf042786826151493721edfb2c2b63445b9049fb4e0029",
  "source": "/* VotingToken.sol */\n\npragma solidity >=0.4.0 <0.7.0;\n\n/* <Summary> \n\tThis contract repersents a voting token. This is used to cast votes and view transaction data.\n*/\n\ncontract VotingToken {\n\n\tstruct DataSetInfo {\n\t\t// Private Information\n\t\tstring description;\t\t\t\t\t// Description of transaction\n\t\tstring itemsInTrade;\t\t\t\t// Items in transaction\n\n\t\t// Public Information\n\t\taddress sender;\t\t\t\t\t\t// Sender of transaction\n\t\taddress receiver;\t\t\t\t\t// Reciever of transaction\n\n\t\tuint timeStamp;\t\t\t\t\t\t// Time stamp of transaction\n\t\tuint amount;\t\t\t\t\t\t// Amount of transaction\n\t}\n\n\tDataSetInfo[] transactionDataSets;\t\t// Sets of data for transactions\n\n\tstring description;\t\t\t\t\t\t// Description of the transaction between these addresses\n\taddress oldAccount;\t\t\t\t\t\t// Address of the old account\n\taddress voter;\t\t\t\t\t\t\t// Address of the voter\n\n\tbool public vote = false;\t\t\t\t\t\t\t\t// The decision of the voter\n\tbool public voted = false;\t\t\t\t\t\t\t\t// If the voter has voted\n\n\tevent Vote(address indexed _voter, bool _choice); // Voting Event\n\n\tconstructor(address _oldAccount, address _voter, string memory _description) public {\n\t\tvoter = _voter;\n\t\toldAccount = _oldAccount;\n\t\tdescription = _description;\n\t}\n\n\t// Casting a vote\n\tfunction CastVote(bool choice) external {\n\t\t// Checks if the voter is allowed to vote\n\t\t// require(voter == from, \"Sent from the wrong voter\");\n\t\trequire(transactionDataSets.length > 0, \"There is no transaction data to view\");\n\t\trequire(voted == false, \"Already Voted\");\n\t\tvote = choice;\n\t\tvoted = true;\n\t\temit Vote(voter, choice);\n\t}\n\n\t// Add a data set for a transaction with this voter\n\tfunction AddTransactionDataSet(uint _timeStamp, address _voter, uint _amount, \n\t\tstring calldata _description, string calldata _itemsInTrade) external {\n\n\t\ttransactionDataSets.push(DataSetInfo(_description, _itemsInTrade, oldAccount, _voter, _timeStamp, _amount));\n\t}\n\n\t// View public information on a set of data for a transaction\n\tfunction ViewPublicInformation(uint i) external view returns (uint, uint, address, address) {\n\t\trequire(transactionDataSets.length > 0, \"There is no transaction data to view\");\n\t\treturn (transactionDataSets[i].timeStamp, transactionDataSets[i].amount, transactionDataSets[i].sender, transactionDataSets[i].receiver );\n\t}\n\t\n\t// View private information on a set of data for a transaction\n\tfunction ViewPrivateInformation(uint i) external view returns (string memory, string memory) {\n\t\trequire(transactionDataSets.length > 0, \"There is no transaction data to view\");\n\t\treturn (transactionDataSets[i].description, transactionDataSets[i].itemsInTrade);\n\t}\n}\n",
  "sourcePath": "C:\\Users\\m5w5b\\Desktop\\GitHub\\game-dapp\\AccountRecovery\\contracts\\VotingToken.sol",
  "compiler": {
    "name": "solc",
    "version": "0.5.8+commit.23d335f2.Emscripten.clang"
  },
  "schemaVersion": "3.0.16",
  "updatedAt": "2019-10-29T18:01:54.964Z",
  "devdoc": {
    "methods": {}
  },
  "userdoc": {
    "methods": {}
  }
}