{
  "contractName": "VotingToken",
  "abi": [
    {
      "constant": true,
      "inputs": [],
      "name": "result",
      "outputs": [
        {
          "name": "",
          "type": "uint256"
        }
      ],
      "payable": false,
      "stateMutability": "view",
      "type": "function"
    },
    {
      "constant": true,
      "inputs": [],
      "name": "margin",
      "outputs": [
        {
          "name": "",
          "type": "uint256"
        }
      ],
      "payable": false,
      "stateMutability": "view",
      "type": "function"
    },
    {
      "constant": true,
      "inputs": [],
      "name": "newAccount",
      "outputs": [
        {
          "name": "",
          "type": "address"
        }
      ],
      "payable": false,
      "stateMutability": "view",
      "type": "function"
    },
    {
      "constant": true,
      "inputs": [
        {
          "name": "",
          "type": "uint256"
        }
      ],
      "name": "voters",
      "outputs": [
        {
          "name": "",
          "type": "address"
        }
      ],
      "payable": false,
      "stateMutability": "view",
      "type": "function"
    },
    {
      "constant": true,
      "inputs": [],
      "name": "oldAccount",
      "outputs": [
        {
          "name": "",
          "type": "address"
        }
      ],
      "payable": false,
      "stateMutability": "view",
      "type": "function"
    },
    {
      "inputs": [
        {
          "name": "_voters",
          "type": "address[]"
        },
        {
          "name": "_oldAccount",
          "type": "address"
        },
        {
          "name": "_newAccount",
          "type": "address"
        }
      ],
      "payable": false,
      "stateMutability": "nonpayable",
      "type": "constructor"
    },
    {
      "anonymous": false,
      "inputs": [
        {
          "indexed": true,
          "name": "_from",
          "type": "address"
        },
        {
          "indexed": false,
          "name": "_choice",
          "type": "bool"
        }
      ],
      "name": "Vote",
      "type": "event"
    },
    {
      "constant": true,
      "inputs": [
        {
          "name": "size",
          "type": "uint8"
        }
      ],
      "name": "random",
      "outputs": [
        {
          "name": "",
          "type": "uint8"
        }
      ],
      "payable": false,
      "stateMutability": "view",
      "type": "function"
    },
    {
      "constant": false,
      "inputs": [
        {
          "name": "from",
          "type": "address"
        },
        {
          "name": "choice",
          "type": "bool"
        }
      ],
      "name": "CastVote",
      "outputs": [],
      "payable": false,
      "stateMutability": "nonpayable",
      "type": "function"
    },
    {
      "constant": true,
      "inputs": [],
      "name": "getVotes",
      "outputs": [
        {
          "name": "",
          "type": "uint256"
        }
      ],
      "payable": false,
      "stateMutability": "view",
      "type": "function"
    },
    {
      "constant": true,
      "inputs": [],
      "name": "getOutcome",
      "outputs": [
        {
          "name": "",
          "type": "bool"
        }
      ],
      "payable": false,
      "stateMutability": "view",
      "type": "function"
    },
    {
      "constant": true,
      "inputs": [],
      "name": "getResult",
      "outputs": [
        {
          "name": "",
          "type": "uint256"
        }
      ],
      "payable": false,
      "stateMutability": "view",
      "type": "function"
    },
    {
      "constant": false,
      "inputs": [
        {
          "name": "from",
          "type": "address"
        }
      ],
      "name": "CountVotes",
      "outputs": [],
      "payable": false,
      "stateMutability": "nonpayable",
      "type": "function"
    }
  ],
  "bytecode": "0x608060405234801561001057600080fd5b50604051610cc0380380610cc08339810180604052606081101561003357600080fd5b81019080805164010000000081111561004b57600080fd5b8281019050602081018481111561006157600080fd5b815185602082028301116401000000008211171561007e57600080fd5b5050929190602001805190602001909291908051906020019092919050505081600260006101000a81548173ffffffffffffffffffffffffffffffffffffffff021916908373ffffffffffffffffffffffffffffffffffffffff16021790555080600360006101000a81548173ffffffffffffffffffffffffffffffffffffffff021916908373ffffffffffffffffffffffffffffffffffffffff160217905550826001908051906020019061013592919061026b565b5060008090505b600180549050811015610252576040518060600160405280600015158152602001600115158152602001600015158152506000806001848154811061017d57fe5b9060005260206000200160009054906101000a900473ffffffffffffffffffffffffffffffffffffffff1673ffffffffffffffffffffffffffffffffffffffff1673ffffffffffffffffffffffffffffffffffffffff16815260200190815260200160002060008201518160000160006101000a81548160ff02191690831515021790555060208201518160000160016101000a81548160ff02191690831515021790555060408201518160000160026101000a81548160ff021916908315150217905550905050808060010191505061013c565b5060006004819055506006600581905550505050610338565b8280548282559060005260206000209081019282156102e4579160200282015b828111156102e35782518260006101000a81548173ffffffffffffffffffffffffffffffffffffffff021916908373ffffffffffffffffffffffffffffffffffffffff1602179055509160200191906001019061028b565b5b5090506102f191906102f5565b5090565b61033591905b8082111561033157600081816101000a81549073ffffffffffffffffffffffffffffffffffffffff0219169055506001016102fb565b5090565b90565b610979806103476000396000f3fe608060405234801561001057600080fd5b50600436106100a95760003560e01c8063d2e7b8be11610071578063d2e7b8be14610174578063da58c7d9146101b8578063de29278914610226578063e0e0e2d314610244578063f94825bf1461028f578063fa041dd7146102d9576100a9565b80630dc96015146100ae57806365372147146100cc5780637e7e4b47146100ea5780638f76691a1461010c578063bf335e621461012a575b600080fd5b6100b6610329565b6040518082815260200191505060405180910390f35b6100d4610460565b6040518082815260200191505060405180910390f35b6100f2610466565b604051808215151515815260200191505060405180910390f35b610114610475565b6040518082815260200191505060405180910390f35b61013261047b565b604051808273ffffffffffffffffffffffffffffffffffffffff1673ffffffffffffffffffffffffffffffffffffffff16815260200191505060405180910390f35b6101b66004803603602081101561018a57600080fd5b81019080803573ffffffffffffffffffffffffffffffffffffffff1690602001909291905050506104a1565b005b6101e4600480360360208110156101ce57600080fd5b810190808035906020019092919050505061064f565b604051808273ffffffffffffffffffffffffffffffffffffffff1673ffffffffffffffffffffffffffffffffffffffff16815260200191505060405180910390f35b61022e61068b565b6040518082815260200191505060405180910390f35b6102736004803603602081101561025a57600080fd5b81019080803560ff169060200190929190505050610695565b604051808260ff1660ff16815260200191505060405180910390f35b6102976106dc565b604051808273ffffffffffffffffffffffffffffffffffffffff1673ffffffffffffffffffffffffffffffffffffffff16815260200191505060405180910390f35b610327600480360360408110156102ef57600080fd5b81019080803573ffffffffffffffffffffffffffffffffffffffff169060200190929190803515159060200190929190505050610702565b005b6000806000905060008090505b6001805490508110156104585761034b610926565b6000806001848154811061035b57fe5b9060005260206000200160009054906101000a900473ffffffffffffffffffffffffffffffffffffffff1673ffffffffffffffffffffffffffffffffffffffff1673ffffffffffffffffffffffffffffffffffffffff1681526020019081526020016000206040518060600160405290816000820160009054906101000a900460ff161515151581526020016000820160019054906101000a900460ff161515151581526020016000820160029054906101000a900460ff16151515158152505090506001151581604001511515141561044a57600115158160000151151514156104495782806001019350505b5b508080600101915050610336565b508091505090565b60045481565b60006005546004541015905090565b60055481565b600360009054906101000a900473ffffffffffffffffffffffffffffffffffffffff1681565b600360009054906101000a900473ffffffffffffffffffffffffffffffffffffffff1673ffffffffffffffffffffffffffffffffffffffff168173ffffffffffffffffffffffffffffffffffffffff16146104fb5761064c565b6000809050600080905060008090505b60018054905081101561063557610520610926565b6000806001848154811061053057fe5b9060005260206000200160009054906101000a900473ffffffffffffffffffffffffffffffffffffffff1673ffffffffffffffffffffffffffffffffffffffff1673ffffffffffffffffffffffffffffffffffffffff1681526020019081526020016000206040518060600160405290816000820160009054906101000a900460ff161515151581526020016000820160019054906101000a900460ff161515151581526020016000820160029054906101000a900460ff161515151581525050905060011515816040015115151415610627576001151581600001511515141561061e5783806001019450505b82806001019350505b50808060010191505061050b565b5080600a83028161064257fe5b0460048190555050505b50565b6001818154811061065c57fe5b906000526020600020016000915054906101000a900473ffffffffffffffffffffffffffffffffffffffff1681565b6000600454905090565b60008160ff16424460405160200180838152602001828152602001925050506040516020818303038152906040528051906020012060001c816106d457fe5b069050919050565b600260009054906101000a900473ffffffffffffffffffffffffffffffffffffffff1681565b600015156000808473ffffffffffffffffffffffffffffffffffffffff1673ffffffffffffffffffffffffffffffffffffffff16815260200190815260200160002060000160019054906101000a900460ff161515141561076257610922565b600115156000808473ffffffffffffffffffffffffffffffffffffffff1673ffffffffffffffffffffffffffffffffffffffff16815260200190815260200160002060000160029054906101000a900460ff16151514156107c257610922565b806000808473ffffffffffffffffffffffffffffffffffffffff1673ffffffffffffffffffffffffffffffffffffffff16815260200190815260200160002060000160006101000a81548160ff02191690831515021790555060008060008473ffffffffffffffffffffffffffffffffffffffff1673ffffffffffffffffffffffffffffffffffffffff16815260200190815260200160002060000160016101000a81548160ff02191690831515021790555060016000808473ffffffffffffffffffffffffffffffffffffffff1673ffffffffffffffffffffffffffffffffffffffff16815260200190815260200160002060000160026101000a81548160ff0219169083151502179055508173ffffffffffffffffffffffffffffffffffffffff167fa635d31e67484fd1d93ba01ab0ef882e4440a78aa40d0e2771e8a2aace45986982604051808215151515815260200191505060405180910390a25b5050565b6040518060600160405280600015158152602001600015158152602001600015158152509056fea165627a7a72305820f7062f9549a9747e861ba3d4dcb66a88b61a4202ec9d21acce634119db2c6ca10029",
  "source": "pragma solidity >=0.4.0 <0.7.0;\n\ncontract VotingToken {\n\n\tstruct token {\n\t\tbool vote;\n\t\tbool eligible;\n\t\tbool voted;\n\t}\n\n\tmapping (address => token) votes;\n\taddress[] public voters;\n\taddress public oldAccount;\n\taddress public newAccount;\n\tuint256 public result;\n\tuint256 public margin;\n\n\tevent Vote(address indexed _from, bool _choice);\n\n\tconstructor(address[] memory _voters, address _oldAccount, address _newAccount) public {\n\n\t\toldAccount = _oldAccount;\n\t\tnewAccount = _newAccount;\n\t\tvoters = _voters;\n\n\t\tfor (uint i = 0; i < voters.length; i++) {\n\t\t\tvotes[voters[i]] = token(false, true, false);\n\t\t}\n\n\t\tresult = 0;\t\n\t\tmargin = 6;\n\t}\n\n\tfunction random(uint8 size) public view returns (uint8) {\n        return uint8(uint256(keccak256(abi.encodePacked(block.timestamp, block.difficulty)))%size);\n    }\n\n\tfunction CastVote(address from, bool choice) public {\n\t\tif (votes[from].eligible == false) return;\n\t\tif (votes[from].voted == true) return;\n\t\tvotes[from].vote = choice;\n\t\tvotes[from].eligible = false;\n\t\tvotes[from].voted = true;\n\t\temit Vote(from, choice);\n\t}\n\n\tfunction getVotes() public view returns(uint) {\n\t\tuint yeses = 0;\n\n\t\tfor (uint i = 0; i < voters.length; i++) {\n\t\t\ttoken memory temp = votes[voters[i]];\n\t\t\tif (temp.voted == true){\n\t\t\t\tif (temp.vote == true){\n\t\t\t\t\tyeses++;\n\t\t\t\t}\n\t\t\t}\t\t\t\n\t\t}\n\t\treturn yeses;\n\t}\n\n\tfunction getOutcome() public view returns(bool) {\n\t\treturn result >= margin;\n\t}\n\n\tfunction getResult() public view returns(uint256) {\n\t\treturn result;\n\t}\n\n\tfunction CountVotes(address from) public {\n\t\tif (from != newAccount) return;\n\n\t\tuint yeses = 0;\n\t\tuint total = 0;\n\n\t\tfor (uint i = 0; i < voters.length; i++) {\n\t\t\ttoken memory temp = votes[voters[i]];\n\t\t\tif (temp.voted == true){\n\t\t\t\tif (temp.vote == true){\n\t\t\t\t\tyeses++;\n\t\t\t\t}\n\t\t\t\ttotal++;\n\t\t\t}\t\t\t\n\t\t}\n\n\t\tresult = (yeses*10) / total;\n\t}\n}\n",
  "sourcePath": "C:/Users/m5w5b/Desktop/GitHub/game-dapp/AccountRecovery/contracts/VotingToken.sol",
  "compiler": {
    "name": "solc",
    "version": "0.5.8+commit.23d335f2.Emscripten.clang"
  },
  "schemaVersion": "3.0.16",
  "updatedAt": "2019-10-07T23:58:21.033Z",
  "devdoc": {
    "methods": {}
  },
  "userdoc": {
    "methods": {}
  }
}