{
  "contractName": "VotingToken",
  "abi": [
    {
      "constant": true,
      "inputs": [],
      "name": "exists",
      "outputs": [
        {
          "name": "",
          "type": "bool"
        }
      ],
      "payable": false,
      "stateMutability": "view",
      "type": "function"
    },
    {
      "inputs": [
        {
          "name": "_oldAccount",
          "type": "address"
        },
        {
          "name": "_voter",
          "type": "address"
        },
        {
          "name": "_description",
          "type": "string"
        }
      ],
      "payable": false,
      "stateMutability": "nonpayable",
      "type": "constructor"
    },
    {
      "anonymous": false,
      "inputs": [
        {
          "indexed": true,
          "name": "_voter",
          "type": "address"
        },
        {
          "indexed": false,
          "name": "_choice",
          "type": "bool"
        }
      ],
      "name": "Vote",
      "type": "event"
    },
    {
      "constant": false,
      "inputs": [
        {
          "name": "from",
          "type": "address"
        },
        {
          "name": "choice",
          "type": "bool"
        }
      ],
      "name": "CastVote",
      "outputs": [],
      "payable": false,
      "stateMutability": "nonpayable",
      "type": "function"
    },
    {
      "constant": false,
      "inputs": [
        {
          "name": "_timeStamp",
          "type": "uint256"
        },
        {
          "name": "_voter",
          "type": "address"
        },
        {
          "name": "_amount",
          "type": "uint256"
        },
        {
          "name": "_description",
          "type": "string"
        },
        {
          "name": "itemsInTrade",
          "type": "string"
        }
      ],
      "name": "AddTransactionDataSet",
      "outputs": [],
      "payable": false,
      "stateMutability": "nonpayable",
      "type": "function"
    },
    {
      "constant": true,
      "inputs": [
        {
          "name": "i",
          "type": "uint256"
        }
      ],
      "name": "ViewPublicInformation",
      "outputs": [
        {
          "name": "",
          "type": "uint256"
        },
        {
          "name": "",
          "type": "uint256"
        },
        {
          "name": "",
          "type": "address"
        },
        {
          "name": "",
          "type": "address"
        }
      ],
      "payable": false,
      "stateMutability": "view",
      "type": "function"
    },
    {
      "constant": true,
      "inputs": [
        {
          "name": "i",
          "type": "uint256"
        }
      ],
      "name": "ViewPrivateInformation",
      "outputs": [
        {
          "name": "",
          "type": "string"
        },
        {
          "name": "",
          "type": "string"
        }
      ],
      "payable": false,
      "stateMutability": "view",
      "type": "function"
    },
    {
      "constant": true,
      "inputs": [],
      "name": "ExistsAndVoted",
      "outputs": [
        {
          "name": "",
          "type": "bool"
        }
      ],
      "payable": false,
      "stateMutability": "view",
      "type": "function"
    },
    {
      "constant": true,
      "inputs": [],
      "name": "VotedYes",
      "outputs": [
        {
          "name": "",
          "type": "bool"
        }
      ],
      "payable": false,
      "stateMutability": "view",
      "type": "function"
    }
  ],
  "bytecode": "0x60806040523480156200001157600080fd5b506040516200105738038062001057833981018060405260608110156200003757600080fd5b81019080805190602001909291908051906020019092919080516401000000008111156200006457600080fd5b828101905060208101848111156200007b57600080fd5b81518560018202830111640100000000821117156200009957600080fd5b505092919050505081600360006101000a81548173ffffffffffffffffffffffffffffffffffffffff021916908373ffffffffffffffffffffffffffffffffffffffff16021790555082600260006101000a81548173ffffffffffffffffffffffffffffffffffffffff021916908373ffffffffffffffffffffffffffffffffffffffff1602179055506000600360146101000a81548160ff02191690831515021790555060016000806101000a81548160ff0219169083151502179055506000600360156101000a81548160ff02191690831515021790555080600190805190602001906200018b92919062000195565b5050505062000244565b828054600181600116156101000203166002900490600052602060002090601f016020900481019282601f10620001d857805160ff191683800117855562000209565b8280016001018555821562000209579182015b8281111562000208578251825591602001919060010190620001eb565b5b5090506200021891906200021c565b5090565b6200024191905b808211156200023d57600081600090555060010162000223565b5090565b90565b610e0380620002546000396000f3fe608060405234801561001057600080fd5b506004361061007d5760003560e01c80632f2a18ff1161005b5780632f2a18ff146101c85780634ba569a4146101ea5780637bd1eb3c14610299578063fa041dd7146103ac5761007d565b806319900a801461008257806319e5fba0146100a4578063267c4ae4146101a6575b600080fd5b61008a6103fc565b604051808215151515815260200191505060405180910390f35b6101a4600480360360a08110156100ba57600080fd5b8101908080359060200190929190803573ffffffffffffffffffffffffffffffffffffffff169060200190929190803590602001909291908035906020019064010000000081111561010b57600080fd5b82018360208201111561011d57600080fd5b8035906020019184600183028401116401000000008311171561013f57600080fd5b90919293919293908035906020019064010000000081111561016057600080fd5b82018360208201111561017257600080fd5b8035906020019184600183028401116401000000008311171561019457600080fd5b9091929391929390505050610442565b005b6101ae6106e2565b604051808215151515815260200191505060405180910390f35b6101d06106f4565b604051808215151515815260200191505060405180910390f35b6102166004803603602081101561020057600080fd5b8101908080359060200190929190505050610722565b604051808581526020018481526020018373ffffffffffffffffffffffffffffffffffffffff1673ffffffffffffffffffffffffffffffffffffffff1681526020018273ffffffffffffffffffffffffffffffffffffffff1673ffffffffffffffffffffffffffffffffffffffff16815260200194505050505060405180910390f35b6102c5600480360360208110156102af57600080fd5b8101908080359060200190929190505050610851565b604051808060200180602001838103835285818151815260200191508051906020019080838360005b838110156103095780820151818401526020810190506102ee565b50505050905090810190601f1680156103365780820380516001836020036101000a031916815260200191505b50838103825284818151815260200191508051906020019080838360005b8381101561036f578082015181840152602081019050610354565b50505050905090810190601f16801561039c5780820380516001836020036101000a031916815260200191505b5094505050505060405180910390f35b6103fa600480360360408110156103c257600080fd5b81019080803573ffffffffffffffffffffffffffffffffffffffff169060200190929190803515159060200190929190505050610a2f565b005b60008060009054906101000a900460ff1680156104255750600360159054906101000a900460ff165b801561043d5750600360149054906101000a900460ff165b905090565b600115156000809054906101000a900460ff161515146104ca576040517f08c379a00000000000000000000000000000000000000000000000000000000081526004018080602001828103825260198152602001807f5468697320766f74657220646f6573206e6f742065786973740000000000000081525060200191505060405180910390fd5b60046040518060c00160405280898152602001600260009054906101000a900473ffffffffffffffffffffffffffffffffffffffff1673ffffffffffffffffffffffffffffffffffffffff1681526020018873ffffffffffffffffffffffffffffffffffffffff16815260200187815260200186868080601f016020809104026020016040519081016040528093929190818152602001838380828437600081840152601f19601f82011690508083019250505050505050815260200184848080601f016020809104026020016040519081016040528093929190818152602001838380828437600081840152601f19601f82011690508083019250505050505050815250908060018154018082558091505090600182039060005260206000209060060201600090919290919091506000820151816000015560208201518160010160006101000a81548173ffffffffffffffffffffffffffffffffffffffff021916908373ffffffffffffffffffffffffffffffffffffffff16021790555060408201518160020160006101000a81548173ffffffffffffffffffffffffffffffffffffffff021916908373ffffffffffffffffffffffffffffffffffffffff1602179055506060820151816003015560808201518160040190805190602001906106b8929190610d0e565b5060a08201518160050190805190602001906106d5929190610d0e565b5050505050505050505050565b6000809054906101000a900460ff1681565b60008060009054906101000a900460ff16801561071d5750600360159054906101000a900460ff165b905090565b600080600080600060048054905011610786576040517f08c379a0000000000000000000000000000000000000000000000000000000008152600401808060200182810382526024815260200180610db46024913960400191505060405180910390fd5b6004858154811061079357fe5b906000526020600020906006020160000154600486815481106107b257fe5b906000526020600020906006020160030154600487815481106107d157fe5b906000526020600020906006020160010160009054906101000a900473ffffffffffffffffffffffffffffffffffffffff166004888154811061081057fe5b906000526020600020906006020160020160009054906101000a900473ffffffffffffffffffffffffffffffffffffffff1693509350935093509193509193565b6060806000600480549050116108b2576040517f08c379a0000000000000000000000000000000000000000000000000000000008152600401808060200182810382526024815260200180610db46024913960400191505060405180910390fd5b600483815481106108bf57fe5b9060005260206000209060060201600401600484815481106108dd57fe5b9060005260206000209060060201600501818054600181600116156101000203166002900480601f0160208091040260200160405190810160405280929190818152602001828054600181600116156101000203166002900480156109835780601f1061095857610100808354040283529160200191610983565b820191906000526020600020905b81548152906001019060200180831161096657829003601f168201915b50505050509150808054600181600116156101000203166002900480601f016020809104026020016040519081016040528092919081815260200182805460018160011615610100020316600290048015610a1f5780601f106109f457610100808354040283529160200191610a1f565b820191906000526020600020905b815481529060010190602001808311610a0257829003601f168201915b5050505050905091509150915091565b600115156000809054906101000a900460ff16151514610ab7576040517f08c379a00000000000000000000000000000000000000000000000000000000081526004018080602001828103825260198152602001807f5468697320766f74657220646f6573206e6f742065786973740000000000000081525060200191505060405180910390fd5b8173ffffffffffffffffffffffffffffffffffffffff16600360009054906101000a900473ffffffffffffffffffffffffffffffffffffffff1673ffffffffffffffffffffffffffffffffffffffff1614610b7a576040517f08c379a00000000000000000000000000000000000000000000000000000000081526004018080602001828103825260198152602001807f53656e742066726f6d207468652077726f6e6720766f7465720000000000000081525060200191505060405180910390fd5b600060048054905011610bd8576040517f08c379a0000000000000000000000000000000000000000000000000000000008152600401808060200182810382526024815260200180610db46024913960400191505060405180910390fd5b60001515600360159054906101000a900460ff16151514610c61576040517f08c379a000000000000000000000000000000000000000000000000000000000815260040180806020018281038252600d8152602001807f416c726561647920566f7465640000000000000000000000000000000000000081525060200191505060405180910390fd5b80600360146101000a81548160ff0219169083151502179055506001600360156101000a81548160ff021916908315150217905550600360009054906101000a900473ffffffffffffffffffffffffffffffffffffffff1673ffffffffffffffffffffffffffffffffffffffff167fa635d31e67484fd1d93ba01ab0ef882e4440a78aa40d0e2771e8a2aace45986982604051808215151515815260200191505060405180910390a25050565b828054600181600116156101000203166002900490600052602060002090601f016020900481019282601f10610d4f57805160ff1916838001178555610d7d565b82800160010185558215610d7d579182015b82811115610d7c578251825591602001919060010190610d61565b5b509050610d8a9190610d8e565b5090565b610db091905b80821115610dac576000816000905550600101610d94565b5090565b9056fe5468657265206973206e6f207472616e73616374696f6e206461746120746f2076696577a165627a7a7230582004ac15597e270cd62b97c4e08fc19f72ba4287c1bca593a8fafe109e4525e0330029",
  "source": "/* VotingToken.sol */\n\npragma solidity >=0.4.0 <0.7.0;\n\n/* <Summary> \n\tThis contract repersents a voting token. This is used to cast votes and view transaction data.\n*/\n\ncontract VotingToken {\n\n\tstruct DataSetInfo {\n\t\t// Public Information\n\t\tuint timeStamp;\t\t\t\t\t\t// Time stamp of transaction\n\t\taddress sender;\t\t\t\t\t\t// Sender of transaction\n\t\taddress receiver;\t\t\t\t\t// Reciever of transaction\n\t\tuint amount;\t\t\t\t\t\t// Amount of transaction\n\n\t\t// Private Information\n\t\tstring description;\t\t\t\t\t// Description of transaction\n\t\tstring itemsInTrade;\t\t\t\t// Items in transaction\n\t}\n\n\tbool public exists;\t\t\t\t\t\t\t// Used to determine if a token exists in a map\n\n\tstring description;\t\t\t\t\t\t// Description of the transaction between these addresses\n\taddress oldAccount;\t\t\t\t\t\t// Address of the old account\n\taddress voter;\t\t\t\t\t\t\t// Address of the voter\n\n\tbool vote;\t\t\t\t\t\t\t\t// The decision of the voter\n\tbool voted;\t\t\t\t\t\t\t\t// If the voter has voted\n\n\tDataSetInfo[] transactionDataSets;\t\t// Sets of data for transactions\n\n\tevent Vote(address indexed _voter, bool _choice); // Voting Event\n\n\tconstructor(address _oldAccount, address _voter, string memory _description) public {\n\t\tvoter = _voter;\n\t\toldAccount = _oldAccount;\n\n\t\tvote = false;\n\t\texists = true;\n\t\tvoted = false;\n\n\t\tdescription = _description;\n\t}\n\n\t// Casting a vote\n\tfunction CastVote(address from, bool choice) external {\n\t\t// Checks if the voter is allowed to vote\n\t\trequire(exists == true, \"This voter does not exist\");\n\t\trequire(voter == from, \"Sent from the wrong voter\");\n\t\trequire(transactionDataSets.length > 0, \"There is no transaction data to view\");\n\t\trequire(voted == false, \"Already Voted\");\n\t\tvote = choice;\n\t\tvoted = true;\n\t\temit Vote(voter, choice);\n\t}\n\n\t// Add a data set for a transaction with this voter\n\tfunction AddTransactionDataSet(uint _timeStamp, address _voter, uint _amount, \n\t\tstring calldata _description, string calldata itemsInTrade) external {\n\n\t\trequire(exists == true, \"This voter does not exist\");\n\t\ttransactionDataSets.push(DataSetInfo(_timeStamp, oldAccount, _voter, \n\t\t\t_amount, _description, itemsInTrade));\n\t}\n\n\t// View public information on a set of data for a transaction\n\tfunction ViewPublicInformation(uint i) external view returns (uint, uint, address, address) {\n\t\trequire(transactionDataSets.length > 0, \"There is no transaction data to view\");\n\t\treturn (transactionDataSets[i].timeStamp, transactionDataSets[i].amount, transactionDataSets[i].sender, transactionDataSets[i].receiver );\n\t}\n\t\n\t// View private information on a set of data for a transaction\n\tfunction ViewPrivateInformation(uint i) external view returns (string memory, string memory) {\n\t\trequire(transactionDataSets.length > 0, \"There is no transaction data to view\");\n\t\treturn (transactionDataSets[i].description, transactionDataSets[i].itemsInTrade);\n\t}\n\n\t// The voter is eligible to vote and has voted\n\tfunction ExistsAndVoted() external view returns (bool){\n\t\treturn exists && voted;\n\t}\n\n\t// The voter is eligible to vote and voted yes\n\tfunction VotedYes() external view returns (bool) {\n\t\treturn exists && voted && vote;\n\t}\n}\n",
  "sourcePath": "C:\\Users\\m5w5b\\Desktop\\GitHub\\game-dapp\\AccountRecovery\\contracts\\VotingToken.sol",
  "compiler": {
    "name": "solc",
    "version": "0.5.8+commit.23d335f2.Emscripten.clang"
  },
  "schemaVersion": "3.0.16",
  "updatedAt": "2019-10-18T01:35:03.029Z",
  "devdoc": {
    "methods": {}
  },
  "userdoc": {
    "methods": {}
  }
}