{
  "contractName": "GameObject",
  "abi": [
    {
      "inputs": [
        {
          "name": "amount",
          "type": "uint256"
        }
      ],
      "payable": false,
      "stateMutability": "nonpayable",
      "type": "constructor"
    },
    {
      "constant": true,
      "inputs": [],
      "name": "getBalance",
      "outputs": [
        {
          "name": "",
          "type": "uint256"
        }
      ],
      "payable": false,
      "stateMutability": "view",
      "type": "function"
    },
    {
      "constant": false,
      "inputs": [
        {
          "name": "amount",
          "type": "uint256"
        }
      ],
      "name": "incrementBalance",
      "outputs": [],
      "payable": false,
      "stateMutability": "nonpayable",
      "type": "function"
    },
    {
      "constant": false,
      "inputs": [
        {
          "name": "amount",
          "type": "uint256"
        }
      ],
      "name": "decrementBalance",
      "outputs": [],
      "payable": false,
      "stateMutability": "nonpayable",
      "type": "function"
    },
    {
      "constant": false,
      "inputs": [
        {
          "name": "amount",
          "type": "uint256"
        }
      ],
      "name": "setBalance",
      "outputs": [],
      "payable": false,
      "stateMutability": "nonpayable",
      "type": "function"
    }
  ],
  "bytecode": "0x608060405234801561001057600080fd5b506040516020806101b48339810180604052602081101561003057600080fd5b8101908080519060200190929190505050806000819055505061015c806100586000396000f3fe608060405234801561001057600080fd5b506004361061004c5760003560e01c806312065fe014610051578063b32fe94f1461006f578063eae39e1d1461009d578063fb1669ca146100cb575b600080fd5b6100596100f9565b6040518082815260200191505060405180910390f35b61009b6004803603602081101561008557600080fd5b8101908080359060200190929190505050610102565b005b6100c9600480360360208110156100b357600080fd5b8101908080359060200190929190505050610114565b005b6100f7600480360360208110156100e157600080fd5b8101908080359060200190929190505050610126565b005b60008054905090565b80600080828254019250508190555050565b80600080828254039250508190555050565b806000819055505056fea165627a7a72305820a107cdff574a828753de6bc6f0b43bffa65bf6f529b80e5b276bbca526c2b96d0029",
  "source": "pragma solidity >=0.4.25 <0.6.0;\n\n\ncontract Inventory {\n\n\tmapping (address => GameObject) Coins;\n\tmapping (address => GameObject) Item;\n\n\tevent Buy(address indexed _buyer, uint256 _price);\n\tevent Transfer(address indexed _from, address indexed _to, uint256 _value);\n\n\tconstructor() public {\n\t\tCoins[tx.origin] = new GameObject(10000);\n\t\tItem[tx.origin] = new GameObject(0);\n\t}\n\n\tfunction incrementBalance(address addr, uint amount) external {\n\t\tCoins[addr].incrementBalance(amount);\n\t}\n\n\tfunction buy(uint price) external returns(bool sufficient) {\n\t\tif (Coins[msg.sender].getBalance() < price) return false;\n\n\t\tCoins[msg.sender].decrementBalance(price);\n\n\t\t// return G.buy(price);\n\n\t\tItem[msg.sender].incrementBalance(1);\n\t\temit Buy(msg.sender, price);\n\t\treturn true;\n\t}\n\n\tfunction sendCoin(address receiver, uint amount) public returns(bool sufficient) {\n\t\tif (Coins[msg.sender].getBalance() < amount) return false;\n\n\t\tCoins[msg.sender].decrementBalance(amount);\n\t\tCoins[receiver].incrementBalance(amount);\n\t\temit Transfer(msg.sender, receiver, amount);\n\n\t\treturn true;\n\t}\n\n\n\tfunction getItemBalance(address addr) external view returns (uint) {\n\t\treturn Item[addr].getBalance();\n\t}\n\n\tfunction getCoinBalance(address addr) external view returns (uint) {\n\t\treturn Coins[addr].getBalance();\n\t}\n\n\n}\n\ncontract GameObject {\n\t\n\tuint balance;\n\n\tconstructor(uint amount) public {\n\t\tbalance = amount;\n\t}\n\n\tfunction getBalance() external view returns(uint) {\n\t\treturn balance;\n\t}\n\n\tfunction incrementBalance(uint amount) public {\n\t\tbalance += amount;\n\t}\n\n\tfunction decrementBalance(uint amount) public {\n\t\tbalance -= amount;\n\t}\n\n\tfunction setBalance(uint amount) public {\n\t\tbalance = amount;\n\t}\n}\n",
  "sourcePath": "C:/Users/m5w5b/Desktop/Blockchain/Test4/contracts/Contracts.sol",
  "compiler": {
    "name": "solc",
    "version": "0.5.8+commit.23d335f2.Emscripten.clang"
  },
  "schemaVersion": "3.0.16",
  "updatedAt": "2019-09-27T17:43:21.252Z",
  "devdoc": {
    "methods": {}
  },
  "userdoc": {
    "methods": {}
  }
}